{
	"RecieveFallback.sol": {
		"RecieveFallback": {
			"abi": [
				{
					"anonymous": false,
					"inputs": [
						{
							"indexed": false,
							"internalType": "address",
							"name": "addr",
							"type": "address"
						},
						{
							"indexed": false,
							"internalType": "bytes",
							"name": "data",
							"type": "bytes"
						}
					],
					"name": "Fallback",
					"type": "event"
				},
				{
					"anonymous": false,
					"inputs": [
						{
							"indexed": false,
							"internalType": "address",
							"name": "addr",
							"type": "address"
						},
						{
							"indexed": false,
							"internalType": "uint256",
							"name": "amount",
							"type": "uint256"
						}
					],
					"name": "Receive",
					"type": "event"
				},
				{
					"stateMutability": "payable",
					"type": "fallback"
				},
				{
					"inputs": [
						{
							"internalType": "uint256",
							"name": "amout",
							"type": "uint256"
						},
						{
							"internalType": "address payable",
							"name": "recipient",
							"type": "address"
						}
					],
					"name": "deal",
					"outputs": [],
					"stateMutability": "nonpayable",
					"type": "function"
				},
				{
					"inputs": [],
					"name": "getBalance",
					"outputs": [
						{
							"internalType": "uint256",
							"name": "",
							"type": "uint256"
						}
					],
					"stateMutability": "view",
					"type": "function"
				},
				{
					"stateMutability": "payable",
					"type": "receive"
				}
			],
			"devdoc": {
				"kind": "dev",
				"methods": {},
				"version": 1
			},
			"evm": {
				"assembly": "    /* \"RecieveFallback.sol\":60:932  contract RecieveFallback {... */\n  mstore(0x40, 0x80)\n  callvalue\n  dup1\n  iszero\n  tag_1\n  jumpi\n  0x00\n  dup1\n  revert\ntag_1:\n  pop\n  dataSize(sub_0)\n  dup1\n  dataOffset(sub_0)\n  0x00\n  codecopy\n  0x00\n  return\nstop\n\nsub_0: assembly {\n        /* \"RecieveFallback.sol\":60:932  contract RecieveFallback {... */\n      mstore(0x40, 0x80)\n      jumpi(tag_1, lt(calldatasize, 0x04))\n      shr(0xe0, calldataload(0x00))\n      dup1\n      0x12065fe0\n      eq\n      tag_3\n      jumpi\n      dup1\n      0xdbb6f70d\n      eq\n      tag_4\n      jumpi\n      jump(tag_2)\n    tag_1:\n      jumpi(tag_2, calldatasize)\n        /* \"RecieveFallback.sol\":371:400  Receive(msg.sender,msg.value) */\n      0xd6717f327e0cb88b4a97a7f67a453e9258252c34937ccbdd86de7cb840e7def3\n        /* \"RecieveFallback.sol\":379:389  msg.sender */\n      caller\n        /* \"RecieveFallback.sol\":390:399  msg.value */\n      callvalue\n        /* \"RecieveFallback.sol\":371:400  Receive(msg.sender,msg.value) */\n      mload(0x40)\n      tag_7\n      swap3\n      swap2\n      swap1\n      tag_8\n      jump\t// in\n    tag_7:\n      mload(0x40)\n      dup1\n      swap2\n      sub\n      swap1\n      log1\n        /* \"RecieveFallback.sol\":60:932  contract RecieveFallback {... */\n      stop\n    tag_2:\n        /* \"RecieveFallback.sol\":538:567  Fallback(msg.sender,msg.data) */\n      0xb78dfbff1c8013647c0bf515009bd5f9a569b4b2948f91fac392c42c250c1e5a\n        /* \"RecieveFallback.sol\":547:557  msg.sender */\n      caller\n        /* \"RecieveFallback.sol\":558:566  msg.data */\n      0x00\n      calldatasize\n        /* \"RecieveFallback.sol\":538:567  Fallback(msg.sender,msg.data) */\n      mload(0x40)\n      tag_11\n      swap4\n      swap3\n      swap2\n      swap1\n      tag_12\n      jump\t// in\n    tag_11:\n      mload(0x40)\n      dup1\n      swap2\n      sub\n      swap1\n      log1\n        /* \"RecieveFallback.sol\":60:932  contract RecieveFallback {... */\n      stop\n        /* \"RecieveFallback.sol\":831:929  function getBalance() public view returns (uint256){... */\n    tag_3:\n      callvalue\n      dup1\n      iszero\n      tag_13\n      jumpi\n      0x00\n      dup1\n      revert\n    tag_13:\n      pop\n      tag_14\n      tag_15\n      jump\t// in\n    tag_14:\n      mload(0x40)\n      tag_16\n      swap2\n      swap1\n      tag_17\n      jump\t// in\n    tag_16:\n      mload(0x40)\n      dup1\n      swap2\n      sub\n      swap1\n      return\n        /* \"RecieveFallback.sol\":616:796  function deal(uint256 amout,address payable recipient) public {... */\n    tag_4:\n      callvalue\n      dup1\n      iszero\n      tag_18\n      jumpi\n      0x00\n      dup1\n      revert\n    tag_18:\n      pop\n      tag_19\n      0x04\n      dup1\n      calldatasize\n      sub\n      dup2\n      add\n      swap1\n      tag_20\n      swap2\n      swap1\n      tag_21\n      jump\t// in\n    tag_20:\n      tag_22\n      jump\t// in\n    tag_19:\n      stop\n        /* \"RecieveFallback.sol\":831:929  function getBalance() public view returns (uint256){... */\n    tag_15:\n        /* \"RecieveFallback.sol\":874:881  uint256 */\n      0x00\n        /* \"RecieveFallback.sol\":900:921  address(this).balance */\n      selfbalance\n        /* \"RecieveFallback.sol\":893:921  return address(this).balance */\n      swap1\n      pop\n        /* \"RecieveFallback.sol\":831:929  function getBalance() public view returns (uint256){... */\n      swap1\n      jump\t// out\n        /* \"RecieveFallback.sol\":616:796  function deal(uint256 amout,address payable recipient) public {... */\n    tag_22:\n        /* \"RecieveFallback.sol\":706:727  address(this).balance */\n      selfbalance\n        /* \"RecieveFallback.sol\":697:702  amout */\n      dup3\n        /* \"RecieveFallback.sol\":697:727  amout <= address(this).balance */\n      gt\n      iszero\n        /* \"RecieveFallback.sol\":689:752  require(amout <= address(this).balance, \"insufficient balance\") */\n      tag_25\n      jumpi\n      mload(0x40)\n      0x08c379a000000000000000000000000000000000000000000000000000000000\n      dup2\n      mstore\n      0x04\n      add\n      tag_26\n      swap1\n      tag_27\n      jump\t// in\n    tag_26:\n      mload(0x40)\n      dup1\n      swap2\n      sub\n      swap1\n      revert\n    tag_25:\n        /* \"RecieveFallback.sol\":763:772  recipient */\n      dup1\n        /* \"RecieveFallback.sol\":763:781  recipient.transfer */\n      0xffffffffffffffffffffffffffffffffffffffff\n      and\n        /* \"RecieveFallback.sol\":763:788  recipient.transfer(amout) */\n      0x08fc\n        /* \"RecieveFallback.sol\":782:787  amout */\n      dup4\n        /* \"RecieveFallback.sol\":763:788  recipient.transfer(amout) */\n      swap1\n      dup2\n      iszero\n      mul\n      swap1\n      mload(0x40)\n      0x00\n      mload(0x40)\n      dup1\n      dup4\n      sub\n      dup2\n      dup6\n      dup9\n      dup9\n      call\n      swap4\n      pop\n      pop\n      pop\n      pop\n      iszero\n      dup1\n      iszero\n      tag_29\n      jumpi\n      returndatasize\n      0x00\n      dup1\n      returndatacopy\n      revert(0x00, returndatasize)\n    tag_29:\n      pop\n        /* \"RecieveFallback.sol\":616:796  function deal(uint256 amout,address payable recipient) public {... */\n      pop\n      pop\n      jump\t// out\n        /* \"#utility.yul\":7:133   */\n    tag_30:\n        /* \"#utility.yul\":44:51   */\n      0x00\n        /* \"#utility.yul\":84:126   */\n      0xffffffffffffffffffffffffffffffffffffffff\n        /* \"#utility.yul\":77:82   */\n      dup3\n        /* \"#utility.yul\":73:127   */\n      and\n        /* \"#utility.yul\":62:127   */\n      swap1\n      pop\n        /* \"#utility.yul\":7:133   */\n      swap2\n      swap1\n      pop\n      jump\t// out\n        /* \"#utility.yul\":139:235   */\n    tag_31:\n        /* \"#utility.yul\":176:183   */\n      0x00\n        /* \"#utility.yul\":205:229   */\n      tag_53\n        /* \"#utility.yul\":223:228   */\n      dup3\n        /* \"#utility.yul\":205:229   */\n      tag_30\n      jump\t// in\n    tag_53:\n        /* \"#utility.yul\":194:229   */\n      swap1\n      pop\n        /* \"#utility.yul\":139:235   */\n      swap2\n      swap1\n      pop\n      jump\t// out\n        /* \"#utility.yul\":241:359   */\n    tag_32:\n        /* \"#utility.yul\":328:352   */\n      tag_55\n        /* \"#utility.yul\":346:351   */\n      dup2\n        /* \"#utility.yul\":328:352   */\n      tag_31\n      jump\t// in\n    tag_55:\n        /* \"#utility.yul\":323:326   */\n      dup3\n        /* \"#utility.yul\":316:353   */\n      mstore\n        /* \"#utility.yul\":241:359   */\n      pop\n      pop\n      jump\t// out\n        /* \"#utility.yul\":365:442   */\n    tag_33:\n        /* \"#utility.yul\":402:409   */\n      0x00\n        /* \"#utility.yul\":431:436   */\n      dup2\n        /* \"#utility.yul\":420:436   */\n      swap1\n      pop\n        /* \"#utility.yul\":365:442   */\n      swap2\n      swap1\n      pop\n      jump\t// out\n        /* \"#utility.yul\":448:566   */\n    tag_34:\n        /* \"#utility.yul\":535:559   */\n      tag_58\n        /* \"#utility.yul\":553:558   */\n      dup2\n        /* \"#utility.yul\":535:559   */\n      tag_33\n      jump\t// in\n    tag_58:\n        /* \"#utility.yul\":530:533   */\n      dup3\n        /* \"#utility.yul\":523:560   */\n      mstore\n        /* \"#utility.yul\":448:566   */\n      pop\n      pop\n      jump\t// out\n        /* \"#utility.yul\":572:904   */\n    tag_8:\n        /* \"#utility.yul\":693:697   */\n      0x00\n        /* \"#utility.yul\":731:733   */\n      0x40\n        /* \"#utility.yul\":720:729   */\n      dup3\n        /* \"#utility.yul\":716:734   */\n      add\n        /* \"#utility.yul\":708:734   */\n      swap1\n      pop\n        /* \"#utility.yul\":744:815   */\n      tag_60\n        /* \"#utility.yul\":812:813   */\n      0x00\n        /* \"#utility.yul\":801:810   */\n      dup4\n        /* \"#utility.yul\":797:814   */\n      add\n        /* \"#utility.yul\":788:794   */\n      dup6\n        /* \"#utility.yul\":744:815   */\n      tag_32\n      jump\t// in\n    tag_60:\n        /* \"#utility.yul\":825:897   */\n      tag_61\n        /* \"#utility.yul\":893:895   */\n      0x20\n        /* \"#utility.yul\":882:891   */\n      dup4\n        /* \"#utility.yul\":878:896   */\n      add\n        /* \"#utility.yul\":869:875   */\n      dup5\n        /* \"#utility.yul\":825:897   */\n      tag_34\n      jump\t// in\n    tag_61:\n        /* \"#utility.yul\":572:904   */\n      swap4\n      swap3\n      pop\n      pop\n      pop\n      jump\t// out\n        /* \"#utility.yul\":910:1078   */\n    tag_35:\n        /* \"#utility.yul\":993:1004   */\n      0x00\n        /* \"#utility.yul\":1027:1033   */\n      dup3\n        /* \"#utility.yul\":1022:1025   */\n      dup3\n        /* \"#utility.yul\":1015:1034   */\n      mstore\n        /* \"#utility.yul\":1067:1071   */\n      0x20\n        /* \"#utility.yul\":1062:1065   */\n      dup3\n        /* \"#utility.yul\":1058:1072   */\n      add\n        /* \"#utility.yul\":1043:1072   */\n      swap1\n      pop\n        /* \"#utility.yul\":910:1078   */\n      swap3\n      swap2\n      pop\n      pop\n      jump\t// out\n        /* \"#utility.yul\":1084:1232   */\n    tag_36:\n        /* \"#utility.yul\":1182:1188   */\n      dup3\n        /* \"#utility.yul\":1177:1180   */\n      dup2\n        /* \"#utility.yul\":1172:1175   */\n      dup4\n        /* \"#utility.yul\":1159:1189   */\n      calldatacopy\n        /* \"#utility.yul\":1223:1224   */\n      0x00\n        /* \"#utility.yul\":1214:1220   */\n      dup4\n        /* \"#utility.yul\":1209:1212   */\n      dup4\n        /* \"#utility.yul\":1205:1221   */\n      add\n        /* \"#utility.yul\":1198:1225   */\n      mstore\n        /* \"#utility.yul\":1084:1232   */\n      pop\n      pop\n      pop\n      jump\t// out\n        /* \"#utility.yul\":1238:1340   */\n    tag_37:\n        /* \"#utility.yul\":1279:1285   */\n      0x00\n        /* \"#utility.yul\":1330:1332   */\n      0x1f\n        /* \"#utility.yul\":1326:1333   */\n      not\n        /* \"#utility.yul\":1321:1323   */\n      0x1f\n        /* \"#utility.yul\":1314:1319   */\n      dup4\n        /* \"#utility.yul\":1310:1324   */\n      add\n        /* \"#utility.yul\":1306:1334   */\n      and\n        /* \"#utility.yul\":1296:1334   */\n      swap1\n      pop\n        /* \"#utility.yul\":1238:1340   */\n      swap2\n      swap1\n      pop\n      jump\t// out\n        /* \"#utility.yul\":1368:1682   */\n    tag_38:\n        /* \"#utility.yul\":1464:1467   */\n      0x00\n        /* \"#utility.yul\":1485:1555   */\n      tag_66\n        /* \"#utility.yul\":1548:1554   */\n      dup4\n        /* \"#utility.yul\":1543:1546   */\n      dup6\n        /* \"#utility.yul\":1485:1555   */\n      tag_35\n      jump\t// in\n    tag_66:\n        /* \"#utility.yul\":1478:1555   */\n      swap4\n      pop\n        /* \"#utility.yul\":1565:1621   */\n      tag_67\n        /* \"#utility.yul\":1614:1620   */\n      dup4\n        /* \"#utility.yul\":1609:1612   */\n      dup6\n        /* \"#utility.yul\":1602:1607   */\n      dup5\n        /* \"#utility.yul\":1565:1621   */\n      tag_36\n      jump\t// in\n    tag_67:\n        /* \"#utility.yul\":1646:1675   */\n      tag_68\n        /* \"#utility.yul\":1668:1674   */\n      dup4\n        /* \"#utility.yul\":1646:1675   */\n      tag_37\n      jump\t// in\n    tag_68:\n        /* \"#utility.yul\":1641:1644   */\n      dup5\n        /* \"#utility.yul\":1637:1676   */\n      add\n        /* \"#utility.yul\":1630:1676   */\n      swap1\n      pop\n        /* \"#utility.yul\":1368:1682   */\n      swap4\n      swap3\n      pop\n      pop\n      pop\n      jump\t// out\n        /* \"#utility.yul\":1688:2127   */\n    tag_12:\n        /* \"#utility.yul\":1837:1841   */\n      0x00\n        /* \"#utility.yul\":1875:1877   */\n      0x40\n        /* \"#utility.yul\":1864:1873   */\n      dup3\n        /* \"#utility.yul\":1860:1878   */\n      add\n        /* \"#utility.yul\":1852:1878   */\n      swap1\n      pop\n        /* \"#utility.yul\":1888:1959   */\n      tag_70\n        /* \"#utility.yul\":1956:1957   */\n      0x00\n        /* \"#utility.yul\":1945:1954   */\n      dup4\n        /* \"#utility.yul\":1941:1958   */\n      add\n        /* \"#utility.yul\":1932:1938   */\n      dup7\n        /* \"#utility.yul\":1888:1959   */\n      tag_32\n      jump\t// in\n    tag_70:\n        /* \"#utility.yul\":2006:2015   */\n      dup2\n        /* \"#utility.yul\":2000:2004   */\n      dup2\n        /* \"#utility.yul\":1996:2016   */\n      sub\n        /* \"#utility.yul\":1991:1993   */\n      0x20\n        /* \"#utility.yul\":1980:1989   */\n      dup4\n        /* \"#utility.yul\":1976:1994   */\n      add\n        /* \"#utility.yul\":1969:2017   */\n      mstore\n        /* \"#utility.yul\":2034:2120   */\n      tag_71\n        /* \"#utility.yul\":2115:2119   */\n      dup2\n        /* \"#utility.yul\":2106:2112   */\n      dup5\n        /* \"#utility.yul\":2098:2104   */\n      dup7\n        /* \"#utility.yul\":2034:2120   */\n      tag_38\n      jump\t// in\n    tag_71:\n        /* \"#utility.yul\":2026:2120   */\n      swap1\n      pop\n        /* \"#utility.yul\":1688:2127   */\n      swap5\n      swap4\n      pop\n      pop\n      pop\n      pop\n      jump\t// out\n        /* \"#utility.yul\":2133:2355   */\n    tag_17:\n        /* \"#utility.yul\":2226:2230   */\n      0x00\n        /* \"#utility.yul\":2264:2266   */\n      0x20\n        /* \"#utility.yul\":2253:2262   */\n      dup3\n        /* \"#utility.yul\":2249:2267   */\n      add\n        /* \"#utility.yul\":2241:2267   */\n      swap1\n      pop\n        /* \"#utility.yul\":2277:2348   */\n      tag_73\n        /* \"#utility.yul\":2345:2346   */\n      0x00\n        /* \"#utility.yul\":2334:2343   */\n      dup4\n        /* \"#utility.yul\":2330:2347   */\n      add\n        /* \"#utility.yul\":2321:2327   */\n      dup5\n        /* \"#utility.yul\":2277:2348   */\n      tag_34\n      jump\t// in\n    tag_73:\n        /* \"#utility.yul\":2133:2355   */\n      swap3\n      swap2\n      pop\n      pop\n      jump\t// out\n        /* \"#utility.yul\":2442:2559   */\n    tag_40:\n        /* \"#utility.yul\":2551:2552   */\n      0x00\n        /* \"#utility.yul\":2548:2549   */\n      dup1\n        /* \"#utility.yul\":2541:2553   */\n      revert\n        /* \"#utility.yul\":2688:2810   */\n    tag_42:\n        /* \"#utility.yul\":2761:2785   */\n      tag_78\n        /* \"#utility.yul\":2779:2784   */\n      dup2\n        /* \"#utility.yul\":2761:2785   */\n      tag_33\n      jump\t// in\n    tag_78:\n        /* \"#utility.yul\":2754:2759   */\n      dup2\n        /* \"#utility.yul\":2751:2786   */\n      eq\n        /* \"#utility.yul\":2741:2804   */\n      tag_79\n      jumpi\n        /* \"#utility.yul\":2800:2801   */\n      0x00\n        /* \"#utility.yul\":2797:2798   */\n      dup1\n        /* \"#utility.yul\":2790:2802   */\n      revert\n        /* \"#utility.yul\":2741:2804   */\n    tag_79:\n        /* \"#utility.yul\":2688:2810   */\n      pop\n      jump\t// out\n        /* \"#utility.yul\":2816:2955   */\n    tag_43:\n        /* \"#utility.yul\":2862:2867   */\n      0x00\n        /* \"#utility.yul\":2900:2906   */\n      dup2\n        /* \"#utility.yul\":2887:2907   */\n      calldataload\n        /* \"#utility.yul\":2878:2907   */\n      swap1\n      pop\n        /* \"#utility.yul\":2916:2949   */\n      tag_81\n        /* \"#utility.yul\":2943:2948   */\n      dup2\n        /* \"#utility.yul\":2916:2949   */\n      tag_42\n      jump\t// in\n    tag_81:\n        /* \"#utility.yul\":2816:2955   */\n      swap3\n      swap2\n      pop\n      pop\n      jump\t// out\n        /* \"#utility.yul\":2961:3065   */\n    tag_44:\n        /* \"#utility.yul\":3006:3013   */\n      0x00\n        /* \"#utility.yul\":3035:3059   */\n      tag_83\n        /* \"#utility.yul\":3053:3058   */\n      dup3\n        /* \"#utility.yul\":3035:3059   */\n      tag_30\n      jump\t// in\n    tag_83:\n        /* \"#utility.yul\":3024:3059   */\n      swap1\n      pop\n        /* \"#utility.yul\":2961:3065   */\n      swap2\n      swap1\n      pop\n      jump\t// out\n        /* \"#utility.yul\":3071:3209   */\n    tag_45:\n        /* \"#utility.yul\":3152:3184   */\n      tag_85\n        /* \"#utility.yul\":3178:3183   */\n      dup2\n        /* \"#utility.yul\":3152:3184   */\n      tag_44\n      jump\t// in\n    tag_85:\n        /* \"#utility.yul\":3145:3150   */\n      dup2\n        /* \"#utility.yul\":3142:3185   */\n      eq\n        /* \"#utility.yul\":3132:3203   */\n      tag_86\n      jumpi\n        /* \"#utility.yul\":3199:3200   */\n      0x00\n        /* \"#utility.yul\":3196:3197   */\n      dup1\n        /* \"#utility.yul\":3189:3201   */\n      revert\n        /* \"#utility.yul\":3132:3203   */\n    tag_86:\n        /* \"#utility.yul\":3071:3209   */\n      pop\n      jump\t// out\n        /* \"#utility.yul\":3215:3370   */\n    tag_46:\n        /* \"#utility.yul\":3269:3274   */\n      0x00\n        /* \"#utility.yul\":3307:3313   */\n      dup2\n        /* \"#utility.yul\":3294:3314   */\n      calldataload\n        /* \"#utility.yul\":3285:3314   */\n      swap1\n      pop\n        /* \"#utility.yul\":3323:3364   */\n      tag_88\n        /* \"#utility.yul\":3358:3363   */\n      dup2\n        /* \"#utility.yul\":3323:3364   */\n      tag_45\n      jump\t// in\n    tag_88:\n        /* \"#utility.yul\":3215:3370   */\n      swap3\n      swap2\n      pop\n      pop\n      jump\t// out\n        /* \"#utility.yul\":3376:3866   */\n    tag_21:\n        /* \"#utility.yul\":3452:3458   */\n      0x00\n        /* \"#utility.yul\":3460:3466   */\n      dup1\n        /* \"#utility.yul\":3509:3511   */\n      0x40\n        /* \"#utility.yul\":3497:3506   */\n      dup4\n        /* \"#utility.yul\":3488:3495   */\n      dup6\n        /* \"#utility.yul\":3484:3507   */\n      sub\n        /* \"#utility.yul\":3480:3512   */\n      slt\n        /* \"#utility.yul\":3477:3596   */\n      iszero\n      tag_90\n      jumpi\n        /* \"#utility.yul\":3515:3594   */\n      tag_91\n      tag_40\n      jump\t// in\n    tag_91:\n        /* \"#utility.yul\":3477:3596   */\n    tag_90:\n        /* \"#utility.yul\":3635:3636   */\n      0x00\n        /* \"#utility.yul\":3660:3713   */\n      tag_92\n        /* \"#utility.yul\":3705:3712   */\n      dup6\n        /* \"#utility.yul\":3696:3702   */\n      dup3\n        /* \"#utility.yul\":3685:3694   */\n      dup7\n        /* \"#utility.yul\":3681:3703   */\n      add\n        /* \"#utility.yul\":3660:3713   */\n      tag_43\n      jump\t// in\n    tag_92:\n        /* \"#utility.yul\":3650:3713   */\n      swap3\n      pop\n        /* \"#utility.yul\":3606:3723   */\n      pop\n        /* \"#utility.yul\":3762:3764   */\n      0x20\n        /* \"#utility.yul\":3788:3849   */\n      tag_93\n        /* \"#utility.yul\":3841:3848   */\n      dup6\n        /* \"#utility.yul\":3832:3838   */\n      dup3\n        /* \"#utility.yul\":3821:3830   */\n      dup7\n        /* \"#utility.yul\":3817:3839   */\n      add\n        /* \"#utility.yul\":3788:3849   */\n      tag_46\n      jump\t// in\n    tag_93:\n        /* \"#utility.yul\":3778:3849   */\n      swap2\n      pop\n        /* \"#utility.yul\":3733:3859   */\n      pop\n        /* \"#utility.yul\":3376:3866   */\n      swap3\n      pop\n      swap3\n      swap1\n      pop\n      jump\t// out\n        /* \"#utility.yul\":3872:4041   */\n    tag_47:\n        /* \"#utility.yul\":3956:3967   */\n      0x00\n        /* \"#utility.yul\":3990:3996   */\n      dup3\n        /* \"#utility.yul\":3985:3988   */\n      dup3\n        /* \"#utility.yul\":3978:3997   */\n      mstore\n        /* \"#utility.yul\":4030:4034   */\n      0x20\n        /* \"#utility.yul\":4025:4028   */\n      dup3\n        /* \"#utility.yul\":4021:4035   */\n      add\n        /* \"#utility.yul\":4006:4035   */\n      swap1\n      pop\n        /* \"#utility.yul\":3872:4041   */\n      swap3\n      swap2\n      pop\n      pop\n      jump\t// out\n        /* \"#utility.yul\":4047:4217   */\n    tag_48:\n        /* \"#utility.yul\":4187:4209   */\n      0x696e73756666696369656e742062616c616e6365000000000000000000000000\n        /* \"#utility.yul\":4183:4184   */\n      0x00\n        /* \"#utility.yul\":4175:4181   */\n      dup3\n        /* \"#utility.yul\":4171:4185   */\n      add\n        /* \"#utility.yul\":4164:4210   */\n      mstore\n        /* \"#utility.yul\":4047:4217   */\n      pop\n      jump\t// out\n        /* \"#utility.yul\":4223:4589   */\n    tag_49:\n        /* \"#utility.yul\":4365:4368   */\n      0x00\n        /* \"#utility.yul\":4386:4453   */\n      tag_97\n        /* \"#utility.yul\":4450:4452   */\n      0x14\n        /* \"#utility.yul\":4445:4448   */\n      dup4\n        /* \"#utility.yul\":4386:4453   */\n      tag_47\n      jump\t// in\n    tag_97:\n        /* \"#utility.yul\":4379:4453   */\n      swap2\n      pop\n        /* \"#utility.yul\":4462:4555   */\n      tag_98\n        /* \"#utility.yul\":4551:4554   */\n      dup3\n        /* \"#utility.yul\":4462:4555   */\n      tag_48\n      jump\t// in\n    tag_98:\n        /* \"#utility.yul\":4580:4582   */\n      0x20\n        /* \"#utility.yul\":4575:4578   */\n      dup3\n        /* \"#utility.yul\":4571:4583   */\n      add\n        /* \"#utility.yul\":4564:4583   */\n      swap1\n      pop\n        /* \"#utility.yul\":4223:4589   */\n      swap2\n      swap1\n      pop\n      jump\t// out\n        /* \"#utility.yul\":4595:5014   */\n    tag_27:\n        /* \"#utility.yul\":4761:4765   */\n      0x00\n        /* \"#utility.yul\":4799:4801   */\n      0x20\n        /* \"#utility.yul\":4788:4797   */\n      dup3\n        /* \"#utility.yul\":4784:4802   */\n      add\n        /* \"#utility.yul\":4776:4802   */\n      swap1\n      pop\n        /* \"#utility.yul\":4848:4857   */\n      dup2\n        /* \"#utility.yul\":4842:4846   */\n      dup2\n        /* \"#utility.yul\":4838:4858   */\n      sub\n        /* \"#utility.yul\":4834:4835   */\n      0x00\n        /* \"#utility.yul\":4823:4832   */\n      dup4\n        /* \"#utility.yul\":4819:4836   */\n      add\n        /* \"#utility.yul\":4812:4859   */\n      mstore\n        /* \"#utility.yul\":4876:5007   */\n      tag_100\n        /* \"#utility.yul\":5002:5006   */\n      dup2\n        /* \"#utility.yul\":4876:5007   */\n      tag_49\n      jump\t// in\n    tag_100:\n        /* \"#utility.yul\":4868:5007   */\n      swap1\n      pop\n        /* \"#utility.yul\":4595:5014   */\n      swap2\n      swap1\n      pop\n      jump\t// out\n\n    auxdata: 0xa2646970667358221220628231ee81d5d78f467120ccbdea01731837a5fd4b260083b700bb16824dee9e64736f6c634300081a0033\n}\n",
				"bytecode": {
					"linkReferences": {},
					"object": "6080604052348015600e575f80fd5b506104038061001c5f395ff3fe60806040526004361061002c575f3560e01c806312065fe0146100a9578063dbb6f70d146100d35761006c565b3661006c577fd6717f327e0cb88b4a97a7f67a453e9258252c34937ccbdd86de7cb840e7def333346040516100629291906101e4565b60405180910390a1005b7fb78dfbff1c8013647c0bf515009bd5f9a569b4b2948f91fac392c42c250c1e5a335f3660405161009f93929190610265565b60405180910390a1005b3480156100b4575f80fd5b506100bd6100fb565b6040516100ca9190610295565b60405180910390f35b3480156100de575f80fd5b506100f960048036038101906100f49190610317565b610102565b005b5f47905090565b47821115610145576040517f08c379a000000000000000000000000000000000000000000000000000000000815260040161013c906103af565b60405180910390fd5b8073ffffffffffffffffffffffffffffffffffffffff166108fc8390811502906040515f60405180830381858888f19350505050158015610188573d5f803e3d5ffd5b505050565b5f73ffffffffffffffffffffffffffffffffffffffff82169050919050565b5f6101b68261018d565b9050919050565b6101c6816101ac565b82525050565b5f819050919050565b6101de816101cc565b82525050565b5f6040820190506101f75f8301856101bd565b61020460208301846101d5565b9392505050565b5f82825260208201905092915050565b828183375f83830152505050565b5f601f19601f8301169050919050565b5f610244838561020b565b935061025183858461021b565b61025a83610229565b840190509392505050565b5f6040820190506102785f8301866101bd565b818103602083015261028b818486610239565b9050949350505050565b5f6020820190506102a85f8301846101d5565b92915050565b5f80fd5b6102bb816101cc565b81146102c5575f80fd5b50565b5f813590506102d6816102b2565b92915050565b5f6102e68261018d565b9050919050565b6102f6816102dc565b8114610300575f80fd5b50565b5f81359050610311816102ed565b92915050565b5f806040838503121561032d5761032c6102ae565b5b5f61033a858286016102c8565b925050602061034b85828601610303565b9150509250929050565b5f82825260208201905092915050565b7f696e73756666696369656e742062616c616e63650000000000000000000000005f82015250565b5f610399601483610355565b91506103a482610365565b602082019050919050565b5f6020820190508181035f8301526103c68161038d565b905091905056fea2646970667358221220628231ee81d5d78f467120ccbdea01731837a5fd4b260083b700bb16824dee9e64736f6c634300081a0033",
					"opcodes": "PUSH1 0x80 PUSH1 0x40 MSTORE CALLVALUE DUP1 ISZERO PUSH1 0xE JUMPI PUSH0 DUP1 REVERT JUMPDEST POP PUSH2 0x403 DUP1 PUSH2 0x1C PUSH0 CODECOPY PUSH0 RETURN INVALID PUSH1 0x80 PUSH1 0x40 MSTORE PUSH1 0x4 CALLDATASIZE LT PUSH2 0x2C JUMPI PUSH0 CALLDATALOAD PUSH1 0xE0 SHR DUP1 PUSH4 0x12065FE0 EQ PUSH2 0xA9 JUMPI DUP1 PUSH4 0xDBB6F70D EQ PUSH2 0xD3 JUMPI PUSH2 0x6C JUMP JUMPDEST CALLDATASIZE PUSH2 0x6C JUMPI PUSH32 0xD6717F327E0CB88B4A97A7F67A453E9258252C34937CCBDD86DE7CB840E7DEF3 CALLER CALLVALUE PUSH1 0x40 MLOAD PUSH2 0x62 SWAP3 SWAP2 SWAP1 PUSH2 0x1E4 JUMP JUMPDEST PUSH1 0x40 MLOAD DUP1 SWAP2 SUB SWAP1 LOG1 STOP JUMPDEST PUSH32 0xB78DFBFF1C8013647C0BF515009BD5F9A569B4B2948F91FAC392C42C250C1E5A CALLER PUSH0 CALLDATASIZE PUSH1 0x40 MLOAD PUSH2 0x9F SWAP4 SWAP3 SWAP2 SWAP1 PUSH2 0x265 JUMP JUMPDEST PUSH1 0x40 MLOAD DUP1 SWAP2 SUB SWAP1 LOG1 STOP JUMPDEST CALLVALUE DUP1 ISZERO PUSH2 0xB4 JUMPI PUSH0 DUP1 REVERT JUMPDEST POP PUSH2 0xBD PUSH2 0xFB JUMP JUMPDEST PUSH1 0x40 MLOAD PUSH2 0xCA SWAP2 SWAP1 PUSH2 0x295 JUMP JUMPDEST PUSH1 0x40 MLOAD DUP1 SWAP2 SUB SWAP1 RETURN JUMPDEST CALLVALUE DUP1 ISZERO PUSH2 0xDE JUMPI PUSH0 DUP1 REVERT JUMPDEST POP PUSH2 0xF9 PUSH1 0x4 DUP1 CALLDATASIZE SUB DUP2 ADD SWAP1 PUSH2 0xF4 SWAP2 SWAP1 PUSH2 0x317 JUMP JUMPDEST PUSH2 0x102 JUMP JUMPDEST STOP JUMPDEST PUSH0 SELFBALANCE SWAP1 POP SWAP1 JUMP JUMPDEST SELFBALANCE DUP3 GT ISZERO PUSH2 0x145 JUMPI PUSH1 0x40 MLOAD PUSH32 0x8C379A000000000000000000000000000000000000000000000000000000000 DUP2 MSTORE PUSH1 0x4 ADD PUSH2 0x13C SWAP1 PUSH2 0x3AF JUMP JUMPDEST PUSH1 0x40 MLOAD DUP1 SWAP2 SUB SWAP1 REVERT JUMPDEST DUP1 PUSH20 0xFFFFFFFFFFFFFFFFFFFFFFFFFFFFFFFFFFFFFFFF AND PUSH2 0x8FC DUP4 SWAP1 DUP2 ISZERO MUL SWAP1 PUSH1 0x40 MLOAD PUSH0 PUSH1 0x40 MLOAD DUP1 DUP4 SUB DUP2 DUP6 DUP9 DUP9 CALL SWAP4 POP POP POP POP ISZERO DUP1 ISZERO PUSH2 0x188 JUMPI RETURNDATASIZE PUSH0 DUP1 RETURNDATACOPY RETURNDATASIZE PUSH0 REVERT JUMPDEST POP POP POP JUMP JUMPDEST PUSH0 PUSH20 0xFFFFFFFFFFFFFFFFFFFFFFFFFFFFFFFFFFFFFFFF DUP3 AND SWAP1 POP SWAP2 SWAP1 POP JUMP JUMPDEST PUSH0 PUSH2 0x1B6 DUP3 PUSH2 0x18D JUMP JUMPDEST SWAP1 POP SWAP2 SWAP1 POP JUMP JUMPDEST PUSH2 0x1C6 DUP2 PUSH2 0x1AC JUMP JUMPDEST DUP3 MSTORE POP POP JUMP JUMPDEST PUSH0 DUP2 SWAP1 POP SWAP2 SWAP1 POP JUMP JUMPDEST PUSH2 0x1DE DUP2 PUSH2 0x1CC JUMP JUMPDEST DUP3 MSTORE POP POP JUMP JUMPDEST PUSH0 PUSH1 0x40 DUP3 ADD SWAP1 POP PUSH2 0x1F7 PUSH0 DUP4 ADD DUP6 PUSH2 0x1BD JUMP JUMPDEST PUSH2 0x204 PUSH1 0x20 DUP4 ADD DUP5 PUSH2 0x1D5 JUMP JUMPDEST SWAP4 SWAP3 POP POP POP JUMP JUMPDEST PUSH0 DUP3 DUP3 MSTORE PUSH1 0x20 DUP3 ADD SWAP1 POP SWAP3 SWAP2 POP POP JUMP JUMPDEST DUP3 DUP2 DUP4 CALLDATACOPY PUSH0 DUP4 DUP4 ADD MSTORE POP POP POP JUMP JUMPDEST PUSH0 PUSH1 0x1F NOT PUSH1 0x1F DUP4 ADD AND SWAP1 POP SWAP2 SWAP1 POP JUMP JUMPDEST PUSH0 PUSH2 0x244 DUP4 DUP6 PUSH2 0x20B JUMP JUMPDEST SWAP4 POP PUSH2 0x251 DUP4 DUP6 DUP5 PUSH2 0x21B JUMP JUMPDEST PUSH2 0x25A DUP4 PUSH2 0x229 JUMP JUMPDEST DUP5 ADD SWAP1 POP SWAP4 SWAP3 POP POP POP JUMP JUMPDEST PUSH0 PUSH1 0x40 DUP3 ADD SWAP1 POP PUSH2 0x278 PUSH0 DUP4 ADD DUP7 PUSH2 0x1BD JUMP JUMPDEST DUP2 DUP2 SUB PUSH1 0x20 DUP4 ADD MSTORE PUSH2 0x28B DUP2 DUP5 DUP7 PUSH2 0x239 JUMP JUMPDEST SWAP1 POP SWAP5 SWAP4 POP POP POP POP JUMP JUMPDEST PUSH0 PUSH1 0x20 DUP3 ADD SWAP1 POP PUSH2 0x2A8 PUSH0 DUP4 ADD DUP5 PUSH2 0x1D5 JUMP JUMPDEST SWAP3 SWAP2 POP POP JUMP JUMPDEST PUSH0 DUP1 REVERT JUMPDEST PUSH2 0x2BB DUP2 PUSH2 0x1CC JUMP JUMPDEST DUP2 EQ PUSH2 0x2C5 JUMPI PUSH0 DUP1 REVERT JUMPDEST POP JUMP JUMPDEST PUSH0 DUP2 CALLDATALOAD SWAP1 POP PUSH2 0x2D6 DUP2 PUSH2 0x2B2 JUMP JUMPDEST SWAP3 SWAP2 POP POP JUMP JUMPDEST PUSH0 PUSH2 0x2E6 DUP3 PUSH2 0x18D JUMP JUMPDEST SWAP1 POP SWAP2 SWAP1 POP JUMP JUMPDEST PUSH2 0x2F6 DUP2 PUSH2 0x2DC JUMP JUMPDEST DUP2 EQ PUSH2 0x300 JUMPI PUSH0 DUP1 REVERT JUMPDEST POP JUMP JUMPDEST PUSH0 DUP2 CALLDATALOAD SWAP1 POP PUSH2 0x311 DUP2 PUSH2 0x2ED JUMP JUMPDEST SWAP3 SWAP2 POP POP JUMP JUMPDEST PUSH0 DUP1 PUSH1 0x40 DUP4 DUP6 SUB SLT ISZERO PUSH2 0x32D JUMPI PUSH2 0x32C PUSH2 0x2AE JUMP JUMPDEST JUMPDEST PUSH0 PUSH2 0x33A DUP6 DUP3 DUP7 ADD PUSH2 0x2C8 JUMP JUMPDEST SWAP3 POP POP PUSH1 0x20 PUSH2 0x34B DUP6 DUP3 DUP7 ADD PUSH2 0x303 JUMP JUMPDEST SWAP2 POP POP SWAP3 POP SWAP3 SWAP1 POP JUMP JUMPDEST PUSH0 DUP3 DUP3 MSTORE PUSH1 0x20 DUP3 ADD SWAP1 POP SWAP3 SWAP2 POP POP JUMP JUMPDEST PUSH32 0x696E73756666696369656E742062616C616E6365000000000000000000000000 PUSH0 DUP3 ADD MSTORE POP JUMP JUMPDEST PUSH0 PUSH2 0x399 PUSH1 0x14 DUP4 PUSH2 0x355 JUMP JUMPDEST SWAP2 POP PUSH2 0x3A4 DUP3 PUSH2 0x365 JUMP JUMPDEST PUSH1 0x20 DUP3 ADD SWAP1 POP SWAP2 SWAP1 POP JUMP JUMPDEST PUSH0 PUSH1 0x20 DUP3 ADD SWAP1 POP DUP2 DUP2 SUB PUSH0 DUP4 ADD MSTORE PUSH2 0x3C6 DUP2 PUSH2 0x38D JUMP JUMPDEST SWAP1 POP SWAP2 SWAP1 POP JUMP INVALID LOG2 PUSH5 0x6970667358 0x22 SLT KECCAK256 PUSH3 0x8231EE DUP2 0xD5 0xD7 DUP16 CHAINID PUSH18 0x20CCBDEA01731837A5FD4B260083B700BB16 DUP3 0x4D 0xEE SWAP15 PUSH5 0x736F6C6343 STOP ADDMOD BYTE STOP CALLER "
				},
				"gasEstimates": {
					"creation": {
						"codeDepositCost": "205400",
						"executionCost": "249",
						"totalCost": "205649"
					},
					"external": {
						"": "infinite",
						"deal(uint256,address)": "infinite",
						"getBalance()": "312"
					}
				},
				"methodIdentifiers": {
					"deal(uint256,address)": "dbb6f70d",
					"getBalance()": "12065fe0"
				}
			},
			"storageLayout": {
				"storage": [],
				"types": null
			},
			"userdoc": {
				"kind": "user",
				"methods": {},
				"version": 1
			}
		}
	}
}