{
	"DynamicSelector.sol": {
		"TestSelector": {
			"abi": [
				{
					"inputs": [
						{
							"internalType": "uint256",
							"name": "x",
							"type": "uint256"
						}
					],
					"name": "double",
					"outputs": [
						{
							"internalType": "uint256",
							"name": "y",
							"type": "uint256"
						}
					],
					"stateMutability": "pure",
					"type": "function"
				},
				{
					"inputs": [
						{
							"internalType": "bytes4",
							"name": "selector",
							"type": "bytes4"
						},
						{
							"internalType": "uint256",
							"name": "x",
							"type": "uint256"
						}
					],
					"name": "executeFunction",
					"outputs": [
						{
							"internalType": "uint256",
							"name": "y",
							"type": "uint256"
						}
					],
					"stateMutability": "pure",
					"type": "function"
				},
				{
					"inputs": [
						{
							"internalType": "uint256",
							"name": "x",
							"type": "uint256"
						}
					],
					"name": "executeStoredFunction",
					"outputs": [
						{
							"internalType": "uint256",
							"name": "y",
							"type": "uint256"
						}
					],
					"stateMutability": "nonpayable",
					"type": "function"
				},
				{
					"inputs": [
						{
							"internalType": "uint256",
							"name": "x",
							"type": "uint256"
						}
					],
					"name": "square",
					"outputs": [
						{
							"internalType": "uint256",
							"name": "y",
							"type": "uint256"
						}
					],
					"stateMutability": "pure",
					"type": "function"
				},
				{
					"inputs": [
						{
							"internalType": "bytes4",
							"name": "selector",
							"type": "bytes4"
						}
					],
					"name": "storeSelector",
					"outputs": [],
					"stateMutability": "nonpayable",
					"type": "function"
				}
			],
			"devdoc": {
				"kind": "dev",
				"methods": {},
				"version": 1
			},
			"evm": {
				"assembly": "    /* \"DynamicSelector.sol\":60:1338  contract TestSelector {... */\n  mstore(0x40, 0x80)\n  callvalue\n  dup1\n  iszero\n  tag_1\n  jumpi\n  0x00\n  dup1\n  revert\ntag_1:\n  pop\n  dataSize(sub_0)\n  dup1\n  dataOffset(sub_0)\n  0x00\n  codecopy\n  0x00\n  return\nstop\n\nsub_0: assembly {\n        /* \"DynamicSelector.sol\":60:1338  contract TestSelector {... */\n      mstore(0x40, 0x80)\n      callvalue\n      dup1\n      iszero\n      tag_1\n      jumpi\n      0x00\n      dup1\n      revert\n    tag_1:\n      pop\n      jumpi(tag_2, lt(calldatasize, 0x04))\n      shr(0xe0, calldataload(0x00))\n      dup1\n      0x53308370\n      eq\n      tag_3\n      jumpi\n      dup1\n      0x7b292909\n      eq\n      tag_4\n      jumpi\n      dup1\n      0x8d10ff0c\n      eq\n      tag_5\n      jumpi\n      dup1\n      0xa25f4d31\n      eq\n      tag_6\n      jumpi\n      dup1\n      0xeee97206\n      eq\n      tag_7\n      jumpi\n    tag_2:\n      0x00\n      dup1\n      revert\n        /* \"DynamicSelector.sol\":987:1335  function executeStoredFunction(uint x) public returns (uint y){... */\n    tag_3:\n      tag_8\n      0x04\n      dup1\n      calldatasize\n      sub\n      dup2\n      add\n      swap1\n      tag_9\n      swap2\n      swap1\n      tag_10\n      jump\t// in\n    tag_9:\n      tag_11\n      jump\t// in\n    tag_8:\n      mload(0x40)\n      tag_12\n      swap2\n      swap1\n      tag_13\n      jump\t// in\n    tag_12:\n      mload(0x40)\n      dup1\n      swap2\n      sub\n      swap1\n      return\n        /* \"DynamicSelector.sol\":171:255  function square(uint x) public pure  returns (uint y) {... */\n    tag_4:\n      tag_14\n      0x04\n      dup1\n      calldatasize\n      sub\n      dup2\n      add\n      swap1\n      tag_15\n      swap2\n      swap1\n      tag_10\n      jump\t// in\n    tag_15:\n      tag_16\n      jump\t// in\n    tag_14:\n      mload(0x40)\n      tag_17\n      swap2\n      swap1\n      tag_13\n      jump\t// in\n    tag_17:\n      mload(0x40)\n      dup1\n      swap2\n      sub\n      swap1\n      return\n        /* \"DynamicSelector.sol\":823:914  function storeSelector(bytes4 selector) public {... */\n    tag_5:\n      tag_18\n      0x04\n      dup1\n      calldatasize\n      sub\n      dup2\n      add\n      swap1\n      tag_19\n      swap2\n      swap1\n      tag_20\n      jump\t// in\n    tag_19:\n      tag_21\n      jump\t// in\n    tag_18:\n      stop\n        /* \"DynamicSelector.sol\":423:759  function executeFunction(bytes4 selector, uint x) public pure returns(uint y) {... */\n    tag_6:\n      tag_22\n      0x04\n      dup1\n      calldatasize\n      sub\n      dup2\n      add\n      swap1\n      tag_23\n      swap2\n      swap1\n      tag_24\n      jump\t// in\n    tag_23:\n      tag_25\n      jump\t// in\n    tag_22:\n      mload(0x40)\n      tag_26\n      swap2\n      swap1\n      tag_13\n      jump\t// in\n    tag_26:\n      mload(0x40)\n      dup1\n      swap2\n      sub\n      swap1\n      return\n        /* \"DynamicSelector.sol\":293:375  function double(uint x) public pure returns (uint y) {... */\n    tag_7:\n      tag_27\n      0x04\n      dup1\n      calldatasize\n      sub\n      dup2\n      add\n      swap1\n      tag_28\n      swap2\n      swap1\n      tag_10\n      jump\t// in\n    tag_28:\n      tag_29\n      jump\t// in\n    tag_27:\n      mload(0x40)\n      tag_30\n      swap2\n      swap1\n      tag_13\n      jump\t// in\n    tag_30:\n      mload(0x40)\n      dup1\n      swap2\n      sub\n      swap1\n      return\n        /* \"DynamicSelector.sol\":987:1335  function executeStoredFunction(uint x) public returns (uint y){... */\n    tag_11:\n        /* \"DynamicSelector.sol\":1042:1048  uint y */\n      0x00\n        /* \"DynamicSelector.sol\":1093:1096  0x0 */\n      dup1\n        /* \"DynamicSelector.sol\":1086:1097  bytes4(0x0) */\n      0xe0\n      shl\n        /* \"DynamicSelector.sol\":1068:1097  storedSelector != bytes4(0x0) */\n      not(0xffffffffffffffffffffffffffffffffffffffffffffffffffffffff)\n      and\n        /* \"DynamicSelector.sol\":1068:1082  storedSelector */\n      0x00\n      dup1\n      sload\n      swap1\n      0x0100\n      exp\n      swap1\n      div\n      0xe0\n      shl\n        /* \"DynamicSelector.sol\":1068:1097  storedSelector != bytes4(0x0) */\n      not(0xffffffffffffffffffffffffffffffffffffffffffffffffffffffff)\n      and\n      sub\n        /* \"DynamicSelector.sol\":1060:1119  require(storedSelector != bytes4(0x0),\"selector not exsit\") */\n      tag_32\n      jumpi\n      mload(0x40)\n      0x08c379a000000000000000000000000000000000000000000000000000000000\n      dup2\n      mstore\n      0x04\n      add\n      tag_33\n      swap1\n      tag_34\n      jump\t// in\n    tag_33:\n      mload(0x40)\n      dup1\n      swap2\n      sub\n      swap1\n      revert\n    tag_32:\n        /* \"DynamicSelector.sol\":1131:1143  bool succuss */\n      0x00\n        /* \"DynamicSelector.sol\":1145:1162  bytes memory data */\n      dup1\n        /* \"DynamicSelector.sol\":1174:1178  this */\n      address\n        /* \"DynamicSelector.sol\":1166:1184  address(this).call */\n      0xffffffffffffffffffffffffffffffffffffffff\n      and\n        /* \"DynamicSelector.sol\":1208:1222  storedSelector */\n      0x00\n      dup1\n      sload\n      swap1\n      0x0100\n      exp\n      swap1\n      div\n      0xe0\n      shl\n        /* \"DynamicSelector.sol\":1224:1225  x */\n      dup6\n        /* \"DynamicSelector.sol\":1185:1226  abi.encodeWithSelector(storedSelector, x) */\n      add(0x24, mload(0x40))\n      tag_35\n      swap2\n      swap1\n      tag_13\n      jump\t// in\n    tag_35:\n      mload(0x40)\n      0x20\n      dup2\n      dup4\n      sub\n      sub\n      dup2\n      mstore\n      swap1\n      0x40\n      mstore\n      swap1\n      not(0xffffffffffffffffffffffffffffffffffffffffffffffffffffffff)\n      and\n      0x20\n      dup3\n      add\n      dup1\n      mload\n      0xffffffffffffffffffffffffffffffffffffffffffffffffffffffff\n      dup4\n      dup2\n      dup4\n      and\n      or\n      dup4\n      mstore\n      pop\n      pop\n      pop\n      pop\n        /* \"DynamicSelector.sol\":1166:1227  address(this).call(abi.encodeWithSelector(storedSelector, x)) */\n      mload(0x40)\n      tag_36\n      swap2\n      swap1\n      tag_37\n      jump\t// in\n    tag_36:\n      0x00\n      mload(0x40)\n      dup1\n      dup4\n      sub\n      dup2\n      0x00\n      dup7\n      gas\n      call\n      swap2\n      pop\n      pop\n      returndatasize\n      dup1\n      0x00\n      dup2\n      eq\n      tag_40\n      jumpi\n      mload(0x40)\n      swap2\n      pop\n      and(add(returndatasize, 0x3f), not(0x1f))\n      dup3\n      add\n      0x40\n      mstore\n      returndatasize\n      dup3\n      mstore\n      returndatasize\n      0x00\n      0x20\n      dup5\n      add\n      returndatacopy\n      jump(tag_39)\n    tag_40:\n      0x60\n      swap2\n      pop\n    tag_39:\n      pop\n        /* \"DynamicSelector.sol\":1130:1227  (bool succuss, bytes memory data) = address(this).call(abi.encodeWithSelector(storedSelector, x)) */\n      swap2\n      pop\n      swap2\n      pop\n        /* \"DynamicSelector.sol\":1246:1253  succuss */\n      dup2\n        /* \"DynamicSelector.sol\":1238:1269  require(succuss, \"call failed\") */\n      tag_41\n      jumpi\n      mload(0x40)\n      0x08c379a000000000000000000000000000000000000000000000000000000000\n      dup2\n      mstore\n      0x04\n      add\n      tag_42\n      swap1\n      tag_43\n      jump\t// in\n    tag_42:\n      mload(0x40)\n      dup1\n      swap2\n      sub\n      swap1\n      revert\n    tag_41:\n        /* \"DynamicSelector.sol\":1295:1299  data */\n      dup1\n        /* \"DynamicSelector.sol\":1284:1308  abi.decode(data, (uint)) */\n      dup1\n      0x20\n      add\n      swap1\n      mload\n      dup2\n      add\n      swap1\n      tag_44\n      swap2\n      swap1\n      tag_45\n      jump\t// in\n    tag_44:\n        /* \"DynamicSelector.sol\":1280:1308  y = abi.decode(data, (uint)) */\n      swap3\n      pop\n        /* \"DynamicSelector.sol\":1319:1327  return y */\n      pop\n      pop\n        /* \"DynamicSelector.sol\":987:1335  function executeStoredFunction(uint x) public returns (uint y){... */\n      swap2\n      swap1\n      pop\n      jump\t// out\n        /* \"DynamicSelector.sol\":171:255  function square(uint x) public pure  returns (uint y) {... */\n    tag_16:\n        /* \"DynamicSelector.sol\":217:223  uint y */\n      0x00\n        /* \"DynamicSelector.sol\":246:247  2 */\n      0x02\n        /* \"DynamicSelector.sol\":243:244  x */\n      dup3\n        /* \"DynamicSelector.sol\":243:247  x**2 */\n      tag_47\n      swap2\n      swap1\n      tag_48\n      jump\t// in\n    tag_47:\n        /* \"DynamicSelector.sol\":236:247  return x**2 */\n      swap1\n      pop\n        /* \"DynamicSelector.sol\":171:255  function square(uint x) public pure  returns (uint y) {... */\n      swap2\n      swap1\n      pop\n      jump\t// out\n        /* \"DynamicSelector.sol\":823:914  function storeSelector(bytes4 selector) public {... */\n    tag_21:\n        /* \"DynamicSelector.sol\":898:906  selector */\n      dup1\n        /* \"DynamicSelector.sol\":881:895  storedSelector */\n      0x00\n      dup1\n        /* \"DynamicSelector.sol\":881:906  storedSelector = selector */\n      0x0100\n      exp\n      dup2\n      sload\n      dup2\n      0xffffffff\n      mul\n      not\n      and\n      swap1\n      dup4\n      0xe0\n      shr\n      mul\n      or\n      swap1\n      sstore\n      pop\n        /* \"DynamicSelector.sol\":823:914  function storeSelector(bytes4 selector) public {... */\n      pop\n      jump\t// out\n        /* \"DynamicSelector.sol\":423:759  function executeFunction(bytes4 selector, uint x) public pure returns(uint y) {... */\n    tag_25:\n        /* \"DynamicSelector.sol\":493:499  uint y */\n      0x00\n        /* \"DynamicSelector.sol\":599:619  this.square.selector */\n      shl(0xe0, 0x7b292909)\n        /* \"DynamicSelector.sol\":587:619  selector == this.square.selector */\n      not(0xffffffffffffffffffffffffffffffffffffffffffffffffffffffff)\n      and\n        /* \"DynamicSelector.sol\":587:595  selector */\n      dup4\n        /* \"DynamicSelector.sol\":587:619  selector == this.square.selector */\n      not(0xffffffffffffffffffffffffffffffffffffffffffffffffffffffff)\n      and\n      sub\n        /* \"DynamicSelector.sol\":584:752  if(selector == this.square.selector) {... */\n      tag_51\n      jumpi\n        /* \"DynamicSelector.sol\":640:649  square(x) */\n      tag_52\n        /* \"DynamicSelector.sol\":647:648  x */\n      dup3\n        /* \"DynamicSelector.sol\":640:646  square */\n      tag_16\n        /* \"DynamicSelector.sol\":640:649  square(x) */\n      jump\t// in\n    tag_52:\n        /* \"DynamicSelector.sol\":636:649  y = square(x) */\n      swap1\n      pop\n        /* \"DynamicSelector.sol\":664:672  return y */\n      jump(tag_50)\n        /* \"DynamicSelector.sol\":584:752  if(selector == this.square.selector) {... */\n    tag_51:\n        /* \"DynamicSelector.sol\":708:717  double(x) */\n      tag_54\n        /* \"DynamicSelector.sol\":715:716  x */\n      dup3\n        /* \"DynamicSelector.sol\":708:714  double */\n      tag_29\n        /* \"DynamicSelector.sol\":708:717  double(x) */\n      jump\t// in\n    tag_54:\n        /* \"DynamicSelector.sol\":704:717  y = double(x) */\n      swap1\n      pop\n        /* \"DynamicSelector.sol\":423:759  function executeFunction(bytes4 selector, uint x) public pure returns(uint y) {... */\n    tag_50:\n      swap3\n      swap2\n      pop\n      pop\n      jump\t// out\n        /* \"DynamicSelector.sol\":293:375  function double(uint x) public pure returns (uint y) {... */\n    tag_29:\n        /* \"DynamicSelector.sol\":338:344  uint y */\n      0x00\n        /* \"DynamicSelector.sol\":366:367  2 */\n      0x02\n        /* \"DynamicSelector.sol\":364:365  x */\n      dup3\n        /* \"DynamicSelector.sol\":364:367  x*2 */\n      tag_56\n      swap2\n      swap1\n      tag_57\n      jump\t// in\n    tag_56:\n        /* \"DynamicSelector.sol\":357:367  return x*2 */\n      swap1\n      pop\n        /* \"DynamicSelector.sol\":293:375  function double(uint x) public pure returns (uint y) {... */\n      swap2\n      swap1\n      pop\n      jump\t// out\n        /* \"#utility.yul\":88:205   */\n    tag_59:\n        /* \"#utility.yul\":197:198   */\n      0x00\n        /* \"#utility.yul\":194:195   */\n      dup1\n        /* \"#utility.yul\":187:199   */\n      revert\n        /* \"#utility.yul\":334:411   */\n    tag_61:\n        /* \"#utility.yul\":371:378   */\n      0x00\n        /* \"#utility.yul\":400:405   */\n      dup2\n        /* \"#utility.yul\":389:405   */\n      swap1\n      pop\n        /* \"#utility.yul\":334:411   */\n      swap2\n      swap1\n      pop\n      jump\t// out\n        /* \"#utility.yul\":417:539   */\n    tag_62:\n        /* \"#utility.yul\":490:514   */\n      tag_89\n        /* \"#utility.yul\":508:513   */\n      dup2\n        /* \"#utility.yul\":490:514   */\n      tag_61\n      jump\t// in\n    tag_89:\n        /* \"#utility.yul\":483:488   */\n      dup2\n        /* \"#utility.yul\":480:515   */\n      eq\n        /* \"#utility.yul\":470:533   */\n      tag_90\n      jumpi\n        /* \"#utility.yul\":529:530   */\n      0x00\n        /* \"#utility.yul\":526:527   */\n      dup1\n        /* \"#utility.yul\":519:531   */\n      revert\n        /* \"#utility.yul\":470:533   */\n    tag_90:\n        /* \"#utility.yul\":417:539   */\n      pop\n      jump\t// out\n        /* \"#utility.yul\":545:684   */\n    tag_63:\n        /* \"#utility.yul\":591:596   */\n      0x00\n        /* \"#utility.yul\":629:635   */\n      dup2\n        /* \"#utility.yul\":616:636   */\n      calldataload\n        /* \"#utility.yul\":607:636   */\n      swap1\n      pop\n        /* \"#utility.yul\":645:678   */\n      tag_92\n        /* \"#utility.yul\":672:677   */\n      dup2\n        /* \"#utility.yul\":645:678   */\n      tag_62\n      jump\t// in\n    tag_92:\n        /* \"#utility.yul\":545:684   */\n      swap3\n      swap2\n      pop\n      pop\n      jump\t// out\n        /* \"#utility.yul\":690:1019   */\n    tag_10:\n        /* \"#utility.yul\":749:755   */\n      0x00\n        /* \"#utility.yul\":798:800   */\n      0x20\n        /* \"#utility.yul\":786:795   */\n      dup3\n        /* \"#utility.yul\":777:784   */\n      dup5\n        /* \"#utility.yul\":773:796   */\n      sub\n        /* \"#utility.yul\":769:801   */\n      slt\n        /* \"#utility.yul\":766:885   */\n      iszero\n      tag_94\n      jumpi\n        /* \"#utility.yul\":804:883   */\n      tag_95\n      tag_59\n      jump\t// in\n    tag_95:\n        /* \"#utility.yul\":766:885   */\n    tag_94:\n        /* \"#utility.yul\":924:925   */\n      0x00\n        /* \"#utility.yul\":949:1002   */\n      tag_96\n        /* \"#utility.yul\":994:1001   */\n      dup5\n        /* \"#utility.yul\":985:991   */\n      dup3\n        /* \"#utility.yul\":974:983   */\n      dup6\n        /* \"#utility.yul\":970:992   */\n      add\n        /* \"#utility.yul\":949:1002   */\n      tag_63\n      jump\t// in\n    tag_96:\n        /* \"#utility.yul\":939:1002   */\n      swap2\n      pop\n        /* \"#utility.yul\":895:1012   */\n      pop\n        /* \"#utility.yul\":690:1019   */\n      swap3\n      swap2\n      pop\n      pop\n      jump\t// out\n        /* \"#utility.yul\":1025:1143   */\n    tag_64:\n        /* \"#utility.yul\":1112:1136   */\n      tag_98\n        /* \"#utility.yul\":1130:1135   */\n      dup2\n        /* \"#utility.yul\":1112:1136   */\n      tag_61\n      jump\t// in\n    tag_98:\n        /* \"#utility.yul\":1107:1110   */\n      dup3\n        /* \"#utility.yul\":1100:1137   */\n      mstore\n        /* \"#utility.yul\":1025:1143   */\n      pop\n      pop\n      jump\t// out\n        /* \"#utility.yul\":1149:1371   */\n    tag_13:\n        /* \"#utility.yul\":1242:1246   */\n      0x00\n        /* \"#utility.yul\":1280:1282   */\n      0x20\n        /* \"#utility.yul\":1269:1278   */\n      dup3\n        /* \"#utility.yul\":1265:1283   */\n      add\n        /* \"#utility.yul\":1257:1283   */\n      swap1\n      pop\n        /* \"#utility.yul\":1293:1364   */\n      tag_100\n        /* \"#utility.yul\":1361:1362   */\n      0x00\n        /* \"#utility.yul\":1350:1359   */\n      dup4\n        /* \"#utility.yul\":1346:1363   */\n      add\n        /* \"#utility.yul\":1337:1343   */\n      dup5\n        /* \"#utility.yul\":1293:1364   */\n      tag_64\n      jump\t// in\n    tag_100:\n        /* \"#utility.yul\":1149:1371   */\n      swap3\n      swap2\n      pop\n      pop\n      jump\t// out\n        /* \"#utility.yul\":1377:1526   */\n    tag_65:\n        /* \"#utility.yul\":1413:1420   */\n      0x00\n        /* \"#utility.yul\":1453:1519   */\n      0xffffffff00000000000000000000000000000000000000000000000000000000\n        /* \"#utility.yul\":1446:1451   */\n      dup3\n        /* \"#utility.yul\":1442:1520   */\n      and\n        /* \"#utility.yul\":1431:1520   */\n      swap1\n      pop\n        /* \"#utility.yul\":1377:1526   */\n      swap2\n      swap1\n      pop\n      jump\t// out\n        /* \"#utility.yul\":1532:1652   */\n    tag_66:\n        /* \"#utility.yul\":1604:1627   */\n      tag_103\n        /* \"#utility.yul\":1621:1626   */\n      dup2\n        /* \"#utility.yul\":1604:1627   */\n      tag_65\n      jump\t// in\n    tag_103:\n        /* \"#utility.yul\":1597:1602   */\n      dup2\n        /* \"#utility.yul\":1594:1628   */\n      eq\n        /* \"#utility.yul\":1584:1646   */\n      tag_104\n      jumpi\n        /* \"#utility.yul\":1642:1643   */\n      0x00\n        /* \"#utility.yul\":1639:1640   */\n      dup1\n        /* \"#utility.yul\":1632:1644   */\n      revert\n        /* \"#utility.yul\":1584:1646   */\n    tag_104:\n        /* \"#utility.yul\":1532:1652   */\n      pop\n      jump\t// out\n        /* \"#utility.yul\":1658:1795   */\n    tag_67:\n        /* \"#utility.yul\":1703:1708   */\n      0x00\n        /* \"#utility.yul\":1741:1747   */\n      dup2\n        /* \"#utility.yul\":1728:1748   */\n      calldataload\n        /* \"#utility.yul\":1719:1748   */\n      swap1\n      pop\n        /* \"#utility.yul\":1757:1789   */\n      tag_106\n        /* \"#utility.yul\":1783:1788   */\n      dup2\n        /* \"#utility.yul\":1757:1789   */\n      tag_66\n      jump\t// in\n    tag_106:\n        /* \"#utility.yul\":1658:1795   */\n      swap3\n      swap2\n      pop\n      pop\n      jump\t// out\n        /* \"#utility.yul\":1801:2128   */\n    tag_20:\n        /* \"#utility.yul\":1859:1865   */\n      0x00\n        /* \"#utility.yul\":1908:1910   */\n      0x20\n        /* \"#utility.yul\":1896:1905   */\n      dup3\n        /* \"#utility.yul\":1887:1894   */\n      dup5\n        /* \"#utility.yul\":1883:1906   */\n      sub\n        /* \"#utility.yul\":1879:1911   */\n      slt\n        /* \"#utility.yul\":1876:1995   */\n      iszero\n      tag_108\n      jumpi\n        /* \"#utility.yul\":1914:1993   */\n      tag_109\n      tag_59\n      jump\t// in\n    tag_109:\n        /* \"#utility.yul\":1876:1995   */\n    tag_108:\n        /* \"#utility.yul\":2034:2035   */\n      0x00\n        /* \"#utility.yul\":2059:2111   */\n      tag_110\n        /* \"#utility.yul\":2103:2110   */\n      dup5\n        /* \"#utility.yul\":2094:2100   */\n      dup3\n        /* \"#utility.yul\":2083:2092   */\n      dup6\n        /* \"#utility.yul\":2079:2101   */\n      add\n        /* \"#utility.yul\":2059:2111   */\n      tag_67\n      jump\t// in\n    tag_110:\n        /* \"#utility.yul\":2049:2111   */\n      swap2\n      pop\n        /* \"#utility.yul\":2005:2121   */\n      pop\n        /* \"#utility.yul\":1801:2128   */\n      swap3\n      swap2\n      pop\n      pop\n      jump\t// out\n        /* \"#utility.yul\":2134:2606   */\n    tag_24:\n        /* \"#utility.yul\":2201:2207   */\n      0x00\n        /* \"#utility.yul\":2209:2215   */\n      dup1\n        /* \"#utility.yul\":2258:2260   */\n      0x40\n        /* \"#utility.yul\":2246:2255   */\n      dup4\n        /* \"#utility.yul\":2237:2244   */\n      dup6\n        /* \"#utility.yul\":2233:2256   */\n      sub\n        /* \"#utility.yul\":2229:2261   */\n      slt\n        /* \"#utility.yul\":2226:2345   */\n      iszero\n      tag_112\n      jumpi\n        /* \"#utility.yul\":2264:2343   */\n      tag_113\n      tag_59\n      jump\t// in\n    tag_113:\n        /* \"#utility.yul\":2226:2345   */\n    tag_112:\n        /* \"#utility.yul\":2384:2385   */\n      0x00\n        /* \"#utility.yul\":2409:2461   */\n      tag_114\n        /* \"#utility.yul\":2453:2460   */\n      dup6\n        /* \"#utility.yul\":2444:2450   */\n      dup3\n        /* \"#utility.yul\":2433:2442   */\n      dup7\n        /* \"#utility.yul\":2429:2451   */\n      add\n        /* \"#utility.yul\":2409:2461   */\n      tag_67\n      jump\t// in\n    tag_114:\n        /* \"#utility.yul\":2399:2461   */\n      swap3\n      pop\n        /* \"#utility.yul\":2355:2471   */\n      pop\n        /* \"#utility.yul\":2510:2512   */\n      0x20\n        /* \"#utility.yul\":2536:2589   */\n      tag_115\n        /* \"#utility.yul\":2581:2588   */\n      dup6\n        /* \"#utility.yul\":2572:2578   */\n      dup3\n        /* \"#utility.yul\":2561:2570   */\n      dup7\n        /* \"#utility.yul\":2557:2579   */\n      add\n        /* \"#utility.yul\":2536:2589   */\n      tag_63\n      jump\t// in\n    tag_115:\n        /* \"#utility.yul\":2526:2589   */\n      swap2\n      pop\n        /* \"#utility.yul\":2481:2599   */\n      pop\n        /* \"#utility.yul\":2134:2606   */\n      swap3\n      pop\n      swap3\n      swap1\n      pop\n      jump\t// out\n        /* \"#utility.yul\":2612:2781   */\n    tag_68:\n        /* \"#utility.yul\":2696:2707   */\n      0x00\n        /* \"#utility.yul\":2730:2736   */\n      dup3\n        /* \"#utility.yul\":2725:2728   */\n      dup3\n        /* \"#utility.yul\":2718:2737   */\n      mstore\n        /* \"#utility.yul\":2770:2774   */\n      0x20\n        /* \"#utility.yul\":2765:2768   */\n      dup3\n        /* \"#utility.yul\":2761:2775   */\n      add\n        /* \"#utility.yul\":2746:2775   */\n      swap1\n      pop\n        /* \"#utility.yul\":2612:2781   */\n      swap3\n      swap2\n      pop\n      pop\n      jump\t// out\n        /* \"#utility.yul\":2787:2955   */\n    tag_69:\n        /* \"#utility.yul\":2927:2947   */\n      0x73656c6563746f72206e6f742065787369740000000000000000000000000000\n        /* \"#utility.yul\":2923:2924   */\n      0x00\n        /* \"#utility.yul\":2915:2921   */\n      dup3\n        /* \"#utility.yul\":2911:2925   */\n      add\n        /* \"#utility.yul\":2904:2948   */\n      mstore\n        /* \"#utility.yul\":2787:2955   */\n      pop\n      jump\t// out\n        /* \"#utility.yul\":2961:3327   */\n    tag_70:\n        /* \"#utility.yul\":3103:3106   */\n      0x00\n        /* \"#utility.yul\":3124:3191   */\n      tag_119\n        /* \"#utility.yul\":3188:3190   */\n      0x12\n        /* \"#utility.yul\":3183:3186   */\n      dup4\n        /* \"#utility.yul\":3124:3191   */\n      tag_68\n      jump\t// in\n    tag_119:\n        /* \"#utility.yul\":3117:3191   */\n      swap2\n      pop\n        /* \"#utility.yul\":3200:3293   */\n      tag_120\n        /* \"#utility.yul\":3289:3292   */\n      dup3\n        /* \"#utility.yul\":3200:3293   */\n      tag_69\n      jump\t// in\n    tag_120:\n        /* \"#utility.yul\":3318:3320   */\n      0x20\n        /* \"#utility.yul\":3313:3316   */\n      dup3\n        /* \"#utility.yul\":3309:3321   */\n      add\n        /* \"#utility.yul\":3302:3321   */\n      swap1\n      pop\n        /* \"#utility.yul\":2961:3327   */\n      swap2\n      swap1\n      pop\n      jump\t// out\n        /* \"#utility.yul\":3333:3752   */\n    tag_34:\n        /* \"#utility.yul\":3499:3503   */\n      0x00\n        /* \"#utility.yul\":3537:3539   */\n      0x20\n        /* \"#utility.yul\":3526:3535   */\n      dup3\n        /* \"#utility.yul\":3522:3540   */\n      add\n        /* \"#utility.yul\":3514:3540   */\n      swap1\n      pop\n        /* \"#utility.yul\":3586:3595   */\n      dup2\n        /* \"#utility.yul\":3580:3584   */\n      dup2\n        /* \"#utility.yul\":3576:3596   */\n      sub\n        /* \"#utility.yul\":3572:3573   */\n      0x00\n        /* \"#utility.yul\":3561:3570   */\n      dup4\n        /* \"#utility.yul\":3557:3574   */\n      add\n        /* \"#utility.yul\":3550:3597   */\n      mstore\n        /* \"#utility.yul\":3614:3745   */\n      tag_122\n        /* \"#utility.yul\":3740:3744   */\n      dup2\n        /* \"#utility.yul\":3614:3745   */\n      tag_70\n      jump\t// in\n    tag_122:\n        /* \"#utility.yul\":3606:3745   */\n      swap1\n      pop\n        /* \"#utility.yul\":3333:3752   */\n      swap2\n      swap1\n      pop\n      jump\t// out\n        /* \"#utility.yul\":3758:3856   */\n    tag_71:\n        /* \"#utility.yul\":3809:3815   */\n      0x00\n        /* \"#utility.yul\":3843:3848   */\n      dup2\n        /* \"#utility.yul\":3837:3849   */\n      mload\n        /* \"#utility.yul\":3827:3849   */\n      swap1\n      pop\n        /* \"#utility.yul\":3758:3856   */\n      swap2\n      swap1\n      pop\n      jump\t// out\n        /* \"#utility.yul\":3862:4009   */\n    tag_72:\n        /* \"#utility.yul\":3963:3974   */\n      0x00\n        /* \"#utility.yul\":4000:4003   */\n      dup2\n        /* \"#utility.yul\":3985:4003   */\n      swap1\n      pop\n        /* \"#utility.yul\":3862:4009   */\n      swap3\n      swap2\n      pop\n      pop\n      jump\t// out\n        /* \"#utility.yul\":4015:4154   */\n    tag_73:\n        /* \"#utility.yul\":4104:4110   */\n      dup3\n        /* \"#utility.yul\":4099:4102   */\n      dup2\n        /* \"#utility.yul\":4094:4097   */\n      dup4\n        /* \"#utility.yul\":4088:4111   */\n      mcopy\n        /* \"#utility.yul\":4145:4146   */\n      0x00\n        /* \"#utility.yul\":4136:4142   */\n      dup4\n        /* \"#utility.yul\":4131:4134   */\n      dup4\n        /* \"#utility.yul\":4127:4143   */\n      add\n        /* \"#utility.yul\":4120:4147   */\n      mstore\n        /* \"#utility.yul\":4015:4154   */\n      pop\n      pop\n      pop\n      jump\t// out\n        /* \"#utility.yul\":4160:4546   */\n    tag_74:\n        /* \"#utility.yul\":4264:4267   */\n      0x00\n        /* \"#utility.yul\":4292:4330   */\n      tag_127\n        /* \"#utility.yul\":4324:4329   */\n      dup3\n        /* \"#utility.yul\":4292:4330   */\n      tag_71\n      jump\t// in\n    tag_127:\n        /* \"#utility.yul\":4346:4434   */\n      tag_128\n        /* \"#utility.yul\":4427:4433   */\n      dup2\n        /* \"#utility.yul\":4422:4425   */\n      dup6\n        /* \"#utility.yul\":4346:4434   */\n      tag_72\n      jump\t// in\n    tag_128:\n        /* \"#utility.yul\":4339:4434   */\n      swap4\n      pop\n        /* \"#utility.yul\":4443:4508   */\n      tag_129\n        /* \"#utility.yul\":4501:4507   */\n      dup2\n        /* \"#utility.yul\":4496:4499   */\n      dup6\n        /* \"#utility.yul\":4489:4493   */\n      0x20\n        /* \"#utility.yul\":4482:4487   */\n      dup7\n        /* \"#utility.yul\":4478:4494   */\n      add\n        /* \"#utility.yul\":4443:4508   */\n      tag_73\n      jump\t// in\n    tag_129:\n        /* \"#utility.yul\":4533:4539   */\n      dup1\n        /* \"#utility.yul\":4528:4531   */\n      dup5\n        /* \"#utility.yul\":4524:4540   */\n      add\n        /* \"#utility.yul\":4517:4540   */\n      swap2\n      pop\n        /* \"#utility.yul\":4268:4546   */\n      pop\n        /* \"#utility.yul\":4160:4546   */\n      swap3\n      swap2\n      pop\n      pop\n      jump\t// out\n        /* \"#utility.yul\":4552:4823   */\n    tag_37:\n        /* \"#utility.yul\":4682:4685   */\n      0x00\n        /* \"#utility.yul\":4704:4797   */\n      tag_131\n        /* \"#utility.yul\":4793:4796   */\n      dup3\n        /* \"#utility.yul\":4784:4790   */\n      dup5\n        /* \"#utility.yul\":4704:4797   */\n      tag_74\n      jump\t// in\n    tag_131:\n        /* \"#utility.yul\":4697:4797   */\n      swap2\n      pop\n        /* \"#utility.yul\":4814:4817   */\n      dup2\n        /* \"#utility.yul\":4807:4817   */\n      swap1\n      pop\n        /* \"#utility.yul\":4552:4823   */\n      swap3\n      swap2\n      pop\n      pop\n      jump\t// out\n        /* \"#utility.yul\":4829:4990   */\n    tag_75:\n        /* \"#utility.yul\":4969:4982   */\n      0x63616c6c206661696c6564000000000000000000000000000000000000000000\n        /* \"#utility.yul\":4965:4966   */\n      0x00\n        /* \"#utility.yul\":4957:4963   */\n      dup3\n        /* \"#utility.yul\":4953:4967   */\n      add\n        /* \"#utility.yul\":4946:4983   */\n      mstore\n        /* \"#utility.yul\":4829:4990   */\n      pop\n      jump\t// out\n        /* \"#utility.yul\":4996:5362   */\n    tag_76:\n        /* \"#utility.yul\":5138:5141   */\n      0x00\n        /* \"#utility.yul\":5159:5226   */\n      tag_134\n        /* \"#utility.yul\":5223:5225   */\n      0x0b\n        /* \"#utility.yul\":5218:5221   */\n      dup4\n        /* \"#utility.yul\":5159:5226   */\n      tag_68\n      jump\t// in\n    tag_134:\n        /* \"#utility.yul\":5152:5226   */\n      swap2\n      pop\n        /* \"#utility.yul\":5235:5328   */\n      tag_135\n        /* \"#utility.yul\":5324:5327   */\n      dup3\n        /* \"#utility.yul\":5235:5328   */\n      tag_75\n      jump\t// in\n    tag_135:\n        /* \"#utility.yul\":5353:5355   */\n      0x20\n        /* \"#utility.yul\":5348:5351   */\n      dup3\n        /* \"#utility.yul\":5344:5356   */\n      add\n        /* \"#utility.yul\":5337:5356   */\n      swap1\n      pop\n        /* \"#utility.yul\":4996:5362   */\n      swap2\n      swap1\n      pop\n      jump\t// out\n        /* \"#utility.yul\":5368:5787   */\n    tag_43:\n        /* \"#utility.yul\":5534:5538   */\n      0x00\n        /* \"#utility.yul\":5572:5574   */\n      0x20\n        /* \"#utility.yul\":5561:5570   */\n      dup3\n        /* \"#utility.yul\":5557:5575   */\n      add\n        /* \"#utility.yul\":5549:5575   */\n      swap1\n      pop\n        /* \"#utility.yul\":5621:5630   */\n      dup2\n        /* \"#utility.yul\":5615:5619   */\n      dup2\n        /* \"#utility.yul\":5611:5631   */\n      sub\n        /* \"#utility.yul\":5607:5608   */\n      0x00\n        /* \"#utility.yul\":5596:5605   */\n      dup4\n        /* \"#utility.yul\":5592:5609   */\n      add\n        /* \"#utility.yul\":5585:5632   */\n      mstore\n        /* \"#utility.yul\":5649:5780   */\n      tag_137\n        /* \"#utility.yul\":5775:5779   */\n      dup2\n        /* \"#utility.yul\":5649:5780   */\n      tag_76\n      jump\t// in\n    tag_137:\n        /* \"#utility.yul\":5641:5780   */\n      swap1\n      pop\n        /* \"#utility.yul\":5368:5787   */\n      swap2\n      swap1\n      pop\n      jump\t// out\n        /* \"#utility.yul\":5793:5936   */\n    tag_77:\n        /* \"#utility.yul\":5850:5855   */\n      0x00\n        /* \"#utility.yul\":5881:5887   */\n      dup2\n        /* \"#utility.yul\":5875:5888   */\n      mload\n        /* \"#utility.yul\":5866:5888   */\n      swap1\n      pop\n        /* \"#utility.yul\":5897:5930   */\n      tag_139\n        /* \"#utility.yul\":5924:5929   */\n      dup2\n        /* \"#utility.yul\":5897:5930   */\n      tag_62\n      jump\t// in\n    tag_139:\n        /* \"#utility.yul\":5793:5936   */\n      swap3\n      swap2\n      pop\n      pop\n      jump\t// out\n        /* \"#utility.yul\":5942:6293   */\n    tag_45:\n        /* \"#utility.yul\":6012:6018   */\n      0x00\n        /* \"#utility.yul\":6061:6063   */\n      0x20\n        /* \"#utility.yul\":6049:6058   */\n      dup3\n        /* \"#utility.yul\":6040:6047   */\n      dup5\n        /* \"#utility.yul\":6036:6059   */\n      sub\n        /* \"#utility.yul\":6032:6064   */\n      slt\n        /* \"#utility.yul\":6029:6148   */\n      iszero\n      tag_141\n      jumpi\n        /* \"#utility.yul\":6067:6146   */\n      tag_142\n      tag_59\n      jump\t// in\n    tag_142:\n        /* \"#utility.yul\":6029:6148   */\n    tag_141:\n        /* \"#utility.yul\":6187:6188   */\n      0x00\n        /* \"#utility.yul\":6212:6276   */\n      tag_143\n        /* \"#utility.yul\":6268:6275   */\n      dup5\n        /* \"#utility.yul\":6259:6265   */\n      dup3\n        /* \"#utility.yul\":6248:6257   */\n      dup6\n        /* \"#utility.yul\":6244:6266   */\n      add\n        /* \"#utility.yul\":6212:6276   */\n      tag_77\n      jump\t// in\n    tag_143:\n        /* \"#utility.yul\":6202:6276   */\n      swap2\n      pop\n        /* \"#utility.yul\":6158:6286   */\n      pop\n        /* \"#utility.yul\":5942:6293   */\n      swap3\n      swap2\n      pop\n      pop\n      jump\t// out\n        /* \"#utility.yul\":6299:6479   */\n    tag_78:\n        /* \"#utility.yul\":6347:6424   */\n      0x4e487b7100000000000000000000000000000000000000000000000000000000\n        /* \"#utility.yul\":6344:6345   */\n      0x00\n        /* \"#utility.yul\":6337:6425   */\n      mstore\n        /* \"#utility.yul\":6444:6448   */\n      0x11\n        /* \"#utility.yul\":6441:6442   */\n      0x04\n        /* \"#utility.yul\":6434:6449   */\n      mstore\n        /* \"#utility.yul\":6468:6472   */\n      0x24\n        /* \"#utility.yul\":6465:6466   */\n      0x00\n        /* \"#utility.yul\":6458:6473   */\n      revert\n        /* \"#utility.yul\":6485:6587   */\n    tag_79:\n        /* \"#utility.yul\":6527:6535   */\n      0x00\n        /* \"#utility.yul\":6574:6579   */\n      dup2\n        /* \"#utility.yul\":6571:6572   */\n      0x01\n        /* \"#utility.yul\":6567:6580   */\n      shr\n        /* \"#utility.yul\":6546:6580   */\n      swap1\n      pop\n        /* \"#utility.yul\":6485:6587   */\n      swap2\n      swap1\n      pop\n      jump\t// out\n        /* \"#utility.yul\":6593:7441   */\n    tag_80:\n        /* \"#utility.yul\":6654:6659   */\n      0x00\n        /* \"#utility.yul\":6661:6665   */\n      dup1\n        /* \"#utility.yul\":6685:6691   */\n      dup3\n        /* \"#utility.yul\":6676:6691   */\n      swap2\n      pop\n        /* \"#utility.yul\":6709:6714   */\n      dup4\n        /* \"#utility.yul\":6700:6714   */\n      swap1\n      pop\n        /* \"#utility.yul\":6723:7435   */\n    tag_147:\n        /* \"#utility.yul\":6744:6745   */\n      0x01\n        /* \"#utility.yul\":6734:6742   */\n      dup6\n        /* \"#utility.yul\":6731:6746   */\n      gt\n        /* \"#utility.yul\":6723:7435   */\n      iszero\n      tag_149\n      jumpi\n        /* \"#utility.yul\":6839:6843   */\n      dup1\n        /* \"#utility.yul\":6834:6837   */\n      dup7\n        /* \"#utility.yul\":6830:6844   */\n      div\n        /* \"#utility.yul\":6824:6828   */\n      dup2\n        /* \"#utility.yul\":6821:6845   */\n      gt\n        /* \"#utility.yul\":6818:6868   */\n      iszero\n      tag_150\n      jumpi\n        /* \"#utility.yul\":6848:6866   */\n      tag_151\n      tag_78\n      jump\t// in\n    tag_151:\n        /* \"#utility.yul\":6818:6868   */\n    tag_150:\n        /* \"#utility.yul\":6898:6899   */\n      0x01\n        /* \"#utility.yul\":6888:6896   */\n      dup6\n        /* \"#utility.yul\":6884:6900   */\n      and\n        /* \"#utility.yul\":6881:7332   */\n      iszero\n      tag_152\n      jumpi\n        /* \"#utility.yul\":7313:7317   */\n      dup1\n        /* \"#utility.yul\":7306:7311   */\n      dup3\n        /* \"#utility.yul\":7302:7318   */\n      mul\n        /* \"#utility.yul\":7293:7318   */\n      swap2\n      pop\n        /* \"#utility.yul\":6881:7332   */\n    tag_152:\n        /* \"#utility.yul\":7363:7367   */\n      dup1\n        /* \"#utility.yul\":7357:7361   */\n      dup2\n        /* \"#utility.yul\":7353:7368   */\n      mul\n        /* \"#utility.yul\":7345:7368   */\n      swap1\n      pop\n        /* \"#utility.yul\":7393:7425   */\n      tag_153\n        /* \"#utility.yul\":7416:7424   */\n      dup6\n        /* \"#utility.yul\":7393:7425   */\n      tag_79\n      jump\t// in\n    tag_153:\n        /* \"#utility.yul\":7381:7425   */\n      swap5\n      pop\n        /* \"#utility.yul\":6723:7435   */\n      jump(tag_147)\n    tag_149:\n        /* \"#utility.yul\":6593:7441   */\n      swap5\n      pop\n      swap5\n      swap3\n      pop\n      pop\n      pop\n      jump\t// out\n        /* \"#utility.yul\":7447:8520   */\n    tag_81:\n        /* \"#utility.yul\":7501:7506   */\n      0x00\n        /* \"#utility.yul\":7692:7700   */\n      dup3\n        /* \"#utility.yul\":7682:7722   */\n      tag_155\n      jumpi\n        /* \"#utility.yul\":7713:7714   */\n      0x01\n        /* \"#utility.yul\":7704:7714   */\n      swap1\n      pop\n        /* \"#utility.yul\":7715:7720   */\n      jump(tag_154)\n        /* \"#utility.yul\":7682:7722   */\n    tag_155:\n        /* \"#utility.yul\":7741:7745   */\n      dup2\n        /* \"#utility.yul\":7731:7767   */\n      tag_156\n      jumpi\n        /* \"#utility.yul\":7758:7759   */\n      0x00\n        /* \"#utility.yul\":7749:7759   */\n      swap1\n      pop\n        /* \"#utility.yul\":7760:7765   */\n      jump(tag_154)\n        /* \"#utility.yul\":7731:7767   */\n    tag_156:\n        /* \"#utility.yul\":7827:7831   */\n      dup2\n        /* \"#utility.yul\":7875:7876   */\n      0x01\n        /* \"#utility.yul\":7870:7897   */\n      dup2\n      eq\n      tag_158\n      jumpi\n        /* \"#utility.yul\":7911:7912   */\n      0x02\n        /* \"#utility.yul\":7906:8097   */\n      dup2\n      eq\n      tag_159\n      jumpi\n        /* \"#utility.yul\":7820:8097   */\n      jump(tag_157)\n        /* \"#utility.yul\":7870:7897   */\n    tag_158:\n        /* \"#utility.yul\":7888:7889   */\n      0x01\n        /* \"#utility.yul\":7879:7889   */\n      swap2\n      pop\n        /* \"#utility.yul\":7890:7895   */\n      pop\n      jump(tag_154)\n        /* \"#utility.yul\":7906:8097   */\n    tag_159:\n        /* \"#utility.yul\":7951:7954   */\n      0xff\n        /* \"#utility.yul\":7941:7949   */\n      dup5\n        /* \"#utility.yul\":7938:7955   */\n      gt\n        /* \"#utility.yul\":7935:7978   */\n      iszero\n      tag_160\n      jumpi\n        /* \"#utility.yul\":7958:7976   */\n      tag_161\n      tag_78\n      jump\t// in\n    tag_161:\n        /* \"#utility.yul\":7935:7978   */\n    tag_160:\n        /* \"#utility.yul\":8007:8015   */\n      dup4\n        /* \"#utility.yul\":8004:8005   */\n      0x02\n        /* \"#utility.yul\":8000:8016   */\n      exp\n        /* \"#utility.yul\":7991:8016   */\n      swap2\n      pop\n        /* \"#utility.yul\":8042:8045   */\n      dup5\n        /* \"#utility.yul\":8035:8040   */\n      dup3\n        /* \"#utility.yul\":8032:8046   */\n      gt\n        /* \"#utility.yul\":8029:8069   */\n      iszero\n      tag_162\n      jumpi\n        /* \"#utility.yul\":8049:8067   */\n      tag_163\n      tag_78\n      jump\t// in\n    tag_163:\n        /* \"#utility.yul\":8029:8069   */\n    tag_162:\n        /* \"#utility.yul\":8082:8087   */\n      pop\n      jump(tag_154)\n        /* \"#utility.yul\":7820:8097   */\n    tag_157:\n      pop\n        /* \"#utility.yul\":8206:8208   */\n      0x20\n        /* \"#utility.yul\":8196:8204   */\n      dup4\n        /* \"#utility.yul\":8193:8209   */\n      lt\n        /* \"#utility.yul\":8187:8190   */\n      0x0133\n        /* \"#utility.yul\":8181:8185   */\n      dup4\n        /* \"#utility.yul\":8178:8191   */\n      lt\n        /* \"#utility.yul\":8174:8210   */\n      and\n        /* \"#utility.yul\":8156:8158   */\n      0x4e\n        /* \"#utility.yul\":8146:8154   */\n      dup5\n        /* \"#utility.yul\":8143:8159   */\n      lt\n        /* \"#utility.yul\":8138:8140   */\n      0x0b\n        /* \"#utility.yul\":8132:8136   */\n      dup5\n        /* \"#utility.yul\":8129:8141   */\n      lt\n        /* \"#utility.yul\":8125:8160   */\n      and\n        /* \"#utility.yul\":8109:8220   */\n      or\n        /* \"#utility.yul\":8106:8352   */\n      iszero\n      tag_164\n      jumpi\n        /* \"#utility.yul\":8262:8270   */\n      dup3\n        /* \"#utility.yul\":8256:8260   */\n      dup3\n        /* \"#utility.yul\":8252:8271   */\n      exp\n        /* \"#utility.yul\":8243:8271   */\n      swap1\n      pop\n        /* \"#utility.yul\":8297:8300   */\n      dup4\n        /* \"#utility.yul\":8290:8295   */\n      dup2\n        /* \"#utility.yul\":8287:8301   */\n      gt\n        /* \"#utility.yul\":8284:8324   */\n      iszero\n      tag_165\n      jumpi\n        /* \"#utility.yul\":8304:8322   */\n      tag_166\n      tag_78\n      jump\t// in\n    tag_166:\n        /* \"#utility.yul\":8284:8324   */\n    tag_165:\n        /* \"#utility.yul\":8337:8342   */\n      jump(tag_154)\n        /* \"#utility.yul\":8106:8352   */\n    tag_164:\n        /* \"#utility.yul\":8377:8419   */\n      tag_167\n        /* \"#utility.yul\":8415:8418   */\n      dup5\n        /* \"#utility.yul\":8405:8413   */\n      dup5\n        /* \"#utility.yul\":8399:8403   */\n      dup5\n        /* \"#utility.yul\":8396:8397   */\n      0x01\n        /* \"#utility.yul\":8377:8419   */\n      tag_80\n      jump\t// in\n    tag_167:\n        /* \"#utility.yul\":8362:8419   */\n      swap3\n      pop\n      swap1\n      pop\n        /* \"#utility.yul\":8451:8455   */\n      dup2\n        /* \"#utility.yul\":8446:8449   */\n      dup5\n        /* \"#utility.yul\":8442:8456   */\n      div\n        /* \"#utility.yul\":8435:8440   */\n      dup2\n        /* \"#utility.yul\":8432:8457   */\n      gt\n        /* \"#utility.yul\":8429:8480   */\n      iszero\n      tag_168\n      jumpi\n        /* \"#utility.yul\":8460:8478   */\n      tag_169\n      tag_78\n      jump\t// in\n    tag_169:\n        /* \"#utility.yul\":8429:8480   */\n    tag_168:\n        /* \"#utility.yul\":8509:8513   */\n      dup2\n        /* \"#utility.yul\":8502:8507   */\n      dup2\n        /* \"#utility.yul\":8498:8514   */\n      mul\n        /* \"#utility.yul\":8489:8514   */\n      swap1\n      pop\n        /* \"#utility.yul\":7447:8520   */\n    tag_154:\n      swap4\n      swap3\n      pop\n      pop\n      pop\n      jump\t// out\n        /* \"#utility.yul\":8526:8612   */\n    tag_82:\n        /* \"#utility.yul\":8561:8568   */\n      0x00\n        /* \"#utility.yul\":8601:8605   */\n      0xff\n        /* \"#utility.yul\":8594:8599   */\n      dup3\n        /* \"#utility.yul\":8590:8606   */\n      and\n        /* \"#utility.yul\":8579:8606   */\n      swap1\n      pop\n        /* \"#utility.yul\":8526:8612   */\n      swap2\n      swap1\n      pop\n      jump\t// out\n        /* \"#utility.yul\":8618:8899   */\n    tag_48:\n        /* \"#utility.yul\":8676:8681   */\n      0x00\n        /* \"#utility.yul\":8700:8723   */\n      tag_172\n        /* \"#utility.yul\":8718:8722   */\n      dup3\n        /* \"#utility.yul\":8700:8723   */\n      tag_61\n      jump\t// in\n    tag_172:\n        /* \"#utility.yul\":8692:8723   */\n      swap2\n      pop\n        /* \"#utility.yul\":8744:8769   */\n      tag_173\n        /* \"#utility.yul\":8760:8768   */\n      dup4\n        /* \"#utility.yul\":8744:8769   */\n      tag_82\n      jump\t// in\n    tag_173:\n        /* \"#utility.yul\":8732:8769   */\n      swap3\n      pop\n        /* \"#utility.yul\":8788:8892   */\n      tag_174\n        /* \"#utility.yul\":8825:8891   */\n      0xffffffffffffffffffffffffffffffffffffffffffffffffffffffffffffffff\n        /* \"#utility.yul\":8815:8823   */\n      dup5\n        /* \"#utility.yul\":8809:8813   */\n      dup5\n        /* \"#utility.yul\":8788:8892   */\n      tag_81\n      jump\t// in\n    tag_174:\n        /* \"#utility.yul\":8779:8892   */\n      swap1\n      pop\n        /* \"#utility.yul\":8618:8899   */\n      swap3\n      swap2\n      pop\n      pop\n      jump\t// out\n        /* \"#utility.yul\":8905:9315   */\n    tag_57:\n        /* \"#utility.yul\":8945:8952   */\n      0x00\n        /* \"#utility.yul\":8968:8988   */\n      tag_176\n        /* \"#utility.yul\":8986:8987   */\n      dup3\n        /* \"#utility.yul\":8968:8988   */\n      tag_61\n      jump\t// in\n    tag_176:\n        /* \"#utility.yul\":8963:8988   */\n      swap2\n      pop\n        /* \"#utility.yul\":9002:9022   */\n      tag_177\n        /* \"#utility.yul\":9020:9021   */\n      dup4\n        /* \"#utility.yul\":9002:9022   */\n      tag_61\n      jump\t// in\n    tag_177:\n        /* \"#utility.yul\":8997:9022   */\n      swap3\n      pop\n        /* \"#utility.yul\":9057:9058   */\n      dup3\n        /* \"#utility.yul\":9054:9055   */\n      dup3\n        /* \"#utility.yul\":9050:9059   */\n      mul\n        /* \"#utility.yul\":9079:9109   */\n      tag_178\n        /* \"#utility.yul\":9097:9108   */\n      dup2\n        /* \"#utility.yul\":9079:9109   */\n      tag_61\n      jump\t// in\n    tag_178:\n        /* \"#utility.yul\":9068:9109   */\n      swap2\n      pop\n        /* \"#utility.yul\":9258:9259   */\n      dup3\n        /* \"#utility.yul\":9249:9256   */\n      dup3\n        /* \"#utility.yul\":9245:9260   */\n      div\n        /* \"#utility.yul\":9242:9243   */\n      dup5\n        /* \"#utility.yul\":9239:9261   */\n      eq\n        /* \"#utility.yul\":9219:9220   */\n      dup4\n        /* \"#utility.yul\":9212:9221   */\n      iszero\n        /* \"#utility.yul\":9192:9275   */\n      or\n        /* \"#utility.yul\":9169:9308   */\n      tag_179\n      jumpi\n        /* \"#utility.yul\":9288:9306   */\n      tag_180\n      tag_78\n      jump\t// in\n    tag_180:\n        /* \"#utility.yul\":9169:9308   */\n    tag_179:\n        /* \"#utility.yul\":8953:9315   */\n      pop\n        /* \"#utility.yul\":8905:9315   */\n      swap3\n      swap2\n      pop\n      pop\n      jump\t// out\n\n    auxdata: 0xa2646970667358221220306e28c2c800c6b75c12737eafde32591fbf08de63b1742756bb6ba3b22b197664736f6c634300081a0033\n}\n",
				"bytecode": {
					"linkReferences": {},
					"object": "6080604052348015600e575f80fd5b506108b68061001c5f395ff3fe608060405234801561000f575f80fd5b5060043610610055575f3560e01c806353308370146100595780637b292909146100895780638d10ff0c146100b9578063a25f4d31146100d5578063eee9720614610105575b5f80fd5b610073600480360381019061006e91906103f5565b610135565b604051610080919061042f565b60405180910390f35b6100a3600480360381019061009e91906103f5565b610306565b6040516100b0919061042f565b60405180910390f35b6100d360048036038101906100ce919061049d565b61031b565b005b6100ef60048036038101906100ea91906104c8565b61033a565b6040516100fc919061042f565b60405180910390f35b61011f600480360381019061011a91906103f5565b6103a9565b60405161012c919061042f565b60405180910390f35b5f8060e01b7bffffffffffffffffffffffffffffffffffffffffffffffffffffffff19165f8054906101000a900460e01b7bffffffffffffffffffffffffffffffffffffffffffffffffffffffff1916036101c5576040517f08c379a00000000000000000000000000000000000000000000000000000000081526004016101bc90610560565b60405180910390fd5b5f803073ffffffffffffffffffffffffffffffffffffffff165f8054906101000a900460e01b856040516024016101fc919061042f565b604051602081830303815290604052907bffffffffffffffffffffffffffffffffffffffffffffffffffffffff19166020820180517bffffffffffffffffffffffffffffffffffffffffffffffffffffffff838183161783525050505060405161026691906105d0565b5f604051808303815f865af19150503d805f811461029f576040519150601f19603f3d011682016040523d82523d5f602084013e6102a4565b606091505b5091509150816102e9576040517f08c379a00000000000000000000000000000000000000000000000000000000081526004016102e090610630565b60405180910390fd5b808060200190518101906102fd9190610662565b92505050919050565b5f60028261031491906107f5565b9050919050565b805f806101000a81548163ffffffff021916908360e01c021790555050565b5f637b29290960e01b7bffffffffffffffffffffffffffffffffffffffffffffffffffffffff1916837bffffffffffffffffffffffffffffffffffffffffffffffffffffffff1916036103975761039082610306565b90506103a3565b6103a0826103a9565b90505b92915050565b5f6002826103b7919061083f565b9050919050565b5f80fd5b5f819050919050565b6103d4816103c2565b81146103de575f80fd5b50565b5f813590506103ef816103cb565b92915050565b5f6020828403121561040a576104096103be565b5b5f610417848285016103e1565b91505092915050565b610429816103c2565b82525050565b5f6020820190506104425f830184610420565b92915050565b5f7fffffffff0000000000000000000000000000000000000000000000000000000082169050919050565b61047c81610448565b8114610486575f80fd5b50565b5f8135905061049781610473565b92915050565b5f602082840312156104b2576104b16103be565b5b5f6104bf84828501610489565b91505092915050565b5f80604083850312156104de576104dd6103be565b5b5f6104eb85828601610489565b92505060206104fc858286016103e1565b9150509250929050565b5f82825260208201905092915050565b7f73656c6563746f72206e6f7420657873697400000000000000000000000000005f82015250565b5f61054a601283610506565b915061055582610516565b602082019050919050565b5f6020820190508181035f8301526105778161053e565b9050919050565b5f81519050919050565b5f81905092915050565b8281835e5f83830152505050565b5f6105aa8261057e565b6105b48185610588565b93506105c4818560208601610592565b80840191505092915050565b5f6105db82846105a0565b915081905092915050565b7f63616c6c206661696c65640000000000000000000000000000000000000000005f82015250565b5f61061a600b83610506565b9150610625826105e6565b602082019050919050565b5f6020820190508181035f8301526106478161060e565b9050919050565b5f8151905061065c816103cb565b92915050565b5f60208284031215610677576106766103be565b5b5f6106848482850161064e565b91505092915050565b7f4e487b71000000000000000000000000000000000000000000000000000000005f52601160045260245ffd5b5f8160011c9050919050565b5f808291508390505b600185111561070f578086048111156106eb576106ea61068d565b5b60018516156106fa5780820291505b8081029050610708856106ba565b94506106cf565b94509492505050565b5f8261072757600190506107e2565b81610734575f90506107e2565b816001811461074a576002811461075457610783565b60019150506107e2565b60ff8411156107665761076561068d565b5b8360020a91508482111561077d5761077c61068d565b5b506107e2565b5060208310610133831016604e8410600b84101617156107b85782820a9050838111156107b3576107b261068d565b5b6107e2565b6107c584848460016106c6565b925090508184048111156107dc576107db61068d565b5b81810290505b9392505050565b5f60ff82169050919050565b5f6107ff826103c2565b915061080a836107e9565b92506108377fffffffffffffffffffffffffffffffffffffffffffffffffffffffffffffffff8484610718565b905092915050565b5f610849826103c2565b9150610854836103c2565b9250828202610862816103c2565b915082820484148315176108795761087861068d565b5b509291505056fea2646970667358221220306e28c2c800c6b75c12737eafde32591fbf08de63b1742756bb6ba3b22b197664736f6c634300081a0033",
					"opcodes": "PUSH1 0x80 PUSH1 0x40 MSTORE CALLVALUE DUP1 ISZERO PUSH1 0xE JUMPI PUSH0 DUP1 REVERT JUMPDEST POP PUSH2 0x8B6 DUP1 PUSH2 0x1C PUSH0 CODECOPY PUSH0 RETURN INVALID PUSH1 0x80 PUSH1 0x40 MSTORE CALLVALUE DUP1 ISZERO PUSH2 0xF JUMPI PUSH0 DUP1 REVERT JUMPDEST POP PUSH1 0x4 CALLDATASIZE LT PUSH2 0x55 JUMPI PUSH0 CALLDATALOAD PUSH1 0xE0 SHR DUP1 PUSH4 0x53308370 EQ PUSH2 0x59 JUMPI DUP1 PUSH4 0x7B292909 EQ PUSH2 0x89 JUMPI DUP1 PUSH4 0x8D10FF0C EQ PUSH2 0xB9 JUMPI DUP1 PUSH4 0xA25F4D31 EQ PUSH2 0xD5 JUMPI DUP1 PUSH4 0xEEE97206 EQ PUSH2 0x105 JUMPI JUMPDEST PUSH0 DUP1 REVERT JUMPDEST PUSH2 0x73 PUSH1 0x4 DUP1 CALLDATASIZE SUB DUP2 ADD SWAP1 PUSH2 0x6E SWAP2 SWAP1 PUSH2 0x3F5 JUMP JUMPDEST PUSH2 0x135 JUMP JUMPDEST PUSH1 0x40 MLOAD PUSH2 0x80 SWAP2 SWAP1 PUSH2 0x42F JUMP JUMPDEST PUSH1 0x40 MLOAD DUP1 SWAP2 SUB SWAP1 RETURN JUMPDEST PUSH2 0xA3 PUSH1 0x4 DUP1 CALLDATASIZE SUB DUP2 ADD SWAP1 PUSH2 0x9E SWAP2 SWAP1 PUSH2 0x3F5 JUMP JUMPDEST PUSH2 0x306 JUMP JUMPDEST PUSH1 0x40 MLOAD PUSH2 0xB0 SWAP2 SWAP1 PUSH2 0x42F JUMP JUMPDEST PUSH1 0x40 MLOAD DUP1 SWAP2 SUB SWAP1 RETURN JUMPDEST PUSH2 0xD3 PUSH1 0x4 DUP1 CALLDATASIZE SUB DUP2 ADD SWAP1 PUSH2 0xCE SWAP2 SWAP1 PUSH2 0x49D JUMP JUMPDEST PUSH2 0x31B JUMP JUMPDEST STOP JUMPDEST PUSH2 0xEF PUSH1 0x4 DUP1 CALLDATASIZE SUB DUP2 ADD SWAP1 PUSH2 0xEA SWAP2 SWAP1 PUSH2 0x4C8 JUMP JUMPDEST PUSH2 0x33A JUMP JUMPDEST PUSH1 0x40 MLOAD PUSH2 0xFC SWAP2 SWAP1 PUSH2 0x42F JUMP JUMPDEST PUSH1 0x40 MLOAD DUP1 SWAP2 SUB SWAP1 RETURN JUMPDEST PUSH2 0x11F PUSH1 0x4 DUP1 CALLDATASIZE SUB DUP2 ADD SWAP1 PUSH2 0x11A SWAP2 SWAP1 PUSH2 0x3F5 JUMP JUMPDEST PUSH2 0x3A9 JUMP JUMPDEST PUSH1 0x40 MLOAD PUSH2 0x12C SWAP2 SWAP1 PUSH2 0x42F JUMP JUMPDEST PUSH1 0x40 MLOAD DUP1 SWAP2 SUB SWAP1 RETURN JUMPDEST PUSH0 DUP1 PUSH1 0xE0 SHL PUSH28 0xFFFFFFFFFFFFFFFFFFFFFFFFFFFFFFFFFFFFFFFFFFFFFFFFFFFFFFFF NOT AND PUSH0 DUP1 SLOAD SWAP1 PUSH2 0x100 EXP SWAP1 DIV PUSH1 0xE0 SHL PUSH28 0xFFFFFFFFFFFFFFFFFFFFFFFFFFFFFFFFFFFFFFFFFFFFFFFFFFFFFFFF NOT AND SUB PUSH2 0x1C5 JUMPI PUSH1 0x40 MLOAD PUSH32 0x8C379A000000000000000000000000000000000000000000000000000000000 DUP2 MSTORE PUSH1 0x4 ADD PUSH2 0x1BC SWAP1 PUSH2 0x560 JUMP JUMPDEST PUSH1 0x40 MLOAD DUP1 SWAP2 SUB SWAP1 REVERT JUMPDEST PUSH0 DUP1 ADDRESS PUSH20 0xFFFFFFFFFFFFFFFFFFFFFFFFFFFFFFFFFFFFFFFF AND PUSH0 DUP1 SLOAD SWAP1 PUSH2 0x100 EXP SWAP1 DIV PUSH1 0xE0 SHL DUP6 PUSH1 0x40 MLOAD PUSH1 0x24 ADD PUSH2 0x1FC SWAP2 SWAP1 PUSH2 0x42F JUMP JUMPDEST PUSH1 0x40 MLOAD PUSH1 0x20 DUP2 DUP4 SUB SUB DUP2 MSTORE SWAP1 PUSH1 0x40 MSTORE SWAP1 PUSH28 0xFFFFFFFFFFFFFFFFFFFFFFFFFFFFFFFFFFFFFFFFFFFFFFFFFFFFFFFF NOT AND PUSH1 0x20 DUP3 ADD DUP1 MLOAD PUSH28 0xFFFFFFFFFFFFFFFFFFFFFFFFFFFFFFFFFFFFFFFFFFFFFFFFFFFFFFFF DUP4 DUP2 DUP4 AND OR DUP4 MSTORE POP POP POP POP PUSH1 0x40 MLOAD PUSH2 0x266 SWAP2 SWAP1 PUSH2 0x5D0 JUMP JUMPDEST PUSH0 PUSH1 0x40 MLOAD DUP1 DUP4 SUB DUP2 PUSH0 DUP7 GAS CALL SWAP2 POP POP RETURNDATASIZE DUP1 PUSH0 DUP2 EQ PUSH2 0x29F JUMPI PUSH1 0x40 MLOAD SWAP2 POP PUSH1 0x1F NOT PUSH1 0x3F RETURNDATASIZE ADD AND DUP3 ADD PUSH1 0x40 MSTORE RETURNDATASIZE DUP3 MSTORE RETURNDATASIZE PUSH0 PUSH1 0x20 DUP5 ADD RETURNDATACOPY PUSH2 0x2A4 JUMP JUMPDEST PUSH1 0x60 SWAP2 POP JUMPDEST POP SWAP2 POP SWAP2 POP DUP2 PUSH2 0x2E9 JUMPI PUSH1 0x40 MLOAD PUSH32 0x8C379A000000000000000000000000000000000000000000000000000000000 DUP2 MSTORE PUSH1 0x4 ADD PUSH2 0x2E0 SWAP1 PUSH2 0x630 JUMP JUMPDEST PUSH1 0x40 MLOAD DUP1 SWAP2 SUB SWAP1 REVERT JUMPDEST DUP1 DUP1 PUSH1 0x20 ADD SWAP1 MLOAD DUP2 ADD SWAP1 PUSH2 0x2FD SWAP2 SWAP1 PUSH2 0x662 JUMP JUMPDEST SWAP3 POP POP POP SWAP2 SWAP1 POP JUMP JUMPDEST PUSH0 PUSH1 0x2 DUP3 PUSH2 0x314 SWAP2 SWAP1 PUSH2 0x7F5 JUMP JUMPDEST SWAP1 POP SWAP2 SWAP1 POP JUMP JUMPDEST DUP1 PUSH0 DUP1 PUSH2 0x100 EXP DUP2 SLOAD DUP2 PUSH4 0xFFFFFFFF MUL NOT AND SWAP1 DUP4 PUSH1 0xE0 SHR MUL OR SWAP1 SSTORE POP POP JUMP JUMPDEST PUSH0 PUSH4 0x7B292909 PUSH1 0xE0 SHL PUSH28 0xFFFFFFFFFFFFFFFFFFFFFFFFFFFFFFFFFFFFFFFFFFFFFFFFFFFFFFFF NOT AND DUP4 PUSH28 0xFFFFFFFFFFFFFFFFFFFFFFFFFFFFFFFFFFFFFFFFFFFFFFFFFFFFFFFF NOT AND SUB PUSH2 0x397 JUMPI PUSH2 0x390 DUP3 PUSH2 0x306 JUMP JUMPDEST SWAP1 POP PUSH2 0x3A3 JUMP JUMPDEST PUSH2 0x3A0 DUP3 PUSH2 0x3A9 JUMP JUMPDEST SWAP1 POP JUMPDEST SWAP3 SWAP2 POP POP JUMP JUMPDEST PUSH0 PUSH1 0x2 DUP3 PUSH2 0x3B7 SWAP2 SWAP1 PUSH2 0x83F JUMP JUMPDEST SWAP1 POP SWAP2 SWAP1 POP JUMP JUMPDEST PUSH0 DUP1 REVERT JUMPDEST PUSH0 DUP2 SWAP1 POP SWAP2 SWAP1 POP JUMP JUMPDEST PUSH2 0x3D4 DUP2 PUSH2 0x3C2 JUMP JUMPDEST DUP2 EQ PUSH2 0x3DE JUMPI PUSH0 DUP1 REVERT JUMPDEST POP JUMP JUMPDEST PUSH0 DUP2 CALLDATALOAD SWAP1 POP PUSH2 0x3EF DUP2 PUSH2 0x3CB JUMP JUMPDEST SWAP3 SWAP2 POP POP JUMP JUMPDEST PUSH0 PUSH1 0x20 DUP3 DUP5 SUB SLT ISZERO PUSH2 0x40A JUMPI PUSH2 0x409 PUSH2 0x3BE JUMP JUMPDEST JUMPDEST PUSH0 PUSH2 0x417 DUP5 DUP3 DUP6 ADD PUSH2 0x3E1 JUMP JUMPDEST SWAP2 POP POP SWAP3 SWAP2 POP POP JUMP JUMPDEST PUSH2 0x429 DUP2 PUSH2 0x3C2 JUMP JUMPDEST DUP3 MSTORE POP POP JUMP JUMPDEST PUSH0 PUSH1 0x20 DUP3 ADD SWAP1 POP PUSH2 0x442 PUSH0 DUP4 ADD DUP5 PUSH2 0x420 JUMP JUMPDEST SWAP3 SWAP2 POP POP JUMP JUMPDEST PUSH0 PUSH32 0xFFFFFFFF00000000000000000000000000000000000000000000000000000000 DUP3 AND SWAP1 POP SWAP2 SWAP1 POP JUMP JUMPDEST PUSH2 0x47C DUP2 PUSH2 0x448 JUMP JUMPDEST DUP2 EQ PUSH2 0x486 JUMPI PUSH0 DUP1 REVERT JUMPDEST POP JUMP JUMPDEST PUSH0 DUP2 CALLDATALOAD SWAP1 POP PUSH2 0x497 DUP2 PUSH2 0x473 JUMP JUMPDEST SWAP3 SWAP2 POP POP JUMP JUMPDEST PUSH0 PUSH1 0x20 DUP3 DUP5 SUB SLT ISZERO PUSH2 0x4B2 JUMPI PUSH2 0x4B1 PUSH2 0x3BE JUMP JUMPDEST JUMPDEST PUSH0 PUSH2 0x4BF DUP5 DUP3 DUP6 ADD PUSH2 0x489 JUMP JUMPDEST SWAP2 POP POP SWAP3 SWAP2 POP POP JUMP JUMPDEST PUSH0 DUP1 PUSH1 0x40 DUP4 DUP6 SUB SLT ISZERO PUSH2 0x4DE JUMPI PUSH2 0x4DD PUSH2 0x3BE JUMP JUMPDEST JUMPDEST PUSH0 PUSH2 0x4EB DUP6 DUP3 DUP7 ADD PUSH2 0x489 JUMP JUMPDEST SWAP3 POP POP PUSH1 0x20 PUSH2 0x4FC DUP6 DUP3 DUP7 ADD PUSH2 0x3E1 JUMP JUMPDEST SWAP2 POP POP SWAP3 POP SWAP3 SWAP1 POP JUMP JUMPDEST PUSH0 DUP3 DUP3 MSTORE PUSH1 0x20 DUP3 ADD SWAP1 POP SWAP3 SWAP2 POP POP JUMP JUMPDEST PUSH32 0x73656C6563746F72206E6F742065787369740000000000000000000000000000 PUSH0 DUP3 ADD MSTORE POP JUMP JUMPDEST PUSH0 PUSH2 0x54A PUSH1 0x12 DUP4 PUSH2 0x506 JUMP JUMPDEST SWAP2 POP PUSH2 0x555 DUP3 PUSH2 0x516 JUMP JUMPDEST PUSH1 0x20 DUP3 ADD SWAP1 POP SWAP2 SWAP1 POP JUMP JUMPDEST PUSH0 PUSH1 0x20 DUP3 ADD SWAP1 POP DUP2 DUP2 SUB PUSH0 DUP4 ADD MSTORE PUSH2 0x577 DUP2 PUSH2 0x53E JUMP JUMPDEST SWAP1 POP SWAP2 SWAP1 POP JUMP JUMPDEST PUSH0 DUP2 MLOAD SWAP1 POP SWAP2 SWAP1 POP JUMP JUMPDEST PUSH0 DUP2 SWAP1 POP SWAP3 SWAP2 POP POP JUMP JUMPDEST DUP3 DUP2 DUP4 MCOPY PUSH0 DUP4 DUP4 ADD MSTORE POP POP POP JUMP JUMPDEST PUSH0 PUSH2 0x5AA DUP3 PUSH2 0x57E JUMP JUMPDEST PUSH2 0x5B4 DUP2 DUP6 PUSH2 0x588 JUMP JUMPDEST SWAP4 POP PUSH2 0x5C4 DUP2 DUP6 PUSH1 0x20 DUP7 ADD PUSH2 0x592 JUMP JUMPDEST DUP1 DUP5 ADD SWAP2 POP POP SWAP3 SWAP2 POP POP JUMP JUMPDEST PUSH0 PUSH2 0x5DB DUP3 DUP5 PUSH2 0x5A0 JUMP JUMPDEST SWAP2 POP DUP2 SWAP1 POP SWAP3 SWAP2 POP POP JUMP JUMPDEST PUSH32 0x63616C6C206661696C6564000000000000000000000000000000000000000000 PUSH0 DUP3 ADD MSTORE POP JUMP JUMPDEST PUSH0 PUSH2 0x61A PUSH1 0xB DUP4 PUSH2 0x506 JUMP JUMPDEST SWAP2 POP PUSH2 0x625 DUP3 PUSH2 0x5E6 JUMP JUMPDEST PUSH1 0x20 DUP3 ADD SWAP1 POP SWAP2 SWAP1 POP JUMP JUMPDEST PUSH0 PUSH1 0x20 DUP3 ADD SWAP1 POP DUP2 DUP2 SUB PUSH0 DUP4 ADD MSTORE PUSH2 0x647 DUP2 PUSH2 0x60E JUMP JUMPDEST SWAP1 POP SWAP2 SWAP1 POP JUMP JUMPDEST PUSH0 DUP2 MLOAD SWAP1 POP PUSH2 0x65C DUP2 PUSH2 0x3CB JUMP JUMPDEST SWAP3 SWAP2 POP POP JUMP JUMPDEST PUSH0 PUSH1 0x20 DUP3 DUP5 SUB SLT ISZERO PUSH2 0x677 JUMPI PUSH2 0x676 PUSH2 0x3BE JUMP JUMPDEST JUMPDEST PUSH0 PUSH2 0x684 DUP5 DUP3 DUP6 ADD PUSH2 0x64E JUMP JUMPDEST SWAP2 POP POP SWAP3 SWAP2 POP POP JUMP JUMPDEST PUSH32 0x4E487B7100000000000000000000000000000000000000000000000000000000 PUSH0 MSTORE PUSH1 0x11 PUSH1 0x4 MSTORE PUSH1 0x24 PUSH0 REVERT JUMPDEST PUSH0 DUP2 PUSH1 0x1 SHR SWAP1 POP SWAP2 SWAP1 POP JUMP JUMPDEST PUSH0 DUP1 DUP3 SWAP2 POP DUP4 SWAP1 POP JUMPDEST PUSH1 0x1 DUP6 GT ISZERO PUSH2 0x70F JUMPI DUP1 DUP7 DIV DUP2 GT ISZERO PUSH2 0x6EB JUMPI PUSH2 0x6EA PUSH2 0x68D JUMP JUMPDEST JUMPDEST PUSH1 0x1 DUP6 AND ISZERO PUSH2 0x6FA JUMPI DUP1 DUP3 MUL SWAP2 POP JUMPDEST DUP1 DUP2 MUL SWAP1 POP PUSH2 0x708 DUP6 PUSH2 0x6BA JUMP JUMPDEST SWAP5 POP PUSH2 0x6CF JUMP JUMPDEST SWAP5 POP SWAP5 SWAP3 POP POP POP JUMP JUMPDEST PUSH0 DUP3 PUSH2 0x727 JUMPI PUSH1 0x1 SWAP1 POP PUSH2 0x7E2 JUMP JUMPDEST DUP2 PUSH2 0x734 JUMPI PUSH0 SWAP1 POP PUSH2 0x7E2 JUMP JUMPDEST DUP2 PUSH1 0x1 DUP2 EQ PUSH2 0x74A JUMPI PUSH1 0x2 DUP2 EQ PUSH2 0x754 JUMPI PUSH2 0x783 JUMP JUMPDEST PUSH1 0x1 SWAP2 POP POP PUSH2 0x7E2 JUMP JUMPDEST PUSH1 0xFF DUP5 GT ISZERO PUSH2 0x766 JUMPI PUSH2 0x765 PUSH2 0x68D JUMP JUMPDEST JUMPDEST DUP4 PUSH1 0x2 EXP SWAP2 POP DUP5 DUP3 GT ISZERO PUSH2 0x77D JUMPI PUSH2 0x77C PUSH2 0x68D JUMP JUMPDEST JUMPDEST POP PUSH2 0x7E2 JUMP JUMPDEST POP PUSH1 0x20 DUP4 LT PUSH2 0x133 DUP4 LT AND PUSH1 0x4E DUP5 LT PUSH1 0xB DUP5 LT AND OR ISZERO PUSH2 0x7B8 JUMPI DUP3 DUP3 EXP SWAP1 POP DUP4 DUP2 GT ISZERO PUSH2 0x7B3 JUMPI PUSH2 0x7B2 PUSH2 0x68D JUMP JUMPDEST JUMPDEST PUSH2 0x7E2 JUMP JUMPDEST PUSH2 0x7C5 DUP5 DUP5 DUP5 PUSH1 0x1 PUSH2 0x6C6 JUMP JUMPDEST SWAP3 POP SWAP1 POP DUP2 DUP5 DIV DUP2 GT ISZERO PUSH2 0x7DC JUMPI PUSH2 0x7DB PUSH2 0x68D JUMP JUMPDEST JUMPDEST DUP2 DUP2 MUL SWAP1 POP JUMPDEST SWAP4 SWAP3 POP POP POP JUMP JUMPDEST PUSH0 PUSH1 0xFF DUP3 AND SWAP1 POP SWAP2 SWAP1 POP JUMP JUMPDEST PUSH0 PUSH2 0x7FF DUP3 PUSH2 0x3C2 JUMP JUMPDEST SWAP2 POP PUSH2 0x80A DUP4 PUSH2 0x7E9 JUMP JUMPDEST SWAP3 POP PUSH2 0x837 PUSH32 0xFFFFFFFFFFFFFFFFFFFFFFFFFFFFFFFFFFFFFFFFFFFFFFFFFFFFFFFFFFFFFFFF DUP5 DUP5 PUSH2 0x718 JUMP JUMPDEST SWAP1 POP SWAP3 SWAP2 POP POP JUMP JUMPDEST PUSH0 PUSH2 0x849 DUP3 PUSH2 0x3C2 JUMP JUMPDEST SWAP2 POP PUSH2 0x854 DUP4 PUSH2 0x3C2 JUMP JUMPDEST SWAP3 POP DUP3 DUP3 MUL PUSH2 0x862 DUP2 PUSH2 0x3C2 JUMP JUMPDEST SWAP2 POP DUP3 DUP3 DIV DUP5 EQ DUP4 ISZERO OR PUSH2 0x879 JUMPI PUSH2 0x878 PUSH2 0x68D JUMP JUMPDEST JUMPDEST POP SWAP3 SWAP2 POP POP JUMP INVALID LOG2 PUSH5 0x6970667358 0x22 SLT KECCAK256 ADDRESS PUSH15 0x28C2C800C6B75C12737EAFDE32591F 0xBF ADDMOD 0xDE PUSH4 0xB1742756 0xBB PUSH12 0xA3B22B197664736F6C634300 ADDMOD BYTE STOP CALLER "
				},
				"gasEstimates": {
					"creation": {
						"codeDepositCost": "446000",
						"executionCost": "478",
						"totalCost": "446478"
					},
					"external": {
						"double(uint256)": "infinite",
						"executeFunction(bytes4,uint256)": "infinite",
						"executeStoredFunction(uint256)": "infinite",
						"square(uint256)": "infinite",
						"storeSelector(bytes4)": "24695"
					}
				},
				"methodIdentifiers": {
					"double(uint256)": "eee97206",
					"executeFunction(bytes4,uint256)": "a25f4d31",
					"executeStoredFunction(uint256)": "53308370",
					"square(uint256)": "7b292909",
					"storeSelector(bytes4)": "8d10ff0c"
				}
			},
			"storageLayout": {
				"storage": [
					{
						"astId": 3,
						"contract": "DynamicSelector.sol:TestSelector",
						"label": "storedSelector",
						"offset": 0,
						"slot": "0",
						"type": "t_bytes4"
					}
				],
				"types": {
					"t_bytes4": {
						"encoding": "inplace",
						"label": "bytes4",
						"numberOfBytes": "4"
					}
				}
			},
			"userdoc": {
				"kind": "user",
				"methods": {},
				"version": 1
			}
		}
	}
}