{
	"handleError.sol": {
		"trycatchDemo": {
			"abi": [
				{
					"inputs": [],
					"stateMutability": "nonpayable",
					"type": "constructor"
				},
				{
					"inputs": [],
					"name": "test",
					"outputs": [
						{
							"internalType": "string",
							"name": "",
							"type": "string"
						}
					],
					"stateMutability": "view",
					"type": "function"
				}
			],
			"devdoc": {
				"kind": "dev",
				"methods": {},
				"version": 1
			},
			"evm": {
				"assembly": "    /* \"handleError.sol\":907:1283  contract trycatchDemo{... */\n  mstore(0x40, 0x80)\n    /* \"handleError.sol\":968:1031  constructor() {... */\n  callvalue\n  dup1\n  iszero\n  tag_1\n  jumpi\n  0x00\n  dup1\n  revert\ntag_1:\n  pop\n    /* \"handleError.sol\":1006:1023  new HandleError() */\n  mload(0x40)\n  tag_4\n  swap1\n  tag_5\n  jump\t// in\ntag_4:\n  mload(0x40)\n  dup1\n  swap2\n  sub\n  swap1\n  0x00\n  create\n  dup1\n  iszero\n  dup1\n  iszero\n  tag_6\n  jumpi\n  returndatasize\n  0x00\n  dup1\n  returndatacopy\n  revert(0x00, returndatasize)\ntag_6:\n  pop\n    /* \"handleError.sol\":993:1003  handlerror */\n  0x00\n  dup1\n    /* \"handleError.sol\":993:1023  handlerror = new HandleError() */\n  0x0100\n  exp\n  dup2\n  sload\n  dup2\n  0xffffffffffffffffffffffffffffffffffffffff\n  mul\n  not\n  and\n  swap1\n  dup4\n  0xffffffffffffffffffffffffffffffffffffffff\n  and\n  mul\n  or\n  swap1\n  sstore\n  pop\n    /* \"handleError.sol\":907:1283  contract trycatchDemo{... */\n  jump(tag_7)\ntag_5:\n  dataSize(sub_1)\n  dup1\n  dataOffset(sub_1)\n  dup4\n  codecopy\n  add\n  swap1\n  jump\t// out\ntag_7:\n  dataSize(sub_0)\n  dup1\n  dataOffset(sub_0)\n  0x00\n  codecopy\n  0x00\n  return\nstop\n\nsub_0: assembly {\n        /* \"handleError.sol\":907:1283  contract trycatchDemo{... */\n      mstore(0x40, 0x80)\n      callvalue\n      dup1\n      iszero\n      tag_1\n      jumpi\n      0x00\n      dup1\n      revert\n    tag_1:\n      pop\n      jumpi(tag_2, lt(calldatasize, 0x04))\n      shr(0xe0, calldataload(0x00))\n      dup1\n      0xf8a8fd6d\n      eq\n      tag_3\n      jumpi\n    tag_2:\n      0x00\n      dup1\n      revert\n        /* \"handleError.sol\":1068:1280  function test() public view returns (string memory){... */\n    tag_3:\n      tag_4\n      tag_5\n      jump\t// in\n    tag_4:\n      mload(0x40)\n      tag_6\n      swap2\n      swap1\n      tag_7\n      jump\t// in\n    tag_6:\n      mload(0x40)\n      dup1\n      swap2\n      sub\n      swap1\n      return\n    tag_5:\n        /* \"handleError.sol\":1105:1118  string memory */\n      0x60\n        /* \"handleError.sol\":1134:1144  handlerror */\n      0x00\n      dup1\n      sload\n      swap1\n      0x0100\n      exp\n      swap1\n      div\n      0xffffffffffffffffffffffffffffffffffffffff\n      and\n        /* \"handleError.sol\":1134:1148  handlerror.rev */\n      0xffffffffffffffffffffffffffffffffffffffff\n      and\n      0xf47fad75\n        /* \"handleError.sol\":1149:1150  2 */\n      0x02\n        /* \"handleError.sol\":1152:1153  1 */\n      0x01\n        /* \"handleError.sol\":1134:1154  handlerror.rev(2, 1) */\n      mload(0x40)\n      dup4\n      0xffffffff\n      and\n      0xe0\n      shl\n      dup2\n      mstore\n      0x04\n      add\n      tag_9\n      swap3\n      swap2\n      swap1\n      tag_10\n      jump\t// in\n    tag_9:\n      0x00\n      mload(0x40)\n      dup1\n      dup4\n      sub\n      dup2\n      dup7\n      dup1\n      extcodesize\n      iszero\n      dup1\n      iszero\n      tag_11\n      jumpi\n      0x00\n      dup1\n      revert\n    tag_11:\n      pop\n      gas\n      staticcall\n      swap3\n      pop\n      pop\n      pop\n      dup1\n      iszero\n      tag_12\n      jumpi\n      pop\n      0x01\n    tag_12:\n        /* \"handleError.sol\":1130:1273  try handlerror.rev(2, 1) {... */\n      tag_13\n      jumpi\n      tag_17\n      tag_18\n      jump\t// in\n    tag_17:\n      dup1\n      0x08c379a0\n      sub\n      tag_16\n      jumpi\n      pop\n      tag_19\n      tag_20\n      jump\t// in\n    tag_19:\n      dup1\n      tag_21\n      jumpi\n      pop\n      jump(tag_15)\n    tag_21:\n        /* \"handleError.sol\":1256:1261  error */\n      dup1\n        /* \"handleError.sol\":1249:1261  return error */\n      swap2\n      pop\n      pop\n      jump(tag_8)\n        /* \"handleError.sol\":1130:1273  try handlerror.rev(2, 1) {... */\n    tag_16:\n      pop\n    tag_15:\n      returndatasize\n      0x00\n      dup1\n      returndatacopy\n      revert(0x00, returndatasize)\n    tag_13:\n        /* \"handleError.sol\":1170:1190  return \"not execute\" */\n      mload(0x40)\n      dup1\n      0x40\n      add\n      0x40\n      mstore\n      dup1\n      0x0b\n      dup2\n      mstore\n      0x20\n      add\n      0x6e6f742065786563757465000000000000000000000000000000000000000000\n      dup2\n      mstore\n      pop\n      swap1\n      pop\n        /* \"handleError.sol\":1068:1280  function test() public view returns (string memory){... */\n    tag_8:\n      swap1\n      jump\t// out\n        /* \"#utility.yul\":7:106   */\n    tag_23:\n        /* \"#utility.yul\":59:65   */\n      0x00\n        /* \"#utility.yul\":93:98   */\n      dup2\n        /* \"#utility.yul\":87:99   */\n      mload\n        /* \"#utility.yul\":77:99   */\n      swap1\n      pop\n        /* \"#utility.yul\":7:106   */\n      swap2\n      swap1\n      pop\n      jump\t// out\n        /* \"#utility.yul\":112:281   */\n    tag_24:\n        /* \"#utility.yul\":196:207   */\n      0x00\n        /* \"#utility.yul\":230:236   */\n      dup3\n        /* \"#utility.yul\":225:228   */\n      dup3\n        /* \"#utility.yul\":218:237   */\n      mstore\n        /* \"#utility.yul\":270:274   */\n      0x20\n        /* \"#utility.yul\":265:268   */\n      dup3\n        /* \"#utility.yul\":261:275   */\n      add\n        /* \"#utility.yul\":246:275   */\n      swap1\n      pop\n        /* \"#utility.yul\":112:281   */\n      swap3\n      swap2\n      pop\n      pop\n      jump\t// out\n        /* \"#utility.yul\":287:426   */\n    tag_25:\n        /* \"#utility.yul\":376:382   */\n      dup3\n        /* \"#utility.yul\":371:374   */\n      dup2\n        /* \"#utility.yul\":366:369   */\n      dup4\n        /* \"#utility.yul\":360:383   */\n      mcopy\n        /* \"#utility.yul\":417:418   */\n      0x00\n        /* \"#utility.yul\":408:414   */\n      dup4\n        /* \"#utility.yul\":403:406   */\n      dup4\n        /* \"#utility.yul\":399:415   */\n      add\n        /* \"#utility.yul\":392:419   */\n      mstore\n        /* \"#utility.yul\":287:426   */\n      pop\n      pop\n      pop\n      jump\t// out\n        /* \"#utility.yul\":432:534   */\n    tag_26:\n        /* \"#utility.yul\":473:479   */\n      0x00\n        /* \"#utility.yul\":524:526   */\n      0x1f\n        /* \"#utility.yul\":520:527   */\n      not\n        /* \"#utility.yul\":515:517   */\n      0x1f\n        /* \"#utility.yul\":508:513   */\n      dup4\n        /* \"#utility.yul\":504:518   */\n      add\n        /* \"#utility.yul\":500:528   */\n      and\n        /* \"#utility.yul\":490:528   */\n      swap1\n      pop\n        /* \"#utility.yul\":432:534   */\n      swap2\n      swap1\n      pop\n      jump\t// out\n        /* \"#utility.yul\":540:917   */\n    tag_27:\n        /* \"#utility.yul\":628:631   */\n      0x00\n        /* \"#utility.yul\":656:695   */\n      tag_46\n        /* \"#utility.yul\":689:694   */\n      dup3\n        /* \"#utility.yul\":656:695   */\n      tag_23\n      jump\t// in\n    tag_46:\n        /* \"#utility.yul\":711:782   */\n      tag_47\n        /* \"#utility.yul\":775:781   */\n      dup2\n        /* \"#utility.yul\":770:773   */\n      dup6\n        /* \"#utility.yul\":711:782   */\n      tag_24\n      jump\t// in\n    tag_47:\n        /* \"#utility.yul\":704:782   */\n      swap4\n      pop\n        /* \"#utility.yul\":791:856   */\n      tag_48\n        /* \"#utility.yul\":849:855   */\n      dup2\n        /* \"#utility.yul\":844:847   */\n      dup6\n        /* \"#utility.yul\":837:841   */\n      0x20\n        /* \"#utility.yul\":830:835   */\n      dup7\n        /* \"#utility.yul\":826:842   */\n      add\n        /* \"#utility.yul\":791:856   */\n      tag_25\n      jump\t// in\n    tag_48:\n        /* \"#utility.yul\":881:910   */\n      tag_49\n        /* \"#utility.yul\":903:909   */\n      dup2\n        /* \"#utility.yul\":881:910   */\n      tag_26\n      jump\t// in\n    tag_49:\n        /* \"#utility.yul\":876:879   */\n      dup5\n        /* \"#utility.yul\":872:911   */\n      add\n        /* \"#utility.yul\":865:911   */\n      swap2\n      pop\n        /* \"#utility.yul\":632:917   */\n      pop\n        /* \"#utility.yul\":540:917   */\n      swap3\n      swap2\n      pop\n      pop\n      jump\t// out\n        /* \"#utility.yul\":923:1236   */\n    tag_7:\n        /* \"#utility.yul\":1036:1040   */\n      0x00\n        /* \"#utility.yul\":1074:1076   */\n      0x20\n        /* \"#utility.yul\":1063:1072   */\n      dup3\n        /* \"#utility.yul\":1059:1077   */\n      add\n        /* \"#utility.yul\":1051:1077   */\n      swap1\n      pop\n        /* \"#utility.yul\":1123:1132   */\n      dup2\n        /* \"#utility.yul\":1117:1121   */\n      dup2\n        /* \"#utility.yul\":1113:1133   */\n      sub\n        /* \"#utility.yul\":1109:1110   */\n      0x00\n        /* \"#utility.yul\":1098:1107   */\n      dup4\n        /* \"#utility.yul\":1094:1111   */\n      add\n        /* \"#utility.yul\":1087:1134   */\n      mstore\n        /* \"#utility.yul\":1151:1229   */\n      tag_51\n        /* \"#utility.yul\":1224:1228   */\n      dup2\n        /* \"#utility.yul\":1215:1221   */\n      dup5\n        /* \"#utility.yul\":1151:1229   */\n      tag_27\n      jump\t// in\n    tag_51:\n        /* \"#utility.yul\":1143:1229   */\n      swap1\n      pop\n        /* \"#utility.yul\":923:1236   */\n      swap3\n      swap2\n      pop\n      pop\n      jump\t// out\n        /* \"#utility.yul\":1242:1327   */\n    tag_28:\n        /* \"#utility.yul\":1287:1294   */\n      0x00\n        /* \"#utility.yul\":1316:1321   */\n      dup2\n        /* \"#utility.yul\":1305:1321   */\n      swap1\n      pop\n        /* \"#utility.yul\":1242:1327   */\n      swap2\n      swap1\n      pop\n      jump\t// out\n        /* \"#utility.yul\":1333:1410   */\n    tag_29:\n        /* \"#utility.yul\":1370:1377   */\n      0x00\n        /* \"#utility.yul\":1399:1404   */\n      dup2\n        /* \"#utility.yul\":1388:1404   */\n      swap1\n      pop\n        /* \"#utility.yul\":1333:1410   */\n      swap2\n      swap1\n      pop\n      jump\t// out\n        /* \"#utility.yul\":1416:1476   */\n    tag_30:\n        /* \"#utility.yul\":1444:1447   */\n      0x00\n        /* \"#utility.yul\":1465:1470   */\n      dup2\n        /* \"#utility.yul\":1458:1470   */\n      swap1\n      pop\n        /* \"#utility.yul\":1416:1476   */\n      swap2\n      swap1\n      pop\n      jump\t// out\n        /* \"#utility.yul\":1482:1640   */\n    tag_31:\n        /* \"#utility.yul\":1540:1549   */\n      0x00\n        /* \"#utility.yul\":1573:1634   */\n      tag_56\n        /* \"#utility.yul\":1591:1633   */\n      tag_57\n        /* \"#utility.yul\":1600:1632   */\n      tag_58\n        /* \"#utility.yul\":1626:1631   */\n      dup5\n        /* \"#utility.yul\":1600:1632   */\n      tag_28\n      jump\t// in\n    tag_58:\n        /* \"#utility.yul\":1591:1633   */\n      tag_30\n      jump\t// in\n    tag_57:\n        /* \"#utility.yul\":1573:1634   */\n      tag_29\n      jump\t// in\n    tag_56:\n        /* \"#utility.yul\":1560:1634   */\n      swap1\n      pop\n        /* \"#utility.yul\":1482:1640   */\n      swap2\n      swap1\n      pop\n      jump\t// out\n        /* \"#utility.yul\":1646:1793   */\n    tag_32:\n        /* \"#utility.yul\":1741:1786   */\n      tag_60\n        /* \"#utility.yul\":1780:1785   */\n      dup2\n        /* \"#utility.yul\":1741:1786   */\n      tag_31\n      jump\t// in\n    tag_60:\n        /* \"#utility.yul\":1736:1739   */\n      dup3\n        /* \"#utility.yul\":1729:1787   */\n      mstore\n        /* \"#utility.yul\":1646:1793   */\n      pop\n      pop\n      jump\t// out\n        /* \"#utility.yul\":1799:1884   */\n    tag_33:\n        /* \"#utility.yul\":1844:1851   */\n      0x00\n        /* \"#utility.yul\":1873:1878   */\n      dup2\n        /* \"#utility.yul\":1862:1878   */\n      swap1\n      pop\n        /* \"#utility.yul\":1799:1884   */\n      swap2\n      swap1\n      pop\n      jump\t// out\n        /* \"#utility.yul\":1890:2048   */\n    tag_34:\n        /* \"#utility.yul\":1948:1957   */\n      0x00\n        /* \"#utility.yul\":1981:2042   */\n      tag_63\n        /* \"#utility.yul\":1999:2041   */\n      tag_64\n        /* \"#utility.yul\":2008:2040   */\n      tag_65\n        /* \"#utility.yul\":2034:2039   */\n      dup5\n        /* \"#utility.yul\":2008:2040   */\n      tag_33\n      jump\t// in\n    tag_65:\n        /* \"#utility.yul\":1999:2041   */\n      tag_30\n      jump\t// in\n    tag_64:\n        /* \"#utility.yul\":1981:2042   */\n      tag_29\n      jump\t// in\n    tag_63:\n        /* \"#utility.yul\":1968:2042   */\n      swap1\n      pop\n        /* \"#utility.yul\":1890:2048   */\n      swap2\n      swap1\n      pop\n      jump\t// out\n        /* \"#utility.yul\":2054:2201   */\n    tag_35:\n        /* \"#utility.yul\":2149:2194   */\n      tag_67\n        /* \"#utility.yul\":2188:2193   */\n      dup2\n        /* \"#utility.yul\":2149:2194   */\n      tag_34\n      jump\t// in\n    tag_67:\n        /* \"#utility.yul\":2144:2147   */\n      dup3\n        /* \"#utility.yul\":2137:2195   */\n      mstore\n        /* \"#utility.yul\":2054:2201   */\n      pop\n      pop\n      jump\t// out\n        /* \"#utility.yul\":2207:2571   */\n    tag_10:\n        /* \"#utility.yul\":2344:2348   */\n      0x00\n        /* \"#utility.yul\":2382:2384   */\n      0x40\n        /* \"#utility.yul\":2371:2380   */\n      dup3\n        /* \"#utility.yul\":2367:2385   */\n      add\n        /* \"#utility.yul\":2359:2385   */\n      swap1\n      pop\n        /* \"#utility.yul\":2395:2474   */\n      tag_69\n        /* \"#utility.yul\":2471:2472   */\n      0x00\n        /* \"#utility.yul\":2460:2469   */\n      dup4\n        /* \"#utility.yul\":2456:2473   */\n      add\n        /* \"#utility.yul\":2447:2453   */\n      dup6\n        /* \"#utility.yul\":2395:2474   */\n      tag_32\n      jump\t// in\n    tag_69:\n        /* \"#utility.yul\":2484:2564   */\n      tag_70\n        /* \"#utility.yul\":2560:2562   */\n      0x20\n        /* \"#utility.yul\":2549:2558   */\n      dup4\n        /* \"#utility.yul\":2545:2563   */\n      add\n        /* \"#utility.yul\":2536:2542   */\n      dup5\n        /* \"#utility.yul\":2484:2564   */\n      tag_35\n      jump\t// in\n    tag_70:\n        /* \"#utility.yul\":2207:2571   */\n      swap4\n      swap3\n      pop\n      pop\n      pop\n      jump\t// out\n        /* \"#utility.yul\":2577:2683   */\n    tag_36:\n        /* \"#utility.yul\":2621:2629   */\n      0x00\n        /* \"#utility.yul\":2670:2675   */\n      dup2\n        /* \"#utility.yul\":2665:2668   */\n      0xe0\n        /* \"#utility.yul\":2661:2676   */\n      shr\n        /* \"#utility.yul\":2640:2676   */\n      swap1\n      pop\n        /* \"#utility.yul\":2577:2683   */\n      swap2\n      swap1\n      pop\n      jump\t// out\n        /* \"#utility.yul\":2689:2872   */\n    tag_18:\n        /* \"#utility.yul\":2724:2727   */\n      0x00\n        /* \"#utility.yul\":2762:2763   */\n      0x03\n        /* \"#utility.yul\":2744:2760   */\n      returndatasize\n        /* \"#utility.yul\":2741:2764   */\n      gt\n        /* \"#utility.yul\":2738:2866   */\n      iszero\n      tag_73\n      jumpi\n        /* \"#utility.yul\":2800:2801   */\n      0x04\n        /* \"#utility.yul\":2797:2798   */\n      0x00\n        /* \"#utility.yul\":2794:2795   */\n      dup1\n        /* \"#utility.yul\":2779:2802   */\n      returndatacopy\n        /* \"#utility.yul\":2822:2856   */\n      tag_74\n        /* \"#utility.yul\":2853:2854   */\n      0x00\n        /* \"#utility.yul\":2847:2855   */\n      mload\n        /* \"#utility.yul\":2822:2856   */\n      tag_36\n      jump\t// in\n    tag_74:\n        /* \"#utility.yul\":2815:2856   */\n      swap1\n      pop\n        /* \"#utility.yul\":2738:2866   */\n    tag_73:\n        /* \"#utility.yul\":2689:2872   */\n      swap1\n      jump\t// out\n        /* \"#utility.yul\":2878:2953   */\n    tag_37:\n        /* \"#utility.yul\":2911:2917   */\n      0x00\n        /* \"#utility.yul\":2944:2946   */\n      0x40\n        /* \"#utility.yul\":2938:2947   */\n      mload\n        /* \"#utility.yul\":2928:2947   */\n      swap1\n      pop\n        /* \"#utility.yul\":2878:2953   */\n      swap1\n      jump\t// out\n        /* \"#utility.yul\":2959:3139   */\n    tag_38:\n        /* \"#utility.yul\":3007:3084   */\n      0x4e487b7100000000000000000000000000000000000000000000000000000000\n        /* \"#utility.yul\":3004:3005   */\n      0x00\n        /* \"#utility.yul\":2997:3085   */\n      mstore\n        /* \"#utility.yul\":3104:3108   */\n      0x41\n        /* \"#utility.yul\":3101:3102   */\n      0x04\n        /* \"#utility.yul\":3094:3109   */\n      mstore\n        /* \"#utility.yul\":3128:3132   */\n      0x24\n        /* \"#utility.yul\":3125:3126   */\n      0x00\n        /* \"#utility.yul\":3118:3133   */\n      revert\n        /* \"#utility.yul\":3145:3426   */\n    tag_39:\n        /* \"#utility.yul\":3228:3255   */\n      tag_78\n        /* \"#utility.yul\":3250:3254   */\n      dup3\n        /* \"#utility.yul\":3228:3255   */\n      tag_26\n      jump\t// in\n    tag_78:\n        /* \"#utility.yul\":3220:3226   */\n      dup2\n        /* \"#utility.yul\":3216:3256   */\n      add\n        /* \"#utility.yul\":3358:3364   */\n      dup2\n        /* \"#utility.yul\":3346:3356   */\n      dup2\n        /* \"#utility.yul\":3343:3365   */\n      lt\n        /* \"#utility.yul\":3322:3340   */\n      0xffffffffffffffff\n        /* \"#utility.yul\":3310:3320   */\n      dup3\n        /* \"#utility.yul\":3307:3341   */\n      gt\n        /* \"#utility.yul\":3304:3366   */\n      or\n        /* \"#utility.yul\":3301:3389   */\n      iszero\n      tag_79\n      jumpi\n        /* \"#utility.yul\":3369:3387   */\n      tag_80\n      tag_38\n      jump\t// in\n    tag_80:\n        /* \"#utility.yul\":3301:3389   */\n    tag_79:\n        /* \"#utility.yul\":3409:3419   */\n      dup1\n        /* \"#utility.yul\":3405:3407   */\n      0x40\n        /* \"#utility.yul\":3398:3420   */\n      mstore\n        /* \"#utility.yul\":3188:3426   */\n      pop\n        /* \"#utility.yul\":3145:3426   */\n      pop\n      pop\n      jump\t// out\n        /* \"#utility.yul\":3432:4143   */\n    tag_20:\n        /* \"#utility.yul\":3471:3474   */\n      0x00\n        /* \"#utility.yul\":3509:3513   */\n      0x44\n        /* \"#utility.yul\":3491:3507   */\n      returndatasize\n        /* \"#utility.yul\":3488:3514   */\n      lt\n        /* \"#utility.yul\":3517:3522   */\n      tag_81\n        /* \"#utility.yul\":3485:3524   */\n      jumpi\n        /* \"#utility.yul\":3546:3566   */\n      tag_83\n      tag_37\n      jump\t// in\n    tag_83:\n        /* \"#utility.yul\":3621:3622   */\n      0x04\n        /* \"#utility.yul\":3603:3619   */\n      returndatasize\n        /* \"#utility.yul\":3599:3623   */\n      sub\n        /* \"#utility.yul\":3596:3597   */\n      0x04\n        /* \"#utility.yul\":3590:3594   */\n      dup3\n        /* \"#utility.yul\":3575:3624   */\n      returndatacopy\n        /* \"#utility.yul\":3654:3658   */\n      dup1\n        /* \"#utility.yul\":3648:3659   */\n      mload\n        /* \"#utility.yul\":3753:3769   */\n      returndatasize\n        /* \"#utility.yul\":3746:3750   */\n      0x24\n        /* \"#utility.yul\":3738:3744   */\n      dup3\n        /* \"#utility.yul\":3734:3751   */\n      add\n        /* \"#utility.yul\":3731:3770   */\n      gt\n        /* \"#utility.yul\":3698:3716   */\n      0xffffffffffffffff\n        /* \"#utility.yul\":3690:3696   */\n      dup3\n        /* \"#utility.yul\":3687:3717   */\n      gt\n        /* \"#utility.yul\":3671:3784   */\n      or\n        /* \"#utility.yul\":3668:3814   */\n      iszero\n      tag_84\n      jumpi\n        /* \"#utility.yul\":3799:3804   */\n      pop\n      pop\n      jump(tag_81)\n        /* \"#utility.yul\":3668:3814   */\n    tag_84:\n        /* \"#utility.yul\":3845:3851   */\n      dup1\n        /* \"#utility.yul\":3839:3843   */\n      dup3\n        /* \"#utility.yul\":3835:3852   */\n      add\n        /* \"#utility.yul\":3881:3884   */\n      dup1\n        /* \"#utility.yul\":3875:3885   */\n      mload\n        /* \"#utility.yul\":3908:3926   */\n      0xffffffffffffffff\n        /* \"#utility.yul\":3900:3906   */\n      dup2\n        /* \"#utility.yul\":3897:3927   */\n      gt\n        /* \"#utility.yul\":3894:3937   */\n      iszero\n      tag_85\n      jumpi\n        /* \"#utility.yul\":3930:3935   */\n      pop\n      pop\n      pop\n      pop\n      jump(tag_81)\n        /* \"#utility.yul\":3894:3937   */\n    tag_85:\n        /* \"#utility.yul\":3978:3984   */\n      dup1\n        /* \"#utility.yul\":3971:3975   */\n      0x20\n        /* \"#utility.yul\":3966:3969   */\n      dup4\n        /* \"#utility.yul\":3962:3976   */\n      add\n        /* \"#utility.yul\":3958:3985   */\n      add\n        /* \"#utility.yul\":4037:4038   */\n      0x04\n        /* \"#utility.yul\":4019:4035   */\n      returndatasize\n        /* \"#utility.yul\":4015:4039   */\n      sub\n        /* \"#utility.yul\":4009:4013   */\n      dup6\n        /* \"#utility.yul\":4005:4040   */\n      add\n        /* \"#utility.yul\":4000:4003   */\n      dup2\n        /* \"#utility.yul\":3997:4041   */\n      gt\n        /* \"#utility.yul\":3994:4051   */\n      iszero\n      tag_86\n      jumpi\n        /* \"#utility.yul\":4044:4049   */\n      pop\n      pop\n      pop\n      pop\n      pop\n      jump(tag_81)\n        /* \"#utility.yul\":3994:4051   */\n    tag_86:\n        /* \"#utility.yul\":4061:4118   */\n      tag_87\n        /* \"#utility.yul\":4109:4115   */\n      dup3\n        /* \"#utility.yul\":4103:4107   */\n      0x20\n        /* \"#utility.yul\":4099:4116   */\n      add\n        /* \"#utility.yul\":4091:4097   */\n      dup6\n        /* \"#utility.yul\":4087:4117   */\n      add\n        /* \"#utility.yul\":4081:4085   */\n      dup7\n        /* \"#utility.yul\":4061:4118   */\n      tag_39\n      jump\t// in\n    tag_87:\n        /* \"#utility.yul\":4134:4137   */\n      dup3\n        /* \"#utility.yul\":4127:4137   */\n      swap6\n      pop\n        /* \"#utility.yul\":3475:4143   */\n      pop\n      pop\n      pop\n      pop\n      pop\n        /* \"#utility.yul\":3432:4143   */\n    tag_81:\n      swap1\n      jump\t// out\n\n    auxdata: 0xa26469706673582212202164305f6cf2fb5a1df350aaacfa80e74fc3e6d6d4371ee72ddec4542c0d45ac64736f6c634300081a0033\n}\n\nsub_1: assembly {\n        /* \"handleError.sol\":58:903  contract HandleError {... */\n      mstore(0x40, 0x80)\n        /* \"handleError.sol\":181:232  constructor() {... */\n      callvalue\n      dup1\n      iszero\n      tag_1\n      jumpi\n      0x00\n      dup1\n      revert\n    tag_1:\n      pop\n        /* \"handleError.sol\":214:224  msg.sender */\n      caller\n        /* \"handleError.sol\":206:211  owner */\n      0x00\n      dup1\n        /* \"handleError.sol\":206:224  owner = msg.sender */\n      0x0100\n      exp\n      dup2\n      sload\n      dup2\n      0xffffffffffffffffffffffffffffffffffffffff\n      mul\n      not\n      and\n      swap1\n      dup4\n      0xffffffffffffffffffffffffffffffffffffffff\n      and\n      mul\n      or\n      swap1\n      sstore\n      pop\n        /* \"handleError.sol\":58:903  contract HandleError {... */\n      dataSize(sub_0)\n      dup1\n      dataOffset(sub_0)\n      0x00\n      codecopy\n      0x00\n      return\n    stop\n\n    sub_0: assembly {\n            /* \"handleError.sol\":58:903  contract HandleError {... */\n          mstore(0x40, 0x80)\n          callvalue\n          dup1\n          iszero\n          tag_1\n          jumpi\n          0x00\n          dup1\n          revert\n        tag_1:\n          pop\n          jumpi(tag_2, lt(calldatasize, 0x04))\n          shr(0xe0, calldataload(0x00))\n          dup1\n          0x1a695230\n          eq\n          tag_3\n          jumpi\n          dup1\n          0x8da5cb5b\n          eq\n          tag_4\n          jumpi\n          dup1\n          0x9649d98b\n          eq\n          tag_5\n          jumpi\n          dup1\n          0xdc2e7b33\n          eq\n          tag_6\n          jumpi\n          dup1\n          0xf47fad75\n          eq\n          tag_7\n          jumpi\n        tag_2:\n          0x00\n          dup1\n          revert\n            /* \"handleError.sol\":244:438  function transfer(address newOwner) public {... */\n        tag_3:\n          tag_8\n          0x04\n          dup1\n          calldatasize\n          sub\n          dup2\n          add\n          swap1\n          tag_9\n          swap2\n          swap1\n          tag_10\n          jump\t// in\n        tag_9:\n          tag_11\n          jump\t// in\n        tag_8:\n          stop\n            /* \"handleError.sol\":88:108  address public owner */\n        tag_4:\n          tag_12\n          tag_13\n          jump\t// in\n        tag_12:\n          mload(0x40)\n          tag_14\n          swap2\n          swap1\n          tag_15\n          jump\t// in\n        tag_14:\n          mload(0x40)\n          dup1\n          swap2\n          sub\n          swap1\n          return\n            /* \"handleError.sol\":746:900  function restrict() public view {... */\n        tag_5:\n          tag_16\n          tag_17\n          jump\t// in\n        tag_16:\n          stop\n            /* \"handleError.sol\":446:613  function cal(uint a, uint b) public pure returns (uint){... */\n        tag_6:\n          tag_18\n          0x04\n          dup1\n          calldatasize\n          sub\n          dup2\n          add\n          swap1\n          tag_19\n          swap2\n          swap1\n          tag_20\n          jump\t// in\n        tag_19:\n          tag_21\n          jump\t// in\n        tag_18:\n          mload(0x40)\n          tag_22\n          swap2\n          swap1\n          tag_23\n          jump\t// in\n        tag_22:\n          mload(0x40)\n          dup1\n          swap2\n          sub\n          swap1\n          return\n            /* \"handleError.sol\":621:738  function rev(uint a, uint b) public pure {... */\n        tag_7:\n          tag_24\n          0x04\n          dup1\n          calldatasize\n          sub\n          dup2\n          add\n          swap1\n          tag_25\n          swap2\n          swap1\n          tag_20\n          jump\t// in\n        tag_25:\n          tag_26\n          jump\t// in\n        tag_24:\n          stop\n            /* \"handleError.sol\":244:438  function transfer(address newOwner) public {... */\n        tag_11:\n            /* \"handleError.sol\":371:376  owner */\n          0x00\n          dup1\n          sload\n          swap1\n          0x0100\n          exp\n          swap1\n          div\n          0xffffffffffffffffffffffffffffffffffffffff\n          and\n            /* \"handleError.sol\":357:376  msg.sender == owner */\n          0xffffffffffffffffffffffffffffffffffffffff\n          and\n            /* \"handleError.sol\":357:367  msg.sender */\n          caller\n            /* \"handleError.sol\":357:376  msg.sender == owner */\n          0xffffffffffffffffffffffffffffffffffffffff\n          and\n          eq\n            /* \"handleError.sol\":349:403  require(msg.sender == owner, \"only owner can operate\") */\n          tag_28\n          jumpi\n          mload(0x40)\n          0x08c379a000000000000000000000000000000000000000000000000000000000\n          dup2\n          mstore\n          0x04\n          add\n          tag_29\n          swap1\n          tag_30\n          jump\t// in\n        tag_29:\n          mload(0x40)\n          dup1\n          swap2\n          sub\n          swap1\n          revert\n        tag_28:\n            /* \"handleError.sol\":422:430  newOwner */\n          dup1\n            /* \"handleError.sol\":414:419  owner */\n          0x00\n          dup1\n            /* \"handleError.sol\":414:430  owner = newOwner */\n          0x0100\n          exp\n          dup2\n          sload\n          dup2\n          0xffffffffffffffffffffffffffffffffffffffff\n          mul\n          not\n          and\n          swap1\n          dup4\n          0xffffffffffffffffffffffffffffffffffffffff\n          and\n          mul\n          or\n          swap1\n          sstore\n          pop\n            /* \"handleError.sol\":244:438  function transfer(address newOwner) public {... */\n          pop\n          jump\t// out\n            /* \"handleError.sol\":88:108  address public owner */\n        tag_13:\n          0x00\n          dup1\n          sload\n          swap1\n          0x0100\n          exp\n          swap1\n          div\n          0xffffffffffffffffffffffffffffffffffffffff\n          and\n          dup2\n          jump\t// out\n            /* \"handleError.sol\":746:900  function restrict() public view {... */\n        tag_17:\n            /* \"handleError.sol\":806:811  owner */\n          0x00\n          dup1\n          sload\n          swap1\n          0x0100\n          exp\n          swap1\n          div\n          0xffffffffffffffffffffffffffffffffffffffff\n          and\n            /* \"handleError.sol\":792:811  msg.sender != owner */\n          0xffffffffffffffffffffffffffffffffffffffff\n          and\n            /* \"handleError.sol\":792:802  msg.sender */\n          caller\n            /* \"handleError.sol\":792:811  msg.sender != owner */\n          0xffffffffffffffffffffffffffffffffffffffff\n          and\n          eq\n            /* \"handleError.sol\":789:893  if(msg.sender != owner) {... */\n          tag_32\n          jumpi\n            /* \"handleError.sol\":850:860  msg.sender */\n          caller\n            /* \"handleError.sol\":835:861  customizeError(msg.sender) */\n          mload(0x40)\n          0x6264f00800000000000000000000000000000000000000000000000000000000\n          dup2\n          mstore\n          0x04\n          add\n          tag_33\n          swap2\n          swap1\n          tag_15\n          jump\t// in\n        tag_33:\n          mload(0x40)\n          dup1\n          swap2\n          sub\n          swap1\n          revert\n            /* \"handleError.sol\":789:893  if(msg.sender != owner) {... */\n        tag_32:\n            /* \"handleError.sol\":746:900  function restrict() public view {... */\n          jump\t// out\n            /* \"handleError.sol\":446:613  function cal(uint a, uint b) public pure returns (uint){... */\n        tag_21:\n            /* \"handleError.sol\":496:500  uint */\n          0x00\n            /* \"handleError.sol\":512:523  uint result */\n          dup1\n            /* \"handleError.sol\":530:531  b */\n          dup3\n            /* \"handleError.sol\":526:527  a */\n          dup5\n            /* \"handleError.sol\":526:531  a + b */\n          tag_35\n          swap2\n          swap1\n          tag_36\n          jump\t// in\n        tag_35:\n            /* \"handleError.sol\":512:531  uint result = a + b */\n          swap1\n          pop\n            /* \"handleError.sol\":559:560  a */\n          dup4\n            /* \"handleError.sol\":549:555  result */\n          dup2\n            /* \"handleError.sol\":549:560  result >= a */\n          lt\n          iszero\n            /* \"handleError.sol\":542:561  assert(result >= a) */\n          tag_37\n          jumpi\n          tag_38\n          tag_39\n          jump\t// in\n        tag_38:\n        tag_37:\n            /* \"handleError.sol\":599:605  result */\n          dup1\n            /* \"handleError.sol\":592:605  return result */\n          swap2\n          pop\n          pop\n            /* \"handleError.sol\":446:613  function cal(uint a, uint b) public pure returns (uint){... */\n          swap3\n          swap2\n          pop\n          pop\n          jump\t// out\n            /* \"handleError.sol\":621:738  function rev(uint a, uint b) public pure {... */\n        tag_26:\n            /* \"handleError.sol\":678:679  b */\n          dup1\n            /* \"handleError.sol\":676:677  a */\n          dup3\n            /* \"handleError.sol\":676:679  a>b */\n          gt\n            /* \"handleError.sol\":673:731  if(a>b){... */\n          iszero\n          tag_41\n          jumpi\n            /* \"handleError.sol\":695:719  revert(\"throw an error\") */\n          mload(0x40)\n          0x08c379a000000000000000000000000000000000000000000000000000000000\n          dup2\n          mstore\n          0x04\n          add\n          tag_42\n          swap1\n          tag_43\n          jump\t// in\n        tag_42:\n          mload(0x40)\n          dup1\n          swap2\n          sub\n          swap1\n          revert\n            /* \"handleError.sol\":673:731  if(a>b){... */\n        tag_41:\n            /* \"handleError.sol\":621:738  function rev(uint a, uint b) public pure {... */\n          pop\n          pop\n          jump\t// out\n            /* \"#utility.yul\":88:205   */\n        tag_45:\n            /* \"#utility.yul\":197:198   */\n          0x00\n            /* \"#utility.yul\":194:195   */\n          dup1\n            /* \"#utility.yul\":187:199   */\n          revert\n            /* \"#utility.yul\":334:460   */\n        tag_47:\n            /* \"#utility.yul\":371:378   */\n          0x00\n            /* \"#utility.yul\":411:453   */\n          0xffffffffffffffffffffffffffffffffffffffff\n            /* \"#utility.yul\":404:409   */\n          dup3\n            /* \"#utility.yul\":400:454   */\n          and\n            /* \"#utility.yul\":389:454   */\n          swap1\n          pop\n            /* \"#utility.yul\":334:460   */\n          swap2\n          swap1\n          pop\n          jump\t// out\n            /* \"#utility.yul\":466:562   */\n        tag_48:\n            /* \"#utility.yul\":503:510   */\n          0x00\n            /* \"#utility.yul\":532:556   */\n          tag_68\n            /* \"#utility.yul\":550:555   */\n          dup3\n            /* \"#utility.yul\":532:556   */\n          tag_47\n          jump\t// in\n        tag_68:\n            /* \"#utility.yul\":521:556   */\n          swap1\n          pop\n            /* \"#utility.yul\":466:562   */\n          swap2\n          swap1\n          pop\n          jump\t// out\n            /* \"#utility.yul\":568:690   */\n        tag_49:\n            /* \"#utility.yul\":641:665   */\n          tag_70\n            /* \"#utility.yul\":659:664   */\n          dup2\n            /* \"#utility.yul\":641:665   */\n          tag_48\n          jump\t// in\n        tag_70:\n            /* \"#utility.yul\":634:639   */\n          dup2\n            /* \"#utility.yul\":631:666   */\n          eq\n            /* \"#utility.yul\":621:684   */\n          tag_71\n          jumpi\n            /* \"#utility.yul\":680:681   */\n          0x00\n            /* \"#utility.yul\":677:678   */\n          dup1\n            /* \"#utility.yul\":670:682   */\n          revert\n            /* \"#utility.yul\":621:684   */\n        tag_71:\n            /* \"#utility.yul\":568:690   */\n          pop\n          jump\t// out\n            /* \"#utility.yul\":696:835   */\n        tag_50:\n            /* \"#utility.yul\":742:747   */\n          0x00\n            /* \"#utility.yul\":780:786   */\n          dup2\n            /* \"#utility.yul\":767:787   */\n          calldataload\n            /* \"#utility.yul\":758:787   */\n          swap1\n          pop\n            /* \"#utility.yul\":796:829   */\n          tag_73\n            /* \"#utility.yul\":823:828   */\n          dup2\n            /* \"#utility.yul\":796:829   */\n          tag_49\n          jump\t// in\n        tag_73:\n            /* \"#utility.yul\":696:835   */\n          swap3\n          swap2\n          pop\n          pop\n          jump\t// out\n            /* \"#utility.yul\":841:1170   */\n        tag_10:\n            /* \"#utility.yul\":900:906   */\n          0x00\n            /* \"#utility.yul\":949:951   */\n          0x20\n            /* \"#utility.yul\":937:946   */\n          dup3\n            /* \"#utility.yul\":928:935   */\n          dup5\n            /* \"#utility.yul\":924:947   */\n          sub\n            /* \"#utility.yul\":920:952   */\n          slt\n            /* \"#utility.yul\":917:1036   */\n          iszero\n          tag_75\n          jumpi\n            /* \"#utility.yul\":955:1034   */\n          tag_76\n          tag_45\n          jump\t// in\n        tag_76:\n            /* \"#utility.yul\":917:1036   */\n        tag_75:\n            /* \"#utility.yul\":1075:1076   */\n          0x00\n            /* \"#utility.yul\":1100:1153   */\n          tag_77\n            /* \"#utility.yul\":1145:1152   */\n          dup5\n            /* \"#utility.yul\":1136:1142   */\n          dup3\n            /* \"#utility.yul\":1125:1134   */\n          dup6\n            /* \"#utility.yul\":1121:1143   */\n          add\n            /* \"#utility.yul\":1100:1153   */\n          tag_50\n          jump\t// in\n        tag_77:\n            /* \"#utility.yul\":1090:1153   */\n          swap2\n          pop\n            /* \"#utility.yul\":1046:1163   */\n          pop\n            /* \"#utility.yul\":841:1170   */\n          swap3\n          swap2\n          pop\n          pop\n          jump\t// out\n            /* \"#utility.yul\":1176:1294   */\n        tag_51:\n            /* \"#utility.yul\":1263:1287   */\n          tag_79\n            /* \"#utility.yul\":1281:1286   */\n          dup2\n            /* \"#utility.yul\":1263:1287   */\n          tag_48\n          jump\t// in\n        tag_79:\n            /* \"#utility.yul\":1258:1261   */\n          dup3\n            /* \"#utility.yul\":1251:1288   */\n          mstore\n            /* \"#utility.yul\":1176:1294   */\n          pop\n          pop\n          jump\t// out\n            /* \"#utility.yul\":1300:1522   */\n        tag_15:\n            /* \"#utility.yul\":1393:1397   */\n          0x00\n            /* \"#utility.yul\":1431:1433   */\n          0x20\n            /* \"#utility.yul\":1420:1429   */\n          dup3\n            /* \"#utility.yul\":1416:1434   */\n          add\n            /* \"#utility.yul\":1408:1434   */\n          swap1\n          pop\n            /* \"#utility.yul\":1444:1515   */\n          tag_81\n            /* \"#utility.yul\":1512:1513   */\n          0x00\n            /* \"#utility.yul\":1501:1510   */\n          dup4\n            /* \"#utility.yul\":1497:1514   */\n          add\n            /* \"#utility.yul\":1488:1494   */\n          dup5\n            /* \"#utility.yul\":1444:1515   */\n          tag_51\n          jump\t// in\n        tag_81:\n            /* \"#utility.yul\":1300:1522   */\n          swap3\n          swap2\n          pop\n          pop\n          jump\t// out\n            /* \"#utility.yul\":1528:1605   */\n        tag_52:\n            /* \"#utility.yul\":1565:1572   */\n          0x00\n            /* \"#utility.yul\":1594:1599   */\n          dup2\n            /* \"#utility.yul\":1583:1599   */\n          swap1\n          pop\n            /* \"#utility.yul\":1528:1605   */\n          swap2\n          swap1\n          pop\n          jump\t// out\n            /* \"#utility.yul\":1611:1733   */\n        tag_53:\n            /* \"#utility.yul\":1684:1708   */\n          tag_84\n            /* \"#utility.yul\":1702:1707   */\n          dup2\n            /* \"#utility.yul\":1684:1708   */\n          tag_52\n          jump\t// in\n        tag_84:\n            /* \"#utility.yul\":1677:1682   */\n          dup2\n            /* \"#utility.yul\":1674:1709   */\n          eq\n            /* \"#utility.yul\":1664:1727   */\n          tag_85\n          jumpi\n            /* \"#utility.yul\":1723:1724   */\n          0x00\n            /* \"#utility.yul\":1720:1721   */\n          dup1\n            /* \"#utility.yul\":1713:1725   */\n          revert\n            /* \"#utility.yul\":1664:1727   */\n        tag_85:\n            /* \"#utility.yul\":1611:1733   */\n          pop\n          jump\t// out\n            /* \"#utility.yul\":1739:1878   */\n        tag_54:\n            /* \"#utility.yul\":1785:1790   */\n          0x00\n            /* \"#utility.yul\":1823:1829   */\n          dup2\n            /* \"#utility.yul\":1810:1830   */\n          calldataload\n            /* \"#utility.yul\":1801:1830   */\n          swap1\n          pop\n            /* \"#utility.yul\":1839:1872   */\n          tag_87\n            /* \"#utility.yul\":1866:1871   */\n          dup2\n            /* \"#utility.yul\":1839:1872   */\n          tag_53\n          jump\t// in\n        tag_87:\n            /* \"#utility.yul\":1739:1878   */\n          swap3\n          swap2\n          pop\n          pop\n          jump\t// out\n            /* \"#utility.yul\":1884:2358   */\n        tag_20:\n            /* \"#utility.yul\":1952:1958   */\n          0x00\n            /* \"#utility.yul\":1960:1966   */\n          dup1\n            /* \"#utility.yul\":2009:2011   */\n          0x40\n            /* \"#utility.yul\":1997:2006   */\n          dup4\n            /* \"#utility.yul\":1988:1995   */\n          dup6\n            /* \"#utility.yul\":1984:2007   */\n          sub\n            /* \"#utility.yul\":1980:2012   */\n          slt\n            /* \"#utility.yul\":1977:2096   */\n          iszero\n          tag_89\n          jumpi\n            /* \"#utility.yul\":2015:2094   */\n          tag_90\n          tag_45\n          jump\t// in\n        tag_90:\n            /* \"#utility.yul\":1977:2096   */\n        tag_89:\n            /* \"#utility.yul\":2135:2136   */\n          0x00\n            /* \"#utility.yul\":2160:2213   */\n          tag_91\n            /* \"#utility.yul\":2205:2212   */\n          dup6\n            /* \"#utility.yul\":2196:2202   */\n          dup3\n            /* \"#utility.yul\":2185:2194   */\n          dup7\n            /* \"#utility.yul\":2181:2203   */\n          add\n            /* \"#utility.yul\":2160:2213   */\n          tag_54\n          jump\t// in\n        tag_91:\n            /* \"#utility.yul\":2150:2213   */\n          swap3\n          pop\n            /* \"#utility.yul\":2106:2223   */\n          pop\n            /* \"#utility.yul\":2262:2264   */\n          0x20\n            /* \"#utility.yul\":2288:2341   */\n          tag_92\n            /* \"#utility.yul\":2333:2340   */\n          dup6\n            /* \"#utility.yul\":2324:2330   */\n          dup3\n            /* \"#utility.yul\":2313:2322   */\n          dup7\n            /* \"#utility.yul\":2309:2331   */\n          add\n            /* \"#utility.yul\":2288:2341   */\n          tag_54\n          jump\t// in\n        tag_92:\n            /* \"#utility.yul\":2278:2341   */\n          swap2\n          pop\n            /* \"#utility.yul\":2233:2351   */\n          pop\n            /* \"#utility.yul\":1884:2358   */\n          swap3\n          pop\n          swap3\n          swap1\n          pop\n          jump\t// out\n            /* \"#utility.yul\":2364:2482   */\n        tag_55:\n            /* \"#utility.yul\":2451:2475   */\n          tag_94\n            /* \"#utility.yul\":2469:2474   */\n          dup2\n            /* \"#utility.yul\":2451:2475   */\n          tag_52\n          jump\t// in\n        tag_94:\n            /* \"#utility.yul\":2446:2449   */\n          dup3\n            /* \"#utility.yul\":2439:2476   */\n          mstore\n            /* \"#utility.yul\":2364:2482   */\n          pop\n          pop\n          jump\t// out\n            /* \"#utility.yul\":2488:2710   */\n        tag_23:\n            /* \"#utility.yul\":2581:2585   */\n          0x00\n            /* \"#utility.yul\":2619:2621   */\n          0x20\n            /* \"#utility.yul\":2608:2617   */\n          dup3\n            /* \"#utility.yul\":2604:2622   */\n          add\n            /* \"#utility.yul\":2596:2622   */\n          swap1\n          pop\n            /* \"#utility.yul\":2632:2703   */\n          tag_96\n            /* \"#utility.yul\":2700:2701   */\n          0x00\n            /* \"#utility.yul\":2689:2698   */\n          dup4\n            /* \"#utility.yul\":2685:2702   */\n          add\n            /* \"#utility.yul\":2676:2682   */\n          dup5\n            /* \"#utility.yul\":2632:2703   */\n          tag_55\n          jump\t// in\n        tag_96:\n            /* \"#utility.yul\":2488:2710   */\n          swap3\n          swap2\n          pop\n          pop\n          jump\t// out\n            /* \"#utility.yul\":2716:2885   */\n        tag_56:\n            /* \"#utility.yul\":2800:2811   */\n          0x00\n            /* \"#utility.yul\":2834:2840   */\n          dup3\n            /* \"#utility.yul\":2829:2832   */\n          dup3\n            /* \"#utility.yul\":2822:2841   */\n          mstore\n            /* \"#utility.yul\":2874:2878   */\n          0x20\n            /* \"#utility.yul\":2869:2872   */\n          dup3\n            /* \"#utility.yul\":2865:2879   */\n          add\n            /* \"#utility.yul\":2850:2879   */\n          swap1\n          pop\n            /* \"#utility.yul\":2716:2885   */\n          swap3\n          swap2\n          pop\n          pop\n          jump\t// out\n            /* \"#utility.yul\":2891:3063   */\n        tag_57:\n            /* \"#utility.yul\":3031:3055   */\n          0x6f6e6c79206f776e65722063616e206f70657261746500000000000000000000\n            /* \"#utility.yul\":3027:3028   */\n          0x00\n            /* \"#utility.yul\":3019:3025   */\n          dup3\n            /* \"#utility.yul\":3015:3029   */\n          add\n            /* \"#utility.yul\":3008:3056   */\n          mstore\n            /* \"#utility.yul\":2891:3063   */\n          pop\n          jump\t// out\n            /* \"#utility.yul\":3069:3435   */\n        tag_58:\n            /* \"#utility.yul\":3211:3214   */\n          0x00\n            /* \"#utility.yul\":3232:3299   */\n          tag_100\n            /* \"#utility.yul\":3296:3298   */\n          0x16\n            /* \"#utility.yul\":3291:3294   */\n          dup4\n            /* \"#utility.yul\":3232:3299   */\n          tag_56\n          jump\t// in\n        tag_100:\n            /* \"#utility.yul\":3225:3299   */\n          swap2\n          pop\n            /* \"#utility.yul\":3308:3401   */\n          tag_101\n            /* \"#utility.yul\":3397:3400   */\n          dup3\n            /* \"#utility.yul\":3308:3401   */\n          tag_57\n          jump\t// in\n        tag_101:\n            /* \"#utility.yul\":3426:3428   */\n          0x20\n            /* \"#utility.yul\":3421:3424   */\n          dup3\n            /* \"#utility.yul\":3417:3429   */\n          add\n            /* \"#utility.yul\":3410:3429   */\n          swap1\n          pop\n            /* \"#utility.yul\":3069:3435   */\n          swap2\n          swap1\n          pop\n          jump\t// out\n            /* \"#utility.yul\":3441:3860   */\n        tag_30:\n            /* \"#utility.yul\":3607:3611   */\n          0x00\n            /* \"#utility.yul\":3645:3647   */\n          0x20\n            /* \"#utility.yul\":3634:3643   */\n          dup3\n            /* \"#utility.yul\":3630:3648   */\n          add\n            /* \"#utility.yul\":3622:3648   */\n          swap1\n          pop\n            /* \"#utility.yul\":3694:3703   */\n          dup2\n            /* \"#utility.yul\":3688:3692   */\n          dup2\n            /* \"#utility.yul\":3684:3704   */\n          sub\n            /* \"#utility.yul\":3680:3681   */\n          0x00\n            /* \"#utility.yul\":3669:3678   */\n          dup4\n            /* \"#utility.yul\":3665:3682   */\n          add\n            /* \"#utility.yul\":3658:3705   */\n          mstore\n            /* \"#utility.yul\":3722:3853   */\n          tag_103\n            /* \"#utility.yul\":3848:3852   */\n          dup2\n            /* \"#utility.yul\":3722:3853   */\n          tag_58\n          jump\t// in\n        tag_103:\n            /* \"#utility.yul\":3714:3853   */\n          swap1\n          pop\n            /* \"#utility.yul\":3441:3860   */\n          swap2\n          swap1\n          pop\n          jump\t// out\n            /* \"#utility.yul\":3866:4046   */\n        tag_59:\n            /* \"#utility.yul\":3914:3991   */\n          0x4e487b7100000000000000000000000000000000000000000000000000000000\n            /* \"#utility.yul\":3911:3912   */\n          0x00\n            /* \"#utility.yul\":3904:3992   */\n          mstore\n            /* \"#utility.yul\":4011:4015   */\n          0x11\n            /* \"#utility.yul\":4008:4009   */\n          0x04\n            /* \"#utility.yul\":4001:4016   */\n          mstore\n            /* \"#utility.yul\":4035:4039   */\n          0x24\n            /* \"#utility.yul\":4032:4033   */\n          0x00\n            /* \"#utility.yul\":4025:4040   */\n          revert\n            /* \"#utility.yul\":4052:4243   */\n        tag_36:\n            /* \"#utility.yul\":4092:4095   */\n          0x00\n            /* \"#utility.yul\":4111:4131   */\n          tag_106\n            /* \"#utility.yul\":4129:4130   */\n          dup3\n            /* \"#utility.yul\":4111:4131   */\n          tag_52\n          jump\t// in\n        tag_106:\n            /* \"#utility.yul\":4106:4131   */\n          swap2\n          pop\n            /* \"#utility.yul\":4145:4165   */\n          tag_107\n            /* \"#utility.yul\":4163:4164   */\n          dup4\n            /* \"#utility.yul\":4145:4165   */\n          tag_52\n          jump\t// in\n        tag_107:\n            /* \"#utility.yul\":4140:4165   */\n          swap3\n          pop\n            /* \"#utility.yul\":4188:4189   */\n          dup3\n            /* \"#utility.yul\":4185:4186   */\n          dup3\n            /* \"#utility.yul\":4181:4190   */\n          add\n            /* \"#utility.yul\":4174:4190   */\n          swap1\n          pop\n            /* \"#utility.yul\":4209:4212   */\n          dup1\n            /* \"#utility.yul\":4206:4207   */\n          dup3\n            /* \"#utility.yul\":4203:4213   */\n          gt\n            /* \"#utility.yul\":4200:4236   */\n          iszero\n          tag_108\n          jumpi\n            /* \"#utility.yul\":4216:4234   */\n          tag_109\n          tag_59\n          jump\t// in\n        tag_109:\n            /* \"#utility.yul\":4200:4236   */\n        tag_108:\n            /* \"#utility.yul\":4052:4243   */\n          swap3\n          swap2\n          pop\n          pop\n          jump\t// out\n            /* \"#utility.yul\":4249:4429   */\n        tag_39:\n            /* \"#utility.yul\":4297:4374   */\n          0x4e487b7100000000000000000000000000000000000000000000000000000000\n            /* \"#utility.yul\":4294:4295   */\n          0x00\n            /* \"#utility.yul\":4287:4375   */\n          mstore\n            /* \"#utility.yul\":4394:4398   */\n          0x01\n            /* \"#utility.yul\":4391:4392   */\n          0x04\n            /* \"#utility.yul\":4384:4399   */\n          mstore\n            /* \"#utility.yul\":4418:4422   */\n          0x24\n            /* \"#utility.yul\":4415:4416   */\n          0x00\n            /* \"#utility.yul\":4408:4423   */\n          revert\n            /* \"#utility.yul\":4435:4599   */\n        tag_60:\n            /* \"#utility.yul\":4575:4591   */\n          0x7468726f7720616e206572726f72000000000000000000000000000000000000\n            /* \"#utility.yul\":4571:4572   */\n          0x00\n            /* \"#utility.yul\":4563:4569   */\n          dup3\n            /* \"#utility.yul\":4559:4573   */\n          add\n            /* \"#utility.yul\":4552:4592   */\n          mstore\n            /* \"#utility.yul\":4435:4599   */\n          pop\n          jump\t// out\n            /* \"#utility.yul\":4605:4971   */\n        tag_61:\n            /* \"#utility.yul\":4747:4750   */\n          0x00\n            /* \"#utility.yul\":4768:4835   */\n          tag_113\n            /* \"#utility.yul\":4832:4834   */\n          0x0e\n            /* \"#utility.yul\":4827:4830   */\n          dup4\n            /* \"#utility.yul\":4768:4835   */\n          tag_56\n          jump\t// in\n        tag_113:\n            /* \"#utility.yul\":4761:4835   */\n          swap2\n          pop\n            /* \"#utility.yul\":4844:4937   */\n          tag_114\n            /* \"#utility.yul\":4933:4936   */\n          dup3\n            /* \"#utility.yul\":4844:4937   */\n          tag_60\n          jump\t// in\n        tag_114:\n            /* \"#utility.yul\":4962:4964   */\n          0x20\n            /* \"#utility.yul\":4957:4960   */\n          dup3\n            /* \"#utility.yul\":4953:4965   */\n          add\n            /* \"#utility.yul\":4946:4965   */\n          swap1\n          pop\n            /* \"#utility.yul\":4605:4971   */\n          swap2\n          swap1\n          pop\n          jump\t// out\n            /* \"#utility.yul\":4977:5396   */\n        tag_43:\n            /* \"#utility.yul\":5143:5147   */\n          0x00\n            /* \"#utility.yul\":5181:5183   */\n          0x20\n            /* \"#utility.yul\":5170:5179   */\n          dup3\n            /* \"#utility.yul\":5166:5184   */\n          add\n            /* \"#utility.yul\":5158:5184   */\n          swap1\n          pop\n            /* \"#utility.yul\":5230:5239   */\n          dup2\n            /* \"#utility.yul\":5224:5228   */\n          dup2\n            /* \"#utility.yul\":5220:5240   */\n          sub\n            /* \"#utility.yul\":5216:5217   */\n          0x00\n            /* \"#utility.yul\":5205:5214   */\n          dup4\n            /* \"#utility.yul\":5201:5218   */\n          add\n            /* \"#utility.yul\":5194:5241   */\n          mstore\n            /* \"#utility.yul\":5258:5389   */\n          tag_116\n            /* \"#utility.yul\":5384:5388   */\n          dup2\n            /* \"#utility.yul\":5258:5389   */\n          tag_61\n          jump\t// in\n        tag_116:\n            /* \"#utility.yul\":5250:5389   */\n          swap1\n          pop\n            /* \"#utility.yul\":4977:5396   */\n          swap2\n          swap1\n          pop\n          jump\t// out\n\n        auxdata: 0xa26469706673582212209964e7772ce0b827044e9b48a976c71f043091b0e845e0c2e98acaa81c28efdf64736f6c634300081a0033\n    }\n}\n",
				"bytecode": {
					"linkReferences": {},
					"object": "6080604052348015600e575f80fd5b506040516019906074565b604051809103905ff0801580156031573d5f803e3d5ffd5b505f806101000a81548173ffffffffffffffffffffffffffffffffffffffff021916908373ffffffffffffffffffffffffffffffffffffffff1602179055506081565b6106268061046a83390190565b6103dc8061008e5f395ff3fe608060405234801561000f575f80fd5b5060043610610029575f3560e01c8063f8a8fd6d1461002d575b5f80fd5b61003561004b565b60405161004291906101ba565b60405180910390f35b60605f8054906101000a900473ffffffffffffffffffffffffffffffffffffffff1673ffffffffffffffffffffffffffffffffffffffff1663f47fad75600260016040518363ffffffff1660e01b81526004016100a992919061025e565b5f6040518083038186803b1580156100bf575f80fd5b505afa9250505080156100d0575060015b61010e576100dc610291565b806308c379a00361010457506100f0610317565b806100fb5750610106565b80915050610147565b505b3d5f803e3d5ffd5b6040518060400160405280600b81526020017f6e6f74206578656375746500000000000000000000000000000000000000000081525090505b90565b5f81519050919050565b5f82825260208201905092915050565b8281835e5f83830152505050565b5f601f19601f8301169050919050565b5f61018c8261014a565b6101968185610154565b93506101a6818560208601610164565b6101af81610172565b840191505092915050565b5f6020820190508181035f8301526101d28184610182565b905092915050565b5f819050919050565b5f819050919050565b5f819050919050565b5f61020f61020a610205846101da565b6101ec565b6101e3565b9050919050565b61021f816101f5565b82525050565b5f819050919050565b5f61024861024361023e84610225565b6101ec565b6101e3565b9050919050565b6102588161022e565b82525050565b5f6040820190506102715f830185610216565b61027e602083018461024f565b9392505050565b5f8160e01c9050919050565b5f60033d11156102ad5760045f803e6102aa5f51610285565b90505b90565b5f604051905090565b7f4e487b71000000000000000000000000000000000000000000000000000000005f52604160045260245ffd5b6102ef82610172565b810181811067ffffffffffffffff8211171561030e5761030d6102b9565b5b80604052505050565b5f60443d106103a3576103286102b0565b60043d036004823e80513d602482011167ffffffffffffffff821117156103505750506103a3565b808201805167ffffffffffffffff81111561036e57505050506103a3565b80602083010160043d03850181111561038b5750505050506103a3565b61039a826020018501866102e6565b82955050505050505b9056fea26469706673582212202164305f6cf2fb5a1df350aaacfa80e74fc3e6d6d4371ee72ddec4542c0d45ac64736f6c634300081a00336080604052348015600e575f80fd5b50335f806101000a81548173ffffffffffffffffffffffffffffffffffffffff021916908373ffffffffffffffffffffffffffffffffffffffff1602179055506105cb8061005b5f395ff3fe608060405234801561000f575f80fd5b5060043610610055575f3560e01c80631a695230146100595780638da5cb5b146100755780639649d98b14610093578063dc2e7b331461009d578063f47fad75146100cd575b5f80fd5b610073600480360381019061006e919061033c565b6100e9565b005b61007d6101b8565b60405161008a9190610376565b60405180910390f35b61009b6101db565b005b6100b760048036038101906100b291906103c2565b61026c565b6040516100c4919061040f565b60405180910390f35b6100e760048036038101906100e291906103c2565b610297565b005b5f8054906101000a900473ffffffffffffffffffffffffffffffffffffffff1673ffffffffffffffffffffffffffffffffffffffff163373ffffffffffffffffffffffffffffffffffffffff1614610176576040517f08c379a000000000000000000000000000000000000000000000000000000000815260040161016d90610482565b60405180910390fd5b805f806101000a81548173ffffffffffffffffffffffffffffffffffffffff021916908373ffffffffffffffffffffffffffffffffffffffff16021790555050565b5f8054906101000a900473ffffffffffffffffffffffffffffffffffffffff1681565b5f8054906101000a900473ffffffffffffffffffffffffffffffffffffffff1673ffffffffffffffffffffffffffffffffffffffff163373ffffffffffffffffffffffffffffffffffffffff161461026a57336040517f6264f0080000000000000000000000000000000000000000000000000000000081526004016102619190610376565b60405180910390fd5b565b5f80828461027a91906104cd565b90508381101561028d5761028c610500565b5b8091505092915050565b808211156102da576040517f08c379a00000000000000000000000000000000000000000000000000000000081526004016102d190610577565b60405180910390fd5b5050565b5f80fd5b5f73ffffffffffffffffffffffffffffffffffffffff82169050919050565b5f61030b826102e2565b9050919050565b61031b81610301565b8114610325575f80fd5b50565b5f8135905061033681610312565b92915050565b5f60208284031215610351576103506102de565b5b5f61035e84828501610328565b91505092915050565b61037081610301565b82525050565b5f6020820190506103895f830184610367565b92915050565b5f819050919050565b6103a18161038f565b81146103ab575f80fd5b50565b5f813590506103bc81610398565b92915050565b5f80604083850312156103d8576103d76102de565b5b5f6103e5858286016103ae565b92505060206103f6858286016103ae565b9150509250929050565b6104098161038f565b82525050565b5f6020820190506104225f830184610400565b92915050565b5f82825260208201905092915050565b7f6f6e6c79206f776e65722063616e206f706572617465000000000000000000005f82015250565b5f61046c601683610428565b915061047782610438565b602082019050919050565b5f6020820190508181035f83015261049981610460565b9050919050565b7f4e487b71000000000000000000000000000000000000000000000000000000005f52601160045260245ffd5b5f6104d78261038f565b91506104e28361038f565b92508282019050808211156104fa576104f96104a0565b5b92915050565b7f4e487b71000000000000000000000000000000000000000000000000000000005f52600160045260245ffd5b7f7468726f7720616e206572726f720000000000000000000000000000000000005f82015250565b5f610561600e83610428565b915061056c8261052d565b602082019050919050565b5f6020820190508181035f83015261058e81610555565b905091905056fea26469706673582212209964e7772ce0b827044e9b48a976c71f043091b0e845e0c2e98acaa81c28efdf64736f6c634300081a0033",
					"opcodes": "PUSH1 0x80 PUSH1 0x40 MSTORE CALLVALUE DUP1 ISZERO PUSH1 0xE JUMPI PUSH0 DUP1 REVERT JUMPDEST POP PUSH1 0x40 MLOAD PUSH1 0x19 SWAP1 PUSH1 0x74 JUMP JUMPDEST PUSH1 0x40 MLOAD DUP1 SWAP2 SUB SWAP1 PUSH0 CREATE DUP1 ISZERO DUP1 ISZERO PUSH1 0x31 JUMPI RETURNDATASIZE PUSH0 DUP1 RETURNDATACOPY RETURNDATASIZE PUSH0 REVERT JUMPDEST POP PUSH0 DUP1 PUSH2 0x100 EXP DUP2 SLOAD DUP2 PUSH20 0xFFFFFFFFFFFFFFFFFFFFFFFFFFFFFFFFFFFFFFFF MUL NOT AND SWAP1 DUP4 PUSH20 0xFFFFFFFFFFFFFFFFFFFFFFFFFFFFFFFFFFFFFFFF AND MUL OR SWAP1 SSTORE POP PUSH1 0x81 JUMP JUMPDEST PUSH2 0x626 DUP1 PUSH2 0x46A DUP4 CODECOPY ADD SWAP1 JUMP JUMPDEST PUSH2 0x3DC DUP1 PUSH2 0x8E PUSH0 CODECOPY PUSH0 RETURN INVALID PUSH1 0x80 PUSH1 0x40 MSTORE CALLVALUE DUP1 ISZERO PUSH2 0xF JUMPI PUSH0 DUP1 REVERT JUMPDEST POP PUSH1 0x4 CALLDATASIZE LT PUSH2 0x29 JUMPI PUSH0 CALLDATALOAD PUSH1 0xE0 SHR DUP1 PUSH4 0xF8A8FD6D EQ PUSH2 0x2D JUMPI JUMPDEST PUSH0 DUP1 REVERT JUMPDEST PUSH2 0x35 PUSH2 0x4B JUMP JUMPDEST PUSH1 0x40 MLOAD PUSH2 0x42 SWAP2 SWAP1 PUSH2 0x1BA JUMP JUMPDEST PUSH1 0x40 MLOAD DUP1 SWAP2 SUB SWAP1 RETURN JUMPDEST PUSH1 0x60 PUSH0 DUP1 SLOAD SWAP1 PUSH2 0x100 EXP SWAP1 DIV PUSH20 0xFFFFFFFFFFFFFFFFFFFFFFFFFFFFFFFFFFFFFFFF AND PUSH20 0xFFFFFFFFFFFFFFFFFFFFFFFFFFFFFFFFFFFFFFFF AND PUSH4 0xF47FAD75 PUSH1 0x2 PUSH1 0x1 PUSH1 0x40 MLOAD DUP4 PUSH4 0xFFFFFFFF AND PUSH1 0xE0 SHL DUP2 MSTORE PUSH1 0x4 ADD PUSH2 0xA9 SWAP3 SWAP2 SWAP1 PUSH2 0x25E JUMP JUMPDEST PUSH0 PUSH1 0x40 MLOAD DUP1 DUP4 SUB DUP2 DUP7 DUP1 EXTCODESIZE ISZERO DUP1 ISZERO PUSH2 0xBF JUMPI PUSH0 DUP1 REVERT JUMPDEST POP GAS STATICCALL SWAP3 POP POP POP DUP1 ISZERO PUSH2 0xD0 JUMPI POP PUSH1 0x1 JUMPDEST PUSH2 0x10E JUMPI PUSH2 0xDC PUSH2 0x291 JUMP JUMPDEST DUP1 PUSH4 0x8C379A0 SUB PUSH2 0x104 JUMPI POP PUSH2 0xF0 PUSH2 0x317 JUMP JUMPDEST DUP1 PUSH2 0xFB JUMPI POP PUSH2 0x106 JUMP JUMPDEST DUP1 SWAP2 POP POP PUSH2 0x147 JUMP JUMPDEST POP JUMPDEST RETURNDATASIZE PUSH0 DUP1 RETURNDATACOPY RETURNDATASIZE PUSH0 REVERT JUMPDEST PUSH1 0x40 MLOAD DUP1 PUSH1 0x40 ADD PUSH1 0x40 MSTORE DUP1 PUSH1 0xB DUP2 MSTORE PUSH1 0x20 ADD PUSH32 0x6E6F742065786563757465000000000000000000000000000000000000000000 DUP2 MSTORE POP SWAP1 POP JUMPDEST SWAP1 JUMP JUMPDEST PUSH0 DUP2 MLOAD SWAP1 POP SWAP2 SWAP1 POP JUMP JUMPDEST PUSH0 DUP3 DUP3 MSTORE PUSH1 0x20 DUP3 ADD SWAP1 POP SWAP3 SWAP2 POP POP JUMP JUMPDEST DUP3 DUP2 DUP4 MCOPY PUSH0 DUP4 DUP4 ADD MSTORE POP POP POP JUMP JUMPDEST PUSH0 PUSH1 0x1F NOT PUSH1 0x1F DUP4 ADD AND SWAP1 POP SWAP2 SWAP1 POP JUMP JUMPDEST PUSH0 PUSH2 0x18C DUP3 PUSH2 0x14A JUMP JUMPDEST PUSH2 0x196 DUP2 DUP6 PUSH2 0x154 JUMP JUMPDEST SWAP4 POP PUSH2 0x1A6 DUP2 DUP6 PUSH1 0x20 DUP7 ADD PUSH2 0x164 JUMP JUMPDEST PUSH2 0x1AF DUP2 PUSH2 0x172 JUMP JUMPDEST DUP5 ADD SWAP2 POP POP SWAP3 SWAP2 POP POP JUMP JUMPDEST PUSH0 PUSH1 0x20 DUP3 ADD SWAP1 POP DUP2 DUP2 SUB PUSH0 DUP4 ADD MSTORE PUSH2 0x1D2 DUP2 DUP5 PUSH2 0x182 JUMP JUMPDEST SWAP1 POP SWAP3 SWAP2 POP POP JUMP JUMPDEST PUSH0 DUP2 SWAP1 POP SWAP2 SWAP1 POP JUMP JUMPDEST PUSH0 DUP2 SWAP1 POP SWAP2 SWAP1 POP JUMP JUMPDEST PUSH0 DUP2 SWAP1 POP SWAP2 SWAP1 POP JUMP JUMPDEST PUSH0 PUSH2 0x20F PUSH2 0x20A PUSH2 0x205 DUP5 PUSH2 0x1DA JUMP JUMPDEST PUSH2 0x1EC JUMP JUMPDEST PUSH2 0x1E3 JUMP JUMPDEST SWAP1 POP SWAP2 SWAP1 POP JUMP JUMPDEST PUSH2 0x21F DUP2 PUSH2 0x1F5 JUMP JUMPDEST DUP3 MSTORE POP POP JUMP JUMPDEST PUSH0 DUP2 SWAP1 POP SWAP2 SWAP1 POP JUMP JUMPDEST PUSH0 PUSH2 0x248 PUSH2 0x243 PUSH2 0x23E DUP5 PUSH2 0x225 JUMP JUMPDEST PUSH2 0x1EC JUMP JUMPDEST PUSH2 0x1E3 JUMP JUMPDEST SWAP1 POP SWAP2 SWAP1 POP JUMP JUMPDEST PUSH2 0x258 DUP2 PUSH2 0x22E JUMP JUMPDEST DUP3 MSTORE POP POP JUMP JUMPDEST PUSH0 PUSH1 0x40 DUP3 ADD SWAP1 POP PUSH2 0x271 PUSH0 DUP4 ADD DUP6 PUSH2 0x216 JUMP JUMPDEST PUSH2 0x27E PUSH1 0x20 DUP4 ADD DUP5 PUSH2 0x24F JUMP JUMPDEST SWAP4 SWAP3 POP POP POP JUMP JUMPDEST PUSH0 DUP2 PUSH1 0xE0 SHR SWAP1 POP SWAP2 SWAP1 POP JUMP JUMPDEST PUSH0 PUSH1 0x3 RETURNDATASIZE GT ISZERO PUSH2 0x2AD JUMPI PUSH1 0x4 PUSH0 DUP1 RETURNDATACOPY PUSH2 0x2AA PUSH0 MLOAD PUSH2 0x285 JUMP JUMPDEST SWAP1 POP JUMPDEST SWAP1 JUMP JUMPDEST PUSH0 PUSH1 0x40 MLOAD SWAP1 POP SWAP1 JUMP JUMPDEST PUSH32 0x4E487B7100000000000000000000000000000000000000000000000000000000 PUSH0 MSTORE PUSH1 0x41 PUSH1 0x4 MSTORE PUSH1 0x24 PUSH0 REVERT JUMPDEST PUSH2 0x2EF DUP3 PUSH2 0x172 JUMP JUMPDEST DUP2 ADD DUP2 DUP2 LT PUSH8 0xFFFFFFFFFFFFFFFF DUP3 GT OR ISZERO PUSH2 0x30E JUMPI PUSH2 0x30D PUSH2 0x2B9 JUMP JUMPDEST JUMPDEST DUP1 PUSH1 0x40 MSTORE POP POP POP JUMP JUMPDEST PUSH0 PUSH1 0x44 RETURNDATASIZE LT PUSH2 0x3A3 JUMPI PUSH2 0x328 PUSH2 0x2B0 JUMP JUMPDEST PUSH1 0x4 RETURNDATASIZE SUB PUSH1 0x4 DUP3 RETURNDATACOPY DUP1 MLOAD RETURNDATASIZE PUSH1 0x24 DUP3 ADD GT PUSH8 0xFFFFFFFFFFFFFFFF DUP3 GT OR ISZERO PUSH2 0x350 JUMPI POP POP PUSH2 0x3A3 JUMP JUMPDEST DUP1 DUP3 ADD DUP1 MLOAD PUSH8 0xFFFFFFFFFFFFFFFF DUP2 GT ISZERO PUSH2 0x36E JUMPI POP POP POP POP PUSH2 0x3A3 JUMP JUMPDEST DUP1 PUSH1 0x20 DUP4 ADD ADD PUSH1 0x4 RETURNDATASIZE SUB DUP6 ADD DUP2 GT ISZERO PUSH2 0x38B JUMPI POP POP POP POP POP PUSH2 0x3A3 JUMP JUMPDEST PUSH2 0x39A DUP3 PUSH1 0x20 ADD DUP6 ADD DUP7 PUSH2 0x2E6 JUMP JUMPDEST DUP3 SWAP6 POP POP POP POP POP POP JUMPDEST SWAP1 JUMP INVALID LOG2 PUSH5 0x6970667358 0x22 SLT KECCAK256 0x21 PUSH5 0x305F6CF2FB GAS SAR RETURN POP 0xAA 0xAC STATICCALL DUP1 0xE7 0x4F 0xC3 0xE6 0xD6 0xD4 CALLDATACOPY 0x1E 0xE7 0x2D 0xDE 0xC4 SLOAD 0x2C 0xD GASLIMIT 0xAC PUSH5 0x736F6C6343 STOP ADDMOD BYTE STOP CALLER PUSH1 0x80 PUSH1 0x40 MSTORE CALLVALUE DUP1 ISZERO PUSH1 0xE JUMPI PUSH0 DUP1 REVERT JUMPDEST POP CALLER PUSH0 DUP1 PUSH2 0x100 EXP DUP2 SLOAD DUP2 PUSH20 0xFFFFFFFFFFFFFFFFFFFFFFFFFFFFFFFFFFFFFFFF MUL NOT AND SWAP1 DUP4 PUSH20 0xFFFFFFFFFFFFFFFFFFFFFFFFFFFFFFFFFFFFFFFF AND MUL OR SWAP1 SSTORE POP PUSH2 0x5CB DUP1 PUSH2 0x5B PUSH0 CODECOPY PUSH0 RETURN INVALID PUSH1 0x80 PUSH1 0x40 MSTORE CALLVALUE DUP1 ISZERO PUSH2 0xF JUMPI PUSH0 DUP1 REVERT JUMPDEST POP PUSH1 0x4 CALLDATASIZE LT PUSH2 0x55 JUMPI PUSH0 CALLDATALOAD PUSH1 0xE0 SHR DUP1 PUSH4 0x1A695230 EQ PUSH2 0x59 JUMPI DUP1 PUSH4 0x8DA5CB5B EQ PUSH2 0x75 JUMPI DUP1 PUSH4 0x9649D98B EQ PUSH2 0x93 JUMPI DUP1 PUSH4 0xDC2E7B33 EQ PUSH2 0x9D JUMPI DUP1 PUSH4 0xF47FAD75 EQ PUSH2 0xCD JUMPI JUMPDEST PUSH0 DUP1 REVERT JUMPDEST PUSH2 0x73 PUSH1 0x4 DUP1 CALLDATASIZE SUB DUP2 ADD SWAP1 PUSH2 0x6E SWAP2 SWAP1 PUSH2 0x33C JUMP JUMPDEST PUSH2 0xE9 JUMP JUMPDEST STOP JUMPDEST PUSH2 0x7D PUSH2 0x1B8 JUMP JUMPDEST PUSH1 0x40 MLOAD PUSH2 0x8A SWAP2 SWAP1 PUSH2 0x376 JUMP JUMPDEST PUSH1 0x40 MLOAD DUP1 SWAP2 SUB SWAP1 RETURN JUMPDEST PUSH2 0x9B PUSH2 0x1DB JUMP JUMPDEST STOP JUMPDEST PUSH2 0xB7 PUSH1 0x4 DUP1 CALLDATASIZE SUB DUP2 ADD SWAP1 PUSH2 0xB2 SWAP2 SWAP1 PUSH2 0x3C2 JUMP JUMPDEST PUSH2 0x26C JUMP JUMPDEST PUSH1 0x40 MLOAD PUSH2 0xC4 SWAP2 SWAP1 PUSH2 0x40F JUMP JUMPDEST PUSH1 0x40 MLOAD DUP1 SWAP2 SUB SWAP1 RETURN JUMPDEST PUSH2 0xE7 PUSH1 0x4 DUP1 CALLDATASIZE SUB DUP2 ADD SWAP1 PUSH2 0xE2 SWAP2 SWAP1 PUSH2 0x3C2 JUMP JUMPDEST PUSH2 0x297 JUMP JUMPDEST STOP JUMPDEST PUSH0 DUP1 SLOAD SWAP1 PUSH2 0x100 EXP SWAP1 DIV PUSH20 0xFFFFFFFFFFFFFFFFFFFFFFFFFFFFFFFFFFFFFFFF AND PUSH20 0xFFFFFFFFFFFFFFFFFFFFFFFFFFFFFFFFFFFFFFFF AND CALLER PUSH20 0xFFFFFFFFFFFFFFFFFFFFFFFFFFFFFFFFFFFFFFFF AND EQ PUSH2 0x176 JUMPI PUSH1 0x40 MLOAD PUSH32 0x8C379A000000000000000000000000000000000000000000000000000000000 DUP2 MSTORE PUSH1 0x4 ADD PUSH2 0x16D SWAP1 PUSH2 0x482 JUMP JUMPDEST PUSH1 0x40 MLOAD DUP1 SWAP2 SUB SWAP1 REVERT JUMPDEST DUP1 PUSH0 DUP1 PUSH2 0x100 EXP DUP2 SLOAD DUP2 PUSH20 0xFFFFFFFFFFFFFFFFFFFFFFFFFFFFFFFFFFFFFFFF MUL NOT AND SWAP1 DUP4 PUSH20 0xFFFFFFFFFFFFFFFFFFFFFFFFFFFFFFFFFFFFFFFF AND MUL OR SWAP1 SSTORE POP POP JUMP JUMPDEST PUSH0 DUP1 SLOAD SWAP1 PUSH2 0x100 EXP SWAP1 DIV PUSH20 0xFFFFFFFFFFFFFFFFFFFFFFFFFFFFFFFFFFFFFFFF AND DUP2 JUMP JUMPDEST PUSH0 DUP1 SLOAD SWAP1 PUSH2 0x100 EXP SWAP1 DIV PUSH20 0xFFFFFFFFFFFFFFFFFFFFFFFFFFFFFFFFFFFFFFFF AND PUSH20 0xFFFFFFFFFFFFFFFFFFFFFFFFFFFFFFFFFFFFFFFF AND CALLER PUSH20 0xFFFFFFFFFFFFFFFFFFFFFFFFFFFFFFFFFFFFFFFF AND EQ PUSH2 0x26A JUMPI CALLER PUSH1 0x40 MLOAD PUSH32 0x6264F00800000000000000000000000000000000000000000000000000000000 DUP2 MSTORE PUSH1 0x4 ADD PUSH2 0x261 SWAP2 SWAP1 PUSH2 0x376 JUMP JUMPDEST PUSH1 0x40 MLOAD DUP1 SWAP2 SUB SWAP1 REVERT JUMPDEST JUMP JUMPDEST PUSH0 DUP1 DUP3 DUP5 PUSH2 0x27A SWAP2 SWAP1 PUSH2 0x4CD JUMP JUMPDEST SWAP1 POP DUP4 DUP2 LT ISZERO PUSH2 0x28D JUMPI PUSH2 0x28C PUSH2 0x500 JUMP JUMPDEST JUMPDEST DUP1 SWAP2 POP POP SWAP3 SWAP2 POP POP JUMP JUMPDEST DUP1 DUP3 GT ISZERO PUSH2 0x2DA JUMPI PUSH1 0x40 MLOAD PUSH32 0x8C379A000000000000000000000000000000000000000000000000000000000 DUP2 MSTORE PUSH1 0x4 ADD PUSH2 0x2D1 SWAP1 PUSH2 0x577 JUMP JUMPDEST PUSH1 0x40 MLOAD DUP1 SWAP2 SUB SWAP1 REVERT JUMPDEST POP POP JUMP JUMPDEST PUSH0 DUP1 REVERT JUMPDEST PUSH0 PUSH20 0xFFFFFFFFFFFFFFFFFFFFFFFFFFFFFFFFFFFFFFFF DUP3 AND SWAP1 POP SWAP2 SWAP1 POP JUMP JUMPDEST PUSH0 PUSH2 0x30B DUP3 PUSH2 0x2E2 JUMP JUMPDEST SWAP1 POP SWAP2 SWAP1 POP JUMP JUMPDEST PUSH2 0x31B DUP2 PUSH2 0x301 JUMP JUMPDEST DUP2 EQ PUSH2 0x325 JUMPI PUSH0 DUP1 REVERT JUMPDEST POP JUMP JUMPDEST PUSH0 DUP2 CALLDATALOAD SWAP1 POP PUSH2 0x336 DUP2 PUSH2 0x312 JUMP JUMPDEST SWAP3 SWAP2 POP POP JUMP JUMPDEST PUSH0 PUSH1 0x20 DUP3 DUP5 SUB SLT ISZERO PUSH2 0x351 JUMPI PUSH2 0x350 PUSH2 0x2DE JUMP JUMPDEST JUMPDEST PUSH0 PUSH2 0x35E DUP5 DUP3 DUP6 ADD PUSH2 0x328 JUMP JUMPDEST SWAP2 POP POP SWAP3 SWAP2 POP POP JUMP JUMPDEST PUSH2 0x370 DUP2 PUSH2 0x301 JUMP JUMPDEST DUP3 MSTORE POP POP JUMP JUMPDEST PUSH0 PUSH1 0x20 DUP3 ADD SWAP1 POP PUSH2 0x389 PUSH0 DUP4 ADD DUP5 PUSH2 0x367 JUMP JUMPDEST SWAP3 SWAP2 POP POP JUMP JUMPDEST PUSH0 DUP2 SWAP1 POP SWAP2 SWAP1 POP JUMP JUMPDEST PUSH2 0x3A1 DUP2 PUSH2 0x38F JUMP JUMPDEST DUP2 EQ PUSH2 0x3AB JUMPI PUSH0 DUP1 REVERT JUMPDEST POP JUMP JUMPDEST PUSH0 DUP2 CALLDATALOAD SWAP1 POP PUSH2 0x3BC DUP2 PUSH2 0x398 JUMP JUMPDEST SWAP3 SWAP2 POP POP JUMP JUMPDEST PUSH0 DUP1 PUSH1 0x40 DUP4 DUP6 SUB SLT ISZERO PUSH2 0x3D8 JUMPI PUSH2 0x3D7 PUSH2 0x2DE JUMP JUMPDEST JUMPDEST PUSH0 PUSH2 0x3E5 DUP6 DUP3 DUP7 ADD PUSH2 0x3AE JUMP JUMPDEST SWAP3 POP POP PUSH1 0x20 PUSH2 0x3F6 DUP6 DUP3 DUP7 ADD PUSH2 0x3AE JUMP JUMPDEST SWAP2 POP POP SWAP3 POP SWAP3 SWAP1 POP JUMP JUMPDEST PUSH2 0x409 DUP2 PUSH2 0x38F JUMP JUMPDEST DUP3 MSTORE POP POP JUMP JUMPDEST PUSH0 PUSH1 0x20 DUP3 ADD SWAP1 POP PUSH2 0x422 PUSH0 DUP4 ADD DUP5 PUSH2 0x400 JUMP JUMPDEST SWAP3 SWAP2 POP POP JUMP JUMPDEST PUSH0 DUP3 DUP3 MSTORE PUSH1 0x20 DUP3 ADD SWAP1 POP SWAP3 SWAP2 POP POP JUMP JUMPDEST PUSH32 0x6F6E6C79206F776E65722063616E206F70657261746500000000000000000000 PUSH0 DUP3 ADD MSTORE POP JUMP JUMPDEST PUSH0 PUSH2 0x46C PUSH1 0x16 DUP4 PUSH2 0x428 JUMP JUMPDEST SWAP2 POP PUSH2 0x477 DUP3 PUSH2 0x438 JUMP JUMPDEST PUSH1 0x20 DUP3 ADD SWAP1 POP SWAP2 SWAP1 POP JUMP JUMPDEST PUSH0 PUSH1 0x20 DUP3 ADD SWAP1 POP DUP2 DUP2 SUB PUSH0 DUP4 ADD MSTORE PUSH2 0x499 DUP2 PUSH2 0x460 JUMP JUMPDEST SWAP1 POP SWAP2 SWAP1 POP JUMP JUMPDEST PUSH32 0x4E487B7100000000000000000000000000000000000000000000000000000000 PUSH0 MSTORE PUSH1 0x11 PUSH1 0x4 MSTORE PUSH1 0x24 PUSH0 REVERT JUMPDEST PUSH0 PUSH2 0x4D7 DUP3 PUSH2 0x38F JUMP JUMPDEST SWAP2 POP PUSH2 0x4E2 DUP4 PUSH2 0x38F JUMP JUMPDEST SWAP3 POP DUP3 DUP3 ADD SWAP1 POP DUP1 DUP3 GT ISZERO PUSH2 0x4FA JUMPI PUSH2 0x4F9 PUSH2 0x4A0 JUMP JUMPDEST JUMPDEST SWAP3 SWAP2 POP POP JUMP JUMPDEST PUSH32 0x4E487B7100000000000000000000000000000000000000000000000000000000 PUSH0 MSTORE PUSH1 0x1 PUSH1 0x4 MSTORE PUSH1 0x24 PUSH0 REVERT JUMPDEST PUSH32 0x7468726F7720616E206572726F72000000000000000000000000000000000000 PUSH0 DUP3 ADD MSTORE POP JUMP JUMPDEST PUSH0 PUSH2 0x561 PUSH1 0xE DUP4 PUSH2 0x428 JUMP JUMPDEST SWAP2 POP PUSH2 0x56C DUP3 PUSH2 0x52D JUMP JUMPDEST PUSH1 0x20 DUP3 ADD SWAP1 POP SWAP2 SWAP1 POP JUMP JUMPDEST PUSH0 PUSH1 0x20 DUP3 ADD SWAP1 POP DUP2 DUP2 SUB PUSH0 DUP4 ADD MSTORE PUSH2 0x58E DUP2 PUSH2 0x555 JUMP JUMPDEST SWAP1 POP SWAP2 SWAP1 POP JUMP INVALID LOG2 PUSH5 0x6970667358 0x22 SLT KECCAK256 SWAP10 PUSH5 0xE7772CE0B8 0x27 DIV 0x4E SWAP12 BASEFEE 0xA9 PUSH23 0xC71F043091B0E845E0C2E98ACAA81C28EFDF64736F6C63 NUMBER STOP ADDMOD BYTE STOP CALLER "
				},
				"gasEstimates": {
					"creation": {
						"codeDepositCost": "197600",
						"executionCost": "infinite",
						"totalCost": "infinite"
					},
					"external": {
						"test()": "infinite"
					}
				},
				"methodIdentifiers": {
					"test()": "f8a8fd6d"
				}
			},
			"storageLayout": {
				"storage": [
					{
						"astId": 94,
						"contract": "handleError.sol:trycatchDemo",
						"label": "handlerror",
						"offset": 0,
						"slot": "0",
						"type": "t_contract(HandleError)91"
					}
				],
				"types": {
					"t_contract(HandleError)91": {
						"encoding": "inplace",
						"label": "contract HandleError",
						"numberOfBytes": "20"
					}
				}
			},
			"userdoc": {
				"kind": "user",
				"methods": {},
				"version": 1
			}
		}
	}
}