{
	"Global.sol": {
		"GlobalDemo": {
			"abi": [
				{
					"inputs": [],
					"stateMutability": "nonpayable",
					"type": "constructor"
				},
				{
					"anonymous": false,
					"inputs": [
						{
							"indexed": false,
							"internalType": "uint256",
							"name": "result",
							"type": "uint256"
						},
						{
							"indexed": false,
							"internalType": "string",
							"name": "operatino",
							"type": "string"
						}
					],
					"name": "OperationResult",
					"type": "event"
				},
				{
					"inputs": [
						{
							"internalType": "uint256",
							"name": "a",
							"type": "uint256"
						},
						{
							"internalType": "uint256",
							"name": "b",
							"type": "uint256"
						},
						{
							"internalType": "uint256",
							"name": "c",
							"type": "uint256"
						}
					],
					"name": "addmodDemo",
					"outputs": [
						{
							"internalType": "uint256",
							"name": "",
							"type": "uint256"
						}
					],
					"stateMutability": "nonpayable",
					"type": "function"
				},
				{
					"inputs": [
						{
							"internalType": "bytes",
							"name": "_data",
							"type": "bytes"
						}
					],
					"name": "decode",
					"outputs": [
						{
							"internalType": "uint256",
							"name": "",
							"type": "uint256"
						},
						{
							"internalType": "uint256",
							"name": "",
							"type": "uint256"
						}
					],
					"stateMutability": "pure",
					"type": "function"
				},
				{
					"inputs": [
						{
							"internalType": "uint256",
							"name": "a",
							"type": "uint256"
						},
						{
							"internalType": "uint256",
							"name": "b",
							"type": "uint256"
						}
					],
					"name": "encode",
					"outputs": [
						{
							"internalType": "bytes",
							"name": "",
							"type": "bytes"
						}
					],
					"stateMutability": "pure",
					"type": "function"
				},
				{
					"inputs": [],
					"name": "getInfo",
					"outputs": [
						{
							"internalType": "uint256",
							"name": "_blockNum",
							"type": "uint256"
						},
						{
							"internalType": "uint256",
							"name": "_timestamp",
							"type": "uint256"
						},
						{
							"internalType": "address",
							"name": "miner",
							"type": "address"
						},
						{
							"internalType": "uint256",
							"name": "price",
							"type": "uint256"
						}
					],
					"stateMutability": "view",
					"type": "function"
				},
				{
					"inputs": [
						{
							"internalType": "string",
							"name": "input",
							"type": "string"
						}
					],
					"name": "hashString",
					"outputs": [
						{
							"internalType": "bytes32",
							"name": "",
							"type": "bytes32"
						}
					],
					"stateMutability": "pure",
					"type": "function"
				},
				{
					"inputs": [],
					"name": "locktime",
					"outputs": [
						{
							"internalType": "uint256",
							"name": "",
							"type": "uint256"
						}
					],
					"stateMutability": "view",
					"type": "function"
				},
				{
					"inputs": [
						{
							"internalType": "uint256",
							"name": "a",
							"type": "uint256"
						},
						{
							"internalType": "uint256",
							"name": "b",
							"type": "uint256"
						},
						{
							"internalType": "uint256",
							"name": "c",
							"type": "uint256"
						}
					],
					"name": "mulmodDemo",
					"outputs": [
						{
							"internalType": "uint256",
							"name": "",
							"type": "uint256"
						}
					],
					"stateMutability": "nonpayable",
					"type": "function"
				},
				{
					"inputs": [],
					"name": "owner",
					"outputs": [
						{
							"internalType": "address",
							"name": "",
							"type": "address"
						}
					],
					"stateMutability": "view",
					"type": "function"
				},
				{
					"inputs": [
						{
							"internalType": "string",
							"name": "input",
							"type": "string"
						},
						{
							"internalType": "bytes32",
							"name": "hash",
							"type": "bytes32"
						}
					],
					"name": "verifyHash",
					"outputs": [
						{
							"internalType": "bool",
							"name": "",
							"type": "bool"
						}
					],
					"stateMutability": "pure",
					"type": "function"
				},
				{
					"inputs": [],
					"name": "withdraw",
					"outputs": [],
					"stateMutability": "view",
					"type": "function"
				}
			],
			"devdoc": {
				"kind": "dev",
				"methods": {},
				"version": 1
			},
			"evm": {
				"assembly": "    /* \"Global.sol\":58:2106  contract GlobalDemo {... */\n  mstore(0x40, 0x80)\n    /* \"Global.sol\":207:315  constructor() {... */\n  callvalue\n  dup1\n  iszero\n  tag_1\n  jumpi\n  0x00\n  dup1\n  revert\ntag_1:\n  pop\n    /* \"Global.sol\":240:250  msg.sender */\n  caller\n    /* \"Global.sol\":232:237  owner */\n  0x00\n  dup1\n    /* \"Global.sol\":232:250  owner = msg.sender */\n  0x0100\n  exp\n  dup2\n  sload\n  dup2\n  0xffffffffffffffffffffffffffffffffffffffff\n  mul\n  not\n  and\n  swap1\n  dup4\n  0xffffffffffffffffffffffffffffffffffffffff\n  and\n  mul\n  or\n  swap1\n  sstore\n  pop\n    /* \"Global.sol\":301:307  1 days */\n  0x015180\n    /* \"Global.sol\":283:298  block.timestamp */\n  timestamp\n    /* \"Global.sol\":283:307  block.timestamp * 1 days */\n  tag_4\n  swap2\n  swap1\n  tag_5\n  jump\t// in\ntag_4:\n    /* \"Global.sol\":272:280  locktime */\n  sload(0x01)\n    /* \"Global.sol\":272:307  locktime + block.timestamp * 1 days */\n  tag_6\n  swap2\n  swap1\n  tag_7\n  jump\t// in\ntag_6:\n    /* \"Global.sol\":261:269  locktime */\n  0x01\n    /* \"Global.sol\":261:307  locktime = locktime + block.timestamp * 1 days */\n  dup2\n  swap1\n  sstore\n  pop\n    /* \"Global.sol\":58:2106  contract GlobalDemo {... */\n  jump(tag_8)\n    /* \"#utility.yul\":7:84   */\ntag_9:\n    /* \"#utility.yul\":44:51   */\n  0x00\n    /* \"#utility.yul\":73:78   */\n  dup2\n    /* \"#utility.yul\":62:78   */\n  swap1\n  pop\n    /* \"#utility.yul\":7:84   */\n  swap2\n  swap1\n  pop\n  jump\t// out\n    /* \"#utility.yul\":90:270   */\ntag_10:\n    /* \"#utility.yul\":138:215   */\n  0x4e487b7100000000000000000000000000000000000000000000000000000000\n    /* \"#utility.yul\":135:136   */\n  0x00\n    /* \"#utility.yul\":128:216   */\n  mstore\n    /* \"#utility.yul\":235:239   */\n  0x11\n    /* \"#utility.yul\":232:233   */\n  0x04\n    /* \"#utility.yul\":225:240   */\n  mstore\n    /* \"#utility.yul\":259:263   */\n  0x24\n    /* \"#utility.yul\":256:257   */\n  0x00\n    /* \"#utility.yul\":249:264   */\n  revert\n    /* \"#utility.yul\":276:686   */\ntag_5:\n    /* \"#utility.yul\":316:323   */\n  0x00\n    /* \"#utility.yul\":339:359   */\n  tag_15\n    /* \"#utility.yul\":357:358   */\n  dup3\n    /* \"#utility.yul\":339:359   */\n  tag_9\n  jump\t// in\ntag_15:\n    /* \"#utility.yul\":334:359   */\n  swap2\n  pop\n    /* \"#utility.yul\":373:393   */\n  tag_16\n    /* \"#utility.yul\":391:392   */\n  dup4\n    /* \"#utility.yul\":373:393   */\n  tag_9\n  jump\t// in\ntag_16:\n    /* \"#utility.yul\":368:393   */\n  swap3\n  pop\n    /* \"#utility.yul\":428:429   */\n  dup3\n    /* \"#utility.yul\":425:426   */\n  dup3\n    /* \"#utility.yul\":421:430   */\n  mul\n    /* \"#utility.yul\":450:480   */\n  tag_17\n    /* \"#utility.yul\":468:479   */\n  dup2\n    /* \"#utility.yul\":450:480   */\n  tag_9\n  jump\t// in\ntag_17:\n    /* \"#utility.yul\":439:480   */\n  swap2\n  pop\n    /* \"#utility.yul\":629:630   */\n  dup3\n    /* \"#utility.yul\":620:627   */\n  dup3\n    /* \"#utility.yul\":616:631   */\n  div\n    /* \"#utility.yul\":613:614   */\n  dup5\n    /* \"#utility.yul\":610:632   */\n  eq\n    /* \"#utility.yul\":590:591   */\n  dup4\n    /* \"#utility.yul\":583:592   */\n  iszero\n    /* \"#utility.yul\":563:646   */\n  or\n    /* \"#utility.yul\":540:679   */\n  tag_18\n  jumpi\n    /* \"#utility.yul\":659:677   */\n  tag_19\n  tag_10\n  jump\t// in\ntag_19:\n    /* \"#utility.yul\":540:679   */\ntag_18:\n    /* \"#utility.yul\":324:686   */\n  pop\n    /* \"#utility.yul\":276:686   */\n  swap3\n  swap2\n  pop\n  pop\n  jump\t// out\n    /* \"#utility.yul\":692:883   */\ntag_7:\n    /* \"#utility.yul\":732:735   */\n  0x00\n    /* \"#utility.yul\":751:771   */\n  tag_21\n    /* \"#utility.yul\":769:770   */\n  dup3\n    /* \"#utility.yul\":751:771   */\n  tag_9\n  jump\t// in\ntag_21:\n    /* \"#utility.yul\":746:771   */\n  swap2\n  pop\n    /* \"#utility.yul\":785:805   */\n  tag_22\n    /* \"#utility.yul\":803:804   */\n  dup4\n    /* \"#utility.yul\":785:805   */\n  tag_9\n  jump\t// in\ntag_22:\n    /* \"#utility.yul\":780:805   */\n  swap3\n  pop\n    /* \"#utility.yul\":828:829   */\n  dup3\n    /* \"#utility.yul\":825:826   */\n  dup3\n    /* \"#utility.yul\":821:830   */\n  add\n    /* \"#utility.yul\":814:830   */\n  swap1\n  pop\n    /* \"#utility.yul\":849:852   */\n  dup1\n    /* \"#utility.yul\":846:847   */\n  dup3\n    /* \"#utility.yul\":843:853   */\n  gt\n    /* \"#utility.yul\":840:876   */\n  iszero\n  tag_23\n  jumpi\n    /* \"#utility.yul\":856:874   */\n  tag_24\n  tag_10\n  jump\t// in\ntag_24:\n    /* \"#utility.yul\":840:876   */\ntag_23:\n    /* \"#utility.yul\":692:883   */\n  swap3\n  swap2\n  pop\n  pop\n  jump\t// out\n    /* \"Global.sol\":58:2106  contract GlobalDemo {... */\ntag_8:\n  dataSize(sub_0)\n  dup1\n  dataOffset(sub_0)\n  0x00\n  codecopy\n  0x00\n  return\nstop\n\nsub_0: assembly {\n        /* \"Global.sol\":58:2106  contract GlobalDemo {... */\n      mstore(0x40, 0x80)\n      callvalue\n      dup1\n      iszero\n      tag_1\n      jumpi\n      0x00\n      dup1\n      revert\n    tag_1:\n      pop\n      jumpi(tag_2, lt(calldatasize, 0x04))\n      shr(0xe0, calldataload(0x00))\n      dup1\n      0x766954b4\n      gt\n      tag_13\n      jumpi\n      dup1\n      0x766954b4\n      eq\n      tag_8\n      jumpi\n      dup1\n      0x8da5cb5b\n      eq\n      tag_9\n      jumpi\n      dup1\n      0xb89207e0\n      eq\n      tag_10\n      jumpi\n      dup1\n      0xdc0aa2af\n      eq\n      tag_11\n      jumpi\n      dup1\n      0xe5c5e9a3\n      eq\n      tag_12\n      jumpi\n      jump(tag_2)\n    tag_13:\n      dup1\n      0x0bce4aa4\n      eq\n      tag_3\n      jumpi\n      dup1\n      0x19f8aec8\n      eq\n      tag_4\n      jumpi\n      dup1\n      0x3ccfd60b\n      eq\n      tag_5\n      jumpi\n      dup1\n      0x5a9b0b89\n      eq\n      tag_6\n      jumpi\n      dup1\n      0x61c533b4\n      eq\n      tag_7\n      jumpi\n    tag_2:\n      0x00\n      dup1\n      revert\n        /* \"Global.sol\":1299:1484  function addmodDemo(uint a, uint b, uint c) public returns (uint) {... */\n    tag_3:\n      tag_14\n      0x04\n      dup1\n      calldatasize\n      sub\n      dup2\n      add\n      swap1\n      tag_15\n      swap2\n      swap1\n      tag_16\n      jump\t// in\n    tag_15:\n      tag_17\n      jump\t// in\n    tag_14:\n      mload(0x40)\n      tag_18\n      swap2\n      swap1\n      tag_19\n      jump\t// in\n    tag_18:\n      mload(0x40)\n      dup1\n      swap2\n      sub\n      swap1\n      return\n        /* \"Global.sol\":1511:1696  function mulmodDemo(uint a, uint b, uint c) public returns (uint) {... */\n    tag_4:\n      tag_20\n      0x04\n      dup1\n      calldatasize\n      sub\n      dup2\n      add\n      swap1\n      tag_21\n      swap2\n      swap1\n      tag_16\n      jump\t// in\n    tag_21:\n      tag_22\n      jump\t// in\n    tag_20:\n      mload(0x40)\n      tag_23\n      swap2\n      swap1\n      tag_19\n      jump\t// in\n    tag_23:\n      mload(0x40)\n      dup1\n      swap2\n      sub\n      swap1\n      return\n        /* \"Global.sol\":1035:1272  function withdraw() public view{... */\n    tag_5:\n      tag_24\n      tag_25\n      jump\t// in\n    tag_24:\n      stop\n        /* \"Global.sol\":323:669  function getInfo() public view returns (uint _blockNum,uint _timestamp, address miner, uint price) {... */\n    tag_6:\n      tag_26\n      tag_27\n      jump\t// in\n    tag_26:\n      mload(0x40)\n      tag_28\n      swap5\n      swap4\n      swap3\n      swap2\n      swap1\n      tag_29\n      jump\t// in\n    tag_28:\n      mload(0x40)\n      dup1\n      swap2\n      sub\n      swap1\n      return\n        /* \"Global.sol\":114:134  uint public locktime */\n    tag_7:\n      tag_30\n      tag_31\n      jump\t// in\n    tag_30:\n      mload(0x40)\n      tag_32\n      swap2\n      swap1\n      tag_19\n      jump\t// in\n    tag_32:\n      mload(0x40)\n      dup1\n      swap2\n      sub\n      swap1\n      return\n        /* \"Global.sol\":1760:1891  function hashString(string memory input) public pure returns (bytes32) {... */\n    tag_8:\n      tag_33\n      0x04\n      dup1\n      calldatasize\n      sub\n      dup2\n      add\n      swap1\n      tag_34\n      swap2\n      swap1\n      tag_35\n      jump\t// in\n    tag_34:\n      tag_36\n      jump\t// in\n    tag_33:\n      mload(0x40)\n      tag_37\n      swap2\n      swap1\n      tag_38\n      jump\t// in\n    tag_37:\n      mload(0x40)\n      dup1\n      swap2\n      sub\n      swap1\n      return\n        /* \"Global.sol\":87:107  address public owner */\n    tag_9:\n      tag_39\n      tag_40\n      jump\t// in\n    tag_39:\n      mload(0x40)\n      tag_41\n      swap2\n      swap1\n      tag_42\n      jump\t// in\n    tag_41:\n      mload(0x40)\n      dup1\n      swap2\n      sub\n      swap1\n      return\n        /* \"Global.sol\":1953:2103  function verifyHash(string memory input, bytes32 hash) public pure returns (bool) {... */\n    tag_10:\n      tag_43\n      0x04\n      dup1\n      calldatasize\n      sub\n      dup2\n      add\n      swap1\n      tag_44\n      swap2\n      swap1\n      tag_45\n      jump\t// in\n    tag_44:\n      tag_46\n      jump\t// in\n    tag_43:\n      mload(0x40)\n      tag_47\n      swap2\n      swap1\n      tag_48\n      jump\t// in\n    tag_47:\n      mload(0x40)\n      dup1\n      swap2\n      sub\n      swap1\n      return\n        /* \"Global.sol\":677:842  function encode(uint a, uint b) public pure returns (bytes memory)  {... */\n    tag_11:\n      tag_49\n      0x04\n      dup1\n      calldatasize\n      sub\n      dup2\n      add\n      swap1\n      tag_50\n      swap2\n      swap1\n      tag_51\n      jump\t// in\n    tag_50:\n      tag_52\n      jump\t// in\n    tag_49:\n      mload(0x40)\n      tag_53\n      swap2\n      swap1\n      tag_54\n      jump\t// in\n    tag_53:\n      mload(0x40)\n      dup1\n      swap2\n      sub\n      swap1\n      return\n        /* \"Global.sol\":850:1027  function decode(bytes memory _data) public pure returns (uint,uint){... */\n    tag_12:\n      tag_55\n      0x04\n      dup1\n      calldatasize\n      sub\n      dup2\n      add\n      swap1\n      tag_56\n      swap2\n      swap1\n      tag_57\n      jump\t// in\n    tag_56:\n      tag_58\n      jump\t// in\n    tag_55:\n      mload(0x40)\n      tag_59\n      swap3\n      swap2\n      swap1\n      tag_60\n      jump\t// in\n    tag_59:\n      mload(0x40)\n      dup1\n      swap2\n      sub\n      swap1\n      return\n        /* \"Global.sol\":1299:1484  function addmodDemo(uint a, uint b, uint c) public returns (uint) {... */\n    tag_17:\n        /* \"Global.sol\":1359:1363  uint */\n      0x00\n        /* \"Global.sol\":1377:1388  uint result */\n      dup1\n        /* \"Global.sol\":1404:1405  c */\n      dup3\n        /* \"Global.sol\":1391:1406  addmod(a, b, c) */\n      dup1\n      tag_62\n      jumpi\n      tag_63\n      tag_64\n      jump\t// in\n    tag_63:\n    tag_62:\n        /* \"Global.sol\":1401:1402  b */\n      dup5\n        /* \"Global.sol\":1398:1399  a */\n      dup7\n        /* \"Global.sol\":1391:1406  addmod(a, b, c) */\n      addmod\n        /* \"Global.sol\":1377:1406  uint result = addmod(a, b, c) */\n      swap1\n      pop\n        /* \"Global.sol\":1422:1452  OperationResult(result, \"add\") */\n      0xd186466bbcf1a8c55dfeeec2719713870907c19490782000951828d1f648e564\n        /* \"Global.sol\":1438:1444  result */\n      dup2\n        /* \"Global.sol\":1422:1452  OperationResult(result, \"add\") */\n      mload(0x40)\n      tag_65\n      swap2\n      swap1\n      tag_66\n      jump\t// in\n    tag_65:\n      mload(0x40)\n      dup1\n      swap2\n      sub\n      swap1\n      log1\n        /* \"Global.sol\":1470:1476  result */\n      dup1\n        /* \"Global.sol\":1463:1476  return result */\n      swap2\n      pop\n      pop\n        /* \"Global.sol\":1299:1484  function addmodDemo(uint a, uint b, uint c) public returns (uint) {... */\n      swap4\n      swap3\n      pop\n      pop\n      pop\n      jump\t// out\n        /* \"Global.sol\":1511:1696  function mulmodDemo(uint a, uint b, uint c) public returns (uint) {... */\n    tag_22:\n        /* \"Global.sol\":1571:1575  uint */\n      0x00\n        /* \"Global.sol\":1589:1600  uint result */\n      dup1\n        /* \"Global.sol\":1616:1617  c */\n      dup3\n        /* \"Global.sol\":1603:1618  mulmod(a, b, c) */\n      dup1\n      tag_68\n      jumpi\n      tag_69\n      tag_64\n      jump\t// in\n    tag_69:\n    tag_68:\n        /* \"Global.sol\":1613:1614  b */\n      dup5\n        /* \"Global.sol\":1610:1611  a */\n      dup7\n        /* \"Global.sol\":1603:1618  mulmod(a, b, c) */\n      mulmod\n        /* \"Global.sol\":1589:1618  uint result = mulmod(a, b, c) */\n      swap1\n      pop\n        /* \"Global.sol\":1634:1664  OperationResult(result, \"mul\") */\n      0xd186466bbcf1a8c55dfeeec2719713870907c19490782000951828d1f648e564\n        /* \"Global.sol\":1650:1656  result */\n      dup2\n        /* \"Global.sol\":1634:1664  OperationResult(result, \"mul\") */\n      mload(0x40)\n      tag_70\n      swap2\n      swap1\n      tag_71\n      jump\t// in\n    tag_70:\n      mload(0x40)\n      dup1\n      swap2\n      sub\n      swap1\n      log1\n        /* \"Global.sol\":1682:1688  result */\n      dup1\n        /* \"Global.sol\":1675:1688  return result */\n      swap2\n      pop\n      pop\n        /* \"Global.sol\":1511:1696  function mulmodDemo(uint a, uint b, uint c) public returns (uint) {... */\n      swap4\n      swap3\n      pop\n      pop\n      pop\n      jump\t// out\n        /* \"Global.sol\":1035:1272  function withdraw() public view{... */\n    tag_25:\n        /* \"Global.sol\":1103:1111  locktime */\n      sload(0x01)\n        /* \"Global.sol\":1085:1100  block.timestamp */\n      timestamp\n        /* \"Global.sol\":1085:1111  block.timestamp > locktime */\n      gt\n        /* \"Global.sol\":1077:1112  require(block.timestamp > locktime) */\n      tag_73\n      jumpi\n      0x00\n      dup1\n      revert\n    tag_73:\n        /* \"Global.sol\":1175:1185  msg.sender */\n      caller\n        /* \"Global.sol\":1166:1185  owner == msg.sender */\n      0xffffffffffffffffffffffffffffffffffffffff\n      and\n        /* \"Global.sol\":1166:1171  owner */\n      0x00\n      dup1\n      sload\n      swap1\n      0x0100\n      exp\n      swap1\n      div\n      0xffffffffffffffffffffffffffffffffffffffff\n      and\n        /* \"Global.sol\":1166:1185  owner == msg.sender */\n      0xffffffffffffffffffffffffffffffffffffffff\n      and\n      eq\n        /* \"Global.sol\":1157:1186  require( owner == msg.sender) */\n      tag_74\n      jumpi\n      0x00\n      dup1\n      revert\n    tag_74:\n        /* \"Global.sol\":1035:1272  function withdraw() public view{... */\n      jump\t// out\n        /* \"Global.sol\":323:669  function getInfo() public view returns (uint _blockNum,uint _timestamp, address miner, uint price) {... */\n    tag_27:\n        /* \"Global.sol\":363:377  uint _blockNum */\n      0x00\n        /* \"Global.sol\":378:393  uint _timestamp */\n      dup1\n        /* \"Global.sol\":395:408  address miner */\n      0x00\n        /* \"Global.sol\":410:420  uint price */\n      dup1\n        /* \"Global.sol\":445:457  block.number */\n      number\n        /* \"Global.sol\":433:457  _blockNum = block.number */\n      swap4\n      pop\n        /* \"Global.sol\":499:514  block.timestamp */\n      timestamp\n        /* \"Global.sol\":486:514  _timestamp = block.timestamp */\n      swap3\n      pop\n        /* \"Global.sol\":556:570  block.coinbase */\n      coinbase\n        /* \"Global.sol\":548:570  miner = block.coinbase */\n      swap2\n      pop\n        /* \"Global.sol\":624:635  tx.gasprice */\n      gasprice\n        /* \"Global.sol\":616:635  price = tx.gasprice */\n      swap1\n      pop\n        /* \"Global.sol\":323:669  function getInfo() public view returns (uint _blockNum,uint _timestamp, address miner, uint price) {... */\n      swap1\n      swap2\n      swap3\n      swap4\n      jump\t// out\n        /* \"Global.sol\":114:134  uint public locktime */\n    tag_31:\n      sload(0x01)\n      dup2\n      jump\t// out\n        /* \"Global.sol\":1760:1891  function hashString(string memory input) public pure returns (bytes32) {... */\n    tag_36:\n        /* \"Global.sol\":1822:1829  bytes32 */\n      0x00\n        /* \"Global.sol\":1876:1881  input */\n      dup2\n        /* \"Global.sol\":1859:1882  abi.encodePacked(input) */\n      add(0x20, mload(0x40))\n      tag_77\n      swap2\n      swap1\n      tag_78\n      jump\t// in\n    tag_77:\n      mload(0x40)\n      0x20\n      dup2\n      dup4\n      sub\n      sub\n      dup2\n      mstore\n      swap1\n      0x40\n      mstore\n        /* \"Global.sol\":1849:1883  keccak256(abi.encodePacked(input)) */\n      dup1\n      mload\n      swap1\n      0x20\n      add\n      keccak256\n        /* \"Global.sol\":1842:1883  return keccak256(abi.encodePacked(input)) */\n      swap1\n      pop\n        /* \"Global.sol\":1760:1891  function hashString(string memory input) public pure returns (bytes32) {... */\n      swap2\n      swap1\n      pop\n      jump\t// out\n        /* \"Global.sol\":87:107  address public owner */\n    tag_40:\n      0x00\n      dup1\n      sload\n      swap1\n      0x0100\n      exp\n      swap1\n      div\n      0xffffffffffffffffffffffffffffffffffffffff\n      and\n      dup2\n      jump\t// out\n        /* \"Global.sol\":1953:2103  function verifyHash(string memory input, bytes32 hash) public pure returns (bool) {... */\n    tag_46:\n        /* \"Global.sol\":2029:2033  bool */\n      0x00\n        /* \"Global.sol\":2091:2095  hash */\n      dup2\n        /* \"Global.sol\":2080:2085  input */\n      dup4\n        /* \"Global.sol\":2063:2086  abi.encodePacked(input) */\n      add(0x20, mload(0x40))\n      tag_80\n      swap2\n      swap1\n      tag_78\n      jump\t// in\n    tag_80:\n      mload(0x40)\n      0x20\n      dup2\n      dup4\n      sub\n      sub\n      dup2\n      mstore\n      swap1\n      0x40\n      mstore\n        /* \"Global.sol\":2053:2087  keccak256(abi.encodePacked(input)) */\n      dup1\n      mload\n      swap1\n      0x20\n      add\n      keccak256\n        /* \"Global.sol\":2053:2095  keccak256(abi.encodePacked(input)) == hash */\n      eq\n        /* \"Global.sol\":2046:2095  return keccak256(abi.encodePacked(input)) == hash */\n      swap1\n      pop\n        /* \"Global.sol\":1953:2103  function verifyHash(string memory input, bytes32 hash) public pure returns (bool) {... */\n      swap3\n      swap2\n      pop\n      pop\n      jump\t// out\n        /* \"Global.sol\":677:842  function encode(uint a, uint b) public pure returns (bytes memory)  {... */\n    tag_52:\n        /* \"Global.sol\":730:742  bytes memory */\n      0x60\n        /* \"Global.sol\":774:775  a */\n      dup3\n        /* \"Global.sol\":776:777  b */\n      dup3\n        /* \"Global.sol\":763:778  abi.encode(a,b) */\n      add(0x20, mload(0x40))\n      tag_82\n      swap3\n      swap2\n      swap1\n      tag_60\n      jump\t// in\n    tag_82:\n      mload(0x40)\n      0x20\n      dup2\n      dup4\n      sub\n      sub\n      dup2\n      mstore\n      swap1\n      0x40\n      mstore\n        /* \"Global.sol\":756:778  return abi.encode(a,b) */\n      swap1\n      pop\n        /* \"Global.sol\":677:842  function encode(uint a, uint b) public pure returns (bytes memory)  {... */\n      swap3\n      swap2\n      pop\n      pop\n      jump\t// out\n        /* \"Global.sol\":850:1027  function decode(bytes memory _data) public pure returns (uint,uint){... */\n    tag_58:\n        /* \"Global.sol\":907:911  uint */\n      0x00\n        /* \"Global.sol\":912:916  uint */\n      dup1\n        /* \"Global.sol\":946:951  _data */\n      dup3\n        /* \"Global.sol\":935:966  abi.decode(_data, (uint, uint)) */\n      dup1\n      0x20\n      add\n      swap1\n      mload\n      dup2\n      add\n      swap1\n      tag_84\n      swap2\n      swap1\n      tag_85\n      jump\t// in\n    tag_84:\n        /* \"Global.sol\":928:966  return abi.decode(_data, (uint, uint)) */\n      swap2\n      pop\n      swap2\n      pop\n        /* \"Global.sol\":850:1027  function decode(bytes memory _data) public pure returns (uint,uint){... */\n      swap2\n      pop\n      swap2\n      jump\t// out\n        /* \"#utility.yul\":7:82   */\n    tag_86:\n        /* \"#utility.yul\":40:46   */\n      0x00\n        /* \"#utility.yul\":73:75   */\n      0x40\n        /* \"#utility.yul\":67:76   */\n      mload\n        /* \"#utility.yul\":57:76   */\n      swap1\n      pop\n        /* \"#utility.yul\":7:82   */\n      swap1\n      jump\t// out\n        /* \"#utility.yul\":88:205   */\n    tag_87:\n        /* \"#utility.yul\":197:198   */\n      0x00\n        /* \"#utility.yul\":194:195   */\n      dup1\n        /* \"#utility.yul\":187:199   */\n      revert\n        /* \"#utility.yul\":211:328   */\n    tag_88:\n        /* \"#utility.yul\":320:321   */\n      0x00\n        /* \"#utility.yul\":317:318   */\n      dup1\n        /* \"#utility.yul\":310:322   */\n      revert\n        /* \"#utility.yul\":334:411   */\n    tag_89:\n        /* \"#utility.yul\":371:378   */\n      0x00\n        /* \"#utility.yul\":400:405   */\n      dup2\n        /* \"#utility.yul\":389:405   */\n      swap1\n      pop\n        /* \"#utility.yul\":334:411   */\n      swap2\n      swap1\n      pop\n      jump\t// out\n        /* \"#utility.yul\":417:539   */\n    tag_90:\n        /* \"#utility.yul\":490:514   */\n      tag_134\n        /* \"#utility.yul\":508:513   */\n      dup2\n        /* \"#utility.yul\":490:514   */\n      tag_89\n      jump\t// in\n    tag_134:\n        /* \"#utility.yul\":483:488   */\n      dup2\n        /* \"#utility.yul\":480:515   */\n      eq\n        /* \"#utility.yul\":470:533   */\n      tag_135\n      jumpi\n        /* \"#utility.yul\":529:530   */\n      0x00\n        /* \"#utility.yul\":526:527   */\n      dup1\n        /* \"#utility.yul\":519:531   */\n      revert\n        /* \"#utility.yul\":470:533   */\n    tag_135:\n        /* \"#utility.yul\":417:539   */\n      pop\n      jump\t// out\n        /* \"#utility.yul\":545:684   */\n    tag_91:\n        /* \"#utility.yul\":591:596   */\n      0x00\n        /* \"#utility.yul\":629:635   */\n      dup2\n        /* \"#utility.yul\":616:636   */\n      calldataload\n        /* \"#utility.yul\":607:636   */\n      swap1\n      pop\n        /* \"#utility.yul\":645:678   */\n      tag_137\n        /* \"#utility.yul\":672:677   */\n      dup2\n        /* \"#utility.yul\":645:678   */\n      tag_90\n      jump\t// in\n    tag_137:\n        /* \"#utility.yul\":545:684   */\n      swap3\n      swap2\n      pop\n      pop\n      jump\t// out\n        /* \"#utility.yul\":690:1309   */\n    tag_16:\n        /* \"#utility.yul\":767:773   */\n      0x00\n        /* \"#utility.yul\":775:781   */\n      dup1\n        /* \"#utility.yul\":783:789   */\n      0x00\n        /* \"#utility.yul\":832:834   */\n      0x60\n        /* \"#utility.yul\":820:829   */\n      dup5\n        /* \"#utility.yul\":811:818   */\n      dup7\n        /* \"#utility.yul\":807:830   */\n      sub\n        /* \"#utility.yul\":803:835   */\n      slt\n        /* \"#utility.yul\":800:919   */\n      iszero\n      tag_139\n      jumpi\n        /* \"#utility.yul\":838:917   */\n      tag_140\n      tag_87\n      jump\t// in\n    tag_140:\n        /* \"#utility.yul\":800:919   */\n    tag_139:\n        /* \"#utility.yul\":958:959   */\n      0x00\n        /* \"#utility.yul\":983:1036   */\n      tag_141\n        /* \"#utility.yul\":1028:1035   */\n      dup7\n        /* \"#utility.yul\":1019:1025   */\n      dup3\n        /* \"#utility.yul\":1008:1017   */\n      dup8\n        /* \"#utility.yul\":1004:1026   */\n      add\n        /* \"#utility.yul\":983:1036   */\n      tag_91\n      jump\t// in\n    tag_141:\n        /* \"#utility.yul\":973:1036   */\n      swap4\n      pop\n        /* \"#utility.yul\":929:1046   */\n      pop\n        /* \"#utility.yul\":1085:1087   */\n      0x20\n        /* \"#utility.yul\":1111:1164   */\n      tag_142\n        /* \"#utility.yul\":1156:1163   */\n      dup7\n        /* \"#utility.yul\":1147:1153   */\n      dup3\n        /* \"#utility.yul\":1136:1145   */\n      dup8\n        /* \"#utility.yul\":1132:1154   */\n      add\n        /* \"#utility.yul\":1111:1164   */\n      tag_91\n      jump\t// in\n    tag_142:\n        /* \"#utility.yul\":1101:1164   */\n      swap3\n      pop\n        /* \"#utility.yul\":1056:1174   */\n      pop\n        /* \"#utility.yul\":1213:1215   */\n      0x40\n        /* \"#utility.yul\":1239:1292   */\n      tag_143\n        /* \"#utility.yul\":1284:1291   */\n      dup7\n        /* \"#utility.yul\":1275:1281   */\n      dup3\n        /* \"#utility.yul\":1264:1273   */\n      dup8\n        /* \"#utility.yul\":1260:1282   */\n      add\n        /* \"#utility.yul\":1239:1292   */\n      tag_91\n      jump\t// in\n    tag_143:\n        /* \"#utility.yul\":1229:1292   */\n      swap2\n      pop\n        /* \"#utility.yul\":1184:1302   */\n      pop\n        /* \"#utility.yul\":690:1309   */\n      swap3\n      pop\n      swap3\n      pop\n      swap3\n      jump\t// out\n        /* \"#utility.yul\":1315:1433   */\n    tag_92:\n        /* \"#utility.yul\":1402:1426   */\n      tag_145\n        /* \"#utility.yul\":1420:1425   */\n      dup2\n        /* \"#utility.yul\":1402:1426   */\n      tag_89\n      jump\t// in\n    tag_145:\n        /* \"#utility.yul\":1397:1400   */\n      dup3\n        /* \"#utility.yul\":1390:1427   */\n      mstore\n        /* \"#utility.yul\":1315:1433   */\n      pop\n      pop\n      jump\t// out\n        /* \"#utility.yul\":1439:1661   */\n    tag_19:\n        /* \"#utility.yul\":1532:1536   */\n      0x00\n        /* \"#utility.yul\":1570:1572   */\n      0x20\n        /* \"#utility.yul\":1559:1568   */\n      dup3\n        /* \"#utility.yul\":1555:1573   */\n      add\n        /* \"#utility.yul\":1547:1573   */\n      swap1\n      pop\n        /* \"#utility.yul\":1583:1654   */\n      tag_147\n        /* \"#utility.yul\":1651:1652   */\n      0x00\n        /* \"#utility.yul\":1640:1649   */\n      dup4\n        /* \"#utility.yul\":1636:1653   */\n      add\n        /* \"#utility.yul\":1627:1633   */\n      dup5\n        /* \"#utility.yul\":1583:1654   */\n      tag_92\n      jump\t// in\n    tag_147:\n        /* \"#utility.yul\":1439:1661   */\n      swap3\n      swap2\n      pop\n      pop\n      jump\t// out\n        /* \"#utility.yul\":1667:1793   */\n    tag_93:\n        /* \"#utility.yul\":1704:1711   */\n      0x00\n        /* \"#utility.yul\":1744:1786   */\n      0xffffffffffffffffffffffffffffffffffffffff\n        /* \"#utility.yul\":1737:1742   */\n      dup3\n        /* \"#utility.yul\":1733:1787   */\n      and\n        /* \"#utility.yul\":1722:1787   */\n      swap1\n      pop\n        /* \"#utility.yul\":1667:1793   */\n      swap2\n      swap1\n      pop\n      jump\t// out\n        /* \"#utility.yul\":1799:1895   */\n    tag_94:\n        /* \"#utility.yul\":1836:1843   */\n      0x00\n        /* \"#utility.yul\":1865:1889   */\n      tag_150\n        /* \"#utility.yul\":1883:1888   */\n      dup3\n        /* \"#utility.yul\":1865:1889   */\n      tag_93\n      jump\t// in\n    tag_150:\n        /* \"#utility.yul\":1854:1889   */\n      swap1\n      pop\n        /* \"#utility.yul\":1799:1895   */\n      swap2\n      swap1\n      pop\n      jump\t// out\n        /* \"#utility.yul\":1901:2019   */\n    tag_95:\n        /* \"#utility.yul\":1988:2012   */\n      tag_152\n        /* \"#utility.yul\":2006:2011   */\n      dup2\n        /* \"#utility.yul\":1988:2012   */\n      tag_94\n      jump\t// in\n    tag_152:\n        /* \"#utility.yul\":1983:1986   */\n      dup3\n        /* \"#utility.yul\":1976:2013   */\n      mstore\n        /* \"#utility.yul\":1901:2019   */\n      pop\n      pop\n      jump\t// out\n        /* \"#utility.yul\":2025:2578   */\n    tag_29:\n        /* \"#utility.yul\":2202:2206   */\n      0x00\n        /* \"#utility.yul\":2240:2243   */\n      0x80\n        /* \"#utility.yul\":2229:2238   */\n      dup3\n        /* \"#utility.yul\":2225:2244   */\n      add\n        /* \"#utility.yul\":2217:2244   */\n      swap1\n      pop\n        /* \"#utility.yul\":2254:2325   */\n      tag_154\n        /* \"#utility.yul\":2322:2323   */\n      0x00\n        /* \"#utility.yul\":2311:2320   */\n      dup4\n        /* \"#utility.yul\":2307:2324   */\n      add\n        /* \"#utility.yul\":2298:2304   */\n      dup8\n        /* \"#utility.yul\":2254:2325   */\n      tag_92\n      jump\t// in\n    tag_154:\n        /* \"#utility.yul\":2335:2407   */\n      tag_155\n        /* \"#utility.yul\":2403:2405   */\n      0x20\n        /* \"#utility.yul\":2392:2401   */\n      dup4\n        /* \"#utility.yul\":2388:2406   */\n      add\n        /* \"#utility.yul\":2379:2385   */\n      dup7\n        /* \"#utility.yul\":2335:2407   */\n      tag_92\n      jump\t// in\n    tag_155:\n        /* \"#utility.yul\":2417:2489   */\n      tag_156\n        /* \"#utility.yul\":2485:2487   */\n      0x40\n        /* \"#utility.yul\":2474:2483   */\n      dup4\n        /* \"#utility.yul\":2470:2488   */\n      add\n        /* \"#utility.yul\":2461:2467   */\n      dup6\n        /* \"#utility.yul\":2417:2489   */\n      tag_95\n      jump\t// in\n    tag_156:\n        /* \"#utility.yul\":2499:2571   */\n      tag_157\n        /* \"#utility.yul\":2567:2569   */\n      0x60\n        /* \"#utility.yul\":2556:2565   */\n      dup4\n        /* \"#utility.yul\":2552:2570   */\n      add\n        /* \"#utility.yul\":2543:2549   */\n      dup5\n        /* \"#utility.yul\":2499:2571   */\n      tag_92\n      jump\t// in\n    tag_157:\n        /* \"#utility.yul\":2025:2578   */\n      swap6\n      swap5\n      pop\n      pop\n      pop\n      pop\n      pop\n      jump\t// out\n        /* \"#utility.yul\":2584:2701   */\n    tag_96:\n        /* \"#utility.yul\":2693:2694   */\n      0x00\n        /* \"#utility.yul\":2690:2691   */\n      dup1\n        /* \"#utility.yul\":2683:2695   */\n      revert\n        /* \"#utility.yul\":2707:2824   */\n    tag_97:\n        /* \"#utility.yul\":2816:2817   */\n      0x00\n        /* \"#utility.yul\":2813:2814   */\n      dup1\n        /* \"#utility.yul\":2806:2818   */\n      revert\n        /* \"#utility.yul\":2830:2932   */\n    tag_98:\n        /* \"#utility.yul\":2871:2877   */\n      0x00\n        /* \"#utility.yul\":2922:2924   */\n      0x1f\n        /* \"#utility.yul\":2918:2925   */\n      not\n        /* \"#utility.yul\":2913:2915   */\n      0x1f\n        /* \"#utility.yul\":2906:2911   */\n      dup4\n        /* \"#utility.yul\":2902:2916   */\n      add\n        /* \"#utility.yul\":2898:2926   */\n      and\n        /* \"#utility.yul\":2888:2926   */\n      swap1\n      pop\n        /* \"#utility.yul\":2830:2932   */\n      swap2\n      swap1\n      pop\n      jump\t// out\n        /* \"#utility.yul\":2938:3118   */\n    tag_99:\n        /* \"#utility.yul\":2986:3063   */\n      0x4e487b7100000000000000000000000000000000000000000000000000000000\n        /* \"#utility.yul\":2983:2984   */\n      0x00\n        /* \"#utility.yul\":2976:3064   */\n      mstore\n        /* \"#utility.yul\":3083:3087   */\n      0x41\n        /* \"#utility.yul\":3080:3081   */\n      0x04\n        /* \"#utility.yul\":3073:3088   */\n      mstore\n        /* \"#utility.yul\":3107:3111   */\n      0x24\n        /* \"#utility.yul\":3104:3105   */\n      0x00\n        /* \"#utility.yul\":3097:3112   */\n      revert\n        /* \"#utility.yul\":3124:3405   */\n    tag_100:\n        /* \"#utility.yul\":3207:3234   */\n      tag_163\n        /* \"#utility.yul\":3229:3233   */\n      dup3\n        /* \"#utility.yul\":3207:3234   */\n      tag_98\n      jump\t// in\n    tag_163:\n        /* \"#utility.yul\":3199:3205   */\n      dup2\n        /* \"#utility.yul\":3195:3235   */\n      add\n        /* \"#utility.yul\":3337:3343   */\n      dup2\n        /* \"#utility.yul\":3325:3335   */\n      dup2\n        /* \"#utility.yul\":3322:3344   */\n      lt\n        /* \"#utility.yul\":3301:3319   */\n      0xffffffffffffffff\n        /* \"#utility.yul\":3289:3299   */\n      dup3\n        /* \"#utility.yul\":3286:3320   */\n      gt\n        /* \"#utility.yul\":3283:3345   */\n      or\n        /* \"#utility.yul\":3280:3368   */\n      iszero\n      tag_164\n      jumpi\n        /* \"#utility.yul\":3348:3366   */\n      tag_165\n      tag_99\n      jump\t// in\n    tag_165:\n        /* \"#utility.yul\":3280:3368   */\n    tag_164:\n        /* \"#utility.yul\":3388:3398   */\n      dup1\n        /* \"#utility.yul\":3384:3386   */\n      0x40\n        /* \"#utility.yul\":3377:3399   */\n      mstore\n        /* \"#utility.yul\":3167:3405   */\n      pop\n        /* \"#utility.yul\":3124:3405   */\n      pop\n      pop\n      jump\t// out\n        /* \"#utility.yul\":3411:3540   */\n    tag_101:\n        /* \"#utility.yul\":3445:3451   */\n      0x00\n        /* \"#utility.yul\":3472:3492   */\n      tag_167\n      tag_86\n      jump\t// in\n    tag_167:\n        /* \"#utility.yul\":3462:3492   */\n      swap1\n      pop\n        /* \"#utility.yul\":3501:3534   */\n      tag_168\n        /* \"#utility.yul\":3529:3533   */\n      dup3\n        /* \"#utility.yul\":3521:3527   */\n      dup3\n        /* \"#utility.yul\":3501:3534   */\n      tag_100\n      jump\t// in\n    tag_168:\n        /* \"#utility.yul\":3411:3540   */\n      swap2\n      swap1\n      pop\n      jump\t// out\n        /* \"#utility.yul\":3546:3854   */\n    tag_102:\n        /* \"#utility.yul\":3608:3612   */\n      0x00\n        /* \"#utility.yul\":3698:3716   */\n      0xffffffffffffffff\n        /* \"#utility.yul\":3690:3696   */\n      dup3\n        /* \"#utility.yul\":3687:3717   */\n      gt\n        /* \"#utility.yul\":3684:3740   */\n      iszero\n      tag_170\n      jumpi\n        /* \"#utility.yul\":3720:3738   */\n      tag_171\n      tag_99\n      jump\t// in\n    tag_171:\n        /* \"#utility.yul\":3684:3740   */\n    tag_170:\n        /* \"#utility.yul\":3758:3787   */\n      tag_172\n        /* \"#utility.yul\":3780:3786   */\n      dup3\n        /* \"#utility.yul\":3758:3787   */\n      tag_98\n      jump\t// in\n    tag_172:\n        /* \"#utility.yul\":3750:3787   */\n      swap1\n      pop\n        /* \"#utility.yul\":3842:3846   */\n      0x20\n        /* \"#utility.yul\":3836:3840   */\n      dup2\n        /* \"#utility.yul\":3832:3847   */\n      add\n        /* \"#utility.yul\":3824:3847   */\n      swap1\n      pop\n        /* \"#utility.yul\":3546:3854   */\n      swap2\n      swap1\n      pop\n      jump\t// out\n        /* \"#utility.yul\":3860:4008   */\n    tag_103:\n        /* \"#utility.yul\":3958:3964   */\n      dup3\n        /* \"#utility.yul\":3953:3956   */\n      dup2\n        /* \"#utility.yul\":3948:3951   */\n      dup4\n        /* \"#utility.yul\":3935:3965   */\n      calldatacopy\n        /* \"#utility.yul\":3999:4000   */\n      0x00\n        /* \"#utility.yul\":3990:3996   */\n      dup4\n        /* \"#utility.yul\":3985:3988   */\n      dup4\n        /* \"#utility.yul\":3981:3997   */\n      add\n        /* \"#utility.yul\":3974:4001   */\n      mstore\n        /* \"#utility.yul\":3860:4008   */\n      pop\n      pop\n      pop\n      jump\t// out\n        /* \"#utility.yul\":4014:4439   */\n    tag_104:\n        /* \"#utility.yul\":4092:4097   */\n      0x00\n        /* \"#utility.yul\":4117:4183   */\n      tag_175\n        /* \"#utility.yul\":4133:4182   */\n      tag_176\n        /* \"#utility.yul\":4175:4181   */\n      dup5\n        /* \"#utility.yul\":4133:4182   */\n      tag_102\n      jump\t// in\n    tag_176:\n        /* \"#utility.yul\":4117:4183   */\n      tag_101\n      jump\t// in\n    tag_175:\n        /* \"#utility.yul\":4108:4183   */\n      swap1\n      pop\n        /* \"#utility.yul\":4206:4212   */\n      dup3\n        /* \"#utility.yul\":4199:4204   */\n      dup2\n        /* \"#utility.yul\":4192:4213   */\n      mstore\n        /* \"#utility.yul\":4244:4248   */\n      0x20\n        /* \"#utility.yul\":4237:4242   */\n      dup2\n        /* \"#utility.yul\":4233:4249   */\n      add\n        /* \"#utility.yul\":4282:4285   */\n      dup5\n        /* \"#utility.yul\":4273:4279   */\n      dup5\n        /* \"#utility.yul\":4268:4271   */\n      dup5\n        /* \"#utility.yul\":4264:4280   */\n      add\n        /* \"#utility.yul\":4261:4286   */\n      gt\n        /* \"#utility.yul\":4258:4370   */\n      iszero\n      tag_177\n      jumpi\n        /* \"#utility.yul\":4289:4368   */\n      tag_178\n      tag_97\n      jump\t// in\n    tag_178:\n        /* \"#utility.yul\":4258:4370   */\n    tag_177:\n        /* \"#utility.yul\":4379:4433   */\n      tag_179\n        /* \"#utility.yul\":4426:4432   */\n      dup5\n        /* \"#utility.yul\":4421:4424   */\n      dup3\n        /* \"#utility.yul\":4416:4419   */\n      dup6\n        /* \"#utility.yul\":4379:4433   */\n      tag_103\n      jump\t// in\n    tag_179:\n        /* \"#utility.yul\":4098:4439   */\n      pop\n        /* \"#utility.yul\":4014:4439   */\n      swap4\n      swap3\n      pop\n      pop\n      pop\n      jump\t// out\n        /* \"#utility.yul\":4459:4799   */\n    tag_105:\n        /* \"#utility.yul\":4515:4520   */\n      0x00\n        /* \"#utility.yul\":4564:4567   */\n      dup3\n        /* \"#utility.yul\":4557:4561   */\n      0x1f\n        /* \"#utility.yul\":4549:4555   */\n      dup4\n        /* \"#utility.yul\":4545:4562   */\n      add\n        /* \"#utility.yul\":4541:4568   */\n      slt\n        /* \"#utility.yul\":4531:4653   */\n      tag_181\n      jumpi\n        /* \"#utility.yul\":4572:4651   */\n      tag_182\n      tag_96\n      jump\t// in\n    tag_182:\n        /* \"#utility.yul\":4531:4653   */\n    tag_181:\n        /* \"#utility.yul\":4689:4695   */\n      dup2\n        /* \"#utility.yul\":4676:4696   */\n      calldataload\n        /* \"#utility.yul\":4714:4793   */\n      tag_183\n        /* \"#utility.yul\":4789:4792   */\n      dup5\n        /* \"#utility.yul\":4781:4787   */\n      dup3\n        /* \"#utility.yul\":4774:4778   */\n      0x20\n        /* \"#utility.yul\":4766:4772   */\n      dup7\n        /* \"#utility.yul\":4762:4779   */\n      add\n        /* \"#utility.yul\":4714:4793   */\n      tag_104\n      jump\t// in\n    tag_183:\n        /* \"#utility.yul\":4705:4793   */\n      swap2\n      pop\n        /* \"#utility.yul\":4521:4799   */\n      pop\n        /* \"#utility.yul\":4459:4799   */\n      swap3\n      swap2\n      pop\n      pop\n      jump\t// out\n        /* \"#utility.yul\":4805:5314   */\n    tag_35:\n        /* \"#utility.yul\":4874:4880   */\n      0x00\n        /* \"#utility.yul\":4923:4925   */\n      0x20\n        /* \"#utility.yul\":4911:4920   */\n      dup3\n        /* \"#utility.yul\":4902:4909   */\n      dup5\n        /* \"#utility.yul\":4898:4921   */\n      sub\n        /* \"#utility.yul\":4894:4926   */\n      slt\n        /* \"#utility.yul\":4891:5010   */\n      iszero\n      tag_185\n      jumpi\n        /* \"#utility.yul\":4929:5008   */\n      tag_186\n      tag_87\n      jump\t// in\n    tag_186:\n        /* \"#utility.yul\":4891:5010   */\n    tag_185:\n        /* \"#utility.yul\":5077:5078   */\n      0x00\n        /* \"#utility.yul\":5066:5075   */\n      dup3\n        /* \"#utility.yul\":5062:5079   */\n      add\n        /* \"#utility.yul\":5049:5080   */\n      calldataload\n        /* \"#utility.yul\":5107:5125   */\n      0xffffffffffffffff\n        /* \"#utility.yul\":5099:5105   */\n      dup2\n        /* \"#utility.yul\":5096:5126   */\n      gt\n        /* \"#utility.yul\":5093:5210   */\n      iszero\n      tag_187\n      jumpi\n        /* \"#utility.yul\":5129:5208   */\n      tag_188\n      tag_88\n      jump\t// in\n    tag_188:\n        /* \"#utility.yul\":5093:5210   */\n    tag_187:\n        /* \"#utility.yul\":5234:5297   */\n      tag_189\n        /* \"#utility.yul\":5289:5296   */\n      dup5\n        /* \"#utility.yul\":5280:5286   */\n      dup3\n        /* \"#utility.yul\":5269:5278   */\n      dup6\n        /* \"#utility.yul\":5265:5287   */\n      add\n        /* \"#utility.yul\":5234:5297   */\n      tag_105\n      jump\t// in\n    tag_189:\n        /* \"#utility.yul\":5224:5297   */\n      swap2\n      pop\n        /* \"#utility.yul\":5020:5307   */\n      pop\n        /* \"#utility.yul\":4805:5314   */\n      swap3\n      swap2\n      pop\n      pop\n      jump\t// out\n        /* \"#utility.yul\":5320:5397   */\n    tag_106:\n        /* \"#utility.yul\":5357:5364   */\n      0x00\n        /* \"#utility.yul\":5386:5391   */\n      dup2\n        /* \"#utility.yul\":5375:5391   */\n      swap1\n      pop\n        /* \"#utility.yul\":5320:5397   */\n      swap2\n      swap1\n      pop\n      jump\t// out\n        /* \"#utility.yul\":5403:5521   */\n    tag_107:\n        /* \"#utility.yul\":5490:5514   */\n      tag_192\n        /* \"#utility.yul\":5508:5513   */\n      dup2\n        /* \"#utility.yul\":5490:5514   */\n      tag_106\n      jump\t// in\n    tag_192:\n        /* \"#utility.yul\":5485:5488   */\n      dup3\n        /* \"#utility.yul\":5478:5515   */\n      mstore\n        /* \"#utility.yul\":5403:5521   */\n      pop\n      pop\n      jump\t// out\n        /* \"#utility.yul\":5527:5749   */\n    tag_38:\n        /* \"#utility.yul\":5620:5624   */\n      0x00\n        /* \"#utility.yul\":5658:5660   */\n      0x20\n        /* \"#utility.yul\":5647:5656   */\n      dup3\n        /* \"#utility.yul\":5643:5661   */\n      add\n        /* \"#utility.yul\":5635:5661   */\n      swap1\n      pop\n        /* \"#utility.yul\":5671:5742   */\n      tag_194\n        /* \"#utility.yul\":5739:5740   */\n      0x00\n        /* \"#utility.yul\":5728:5737   */\n      dup4\n        /* \"#utility.yul\":5724:5741   */\n      add\n        /* \"#utility.yul\":5715:5721   */\n      dup5\n        /* \"#utility.yul\":5671:5742   */\n      tag_107\n      jump\t// in\n    tag_194:\n        /* \"#utility.yul\":5527:5749   */\n      swap3\n      swap2\n      pop\n      pop\n      jump\t// out\n        /* \"#utility.yul\":5755:5977   */\n    tag_42:\n        /* \"#utility.yul\":5848:5852   */\n      0x00\n        /* \"#utility.yul\":5886:5888   */\n      0x20\n        /* \"#utility.yul\":5875:5884   */\n      dup3\n        /* \"#utility.yul\":5871:5889   */\n      add\n        /* \"#utility.yul\":5863:5889   */\n      swap1\n      pop\n        /* \"#utility.yul\":5899:5970   */\n      tag_196\n        /* \"#utility.yul\":5967:5968   */\n      0x00\n        /* \"#utility.yul\":5956:5965   */\n      dup4\n        /* \"#utility.yul\":5952:5969   */\n      add\n        /* \"#utility.yul\":5943:5949   */\n      dup5\n        /* \"#utility.yul\":5899:5970   */\n      tag_95\n      jump\t// in\n    tag_196:\n        /* \"#utility.yul\":5755:5977   */\n      swap3\n      swap2\n      pop\n      pop\n      jump\t// out\n        /* \"#utility.yul\":5983:6105   */\n    tag_108:\n        /* \"#utility.yul\":6056:6080   */\n      tag_198\n        /* \"#utility.yul\":6074:6079   */\n      dup2\n        /* \"#utility.yul\":6056:6080   */\n      tag_106\n      jump\t// in\n    tag_198:\n        /* \"#utility.yul\":6049:6054   */\n      dup2\n        /* \"#utility.yul\":6046:6081   */\n      eq\n        /* \"#utility.yul\":6036:6099   */\n      tag_199\n      jumpi\n        /* \"#utility.yul\":6095:6096   */\n      0x00\n        /* \"#utility.yul\":6092:6093   */\n      dup1\n        /* \"#utility.yul\":6085:6097   */\n      revert\n        /* \"#utility.yul\":6036:6099   */\n    tag_199:\n        /* \"#utility.yul\":5983:6105   */\n      pop\n      jump\t// out\n        /* \"#utility.yul\":6111:6250   */\n    tag_109:\n        /* \"#utility.yul\":6157:6162   */\n      0x00\n        /* \"#utility.yul\":6195:6201   */\n      dup2\n        /* \"#utility.yul\":6182:6202   */\n      calldataload\n        /* \"#utility.yul\":6173:6202   */\n      swap1\n      pop\n        /* \"#utility.yul\":6211:6244   */\n      tag_201\n        /* \"#utility.yul\":6238:6243   */\n      dup2\n        /* \"#utility.yul\":6211:6244   */\n      tag_108\n      jump\t// in\n    tag_201:\n        /* \"#utility.yul\":6111:6250   */\n      swap3\n      swap2\n      pop\n      pop\n      jump\t// out\n        /* \"#utility.yul\":6256:6910   */\n    tag_45:\n        /* \"#utility.yul\":6334:6340   */\n      0x00\n        /* \"#utility.yul\":6342:6348   */\n      dup1\n        /* \"#utility.yul\":6391:6393   */\n      0x40\n        /* \"#utility.yul\":6379:6388   */\n      dup4\n        /* \"#utility.yul\":6370:6377   */\n      dup6\n        /* \"#utility.yul\":6366:6389   */\n      sub\n        /* \"#utility.yul\":6362:6394   */\n      slt\n        /* \"#utility.yul\":6359:6478   */\n      iszero\n      tag_203\n      jumpi\n        /* \"#utility.yul\":6397:6476   */\n      tag_204\n      tag_87\n      jump\t// in\n    tag_204:\n        /* \"#utility.yul\":6359:6478   */\n    tag_203:\n        /* \"#utility.yul\":6545:6546   */\n      0x00\n        /* \"#utility.yul\":6534:6543   */\n      dup4\n        /* \"#utility.yul\":6530:6547   */\n      add\n        /* \"#utility.yul\":6517:6548   */\n      calldataload\n        /* \"#utility.yul\":6575:6593   */\n      0xffffffffffffffff\n        /* \"#utility.yul\":6567:6573   */\n      dup2\n        /* \"#utility.yul\":6564:6594   */\n      gt\n        /* \"#utility.yul\":6561:6678   */\n      iszero\n      tag_205\n      jumpi\n        /* \"#utility.yul\":6597:6676   */\n      tag_206\n      tag_88\n      jump\t// in\n    tag_206:\n        /* \"#utility.yul\":6561:6678   */\n    tag_205:\n        /* \"#utility.yul\":6702:6765   */\n      tag_207\n        /* \"#utility.yul\":6757:6764   */\n      dup6\n        /* \"#utility.yul\":6748:6754   */\n      dup3\n        /* \"#utility.yul\":6737:6746   */\n      dup7\n        /* \"#utility.yul\":6733:6755   */\n      add\n        /* \"#utility.yul\":6702:6765   */\n      tag_105\n      jump\t// in\n    tag_207:\n        /* \"#utility.yul\":6692:6765   */\n      swap3\n      pop\n        /* \"#utility.yul\":6488:6775   */\n      pop\n        /* \"#utility.yul\":6814:6816   */\n      0x20\n        /* \"#utility.yul\":6840:6893   */\n      tag_208\n        /* \"#utility.yul\":6885:6892   */\n      dup6\n        /* \"#utility.yul\":6876:6882   */\n      dup3\n        /* \"#utility.yul\":6865:6874   */\n      dup7\n        /* \"#utility.yul\":6861:6883   */\n      add\n        /* \"#utility.yul\":6840:6893   */\n      tag_109\n      jump\t// in\n    tag_208:\n        /* \"#utility.yul\":6830:6893   */\n      swap2\n      pop\n        /* \"#utility.yul\":6785:6903   */\n      pop\n        /* \"#utility.yul\":6256:6910   */\n      swap3\n      pop\n      swap3\n      swap1\n      pop\n      jump\t// out\n        /* \"#utility.yul\":6916:7006   */\n    tag_110:\n        /* \"#utility.yul\":6950:6957   */\n      0x00\n        /* \"#utility.yul\":6993:6998   */\n      dup2\n        /* \"#utility.yul\":6986:6999   */\n      iszero\n        /* \"#utility.yul\":6979:7000   */\n      iszero\n        /* \"#utility.yul\":6968:7000   */\n      swap1\n      pop\n        /* \"#utility.yul\":6916:7006   */\n      swap2\n      swap1\n      pop\n      jump\t// out\n        /* \"#utility.yul\":7012:7121   */\n    tag_111:\n        /* \"#utility.yul\":7093:7114   */\n      tag_211\n        /* \"#utility.yul\":7108:7113   */\n      dup2\n        /* \"#utility.yul\":7093:7114   */\n      tag_110\n      jump\t// in\n    tag_211:\n        /* \"#utility.yul\":7088:7091   */\n      dup3\n        /* \"#utility.yul\":7081:7115   */\n      mstore\n        /* \"#utility.yul\":7012:7121   */\n      pop\n      pop\n      jump\t// out\n        /* \"#utility.yul\":7127:7337   */\n    tag_48:\n        /* \"#utility.yul\":7214:7218   */\n      0x00\n        /* \"#utility.yul\":7252:7254   */\n      0x20\n        /* \"#utility.yul\":7241:7250   */\n      dup3\n        /* \"#utility.yul\":7237:7255   */\n      add\n        /* \"#utility.yul\":7229:7255   */\n      swap1\n      pop\n        /* \"#utility.yul\":7265:7330   */\n      tag_213\n        /* \"#utility.yul\":7327:7328   */\n      0x00\n        /* \"#utility.yul\":7316:7325   */\n      dup4\n        /* \"#utility.yul\":7312:7329   */\n      add\n        /* \"#utility.yul\":7303:7309   */\n      dup5\n        /* \"#utility.yul\":7265:7330   */\n      tag_111\n      jump\t// in\n    tag_213:\n        /* \"#utility.yul\":7127:7337   */\n      swap3\n      swap2\n      pop\n      pop\n      jump\t// out\n        /* \"#utility.yul\":7343:7817   */\n    tag_51:\n        /* \"#utility.yul\":7411:7417   */\n      0x00\n        /* \"#utility.yul\":7419:7425   */\n      dup1\n        /* \"#utility.yul\":7468:7470   */\n      0x40\n        /* \"#utility.yul\":7456:7465   */\n      dup4\n        /* \"#utility.yul\":7447:7454   */\n      dup6\n        /* \"#utility.yul\":7443:7466   */\n      sub\n        /* \"#utility.yul\":7439:7471   */\n      slt\n        /* \"#utility.yul\":7436:7555   */\n      iszero\n      tag_215\n      jumpi\n        /* \"#utility.yul\":7474:7553   */\n      tag_216\n      tag_87\n      jump\t// in\n    tag_216:\n        /* \"#utility.yul\":7436:7555   */\n    tag_215:\n        /* \"#utility.yul\":7594:7595   */\n      0x00\n        /* \"#utility.yul\":7619:7672   */\n      tag_217\n        /* \"#utility.yul\":7664:7671   */\n      dup6\n        /* \"#utility.yul\":7655:7661   */\n      dup3\n        /* \"#utility.yul\":7644:7653   */\n      dup7\n        /* \"#utility.yul\":7640:7662   */\n      add\n        /* \"#utility.yul\":7619:7672   */\n      tag_91\n      jump\t// in\n    tag_217:\n        /* \"#utility.yul\":7609:7672   */\n      swap3\n      pop\n        /* \"#utility.yul\":7565:7682   */\n      pop\n        /* \"#utility.yul\":7721:7723   */\n      0x20\n        /* \"#utility.yul\":7747:7800   */\n      tag_218\n        /* \"#utility.yul\":7792:7799   */\n      dup6\n        /* \"#utility.yul\":7783:7789   */\n      dup3\n        /* \"#utility.yul\":7772:7781   */\n      dup7\n        /* \"#utility.yul\":7768:7790   */\n      add\n        /* \"#utility.yul\":7747:7800   */\n      tag_91\n      jump\t// in\n    tag_218:\n        /* \"#utility.yul\":7737:7800   */\n      swap2\n      pop\n        /* \"#utility.yul\":7692:7810   */\n      pop\n        /* \"#utility.yul\":7343:7817   */\n      swap3\n      pop\n      swap3\n      swap1\n      pop\n      jump\t// out\n        /* \"#utility.yul\":7823:7921   */\n    tag_112:\n        /* \"#utility.yul\":7874:7880   */\n      0x00\n        /* \"#utility.yul\":7908:7913   */\n      dup2\n        /* \"#utility.yul\":7902:7914   */\n      mload\n        /* \"#utility.yul\":7892:7914   */\n      swap1\n      pop\n        /* \"#utility.yul\":7823:7921   */\n      swap2\n      swap1\n      pop\n      jump\t// out\n        /* \"#utility.yul\":7927:8095   */\n    tag_113:\n        /* \"#utility.yul\":8010:8021   */\n      0x00\n        /* \"#utility.yul\":8044:8050   */\n      dup3\n        /* \"#utility.yul\":8039:8042   */\n      dup3\n        /* \"#utility.yul\":8032:8051   */\n      mstore\n        /* \"#utility.yul\":8084:8088   */\n      0x20\n        /* \"#utility.yul\":8079:8082   */\n      dup3\n        /* \"#utility.yul\":8075:8089   */\n      add\n        /* \"#utility.yul\":8060:8089   */\n      swap1\n      pop\n        /* \"#utility.yul\":7927:8095   */\n      swap3\n      swap2\n      pop\n      pop\n      jump\t// out\n        /* \"#utility.yul\":8101:8240   */\n    tag_114:\n        /* \"#utility.yul\":8190:8196   */\n      dup3\n        /* \"#utility.yul\":8185:8188   */\n      dup2\n        /* \"#utility.yul\":8180:8183   */\n      dup4\n        /* \"#utility.yul\":8174:8197   */\n      mcopy\n        /* \"#utility.yul\":8231:8232   */\n      0x00\n        /* \"#utility.yul\":8222:8228   */\n      dup4\n        /* \"#utility.yul\":8217:8220   */\n      dup4\n        /* \"#utility.yul\":8213:8229   */\n      add\n        /* \"#utility.yul\":8206:8233   */\n      mstore\n        /* \"#utility.yul\":8101:8240   */\n      pop\n      pop\n      pop\n      jump\t// out\n        /* \"#utility.yul\":8246:8619   */\n    tag_115:\n        /* \"#utility.yul\":8332:8335   */\n      0x00\n        /* \"#utility.yul\":8360:8398   */\n      tag_223\n        /* \"#utility.yul\":8392:8397   */\n      dup3\n        /* \"#utility.yul\":8360:8398   */\n      tag_112\n      jump\t// in\n    tag_223:\n        /* \"#utility.yul\":8414:8484   */\n      tag_224\n        /* \"#utility.yul\":8477:8483   */\n      dup2\n        /* \"#utility.yul\":8472:8475   */\n      dup6\n        /* \"#utility.yul\":8414:8484   */\n      tag_113\n      jump\t// in\n    tag_224:\n        /* \"#utility.yul\":8407:8484   */\n      swap4\n      pop\n        /* \"#utility.yul\":8493:8558   */\n      tag_225\n        /* \"#utility.yul\":8551:8557   */\n      dup2\n        /* \"#utility.yul\":8546:8549   */\n      dup6\n        /* \"#utility.yul\":8539:8543   */\n      0x20\n        /* \"#utility.yul\":8532:8537   */\n      dup7\n        /* \"#utility.yul\":8528:8544   */\n      add\n        /* \"#utility.yul\":8493:8558   */\n      tag_114\n      jump\t// in\n    tag_225:\n        /* \"#utility.yul\":8583:8612   */\n      tag_226\n        /* \"#utility.yul\":8605:8611   */\n      dup2\n        /* \"#utility.yul\":8583:8612   */\n      tag_98\n      jump\t// in\n    tag_226:\n        /* \"#utility.yul\":8578:8581   */\n      dup5\n        /* \"#utility.yul\":8574:8613   */\n      add\n        /* \"#utility.yul\":8567:8613   */\n      swap2\n      pop\n        /* \"#utility.yul\":8336:8619   */\n      pop\n        /* \"#utility.yul\":8246:8619   */\n      swap3\n      swap2\n      pop\n      pop\n      jump\t// out\n        /* \"#utility.yul\":8625:8934   */\n    tag_54:\n        /* \"#utility.yul\":8736:8740   */\n      0x00\n        /* \"#utility.yul\":8774:8776   */\n      0x20\n        /* \"#utility.yul\":8763:8772   */\n      dup3\n        /* \"#utility.yul\":8759:8777   */\n      add\n        /* \"#utility.yul\":8751:8777   */\n      swap1\n      pop\n        /* \"#utility.yul\":8823:8832   */\n      dup2\n        /* \"#utility.yul\":8817:8821   */\n      dup2\n        /* \"#utility.yul\":8813:8833   */\n      sub\n        /* \"#utility.yul\":8809:8810   */\n      0x00\n        /* \"#utility.yul\":8798:8807   */\n      dup4\n        /* \"#utility.yul\":8794:8811   */\n      add\n        /* \"#utility.yul\":8787:8834   */\n      mstore\n        /* \"#utility.yul\":8851:8927   */\n      tag_228\n        /* \"#utility.yul\":8922:8926   */\n      dup2\n        /* \"#utility.yul\":8913:8919   */\n      dup5\n        /* \"#utility.yul\":8851:8927   */\n      tag_115\n      jump\t// in\n    tag_228:\n        /* \"#utility.yul\":8843:8927   */\n      swap1\n      pop\n        /* \"#utility.yul\":8625:8934   */\n      swap3\n      swap2\n      pop\n      pop\n      jump\t// out\n        /* \"#utility.yul\":8940:9247   */\n    tag_116:\n        /* \"#utility.yul\":9001:9005   */\n      0x00\n        /* \"#utility.yul\":9091:9109   */\n      0xffffffffffffffff\n        /* \"#utility.yul\":9083:9089   */\n      dup3\n        /* \"#utility.yul\":9080:9110   */\n      gt\n        /* \"#utility.yul\":9077:9133   */\n      iszero\n      tag_230\n      jumpi\n        /* \"#utility.yul\":9113:9131   */\n      tag_231\n      tag_99\n      jump\t// in\n    tag_231:\n        /* \"#utility.yul\":9077:9133   */\n    tag_230:\n        /* \"#utility.yul\":9151:9180   */\n      tag_232\n        /* \"#utility.yul\":9173:9179   */\n      dup3\n        /* \"#utility.yul\":9151:9180   */\n      tag_98\n      jump\t// in\n    tag_232:\n        /* \"#utility.yul\":9143:9180   */\n      swap1\n      pop\n        /* \"#utility.yul\":9235:9239   */\n      0x20\n        /* \"#utility.yul\":9229:9233   */\n      dup2\n        /* \"#utility.yul\":9225:9240   */\n      add\n        /* \"#utility.yul\":9217:9240   */\n      swap1\n      pop\n        /* \"#utility.yul\":8940:9247   */\n      swap2\n      swap1\n      pop\n      jump\t// out\n        /* \"#utility.yul\":9253:9676   */\n    tag_117:\n        /* \"#utility.yul\":9330:9335   */\n      0x00\n        /* \"#utility.yul\":9355:9420   */\n      tag_234\n        /* \"#utility.yul\":9371:9419   */\n      tag_235\n        /* \"#utility.yul\":9412:9418   */\n      dup5\n        /* \"#utility.yul\":9371:9419   */\n      tag_116\n      jump\t// in\n    tag_235:\n        /* \"#utility.yul\":9355:9420   */\n      tag_101\n      jump\t// in\n    tag_234:\n        /* \"#utility.yul\":9346:9420   */\n      swap1\n      pop\n        /* \"#utility.yul\":9443:9449   */\n      dup3\n        /* \"#utility.yul\":9436:9441   */\n      dup2\n        /* \"#utility.yul\":9429:9450   */\n      mstore\n        /* \"#utility.yul\":9481:9485   */\n      0x20\n        /* \"#utility.yul\":9474:9479   */\n      dup2\n        /* \"#utility.yul\":9470:9486   */\n      add\n        /* \"#utility.yul\":9519:9522   */\n      dup5\n        /* \"#utility.yul\":9510:9516   */\n      dup5\n        /* \"#utility.yul\":9505:9508   */\n      dup5\n        /* \"#utility.yul\":9501:9517   */\n      add\n        /* \"#utility.yul\":9498:9523   */\n      gt\n        /* \"#utility.yul\":9495:9607   */\n      iszero\n      tag_236\n      jumpi\n        /* \"#utility.yul\":9526:9605   */\n      tag_237\n      tag_97\n      jump\t// in\n    tag_237:\n        /* \"#utility.yul\":9495:9607   */\n    tag_236:\n        /* \"#utility.yul\":9616:9670   */\n      tag_238\n        /* \"#utility.yul\":9663:9669   */\n      dup5\n        /* \"#utility.yul\":9658:9661   */\n      dup3\n        /* \"#utility.yul\":9653:9656   */\n      dup6\n        /* \"#utility.yul\":9616:9670   */\n      tag_103\n      jump\t// in\n    tag_238:\n        /* \"#utility.yul\":9336:9676   */\n      pop\n        /* \"#utility.yul\":9253:9676   */\n      swap4\n      swap3\n      pop\n      pop\n      pop\n      jump\t// out\n        /* \"#utility.yul\":9695:10033   */\n    tag_118:\n        /* \"#utility.yul\":9750:9755   */\n      0x00\n        /* \"#utility.yul\":9799:9802   */\n      dup3\n        /* \"#utility.yul\":9792:9796   */\n      0x1f\n        /* \"#utility.yul\":9784:9790   */\n      dup4\n        /* \"#utility.yul\":9780:9797   */\n      add\n        /* \"#utility.yul\":9776:9803   */\n      slt\n        /* \"#utility.yul\":9766:9888   */\n      tag_240\n      jumpi\n        /* \"#utility.yul\":9807:9886   */\n      tag_241\n      tag_96\n      jump\t// in\n    tag_241:\n        /* \"#utility.yul\":9766:9888   */\n    tag_240:\n        /* \"#utility.yul\":9924:9930   */\n      dup2\n        /* \"#utility.yul\":9911:9931   */\n      calldataload\n        /* \"#utility.yul\":9949:10027   */\n      tag_242\n        /* \"#utility.yul\":10023:10026   */\n      dup5\n        /* \"#utility.yul\":10015:10021   */\n      dup3\n        /* \"#utility.yul\":10008:10012   */\n      0x20\n        /* \"#utility.yul\":10000:10006   */\n      dup7\n        /* \"#utility.yul\":9996:10013   */\n      add\n        /* \"#utility.yul\":9949:10027   */\n      tag_117\n      jump\t// in\n    tag_242:\n        /* \"#utility.yul\":9940:10027   */\n      swap2\n      pop\n        /* \"#utility.yul\":9756:10033   */\n      pop\n        /* \"#utility.yul\":9695:10033   */\n      swap3\n      swap2\n      pop\n      pop\n      jump\t// out\n        /* \"#utility.yul\":10039:10546   */\n    tag_57:\n        /* \"#utility.yul\":10107:10113   */\n      0x00\n        /* \"#utility.yul\":10156:10158   */\n      0x20\n        /* \"#utility.yul\":10144:10153   */\n      dup3\n        /* \"#utility.yul\":10135:10142   */\n      dup5\n        /* \"#utility.yul\":10131:10154   */\n      sub\n        /* \"#utility.yul\":10127:10159   */\n      slt\n        /* \"#utility.yul\":10124:10243   */\n      iszero\n      tag_244\n      jumpi\n        /* \"#utility.yul\":10162:10241   */\n      tag_245\n      tag_87\n      jump\t// in\n    tag_245:\n        /* \"#utility.yul\":10124:10243   */\n    tag_244:\n        /* \"#utility.yul\":10310:10311   */\n      0x00\n        /* \"#utility.yul\":10299:10308   */\n      dup3\n        /* \"#utility.yul\":10295:10312   */\n      add\n        /* \"#utility.yul\":10282:10313   */\n      calldataload\n        /* \"#utility.yul\":10340:10358   */\n      0xffffffffffffffff\n        /* \"#utility.yul\":10332:10338   */\n      dup2\n        /* \"#utility.yul\":10329:10359   */\n      gt\n        /* \"#utility.yul\":10326:10443   */\n      iszero\n      tag_246\n      jumpi\n        /* \"#utility.yul\":10362:10441   */\n      tag_247\n      tag_88\n      jump\t// in\n    tag_247:\n        /* \"#utility.yul\":10326:10443   */\n    tag_246:\n        /* \"#utility.yul\":10467:10529   */\n      tag_248\n        /* \"#utility.yul\":10521:10528   */\n      dup5\n        /* \"#utility.yul\":10512:10518   */\n      dup3\n        /* \"#utility.yul\":10501:10510   */\n      dup6\n        /* \"#utility.yul\":10497:10519   */\n      add\n        /* \"#utility.yul\":10467:10529   */\n      tag_118\n      jump\t// in\n    tag_248:\n        /* \"#utility.yul\":10457:10529   */\n      swap2\n      pop\n        /* \"#utility.yul\":10253:10539   */\n      pop\n        /* \"#utility.yul\":10039:10546   */\n      swap3\n      swap2\n      pop\n      pop\n      jump\t// out\n        /* \"#utility.yul\":10552:10884   */\n    tag_60:\n        /* \"#utility.yul\":10673:10677   */\n      0x00\n        /* \"#utility.yul\":10711:10713   */\n      0x40\n        /* \"#utility.yul\":10700:10709   */\n      dup3\n        /* \"#utility.yul\":10696:10714   */\n      add\n        /* \"#utility.yul\":10688:10714   */\n      swap1\n      pop\n        /* \"#utility.yul\":10724:10795   */\n      tag_250\n        /* \"#utility.yul\":10792:10793   */\n      0x00\n        /* \"#utility.yul\":10781:10790   */\n      dup4\n        /* \"#utility.yul\":10777:10794   */\n      add\n        /* \"#utility.yul\":10768:10774   */\n      dup6\n        /* \"#utility.yul\":10724:10795   */\n      tag_92\n      jump\t// in\n    tag_250:\n        /* \"#utility.yul\":10805:10877   */\n      tag_251\n        /* \"#utility.yul\":10873:10875   */\n      0x20\n        /* \"#utility.yul\":10862:10871   */\n      dup4\n        /* \"#utility.yul\":10858:10876   */\n      add\n        /* \"#utility.yul\":10849:10855   */\n      dup5\n        /* \"#utility.yul\":10805:10877   */\n      tag_92\n      jump\t// in\n    tag_251:\n        /* \"#utility.yul\":10552:10884   */\n      swap4\n      swap3\n      pop\n      pop\n      pop\n      jump\t// out\n        /* \"#utility.yul\":10890:11070   */\n    tag_64:\n        /* \"#utility.yul\":10938:11015   */\n      0x4e487b7100000000000000000000000000000000000000000000000000000000\n        /* \"#utility.yul\":10935:10936   */\n      0x00\n        /* \"#utility.yul\":10928:11016   */\n      mstore\n        /* \"#utility.yul\":11035:11039   */\n      0x12\n        /* \"#utility.yul\":11032:11033   */\n      0x04\n        /* \"#utility.yul\":11025:11040   */\n      mstore\n        /* \"#utility.yul\":11059:11063   */\n      0x24\n        /* \"#utility.yul\":11056:11057   */\n      0x00\n        /* \"#utility.yul\":11049:11064   */\n      revert\n        /* \"#utility.yul\":11076:11245   */\n    tag_119:\n        /* \"#utility.yul\":11160:11171   */\n      0x00\n        /* \"#utility.yul\":11194:11200   */\n      dup3\n        /* \"#utility.yul\":11189:11192   */\n      dup3\n        /* \"#utility.yul\":11182:11201   */\n      mstore\n        /* \"#utility.yul\":11234:11238   */\n      0x20\n        /* \"#utility.yul\":11229:11232   */\n      dup3\n        /* \"#utility.yul\":11225:11239   */\n      add\n        /* \"#utility.yul\":11210:11239   */\n      swap1\n      pop\n        /* \"#utility.yul\":11076:11245   */\n      swap3\n      swap2\n      pop\n      pop\n      jump\t// out\n        /* \"#utility.yul\":11251:11404   */\n    tag_120:\n        /* \"#utility.yul\":11391:11396   */\n      0x6164640000000000000000000000000000000000000000000000000000000000\n        /* \"#utility.yul\":11387:11388   */\n      0x00\n        /* \"#utility.yul\":11379:11385   */\n      dup3\n        /* \"#utility.yul\":11375:11389   */\n      add\n        /* \"#utility.yul\":11368:11397   */\n      mstore\n        /* \"#utility.yul\":11251:11404   */\n      pop\n      jump\t// out\n        /* \"#utility.yul\":11410:11775   */\n    tag_121:\n        /* \"#utility.yul\":11552:11555   */\n      0x00\n        /* \"#utility.yul\":11573:11639   */\n      tag_256\n        /* \"#utility.yul\":11637:11638   */\n      0x03\n        /* \"#utility.yul\":11632:11635   */\n      dup4\n        /* \"#utility.yul\":11573:11639   */\n      tag_119\n      jump\t// in\n    tag_256:\n        /* \"#utility.yul\":11566:11639   */\n      swap2\n      pop\n        /* \"#utility.yul\":11648:11741   */\n      tag_257\n        /* \"#utility.yul\":11737:11740   */\n      dup3\n        /* \"#utility.yul\":11648:11741   */\n      tag_120\n      jump\t// in\n    tag_257:\n        /* \"#utility.yul\":11766:11768   */\n      0x20\n        /* \"#utility.yul\":11761:11764   */\n      dup3\n        /* \"#utility.yul\":11757:11769   */\n      add\n        /* \"#utility.yul\":11750:11769   */\n      swap1\n      pop\n        /* \"#utility.yul\":11410:11775   */\n      swap2\n      swap1\n      pop\n      jump\t// out\n        /* \"#utility.yul\":11781:12310   */\n    tag_66:\n        /* \"#utility.yul\":11975:11979   */\n      0x00\n        /* \"#utility.yul\":12013:12015   */\n      0x40\n        /* \"#utility.yul\":12002:12011   */\n      dup3\n        /* \"#utility.yul\":11998:12016   */\n      add\n        /* \"#utility.yul\":11990:12016   */\n      swap1\n      pop\n        /* \"#utility.yul\":12026:12097   */\n      tag_259\n        /* \"#utility.yul\":12094:12095   */\n      0x00\n        /* \"#utility.yul\":12083:12092   */\n      dup4\n        /* \"#utility.yul\":12079:12096   */\n      add\n        /* \"#utility.yul\":12070:12076   */\n      dup5\n        /* \"#utility.yul\":12026:12097   */\n      tag_92\n      jump\t// in\n    tag_259:\n        /* \"#utility.yul\":12144:12153   */\n      dup2\n        /* \"#utility.yul\":12138:12142   */\n      dup2\n        /* \"#utility.yul\":12134:12154   */\n      sub\n        /* \"#utility.yul\":12129:12131   */\n      0x20\n        /* \"#utility.yul\":12118:12127   */\n      dup4\n        /* \"#utility.yul\":12114:12132   */\n      add\n        /* \"#utility.yul\":12107:12155   */\n      mstore\n        /* \"#utility.yul\":12172:12303   */\n      tag_260\n        /* \"#utility.yul\":12298:12302   */\n      dup2\n        /* \"#utility.yul\":12172:12303   */\n      tag_121\n      jump\t// in\n    tag_260:\n        /* \"#utility.yul\":12164:12303   */\n      swap1\n      pop\n        /* \"#utility.yul\":11781:12310   */\n      swap3\n      swap2\n      pop\n      pop\n      jump\t// out\n        /* \"#utility.yul\":12316:12469   */\n    tag_122:\n        /* \"#utility.yul\":12456:12461   */\n      0x6d756c0000000000000000000000000000000000000000000000000000000000\n        /* \"#utility.yul\":12452:12453   */\n      0x00\n        /* \"#utility.yul\":12444:12450   */\n      dup3\n        /* \"#utility.yul\":12440:12454   */\n      add\n        /* \"#utility.yul\":12433:12462   */\n      mstore\n        /* \"#utility.yul\":12316:12469   */\n      pop\n      jump\t// out\n        /* \"#utility.yul\":12475:12840   */\n    tag_123:\n        /* \"#utility.yul\":12617:12620   */\n      0x00\n        /* \"#utility.yul\":12638:12704   */\n      tag_263\n        /* \"#utility.yul\":12702:12703   */\n      0x03\n        /* \"#utility.yul\":12697:12700   */\n      dup4\n        /* \"#utility.yul\":12638:12704   */\n      tag_119\n      jump\t// in\n    tag_263:\n        /* \"#utility.yul\":12631:12704   */\n      swap2\n      pop\n        /* \"#utility.yul\":12713:12806   */\n      tag_264\n        /* \"#utility.yul\":12802:12805   */\n      dup3\n        /* \"#utility.yul\":12713:12806   */\n      tag_122\n      jump\t// in\n    tag_264:\n        /* \"#utility.yul\":12831:12833   */\n      0x20\n        /* \"#utility.yul\":12826:12829   */\n      dup3\n        /* \"#utility.yul\":12822:12834   */\n      add\n        /* \"#utility.yul\":12815:12834   */\n      swap1\n      pop\n        /* \"#utility.yul\":12475:12840   */\n      swap2\n      swap1\n      pop\n      jump\t// out\n        /* \"#utility.yul\":12846:13375   */\n    tag_71:\n        /* \"#utility.yul\":13040:13044   */\n      0x00\n        /* \"#utility.yul\":13078:13080   */\n      0x40\n        /* \"#utility.yul\":13067:13076   */\n      dup3\n        /* \"#utility.yul\":13063:13081   */\n      add\n        /* \"#utility.yul\":13055:13081   */\n      swap1\n      pop\n        /* \"#utility.yul\":13091:13162   */\n      tag_266\n        /* \"#utility.yul\":13159:13160   */\n      0x00\n        /* \"#utility.yul\":13148:13157   */\n      dup4\n        /* \"#utility.yul\":13144:13161   */\n      add\n        /* \"#utility.yul\":13135:13141   */\n      dup5\n        /* \"#utility.yul\":13091:13162   */\n      tag_92\n      jump\t// in\n    tag_266:\n        /* \"#utility.yul\":13209:13218   */\n      dup2\n        /* \"#utility.yul\":13203:13207   */\n      dup2\n        /* \"#utility.yul\":13199:13219   */\n      sub\n        /* \"#utility.yul\":13194:13196   */\n      0x20\n        /* \"#utility.yul\":13183:13192   */\n      dup4\n        /* \"#utility.yul\":13179:13197   */\n      add\n        /* \"#utility.yul\":13172:13220   */\n      mstore\n        /* \"#utility.yul\":13237:13368   */\n      tag_267\n        /* \"#utility.yul\":13363:13367   */\n      dup2\n        /* \"#utility.yul\":13237:13368   */\n      tag_123\n      jump\t// in\n    tag_267:\n        /* \"#utility.yul\":13229:13368   */\n      swap1\n      pop\n        /* \"#utility.yul\":12846:13375   */\n      swap3\n      swap2\n      pop\n      pop\n      jump\t// out\n        /* \"#utility.yul\":13381:13480   */\n    tag_124:\n        /* \"#utility.yul\":13433:13439   */\n      0x00\n        /* \"#utility.yul\":13467:13472   */\n      dup2\n        /* \"#utility.yul\":13461:13473   */\n      mload\n        /* \"#utility.yul\":13451:13473   */\n      swap1\n      pop\n        /* \"#utility.yul\":13381:13480   */\n      swap2\n      swap1\n      pop\n      jump\t// out\n        /* \"#utility.yul\":13486:13634   */\n    tag_125:\n        /* \"#utility.yul\":13588:13599   */\n      0x00\n        /* \"#utility.yul\":13625:13628   */\n      dup2\n        /* \"#utility.yul\":13610:13628   */\n      swap1\n      pop\n        /* \"#utility.yul\":13486:13634   */\n      swap3\n      swap2\n      pop\n      pop\n      jump\t// out\n        /* \"#utility.yul\":13640:14030   */\n    tag_126:\n        /* \"#utility.yul\":13746:13749   */\n      0x00\n        /* \"#utility.yul\":13774:13813   */\n      tag_271\n        /* \"#utility.yul\":13807:13812   */\n      dup3\n        /* \"#utility.yul\":13774:13813   */\n      tag_124\n      jump\t// in\n    tag_271:\n        /* \"#utility.yul\":13829:13918   */\n      tag_272\n        /* \"#utility.yul\":13911:13917   */\n      dup2\n        /* \"#utility.yul\":13906:13909   */\n      dup6\n        /* \"#utility.yul\":13829:13918   */\n      tag_125\n      jump\t// in\n    tag_272:\n        /* \"#utility.yul\":13822:13918   */\n      swap4\n      pop\n        /* \"#utility.yul\":13927:13992   */\n      tag_273\n        /* \"#utility.yul\":13985:13991   */\n      dup2\n        /* \"#utility.yul\":13980:13983   */\n      dup6\n        /* \"#utility.yul\":13973:13977   */\n      0x20\n        /* \"#utility.yul\":13966:13971   */\n      dup7\n        /* \"#utility.yul\":13962:13978   */\n      add\n        /* \"#utility.yul\":13927:13992   */\n      tag_114\n      jump\t// in\n    tag_273:\n        /* \"#utility.yul\":14017:14023   */\n      dup1\n        /* \"#utility.yul\":14012:14015   */\n      dup5\n        /* \"#utility.yul\":14008:14024   */\n      add\n        /* \"#utility.yul\":14001:14024   */\n      swap2\n      pop\n        /* \"#utility.yul\":13750:14030   */\n      pop\n        /* \"#utility.yul\":13640:14030   */\n      swap3\n      swap2\n      pop\n      pop\n      jump\t// out\n        /* \"#utility.yul\":14036:14311   */\n    tag_78:\n        /* \"#utility.yul\":14168:14171   */\n      0x00\n        /* \"#utility.yul\":14190:14285   */\n      tag_275\n        /* \"#utility.yul\":14281:14284   */\n      dup3\n        /* \"#utility.yul\":14272:14278   */\n      dup5\n        /* \"#utility.yul\":14190:14285   */\n      tag_126\n      jump\t// in\n    tag_275:\n        /* \"#utility.yul\":14183:14285   */\n      swap2\n      pop\n        /* \"#utility.yul\":14302:14305   */\n      dup2\n        /* \"#utility.yul\":14295:14305   */\n      swap1\n      pop\n        /* \"#utility.yul\":14036:14311   */\n      swap3\n      swap2\n      pop\n      pop\n      jump\t// out\n        /* \"#utility.yul\":14317:14460   */\n    tag_127:\n        /* \"#utility.yul\":14374:14379   */\n      0x00\n        /* \"#utility.yul\":14405:14411   */\n      dup2\n        /* \"#utility.yul\":14399:14412   */\n      mload\n        /* \"#utility.yul\":14390:14412   */\n      swap1\n      pop\n        /* \"#utility.yul\":14421:14454   */\n      tag_277\n        /* \"#utility.yul\":14448:14453   */\n      dup2\n        /* \"#utility.yul\":14421:14454   */\n      tag_90\n      jump\t// in\n    tag_277:\n        /* \"#utility.yul\":14317:14460   */\n      swap3\n      swap2\n      pop\n      pop\n      jump\t// out\n        /* \"#utility.yul\":14466:14973   */\n    tag_85:\n        /* \"#utility.yul\":14545:14551   */\n      0x00\n        /* \"#utility.yul\":14553:14559   */\n      dup1\n        /* \"#utility.yul\":14602:14604   */\n      0x40\n        /* \"#utility.yul\":14590:14599   */\n      dup4\n        /* \"#utility.yul\":14581:14588   */\n      dup6\n        /* \"#utility.yul\":14577:14600   */\n      sub\n        /* \"#utility.yul\":14573:14605   */\n      slt\n        /* \"#utility.yul\":14570:14689   */\n      iszero\n      tag_279\n      jumpi\n        /* \"#utility.yul\":14608:14687   */\n      tag_280\n      tag_87\n      jump\t// in\n    tag_280:\n        /* \"#utility.yul\":14570:14689   */\n    tag_279:\n        /* \"#utility.yul\":14728:14729   */\n      0x00\n        /* \"#utility.yul\":14753:14817   */\n      tag_281\n        /* \"#utility.yul\":14809:14816   */\n      dup6\n        /* \"#utility.yul\":14800:14806   */\n      dup3\n        /* \"#utility.yul\":14789:14798   */\n      dup7\n        /* \"#utility.yul\":14785:14807   */\n      add\n        /* \"#utility.yul\":14753:14817   */\n      tag_127\n      jump\t// in\n    tag_281:\n        /* \"#utility.yul\":14743:14817   */\n      swap3\n      pop\n        /* \"#utility.yul\":14699:14827   */\n      pop\n        /* \"#utility.yul\":14866:14868   */\n      0x20\n        /* \"#utility.yul\":14892:14956   */\n      tag_282\n        /* \"#utility.yul\":14948:14955   */\n      dup6\n        /* \"#utility.yul\":14939:14945   */\n      dup3\n        /* \"#utility.yul\":14928:14937   */\n      dup7\n        /* \"#utility.yul\":14924:14946   */\n      add\n        /* \"#utility.yul\":14892:14956   */\n      tag_127\n      jump\t// in\n    tag_282:\n        /* \"#utility.yul\":14882:14956   */\n      swap2\n      pop\n        /* \"#utility.yul\":14837:14966   */\n      pop\n        /* \"#utility.yul\":14466:14973   */\n      swap3\n      pop\n      swap3\n      swap1\n      pop\n      jump\t// out\n\n    auxdata: 0xa26469706673582212206148f8125ab6c7983e2ed385a2fed36ce8a98fc343bb68e5a57626d365e11ab964736f6c634300081a0033\n}\n",
				"bytecode": {
					"linkReferences": {},
					"object": "608060405234801561000f575f80fd5b50335f806101000a81548173ffffffffffffffffffffffffffffffffffffffff021916908373ffffffffffffffffffffffffffffffffffffffff160217905550620151804261005e91906100ac565b60015461006b91906100ed565b600181905550610120565b5f819050919050565b7f4e487b71000000000000000000000000000000000000000000000000000000005f52601160045260245ffd5b5f6100b682610076565b91506100c183610076565b92508282026100cf81610076565b915082820484148315176100e6576100e561007f565b5b5092915050565b5f6100f782610076565b915061010283610076565b925082820190508082111561011a5761011961007f565b5b92915050565b610bbf8061012d5f395ff3fe608060405234801561000f575f80fd5b506004361061009c575f3560e01c8063766954b411610064578063766954b4146101495780638da5cb5b14610179578063b89207e014610197578063dc0aa2af146101c7578063e5c5e9a3146101f75761009c565b80630bce4aa4146100a057806319f8aec8146100d05780633ccfd60b146101005780635a9b0b891461010a57806361c533b41461012b575b5f80fd5b6100ba60048036038101906100b5919061046c565b610228565b6040516100c791906104cb565b60405180910390f35b6100ea60048036038101906100e5919061046c565b610280565b6040516100f791906104cb565b60405180910390f35b6101086102d8565b005b61011261033d565b6040516101229493929190610523565b60405180910390f35b610133610353565b60405161014091906104cb565b60405180910390f35b610163600480360381019061015e91906106a2565b610359565b6040516101709190610701565b60405180910390f35b610181610388565b60405161018e919061071a565b60405180910390f35b6101b160048036038101906101ac919061075d565b6103ab565b6040516101be91906107d1565b60405180910390f35b6101e160048036038101906101dc91906107ea565b6103dd565b6040516101ee9190610888565b60405180910390f35b610211600480360381019061020c9190610946565b610409565b60405161021f92919061098d565b60405180910390f35b5f808280610239576102386109b4565b5b84860890507fd186466bbcf1a8c55dfeeec2719713870907c19490782000951828d1f648e5648160405161026d9190610a3b565b60405180910390a1809150509392505050565b5f808280610291576102906109b4565b5b84860990507fd186466bbcf1a8c55dfeeec2719713870907c19490782000951828d1f648e564816040516102c59190610ab1565b60405180910390a1809150509392505050565b60015442116102e5575f80fd5b3373ffffffffffffffffffffffffffffffffffffffff165f8054906101000a900473ffffffffffffffffffffffffffffffffffffffff1673ffffffffffffffffffffffffffffffffffffffff161461033b575f80fd5b565b5f805f804393504292504191503a905090919293565b60015481565b5f8160405160200161036b9190610b21565b604051602081830303815290604052805190602001209050919050565b5f8054906101000a900473ffffffffffffffffffffffffffffffffffffffff1681565b5f81836040516020016103be9190610b21565b6040516020818303038152906040528051906020012014905092915050565b606082826040516020016103f292919061098d565b604051602081830303815290604052905092915050565b5f808280602001905181019061041f9190610b4b565b91509150915091565b5f604051905090565b5f80fd5b5f80fd5b5f819050919050565b61044b81610439565b8114610455575f80fd5b50565b5f8135905061046681610442565b92915050565b5f805f6060848603121561048357610482610431565b5b5f61049086828701610458565b93505060206104a186828701610458565b92505060406104b286828701610458565b9150509250925092565b6104c581610439565b82525050565b5f6020820190506104de5f8301846104bc565b92915050565b5f73ffffffffffffffffffffffffffffffffffffffff82169050919050565b5f61050d826104e4565b9050919050565b61051d81610503565b82525050565b5f6080820190506105365f8301876104bc565b61054360208301866104bc565b6105506040830185610514565b61055d60608301846104bc565b95945050505050565b5f80fd5b5f80fd5b5f601f19601f8301169050919050565b7f4e487b71000000000000000000000000000000000000000000000000000000005f52604160045260245ffd5b6105b48261056e565b810181811067ffffffffffffffff821117156105d3576105d261057e565b5b80604052505050565b5f6105e5610428565b90506105f182826105ab565b919050565b5f67ffffffffffffffff8211156106105761060f61057e565b5b6106198261056e565b9050602081019050919050565b828183375f83830152505050565b5f610646610641846105f6565b6105dc565b9050828152602081018484840111156106625761066161056a565b5b61066d848285610626565b509392505050565b5f82601f83011261068957610688610566565b5b8135610699848260208601610634565b91505092915050565b5f602082840312156106b7576106b6610431565b5b5f82013567ffffffffffffffff8111156106d4576106d3610435565b5b6106e084828501610675565b91505092915050565b5f819050919050565b6106fb816106e9565b82525050565b5f6020820190506107145f8301846106f2565b92915050565b5f60208201905061072d5f830184610514565b92915050565b61073c816106e9565b8114610746575f80fd5b50565b5f8135905061075781610733565b92915050565b5f806040838503121561077357610772610431565b5b5f83013567ffffffffffffffff8111156107905761078f610435565b5b61079c85828601610675565b92505060206107ad85828601610749565b9150509250929050565b5f8115159050919050565b6107cb816107b7565b82525050565b5f6020820190506107e45f8301846107c2565b92915050565b5f8060408385031215610800576107ff610431565b5b5f61080d85828601610458565b925050602061081e85828601610458565b9150509250929050565b5f81519050919050565b5f82825260208201905092915050565b8281835e5f83830152505050565b5f61085a82610828565b6108648185610832565b9350610874818560208601610842565b61087d8161056e565b840191505092915050565b5f6020820190508181035f8301526108a08184610850565b905092915050565b5f67ffffffffffffffff8211156108c2576108c161057e565b5b6108cb8261056e565b9050602081019050919050565b5f6108ea6108e5846108a8565b6105dc565b9050828152602081018484840111156109065761090561056a565b5b610911848285610626565b509392505050565b5f82601f83011261092d5761092c610566565b5b813561093d8482602086016108d8565b91505092915050565b5f6020828403121561095b5761095a610431565b5b5f82013567ffffffffffffffff81111561097857610977610435565b5b61098484828501610919565b91505092915050565b5f6040820190506109a05f8301856104bc565b6109ad60208301846104bc565b9392505050565b7f4e487b71000000000000000000000000000000000000000000000000000000005f52601260045260245ffd5b5f82825260208201905092915050565b7f61646400000000000000000000000000000000000000000000000000000000005f82015250565b5f610a256003836109e1565b9150610a30826109f1565b602082019050919050565b5f604082019050610a4e5f8301846104bc565b8181036020830152610a5f81610a19565b905092915050565b7f6d756c00000000000000000000000000000000000000000000000000000000005f82015250565b5f610a9b6003836109e1565b9150610aa682610a67565b602082019050919050565b5f604082019050610ac45f8301846104bc565b8181036020830152610ad581610a8f565b905092915050565b5f81519050919050565b5f81905092915050565b5f610afb82610add565b610b058185610ae7565b9350610b15818560208601610842565b80840191505092915050565b5f610b2c8284610af1565b915081905092915050565b5f81519050610b4581610442565b92915050565b5f8060408385031215610b6157610b60610431565b5b5f610b6e85828601610b37565b9250506020610b7f85828601610b37565b915050925092905056fea26469706673582212206148f8125ab6c7983e2ed385a2fed36ce8a98fc343bb68e5a57626d365e11ab964736f6c634300081a0033",
					"opcodes": "PUSH1 0x80 PUSH1 0x40 MSTORE CALLVALUE DUP1 ISZERO PUSH2 0xF JUMPI PUSH0 DUP1 REVERT JUMPDEST POP CALLER PUSH0 DUP1 PUSH2 0x100 EXP DUP2 SLOAD DUP2 PUSH20 0xFFFFFFFFFFFFFFFFFFFFFFFFFFFFFFFFFFFFFFFF MUL NOT AND SWAP1 DUP4 PUSH20 0xFFFFFFFFFFFFFFFFFFFFFFFFFFFFFFFFFFFFFFFF AND MUL OR SWAP1 SSTORE POP PUSH3 0x15180 TIMESTAMP PUSH2 0x5E SWAP2 SWAP1 PUSH2 0xAC JUMP JUMPDEST PUSH1 0x1 SLOAD PUSH2 0x6B SWAP2 SWAP1 PUSH2 0xED JUMP JUMPDEST PUSH1 0x1 DUP2 SWAP1 SSTORE POP PUSH2 0x120 JUMP JUMPDEST PUSH0 DUP2 SWAP1 POP SWAP2 SWAP1 POP JUMP JUMPDEST PUSH32 0x4E487B7100000000000000000000000000000000000000000000000000000000 PUSH0 MSTORE PUSH1 0x11 PUSH1 0x4 MSTORE PUSH1 0x24 PUSH0 REVERT JUMPDEST PUSH0 PUSH2 0xB6 DUP3 PUSH2 0x76 JUMP JUMPDEST SWAP2 POP PUSH2 0xC1 DUP4 PUSH2 0x76 JUMP JUMPDEST SWAP3 POP DUP3 DUP3 MUL PUSH2 0xCF DUP2 PUSH2 0x76 JUMP JUMPDEST SWAP2 POP DUP3 DUP3 DIV DUP5 EQ DUP4 ISZERO OR PUSH2 0xE6 JUMPI PUSH2 0xE5 PUSH2 0x7F JUMP JUMPDEST JUMPDEST POP SWAP3 SWAP2 POP POP JUMP JUMPDEST PUSH0 PUSH2 0xF7 DUP3 PUSH2 0x76 JUMP JUMPDEST SWAP2 POP PUSH2 0x102 DUP4 PUSH2 0x76 JUMP JUMPDEST SWAP3 POP DUP3 DUP3 ADD SWAP1 POP DUP1 DUP3 GT ISZERO PUSH2 0x11A JUMPI PUSH2 0x119 PUSH2 0x7F JUMP JUMPDEST JUMPDEST SWAP3 SWAP2 POP POP JUMP JUMPDEST PUSH2 0xBBF DUP1 PUSH2 0x12D PUSH0 CODECOPY PUSH0 RETURN INVALID PUSH1 0x80 PUSH1 0x40 MSTORE CALLVALUE DUP1 ISZERO PUSH2 0xF JUMPI PUSH0 DUP1 REVERT JUMPDEST POP PUSH1 0x4 CALLDATASIZE LT PUSH2 0x9C JUMPI PUSH0 CALLDATALOAD PUSH1 0xE0 SHR DUP1 PUSH4 0x766954B4 GT PUSH2 0x64 JUMPI DUP1 PUSH4 0x766954B4 EQ PUSH2 0x149 JUMPI DUP1 PUSH4 0x8DA5CB5B EQ PUSH2 0x179 JUMPI DUP1 PUSH4 0xB89207E0 EQ PUSH2 0x197 JUMPI DUP1 PUSH4 0xDC0AA2AF EQ PUSH2 0x1C7 JUMPI DUP1 PUSH4 0xE5C5E9A3 EQ PUSH2 0x1F7 JUMPI PUSH2 0x9C JUMP JUMPDEST DUP1 PUSH4 0xBCE4AA4 EQ PUSH2 0xA0 JUMPI DUP1 PUSH4 0x19F8AEC8 EQ PUSH2 0xD0 JUMPI DUP1 PUSH4 0x3CCFD60B EQ PUSH2 0x100 JUMPI DUP1 PUSH4 0x5A9B0B89 EQ PUSH2 0x10A JUMPI DUP1 PUSH4 0x61C533B4 EQ PUSH2 0x12B JUMPI JUMPDEST PUSH0 DUP1 REVERT JUMPDEST PUSH2 0xBA PUSH1 0x4 DUP1 CALLDATASIZE SUB DUP2 ADD SWAP1 PUSH2 0xB5 SWAP2 SWAP1 PUSH2 0x46C JUMP JUMPDEST PUSH2 0x228 JUMP JUMPDEST PUSH1 0x40 MLOAD PUSH2 0xC7 SWAP2 SWAP1 PUSH2 0x4CB JUMP JUMPDEST PUSH1 0x40 MLOAD DUP1 SWAP2 SUB SWAP1 RETURN JUMPDEST PUSH2 0xEA PUSH1 0x4 DUP1 CALLDATASIZE SUB DUP2 ADD SWAP1 PUSH2 0xE5 SWAP2 SWAP1 PUSH2 0x46C JUMP JUMPDEST PUSH2 0x280 JUMP JUMPDEST PUSH1 0x40 MLOAD PUSH2 0xF7 SWAP2 SWAP1 PUSH2 0x4CB JUMP JUMPDEST PUSH1 0x40 MLOAD DUP1 SWAP2 SUB SWAP1 RETURN JUMPDEST PUSH2 0x108 PUSH2 0x2D8 JUMP JUMPDEST STOP JUMPDEST PUSH2 0x112 PUSH2 0x33D JUMP JUMPDEST PUSH1 0x40 MLOAD PUSH2 0x122 SWAP5 SWAP4 SWAP3 SWAP2 SWAP1 PUSH2 0x523 JUMP JUMPDEST PUSH1 0x40 MLOAD DUP1 SWAP2 SUB SWAP1 RETURN JUMPDEST PUSH2 0x133 PUSH2 0x353 JUMP JUMPDEST PUSH1 0x40 MLOAD PUSH2 0x140 SWAP2 SWAP1 PUSH2 0x4CB JUMP JUMPDEST PUSH1 0x40 MLOAD DUP1 SWAP2 SUB SWAP1 RETURN JUMPDEST PUSH2 0x163 PUSH1 0x4 DUP1 CALLDATASIZE SUB DUP2 ADD SWAP1 PUSH2 0x15E SWAP2 SWAP1 PUSH2 0x6A2 JUMP JUMPDEST PUSH2 0x359 JUMP JUMPDEST PUSH1 0x40 MLOAD PUSH2 0x170 SWAP2 SWAP1 PUSH2 0x701 JUMP JUMPDEST PUSH1 0x40 MLOAD DUP1 SWAP2 SUB SWAP1 RETURN JUMPDEST PUSH2 0x181 PUSH2 0x388 JUMP JUMPDEST PUSH1 0x40 MLOAD PUSH2 0x18E SWAP2 SWAP1 PUSH2 0x71A JUMP JUMPDEST PUSH1 0x40 MLOAD DUP1 SWAP2 SUB SWAP1 RETURN JUMPDEST PUSH2 0x1B1 PUSH1 0x4 DUP1 CALLDATASIZE SUB DUP2 ADD SWAP1 PUSH2 0x1AC SWAP2 SWAP1 PUSH2 0x75D JUMP JUMPDEST PUSH2 0x3AB JUMP JUMPDEST PUSH1 0x40 MLOAD PUSH2 0x1BE SWAP2 SWAP1 PUSH2 0x7D1 JUMP JUMPDEST PUSH1 0x40 MLOAD DUP1 SWAP2 SUB SWAP1 RETURN JUMPDEST PUSH2 0x1E1 PUSH1 0x4 DUP1 CALLDATASIZE SUB DUP2 ADD SWAP1 PUSH2 0x1DC SWAP2 SWAP1 PUSH2 0x7EA JUMP JUMPDEST PUSH2 0x3DD JUMP JUMPDEST PUSH1 0x40 MLOAD PUSH2 0x1EE SWAP2 SWAP1 PUSH2 0x888 JUMP JUMPDEST PUSH1 0x40 MLOAD DUP1 SWAP2 SUB SWAP1 RETURN JUMPDEST PUSH2 0x211 PUSH1 0x4 DUP1 CALLDATASIZE SUB DUP2 ADD SWAP1 PUSH2 0x20C SWAP2 SWAP1 PUSH2 0x946 JUMP JUMPDEST PUSH2 0x409 JUMP JUMPDEST PUSH1 0x40 MLOAD PUSH2 0x21F SWAP3 SWAP2 SWAP1 PUSH2 0x98D JUMP JUMPDEST PUSH1 0x40 MLOAD DUP1 SWAP2 SUB SWAP1 RETURN JUMPDEST PUSH0 DUP1 DUP3 DUP1 PUSH2 0x239 JUMPI PUSH2 0x238 PUSH2 0x9B4 JUMP JUMPDEST JUMPDEST DUP5 DUP7 ADDMOD SWAP1 POP PUSH32 0xD186466BBCF1A8C55DFEEEC2719713870907C19490782000951828D1F648E564 DUP2 PUSH1 0x40 MLOAD PUSH2 0x26D SWAP2 SWAP1 PUSH2 0xA3B JUMP JUMPDEST PUSH1 0x40 MLOAD DUP1 SWAP2 SUB SWAP1 LOG1 DUP1 SWAP2 POP POP SWAP4 SWAP3 POP POP POP JUMP JUMPDEST PUSH0 DUP1 DUP3 DUP1 PUSH2 0x291 JUMPI PUSH2 0x290 PUSH2 0x9B4 JUMP JUMPDEST JUMPDEST DUP5 DUP7 MULMOD SWAP1 POP PUSH32 0xD186466BBCF1A8C55DFEEEC2719713870907C19490782000951828D1F648E564 DUP2 PUSH1 0x40 MLOAD PUSH2 0x2C5 SWAP2 SWAP1 PUSH2 0xAB1 JUMP JUMPDEST PUSH1 0x40 MLOAD DUP1 SWAP2 SUB SWAP1 LOG1 DUP1 SWAP2 POP POP SWAP4 SWAP3 POP POP POP JUMP JUMPDEST PUSH1 0x1 SLOAD TIMESTAMP GT PUSH2 0x2E5 JUMPI PUSH0 DUP1 REVERT JUMPDEST CALLER PUSH20 0xFFFFFFFFFFFFFFFFFFFFFFFFFFFFFFFFFFFFFFFF AND PUSH0 DUP1 SLOAD SWAP1 PUSH2 0x100 EXP SWAP1 DIV PUSH20 0xFFFFFFFFFFFFFFFFFFFFFFFFFFFFFFFFFFFFFFFF AND PUSH20 0xFFFFFFFFFFFFFFFFFFFFFFFFFFFFFFFFFFFFFFFF AND EQ PUSH2 0x33B JUMPI PUSH0 DUP1 REVERT JUMPDEST JUMP JUMPDEST PUSH0 DUP1 PUSH0 DUP1 NUMBER SWAP4 POP TIMESTAMP SWAP3 POP COINBASE SWAP2 POP GASPRICE SWAP1 POP SWAP1 SWAP2 SWAP3 SWAP4 JUMP JUMPDEST PUSH1 0x1 SLOAD DUP2 JUMP JUMPDEST PUSH0 DUP2 PUSH1 0x40 MLOAD PUSH1 0x20 ADD PUSH2 0x36B SWAP2 SWAP1 PUSH2 0xB21 JUMP JUMPDEST PUSH1 0x40 MLOAD PUSH1 0x20 DUP2 DUP4 SUB SUB DUP2 MSTORE SWAP1 PUSH1 0x40 MSTORE DUP1 MLOAD SWAP1 PUSH1 0x20 ADD KECCAK256 SWAP1 POP SWAP2 SWAP1 POP JUMP JUMPDEST PUSH0 DUP1 SLOAD SWAP1 PUSH2 0x100 EXP SWAP1 DIV PUSH20 0xFFFFFFFFFFFFFFFFFFFFFFFFFFFFFFFFFFFFFFFF AND DUP2 JUMP JUMPDEST PUSH0 DUP2 DUP4 PUSH1 0x40 MLOAD PUSH1 0x20 ADD PUSH2 0x3BE SWAP2 SWAP1 PUSH2 0xB21 JUMP JUMPDEST PUSH1 0x40 MLOAD PUSH1 0x20 DUP2 DUP4 SUB SUB DUP2 MSTORE SWAP1 PUSH1 0x40 MSTORE DUP1 MLOAD SWAP1 PUSH1 0x20 ADD KECCAK256 EQ SWAP1 POP SWAP3 SWAP2 POP POP JUMP JUMPDEST PUSH1 0x60 DUP3 DUP3 PUSH1 0x40 MLOAD PUSH1 0x20 ADD PUSH2 0x3F2 SWAP3 SWAP2 SWAP1 PUSH2 0x98D JUMP JUMPDEST PUSH1 0x40 MLOAD PUSH1 0x20 DUP2 DUP4 SUB SUB DUP2 MSTORE SWAP1 PUSH1 0x40 MSTORE SWAP1 POP SWAP3 SWAP2 POP POP JUMP JUMPDEST PUSH0 DUP1 DUP3 DUP1 PUSH1 0x20 ADD SWAP1 MLOAD DUP2 ADD SWAP1 PUSH2 0x41F SWAP2 SWAP1 PUSH2 0xB4B JUMP JUMPDEST SWAP2 POP SWAP2 POP SWAP2 POP SWAP2 JUMP JUMPDEST PUSH0 PUSH1 0x40 MLOAD SWAP1 POP SWAP1 JUMP JUMPDEST PUSH0 DUP1 REVERT JUMPDEST PUSH0 DUP1 REVERT JUMPDEST PUSH0 DUP2 SWAP1 POP SWAP2 SWAP1 POP JUMP JUMPDEST PUSH2 0x44B DUP2 PUSH2 0x439 JUMP JUMPDEST DUP2 EQ PUSH2 0x455 JUMPI PUSH0 DUP1 REVERT JUMPDEST POP JUMP JUMPDEST PUSH0 DUP2 CALLDATALOAD SWAP1 POP PUSH2 0x466 DUP2 PUSH2 0x442 JUMP JUMPDEST SWAP3 SWAP2 POP POP JUMP JUMPDEST PUSH0 DUP1 PUSH0 PUSH1 0x60 DUP5 DUP7 SUB SLT ISZERO PUSH2 0x483 JUMPI PUSH2 0x482 PUSH2 0x431 JUMP JUMPDEST JUMPDEST PUSH0 PUSH2 0x490 DUP7 DUP3 DUP8 ADD PUSH2 0x458 JUMP JUMPDEST SWAP4 POP POP PUSH1 0x20 PUSH2 0x4A1 DUP7 DUP3 DUP8 ADD PUSH2 0x458 JUMP JUMPDEST SWAP3 POP POP PUSH1 0x40 PUSH2 0x4B2 DUP7 DUP3 DUP8 ADD PUSH2 0x458 JUMP JUMPDEST SWAP2 POP POP SWAP3 POP SWAP3 POP SWAP3 JUMP JUMPDEST PUSH2 0x4C5 DUP2 PUSH2 0x439 JUMP JUMPDEST DUP3 MSTORE POP POP JUMP JUMPDEST PUSH0 PUSH1 0x20 DUP3 ADD SWAP1 POP PUSH2 0x4DE PUSH0 DUP4 ADD DUP5 PUSH2 0x4BC JUMP JUMPDEST SWAP3 SWAP2 POP POP JUMP JUMPDEST PUSH0 PUSH20 0xFFFFFFFFFFFFFFFFFFFFFFFFFFFFFFFFFFFFFFFF DUP3 AND SWAP1 POP SWAP2 SWAP1 POP JUMP JUMPDEST PUSH0 PUSH2 0x50D DUP3 PUSH2 0x4E4 JUMP JUMPDEST SWAP1 POP SWAP2 SWAP1 POP JUMP JUMPDEST PUSH2 0x51D DUP2 PUSH2 0x503 JUMP JUMPDEST DUP3 MSTORE POP POP JUMP JUMPDEST PUSH0 PUSH1 0x80 DUP3 ADD SWAP1 POP PUSH2 0x536 PUSH0 DUP4 ADD DUP8 PUSH2 0x4BC JUMP JUMPDEST PUSH2 0x543 PUSH1 0x20 DUP4 ADD DUP7 PUSH2 0x4BC JUMP JUMPDEST PUSH2 0x550 PUSH1 0x40 DUP4 ADD DUP6 PUSH2 0x514 JUMP JUMPDEST PUSH2 0x55D PUSH1 0x60 DUP4 ADD DUP5 PUSH2 0x4BC JUMP JUMPDEST SWAP6 SWAP5 POP POP POP POP POP JUMP JUMPDEST PUSH0 DUP1 REVERT JUMPDEST PUSH0 DUP1 REVERT JUMPDEST PUSH0 PUSH1 0x1F NOT PUSH1 0x1F DUP4 ADD AND SWAP1 POP SWAP2 SWAP1 POP JUMP JUMPDEST PUSH32 0x4E487B7100000000000000000000000000000000000000000000000000000000 PUSH0 MSTORE PUSH1 0x41 PUSH1 0x4 MSTORE PUSH1 0x24 PUSH0 REVERT JUMPDEST PUSH2 0x5B4 DUP3 PUSH2 0x56E JUMP JUMPDEST DUP2 ADD DUP2 DUP2 LT PUSH8 0xFFFFFFFFFFFFFFFF DUP3 GT OR ISZERO PUSH2 0x5D3 JUMPI PUSH2 0x5D2 PUSH2 0x57E JUMP JUMPDEST JUMPDEST DUP1 PUSH1 0x40 MSTORE POP POP POP JUMP JUMPDEST PUSH0 PUSH2 0x5E5 PUSH2 0x428 JUMP JUMPDEST SWAP1 POP PUSH2 0x5F1 DUP3 DUP3 PUSH2 0x5AB JUMP JUMPDEST SWAP2 SWAP1 POP JUMP JUMPDEST PUSH0 PUSH8 0xFFFFFFFFFFFFFFFF DUP3 GT ISZERO PUSH2 0x610 JUMPI PUSH2 0x60F PUSH2 0x57E JUMP JUMPDEST JUMPDEST PUSH2 0x619 DUP3 PUSH2 0x56E JUMP JUMPDEST SWAP1 POP PUSH1 0x20 DUP2 ADD SWAP1 POP SWAP2 SWAP1 POP JUMP JUMPDEST DUP3 DUP2 DUP4 CALLDATACOPY PUSH0 DUP4 DUP4 ADD MSTORE POP POP POP JUMP JUMPDEST PUSH0 PUSH2 0x646 PUSH2 0x641 DUP5 PUSH2 0x5F6 JUMP JUMPDEST PUSH2 0x5DC JUMP JUMPDEST SWAP1 POP DUP3 DUP2 MSTORE PUSH1 0x20 DUP2 ADD DUP5 DUP5 DUP5 ADD GT ISZERO PUSH2 0x662 JUMPI PUSH2 0x661 PUSH2 0x56A JUMP JUMPDEST JUMPDEST PUSH2 0x66D DUP5 DUP3 DUP6 PUSH2 0x626 JUMP JUMPDEST POP SWAP4 SWAP3 POP POP POP JUMP JUMPDEST PUSH0 DUP3 PUSH1 0x1F DUP4 ADD SLT PUSH2 0x689 JUMPI PUSH2 0x688 PUSH2 0x566 JUMP JUMPDEST JUMPDEST DUP2 CALLDATALOAD PUSH2 0x699 DUP5 DUP3 PUSH1 0x20 DUP7 ADD PUSH2 0x634 JUMP JUMPDEST SWAP2 POP POP SWAP3 SWAP2 POP POP JUMP JUMPDEST PUSH0 PUSH1 0x20 DUP3 DUP5 SUB SLT ISZERO PUSH2 0x6B7 JUMPI PUSH2 0x6B6 PUSH2 0x431 JUMP JUMPDEST JUMPDEST PUSH0 DUP3 ADD CALLDATALOAD PUSH8 0xFFFFFFFFFFFFFFFF DUP2 GT ISZERO PUSH2 0x6D4 JUMPI PUSH2 0x6D3 PUSH2 0x435 JUMP JUMPDEST JUMPDEST PUSH2 0x6E0 DUP5 DUP3 DUP6 ADD PUSH2 0x675 JUMP JUMPDEST SWAP2 POP POP SWAP3 SWAP2 POP POP JUMP JUMPDEST PUSH0 DUP2 SWAP1 POP SWAP2 SWAP1 POP JUMP JUMPDEST PUSH2 0x6FB DUP2 PUSH2 0x6E9 JUMP JUMPDEST DUP3 MSTORE POP POP JUMP JUMPDEST PUSH0 PUSH1 0x20 DUP3 ADD SWAP1 POP PUSH2 0x714 PUSH0 DUP4 ADD DUP5 PUSH2 0x6F2 JUMP JUMPDEST SWAP3 SWAP2 POP POP JUMP JUMPDEST PUSH0 PUSH1 0x20 DUP3 ADD SWAP1 POP PUSH2 0x72D PUSH0 DUP4 ADD DUP5 PUSH2 0x514 JUMP JUMPDEST SWAP3 SWAP2 POP POP JUMP JUMPDEST PUSH2 0x73C DUP2 PUSH2 0x6E9 JUMP JUMPDEST DUP2 EQ PUSH2 0x746 JUMPI PUSH0 DUP1 REVERT JUMPDEST POP JUMP JUMPDEST PUSH0 DUP2 CALLDATALOAD SWAP1 POP PUSH2 0x757 DUP2 PUSH2 0x733 JUMP JUMPDEST SWAP3 SWAP2 POP POP JUMP JUMPDEST PUSH0 DUP1 PUSH1 0x40 DUP4 DUP6 SUB SLT ISZERO PUSH2 0x773 JUMPI PUSH2 0x772 PUSH2 0x431 JUMP JUMPDEST JUMPDEST PUSH0 DUP4 ADD CALLDATALOAD PUSH8 0xFFFFFFFFFFFFFFFF DUP2 GT ISZERO PUSH2 0x790 JUMPI PUSH2 0x78F PUSH2 0x435 JUMP JUMPDEST JUMPDEST PUSH2 0x79C DUP6 DUP3 DUP7 ADD PUSH2 0x675 JUMP JUMPDEST SWAP3 POP POP PUSH1 0x20 PUSH2 0x7AD DUP6 DUP3 DUP7 ADD PUSH2 0x749 JUMP JUMPDEST SWAP2 POP POP SWAP3 POP SWAP3 SWAP1 POP JUMP JUMPDEST PUSH0 DUP2 ISZERO ISZERO SWAP1 POP SWAP2 SWAP1 POP JUMP JUMPDEST PUSH2 0x7CB DUP2 PUSH2 0x7B7 JUMP JUMPDEST DUP3 MSTORE POP POP JUMP JUMPDEST PUSH0 PUSH1 0x20 DUP3 ADD SWAP1 POP PUSH2 0x7E4 PUSH0 DUP4 ADD DUP5 PUSH2 0x7C2 JUMP JUMPDEST SWAP3 SWAP2 POP POP JUMP JUMPDEST PUSH0 DUP1 PUSH1 0x40 DUP4 DUP6 SUB SLT ISZERO PUSH2 0x800 JUMPI PUSH2 0x7FF PUSH2 0x431 JUMP JUMPDEST JUMPDEST PUSH0 PUSH2 0x80D DUP6 DUP3 DUP7 ADD PUSH2 0x458 JUMP JUMPDEST SWAP3 POP POP PUSH1 0x20 PUSH2 0x81E DUP6 DUP3 DUP7 ADD PUSH2 0x458 JUMP JUMPDEST SWAP2 POP POP SWAP3 POP SWAP3 SWAP1 POP JUMP JUMPDEST PUSH0 DUP2 MLOAD SWAP1 POP SWAP2 SWAP1 POP JUMP JUMPDEST PUSH0 DUP3 DUP3 MSTORE PUSH1 0x20 DUP3 ADD SWAP1 POP SWAP3 SWAP2 POP POP JUMP JUMPDEST DUP3 DUP2 DUP4 MCOPY PUSH0 DUP4 DUP4 ADD MSTORE POP POP POP JUMP JUMPDEST PUSH0 PUSH2 0x85A DUP3 PUSH2 0x828 JUMP JUMPDEST PUSH2 0x864 DUP2 DUP6 PUSH2 0x832 JUMP JUMPDEST SWAP4 POP PUSH2 0x874 DUP2 DUP6 PUSH1 0x20 DUP7 ADD PUSH2 0x842 JUMP JUMPDEST PUSH2 0x87D DUP2 PUSH2 0x56E JUMP JUMPDEST DUP5 ADD SWAP2 POP POP SWAP3 SWAP2 POP POP JUMP JUMPDEST PUSH0 PUSH1 0x20 DUP3 ADD SWAP1 POP DUP2 DUP2 SUB PUSH0 DUP4 ADD MSTORE PUSH2 0x8A0 DUP2 DUP5 PUSH2 0x850 JUMP JUMPDEST SWAP1 POP SWAP3 SWAP2 POP POP JUMP JUMPDEST PUSH0 PUSH8 0xFFFFFFFFFFFFFFFF DUP3 GT ISZERO PUSH2 0x8C2 JUMPI PUSH2 0x8C1 PUSH2 0x57E JUMP JUMPDEST JUMPDEST PUSH2 0x8CB DUP3 PUSH2 0x56E JUMP JUMPDEST SWAP1 POP PUSH1 0x20 DUP2 ADD SWAP1 POP SWAP2 SWAP1 POP JUMP JUMPDEST PUSH0 PUSH2 0x8EA PUSH2 0x8E5 DUP5 PUSH2 0x8A8 JUMP JUMPDEST PUSH2 0x5DC JUMP JUMPDEST SWAP1 POP DUP3 DUP2 MSTORE PUSH1 0x20 DUP2 ADD DUP5 DUP5 DUP5 ADD GT ISZERO PUSH2 0x906 JUMPI PUSH2 0x905 PUSH2 0x56A JUMP JUMPDEST JUMPDEST PUSH2 0x911 DUP5 DUP3 DUP6 PUSH2 0x626 JUMP JUMPDEST POP SWAP4 SWAP3 POP POP POP JUMP JUMPDEST PUSH0 DUP3 PUSH1 0x1F DUP4 ADD SLT PUSH2 0x92D JUMPI PUSH2 0x92C PUSH2 0x566 JUMP JUMPDEST JUMPDEST DUP2 CALLDATALOAD PUSH2 0x93D DUP5 DUP3 PUSH1 0x20 DUP7 ADD PUSH2 0x8D8 JUMP JUMPDEST SWAP2 POP POP SWAP3 SWAP2 POP POP JUMP JUMPDEST PUSH0 PUSH1 0x20 DUP3 DUP5 SUB SLT ISZERO PUSH2 0x95B JUMPI PUSH2 0x95A PUSH2 0x431 JUMP JUMPDEST JUMPDEST PUSH0 DUP3 ADD CALLDATALOAD PUSH8 0xFFFFFFFFFFFFFFFF DUP2 GT ISZERO PUSH2 0x978 JUMPI PUSH2 0x977 PUSH2 0x435 JUMP JUMPDEST JUMPDEST PUSH2 0x984 DUP5 DUP3 DUP6 ADD PUSH2 0x919 JUMP JUMPDEST SWAP2 POP POP SWAP3 SWAP2 POP POP JUMP JUMPDEST PUSH0 PUSH1 0x40 DUP3 ADD SWAP1 POP PUSH2 0x9A0 PUSH0 DUP4 ADD DUP6 PUSH2 0x4BC JUMP JUMPDEST PUSH2 0x9AD PUSH1 0x20 DUP4 ADD DUP5 PUSH2 0x4BC JUMP JUMPDEST SWAP4 SWAP3 POP POP POP JUMP JUMPDEST PUSH32 0x4E487B7100000000000000000000000000000000000000000000000000000000 PUSH0 MSTORE PUSH1 0x12 PUSH1 0x4 MSTORE PUSH1 0x24 PUSH0 REVERT JUMPDEST PUSH0 DUP3 DUP3 MSTORE PUSH1 0x20 DUP3 ADD SWAP1 POP SWAP3 SWAP2 POP POP JUMP JUMPDEST PUSH32 0x6164640000000000000000000000000000000000000000000000000000000000 PUSH0 DUP3 ADD MSTORE POP JUMP JUMPDEST PUSH0 PUSH2 0xA25 PUSH1 0x3 DUP4 PUSH2 0x9E1 JUMP JUMPDEST SWAP2 POP PUSH2 0xA30 DUP3 PUSH2 0x9F1 JUMP JUMPDEST PUSH1 0x20 DUP3 ADD SWAP1 POP SWAP2 SWAP1 POP JUMP JUMPDEST PUSH0 PUSH1 0x40 DUP3 ADD SWAP1 POP PUSH2 0xA4E PUSH0 DUP4 ADD DUP5 PUSH2 0x4BC JUMP JUMPDEST DUP2 DUP2 SUB PUSH1 0x20 DUP4 ADD MSTORE PUSH2 0xA5F DUP2 PUSH2 0xA19 JUMP JUMPDEST SWAP1 POP SWAP3 SWAP2 POP POP JUMP JUMPDEST PUSH32 0x6D756C0000000000000000000000000000000000000000000000000000000000 PUSH0 DUP3 ADD MSTORE POP JUMP JUMPDEST PUSH0 PUSH2 0xA9B PUSH1 0x3 DUP4 PUSH2 0x9E1 JUMP JUMPDEST SWAP2 POP PUSH2 0xAA6 DUP3 PUSH2 0xA67 JUMP JUMPDEST PUSH1 0x20 DUP3 ADD SWAP1 POP SWAP2 SWAP1 POP JUMP JUMPDEST PUSH0 PUSH1 0x40 DUP3 ADD SWAP1 POP PUSH2 0xAC4 PUSH0 DUP4 ADD DUP5 PUSH2 0x4BC JUMP JUMPDEST DUP2 DUP2 SUB PUSH1 0x20 DUP4 ADD MSTORE PUSH2 0xAD5 DUP2 PUSH2 0xA8F JUMP JUMPDEST SWAP1 POP SWAP3 SWAP2 POP POP JUMP JUMPDEST PUSH0 DUP2 MLOAD SWAP1 POP SWAP2 SWAP1 POP JUMP JUMPDEST PUSH0 DUP2 SWAP1 POP SWAP3 SWAP2 POP POP JUMP JUMPDEST PUSH0 PUSH2 0xAFB DUP3 PUSH2 0xADD JUMP JUMPDEST PUSH2 0xB05 DUP2 DUP6 PUSH2 0xAE7 JUMP JUMPDEST SWAP4 POP PUSH2 0xB15 DUP2 DUP6 PUSH1 0x20 DUP7 ADD PUSH2 0x842 JUMP JUMPDEST DUP1 DUP5 ADD SWAP2 POP POP SWAP3 SWAP2 POP POP JUMP JUMPDEST PUSH0 PUSH2 0xB2C DUP3 DUP5 PUSH2 0xAF1 JUMP JUMPDEST SWAP2 POP DUP2 SWAP1 POP SWAP3 SWAP2 POP POP JUMP JUMPDEST PUSH0 DUP2 MLOAD SWAP1 POP PUSH2 0xB45 DUP2 PUSH2 0x442 JUMP JUMPDEST SWAP3 SWAP2 POP POP JUMP JUMPDEST PUSH0 DUP1 PUSH1 0x40 DUP4 DUP6 SUB SLT ISZERO PUSH2 0xB61 JUMPI PUSH2 0xB60 PUSH2 0x431 JUMP JUMPDEST JUMPDEST PUSH0 PUSH2 0xB6E DUP6 DUP3 DUP7 ADD PUSH2 0xB37 JUMP JUMPDEST SWAP3 POP POP PUSH1 0x20 PUSH2 0xB7F DUP6 DUP3 DUP7 ADD PUSH2 0xB37 JUMP JUMPDEST SWAP2 POP POP SWAP3 POP SWAP3 SWAP1 POP JUMP INVALID LOG2 PUSH5 0x6970667358 0x22 SLT KECCAK256 PUSH2 0x48F8 SLT GAS 0xB6 0xC7 SWAP9 RETURNDATACOPY 0x2E 0xD3 DUP6 LOG2 INVALID 0xD3 PUSH13 0xE8A98FC343BB68E5A57626D365 0xE1 BYTE 0xB9 PUSH5 0x736F6C6343 STOP ADDMOD BYTE STOP CALLER "
				},
				"gasEstimates": {
					"creation": {
						"codeDepositCost": "601400",
						"executionCost": "infinite",
						"totalCost": "infinite"
					},
					"external": {
						"addmodDemo(uint256,uint256,uint256)": "infinite",
						"decode(bytes)": "infinite",
						"encode(uint256,uint256)": "infinite",
						"getInfo()": "infinite",
						"hashString(string)": "infinite",
						"locktime()": "2514",
						"mulmodDemo(uint256,uint256,uint256)": "infinite",
						"owner()": "2527",
						"verifyHash(string,bytes32)": "infinite",
						"withdraw()": "4476"
					}
				},
				"methodIdentifiers": {
					"addmodDemo(uint256,uint256,uint256)": "0bce4aa4",
					"decode(bytes)": "e5c5e9a3",
					"encode(uint256,uint256)": "dc0aa2af",
					"getInfo()": "5a9b0b89",
					"hashString(string)": "766954b4",
					"locktime()": "61c533b4",
					"mulmodDemo(uint256,uint256,uint256)": "19f8aec8",
					"owner()": "8da5cb5b",
					"verifyHash(string,bytes32)": "b89207e0",
					"withdraw()": "3ccfd60b"
				}
			},
			"storageLayout": {
				"storage": [
					{
						"astId": 3,
						"contract": "Global.sol:GlobalDemo",
						"label": "owner",
						"offset": 0,
						"slot": "0",
						"type": "t_address"
					},
					{
						"astId": 5,
						"contract": "Global.sol:GlobalDemo",
						"label": "locktime",
						"offset": 0,
						"slot": "1",
						"type": "t_uint256"
					}
				],
				"types": {
					"t_address": {
						"encoding": "inplace",
						"label": "address",
						"numberOfBytes": "20"
					},
					"t_uint256": {
						"encoding": "inplace",
						"label": "uint256",
						"numberOfBytes": "32"
					}
				}
			},
			"userdoc": {
				"kind": "user",
				"methods": {},
				"version": 1
			}
		}
	}
}