{
	"Struct.sol": {
		"TestStruct": {
			"abi": [
				{
					"inputs": [
						{
							"internalType": "string",
							"name": "newProductName",
							"type": "string"
						},
						{
							"internalType": "uint256",
							"name": "_price",
							"type": "uint256"
						},
						{
							"internalType": "uint256",
							"name": "_stock",
							"type": "uint256"
						}
					],
					"name": "addProduct",
					"outputs": [],
					"stateMutability": "nonpayable",
					"type": "function"
				},
				{
					"inputs": [
						{
							"internalType": "uint256",
							"name": "_productID",
							"type": "uint256"
						},
						{
							"internalType": "uint256",
							"name": "_count",
							"type": "uint256"
						}
					],
					"name": "createOrder",
					"outputs": [],
					"stateMutability": "nonpayable",
					"type": "function"
				},
				{
					"inputs": [],
					"name": "getOrder",
					"outputs": [
						{
							"internalType": "uint256",
							"name": "_orderId",
							"type": "uint256"
						},
						{
							"internalType": "uint256",
							"name": "_productId",
							"type": "uint256"
						},
						{
							"internalType": "uint256",
							"name": "_count",
							"type": "uint256"
						}
					],
					"stateMutability": "view",
					"type": "function"
				},
				{
					"inputs": [
						{
							"internalType": "uint256",
							"name": "_productID",
							"type": "uint256"
						}
					],
					"name": "getProductInfo",
					"outputs": [
						{
							"internalType": "string",
							"name": "pName",
							"type": "string"
						},
						{
							"internalType": "uint256",
							"name": "price",
							"type": "uint256"
						},
						{
							"internalType": "uint256",
							"name": "stock",
							"type": "uint256"
						}
					],
					"stateMutability": "view",
					"type": "function"
				},
				{
					"inputs": [
						{
							"internalType": "address",
							"name": "",
							"type": "address"
						}
					],
					"name": "orders",
					"outputs": [
						{
							"internalType": "uint256",
							"name": "orderId",
							"type": "uint256"
						},
						{
							"internalType": "address",
							"name": "customerId",
							"type": "address"
						},
						{
							"internalType": "uint256",
							"name": "productId",
							"type": "uint256"
						},
						{
							"internalType": "uint256",
							"name": "count",
							"type": "uint256"
						}
					],
					"stateMutability": "view",
					"type": "function"
				},
				{
					"inputs": [
						{
							"internalType": "uint256",
							"name": "",
							"type": "uint256"
						}
					],
					"name": "products",
					"outputs": [
						{
							"internalType": "uint256",
							"name": "productId",
							"type": "uint256"
						},
						{
							"internalType": "string",
							"name": "productName",
							"type": "string"
						},
						{
							"internalType": "uint256",
							"name": "price",
							"type": "uint256"
						},
						{
							"internalType": "uint256",
							"name": "stock",
							"type": "uint256"
						}
					],
					"stateMutability": "view",
					"type": "function"
				},
				{
					"inputs": [
						{
							"internalType": "uint256",
							"name": "_productID",
							"type": "uint256"
						},
						{
							"internalType": "string",
							"name": "newProductName",
							"type": "string"
						},
						{
							"internalType": "uint256",
							"name": "_price",
							"type": "uint256"
						},
						{
							"internalType": "uint256",
							"name": "_stock",
							"type": "uint256"
						}
					],
					"name": "updateProduct",
					"outputs": [],
					"stateMutability": "nonpayable",
					"type": "function"
				}
			],
			"devdoc": {
				"kind": "dev",
				"methods": {},
				"version": 1
			},
			"evm": {
				"assembly": "    /* \"Struct.sol\":58:2054  contract TestStruct {... */\n  mstore(0x40, 0x80)\n  callvalue\n  dup1\n  iszero\n  tag_1\n  jumpi\n  0x00\n  dup1\n  revert\ntag_1:\n  pop\n  dataSize(sub_0)\n  dup1\n  dataOffset(sub_0)\n  0x00\n  codecopy\n  0x00\n  return\nstop\n\nsub_0: assembly {\n        /* \"Struct.sol\":58:2054  contract TestStruct {... */\n      mstore(0x40, 0x80)\n      callvalue\n      dup1\n      iszero\n      tag_1\n      jumpi\n      0x00\n      dup1\n      revert\n    tag_1:\n      pop\n      jumpi(tag_2, lt(calldatasize, 0x04))\n      shr(0xe0, calldataload(0x00))\n      dup1\n      0x79a85e6c\n      gt\n      tag_10\n      jumpi\n      dup1\n      0x79a85e6c\n      eq\n      tag_6\n      jumpi\n      dup1\n      0x7acc0b20\n      eq\n      tag_7\n      jumpi\n      dup1\n      0xd36dedd2\n      eq\n      tag_8\n      jumpi\n      dup1\n      0xf40e8471\n      eq\n      tag_9\n      jumpi\n      jump(tag_2)\n    tag_10:\n      dup1\n      0x125b0b34\n      eq\n      tag_3\n      jumpi\n      dup1\n      0x2d561787\n      eq\n      tag_4\n      jumpi\n      dup1\n      0x79109baa\n      eq\n      tag_5\n      jumpi\n    tag_2:\n      0x00\n      dup1\n      revert\n        /* \"Struct.sol\":1056:1305  function addProduct(string memory newProductName ,uint _price, uint _stock) public {... */\n    tag_3:\n      tag_11\n      0x04\n      dup1\n      calldatasize\n      sub\n      dup2\n      add\n      swap1\n      tag_12\n      swap2\n      swap1\n      tag_13\n      jump\t// in\n    tag_12:\n      tag_14\n      jump\t// in\n    tag_11:\n      stop\n        /* \"Struct.sol\":677:1026  function updateProduct(uint _productID,string memory newProductName ,uint _price, uint _stock) public {... */\n    tag_4:\n      tag_15\n      0x04\n      dup1\n      calldatasize\n      sub\n      dup2\n      add\n      swap1\n      tag_16\n      swap2\n      swap1\n      tag_17\n      jump\t// in\n    tag_16:\n      tag_18\n      jump\t// in\n    tag_15:\n      stop\n        /* \"Struct.sol\":1613:1828  function createOrder(uint _productID, uint _count) public {... */\n    tag_5:\n      tag_19\n      0x04\n      dup1\n      calldatasize\n      sub\n      dup2\n      add\n      swap1\n      tag_20\n      swap2\n      swap1\n      tag_21\n      jump\t// in\n    tag_20:\n      tag_22\n      jump\t// in\n    tag_19:\n      stop\n        /* \"Struct.sol\":1345:1605  function getProductInfo(uint _productID) public view returns (string memory pName,uint price,uint stock){... */\n    tag_6:\n      tag_23\n      0x04\n      dup1\n      calldatasize\n      sub\n      dup2\n      add\n      swap1\n      tag_24\n      swap2\n      swap1\n      tag_25\n      jump\t// in\n    tag_24:\n      tag_26\n      jump\t// in\n    tag_23:\n      mload(0x40)\n      tag_27\n      swap4\n      swap3\n      swap2\n      swap1\n      tag_28\n      jump\t// in\n    tag_27:\n      mload(0x40)\n      dup1\n      swap2\n      sub\n      swap1\n      return\n        /* \"Struct.sol\":510:551  mapping (uint => Product) public products */\n    tag_7:\n      tag_29\n      0x04\n      dup1\n      calldatasize\n      sub\n      dup2\n      add\n      swap1\n      tag_30\n      swap2\n      swap1\n      tag_25\n      jump\t// in\n    tag_30:\n      tag_31\n      jump\t// in\n    tag_29:\n      mload(0x40)\n      tag_32\n      swap5\n      swap4\n      swap3\n      swap2\n      swap1\n      tag_33\n      jump\t// in\n    tag_32:\n      mload(0x40)\n      dup1\n      swap2\n      sub\n      swap1\n      return\n        /* \"Struct.sol\":1836:2051  function getOrder() public view returns (uint _orderId, uint _productId, uint _count) {... */\n    tag_8:\n      tag_34\n      tag_35\n      jump\t// in\n    tag_34:\n      mload(0x40)\n      tag_36\n      swap4\n      swap3\n      swap2\n      swap1\n      tag_37\n      jump\t// in\n    tag_36:\n      mload(0x40)\n      dup1\n      swap2\n      sub\n      swap1\n      return\n        /* \"Struct.sol\":435:475  mapping (address => Order) public orders */\n    tag_9:\n      tag_38\n      0x04\n      dup1\n      calldatasize\n      sub\n      dup2\n      add\n      swap1\n      tag_39\n      swap2\n      swap1\n      tag_40\n      jump\t// in\n    tag_39:\n      tag_41\n      jump\t// in\n    tag_38:\n      mload(0x40)\n      tag_42\n      swap5\n      swap4\n      swap3\n      swap2\n      swap1\n      tag_43\n      jump\t// in\n    tag_42:\n      mload(0x40)\n      dup1\n      swap2\n      sub\n      swap1\n      return\n        /* \"Struct.sol\":1056:1305  function addProduct(string memory newProductName ,uint _price, uint _stock) public {... */\n    tag_14:\n        /* \"Struct.sol\":1150:1159  productId */\n      0x02\n      0x00\n        /* \"Struct.sol\":1150:1161  productId++ */\n      dup2\n      sload\n      dup1\n      swap3\n      swap2\n      swap1\n      tag_45\n      swap1\n      tag_46\n      jump\t// in\n    tag_45:\n      swap2\n      swap1\n      pop\n      sstore\n      pop\n        /* \"Struct.sol\":1210:1257  Product(productId,newProductName,_price,_stock) */\n      mload(0x40)\n      dup1\n      0x80\n      add\n      0x40\n      mstore\n      dup1\n        /* \"Struct.sol\":1218:1227  productId */\n      sload(0x02)\n        /* \"Struct.sol\":1210:1257  Product(productId,newProductName,_price,_stock) */\n      dup2\n      mstore\n      0x20\n      add\n        /* \"Struct.sol\":1228:1242  newProductName */\n      dup5\n        /* \"Struct.sol\":1210:1257  Product(productId,newProductName,_price,_stock) */\n      dup2\n      mstore\n      0x20\n      add\n        /* \"Struct.sol\":1243:1249  _price */\n      dup4\n        /* \"Struct.sol\":1210:1257  Product(productId,newProductName,_price,_stock) */\n      dup2\n      mstore\n      0x20\n      add\n        /* \"Struct.sol\":1250:1256  _stock */\n      dup3\n        /* \"Struct.sol\":1210:1257  Product(productId,newProductName,_price,_stock) */\n      dup2\n      mstore\n      pop\n        /* \"Struct.sol\":1188:1196  products */\n      0x01\n        /* \"Struct.sol\":1188:1207  products[productId] */\n      0x00\n        /* \"Struct.sol\":1197:1206  productId */\n      sload(0x02)\n        /* \"Struct.sol\":1188:1207  products[productId] */\n      dup2\n      mstore\n      0x20\n      add\n      swap1\n      dup2\n      mstore\n      0x20\n      add\n      0x00\n      keccak256\n        /* \"Struct.sol\":1188:1257  products[productId] = Product(productId,newProductName,_price,_stock) */\n      0x00\n      dup3\n      add\n      mload\n      dup2\n      0x00\n      add\n      sstore\n      0x20\n      dup3\n      add\n      mload\n      dup2\n      0x01\n      add\n      swap1\n      dup2\n      tag_47\n      swap2\n      swap1\n      tag_48\n      jump\t// in\n    tag_47:\n      pop\n      0x40\n      dup3\n      add\n      mload\n      dup2\n      0x02\n      add\n      sstore\n      0x60\n      dup3\n      add\n      mload\n      dup2\n      0x03\n      add\n      sstore\n      swap1\n      pop\n      pop\n        /* \"Struct.sol\":1056:1305  function addProduct(string memory newProductName ,uint _price, uint _stock) public {... */\n      pop\n      pop\n      pop\n      jump\t// out\n        /* \"Struct.sol\":677:1026  function updateProduct(uint _productID,string memory newProductName ,uint _price, uint _stock) public {... */\n    tag_18:\n        /* \"Struct.sol\":790:807  Product storage p */\n      0x00\n        /* \"Struct.sol\":810:818  products */\n      0x01\n        /* \"Struct.sol\":810:830  products[_productID] */\n      0x00\n        /* \"Struct.sol\":819:829  _productID */\n      dup7\n        /* \"Struct.sol\":810:830  products[_productID] */\n      dup2\n      mstore\n      0x20\n      add\n      swap1\n      dup2\n      mstore\n      0x20\n      add\n      0x00\n      keccak256\n        /* \"Struct.sol\":790:830  Product storage p = products[_productID] */\n      swap1\n      pop\n        /* \"Struct.sol\":901:915  newProductName */\n      dup4\n        /* \"Struct.sol\":885:886  p */\n      dup2\n        /* \"Struct.sol\":885:898  p.productName */\n      0x01\n      add\n        /* \"Struct.sol\":885:915  p.productName = newProductName */\n      swap1\n      dup2\n      tag_50\n      swap2\n      swap1\n      tag_48\n      jump\t// in\n    tag_50:\n      pop\n        /* \"Struct.sol\":957:963  _price */\n      dup3\n        /* \"Struct.sol\":947:948  p */\n      dup2\n        /* \"Struct.sol\":947:954  p.price */\n      0x02\n      add\n        /* \"Struct.sol\":947:963  p.price = _price */\n      dup2\n      swap1\n      sstore\n      pop\n        /* \"Struct.sol\":998:1004  _stock */\n      dup2\n        /* \"Struct.sol\":988:989  p */\n      dup2\n        /* \"Struct.sol\":988:995  p.stock */\n      0x03\n      add\n        /* \"Struct.sol\":988:1004  p.stock = _stock */\n      dup2\n      swap1\n      sstore\n      pop\n        /* \"Struct.sol\":779:1026  {... */\n      pop\n        /* \"Struct.sol\":677:1026  function updateProduct(uint _productID,string memory newProductName ,uint _price, uint _stock) public {... */\n      pop\n      pop\n      pop\n      pop\n      jump\t// out\n        /* \"Struct.sol\":1613:1828  function createOrder(uint _productID, uint _count) public {... */\n    tag_22:\n        /* \"Struct.sol\":1682:1689  orderId */\n      0x03\n      0x00\n        /* \"Struct.sol\":1682:1691  orderId++ */\n      dup2\n      sload\n      dup1\n      swap3\n      swap2\n      swap1\n      tag_52\n      swap1\n      tag_46\n      jump\t// in\n    tag_52:\n      swap2\n      swap1\n      pop\n      sstore\n      pop\n        /* \"Struct.sol\":1740:1786  Order(orderId, msg.sender, _productID, _count) */\n      mload(0x40)\n      dup1\n      0x80\n      add\n      0x40\n      mstore\n      dup1\n        /* \"Struct.sol\":1746:1753  orderId */\n      sload(0x03)\n        /* \"Struct.sol\":1740:1786  Order(orderId, msg.sender, _productID, _count) */\n      dup2\n      mstore\n      0x20\n      add\n        /* \"Struct.sol\":1755:1765  msg.sender */\n      caller\n        /* \"Struct.sol\":1740:1786  Order(orderId, msg.sender, _productID, _count) */\n      0xffffffffffffffffffffffffffffffffffffffff\n      and\n      dup2\n      mstore\n      0x20\n      add\n        /* \"Struct.sol\":1767:1777  _productID */\n      dup4\n        /* \"Struct.sol\":1740:1786  Order(orderId, msg.sender, _productID, _count) */\n      dup2\n      mstore\n      0x20\n      add\n        /* \"Struct.sol\":1779:1785  _count */\n      dup3\n        /* \"Struct.sol\":1740:1786  Order(orderId, msg.sender, _productID, _count) */\n      dup2\n      mstore\n      pop\n        /* \"Struct.sol\":1719:1725  orders */\n      0x00\n        /* \"Struct.sol\":1719:1737  orders[msg.sender] */\n      dup1\n        /* \"Struct.sol\":1726:1736  msg.sender */\n      caller\n        /* \"Struct.sol\":1719:1737  orders[msg.sender] */\n      0xffffffffffffffffffffffffffffffffffffffff\n      and\n      0xffffffffffffffffffffffffffffffffffffffff\n      and\n      dup2\n      mstore\n      0x20\n      add\n      swap1\n      dup2\n      mstore\n      0x20\n      add\n      0x00\n      keccak256\n        /* \"Struct.sol\":1719:1786  orders[msg.sender] = Order(orderId, msg.sender, _productID, _count) */\n      0x00\n      dup3\n      add\n      mload\n      dup2\n      0x00\n      add\n      sstore\n      0x20\n      dup3\n      add\n      mload\n      dup2\n      0x01\n      add\n      exp(0x0100, 0x00)\n      dup2\n      sload\n      dup2\n      0xffffffffffffffffffffffffffffffffffffffff\n      mul\n      not\n      and\n      swap1\n      dup4\n      0xffffffffffffffffffffffffffffffffffffffff\n      and\n      mul\n      or\n      swap1\n      sstore\n      pop\n      0x40\n      dup3\n      add\n      mload\n      dup2\n      0x02\n      add\n      sstore\n      0x60\n      dup3\n      add\n      mload\n      dup2\n      0x03\n      add\n      sstore\n      swap1\n      pop\n      pop\n        /* \"Struct.sol\":1613:1828  function createOrder(uint _productID, uint _count) public {... */\n      pop\n      pop\n      jump\t// out\n        /* \"Struct.sol\":1345:1605  function getProductInfo(uint _productID) public view returns (string memory pName,uint price,uint stock){... */\n    tag_26:\n        /* \"Struct.sol\":1407:1426  string memory pName */\n      0x60\n        /* \"Struct.sol\":1427:1437  uint price */\n      0x00\n        /* \"Struct.sol\":1438:1448  uint stock */\n      dup1\n        /* \"Struct.sol\":1460:1476  Product memory p */\n      0x00\n        /* \"Struct.sol\":1479:1487  products */\n      0x01\n        /* \"Struct.sol\":1479:1499  products[_productID] */\n      0x00\n        /* \"Struct.sol\":1488:1498  _productID */\n      dup7\n        /* \"Struct.sol\":1479:1499  products[_productID] */\n      dup2\n      mstore\n      0x20\n      add\n      swap1\n      dup2\n      mstore\n      0x20\n      add\n      0x00\n      keccak256\n        /* \"Struct.sol\":1460:1499  Product memory p = products[_productID] */\n      mload(0x40)\n      dup1\n      0x80\n      add\n      0x40\n      mstore\n      swap1\n      dup2\n      0x00\n      dup3\n      add\n      sload\n      dup2\n      mstore\n      0x20\n      add\n      0x01\n      dup3\n      add\n      dup1\n      sload\n      tag_54\n      swap1\n      tag_55\n      jump\t// in\n    tag_54:\n      dup1\n      0x1f\n      add\n      0x20\n      dup1\n      swap2\n      div\n      mul\n      0x20\n      add\n      mload(0x40)\n      swap1\n      dup2\n      add\n      0x40\n      mstore\n      dup1\n      swap3\n      swap2\n      swap1\n      dup2\n      dup2\n      mstore\n      0x20\n      add\n      dup3\n      dup1\n      sload\n      tag_56\n      swap1\n      tag_55\n      jump\t// in\n    tag_56:\n      dup1\n      iszero\n      tag_57\n      jumpi\n      dup1\n      0x1f\n      lt\n      tag_58\n      jumpi\n      0x0100\n      dup1\n      dup4\n      sload\n      div\n      mul\n      dup4\n      mstore\n      swap2\n      0x20\n      add\n      swap2\n      jump(tag_57)\n    tag_58:\n      dup3\n      add\n      swap2\n      swap1\n      0x00\n      mstore\n      keccak256(0x00, 0x20)\n      swap1\n    tag_59:\n      dup2\n      sload\n      dup2\n      mstore\n      swap1\n      0x01\n      add\n      swap1\n      0x20\n      add\n      dup1\n      dup4\n      gt\n      tag_59\n      jumpi\n      dup3\n      swap1\n      sub\n      0x1f\n      and\n      dup3\n      add\n      swap2\n    tag_57:\n      pop\n      pop\n      pop\n      pop\n      pop\n      dup2\n      mstore\n      0x20\n      add\n      0x02\n      dup3\n      add\n      sload\n      dup2\n      mstore\n      0x20\n      add\n      0x03\n      dup3\n      add\n      sload\n      dup2\n      mstore\n      pop\n      pop\n      swap1\n      pop\n        /* \"Struct.sol\":1547:1548  p */\n      dup1\n        /* \"Struct.sol\":1547:1560  p.productName */\n      0x20\n      add\n      mload\n        /* \"Struct.sol\":1561:1562  p */\n      dup2\n        /* \"Struct.sol\":1561:1568  p.price */\n      0x40\n      add\n      mload\n        /* \"Struct.sol\":1569:1570  p */\n      dup3\n        /* \"Struct.sol\":1569:1576  p.stock */\n      0x60\n      add\n      mload\n        /* \"Struct.sol\":1539:1577  return (p.productName,p.price,p.stock) */\n      swap4\n      pop\n      swap4\n      pop\n      swap4\n      pop\n      pop\n        /* \"Struct.sol\":1345:1605  function getProductInfo(uint _productID) public view returns (string memory pName,uint price,uint stock){... */\n      swap2\n      swap4\n      swap1\n      swap3\n      pop\n      jump\t// out\n        /* \"Struct.sol\":510:551  mapping (uint => Product) public products */\n    tag_31:\n      mstore(0x20, 0x01)\n      dup1\n      0x00\n      mstore\n      keccak256(0x00, 0x40)\n      0x00\n      swap2\n      pop\n      swap1\n      pop\n      dup1\n      0x00\n      add\n      sload\n      swap1\n      dup1\n      0x01\n      add\n      dup1\n      sload\n      tag_60\n      swap1\n      tag_55\n      jump\t// in\n    tag_60:\n      dup1\n      0x1f\n      add\n      0x20\n      dup1\n      swap2\n      div\n      mul\n      0x20\n      add\n      mload(0x40)\n      swap1\n      dup2\n      add\n      0x40\n      mstore\n      dup1\n      swap3\n      swap2\n      swap1\n      dup2\n      dup2\n      mstore\n      0x20\n      add\n      dup3\n      dup1\n      sload\n      tag_61\n      swap1\n      tag_55\n      jump\t// in\n    tag_61:\n      dup1\n      iszero\n      tag_62\n      jumpi\n      dup1\n      0x1f\n      lt\n      tag_63\n      jumpi\n      0x0100\n      dup1\n      dup4\n      sload\n      div\n      mul\n      dup4\n      mstore\n      swap2\n      0x20\n      add\n      swap2\n      jump(tag_62)\n    tag_63:\n      dup3\n      add\n      swap2\n      swap1\n      0x00\n      mstore\n      keccak256(0x00, 0x20)\n      swap1\n    tag_64:\n      dup2\n      sload\n      dup2\n      mstore\n      swap1\n      0x01\n      add\n      swap1\n      0x20\n      add\n      dup1\n      dup4\n      gt\n      tag_64\n      jumpi\n      dup3\n      swap1\n      sub\n      0x1f\n      and\n      dup3\n      add\n      swap2\n    tag_62:\n      pop\n      pop\n      pop\n      pop\n      pop\n      swap1\n      dup1\n      0x02\n      add\n      sload\n      swap1\n      dup1\n      0x03\n      add\n      sload\n      swap1\n      pop\n      dup5\n      jump\t// out\n        /* \"Struct.sol\":1836:2051  function getOrder() public view returns (uint _orderId, uint _productId, uint _count) {... */\n    tag_35:\n        /* \"Struct.sol\":1877:1890  uint _orderId */\n      0x00\n        /* \"Struct.sol\":1892:1907  uint _productId */\n      dup1\n        /* \"Struct.sol\":1909:1920  uint _count */\n      0x00\n        /* \"Struct.sol\":1940:1946  orders */\n      dup1\n        /* \"Struct.sol\":1940:1958  orders[msg.sender] */\n      0x00\n        /* \"Struct.sol\":1947:1957  msg.sender */\n      caller\n        /* \"Struct.sol\":1940:1958  orders[msg.sender] */\n      0xffffffffffffffffffffffffffffffffffffffff\n      and\n      0xffffffffffffffffffffffffffffffffffffffff\n      and\n      dup2\n      mstore\n      0x20\n      add\n      swap1\n      dup2\n      mstore\n      0x20\n      add\n      0x00\n      keccak256\n        /* \"Struct.sol\":1940:1966  orders[msg.sender].orderId */\n      0x00\n      add\n      sload\n        /* \"Struct.sol\":1968:1974  orders */\n      0x00\n        /* \"Struct.sol\":1968:1986  orders[msg.sender] */\n      dup1\n        /* \"Struct.sol\":1975:1985  msg.sender */\n      caller\n        /* \"Struct.sol\":1968:1986  orders[msg.sender] */\n      0xffffffffffffffffffffffffffffffffffffffff\n      and\n      0xffffffffffffffffffffffffffffffffffffffff\n      and\n      dup2\n      mstore\n      0x20\n      add\n      swap1\n      dup2\n      mstore\n      0x20\n      add\n      0x00\n      keccak256\n        /* \"Struct.sol\":1968:1996  orders[msg.sender].productId */\n      0x02\n      add\n      sload\n        /* \"Struct.sol\":1998:2004  orders */\n      0x00\n        /* \"Struct.sol\":1998:2016  orders[msg.sender] */\n      dup1\n        /* \"Struct.sol\":2005:2015  msg.sender */\n      caller\n        /* \"Struct.sol\":1998:2016  orders[msg.sender] */\n      0xffffffffffffffffffffffffffffffffffffffff\n      and\n      0xffffffffffffffffffffffffffffffffffffffff\n      and\n      dup2\n      mstore\n      0x20\n      add\n      swap1\n      dup2\n      mstore\n      0x20\n      add\n      0x00\n      keccak256\n        /* \"Struct.sol\":1998:2022  orders[msg.sender].count */\n      0x03\n      add\n      sload\n        /* \"Struct.sol\":1933:2023  return(orders[msg.sender].orderId, orders[msg.sender].productId, orders[msg.sender].count) */\n      swap3\n      pop\n      swap3\n      pop\n      swap3\n      pop\n        /* \"Struct.sol\":1836:2051  function getOrder() public view returns (uint _orderId, uint _productId, uint _count) {... */\n      swap1\n      swap2\n      swap3\n      jump\t// out\n        /* \"Struct.sol\":435:475  mapping (address => Order) public orders */\n    tag_41:\n      mstore(0x20, 0x00)\n      dup1\n      0x00\n      mstore\n      keccak256(0x00, 0x40)\n      0x00\n      swap2\n      pop\n      swap1\n      pop\n      dup1\n      0x00\n      add\n      sload\n      swap1\n      dup1\n      0x01\n      add\n      0x00\n      swap1\n      sload\n      swap1\n      0x0100\n      exp\n      swap1\n      div\n      0xffffffffffffffffffffffffffffffffffffffff\n      and\n      swap1\n      dup1\n      0x02\n      add\n      sload\n      swap1\n      dup1\n      0x03\n      add\n      sload\n      swap1\n      pop\n      dup5\n      jump\t// out\n        /* \"#utility.yul\":7:82   */\n    tag_66:\n        /* \"#utility.yul\":40:46   */\n      0x00\n        /* \"#utility.yul\":73:75   */\n      0x40\n        /* \"#utility.yul\":67:76   */\n      mload\n        /* \"#utility.yul\":57:76   */\n      swap1\n      pop\n        /* \"#utility.yul\":7:82   */\n      swap1\n      jump\t// out\n        /* \"#utility.yul\":88:205   */\n    tag_67:\n        /* \"#utility.yul\":197:198   */\n      0x00\n        /* \"#utility.yul\":194:195   */\n      dup1\n        /* \"#utility.yul\":187:199   */\n      revert\n        /* \"#utility.yul\":211:328   */\n    tag_68:\n        /* \"#utility.yul\":320:321   */\n      0x00\n        /* \"#utility.yul\":317:318   */\n      dup1\n        /* \"#utility.yul\":310:322   */\n      revert\n        /* \"#utility.yul\":334:451   */\n    tag_69:\n        /* \"#utility.yul\":443:444   */\n      0x00\n        /* \"#utility.yul\":440:441   */\n      dup1\n        /* \"#utility.yul\":433:445   */\n      revert\n        /* \"#utility.yul\":457:574   */\n    tag_70:\n        /* \"#utility.yul\":566:567   */\n      0x00\n        /* \"#utility.yul\":563:564   */\n      dup1\n        /* \"#utility.yul\":556:568   */\n      revert\n        /* \"#utility.yul\":580:682   */\n    tag_71:\n        /* \"#utility.yul\":621:627   */\n      0x00\n        /* \"#utility.yul\":672:674   */\n      0x1f\n        /* \"#utility.yul\":668:675   */\n      not\n        /* \"#utility.yul\":663:665   */\n      0x1f\n        /* \"#utility.yul\":656:661   */\n      dup4\n        /* \"#utility.yul\":652:666   */\n      add\n        /* \"#utility.yul\":648:676   */\n      and\n        /* \"#utility.yul\":638:676   */\n      swap1\n      pop\n        /* \"#utility.yul\":580:682   */\n      swap2\n      swap1\n      pop\n      jump\t// out\n        /* \"#utility.yul\":688:868   */\n    tag_72:\n        /* \"#utility.yul\":736:813   */\n      0x4e487b7100000000000000000000000000000000000000000000000000000000\n        /* \"#utility.yul\":733:734   */\n      0x00\n        /* \"#utility.yul\":726:814   */\n      mstore\n        /* \"#utility.yul\":833:837   */\n      0x41\n        /* \"#utility.yul\":830:831   */\n      0x04\n        /* \"#utility.yul\":823:838   */\n      mstore\n        /* \"#utility.yul\":857:861   */\n      0x24\n        /* \"#utility.yul\":854:855   */\n      0x00\n        /* \"#utility.yul\":847:862   */\n      revert\n        /* \"#utility.yul\":874:1155   */\n    tag_73:\n        /* \"#utility.yul\":957:984   */\n      tag_118\n        /* \"#utility.yul\":979:983   */\n      dup3\n        /* \"#utility.yul\":957:984   */\n      tag_71\n      jump\t// in\n    tag_118:\n        /* \"#utility.yul\":949:955   */\n      dup2\n        /* \"#utility.yul\":945:985   */\n      add\n        /* \"#utility.yul\":1087:1093   */\n      dup2\n        /* \"#utility.yul\":1075:1085   */\n      dup2\n        /* \"#utility.yul\":1072:1094   */\n      lt\n        /* \"#utility.yul\":1051:1069   */\n      0xffffffffffffffff\n        /* \"#utility.yul\":1039:1049   */\n      dup3\n        /* \"#utility.yul\":1036:1070   */\n      gt\n        /* \"#utility.yul\":1033:1095   */\n      or\n        /* \"#utility.yul\":1030:1118   */\n      iszero\n      tag_119\n      jumpi\n        /* \"#utility.yul\":1098:1116   */\n      tag_120\n      tag_72\n      jump\t// in\n    tag_120:\n        /* \"#utility.yul\":1030:1118   */\n    tag_119:\n        /* \"#utility.yul\":1138:1148   */\n      dup1\n        /* \"#utility.yul\":1134:1136   */\n      0x40\n        /* \"#utility.yul\":1127:1149   */\n      mstore\n        /* \"#utility.yul\":917:1155   */\n      pop\n        /* \"#utility.yul\":874:1155   */\n      pop\n      pop\n      jump\t// out\n        /* \"#utility.yul\":1161:1290   */\n    tag_74:\n        /* \"#utility.yul\":1195:1201   */\n      0x00\n        /* \"#utility.yul\":1222:1242   */\n      tag_122\n      tag_66\n      jump\t// in\n    tag_122:\n        /* \"#utility.yul\":1212:1242   */\n      swap1\n      pop\n        /* \"#utility.yul\":1251:1284   */\n      tag_123\n        /* \"#utility.yul\":1279:1283   */\n      dup3\n        /* \"#utility.yul\":1271:1277   */\n      dup3\n        /* \"#utility.yul\":1251:1284   */\n      tag_73\n      jump\t// in\n    tag_123:\n        /* \"#utility.yul\":1161:1290   */\n      swap2\n      swap1\n      pop\n      jump\t// out\n        /* \"#utility.yul\":1296:1604   */\n    tag_75:\n        /* \"#utility.yul\":1358:1362   */\n      0x00\n        /* \"#utility.yul\":1448:1466   */\n      0xffffffffffffffff\n        /* \"#utility.yul\":1440:1446   */\n      dup3\n        /* \"#utility.yul\":1437:1467   */\n      gt\n        /* \"#utility.yul\":1434:1490   */\n      iszero\n      tag_125\n      jumpi\n        /* \"#utility.yul\":1470:1488   */\n      tag_126\n      tag_72\n      jump\t// in\n    tag_126:\n        /* \"#utility.yul\":1434:1490   */\n    tag_125:\n        /* \"#utility.yul\":1508:1537   */\n      tag_127\n        /* \"#utility.yul\":1530:1536   */\n      dup3\n        /* \"#utility.yul\":1508:1537   */\n      tag_71\n      jump\t// in\n    tag_127:\n        /* \"#utility.yul\":1500:1537   */\n      swap1\n      pop\n        /* \"#utility.yul\":1592:1596   */\n      0x20\n        /* \"#utility.yul\":1586:1590   */\n      dup2\n        /* \"#utility.yul\":1582:1597   */\n      add\n        /* \"#utility.yul\":1574:1597   */\n      swap1\n      pop\n        /* \"#utility.yul\":1296:1604   */\n      swap2\n      swap1\n      pop\n      jump\t// out\n        /* \"#utility.yul\":1610:1758   */\n    tag_76:\n        /* \"#utility.yul\":1708:1714   */\n      dup3\n        /* \"#utility.yul\":1703:1706   */\n      dup2\n        /* \"#utility.yul\":1698:1701   */\n      dup4\n        /* \"#utility.yul\":1685:1715   */\n      calldatacopy\n        /* \"#utility.yul\":1749:1750   */\n      0x00\n        /* \"#utility.yul\":1740:1746   */\n      dup4\n        /* \"#utility.yul\":1735:1738   */\n      dup4\n        /* \"#utility.yul\":1731:1747   */\n      add\n        /* \"#utility.yul\":1724:1751   */\n      mstore\n        /* \"#utility.yul\":1610:1758   */\n      pop\n      pop\n      pop\n      jump\t// out\n        /* \"#utility.yul\":1764:2189   */\n    tag_77:\n        /* \"#utility.yul\":1842:1847   */\n      0x00\n        /* \"#utility.yul\":1867:1933   */\n      tag_130\n        /* \"#utility.yul\":1883:1932   */\n      tag_131\n        /* \"#utility.yul\":1925:1931   */\n      dup5\n        /* \"#utility.yul\":1883:1932   */\n      tag_75\n      jump\t// in\n    tag_131:\n        /* \"#utility.yul\":1867:1933   */\n      tag_74\n      jump\t// in\n    tag_130:\n        /* \"#utility.yul\":1858:1933   */\n      swap1\n      pop\n        /* \"#utility.yul\":1956:1962   */\n      dup3\n        /* \"#utility.yul\":1949:1954   */\n      dup2\n        /* \"#utility.yul\":1942:1963   */\n      mstore\n        /* \"#utility.yul\":1994:1998   */\n      0x20\n        /* \"#utility.yul\":1987:1992   */\n      dup2\n        /* \"#utility.yul\":1983:1999   */\n      add\n        /* \"#utility.yul\":2032:2035   */\n      dup5\n        /* \"#utility.yul\":2023:2029   */\n      dup5\n        /* \"#utility.yul\":2018:2021   */\n      dup5\n        /* \"#utility.yul\":2014:2030   */\n      add\n        /* \"#utility.yul\":2011:2036   */\n      gt\n        /* \"#utility.yul\":2008:2120   */\n      iszero\n      tag_132\n      jumpi\n        /* \"#utility.yul\":2039:2118   */\n      tag_133\n      tag_70\n      jump\t// in\n    tag_133:\n        /* \"#utility.yul\":2008:2120   */\n    tag_132:\n        /* \"#utility.yul\":2129:2183   */\n      tag_134\n        /* \"#utility.yul\":2176:2182   */\n      dup5\n        /* \"#utility.yul\":2171:2174   */\n      dup3\n        /* \"#utility.yul\":2166:2169   */\n      dup6\n        /* \"#utility.yul\":2129:2183   */\n      tag_76\n      jump\t// in\n    tag_134:\n        /* \"#utility.yul\":1848:2189   */\n      pop\n        /* \"#utility.yul\":1764:2189   */\n      swap4\n      swap3\n      pop\n      pop\n      pop\n      jump\t// out\n        /* \"#utility.yul\":2209:2549   */\n    tag_78:\n        /* \"#utility.yul\":2265:2270   */\n      0x00\n        /* \"#utility.yul\":2314:2317   */\n      dup3\n        /* \"#utility.yul\":2307:2311   */\n      0x1f\n        /* \"#utility.yul\":2299:2305   */\n      dup4\n        /* \"#utility.yul\":2295:2312   */\n      add\n        /* \"#utility.yul\":2291:2318   */\n      slt\n        /* \"#utility.yul\":2281:2403   */\n      tag_136\n      jumpi\n        /* \"#utility.yul\":2322:2401   */\n      tag_137\n      tag_69\n      jump\t// in\n    tag_137:\n        /* \"#utility.yul\":2281:2403   */\n    tag_136:\n        /* \"#utility.yul\":2439:2445   */\n      dup2\n        /* \"#utility.yul\":2426:2446   */\n      calldataload\n        /* \"#utility.yul\":2464:2543   */\n      tag_138\n        /* \"#utility.yul\":2539:2542   */\n      dup5\n        /* \"#utility.yul\":2531:2537   */\n      dup3\n        /* \"#utility.yul\":2524:2528   */\n      0x20\n        /* \"#utility.yul\":2516:2522   */\n      dup7\n        /* \"#utility.yul\":2512:2529   */\n      add\n        /* \"#utility.yul\":2464:2543   */\n      tag_77\n      jump\t// in\n    tag_138:\n        /* \"#utility.yul\":2455:2543   */\n      swap2\n      pop\n        /* \"#utility.yul\":2271:2549   */\n      pop\n        /* \"#utility.yul\":2209:2549   */\n      swap3\n      swap2\n      pop\n      pop\n      jump\t// out\n        /* \"#utility.yul\":2555:2632   */\n    tag_79:\n        /* \"#utility.yul\":2592:2599   */\n      0x00\n        /* \"#utility.yul\":2621:2626   */\n      dup2\n        /* \"#utility.yul\":2610:2626   */\n      swap1\n      pop\n        /* \"#utility.yul\":2555:2632   */\n      swap2\n      swap1\n      pop\n      jump\t// out\n        /* \"#utility.yul\":2638:2760   */\n    tag_80:\n        /* \"#utility.yul\":2711:2735   */\n      tag_141\n        /* \"#utility.yul\":2729:2734   */\n      dup2\n        /* \"#utility.yul\":2711:2735   */\n      tag_79\n      jump\t// in\n    tag_141:\n        /* \"#utility.yul\":2704:2709   */\n      dup2\n        /* \"#utility.yul\":2701:2736   */\n      eq\n        /* \"#utility.yul\":2691:2754   */\n      tag_142\n      jumpi\n        /* \"#utility.yul\":2750:2751   */\n      0x00\n        /* \"#utility.yul\":2747:2748   */\n      dup1\n        /* \"#utility.yul\":2740:2752   */\n      revert\n        /* \"#utility.yul\":2691:2754   */\n    tag_142:\n        /* \"#utility.yul\":2638:2760   */\n      pop\n      jump\t// out\n        /* \"#utility.yul\":2766:2905   */\n    tag_81:\n        /* \"#utility.yul\":2812:2817   */\n      0x00\n        /* \"#utility.yul\":2850:2856   */\n      dup2\n        /* \"#utility.yul\":2837:2857   */\n      calldataload\n        /* \"#utility.yul\":2828:2857   */\n      swap1\n      pop\n        /* \"#utility.yul\":2866:2899   */\n      tag_144\n        /* \"#utility.yul\":2893:2898   */\n      dup2\n        /* \"#utility.yul\":2866:2899   */\n      tag_80\n      jump\t// in\n    tag_144:\n        /* \"#utility.yul\":2766:2905   */\n      swap3\n      swap2\n      pop\n      pop\n      jump\t// out\n        /* \"#utility.yul\":2911:3710   */\n    tag_13:\n        /* \"#utility.yul\":2998:3004   */\n      0x00\n        /* \"#utility.yul\":3006:3012   */\n      dup1\n        /* \"#utility.yul\":3014:3020   */\n      0x00\n        /* \"#utility.yul\":3063:3065   */\n      0x60\n        /* \"#utility.yul\":3051:3060   */\n      dup5\n        /* \"#utility.yul\":3042:3049   */\n      dup7\n        /* \"#utility.yul\":3038:3061   */\n      sub\n        /* \"#utility.yul\":3034:3066   */\n      slt\n        /* \"#utility.yul\":3031:3150   */\n      iszero\n      tag_146\n      jumpi\n        /* \"#utility.yul\":3069:3148   */\n      tag_147\n      tag_67\n      jump\t// in\n    tag_147:\n        /* \"#utility.yul\":3031:3150   */\n    tag_146:\n        /* \"#utility.yul\":3217:3218   */\n      0x00\n        /* \"#utility.yul\":3206:3215   */\n      dup5\n        /* \"#utility.yul\":3202:3219   */\n      add\n        /* \"#utility.yul\":3189:3220   */\n      calldataload\n        /* \"#utility.yul\":3247:3265   */\n      0xffffffffffffffff\n        /* \"#utility.yul\":3239:3245   */\n      dup2\n        /* \"#utility.yul\":3236:3266   */\n      gt\n        /* \"#utility.yul\":3233:3350   */\n      iszero\n      tag_148\n      jumpi\n        /* \"#utility.yul\":3269:3348   */\n      tag_149\n      tag_68\n      jump\t// in\n    tag_149:\n        /* \"#utility.yul\":3233:3350   */\n    tag_148:\n        /* \"#utility.yul\":3374:3437   */\n      tag_150\n        /* \"#utility.yul\":3429:3436   */\n      dup7\n        /* \"#utility.yul\":3420:3426   */\n      dup3\n        /* \"#utility.yul\":3409:3418   */\n      dup8\n        /* \"#utility.yul\":3405:3427   */\n      add\n        /* \"#utility.yul\":3374:3437   */\n      tag_78\n      jump\t// in\n    tag_150:\n        /* \"#utility.yul\":3364:3437   */\n      swap4\n      pop\n        /* \"#utility.yul\":3160:3447   */\n      pop\n        /* \"#utility.yul\":3486:3488   */\n      0x20\n        /* \"#utility.yul\":3512:3565   */\n      tag_151\n        /* \"#utility.yul\":3557:3564   */\n      dup7\n        /* \"#utility.yul\":3548:3554   */\n      dup3\n        /* \"#utility.yul\":3537:3546   */\n      dup8\n        /* \"#utility.yul\":3533:3555   */\n      add\n        /* \"#utility.yul\":3512:3565   */\n      tag_81\n      jump\t// in\n    tag_151:\n        /* \"#utility.yul\":3502:3565   */\n      swap3\n      pop\n        /* \"#utility.yul\":3457:3575   */\n      pop\n        /* \"#utility.yul\":3614:3616   */\n      0x40\n        /* \"#utility.yul\":3640:3693   */\n      tag_152\n        /* \"#utility.yul\":3685:3692   */\n      dup7\n        /* \"#utility.yul\":3676:3682   */\n      dup3\n        /* \"#utility.yul\":3665:3674   */\n      dup8\n        /* \"#utility.yul\":3661:3683   */\n      add\n        /* \"#utility.yul\":3640:3693   */\n      tag_81\n      jump\t// in\n    tag_152:\n        /* \"#utility.yul\":3630:3693   */\n      swap2\n      pop\n        /* \"#utility.yul\":3585:3703   */\n      pop\n        /* \"#utility.yul\":2911:3710   */\n      swap3\n      pop\n      swap3\n      pop\n      swap3\n      jump\t// out\n        /* \"#utility.yul\":3716:4661   */\n    tag_17:\n        /* \"#utility.yul\":3812:3818   */\n      0x00\n        /* \"#utility.yul\":3820:3826   */\n      dup1\n        /* \"#utility.yul\":3828:3834   */\n      0x00\n        /* \"#utility.yul\":3836:3842   */\n      dup1\n        /* \"#utility.yul\":3885:3888   */\n      0x80\n        /* \"#utility.yul\":3873:3882   */\n      dup6\n        /* \"#utility.yul\":3864:3871   */\n      dup8\n        /* \"#utility.yul\":3860:3883   */\n      sub\n        /* \"#utility.yul\":3856:3889   */\n      slt\n        /* \"#utility.yul\":3853:3973   */\n      iszero\n      tag_154\n      jumpi\n        /* \"#utility.yul\":3892:3971   */\n      tag_155\n      tag_67\n      jump\t// in\n    tag_155:\n        /* \"#utility.yul\":3853:3973   */\n    tag_154:\n        /* \"#utility.yul\":4012:4013   */\n      0x00\n        /* \"#utility.yul\":4037:4090   */\n      tag_156\n        /* \"#utility.yul\":4082:4089   */\n      dup8\n        /* \"#utility.yul\":4073:4079   */\n      dup3\n        /* \"#utility.yul\":4062:4071   */\n      dup9\n        /* \"#utility.yul\":4058:4080   */\n      add\n        /* \"#utility.yul\":4037:4090   */\n      tag_81\n      jump\t// in\n    tag_156:\n        /* \"#utility.yul\":4027:4090   */\n      swap5\n      pop\n        /* \"#utility.yul\":3983:4100   */\n      pop\n        /* \"#utility.yul\":4167:4169   */\n      0x20\n        /* \"#utility.yul\":4156:4165   */\n      dup6\n        /* \"#utility.yul\":4152:4170   */\n      add\n        /* \"#utility.yul\":4139:4171   */\n      calldataload\n        /* \"#utility.yul\":4198:4216   */\n      0xffffffffffffffff\n        /* \"#utility.yul\":4190:4196   */\n      dup2\n        /* \"#utility.yul\":4187:4217   */\n      gt\n        /* \"#utility.yul\":4184:4301   */\n      iszero\n      tag_157\n      jumpi\n        /* \"#utility.yul\":4220:4299   */\n      tag_158\n      tag_68\n      jump\t// in\n    tag_158:\n        /* \"#utility.yul\":4184:4301   */\n    tag_157:\n        /* \"#utility.yul\":4325:4388   */\n      tag_159\n        /* \"#utility.yul\":4380:4387   */\n      dup8\n        /* \"#utility.yul\":4371:4377   */\n      dup3\n        /* \"#utility.yul\":4360:4369   */\n      dup9\n        /* \"#utility.yul\":4356:4378   */\n      add\n        /* \"#utility.yul\":4325:4388   */\n      tag_78\n      jump\t// in\n    tag_159:\n        /* \"#utility.yul\":4315:4388   */\n      swap4\n      pop\n        /* \"#utility.yul\":4110:4398   */\n      pop\n        /* \"#utility.yul\":4437:4439   */\n      0x40\n        /* \"#utility.yul\":4463:4516   */\n      tag_160\n        /* \"#utility.yul\":4508:4515   */\n      dup8\n        /* \"#utility.yul\":4499:4505   */\n      dup3\n        /* \"#utility.yul\":4488:4497   */\n      dup9\n        /* \"#utility.yul\":4484:4506   */\n      add\n        /* \"#utility.yul\":4463:4516   */\n      tag_81\n      jump\t// in\n    tag_160:\n        /* \"#utility.yul\":4453:4516   */\n      swap3\n      pop\n        /* \"#utility.yul\":4408:4526   */\n      pop\n        /* \"#utility.yul\":4565:4567   */\n      0x60\n        /* \"#utility.yul\":4591:4644   */\n      tag_161\n        /* \"#utility.yul\":4636:4643   */\n      dup8\n        /* \"#utility.yul\":4627:4633   */\n      dup3\n        /* \"#utility.yul\":4616:4625   */\n      dup9\n        /* \"#utility.yul\":4612:4634   */\n      add\n        /* \"#utility.yul\":4591:4644   */\n      tag_81\n      jump\t// in\n    tag_161:\n        /* \"#utility.yul\":4581:4644   */\n      swap2\n      pop\n        /* \"#utility.yul\":4536:4654   */\n      pop\n        /* \"#utility.yul\":3716:4661   */\n      swap3\n      swap6\n      swap2\n      swap5\n      pop\n      swap3\n      pop\n      jump\t// out\n        /* \"#utility.yul\":4667:5141   */\n    tag_21:\n        /* \"#utility.yul\":4735:4741   */\n      0x00\n        /* \"#utility.yul\":4743:4749   */\n      dup1\n        /* \"#utility.yul\":4792:4794   */\n      0x40\n        /* \"#utility.yul\":4780:4789   */\n      dup4\n        /* \"#utility.yul\":4771:4778   */\n      dup6\n        /* \"#utility.yul\":4767:4790   */\n      sub\n        /* \"#utility.yul\":4763:4795   */\n      slt\n        /* \"#utility.yul\":4760:4879   */\n      iszero\n      tag_163\n      jumpi\n        /* \"#utility.yul\":4798:4877   */\n      tag_164\n      tag_67\n      jump\t// in\n    tag_164:\n        /* \"#utility.yul\":4760:4879   */\n    tag_163:\n        /* \"#utility.yul\":4918:4919   */\n      0x00\n        /* \"#utility.yul\":4943:4996   */\n      tag_165\n        /* \"#utility.yul\":4988:4995   */\n      dup6\n        /* \"#utility.yul\":4979:4985   */\n      dup3\n        /* \"#utility.yul\":4968:4977   */\n      dup7\n        /* \"#utility.yul\":4964:4986   */\n      add\n        /* \"#utility.yul\":4943:4996   */\n      tag_81\n      jump\t// in\n    tag_165:\n        /* \"#utility.yul\":4933:4996   */\n      swap3\n      pop\n        /* \"#utility.yul\":4889:5006   */\n      pop\n        /* \"#utility.yul\":5045:5047   */\n      0x20\n        /* \"#utility.yul\":5071:5124   */\n      tag_166\n        /* \"#utility.yul\":5116:5123   */\n      dup6\n        /* \"#utility.yul\":5107:5113   */\n      dup3\n        /* \"#utility.yul\":5096:5105   */\n      dup7\n        /* \"#utility.yul\":5092:5114   */\n      add\n        /* \"#utility.yul\":5071:5124   */\n      tag_81\n      jump\t// in\n    tag_166:\n        /* \"#utility.yul\":5061:5124   */\n      swap2\n      pop\n        /* \"#utility.yul\":5016:5134   */\n      pop\n        /* \"#utility.yul\":4667:5141   */\n      swap3\n      pop\n      swap3\n      swap1\n      pop\n      jump\t// out\n        /* \"#utility.yul\":5147:5476   */\n    tag_25:\n        /* \"#utility.yul\":5206:5212   */\n      0x00\n        /* \"#utility.yul\":5255:5257   */\n      0x20\n        /* \"#utility.yul\":5243:5252   */\n      dup3\n        /* \"#utility.yul\":5234:5241   */\n      dup5\n        /* \"#utility.yul\":5230:5253   */\n      sub\n        /* \"#utility.yul\":5226:5258   */\n      slt\n        /* \"#utility.yul\":5223:5342   */\n      iszero\n      tag_168\n      jumpi\n        /* \"#utility.yul\":5261:5340   */\n      tag_169\n      tag_67\n      jump\t// in\n    tag_169:\n        /* \"#utility.yul\":5223:5342   */\n    tag_168:\n        /* \"#utility.yul\":5381:5382   */\n      0x00\n        /* \"#utility.yul\":5406:5459   */\n      tag_170\n        /* \"#utility.yul\":5451:5458   */\n      dup5\n        /* \"#utility.yul\":5442:5448   */\n      dup3\n        /* \"#utility.yul\":5431:5440   */\n      dup6\n        /* \"#utility.yul\":5427:5449   */\n      add\n        /* \"#utility.yul\":5406:5459   */\n      tag_81\n      jump\t// in\n    tag_170:\n        /* \"#utility.yul\":5396:5459   */\n      swap2\n      pop\n        /* \"#utility.yul\":5352:5469   */\n      pop\n        /* \"#utility.yul\":5147:5476   */\n      swap3\n      swap2\n      pop\n      pop\n      jump\t// out\n        /* \"#utility.yul\":5482:5581   */\n    tag_82:\n        /* \"#utility.yul\":5534:5540   */\n      0x00\n        /* \"#utility.yul\":5568:5573   */\n      dup2\n        /* \"#utility.yul\":5562:5574   */\n      mload\n        /* \"#utility.yul\":5552:5574   */\n      swap1\n      pop\n        /* \"#utility.yul\":5482:5581   */\n      swap2\n      swap1\n      pop\n      jump\t// out\n        /* \"#utility.yul\":5587:5756   */\n    tag_83:\n        /* \"#utility.yul\":5671:5682   */\n      0x00\n        /* \"#utility.yul\":5705:5711   */\n      dup3\n        /* \"#utility.yul\":5700:5703   */\n      dup3\n        /* \"#utility.yul\":5693:5712   */\n      mstore\n        /* \"#utility.yul\":5745:5749   */\n      0x20\n        /* \"#utility.yul\":5740:5743   */\n      dup3\n        /* \"#utility.yul\":5736:5750   */\n      add\n        /* \"#utility.yul\":5721:5750   */\n      swap1\n      pop\n        /* \"#utility.yul\":5587:5756   */\n      swap3\n      swap2\n      pop\n      pop\n      jump\t// out\n        /* \"#utility.yul\":5762:5901   */\n    tag_84:\n        /* \"#utility.yul\":5851:5857   */\n      dup3\n        /* \"#utility.yul\":5846:5849   */\n      dup2\n        /* \"#utility.yul\":5841:5844   */\n      dup4\n        /* \"#utility.yul\":5835:5858   */\n      mcopy\n        /* \"#utility.yul\":5892:5893   */\n      0x00\n        /* \"#utility.yul\":5883:5889   */\n      dup4\n        /* \"#utility.yul\":5878:5881   */\n      dup4\n        /* \"#utility.yul\":5874:5890   */\n      add\n        /* \"#utility.yul\":5867:5894   */\n      mstore\n        /* \"#utility.yul\":5762:5901   */\n      pop\n      pop\n      pop\n      jump\t// out\n        /* \"#utility.yul\":5907:6284   */\n    tag_85:\n        /* \"#utility.yul\":5995:5998   */\n      0x00\n        /* \"#utility.yul\":6023:6062   */\n      tag_175\n        /* \"#utility.yul\":6056:6061   */\n      dup3\n        /* \"#utility.yul\":6023:6062   */\n      tag_82\n      jump\t// in\n    tag_175:\n        /* \"#utility.yul\":6078:6149   */\n      tag_176\n        /* \"#utility.yul\":6142:6148   */\n      dup2\n        /* \"#utility.yul\":6137:6140   */\n      dup6\n        /* \"#utility.yul\":6078:6149   */\n      tag_83\n      jump\t// in\n    tag_176:\n        /* \"#utility.yul\":6071:6149   */\n      swap4\n      pop\n        /* \"#utility.yul\":6158:6223   */\n      tag_177\n        /* \"#utility.yul\":6216:6222   */\n      dup2\n        /* \"#utility.yul\":6211:6214   */\n      dup6\n        /* \"#utility.yul\":6204:6208   */\n      0x20\n        /* \"#utility.yul\":6197:6202   */\n      dup7\n        /* \"#utility.yul\":6193:6209   */\n      add\n        /* \"#utility.yul\":6158:6223   */\n      tag_84\n      jump\t// in\n    tag_177:\n        /* \"#utility.yul\":6248:6277   */\n      tag_178\n        /* \"#utility.yul\":6270:6276   */\n      dup2\n        /* \"#utility.yul\":6248:6277   */\n      tag_71\n      jump\t// in\n    tag_178:\n        /* \"#utility.yul\":6243:6246   */\n      dup5\n        /* \"#utility.yul\":6239:6278   */\n      add\n        /* \"#utility.yul\":6232:6278   */\n      swap2\n      pop\n        /* \"#utility.yul\":5999:6284   */\n      pop\n        /* \"#utility.yul\":5907:6284   */\n      swap3\n      swap2\n      pop\n      pop\n      jump\t// out\n        /* \"#utility.yul\":6290:6408   */\n    tag_86:\n        /* \"#utility.yul\":6377:6401   */\n      tag_180\n        /* \"#utility.yul\":6395:6400   */\n      dup2\n        /* \"#utility.yul\":6377:6401   */\n      tag_79\n      jump\t// in\n    tag_180:\n        /* \"#utility.yul\":6372:6375   */\n      dup3\n        /* \"#utility.yul\":6365:6402   */\n      mstore\n        /* \"#utility.yul\":6290:6408   */\n      pop\n      pop\n      jump\t// out\n        /* \"#utility.yul\":6414:6947   */\n    tag_28:\n        /* \"#utility.yul\":6583:6587   */\n      0x00\n        /* \"#utility.yul\":6621:6623   */\n      0x60\n        /* \"#utility.yul\":6610:6619   */\n      dup3\n        /* \"#utility.yul\":6606:6624   */\n      add\n        /* \"#utility.yul\":6598:6624   */\n      swap1\n      pop\n        /* \"#utility.yul\":6670:6679   */\n      dup2\n        /* \"#utility.yul\":6664:6668   */\n      dup2\n        /* \"#utility.yul\":6660:6680   */\n      sub\n        /* \"#utility.yul\":6656:6657   */\n      0x00\n        /* \"#utility.yul\":6645:6654   */\n      dup4\n        /* \"#utility.yul\":6641:6658   */\n      add\n        /* \"#utility.yul\":6634:6681   */\n      mstore\n        /* \"#utility.yul\":6698:6776   */\n      tag_182\n        /* \"#utility.yul\":6771:6775   */\n      dup2\n        /* \"#utility.yul\":6762:6768   */\n      dup7\n        /* \"#utility.yul\":6698:6776   */\n      tag_85\n      jump\t// in\n    tag_182:\n        /* \"#utility.yul\":6690:6776   */\n      swap1\n      pop\n        /* \"#utility.yul\":6786:6858   */\n      tag_183\n        /* \"#utility.yul\":6854:6856   */\n      0x20\n        /* \"#utility.yul\":6843:6852   */\n      dup4\n        /* \"#utility.yul\":6839:6857   */\n      add\n        /* \"#utility.yul\":6830:6836   */\n      dup6\n        /* \"#utility.yul\":6786:6858   */\n      tag_86\n      jump\t// in\n    tag_183:\n        /* \"#utility.yul\":6868:6940   */\n      tag_184\n        /* \"#utility.yul\":6936:6938   */\n      0x40\n        /* \"#utility.yul\":6925:6934   */\n      dup4\n        /* \"#utility.yul\":6921:6939   */\n      add\n        /* \"#utility.yul\":6912:6918   */\n      dup5\n        /* \"#utility.yul\":6868:6940   */\n      tag_86\n      jump\t// in\n    tag_184:\n        /* \"#utility.yul\":6414:6947   */\n      swap5\n      swap4\n      pop\n      pop\n      pop\n      pop\n      jump\t// out\n        /* \"#utility.yul\":6953:7597   */\n    tag_33:\n        /* \"#utility.yul\":7150:7154   */\n      0x00\n        /* \"#utility.yul\":7188:7191   */\n      0x80\n        /* \"#utility.yul\":7177:7186   */\n      dup3\n        /* \"#utility.yul\":7173:7192   */\n      add\n        /* \"#utility.yul\":7165:7192   */\n      swap1\n      pop\n        /* \"#utility.yul\":7202:7273   */\n      tag_186\n        /* \"#utility.yul\":7270:7271   */\n      0x00\n        /* \"#utility.yul\":7259:7268   */\n      dup4\n        /* \"#utility.yul\":7255:7272   */\n      add\n        /* \"#utility.yul\":7246:7252   */\n      dup8\n        /* \"#utility.yul\":7202:7273   */\n      tag_86\n      jump\t// in\n    tag_186:\n        /* \"#utility.yul\":7320:7329   */\n      dup2\n        /* \"#utility.yul\":7314:7318   */\n      dup2\n        /* \"#utility.yul\":7310:7330   */\n      sub\n        /* \"#utility.yul\":7305:7307   */\n      0x20\n        /* \"#utility.yul\":7294:7303   */\n      dup4\n        /* \"#utility.yul\":7290:7308   */\n      add\n        /* \"#utility.yul\":7283:7331   */\n      mstore\n        /* \"#utility.yul\":7348:7426   */\n      tag_187\n        /* \"#utility.yul\":7421:7425   */\n      dup2\n        /* \"#utility.yul\":7412:7418   */\n      dup7\n        /* \"#utility.yul\":7348:7426   */\n      tag_85\n      jump\t// in\n    tag_187:\n        /* \"#utility.yul\":7340:7426   */\n      swap1\n      pop\n        /* \"#utility.yul\":7436:7508   */\n      tag_188\n        /* \"#utility.yul\":7504:7506   */\n      0x40\n        /* \"#utility.yul\":7493:7502   */\n      dup4\n        /* \"#utility.yul\":7489:7507   */\n      add\n        /* \"#utility.yul\":7480:7486   */\n      dup6\n        /* \"#utility.yul\":7436:7508   */\n      tag_86\n      jump\t// in\n    tag_188:\n        /* \"#utility.yul\":7518:7590   */\n      tag_189\n        /* \"#utility.yul\":7586:7588   */\n      0x60\n        /* \"#utility.yul\":7575:7584   */\n      dup4\n        /* \"#utility.yul\":7571:7589   */\n      add\n        /* \"#utility.yul\":7562:7568   */\n      dup5\n        /* \"#utility.yul\":7518:7590   */\n      tag_86\n      jump\t// in\n    tag_189:\n        /* \"#utility.yul\":6953:7597   */\n      swap6\n      swap5\n      pop\n      pop\n      pop\n      pop\n      pop\n      jump\t// out\n        /* \"#utility.yul\":7603:8045   */\n    tag_37:\n        /* \"#utility.yul\":7752:7756   */\n      0x00\n        /* \"#utility.yul\":7790:7792   */\n      0x60\n        /* \"#utility.yul\":7779:7788   */\n      dup3\n        /* \"#utility.yul\":7775:7793   */\n      add\n        /* \"#utility.yul\":7767:7793   */\n      swap1\n      pop\n        /* \"#utility.yul\":7803:7874   */\n      tag_191\n        /* \"#utility.yul\":7871:7872   */\n      0x00\n        /* \"#utility.yul\":7860:7869   */\n      dup4\n        /* \"#utility.yul\":7856:7873   */\n      add\n        /* \"#utility.yul\":7847:7853   */\n      dup7\n        /* \"#utility.yul\":7803:7874   */\n      tag_86\n      jump\t// in\n    tag_191:\n        /* \"#utility.yul\":7884:7956   */\n      tag_192\n        /* \"#utility.yul\":7952:7954   */\n      0x20\n        /* \"#utility.yul\":7941:7950   */\n      dup4\n        /* \"#utility.yul\":7937:7955   */\n      add\n        /* \"#utility.yul\":7928:7934   */\n      dup6\n        /* \"#utility.yul\":7884:7956   */\n      tag_86\n      jump\t// in\n    tag_192:\n        /* \"#utility.yul\":7966:8038   */\n      tag_193\n        /* \"#utility.yul\":8034:8036   */\n      0x40\n        /* \"#utility.yul\":8023:8032   */\n      dup4\n        /* \"#utility.yul\":8019:8037   */\n      add\n        /* \"#utility.yul\":8010:8016   */\n      dup5\n        /* \"#utility.yul\":7966:8038   */\n      tag_86\n      jump\t// in\n    tag_193:\n        /* \"#utility.yul\":7603:8045   */\n      swap5\n      swap4\n      pop\n      pop\n      pop\n      pop\n      jump\t// out\n        /* \"#utility.yul\":8051:8177   */\n    tag_87:\n        /* \"#utility.yul\":8088:8095   */\n      0x00\n        /* \"#utility.yul\":8128:8170   */\n      0xffffffffffffffffffffffffffffffffffffffff\n        /* \"#utility.yul\":8121:8126   */\n      dup3\n        /* \"#utility.yul\":8117:8171   */\n      and\n        /* \"#utility.yul\":8106:8171   */\n      swap1\n      pop\n        /* \"#utility.yul\":8051:8177   */\n      swap2\n      swap1\n      pop\n      jump\t// out\n        /* \"#utility.yul\":8183:8279   */\n    tag_88:\n        /* \"#utility.yul\":8220:8227   */\n      0x00\n        /* \"#utility.yul\":8249:8273   */\n      tag_196\n        /* \"#utility.yul\":8267:8272   */\n      dup3\n        /* \"#utility.yul\":8249:8273   */\n      tag_87\n      jump\t// in\n    tag_196:\n        /* \"#utility.yul\":8238:8273   */\n      swap1\n      pop\n        /* \"#utility.yul\":8183:8279   */\n      swap2\n      swap1\n      pop\n      jump\t// out\n        /* \"#utility.yul\":8285:8407   */\n    tag_89:\n        /* \"#utility.yul\":8358:8382   */\n      tag_198\n        /* \"#utility.yul\":8376:8381   */\n      dup2\n        /* \"#utility.yul\":8358:8382   */\n      tag_88\n      jump\t// in\n    tag_198:\n        /* \"#utility.yul\":8351:8356   */\n      dup2\n        /* \"#utility.yul\":8348:8383   */\n      eq\n        /* \"#utility.yul\":8338:8401   */\n      tag_199\n      jumpi\n        /* \"#utility.yul\":8397:8398   */\n      0x00\n        /* \"#utility.yul\":8394:8395   */\n      dup1\n        /* \"#utility.yul\":8387:8399   */\n      revert\n        /* \"#utility.yul\":8338:8401   */\n    tag_199:\n        /* \"#utility.yul\":8285:8407   */\n      pop\n      jump\t// out\n        /* \"#utility.yul\":8413:8552   */\n    tag_90:\n        /* \"#utility.yul\":8459:8464   */\n      0x00\n        /* \"#utility.yul\":8497:8503   */\n      dup2\n        /* \"#utility.yul\":8484:8504   */\n      calldataload\n        /* \"#utility.yul\":8475:8504   */\n      swap1\n      pop\n        /* \"#utility.yul\":8513:8546   */\n      tag_201\n        /* \"#utility.yul\":8540:8545   */\n      dup2\n        /* \"#utility.yul\":8513:8546   */\n      tag_89\n      jump\t// in\n    tag_201:\n        /* \"#utility.yul\":8413:8552   */\n      swap3\n      swap2\n      pop\n      pop\n      jump\t// out\n        /* \"#utility.yul\":8558:8887   */\n    tag_40:\n        /* \"#utility.yul\":8617:8623   */\n      0x00\n        /* \"#utility.yul\":8666:8668   */\n      0x20\n        /* \"#utility.yul\":8654:8663   */\n      dup3\n        /* \"#utility.yul\":8645:8652   */\n      dup5\n        /* \"#utility.yul\":8641:8664   */\n      sub\n        /* \"#utility.yul\":8637:8669   */\n      slt\n        /* \"#utility.yul\":8634:8753   */\n      iszero\n      tag_203\n      jumpi\n        /* \"#utility.yul\":8672:8751   */\n      tag_204\n      tag_67\n      jump\t// in\n    tag_204:\n        /* \"#utility.yul\":8634:8753   */\n    tag_203:\n        /* \"#utility.yul\":8792:8793   */\n      0x00\n        /* \"#utility.yul\":8817:8870   */\n      tag_205\n        /* \"#utility.yul\":8862:8869   */\n      dup5\n        /* \"#utility.yul\":8853:8859   */\n      dup3\n        /* \"#utility.yul\":8842:8851   */\n      dup6\n        /* \"#utility.yul\":8838:8860   */\n      add\n        /* \"#utility.yul\":8817:8870   */\n      tag_90\n      jump\t// in\n    tag_205:\n        /* \"#utility.yul\":8807:8870   */\n      swap2\n      pop\n        /* \"#utility.yul\":8763:8880   */\n      pop\n        /* \"#utility.yul\":8558:8887   */\n      swap3\n      swap2\n      pop\n      pop\n      jump\t// out\n        /* \"#utility.yul\":8893:9011   */\n    tag_91:\n        /* \"#utility.yul\":8980:9004   */\n      tag_207\n        /* \"#utility.yul\":8998:9003   */\n      dup2\n        /* \"#utility.yul\":8980:9004   */\n      tag_88\n      jump\t// in\n    tag_207:\n        /* \"#utility.yul\":8975:8978   */\n      dup3\n        /* \"#utility.yul\":8968:9005   */\n      mstore\n        /* \"#utility.yul\":8893:9011   */\n      pop\n      pop\n      jump\t// out\n        /* \"#utility.yul\":9017:9570   */\n    tag_43:\n        /* \"#utility.yul\":9194:9198   */\n      0x00\n        /* \"#utility.yul\":9232:9235   */\n      0x80\n        /* \"#utility.yul\":9221:9230   */\n      dup3\n        /* \"#utility.yul\":9217:9236   */\n      add\n        /* \"#utility.yul\":9209:9236   */\n      swap1\n      pop\n        /* \"#utility.yul\":9246:9317   */\n      tag_209\n        /* \"#utility.yul\":9314:9315   */\n      0x00\n        /* \"#utility.yul\":9303:9312   */\n      dup4\n        /* \"#utility.yul\":9299:9316   */\n      add\n        /* \"#utility.yul\":9290:9296   */\n      dup8\n        /* \"#utility.yul\":9246:9317   */\n      tag_86\n      jump\t// in\n    tag_209:\n        /* \"#utility.yul\":9327:9399   */\n      tag_210\n        /* \"#utility.yul\":9395:9397   */\n      0x20\n        /* \"#utility.yul\":9384:9393   */\n      dup4\n        /* \"#utility.yul\":9380:9398   */\n      add\n        /* \"#utility.yul\":9371:9377   */\n      dup7\n        /* \"#utility.yul\":9327:9399   */\n      tag_91\n      jump\t// in\n    tag_210:\n        /* \"#utility.yul\":9409:9481   */\n      tag_211\n        /* \"#utility.yul\":9477:9479   */\n      0x40\n        /* \"#utility.yul\":9466:9475   */\n      dup4\n        /* \"#utility.yul\":9462:9480   */\n      add\n        /* \"#utility.yul\":9453:9459   */\n      dup6\n        /* \"#utility.yul\":9409:9481   */\n      tag_86\n      jump\t// in\n    tag_211:\n        /* \"#utility.yul\":9491:9563   */\n      tag_212\n        /* \"#utility.yul\":9559:9561   */\n      0x60\n        /* \"#utility.yul\":9548:9557   */\n      dup4\n        /* \"#utility.yul\":9544:9562   */\n      add\n        /* \"#utility.yul\":9535:9541   */\n      dup5\n        /* \"#utility.yul\":9491:9563   */\n      tag_86\n      jump\t// in\n    tag_212:\n        /* \"#utility.yul\":9017:9570   */\n      swap6\n      swap5\n      pop\n      pop\n      pop\n      pop\n      pop\n      jump\t// out\n        /* \"#utility.yul\":9576:9756   */\n    tag_92:\n        /* \"#utility.yul\":9624:9701   */\n      0x4e487b7100000000000000000000000000000000000000000000000000000000\n        /* \"#utility.yul\":9621:9622   */\n      0x00\n        /* \"#utility.yul\":9614:9702   */\n      mstore\n        /* \"#utility.yul\":9721:9725   */\n      0x11\n        /* \"#utility.yul\":9718:9719   */\n      0x04\n        /* \"#utility.yul\":9711:9726   */\n      mstore\n        /* \"#utility.yul\":9745:9749   */\n      0x24\n        /* \"#utility.yul\":9742:9743   */\n      0x00\n        /* \"#utility.yul\":9735:9750   */\n      revert\n        /* \"#utility.yul\":9762:9995   */\n    tag_46:\n        /* \"#utility.yul\":9801:9804   */\n      0x00\n        /* \"#utility.yul\":9824:9848   */\n      tag_215\n        /* \"#utility.yul\":9842:9847   */\n      dup3\n        /* \"#utility.yul\":9824:9848   */\n      tag_79\n      jump\t// in\n    tag_215:\n        /* \"#utility.yul\":9815:9848   */\n      swap2\n      pop\n        /* \"#utility.yul\":9870:9936   */\n      0xffffffffffffffffffffffffffffffffffffffffffffffffffffffffffffffff\n        /* \"#utility.yul\":9863:9868   */\n      dup3\n        /* \"#utility.yul\":9860:9937   */\n      sub\n        /* \"#utility.yul\":9857:9960   */\n      tag_216\n      jumpi\n        /* \"#utility.yul\":9940:9958   */\n      tag_217\n      tag_92\n      jump\t// in\n    tag_217:\n        /* \"#utility.yul\":9857:9960   */\n    tag_216:\n        /* \"#utility.yul\":9987:9988   */\n      0x01\n        /* \"#utility.yul\":9980:9985   */\n      dup3\n        /* \"#utility.yul\":9976:9989   */\n      add\n        /* \"#utility.yul\":9969:9989   */\n      swap1\n      pop\n        /* \"#utility.yul\":9762:9995   */\n      swap2\n      swap1\n      pop\n      jump\t// out\n        /* \"#utility.yul\":10001:10181   */\n    tag_93:\n        /* \"#utility.yul\":10049:10126   */\n      0x4e487b7100000000000000000000000000000000000000000000000000000000\n        /* \"#utility.yul\":10046:10047   */\n      0x00\n        /* \"#utility.yul\":10039:10127   */\n      mstore\n        /* \"#utility.yul\":10146:10150   */\n      0x22\n        /* \"#utility.yul\":10143:10144   */\n      0x04\n        /* \"#utility.yul\":10136:10151   */\n      mstore\n        /* \"#utility.yul\":10170:10174   */\n      0x24\n        /* \"#utility.yul\":10167:10168   */\n      0x00\n        /* \"#utility.yul\":10160:10175   */\n      revert\n        /* \"#utility.yul\":10187:10507   */\n    tag_55:\n        /* \"#utility.yul\":10231:10237   */\n      0x00\n        /* \"#utility.yul\":10268:10269   */\n      0x02\n        /* \"#utility.yul\":10262:10266   */\n      dup3\n        /* \"#utility.yul\":10258:10270   */\n      div\n        /* \"#utility.yul\":10248:10270   */\n      swap1\n      pop\n        /* \"#utility.yul\":10315:10316   */\n      0x01\n        /* \"#utility.yul\":10309:10313   */\n      dup3\n        /* \"#utility.yul\":10305:10317   */\n      and\n        /* \"#utility.yul\":10336:10354   */\n      dup1\n        /* \"#utility.yul\":10326:10407   */\n      tag_220\n      jumpi\n        /* \"#utility.yul\":10392:10396   */\n      0x7f\n        /* \"#utility.yul\":10384:10390   */\n      dup3\n        /* \"#utility.yul\":10380:10397   */\n      and\n        /* \"#utility.yul\":10370:10397   */\n      swap2\n      pop\n        /* \"#utility.yul\":10326:10407   */\n    tag_220:\n        /* \"#utility.yul\":10454:10456   */\n      0x20\n        /* \"#utility.yul\":10446:10452   */\n      dup3\n        /* \"#utility.yul\":10443:10457   */\n      lt\n        /* \"#utility.yul\":10423:10441   */\n      dup2\n        /* \"#utility.yul\":10420:10458   */\n      sub\n        /* \"#utility.yul\":10417:10501   */\n      tag_221\n      jumpi\n        /* \"#utility.yul\":10473:10491   */\n      tag_222\n      tag_93\n      jump\t// in\n    tag_222:\n        /* \"#utility.yul\":10417:10501   */\n    tag_221:\n        /* \"#utility.yul\":10238:10507   */\n      pop\n        /* \"#utility.yul\":10187:10507   */\n      swap2\n      swap1\n      pop\n      jump\t// out\n        /* \"#utility.yul\":10513:10654   */\n    tag_94:\n        /* \"#utility.yul\":10562:10566   */\n      0x00\n        /* \"#utility.yul\":10585:10588   */\n      dup2\n        /* \"#utility.yul\":10577:10588   */\n      swap1\n      pop\n        /* \"#utility.yul\":10608:10611   */\n      dup2\n        /* \"#utility.yul\":10605:10606   */\n      0x00\n        /* \"#utility.yul\":10598:10612   */\n      mstore\n        /* \"#utility.yul\":10642:10646   */\n      0x20\n        /* \"#utility.yul\":10639:10640   */\n      0x00\n        /* \"#utility.yul\":10629:10647   */\n      keccak256\n        /* \"#utility.yul\":10621:10647   */\n      swap1\n      pop\n        /* \"#utility.yul\":10513:10654   */\n      swap2\n      swap1\n      pop\n      jump\t// out\n        /* \"#utility.yul\":10660:10753   */\n    tag_95:\n        /* \"#utility.yul\":10697:10703   */\n      0x00\n        /* \"#utility.yul\":10744:10746   */\n      0x20\n        /* \"#utility.yul\":10739:10741   */\n      0x1f\n        /* \"#utility.yul\":10732:10737   */\n      dup4\n        /* \"#utility.yul\":10728:10742   */\n      add\n        /* \"#utility.yul\":10724:10747   */\n      div\n        /* \"#utility.yul\":10714:10747   */\n      swap1\n      pop\n        /* \"#utility.yul\":10660:10753   */\n      swap2\n      swap1\n      pop\n      jump\t// out\n        /* \"#utility.yul\":10759:10866   */\n    tag_96:\n        /* \"#utility.yul\":10803:10811   */\n      0x00\n        /* \"#utility.yul\":10853:10858   */\n      dup3\n        /* \"#utility.yul\":10847:10851   */\n      dup3\n        /* \"#utility.yul\":10843:10859   */\n      shl\n        /* \"#utility.yul\":10822:10859   */\n      swap1\n      pop\n        /* \"#utility.yul\":10759:10866   */\n      swap3\n      swap2\n      pop\n      pop\n      jump\t// out\n        /* \"#utility.yul\":10872:11265   */\n    tag_97:\n        /* \"#utility.yul\":10941:10947   */\n      0x00\n        /* \"#utility.yul\":10991:10992   */\n      0x08\n        /* \"#utility.yul\":10979:10989   */\n      dup4\n        /* \"#utility.yul\":10975:10993   */\n      mul\n        /* \"#utility.yul\":11014:11111   */\n      tag_227\n        /* \"#utility.yul\":11044:11110   */\n      0xffffffffffffffffffffffffffffffffffffffffffffffffffffffffffffffff\n        /* \"#utility.yul\":11033:11042   */\n      dup3\n        /* \"#utility.yul\":11014:11111   */\n      tag_96\n      jump\t// in\n    tag_227:\n        /* \"#utility.yul\":11132:11171   */\n      tag_228\n        /* \"#utility.yul\":11162:11170   */\n      dup7\n        /* \"#utility.yul\":11151:11160   */\n      dup4\n        /* \"#utility.yul\":11132:11171   */\n      tag_96\n      jump\t// in\n    tag_228:\n        /* \"#utility.yul\":11120:11171   */\n      swap6\n      pop\n        /* \"#utility.yul\":11204:11208   */\n      dup1\n        /* \"#utility.yul\":11200:11209   */\n      not\n        /* \"#utility.yul\":11193:11198   */\n      dup5\n        /* \"#utility.yul\":11189:11210   */\n      and\n        /* \"#utility.yul\":11180:11210   */\n      swap4\n      pop\n        /* \"#utility.yul\":11253:11257   */\n      dup1\n        /* \"#utility.yul\":11243:11251   */\n      dup7\n        /* \"#utility.yul\":11239:11258   */\n      and\n        /* \"#utility.yul\":11232:11237   */\n      dup5\n        /* \"#utility.yul\":11229:11259   */\n      or\n        /* \"#utility.yul\":11219:11259   */\n      swap3\n      pop\n        /* \"#utility.yul\":10948:11265   */\n      pop\n      pop\n        /* \"#utility.yul\":10872:11265   */\n      swap4\n      swap3\n      pop\n      pop\n      pop\n      jump\t// out\n        /* \"#utility.yul\":11271:11331   */\n    tag_98:\n        /* \"#utility.yul\":11299:11302   */\n      0x00\n        /* \"#utility.yul\":11320:11325   */\n      dup2\n        /* \"#utility.yul\":11313:11325   */\n      swap1\n      pop\n        /* \"#utility.yul\":11271:11331   */\n      swap2\n      swap1\n      pop\n      jump\t// out\n        /* \"#utility.yul\":11337:11479   */\n    tag_99:\n        /* \"#utility.yul\":11387:11396   */\n      0x00\n        /* \"#utility.yul\":11420:11473   */\n      tag_231\n        /* \"#utility.yul\":11438:11472   */\n      tag_232\n        /* \"#utility.yul\":11447:11471   */\n      tag_233\n        /* \"#utility.yul\":11465:11470   */\n      dup5\n        /* \"#utility.yul\":11447:11471   */\n      tag_79\n      jump\t// in\n    tag_233:\n        /* \"#utility.yul\":11438:11472   */\n      tag_98\n      jump\t// in\n    tag_232:\n        /* \"#utility.yul\":11420:11473   */\n      tag_79\n      jump\t// in\n    tag_231:\n        /* \"#utility.yul\":11407:11473   */\n      swap1\n      pop\n        /* \"#utility.yul\":11337:11479   */\n      swap2\n      swap1\n      pop\n      jump\t// out\n        /* \"#utility.yul\":11485:11560   */\n    tag_100:\n        /* \"#utility.yul\":11528:11531   */\n      0x00\n        /* \"#utility.yul\":11549:11554   */\n      dup2\n        /* \"#utility.yul\":11542:11554   */\n      swap1\n      pop\n        /* \"#utility.yul\":11485:11560   */\n      swap2\n      swap1\n      pop\n      jump\t// out\n        /* \"#utility.yul\":11566:11835   */\n    tag_101:\n        /* \"#utility.yul\":11676:11715   */\n      tag_236\n        /* \"#utility.yul\":11707:11714   */\n      dup4\n        /* \"#utility.yul\":11676:11715   */\n      tag_99\n      jump\t// in\n    tag_236:\n        /* \"#utility.yul\":11737:11828   */\n      tag_237\n        /* \"#utility.yul\":11786:11827   */\n      tag_238\n        /* \"#utility.yul\":11810:11826   */\n      dup3\n        /* \"#utility.yul\":11786:11827   */\n      tag_100\n      jump\t// in\n    tag_238:\n        /* \"#utility.yul\":11778:11784   */\n      dup5\n        /* \"#utility.yul\":11771:11775   */\n      dup5\n        /* \"#utility.yul\":11765:11776   */\n      sload\n        /* \"#utility.yul\":11737:11828   */\n      tag_97\n      jump\t// in\n    tag_237:\n        /* \"#utility.yul\":11731:11735   */\n      dup3\n        /* \"#utility.yul\":11724:11829   */\n      sstore\n        /* \"#utility.yul\":11642:11835   */\n      pop\n        /* \"#utility.yul\":11566:11835   */\n      pop\n      pop\n      pop\n      jump\t// out\n        /* \"#utility.yul\":11841:11914   */\n    tag_102:\n        /* \"#utility.yul\":11886:11889   */\n      0x00\n        /* \"#utility.yul\":11841:11914   */\n      swap1\n      jump\t// out\n        /* \"#utility.yul\":11920:12109   */\n    tag_103:\n        /* \"#utility.yul\":11997:12029   */\n      tag_241\n      tag_102\n      jump\t// in\n    tag_241:\n        /* \"#utility.yul\":12038:12103   */\n      tag_242\n        /* \"#utility.yul\":12096:12102   */\n      dup2\n        /* \"#utility.yul\":12088:12094   */\n      dup5\n        /* \"#utility.yul\":12082:12086   */\n      dup5\n        /* \"#utility.yul\":12038:12103   */\n      tag_101\n      jump\t// in\n    tag_242:\n        /* \"#utility.yul\":11973:12109   */\n      pop\n        /* \"#utility.yul\":11920:12109   */\n      pop\n      pop\n      jump\t// out\n        /* \"#utility.yul\":12115:12301   */\n    tag_104:\n        /* \"#utility.yul\":12175:12295   */\n    tag_244:\n        /* \"#utility.yul\":12192:12195   */\n      dup2\n        /* \"#utility.yul\":12185:12190   */\n      dup2\n        /* \"#utility.yul\":12182:12196   */\n      lt\n        /* \"#utility.yul\":12175:12295   */\n      iszero\n      tag_246\n      jumpi\n        /* \"#utility.yul\":12246:12285   */\n      tag_247\n        /* \"#utility.yul\":12283:12284   */\n      0x00\n        /* \"#utility.yul\":12276:12281   */\n      dup3\n        /* \"#utility.yul\":12246:12285   */\n      tag_103\n      jump\t// in\n    tag_247:\n        /* \"#utility.yul\":12219:12220   */\n      0x01\n        /* \"#utility.yul\":12212:12217   */\n      dup2\n        /* \"#utility.yul\":12208:12221   */\n      add\n        /* \"#utility.yul\":12199:12221   */\n      swap1\n      pop\n        /* \"#utility.yul\":12175:12295   */\n      jump(tag_244)\n    tag_246:\n        /* \"#utility.yul\":12115:12301   */\n      pop\n      pop\n      jump\t// out\n        /* \"#utility.yul\":12307:12850   */\n    tag_105:\n        /* \"#utility.yul\":12408:12410   */\n      0x1f\n        /* \"#utility.yul\":12403:12406   */\n      dup3\n        /* \"#utility.yul\":12400:12411   */\n      gt\n        /* \"#utility.yul\":12397:12843   */\n      iszero\n      tag_249\n      jumpi\n        /* \"#utility.yul\":12442:12480   */\n      tag_250\n        /* \"#utility.yul\":12474:12479   */\n      dup2\n        /* \"#utility.yul\":12442:12480   */\n      tag_94\n      jump\t// in\n    tag_250:\n        /* \"#utility.yul\":12526:12555   */\n      tag_251\n        /* \"#utility.yul\":12544:12554   */\n      dup5\n        /* \"#utility.yul\":12526:12555   */\n      tag_95\n      jump\t// in\n    tag_251:\n        /* \"#utility.yul\":12516:12524   */\n      dup2\n        /* \"#utility.yul\":12512:12556   */\n      add\n        /* \"#utility.yul\":12709:12711   */\n      0x20\n        /* \"#utility.yul\":12697:12707   */\n      dup6\n        /* \"#utility.yul\":12694:12712   */\n      lt\n        /* \"#utility.yul\":12691:12740   */\n      iszero\n      tag_252\n      jumpi\n        /* \"#utility.yul\":12730:12738   */\n      dup2\n        /* \"#utility.yul\":12715:12738   */\n      swap1\n      pop\n        /* \"#utility.yul\":12691:12740   */\n    tag_252:\n        /* \"#utility.yul\":12753:12833   */\n      tag_253\n        /* \"#utility.yul\":12809:12831   */\n      tag_254\n        /* \"#utility.yul\":12827:12830   */\n      dup6\n        /* \"#utility.yul\":12809:12831   */\n      tag_95\n      jump\t// in\n    tag_254:\n        /* \"#utility.yul\":12799:12807   */\n      dup4\n        /* \"#utility.yul\":12795:12832   */\n      add\n        /* \"#utility.yul\":12782:12793   */\n      dup3\n        /* \"#utility.yul\":12753:12833   */\n      tag_104\n      jump\t// in\n    tag_253:\n        /* \"#utility.yul\":12412:12843   */\n      pop\n      pop\n        /* \"#utility.yul\":12397:12843   */\n    tag_249:\n        /* \"#utility.yul\":12307:12850   */\n      pop\n      pop\n      pop\n      jump\t// out\n        /* \"#utility.yul\":12856:12973   */\n    tag_106:\n        /* \"#utility.yul\":12910:12918   */\n      0x00\n        /* \"#utility.yul\":12960:12965   */\n      dup3\n        /* \"#utility.yul\":12954:12958   */\n      dup3\n        /* \"#utility.yul\":12950:12966   */\n      shr\n        /* \"#utility.yul\":12929:12966   */\n      swap1\n      pop\n        /* \"#utility.yul\":12856:12973   */\n      swap3\n      swap2\n      pop\n      pop\n      jump\t// out\n        /* \"#utility.yul\":12979:13148   */\n    tag_107:\n        /* \"#utility.yul\":13023:13029   */\n      0x00\n        /* \"#utility.yul\":13056:13107   */\n      tag_257\n        /* \"#utility.yul\":13104:13105   */\n      0x00\n        /* \"#utility.yul\":13100:13106   */\n      not\n        /* \"#utility.yul\":13092:13097   */\n      dup5\n        /* \"#utility.yul\":13089:13090   */\n      0x08\n        /* \"#utility.yul\":13085:13098   */\n      mul\n        /* \"#utility.yul\":13056:13107   */\n      tag_106\n      jump\t// in\n    tag_257:\n        /* \"#utility.yul\":13052:13108   */\n      not\n        /* \"#utility.yul\":13137:13141   */\n      dup1\n        /* \"#utility.yul\":13131:13135   */\n      dup4\n        /* \"#utility.yul\":13127:13142   */\n      and\n        /* \"#utility.yul\":13117:13142   */\n      swap2\n      pop\n        /* \"#utility.yul\":13030:13148   */\n      pop\n        /* \"#utility.yul\":12979:13148   */\n      swap3\n      swap2\n      pop\n      pop\n      jump\t// out\n        /* \"#utility.yul\":13153:13448   */\n    tag_108:\n        /* \"#utility.yul\":13229:13233   */\n      0x00\n        /* \"#utility.yul\":13375:13404   */\n      tag_259\n        /* \"#utility.yul\":13400:13403   */\n      dup4\n        /* \"#utility.yul\":13394:13398   */\n      dup4\n        /* \"#utility.yul\":13375:13404   */\n      tag_107\n      jump\t// in\n    tag_259:\n        /* \"#utility.yul\":13367:13404   */\n      swap2\n      pop\n        /* \"#utility.yul\":13437:13440   */\n      dup3\n        /* \"#utility.yul\":13434:13435   */\n      0x02\n        /* \"#utility.yul\":13430:13441   */\n      mul\n        /* \"#utility.yul\":13424:13428   */\n      dup3\n        /* \"#utility.yul\":13421:13442   */\n      or\n        /* \"#utility.yul\":13413:13442   */\n      swap1\n      pop\n        /* \"#utility.yul\":13153:13448   */\n      swap3\n      swap2\n      pop\n      pop\n      jump\t// out\n        /* \"#utility.yul\":13453:14848   */\n    tag_48:\n        /* \"#utility.yul\":13570:13607   */\n      tag_261\n        /* \"#utility.yul\":13603:13606   */\n      dup3\n        /* \"#utility.yul\":13570:13607   */\n      tag_82\n      jump\t// in\n    tag_261:\n        /* \"#utility.yul\":13672:13690   */\n      0xffffffffffffffff\n        /* \"#utility.yul\":13664:13670   */\n      dup2\n        /* \"#utility.yul\":13661:13691   */\n      gt\n        /* \"#utility.yul\":13658:13714   */\n      iszero\n      tag_262\n      jumpi\n        /* \"#utility.yul\":13694:13712   */\n      tag_263\n      tag_72\n      jump\t// in\n    tag_263:\n        /* \"#utility.yul\":13658:13714   */\n    tag_262:\n        /* \"#utility.yul\":13738:13776   */\n      tag_264\n        /* \"#utility.yul\":13770:13774   */\n      dup3\n        /* \"#utility.yul\":13764:13775   */\n      sload\n        /* \"#utility.yul\":13738:13776   */\n      tag_55\n      jump\t// in\n    tag_264:\n        /* \"#utility.yul\":13823:13890   */\n      tag_265\n        /* \"#utility.yul\":13883:13889   */\n      dup3\n        /* \"#utility.yul\":13875:13881   */\n      dup3\n        /* \"#utility.yul\":13869:13873   */\n      dup6\n        /* \"#utility.yul\":13823:13890   */\n      tag_105\n      jump\t// in\n    tag_265:\n        /* \"#utility.yul\":13917:13918   */\n      0x00\n        /* \"#utility.yul\":13941:13945   */\n      0x20\n        /* \"#utility.yul\":13928:13945   */\n      swap1\n      pop\n        /* \"#utility.yul\":13973:13975   */\n      0x1f\n        /* \"#utility.yul\":13965:13971   */\n      dup4\n        /* \"#utility.yul\":13962:13976   */\n      gt\n        /* \"#utility.yul\":13990:13991   */\n      0x01\n        /* \"#utility.yul\":13985:14603   */\n      dup2\n      eq\n      tag_267\n      jumpi\n        /* \"#utility.yul\":14647:14648   */\n      0x00\n        /* \"#utility.yul\":14664:14670   */\n      dup5\n        /* \"#utility.yul\":14661:14738   */\n      iszero\n      tag_268\n      jumpi\n        /* \"#utility.yul\":14713:14722   */\n      dup3\n        /* \"#utility.yul\":14708:14711   */\n      dup8\n        /* \"#utility.yul\":14704:14723   */\n      add\n        /* \"#utility.yul\":14698:14724   */\n      mload\n        /* \"#utility.yul\":14689:14724   */\n      swap1\n      pop\n        /* \"#utility.yul\":14661:14738   */\n    tag_268:\n        /* \"#utility.yul\":14764:14831   */\n      tag_269\n        /* \"#utility.yul\":14824:14830   */\n      dup6\n        /* \"#utility.yul\":14817:14822   */\n      dup3\n        /* \"#utility.yul\":14764:14831   */\n      tag_108\n      jump\t// in\n    tag_269:\n        /* \"#utility.yul\":14758:14762   */\n      dup7\n        /* \"#utility.yul\":14751:14832   */\n      sstore\n        /* \"#utility.yul\":14620:14842   */\n      pop\n        /* \"#utility.yul\":13955:14842   */\n      jump(tag_266)\n        /* \"#utility.yul\":13985:14603   */\n    tag_267:\n        /* \"#utility.yul\":14037:14041   */\n      0x1f\n        /* \"#utility.yul\":14033:14042   */\n      not\n        /* \"#utility.yul\":14025:14031   */\n      dup5\n        /* \"#utility.yul\":14021:14043   */\n      and\n        /* \"#utility.yul\":14071:14108   */\n      tag_270\n        /* \"#utility.yul\":14103:14107   */\n      dup7\n        /* \"#utility.yul\":14071:14108   */\n      tag_94\n      jump\t// in\n    tag_270:\n        /* \"#utility.yul\":14130:14131   */\n      0x00\n        /* \"#utility.yul\":14144:14352   */\n    tag_271:\n        /* \"#utility.yul\":14158:14165   */\n      dup3\n        /* \"#utility.yul\":14155:14156   */\n      dup2\n        /* \"#utility.yul\":14152:14166   */\n      lt\n        /* \"#utility.yul\":14144:14352   */\n      iszero\n      tag_273\n      jumpi\n        /* \"#utility.yul\":14237:14246   */\n      dup5\n        /* \"#utility.yul\":14232:14235   */\n      dup10\n        /* \"#utility.yul\":14228:14247   */\n      add\n        /* \"#utility.yul\":14222:14248   */\n      mload\n        /* \"#utility.yul\":14214:14220   */\n      dup3\n        /* \"#utility.yul\":14207:14249   */\n      sstore\n        /* \"#utility.yul\":14288:14289   */\n      0x01\n        /* \"#utility.yul\":14280:14286   */\n      dup3\n        /* \"#utility.yul\":14276:14290   */\n      add\n        /* \"#utility.yul\":14266:14290   */\n      swap2\n      pop\n        /* \"#utility.yul\":14335:14337   */\n      0x20\n        /* \"#utility.yul\":14324:14333   */\n      dup6\n        /* \"#utility.yul\":14320:14338   */\n      add\n        /* \"#utility.yul\":14307:14338   */\n      swap5\n      pop\n        /* \"#utility.yul\":14181:14185   */\n      0x20\n        /* \"#utility.yul\":14178:14179   */\n      dup2\n        /* \"#utility.yul\":14174:14186   */\n      add\n        /* \"#utility.yul\":14169:14186   */\n      swap1\n      pop\n        /* \"#utility.yul\":14144:14352   */\n      jump(tag_271)\n    tag_273:\n        /* \"#utility.yul\":14380:14386   */\n      dup7\n        /* \"#utility.yul\":14371:14378   */\n      dup4\n        /* \"#utility.yul\":14368:14387   */\n      lt\n        /* \"#utility.yul\":14365:14544   */\n      iszero\n      tag_274\n      jumpi\n        /* \"#utility.yul\":14438:14447   */\n      dup5\n        /* \"#utility.yul\":14433:14436   */\n      dup10\n        /* \"#utility.yul\":14429:14448   */\n      add\n        /* \"#utility.yul\":14423:14449   */\n      mload\n        /* \"#utility.yul\":14481:14529   */\n      tag_275\n        /* \"#utility.yul\":14523:14527   */\n      0x1f\n        /* \"#utility.yul\":14515:14521   */\n      dup10\n        /* \"#utility.yul\":14511:14528   */\n      and\n        /* \"#utility.yul\":14500:14509   */\n      dup3\n        /* \"#utility.yul\":14481:14529   */\n      tag_107\n      jump\t// in\n    tag_275:\n        /* \"#utility.yul\":14473:14479   */\n      dup4\n        /* \"#utility.yul\":14466:14530   */\n      sstore\n        /* \"#utility.yul\":14388:14544   */\n      pop\n        /* \"#utility.yul\":14365:14544   */\n    tag_274:\n        /* \"#utility.yul\":14590:14591   */\n      0x01\n        /* \"#utility.yul\":14586:14587   */\n      0x02\n        /* \"#utility.yul\":14578:14584   */\n      dup9\n        /* \"#utility.yul\":14574:14588   */\n      mul\n        /* \"#utility.yul\":14570:14592   */\n      add\n        /* \"#utility.yul\":14564:14568   */\n      dup9\n        /* \"#utility.yul\":14557:14593   */\n      sstore\n        /* \"#utility.yul\":13992:14603   */\n      pop\n      pop\n      pop\n        /* \"#utility.yul\":13955:14842   */\n    tag_266:\n      pop\n        /* \"#utility.yul\":13545:14848   */\n      pop\n      pop\n      pop\n        /* \"#utility.yul\":13453:14848   */\n      pop\n      pop\n      jump\t// out\n\n    auxdata: 0xa26469706673582212204ccc98348b1ae4eb2a05cad7192a5780127a920729c0c32c0277cfc2aab7ad1a64736f6c634300081a0033\n}\n",
				"bytecode": {
					"linkReferences": {},
					"object": "6080604052348015600e575f80fd5b50610e458061001c5f395ff3fe608060405234801561000f575f80fd5b506004361061007b575f3560e01c806379a85e6c1161005957806379a85e6c146100d35780637acc0b2014610105578063d36dedd214610138578063f40e8471146101585761007b565b8063125b0b341461007f5780632d5617871461009b57806379109baa146100b7575b5f80fd5b6100996004803603810190610094919061077c565b61018b565b005b6100b560048036038101906100b091906107e8565b610212565b005b6100d160048036038101906100cc9190610868565b610251565b005b6100ed60048036038101906100e891906108a6565b610346565b6040516100fc93929190610940565b60405180910390f35b61011f600480360381019061011a91906108a6565b610433565b60405161012f949392919061097c565b60405180910390f35b6101406104e5565b60405161014f939291906109c6565b60405180910390f35b610172600480360381019061016d9190610a55565b6105b2565b6040516101829493929190610a8f565b60405180910390f35b60025f81548092919061019d90610aff565b9190505550604051806080016040528060025481526020018481526020018381526020018281525060015f60025481526020019081526020015f205f820151815f015560208201518160010190816101f59190610d40565b506040820151816002015560608201518160030155905050505050565b5f60015f8681526020019081526020015f209050838160010190816102379190610d40565b508281600201819055508181600301819055505050505050565b60035f81548092919061026390610aff565b9190505550604051806080016040528060035481526020013373ffffffffffffffffffffffffffffffffffffffff168152602001838152602001828152505f803373ffffffffffffffffffffffffffffffffffffffff1673ffffffffffffffffffffffffffffffffffffffff1681526020019081526020015f205f820151815f01556020820151816001015f6101000a81548173ffffffffffffffffffffffffffffffffffffffff021916908373ffffffffffffffffffffffffffffffffffffffff16021790555060408201518160020155606082015181600301559050505050565b60605f805f60015f8681526020019081526020015f206040518060800160405290815f820154815260200160018201805461038090610b73565b80601f01602080910402602001604051908101604052809291908181526020018280546103ac90610b73565b80156103f75780601f106103ce576101008083540402835291602001916103f7565b820191905f5260205f20905b8154815290600101906020018083116103da57829003601f168201915b50505050508152602001600282015481526020016003820154815250509050806020015181604001518260600151935093509350509193909250565b6001602052805f5260405f205f91509050805f01549080600101805461045890610b73565b80601f016020809104026020016040519081016040528092919081815260200182805461048490610b73565b80156104cf5780601f106104a6576101008083540402835291602001916104cf565b820191905f5260205f20905b8154815290600101906020018083116104b257829003601f168201915b5050505050908060020154908060030154905084565b5f805f805f3373ffffffffffffffffffffffffffffffffffffffff1673ffffffffffffffffffffffffffffffffffffffff1681526020019081526020015f205f01545f803373ffffffffffffffffffffffffffffffffffffffff1673ffffffffffffffffffffffffffffffffffffffff1681526020019081526020015f20600201545f803373ffffffffffffffffffffffffffffffffffffffff1673ffffffffffffffffffffffffffffffffffffffff1681526020019081526020015f2060030154925092509250909192565b5f602052805f5260405f205f91509050805f015490806001015f9054906101000a900473ffffffffffffffffffffffffffffffffffffffff16908060020154908060030154905084565b5f604051905090565b5f80fd5b5f80fd5b5f80fd5b5f80fd5b5f601f19601f8301169050919050565b7f4e487b71000000000000000000000000000000000000000000000000000000005f52604160045260245ffd5b61065b82610615565b810181811067ffffffffffffffff8211171561067a57610679610625565b5b80604052505050565b5f61068c6105fc565b90506106988282610652565b919050565b5f67ffffffffffffffff8211156106b7576106b6610625565b5b6106c082610615565b9050602081019050919050565b828183375f83830152505050565b5f6106ed6106e88461069d565b610683565b90508281526020810184848401111561070957610708610611565b5b6107148482856106cd565b509392505050565b5f82601f8301126107305761072f61060d565b5b81356107408482602086016106db565b91505092915050565b5f819050919050565b61075b81610749565b8114610765575f80fd5b50565b5f8135905061077681610752565b92915050565b5f805f6060848603121561079357610792610605565b5b5f84013567ffffffffffffffff8111156107b0576107af610609565b5b6107bc8682870161071c565b93505060206107cd86828701610768565b92505060406107de86828701610768565b9150509250925092565b5f805f8060808587031215610800576107ff610605565b5b5f61080d87828801610768565b945050602085013567ffffffffffffffff81111561082e5761082d610609565b5b61083a8782880161071c565b935050604061084b87828801610768565b925050606061085c87828801610768565b91505092959194509250565b5f806040838503121561087e5761087d610605565b5b5f61088b85828601610768565b925050602061089c85828601610768565b9150509250929050565b5f602082840312156108bb576108ba610605565b5b5f6108c884828501610768565b91505092915050565b5f81519050919050565b5f82825260208201905092915050565b8281835e5f83830152505050565b5f610903826108d1565b61090d81856108db565b935061091d8185602086016108eb565b61092681610615565b840191505092915050565b61093a81610749565b82525050565b5f6060820190508181035f83015261095881866108f9565b90506109676020830185610931565b6109746040830184610931565b949350505050565b5f60808201905061098f5f830187610931565b81810360208301526109a181866108f9565b90506109b06040830185610931565b6109bd6060830184610931565b95945050505050565b5f6060820190506109d95f830186610931565b6109e66020830185610931565b6109f36040830184610931565b949350505050565b5f73ffffffffffffffffffffffffffffffffffffffff82169050919050565b5f610a24826109fb565b9050919050565b610a3481610a1a565b8114610a3e575f80fd5b50565b5f81359050610a4f81610a2b565b92915050565b5f60208284031215610a6a57610a69610605565b5b5f610a7784828501610a41565b91505092915050565b610a8981610a1a565b82525050565b5f608082019050610aa25f830187610931565b610aaf6020830186610a80565b610abc6040830185610931565b610ac96060830184610931565b95945050505050565b7f4e487b71000000000000000000000000000000000000000000000000000000005f52601160045260245ffd5b5f610b0982610749565b91507fffffffffffffffffffffffffffffffffffffffffffffffffffffffffffffffff8203610b3b57610b3a610ad2565b5b600182019050919050565b7f4e487b71000000000000000000000000000000000000000000000000000000005f52602260045260245ffd5b5f6002820490506001821680610b8a57607f821691505b602082108103610b9d57610b9c610b46565b5b50919050565b5f819050815f5260205f209050919050565b5f6020601f8301049050919050565b5f82821b905092915050565b5f60088302610bff7fffffffffffffffffffffffffffffffffffffffffffffffffffffffffffffffff82610bc4565b610c098683610bc4565b95508019841693508086168417925050509392505050565b5f819050919050565b5f610c44610c3f610c3a84610749565b610c21565b610749565b9050919050565b5f819050919050565b610c5d83610c2a565b610c71610c6982610c4b565b848454610bd0565b825550505050565b5f90565b610c85610c79565b610c90818484610c54565b505050565b5b81811015610cb357610ca85f82610c7d565b600181019050610c96565b5050565b601f821115610cf857610cc981610ba3565b610cd284610bb5565b81016020851015610ce1578190505b610cf5610ced85610bb5565b830182610c95565b50505b505050565b5f82821c905092915050565b5f610d185f1984600802610cfd565b1980831691505092915050565b5f610d308383610d09565b9150826002028217905092915050565b610d49826108d1565b67ffffffffffffffff811115610d6257610d61610625565b5b610d6c8254610b73565b610d77828285610cb7565b5f60209050601f831160018114610da8575f8415610d96578287015190505b610da08582610d25565b865550610e07565b601f198416610db686610ba3565b5f5b82811015610ddd57848901518255600182019150602085019450602081019050610db8565b86831015610dfa5784890151610df6601f891682610d09565b8355505b6001600288020188555050505b50505050505056fea26469706673582212204ccc98348b1ae4eb2a05cad7192a5780127a920729c0c32c0277cfc2aab7ad1a64736f6c634300081a0033",
					"opcodes": "PUSH1 0x80 PUSH1 0x40 MSTORE CALLVALUE DUP1 ISZERO PUSH1 0xE JUMPI PUSH0 DUP1 REVERT JUMPDEST POP PUSH2 0xE45 DUP1 PUSH2 0x1C PUSH0 CODECOPY PUSH0 RETURN INVALID PUSH1 0x80 PUSH1 0x40 MSTORE CALLVALUE DUP1 ISZERO PUSH2 0xF JUMPI PUSH0 DUP1 REVERT JUMPDEST POP PUSH1 0x4 CALLDATASIZE LT PUSH2 0x7B JUMPI PUSH0 CALLDATALOAD PUSH1 0xE0 SHR DUP1 PUSH4 0x79A85E6C GT PUSH2 0x59 JUMPI DUP1 PUSH4 0x79A85E6C EQ PUSH2 0xD3 JUMPI DUP1 PUSH4 0x7ACC0B20 EQ PUSH2 0x105 JUMPI DUP1 PUSH4 0xD36DEDD2 EQ PUSH2 0x138 JUMPI DUP1 PUSH4 0xF40E8471 EQ PUSH2 0x158 JUMPI PUSH2 0x7B JUMP JUMPDEST DUP1 PUSH4 0x125B0B34 EQ PUSH2 0x7F JUMPI DUP1 PUSH4 0x2D561787 EQ PUSH2 0x9B JUMPI DUP1 PUSH4 0x79109BAA EQ PUSH2 0xB7 JUMPI JUMPDEST PUSH0 DUP1 REVERT JUMPDEST PUSH2 0x99 PUSH1 0x4 DUP1 CALLDATASIZE SUB DUP2 ADD SWAP1 PUSH2 0x94 SWAP2 SWAP1 PUSH2 0x77C JUMP JUMPDEST PUSH2 0x18B JUMP JUMPDEST STOP JUMPDEST PUSH2 0xB5 PUSH1 0x4 DUP1 CALLDATASIZE SUB DUP2 ADD SWAP1 PUSH2 0xB0 SWAP2 SWAP1 PUSH2 0x7E8 JUMP JUMPDEST PUSH2 0x212 JUMP JUMPDEST STOP JUMPDEST PUSH2 0xD1 PUSH1 0x4 DUP1 CALLDATASIZE SUB DUP2 ADD SWAP1 PUSH2 0xCC SWAP2 SWAP1 PUSH2 0x868 JUMP JUMPDEST PUSH2 0x251 JUMP JUMPDEST STOP JUMPDEST PUSH2 0xED PUSH1 0x4 DUP1 CALLDATASIZE SUB DUP2 ADD SWAP1 PUSH2 0xE8 SWAP2 SWAP1 PUSH2 0x8A6 JUMP JUMPDEST PUSH2 0x346 JUMP JUMPDEST PUSH1 0x40 MLOAD PUSH2 0xFC SWAP4 SWAP3 SWAP2 SWAP1 PUSH2 0x940 JUMP JUMPDEST PUSH1 0x40 MLOAD DUP1 SWAP2 SUB SWAP1 RETURN JUMPDEST PUSH2 0x11F PUSH1 0x4 DUP1 CALLDATASIZE SUB DUP2 ADD SWAP1 PUSH2 0x11A SWAP2 SWAP1 PUSH2 0x8A6 JUMP JUMPDEST PUSH2 0x433 JUMP JUMPDEST PUSH1 0x40 MLOAD PUSH2 0x12F SWAP5 SWAP4 SWAP3 SWAP2 SWAP1 PUSH2 0x97C JUMP JUMPDEST PUSH1 0x40 MLOAD DUP1 SWAP2 SUB SWAP1 RETURN JUMPDEST PUSH2 0x140 PUSH2 0x4E5 JUMP JUMPDEST PUSH1 0x40 MLOAD PUSH2 0x14F SWAP4 SWAP3 SWAP2 SWAP1 PUSH2 0x9C6 JUMP JUMPDEST PUSH1 0x40 MLOAD DUP1 SWAP2 SUB SWAP1 RETURN JUMPDEST PUSH2 0x172 PUSH1 0x4 DUP1 CALLDATASIZE SUB DUP2 ADD SWAP1 PUSH2 0x16D SWAP2 SWAP1 PUSH2 0xA55 JUMP JUMPDEST PUSH2 0x5B2 JUMP JUMPDEST PUSH1 0x40 MLOAD PUSH2 0x182 SWAP5 SWAP4 SWAP3 SWAP2 SWAP1 PUSH2 0xA8F JUMP JUMPDEST PUSH1 0x40 MLOAD DUP1 SWAP2 SUB SWAP1 RETURN JUMPDEST PUSH1 0x2 PUSH0 DUP2 SLOAD DUP1 SWAP3 SWAP2 SWAP1 PUSH2 0x19D SWAP1 PUSH2 0xAFF JUMP JUMPDEST SWAP2 SWAP1 POP SSTORE POP PUSH1 0x40 MLOAD DUP1 PUSH1 0x80 ADD PUSH1 0x40 MSTORE DUP1 PUSH1 0x2 SLOAD DUP2 MSTORE PUSH1 0x20 ADD DUP5 DUP2 MSTORE PUSH1 0x20 ADD DUP4 DUP2 MSTORE PUSH1 0x20 ADD DUP3 DUP2 MSTORE POP PUSH1 0x1 PUSH0 PUSH1 0x2 SLOAD DUP2 MSTORE PUSH1 0x20 ADD SWAP1 DUP2 MSTORE PUSH1 0x20 ADD PUSH0 KECCAK256 PUSH0 DUP3 ADD MLOAD DUP2 PUSH0 ADD SSTORE PUSH1 0x20 DUP3 ADD MLOAD DUP2 PUSH1 0x1 ADD SWAP1 DUP2 PUSH2 0x1F5 SWAP2 SWAP1 PUSH2 0xD40 JUMP JUMPDEST POP PUSH1 0x40 DUP3 ADD MLOAD DUP2 PUSH1 0x2 ADD SSTORE PUSH1 0x60 DUP3 ADD MLOAD DUP2 PUSH1 0x3 ADD SSTORE SWAP1 POP POP POP POP POP JUMP JUMPDEST PUSH0 PUSH1 0x1 PUSH0 DUP7 DUP2 MSTORE PUSH1 0x20 ADD SWAP1 DUP2 MSTORE PUSH1 0x20 ADD PUSH0 KECCAK256 SWAP1 POP DUP4 DUP2 PUSH1 0x1 ADD SWAP1 DUP2 PUSH2 0x237 SWAP2 SWAP1 PUSH2 0xD40 JUMP JUMPDEST POP DUP3 DUP2 PUSH1 0x2 ADD DUP2 SWAP1 SSTORE POP DUP2 DUP2 PUSH1 0x3 ADD DUP2 SWAP1 SSTORE POP POP POP POP POP POP JUMP JUMPDEST PUSH1 0x3 PUSH0 DUP2 SLOAD DUP1 SWAP3 SWAP2 SWAP1 PUSH2 0x263 SWAP1 PUSH2 0xAFF JUMP JUMPDEST SWAP2 SWAP1 POP SSTORE POP PUSH1 0x40 MLOAD DUP1 PUSH1 0x80 ADD PUSH1 0x40 MSTORE DUP1 PUSH1 0x3 SLOAD DUP2 MSTORE PUSH1 0x20 ADD CALLER PUSH20 0xFFFFFFFFFFFFFFFFFFFFFFFFFFFFFFFFFFFFFFFF AND DUP2 MSTORE PUSH1 0x20 ADD DUP4 DUP2 MSTORE PUSH1 0x20 ADD DUP3 DUP2 MSTORE POP PUSH0 DUP1 CALLER PUSH20 0xFFFFFFFFFFFFFFFFFFFFFFFFFFFFFFFFFFFFFFFF AND PUSH20 0xFFFFFFFFFFFFFFFFFFFFFFFFFFFFFFFFFFFFFFFF AND DUP2 MSTORE PUSH1 0x20 ADD SWAP1 DUP2 MSTORE PUSH1 0x20 ADD PUSH0 KECCAK256 PUSH0 DUP3 ADD MLOAD DUP2 PUSH0 ADD SSTORE PUSH1 0x20 DUP3 ADD MLOAD DUP2 PUSH1 0x1 ADD PUSH0 PUSH2 0x100 EXP DUP2 SLOAD DUP2 PUSH20 0xFFFFFFFFFFFFFFFFFFFFFFFFFFFFFFFFFFFFFFFF MUL NOT AND SWAP1 DUP4 PUSH20 0xFFFFFFFFFFFFFFFFFFFFFFFFFFFFFFFFFFFFFFFF AND MUL OR SWAP1 SSTORE POP PUSH1 0x40 DUP3 ADD MLOAD DUP2 PUSH1 0x2 ADD SSTORE PUSH1 0x60 DUP3 ADD MLOAD DUP2 PUSH1 0x3 ADD SSTORE SWAP1 POP POP POP POP JUMP JUMPDEST PUSH1 0x60 PUSH0 DUP1 PUSH0 PUSH1 0x1 PUSH0 DUP7 DUP2 MSTORE PUSH1 0x20 ADD SWAP1 DUP2 MSTORE PUSH1 0x20 ADD PUSH0 KECCAK256 PUSH1 0x40 MLOAD DUP1 PUSH1 0x80 ADD PUSH1 0x40 MSTORE SWAP1 DUP2 PUSH0 DUP3 ADD SLOAD DUP2 MSTORE PUSH1 0x20 ADD PUSH1 0x1 DUP3 ADD DUP1 SLOAD PUSH2 0x380 SWAP1 PUSH2 0xB73 JUMP JUMPDEST DUP1 PUSH1 0x1F ADD PUSH1 0x20 DUP1 SWAP2 DIV MUL PUSH1 0x20 ADD PUSH1 0x40 MLOAD SWAP1 DUP2 ADD PUSH1 0x40 MSTORE DUP1 SWAP3 SWAP2 SWAP1 DUP2 DUP2 MSTORE PUSH1 0x20 ADD DUP3 DUP1 SLOAD PUSH2 0x3AC SWAP1 PUSH2 0xB73 JUMP JUMPDEST DUP1 ISZERO PUSH2 0x3F7 JUMPI DUP1 PUSH1 0x1F LT PUSH2 0x3CE JUMPI PUSH2 0x100 DUP1 DUP4 SLOAD DIV MUL DUP4 MSTORE SWAP2 PUSH1 0x20 ADD SWAP2 PUSH2 0x3F7 JUMP JUMPDEST DUP3 ADD SWAP2 SWAP1 PUSH0 MSTORE PUSH1 0x20 PUSH0 KECCAK256 SWAP1 JUMPDEST DUP2 SLOAD DUP2 MSTORE SWAP1 PUSH1 0x1 ADD SWAP1 PUSH1 0x20 ADD DUP1 DUP4 GT PUSH2 0x3DA JUMPI DUP3 SWAP1 SUB PUSH1 0x1F AND DUP3 ADD SWAP2 JUMPDEST POP POP POP POP POP DUP2 MSTORE PUSH1 0x20 ADD PUSH1 0x2 DUP3 ADD SLOAD DUP2 MSTORE PUSH1 0x20 ADD PUSH1 0x3 DUP3 ADD SLOAD DUP2 MSTORE POP POP SWAP1 POP DUP1 PUSH1 0x20 ADD MLOAD DUP2 PUSH1 0x40 ADD MLOAD DUP3 PUSH1 0x60 ADD MLOAD SWAP4 POP SWAP4 POP SWAP4 POP POP SWAP2 SWAP4 SWAP1 SWAP3 POP JUMP JUMPDEST PUSH1 0x1 PUSH1 0x20 MSTORE DUP1 PUSH0 MSTORE PUSH1 0x40 PUSH0 KECCAK256 PUSH0 SWAP2 POP SWAP1 POP DUP1 PUSH0 ADD SLOAD SWAP1 DUP1 PUSH1 0x1 ADD DUP1 SLOAD PUSH2 0x458 SWAP1 PUSH2 0xB73 JUMP JUMPDEST DUP1 PUSH1 0x1F ADD PUSH1 0x20 DUP1 SWAP2 DIV MUL PUSH1 0x20 ADD PUSH1 0x40 MLOAD SWAP1 DUP2 ADD PUSH1 0x40 MSTORE DUP1 SWAP3 SWAP2 SWAP1 DUP2 DUP2 MSTORE PUSH1 0x20 ADD DUP3 DUP1 SLOAD PUSH2 0x484 SWAP1 PUSH2 0xB73 JUMP JUMPDEST DUP1 ISZERO PUSH2 0x4CF JUMPI DUP1 PUSH1 0x1F LT PUSH2 0x4A6 JUMPI PUSH2 0x100 DUP1 DUP4 SLOAD DIV MUL DUP4 MSTORE SWAP2 PUSH1 0x20 ADD SWAP2 PUSH2 0x4CF JUMP JUMPDEST DUP3 ADD SWAP2 SWAP1 PUSH0 MSTORE PUSH1 0x20 PUSH0 KECCAK256 SWAP1 JUMPDEST DUP2 SLOAD DUP2 MSTORE SWAP1 PUSH1 0x1 ADD SWAP1 PUSH1 0x20 ADD DUP1 DUP4 GT PUSH2 0x4B2 JUMPI DUP3 SWAP1 SUB PUSH1 0x1F AND DUP3 ADD SWAP2 JUMPDEST POP POP POP POP POP SWAP1 DUP1 PUSH1 0x2 ADD SLOAD SWAP1 DUP1 PUSH1 0x3 ADD SLOAD SWAP1 POP DUP5 JUMP JUMPDEST PUSH0 DUP1 PUSH0 DUP1 PUSH0 CALLER PUSH20 0xFFFFFFFFFFFFFFFFFFFFFFFFFFFFFFFFFFFFFFFF AND PUSH20 0xFFFFFFFFFFFFFFFFFFFFFFFFFFFFFFFFFFFFFFFF AND DUP2 MSTORE PUSH1 0x20 ADD SWAP1 DUP2 MSTORE PUSH1 0x20 ADD PUSH0 KECCAK256 PUSH0 ADD SLOAD PUSH0 DUP1 CALLER PUSH20 0xFFFFFFFFFFFFFFFFFFFFFFFFFFFFFFFFFFFFFFFF AND PUSH20 0xFFFFFFFFFFFFFFFFFFFFFFFFFFFFFFFFFFFFFFFF AND DUP2 MSTORE PUSH1 0x20 ADD SWAP1 DUP2 MSTORE PUSH1 0x20 ADD PUSH0 KECCAK256 PUSH1 0x2 ADD SLOAD PUSH0 DUP1 CALLER PUSH20 0xFFFFFFFFFFFFFFFFFFFFFFFFFFFFFFFFFFFFFFFF AND PUSH20 0xFFFFFFFFFFFFFFFFFFFFFFFFFFFFFFFFFFFFFFFF AND DUP2 MSTORE PUSH1 0x20 ADD SWAP1 DUP2 MSTORE PUSH1 0x20 ADD PUSH0 KECCAK256 PUSH1 0x3 ADD SLOAD SWAP3 POP SWAP3 POP SWAP3 POP SWAP1 SWAP2 SWAP3 JUMP JUMPDEST PUSH0 PUSH1 0x20 MSTORE DUP1 PUSH0 MSTORE PUSH1 0x40 PUSH0 KECCAK256 PUSH0 SWAP2 POP SWAP1 POP DUP1 PUSH0 ADD SLOAD SWAP1 DUP1 PUSH1 0x1 ADD PUSH0 SWAP1 SLOAD SWAP1 PUSH2 0x100 EXP SWAP1 DIV PUSH20 0xFFFFFFFFFFFFFFFFFFFFFFFFFFFFFFFFFFFFFFFF AND SWAP1 DUP1 PUSH1 0x2 ADD SLOAD SWAP1 DUP1 PUSH1 0x3 ADD SLOAD SWAP1 POP DUP5 JUMP JUMPDEST PUSH0 PUSH1 0x40 MLOAD SWAP1 POP SWAP1 JUMP JUMPDEST PUSH0 DUP1 REVERT JUMPDEST PUSH0 DUP1 REVERT JUMPDEST PUSH0 DUP1 REVERT JUMPDEST PUSH0 DUP1 REVERT JUMPDEST PUSH0 PUSH1 0x1F NOT PUSH1 0x1F DUP4 ADD AND SWAP1 POP SWAP2 SWAP1 POP JUMP JUMPDEST PUSH32 0x4E487B7100000000000000000000000000000000000000000000000000000000 PUSH0 MSTORE PUSH1 0x41 PUSH1 0x4 MSTORE PUSH1 0x24 PUSH0 REVERT JUMPDEST PUSH2 0x65B DUP3 PUSH2 0x615 JUMP JUMPDEST DUP2 ADD DUP2 DUP2 LT PUSH8 0xFFFFFFFFFFFFFFFF DUP3 GT OR ISZERO PUSH2 0x67A JUMPI PUSH2 0x679 PUSH2 0x625 JUMP JUMPDEST JUMPDEST DUP1 PUSH1 0x40 MSTORE POP POP POP JUMP JUMPDEST PUSH0 PUSH2 0x68C PUSH2 0x5FC JUMP JUMPDEST SWAP1 POP PUSH2 0x698 DUP3 DUP3 PUSH2 0x652 JUMP JUMPDEST SWAP2 SWAP1 POP JUMP JUMPDEST PUSH0 PUSH8 0xFFFFFFFFFFFFFFFF DUP3 GT ISZERO PUSH2 0x6B7 JUMPI PUSH2 0x6B6 PUSH2 0x625 JUMP JUMPDEST JUMPDEST PUSH2 0x6C0 DUP3 PUSH2 0x615 JUMP JUMPDEST SWAP1 POP PUSH1 0x20 DUP2 ADD SWAP1 POP SWAP2 SWAP1 POP JUMP JUMPDEST DUP3 DUP2 DUP4 CALLDATACOPY PUSH0 DUP4 DUP4 ADD MSTORE POP POP POP JUMP JUMPDEST PUSH0 PUSH2 0x6ED PUSH2 0x6E8 DUP5 PUSH2 0x69D JUMP JUMPDEST PUSH2 0x683 JUMP JUMPDEST SWAP1 POP DUP3 DUP2 MSTORE PUSH1 0x20 DUP2 ADD DUP5 DUP5 DUP5 ADD GT ISZERO PUSH2 0x709 JUMPI PUSH2 0x708 PUSH2 0x611 JUMP JUMPDEST JUMPDEST PUSH2 0x714 DUP5 DUP3 DUP6 PUSH2 0x6CD JUMP JUMPDEST POP SWAP4 SWAP3 POP POP POP JUMP JUMPDEST PUSH0 DUP3 PUSH1 0x1F DUP4 ADD SLT PUSH2 0x730 JUMPI PUSH2 0x72F PUSH2 0x60D JUMP JUMPDEST JUMPDEST DUP2 CALLDATALOAD PUSH2 0x740 DUP5 DUP3 PUSH1 0x20 DUP7 ADD PUSH2 0x6DB JUMP JUMPDEST SWAP2 POP POP SWAP3 SWAP2 POP POP JUMP JUMPDEST PUSH0 DUP2 SWAP1 POP SWAP2 SWAP1 POP JUMP JUMPDEST PUSH2 0x75B DUP2 PUSH2 0x749 JUMP JUMPDEST DUP2 EQ PUSH2 0x765 JUMPI PUSH0 DUP1 REVERT JUMPDEST POP JUMP JUMPDEST PUSH0 DUP2 CALLDATALOAD SWAP1 POP PUSH2 0x776 DUP2 PUSH2 0x752 JUMP JUMPDEST SWAP3 SWAP2 POP POP JUMP JUMPDEST PUSH0 DUP1 PUSH0 PUSH1 0x60 DUP5 DUP7 SUB SLT ISZERO PUSH2 0x793 JUMPI PUSH2 0x792 PUSH2 0x605 JUMP JUMPDEST JUMPDEST PUSH0 DUP5 ADD CALLDATALOAD PUSH8 0xFFFFFFFFFFFFFFFF DUP2 GT ISZERO PUSH2 0x7B0 JUMPI PUSH2 0x7AF PUSH2 0x609 JUMP JUMPDEST JUMPDEST PUSH2 0x7BC DUP7 DUP3 DUP8 ADD PUSH2 0x71C JUMP JUMPDEST SWAP4 POP POP PUSH1 0x20 PUSH2 0x7CD DUP7 DUP3 DUP8 ADD PUSH2 0x768 JUMP JUMPDEST SWAP3 POP POP PUSH1 0x40 PUSH2 0x7DE DUP7 DUP3 DUP8 ADD PUSH2 0x768 JUMP JUMPDEST SWAP2 POP POP SWAP3 POP SWAP3 POP SWAP3 JUMP JUMPDEST PUSH0 DUP1 PUSH0 DUP1 PUSH1 0x80 DUP6 DUP8 SUB SLT ISZERO PUSH2 0x800 JUMPI PUSH2 0x7FF PUSH2 0x605 JUMP JUMPDEST JUMPDEST PUSH0 PUSH2 0x80D DUP8 DUP3 DUP9 ADD PUSH2 0x768 JUMP JUMPDEST SWAP5 POP POP PUSH1 0x20 DUP6 ADD CALLDATALOAD PUSH8 0xFFFFFFFFFFFFFFFF DUP2 GT ISZERO PUSH2 0x82E JUMPI PUSH2 0x82D PUSH2 0x609 JUMP JUMPDEST JUMPDEST PUSH2 0x83A DUP8 DUP3 DUP9 ADD PUSH2 0x71C JUMP JUMPDEST SWAP4 POP POP PUSH1 0x40 PUSH2 0x84B DUP8 DUP3 DUP9 ADD PUSH2 0x768 JUMP JUMPDEST SWAP3 POP POP PUSH1 0x60 PUSH2 0x85C DUP8 DUP3 DUP9 ADD PUSH2 0x768 JUMP JUMPDEST SWAP2 POP POP SWAP3 SWAP6 SWAP2 SWAP5 POP SWAP3 POP JUMP JUMPDEST PUSH0 DUP1 PUSH1 0x40 DUP4 DUP6 SUB SLT ISZERO PUSH2 0x87E JUMPI PUSH2 0x87D PUSH2 0x605 JUMP JUMPDEST JUMPDEST PUSH0 PUSH2 0x88B DUP6 DUP3 DUP7 ADD PUSH2 0x768 JUMP JUMPDEST SWAP3 POP POP PUSH1 0x20 PUSH2 0x89C DUP6 DUP3 DUP7 ADD PUSH2 0x768 JUMP JUMPDEST SWAP2 POP POP SWAP3 POP SWAP3 SWAP1 POP JUMP JUMPDEST PUSH0 PUSH1 0x20 DUP3 DUP5 SUB SLT ISZERO PUSH2 0x8BB JUMPI PUSH2 0x8BA PUSH2 0x605 JUMP JUMPDEST JUMPDEST PUSH0 PUSH2 0x8C8 DUP5 DUP3 DUP6 ADD PUSH2 0x768 JUMP JUMPDEST SWAP2 POP POP SWAP3 SWAP2 POP POP JUMP JUMPDEST PUSH0 DUP2 MLOAD SWAP1 POP SWAP2 SWAP1 POP JUMP JUMPDEST PUSH0 DUP3 DUP3 MSTORE PUSH1 0x20 DUP3 ADD SWAP1 POP SWAP3 SWAP2 POP POP JUMP JUMPDEST DUP3 DUP2 DUP4 MCOPY PUSH0 DUP4 DUP4 ADD MSTORE POP POP POP JUMP JUMPDEST PUSH0 PUSH2 0x903 DUP3 PUSH2 0x8D1 JUMP JUMPDEST PUSH2 0x90D DUP2 DUP6 PUSH2 0x8DB JUMP JUMPDEST SWAP4 POP PUSH2 0x91D DUP2 DUP6 PUSH1 0x20 DUP7 ADD PUSH2 0x8EB JUMP JUMPDEST PUSH2 0x926 DUP2 PUSH2 0x615 JUMP JUMPDEST DUP5 ADD SWAP2 POP POP SWAP3 SWAP2 POP POP JUMP JUMPDEST PUSH2 0x93A DUP2 PUSH2 0x749 JUMP JUMPDEST DUP3 MSTORE POP POP JUMP JUMPDEST PUSH0 PUSH1 0x60 DUP3 ADD SWAP1 POP DUP2 DUP2 SUB PUSH0 DUP4 ADD MSTORE PUSH2 0x958 DUP2 DUP7 PUSH2 0x8F9 JUMP JUMPDEST SWAP1 POP PUSH2 0x967 PUSH1 0x20 DUP4 ADD DUP6 PUSH2 0x931 JUMP JUMPDEST PUSH2 0x974 PUSH1 0x40 DUP4 ADD DUP5 PUSH2 0x931 JUMP JUMPDEST SWAP5 SWAP4 POP POP POP POP JUMP JUMPDEST PUSH0 PUSH1 0x80 DUP3 ADD SWAP1 POP PUSH2 0x98F PUSH0 DUP4 ADD DUP8 PUSH2 0x931 JUMP JUMPDEST DUP2 DUP2 SUB PUSH1 0x20 DUP4 ADD MSTORE PUSH2 0x9A1 DUP2 DUP7 PUSH2 0x8F9 JUMP JUMPDEST SWAP1 POP PUSH2 0x9B0 PUSH1 0x40 DUP4 ADD DUP6 PUSH2 0x931 JUMP JUMPDEST PUSH2 0x9BD PUSH1 0x60 DUP4 ADD DUP5 PUSH2 0x931 JUMP JUMPDEST SWAP6 SWAP5 POP POP POP POP POP JUMP JUMPDEST PUSH0 PUSH1 0x60 DUP3 ADD SWAP1 POP PUSH2 0x9D9 PUSH0 DUP4 ADD DUP7 PUSH2 0x931 JUMP JUMPDEST PUSH2 0x9E6 PUSH1 0x20 DUP4 ADD DUP6 PUSH2 0x931 JUMP JUMPDEST PUSH2 0x9F3 PUSH1 0x40 DUP4 ADD DUP5 PUSH2 0x931 JUMP JUMPDEST SWAP5 SWAP4 POP POP POP POP JUMP JUMPDEST PUSH0 PUSH20 0xFFFFFFFFFFFFFFFFFFFFFFFFFFFFFFFFFFFFFFFF DUP3 AND SWAP1 POP SWAP2 SWAP1 POP JUMP JUMPDEST PUSH0 PUSH2 0xA24 DUP3 PUSH2 0x9FB JUMP JUMPDEST SWAP1 POP SWAP2 SWAP1 POP JUMP JUMPDEST PUSH2 0xA34 DUP2 PUSH2 0xA1A JUMP JUMPDEST DUP2 EQ PUSH2 0xA3E JUMPI PUSH0 DUP1 REVERT JUMPDEST POP JUMP JUMPDEST PUSH0 DUP2 CALLDATALOAD SWAP1 POP PUSH2 0xA4F DUP2 PUSH2 0xA2B JUMP JUMPDEST SWAP3 SWAP2 POP POP JUMP JUMPDEST PUSH0 PUSH1 0x20 DUP3 DUP5 SUB SLT ISZERO PUSH2 0xA6A JUMPI PUSH2 0xA69 PUSH2 0x605 JUMP JUMPDEST JUMPDEST PUSH0 PUSH2 0xA77 DUP5 DUP3 DUP6 ADD PUSH2 0xA41 JUMP JUMPDEST SWAP2 POP POP SWAP3 SWAP2 POP POP JUMP JUMPDEST PUSH2 0xA89 DUP2 PUSH2 0xA1A JUMP JUMPDEST DUP3 MSTORE POP POP JUMP JUMPDEST PUSH0 PUSH1 0x80 DUP3 ADD SWAP1 POP PUSH2 0xAA2 PUSH0 DUP4 ADD DUP8 PUSH2 0x931 JUMP JUMPDEST PUSH2 0xAAF PUSH1 0x20 DUP4 ADD DUP7 PUSH2 0xA80 JUMP JUMPDEST PUSH2 0xABC PUSH1 0x40 DUP4 ADD DUP6 PUSH2 0x931 JUMP JUMPDEST PUSH2 0xAC9 PUSH1 0x60 DUP4 ADD DUP5 PUSH2 0x931 JUMP JUMPDEST SWAP6 SWAP5 POP POP POP POP POP JUMP JUMPDEST PUSH32 0x4E487B7100000000000000000000000000000000000000000000000000000000 PUSH0 MSTORE PUSH1 0x11 PUSH1 0x4 MSTORE PUSH1 0x24 PUSH0 REVERT JUMPDEST PUSH0 PUSH2 0xB09 DUP3 PUSH2 0x749 JUMP JUMPDEST SWAP2 POP PUSH32 0xFFFFFFFFFFFFFFFFFFFFFFFFFFFFFFFFFFFFFFFFFFFFFFFFFFFFFFFFFFFFFFFF DUP3 SUB PUSH2 0xB3B JUMPI PUSH2 0xB3A PUSH2 0xAD2 JUMP JUMPDEST JUMPDEST PUSH1 0x1 DUP3 ADD SWAP1 POP SWAP2 SWAP1 POP JUMP JUMPDEST PUSH32 0x4E487B7100000000000000000000000000000000000000000000000000000000 PUSH0 MSTORE PUSH1 0x22 PUSH1 0x4 MSTORE PUSH1 0x24 PUSH0 REVERT JUMPDEST PUSH0 PUSH1 0x2 DUP3 DIV SWAP1 POP PUSH1 0x1 DUP3 AND DUP1 PUSH2 0xB8A JUMPI PUSH1 0x7F DUP3 AND SWAP2 POP JUMPDEST PUSH1 0x20 DUP3 LT DUP2 SUB PUSH2 0xB9D JUMPI PUSH2 0xB9C PUSH2 0xB46 JUMP JUMPDEST JUMPDEST POP SWAP2 SWAP1 POP JUMP JUMPDEST PUSH0 DUP2 SWAP1 POP DUP2 PUSH0 MSTORE PUSH1 0x20 PUSH0 KECCAK256 SWAP1 POP SWAP2 SWAP1 POP JUMP JUMPDEST PUSH0 PUSH1 0x20 PUSH1 0x1F DUP4 ADD DIV SWAP1 POP SWAP2 SWAP1 POP JUMP JUMPDEST PUSH0 DUP3 DUP3 SHL SWAP1 POP SWAP3 SWAP2 POP POP JUMP JUMPDEST PUSH0 PUSH1 0x8 DUP4 MUL PUSH2 0xBFF PUSH32 0xFFFFFFFFFFFFFFFFFFFFFFFFFFFFFFFFFFFFFFFFFFFFFFFFFFFFFFFFFFFFFFFF DUP3 PUSH2 0xBC4 JUMP JUMPDEST PUSH2 0xC09 DUP7 DUP4 PUSH2 0xBC4 JUMP JUMPDEST SWAP6 POP DUP1 NOT DUP5 AND SWAP4 POP DUP1 DUP7 AND DUP5 OR SWAP3 POP POP POP SWAP4 SWAP3 POP POP POP JUMP JUMPDEST PUSH0 DUP2 SWAP1 POP SWAP2 SWAP1 POP JUMP JUMPDEST PUSH0 PUSH2 0xC44 PUSH2 0xC3F PUSH2 0xC3A DUP5 PUSH2 0x749 JUMP JUMPDEST PUSH2 0xC21 JUMP JUMPDEST PUSH2 0x749 JUMP JUMPDEST SWAP1 POP SWAP2 SWAP1 POP JUMP JUMPDEST PUSH0 DUP2 SWAP1 POP SWAP2 SWAP1 POP JUMP JUMPDEST PUSH2 0xC5D DUP4 PUSH2 0xC2A JUMP JUMPDEST PUSH2 0xC71 PUSH2 0xC69 DUP3 PUSH2 0xC4B JUMP JUMPDEST DUP5 DUP5 SLOAD PUSH2 0xBD0 JUMP JUMPDEST DUP3 SSTORE POP POP POP POP JUMP JUMPDEST PUSH0 SWAP1 JUMP JUMPDEST PUSH2 0xC85 PUSH2 0xC79 JUMP JUMPDEST PUSH2 0xC90 DUP2 DUP5 DUP5 PUSH2 0xC54 JUMP JUMPDEST POP POP POP JUMP JUMPDEST JUMPDEST DUP2 DUP2 LT ISZERO PUSH2 0xCB3 JUMPI PUSH2 0xCA8 PUSH0 DUP3 PUSH2 0xC7D JUMP JUMPDEST PUSH1 0x1 DUP2 ADD SWAP1 POP PUSH2 0xC96 JUMP JUMPDEST POP POP JUMP JUMPDEST PUSH1 0x1F DUP3 GT ISZERO PUSH2 0xCF8 JUMPI PUSH2 0xCC9 DUP2 PUSH2 0xBA3 JUMP JUMPDEST PUSH2 0xCD2 DUP5 PUSH2 0xBB5 JUMP JUMPDEST DUP2 ADD PUSH1 0x20 DUP6 LT ISZERO PUSH2 0xCE1 JUMPI DUP2 SWAP1 POP JUMPDEST PUSH2 0xCF5 PUSH2 0xCED DUP6 PUSH2 0xBB5 JUMP JUMPDEST DUP4 ADD DUP3 PUSH2 0xC95 JUMP JUMPDEST POP POP JUMPDEST POP POP POP JUMP JUMPDEST PUSH0 DUP3 DUP3 SHR SWAP1 POP SWAP3 SWAP2 POP POP JUMP JUMPDEST PUSH0 PUSH2 0xD18 PUSH0 NOT DUP5 PUSH1 0x8 MUL PUSH2 0xCFD JUMP JUMPDEST NOT DUP1 DUP4 AND SWAP2 POP POP SWAP3 SWAP2 POP POP JUMP JUMPDEST PUSH0 PUSH2 0xD30 DUP4 DUP4 PUSH2 0xD09 JUMP JUMPDEST SWAP2 POP DUP3 PUSH1 0x2 MUL DUP3 OR SWAP1 POP SWAP3 SWAP2 POP POP JUMP JUMPDEST PUSH2 0xD49 DUP3 PUSH2 0x8D1 JUMP JUMPDEST PUSH8 0xFFFFFFFFFFFFFFFF DUP2 GT ISZERO PUSH2 0xD62 JUMPI PUSH2 0xD61 PUSH2 0x625 JUMP JUMPDEST JUMPDEST PUSH2 0xD6C DUP3 SLOAD PUSH2 0xB73 JUMP JUMPDEST PUSH2 0xD77 DUP3 DUP3 DUP6 PUSH2 0xCB7 JUMP JUMPDEST PUSH0 PUSH1 0x20 SWAP1 POP PUSH1 0x1F DUP4 GT PUSH1 0x1 DUP2 EQ PUSH2 0xDA8 JUMPI PUSH0 DUP5 ISZERO PUSH2 0xD96 JUMPI DUP3 DUP8 ADD MLOAD SWAP1 POP JUMPDEST PUSH2 0xDA0 DUP6 DUP3 PUSH2 0xD25 JUMP JUMPDEST DUP7 SSTORE POP PUSH2 0xE07 JUMP JUMPDEST PUSH1 0x1F NOT DUP5 AND PUSH2 0xDB6 DUP7 PUSH2 0xBA3 JUMP JUMPDEST PUSH0 JUMPDEST DUP3 DUP2 LT ISZERO PUSH2 0xDDD JUMPI DUP5 DUP10 ADD MLOAD DUP3 SSTORE PUSH1 0x1 DUP3 ADD SWAP2 POP PUSH1 0x20 DUP6 ADD SWAP5 POP PUSH1 0x20 DUP2 ADD SWAP1 POP PUSH2 0xDB8 JUMP JUMPDEST DUP7 DUP4 LT ISZERO PUSH2 0xDFA JUMPI DUP5 DUP10 ADD MLOAD PUSH2 0xDF6 PUSH1 0x1F DUP10 AND DUP3 PUSH2 0xD09 JUMP JUMPDEST DUP4 SSTORE POP JUMPDEST PUSH1 0x1 PUSH1 0x2 DUP9 MUL ADD DUP9 SSTORE POP POP POP JUMPDEST POP POP POP POP POP POP JUMP INVALID LOG2 PUSH5 0x6970667358 0x22 SLT KECCAK256 0x4C 0xCC SWAP9 CALLVALUE DUP12 BYTE 0xE4 0xEB 0x2A SDIV 0xCA 0xD7 NOT 0x2A JUMPI DUP1 SLT PUSH27 0x920729C0C32C0277CFC2AAB7AD1A64736F6C634300081A00330000 "
				},
				"gasEstimates": {
					"creation": {
						"codeDepositCost": "730600",
						"executionCost": "764",
						"totalCost": "731364"
					},
					"external": {
						"addProduct(string,uint256,uint256)": "infinite",
						"createOrder(uint256,uint256)": "infinite",
						"getOrder()": "infinite",
						"getProductInfo(uint256)": "infinite",
						"orders(address)": "infinite",
						"products(uint256)": "infinite",
						"updateProduct(uint256,string,uint256,uint256)": "infinite"
					}
				},
				"methodIdentifiers": {
					"addProduct(string,uint256,uint256)": "125b0b34",
					"createOrder(uint256,uint256)": "79109baa",
					"getOrder()": "d36dedd2",
					"getProductInfo(uint256)": "79a85e6c",
					"orders(address)": "f40e8471",
					"products(uint256)": "7acc0b20",
					"updateProduct(uint256,string,uint256,uint256)": "2d561787"
				}
			},
			"storageLayout": {
				"storage": [
					{
						"astId": 24,
						"contract": "Struct.sol:TestStruct",
						"label": "orders",
						"offset": 0,
						"slot": "0",
						"type": "t_mapping(t_address,t_struct(Order)19_storage)"
					},
					{
						"astId": 29,
						"contract": "Struct.sol:TestStruct",
						"label": "products",
						"offset": 0,
						"slot": "1",
						"type": "t_mapping(t_uint256,t_struct(Product)10_storage)"
					},
					{
						"astId": 31,
						"contract": "Struct.sol:TestStruct",
						"label": "productId",
						"offset": 0,
						"slot": "2",
						"type": "t_uint256"
					},
					{
						"astId": 33,
						"contract": "Struct.sol:TestStruct",
						"label": "orderId",
						"offset": 0,
						"slot": "3",
						"type": "t_uint256"
					}
				],
				"types": {
					"t_address": {
						"encoding": "inplace",
						"label": "address",
						"numberOfBytes": "20"
					},
					"t_mapping(t_address,t_struct(Order)19_storage)": {
						"encoding": "mapping",
						"key": "t_address",
						"label": "mapping(address => struct TestStruct.Order)",
						"numberOfBytes": "32",
						"value": "t_struct(Order)19_storage"
					},
					"t_mapping(t_uint256,t_struct(Product)10_storage)": {
						"encoding": "mapping",
						"key": "t_uint256",
						"label": "mapping(uint256 => struct TestStruct.Product)",
						"numberOfBytes": "32",
						"value": "t_struct(Product)10_storage"
					},
					"t_string_storage": {
						"encoding": "bytes",
						"label": "string",
						"numberOfBytes": "32"
					},
					"t_struct(Order)19_storage": {
						"encoding": "inplace",
						"label": "struct TestStruct.Order",
						"members": [
							{
								"astId": 12,
								"contract": "Struct.sol:TestStruct",
								"label": "orderId",
								"offset": 0,
								"slot": "0",
								"type": "t_uint256"
							},
							{
								"astId": 14,
								"contract": "Struct.sol:TestStruct",
								"label": "customerId",
								"offset": 0,
								"slot": "1",
								"type": "t_address"
							},
							{
								"astId": 16,
								"contract": "Struct.sol:TestStruct",
								"label": "productId",
								"offset": 0,
								"slot": "2",
								"type": "t_uint256"
							},
							{
								"astId": 18,
								"contract": "Struct.sol:TestStruct",
								"label": "count",
								"offset": 0,
								"slot": "3",
								"type": "t_uint256"
							}
						],
						"numberOfBytes": "128"
					},
					"t_struct(Product)10_storage": {
						"encoding": "inplace",
						"label": "struct TestStruct.Product",
						"members": [
							{
								"astId": 3,
								"contract": "Struct.sol:TestStruct",
								"label": "productId",
								"offset": 0,
								"slot": "0",
								"type": "t_uint256"
							},
							{
								"astId": 5,
								"contract": "Struct.sol:TestStruct",
								"label": "productName",
								"offset": 0,
								"slot": "1",
								"type": "t_string_storage"
							},
							{
								"astId": 7,
								"contract": "Struct.sol:TestStruct",
								"label": "price",
								"offset": 0,
								"slot": "2",
								"type": "t_uint256"
							},
							{
								"astId": 9,
								"contract": "Struct.sol:TestStruct",
								"label": "stock",
								"offset": 0,
								"slot": "3",
								"type": "t_uint256"
							}
						],
						"numberOfBytes": "128"
					},
					"t_uint256": {
						"encoding": "inplace",
						"label": "uint256",
						"numberOfBytes": "32"
					}
				}
			},
			"userdoc": {
				"kind": "user",
				"methods": {},
				"version": 1
			}
		}
	}
}