{
	"TodoList.sol": {
		"TodoList": {
			"abi": [
				{
					"inputs": [
						{
							"internalType": "uint256",
							"name": "taskId",
							"type": "uint256"
						}
					],
					"name": "autoUpdateTaskStatus",
					"outputs": [],
					"stateMutability": "nonpayable",
					"type": "function"
				},
				{
					"inputs": [
						{
							"internalType": "string",
							"name": "_name",
							"type": "string"
						}
					],
					"name": "createTask",
					"outputs": [],
					"stateMutability": "nonpayable",
					"type": "function"
				},
				{
					"inputs": [
						{
							"internalType": "uint256",
							"name": "taskId",
							"type": "uint256"
						}
					],
					"name": "getTask",
					"outputs": [
						{
							"internalType": "string",
							"name": "",
							"type": "string"
						},
						{
							"internalType": "bool",
							"name": "",
							"type": "bool"
						}
					],
					"stateMutability": "view",
					"type": "function"
				},
				{
					"inputs": [
						{
							"internalType": "uint256",
							"name": "",
							"type": "uint256"
						}
					],
					"name": "tasks",
					"outputs": [
						{
							"internalType": "string",
							"name": "name",
							"type": "string"
						},
						{
							"internalType": "bool",
							"name": "isComplete",
							"type": "bool"
						}
					],
					"stateMutability": "view",
					"type": "function"
				},
				{
					"inputs": [
						{
							"internalType": "uint256",
							"name": "taskId",
							"type": "uint256"
						},
						{
							"internalType": "string",
							"name": "name",
							"type": "string"
						}
					],
					"name": "updateTaskName",
					"outputs": [],
					"stateMutability": "nonpayable",
					"type": "function"
				},
				{
					"inputs": [
						{
							"internalType": "uint256",
							"name": "taskId",
							"type": "uint256"
						},
						{
							"internalType": "bool",
							"name": "status",
							"type": "bool"
						}
					],
					"name": "updateTaskStatus",
					"outputs": [],
					"stateMutability": "nonpayable",
					"type": "function"
				}
			],
			"devdoc": {
				"kind": "dev",
				"methods": {},
				"version": 1
			},
			"evm": {
				"assembly": "    /* \"TodoList.sol\":60:1207  contract TodoList {... */\n  mstore(0x40, 0x80)\n    /* \"TodoList.sol\":230:231  0 */\n  0x00\n    /* \"TodoList.sol\":209:231  uint256 tasksCount = 0 */\n  0x01\n  sstore\n    /* \"TodoList.sol\":60:1207  contract TodoList {... */\n  callvalue\n  dup1\n  iszero\n  tag_1\n  jumpi\n  0x00\n  dup1\n  revert\ntag_1:\n  pop\n  dataSize(sub_0)\n  dup1\n  dataOffset(sub_0)\n  0x00\n  codecopy\n  0x00\n  return\nstop\n\nsub_0: assembly {\n        /* \"TodoList.sol\":60:1207  contract TodoList {... */\n      mstore(0x40, 0x80)\n      callvalue\n      dup1\n      iszero\n      tag_1\n      jumpi\n      0x00\n      dup1\n      revert\n    tag_1:\n      pop\n      jumpi(tag_2, lt(calldatasize, 0x04))\n      shr(0xe0, calldataload(0x00))\n      dup1\n      0x111002aa\n      eq\n      tag_3\n      jumpi\n      dup1\n      0x1d65e77e\n      eq\n      tag_4\n      jumpi\n      dup1\n      0x4ff0eb90\n      eq\n      tag_5\n      jumpi\n      dup1\n      0x8b3f236d\n      eq\n      tag_6\n      jumpi\n      dup1\n      0x8d977672\n      eq\n      tag_7\n      jumpi\n      dup1\n      0xa9330a15\n      eq\n      tag_8\n      jumpi\n    tag_2:\n      0x00\n      dup1\n      revert\n        /* \"TodoList.sol\":240:370  function createTask(string memory _name) external {... */\n    tag_3:\n      tag_9\n      0x04\n      dup1\n      calldatasize\n      sub\n      dup2\n      add\n      swap1\n      tag_10\n      swap2\n      swap1\n      tag_11\n      jump\t// in\n    tag_10:\n      tag_12\n      jump\t// in\n    tag_9:\n      stop\n        /* \"TodoList.sol\":976:1196  function getTask(uint256 taskId) external view returns (string memory, bool){... */\n    tag_4:\n      tag_13\n      0x04\n      dup1\n      calldatasize\n      sub\n      dup2\n      add\n      swap1\n      tag_14\n      swap2\n      swap1\n      tag_15\n      jump\t// in\n    tag_14:\n      tag_16\n      jump\t// in\n    tag_13:\n      mload(0x40)\n      tag_17\n      swap3\n      swap2\n      swap1\n      tag_18\n      jump\t// in\n    tag_17:\n      mload(0x40)\n      dup1\n      swap2\n      sub\n      swap1\n      return\n        /* \"TodoList.sol\":769:967  function autoUpdateTaskStatus(uint256 taskId) external {... */\n    tag_5:\n      tag_19\n      0x04\n      dup1\n      calldatasize\n      sub\n      dup2\n      add\n      swap1\n      tag_20\n      swap2\n      swap1\n      tag_15\n      jump\t// in\n    tag_20:\n      tag_21\n      jump\t// in\n    tag_19:\n      stop\n        /* \"TodoList.sol\":572:760  function updateTaskStatus(uint256 taskId, bool status) external {... */\n    tag_6:\n      tag_22\n      0x04\n      dup1\n      calldatasize\n      sub\n      dup2\n      add\n      swap1\n      tag_23\n      swap2\n      swap1\n      tag_24\n      jump\t// in\n    tag_23:\n      tag_25\n      jump\t// in\n    tag_22:\n      stop\n        /* \"TodoList.sol\":163:200  mapping(uint256 => Task) public tasks */\n    tag_7:\n      tag_26\n      0x04\n      dup1\n      calldatasize\n      sub\n      dup2\n      add\n      swap1\n      tag_27\n      swap2\n      swap1\n      tag_15\n      jump\t// in\n    tag_27:\n      tag_28\n      jump\t// in\n    tag_26:\n      mload(0x40)\n      tag_29\n      swap3\n      swap2\n      swap1\n      tag_18\n      jump\t// in\n    tag_29:\n      mload(0x40)\n      dup1\n      swap2\n      sub\n      swap1\n      return\n        /* \"TodoList.sol\":378:564  function updateTaskName(uint256 taskId, string memory name) external  {... */\n    tag_8:\n      tag_30\n      0x04\n      dup1\n      calldatasize\n      sub\n      dup2\n      add\n      swap1\n      tag_31\n      swap2\n      swap1\n      tag_32\n      jump\t// in\n    tag_31:\n      tag_33\n      jump\t// in\n    tag_30:\n      stop\n        /* \"TodoList.sol\":240:370  function createTask(string memory _name) external {... */\n    tag_12:\n        /* \"TodoList.sol\":301:311  tasksCount */\n      0x01\n      0x00\n        /* \"TodoList.sol\":301:313  tasksCount++ */\n      dup2\n      sload\n      dup1\n      swap3\n      swap2\n      swap1\n      tag_35\n      swap1\n      tag_36\n      jump\t// in\n    tag_35:\n      swap2\n      swap1\n      pop\n      sstore\n      pop\n        /* \"TodoList.sol\":344:362  Task(_name, false) */\n      mload(0x40)\n      dup1\n      0x40\n      add\n      0x40\n      mstore\n      dup1\n        /* \"TodoList.sol\":349:354  _name */\n      dup3\n        /* \"TodoList.sol\":344:362  Task(_name, false) */\n      dup2\n      mstore\n      0x20\n      add\n        /* \"TodoList.sol\":356:361  false */\n      0x00\n        /* \"TodoList.sol\":344:362  Task(_name, false) */\n      iszero\n      iszero\n      dup2\n      mstore\n      pop\n        /* \"TodoList.sol\":324:329  tasks */\n      0x00\n        /* \"TodoList.sol\":324:341  tasks[tasksCount] */\n      dup1\n        /* \"TodoList.sol\":330:340  tasksCount */\n      sload(0x01)\n        /* \"TodoList.sol\":324:341  tasks[tasksCount] */\n      dup2\n      mstore\n      0x20\n      add\n      swap1\n      dup2\n      mstore\n      0x20\n      add\n      0x00\n      keccak256\n        /* \"TodoList.sol\":324:362  tasks[tasksCount] = Task(_name, false) */\n      0x00\n      dup3\n      add\n      mload\n      dup2\n      0x00\n      add\n      swap1\n      dup2\n      tag_37\n      swap2\n      swap1\n      tag_38\n      jump\t// in\n    tag_37:\n      pop\n      0x20\n      dup3\n      add\n      mload\n      dup2\n      0x01\n      add\n      exp(0x0100, 0x00)\n      dup2\n      sload\n      dup2\n      0xff\n      mul\n      not\n      and\n      swap1\n      dup4\n      iszero\n      iszero\n      mul\n      or\n      swap1\n      sstore\n      pop\n      swap1\n      pop\n      pop\n        /* \"TodoList.sol\":240:370  function createTask(string memory _name) external {... */\n      pop\n      jump\t// out\n        /* \"TodoList.sol\":976:1196  function getTask(uint256 taskId) external view returns (string memory, bool){... */\n    tag_16:\n        /* \"TodoList.sol\":1032:1045  string memory */\n      0x60\n        /* \"TodoList.sol\":1047:1051  bool */\n      0x00\n        /* \"TodoList.sol\":1080:1081  0 */\n      dup1\n        /* \"TodoList.sol\":1071:1077  taskId */\n      dup4\n        /* \"TodoList.sol\":1071:1081  taskId > 0 */\n      gt\n        /* \"TodoList.sol\":1071:1105  taskId > 0 && taskId <= tasksCount */\n      dup1\n      iszero\n      tag_40\n      jumpi\n      pop\n        /* \"TodoList.sol\":1095:1105  tasksCount */\n      sload(0x01)\n        /* \"TodoList.sol\":1085:1091  taskId */\n      dup4\n        /* \"TodoList.sol\":1085:1105  taskId <= tasksCount */\n      gt\n      iszero\n        /* \"TodoList.sol\":1071:1105  taskId > 0 && taskId <= tasksCount */\n    tag_40:\n        /* \"TodoList.sol\":1063:1124  require(taskId > 0 && taskId <= tasksCount,\"Invalid Task Id\") */\n      tag_41\n      jumpi\n      mload(0x40)\n      0x08c379a000000000000000000000000000000000000000000000000000000000\n      dup2\n      mstore\n      0x04\n      add\n      tag_42\n      swap1\n      tag_43\n      jump\t// in\n    tag_42:\n      mload(0x40)\n      dup1\n      swap2\n      sub\n      swap1\n      revert\n    tag_41:\n        /* \"TodoList.sol\":1143:1148  tasks */\n      0x00\n        /* \"TodoList.sol\":1143:1156  tasks[taskId] */\n      dup1\n        /* \"TodoList.sol\":1149:1155  taskId */\n      dup5\n        /* \"TodoList.sol\":1143:1156  tasks[taskId] */\n      dup2\n      mstore\n      0x20\n      add\n      swap1\n      dup2\n      mstore\n      0x20\n      add\n      0x00\n      keccak256\n        /* \"TodoList.sol\":1143:1161  tasks[taskId].name */\n      0x00\n      add\n        /* \"TodoList.sol\":1163:1168  tasks */\n      0x00\n        /* \"TodoList.sol\":1163:1176  tasks[taskId] */\n      dup1\n        /* \"TodoList.sol\":1169:1175  taskId */\n      dup6\n        /* \"TodoList.sol\":1163:1176  tasks[taskId] */\n      dup2\n      mstore\n      0x20\n      add\n      swap1\n      dup2\n      mstore\n      0x20\n      add\n      0x00\n      keccak256\n        /* \"TodoList.sol\":1163:1187  tasks[taskId].isComplete */\n      0x01\n      add\n      0x00\n      swap1\n      sload\n      swap1\n      0x0100\n      exp\n      swap1\n      div\n      0xff\n      and\n        /* \"TodoList.sol\":1135:1188  return (tasks[taskId].name, tasks[taskId].isComplete) */\n      dup2\n      dup1\n      sload\n      tag_44\n      swap1\n      tag_45\n      jump\t// in\n    tag_44:\n      dup1\n      0x1f\n      add\n      0x20\n      dup1\n      swap2\n      div\n      mul\n      0x20\n      add\n      mload(0x40)\n      swap1\n      dup2\n      add\n      0x40\n      mstore\n      dup1\n      swap3\n      swap2\n      swap1\n      dup2\n      dup2\n      mstore\n      0x20\n      add\n      dup3\n      dup1\n      sload\n      tag_46\n      swap1\n      tag_45\n      jump\t// in\n    tag_46:\n      dup1\n      iszero\n      tag_47\n      jumpi\n      dup1\n      0x1f\n      lt\n      tag_48\n      jumpi\n      0x0100\n      dup1\n      dup4\n      sload\n      div\n      mul\n      dup4\n      mstore\n      swap2\n      0x20\n      add\n      swap2\n      jump(tag_47)\n    tag_48:\n      dup3\n      add\n      swap2\n      swap1\n      0x00\n      mstore\n      keccak256(0x00, 0x20)\n      swap1\n    tag_49:\n      dup2\n      sload\n      dup2\n      mstore\n      swap1\n      0x01\n      add\n      swap1\n      0x20\n      add\n      dup1\n      dup4\n      gt\n      tag_49\n      jumpi\n      dup3\n      swap1\n      sub\n      0x1f\n      and\n      dup3\n      add\n      swap2\n    tag_47:\n      pop\n      pop\n      pop\n      pop\n      pop\n      swap2\n      pop\n      swap2\n      pop\n      swap2\n      pop\n        /* \"TodoList.sol\":976:1196  function getTask(uint256 taskId) external view returns (string memory, bool){... */\n      swap2\n      pop\n      swap2\n      jump\t// out\n        /* \"TodoList.sol\":769:967  function autoUpdateTaskStatus(uint256 taskId) external {... */\n    tag_21:\n        /* \"TodoList.sol\":852:853  0 */\n      0x00\n        /* \"TodoList.sol\":843:849  taskId */\n      dup2\n        /* \"TodoList.sol\":843:853  taskId > 0 */\n      gt\n        /* \"TodoList.sol\":843:877  taskId > 0 && taskId <= tasksCount */\n      dup1\n      iszero\n      tag_51\n      jumpi\n      pop\n        /* \"TodoList.sol\":867:877  tasksCount */\n      sload(0x01)\n        /* \"TodoList.sol\":857:863  taskId */\n      dup2\n        /* \"TodoList.sol\":857:877  taskId <= tasksCount */\n      gt\n      iszero\n        /* \"TodoList.sol\":843:877  taskId > 0 && taskId <= tasksCount */\n    tag_51:\n        /* \"TodoList.sol\":835:896  require(taskId > 0 && taskId <= tasksCount,\"Invalid Task Id\") */\n      tag_52\n      jumpi\n      mload(0x40)\n      0x08c379a000000000000000000000000000000000000000000000000000000000\n      dup2\n      mstore\n      0x04\n      add\n      tag_53\n      swap1\n      tag_43\n      jump\t// in\n    tag_53:\n      mload(0x40)\n      dup1\n      swap2\n      sub\n      swap1\n      revert\n    tag_52:\n        /* \"TodoList.sol\":935:940  tasks */\n      0x00\n        /* \"TodoList.sol\":935:948  tasks[taskId] */\n      dup1\n        /* \"TodoList.sol\":941:947  taskId */\n      dup3\n        /* \"TodoList.sol\":935:948  tasks[taskId] */\n      dup2\n      mstore\n      0x20\n      add\n      swap1\n      dup2\n      mstore\n      0x20\n      add\n      0x00\n      keccak256\n        /* \"TodoList.sol\":935:959  tasks[taskId].isComplete */\n      0x01\n      add\n      0x00\n      swap1\n      sload\n      swap1\n      0x0100\n      exp\n      swap1\n      div\n      0xff\n      and\n        /* \"TodoList.sol\":934:959  !tasks[taskId].isComplete */\n      iszero\n        /* \"TodoList.sol\":907:912  tasks */\n      0x00\n        /* \"TodoList.sol\":907:920  tasks[taskId] */\n      dup1\n        /* \"TodoList.sol\":913:919  taskId */\n      dup4\n        /* \"TodoList.sol\":907:920  tasks[taskId] */\n      dup2\n      mstore\n      0x20\n      add\n      swap1\n      dup2\n      mstore\n      0x20\n      add\n      0x00\n      keccak256\n        /* \"TodoList.sol\":907:931  tasks[taskId].isComplete */\n      0x01\n      add\n      0x00\n        /* \"TodoList.sol\":907:959  tasks[taskId].isComplete = !tasks[taskId].isComplete */\n      0x0100\n      exp\n      dup2\n      sload\n      dup2\n      0xff\n      mul\n      not\n      and\n      swap1\n      dup4\n      iszero\n      iszero\n      mul\n      or\n      swap1\n      sstore\n      pop\n        /* \"TodoList.sol\":769:967  function autoUpdateTaskStatus(uint256 taskId) external {... */\n      pop\n      jump\t// out\n        /* \"TodoList.sol\":572:760  function updateTaskStatus(uint256 taskId, bool status) external {... */\n    tag_25:\n        /* \"TodoList.sol\":664:665  0 */\n      0x00\n        /* \"TodoList.sol\":655:661  taskId */\n      dup3\n        /* \"TodoList.sol\":655:665  taskId > 0 */\n      gt\n        /* \"TodoList.sol\":655:689  taskId > 0 && taskId <= tasksCount */\n      dup1\n      iszero\n      tag_55\n      jumpi\n      pop\n        /* \"TodoList.sol\":679:689  tasksCount */\n      sload(0x01)\n        /* \"TodoList.sol\":669:675  taskId */\n      dup3\n        /* \"TodoList.sol\":669:689  taskId <= tasksCount */\n      gt\n      iszero\n        /* \"TodoList.sol\":655:689  taskId > 0 && taskId <= tasksCount */\n    tag_55:\n        /* \"TodoList.sol\":647:708  require(taskId > 0 && taskId <= tasksCount,\"Invalid Task Id\") */\n      tag_56\n      jumpi\n      mload(0x40)\n      0x08c379a000000000000000000000000000000000000000000000000000000000\n      dup2\n      mstore\n      0x04\n      add\n      tag_57\n      swap1\n      tag_43\n      jump\t// in\n    tag_57:\n      mload(0x40)\n      dup1\n      swap2\n      sub\n      swap1\n      revert\n    tag_56:\n        /* \"TodoList.sol\":746:752  status */\n      dup1\n        /* \"TodoList.sol\":719:724  tasks */\n      0x00\n        /* \"TodoList.sol\":719:732  tasks[taskId] */\n      dup1\n        /* \"TodoList.sol\":725:731  taskId */\n      dup5\n        /* \"TodoList.sol\":719:732  tasks[taskId] */\n      dup2\n      mstore\n      0x20\n      add\n      swap1\n      dup2\n      mstore\n      0x20\n      add\n      0x00\n      keccak256\n        /* \"TodoList.sol\":719:743  tasks[taskId].isComplete */\n      0x01\n      add\n      0x00\n        /* \"TodoList.sol\":719:752  tasks[taskId].isComplete = status */\n      0x0100\n      exp\n      dup2\n      sload\n      dup2\n      0xff\n      mul\n      not\n      and\n      swap1\n      dup4\n      iszero\n      iszero\n      mul\n      or\n      swap1\n      sstore\n      pop\n        /* \"TodoList.sol\":572:760  function updateTaskStatus(uint256 taskId, bool status) external {... */\n      pop\n      pop\n      jump\t// out\n        /* \"TodoList.sol\":163:200  mapping(uint256 => Task) public tasks */\n    tag_28:\n      mstore(0x20, 0x00)\n      dup1\n      0x00\n      mstore\n      keccak256(0x00, 0x40)\n      0x00\n      swap2\n      pop\n      swap1\n      pop\n      dup1\n      0x00\n      add\n      dup1\n      sload\n      tag_58\n      swap1\n      tag_45\n      jump\t// in\n    tag_58:\n      dup1\n      0x1f\n      add\n      0x20\n      dup1\n      swap2\n      div\n      mul\n      0x20\n      add\n      mload(0x40)\n      swap1\n      dup2\n      add\n      0x40\n      mstore\n      dup1\n      swap3\n      swap2\n      swap1\n      dup2\n      dup2\n      mstore\n      0x20\n      add\n      dup3\n      dup1\n      sload\n      tag_59\n      swap1\n      tag_45\n      jump\t// in\n    tag_59:\n      dup1\n      iszero\n      tag_60\n      jumpi\n      dup1\n      0x1f\n      lt\n      tag_61\n      jumpi\n      0x0100\n      dup1\n      dup4\n      sload\n      div\n      mul\n      dup4\n      mstore\n      swap2\n      0x20\n      add\n      swap2\n      jump(tag_60)\n    tag_61:\n      dup3\n      add\n      swap2\n      swap1\n      0x00\n      mstore\n      keccak256(0x00, 0x20)\n      swap1\n    tag_62:\n      dup2\n      sload\n      dup2\n      mstore\n      swap1\n      0x01\n      add\n      swap1\n      0x20\n      add\n      dup1\n      dup4\n      gt\n      tag_62\n      jumpi\n      dup3\n      swap1\n      sub\n      0x1f\n      and\n      dup3\n      add\n      swap2\n    tag_60:\n      pop\n      pop\n      pop\n      pop\n      pop\n      swap1\n      dup1\n      0x01\n      add\n      0x00\n      swap1\n      sload\n      swap1\n      0x0100\n      exp\n      swap1\n      div\n      0xff\n      and\n      swap1\n      pop\n      dup3\n      jump\t// out\n        /* \"TodoList.sol\":378:564  function updateTaskName(uint256 taskId, string memory name) external  {... */\n    tag_33:\n        /* \"TodoList.sol\":476:477  0 */\n      0x00\n        /* \"TodoList.sol\":467:473  taskId */\n      dup3\n        /* \"TodoList.sol\":467:477  taskId > 0 */\n      gt\n        /* \"TodoList.sol\":467:501  taskId > 0 && taskId <= tasksCount */\n      dup1\n      iszero\n      tag_64\n      jumpi\n      pop\n        /* \"TodoList.sol\":491:501  tasksCount */\n      sload(0x01)\n        /* \"TodoList.sol\":481:487  taskId */\n      dup3\n        /* \"TodoList.sol\":481:501  taskId <= tasksCount */\n      gt\n      iszero\n        /* \"TodoList.sol\":467:501  taskId > 0 && taskId <= tasksCount */\n    tag_64:\n        /* \"TodoList.sol\":459:520  require(taskId > 0 && taskId <= tasksCount,\"Invalid Task Id\") */\n      tag_65\n      jumpi\n      mload(0x40)\n      0x08c379a000000000000000000000000000000000000000000000000000000000\n      dup2\n      mstore\n      0x04\n      add\n      tag_66\n      swap1\n      tag_43\n      jump\t// in\n    tag_66:\n      mload(0x40)\n      dup1\n      swap2\n      sub\n      swap1\n      revert\n    tag_65:\n        /* \"TodoList.sol\":552:556  name */\n      dup1\n        /* \"TodoList.sol\":531:536  tasks */\n      0x00\n        /* \"TodoList.sol\":531:544  tasks[taskId] */\n      dup1\n        /* \"TodoList.sol\":537:543  taskId */\n      dup5\n        /* \"TodoList.sol\":531:544  tasks[taskId] */\n      dup2\n      mstore\n      0x20\n      add\n      swap1\n      dup2\n      mstore\n      0x20\n      add\n      0x00\n      keccak256\n        /* \"TodoList.sol\":531:549  tasks[taskId].name */\n      0x00\n      add\n        /* \"TodoList.sol\":531:556  tasks[taskId].name = name */\n      swap1\n      dup2\n      tag_67\n      swap2\n      swap1\n      tag_38\n      jump\t// in\n    tag_67:\n      pop\n        /* \"TodoList.sol\":378:564  function updateTaskName(uint256 taskId, string memory name) external  {... */\n      pop\n      pop\n      jump\t// out\n        /* \"#utility.yul\":7:82   */\n    tag_68:\n        /* \"#utility.yul\":40:46   */\n      0x00\n        /* \"#utility.yul\":73:75   */\n      0x40\n        /* \"#utility.yul\":67:76   */\n      mload\n        /* \"#utility.yul\":57:76   */\n      swap1\n      pop\n        /* \"#utility.yul\":7:82   */\n      swap1\n      jump\t// out\n        /* \"#utility.yul\":88:205   */\n    tag_69:\n        /* \"#utility.yul\":197:198   */\n      0x00\n        /* \"#utility.yul\":194:195   */\n      dup1\n        /* \"#utility.yul\":187:199   */\n      revert\n        /* \"#utility.yul\":211:328   */\n    tag_70:\n        /* \"#utility.yul\":320:321   */\n      0x00\n        /* \"#utility.yul\":317:318   */\n      dup1\n        /* \"#utility.yul\":310:322   */\n      revert\n        /* \"#utility.yul\":334:451   */\n    tag_71:\n        /* \"#utility.yul\":443:444   */\n      0x00\n        /* \"#utility.yul\":440:441   */\n      dup1\n        /* \"#utility.yul\":433:445   */\n      revert\n        /* \"#utility.yul\":457:574   */\n    tag_72:\n        /* \"#utility.yul\":566:567   */\n      0x00\n        /* \"#utility.yul\":563:564   */\n      dup1\n        /* \"#utility.yul\":556:568   */\n      revert\n        /* \"#utility.yul\":580:682   */\n    tag_73:\n        /* \"#utility.yul\":621:627   */\n      0x00\n        /* \"#utility.yul\":672:674   */\n      0x1f\n        /* \"#utility.yul\":668:675   */\n      not\n        /* \"#utility.yul\":663:665   */\n      0x1f\n        /* \"#utility.yul\":656:661   */\n      dup4\n        /* \"#utility.yul\":652:666   */\n      add\n        /* \"#utility.yul\":648:676   */\n      and\n        /* \"#utility.yul\":638:676   */\n      swap1\n      pop\n        /* \"#utility.yul\":580:682   */\n      swap2\n      swap1\n      pop\n      jump\t// out\n        /* \"#utility.yul\":688:868   */\n    tag_74:\n        /* \"#utility.yul\":736:813   */\n      0x4e487b7100000000000000000000000000000000000000000000000000000000\n        /* \"#utility.yul\":733:734   */\n      0x00\n        /* \"#utility.yul\":726:814   */\n      mstore\n        /* \"#utility.yul\":833:837   */\n      0x41\n        /* \"#utility.yul\":830:831   */\n      0x04\n        /* \"#utility.yul\":823:838   */\n      mstore\n        /* \"#utility.yul\":857:861   */\n      0x24\n        /* \"#utility.yul\":854:855   */\n      0x00\n        /* \"#utility.yul\":847:862   */\n      revert\n        /* \"#utility.yul\":874:1155   */\n    tag_75:\n        /* \"#utility.yul\":957:984   */\n      tag_120\n        /* \"#utility.yul\":979:983   */\n      dup3\n        /* \"#utility.yul\":957:984   */\n      tag_73\n      jump\t// in\n    tag_120:\n        /* \"#utility.yul\":949:955   */\n      dup2\n        /* \"#utility.yul\":945:985   */\n      add\n        /* \"#utility.yul\":1087:1093   */\n      dup2\n        /* \"#utility.yul\":1075:1085   */\n      dup2\n        /* \"#utility.yul\":1072:1094   */\n      lt\n        /* \"#utility.yul\":1051:1069   */\n      0xffffffffffffffff\n        /* \"#utility.yul\":1039:1049   */\n      dup3\n        /* \"#utility.yul\":1036:1070   */\n      gt\n        /* \"#utility.yul\":1033:1095   */\n      or\n        /* \"#utility.yul\":1030:1118   */\n      iszero\n      tag_121\n      jumpi\n        /* \"#utility.yul\":1098:1116   */\n      tag_122\n      tag_74\n      jump\t// in\n    tag_122:\n        /* \"#utility.yul\":1030:1118   */\n    tag_121:\n        /* \"#utility.yul\":1138:1148   */\n      dup1\n        /* \"#utility.yul\":1134:1136   */\n      0x40\n        /* \"#utility.yul\":1127:1149   */\n      mstore\n        /* \"#utility.yul\":917:1155   */\n      pop\n        /* \"#utility.yul\":874:1155   */\n      pop\n      pop\n      jump\t// out\n        /* \"#utility.yul\":1161:1290   */\n    tag_76:\n        /* \"#utility.yul\":1195:1201   */\n      0x00\n        /* \"#utility.yul\":1222:1242   */\n      tag_124\n      tag_68\n      jump\t// in\n    tag_124:\n        /* \"#utility.yul\":1212:1242   */\n      swap1\n      pop\n        /* \"#utility.yul\":1251:1284   */\n      tag_125\n        /* \"#utility.yul\":1279:1283   */\n      dup3\n        /* \"#utility.yul\":1271:1277   */\n      dup3\n        /* \"#utility.yul\":1251:1284   */\n      tag_75\n      jump\t// in\n    tag_125:\n        /* \"#utility.yul\":1161:1290   */\n      swap2\n      swap1\n      pop\n      jump\t// out\n        /* \"#utility.yul\":1296:1604   */\n    tag_77:\n        /* \"#utility.yul\":1358:1362   */\n      0x00\n        /* \"#utility.yul\":1448:1466   */\n      0xffffffffffffffff\n        /* \"#utility.yul\":1440:1446   */\n      dup3\n        /* \"#utility.yul\":1437:1467   */\n      gt\n        /* \"#utility.yul\":1434:1490   */\n      iszero\n      tag_127\n      jumpi\n        /* \"#utility.yul\":1470:1488   */\n      tag_128\n      tag_74\n      jump\t// in\n    tag_128:\n        /* \"#utility.yul\":1434:1490   */\n    tag_127:\n        /* \"#utility.yul\":1508:1537   */\n      tag_129\n        /* \"#utility.yul\":1530:1536   */\n      dup3\n        /* \"#utility.yul\":1508:1537   */\n      tag_73\n      jump\t// in\n    tag_129:\n        /* \"#utility.yul\":1500:1537   */\n      swap1\n      pop\n        /* \"#utility.yul\":1592:1596   */\n      0x20\n        /* \"#utility.yul\":1586:1590   */\n      dup2\n        /* \"#utility.yul\":1582:1597   */\n      add\n        /* \"#utility.yul\":1574:1597   */\n      swap1\n      pop\n        /* \"#utility.yul\":1296:1604   */\n      swap2\n      swap1\n      pop\n      jump\t// out\n        /* \"#utility.yul\":1610:1758   */\n    tag_78:\n        /* \"#utility.yul\":1708:1714   */\n      dup3\n        /* \"#utility.yul\":1703:1706   */\n      dup2\n        /* \"#utility.yul\":1698:1701   */\n      dup4\n        /* \"#utility.yul\":1685:1715   */\n      calldatacopy\n        /* \"#utility.yul\":1749:1750   */\n      0x00\n        /* \"#utility.yul\":1740:1746   */\n      dup4\n        /* \"#utility.yul\":1735:1738   */\n      dup4\n        /* \"#utility.yul\":1731:1747   */\n      add\n        /* \"#utility.yul\":1724:1751   */\n      mstore\n        /* \"#utility.yul\":1610:1758   */\n      pop\n      pop\n      pop\n      jump\t// out\n        /* \"#utility.yul\":1764:2189   */\n    tag_79:\n        /* \"#utility.yul\":1842:1847   */\n      0x00\n        /* \"#utility.yul\":1867:1933   */\n      tag_132\n        /* \"#utility.yul\":1883:1932   */\n      tag_133\n        /* \"#utility.yul\":1925:1931   */\n      dup5\n        /* \"#utility.yul\":1883:1932   */\n      tag_77\n      jump\t// in\n    tag_133:\n        /* \"#utility.yul\":1867:1933   */\n      tag_76\n      jump\t// in\n    tag_132:\n        /* \"#utility.yul\":1858:1933   */\n      swap1\n      pop\n        /* \"#utility.yul\":1956:1962   */\n      dup3\n        /* \"#utility.yul\":1949:1954   */\n      dup2\n        /* \"#utility.yul\":1942:1963   */\n      mstore\n        /* \"#utility.yul\":1994:1998   */\n      0x20\n        /* \"#utility.yul\":1987:1992   */\n      dup2\n        /* \"#utility.yul\":1983:1999   */\n      add\n        /* \"#utility.yul\":2032:2035   */\n      dup5\n        /* \"#utility.yul\":2023:2029   */\n      dup5\n        /* \"#utility.yul\":2018:2021   */\n      dup5\n        /* \"#utility.yul\":2014:2030   */\n      add\n        /* \"#utility.yul\":2011:2036   */\n      gt\n        /* \"#utility.yul\":2008:2120   */\n      iszero\n      tag_134\n      jumpi\n        /* \"#utility.yul\":2039:2118   */\n      tag_135\n      tag_72\n      jump\t// in\n    tag_135:\n        /* \"#utility.yul\":2008:2120   */\n    tag_134:\n        /* \"#utility.yul\":2129:2183   */\n      tag_136\n        /* \"#utility.yul\":2176:2182   */\n      dup5\n        /* \"#utility.yul\":2171:2174   */\n      dup3\n        /* \"#utility.yul\":2166:2169   */\n      dup6\n        /* \"#utility.yul\":2129:2183   */\n      tag_78\n      jump\t// in\n    tag_136:\n        /* \"#utility.yul\":1848:2189   */\n      pop\n        /* \"#utility.yul\":1764:2189   */\n      swap4\n      swap3\n      pop\n      pop\n      pop\n      jump\t// out\n        /* \"#utility.yul\":2209:2549   */\n    tag_80:\n        /* \"#utility.yul\":2265:2270   */\n      0x00\n        /* \"#utility.yul\":2314:2317   */\n      dup3\n        /* \"#utility.yul\":2307:2311   */\n      0x1f\n        /* \"#utility.yul\":2299:2305   */\n      dup4\n        /* \"#utility.yul\":2295:2312   */\n      add\n        /* \"#utility.yul\":2291:2318   */\n      slt\n        /* \"#utility.yul\":2281:2403   */\n      tag_138\n      jumpi\n        /* \"#utility.yul\":2322:2401   */\n      tag_139\n      tag_71\n      jump\t// in\n    tag_139:\n        /* \"#utility.yul\":2281:2403   */\n    tag_138:\n        /* \"#utility.yul\":2439:2445   */\n      dup2\n        /* \"#utility.yul\":2426:2446   */\n      calldataload\n        /* \"#utility.yul\":2464:2543   */\n      tag_140\n        /* \"#utility.yul\":2539:2542   */\n      dup5\n        /* \"#utility.yul\":2531:2537   */\n      dup3\n        /* \"#utility.yul\":2524:2528   */\n      0x20\n        /* \"#utility.yul\":2516:2522   */\n      dup7\n        /* \"#utility.yul\":2512:2529   */\n      add\n        /* \"#utility.yul\":2464:2543   */\n      tag_79\n      jump\t// in\n    tag_140:\n        /* \"#utility.yul\":2455:2543   */\n      swap2\n      pop\n        /* \"#utility.yul\":2271:2549   */\n      pop\n        /* \"#utility.yul\":2209:2549   */\n      swap3\n      swap2\n      pop\n      pop\n      jump\t// out\n        /* \"#utility.yul\":2555:3064   */\n    tag_11:\n        /* \"#utility.yul\":2624:2630   */\n      0x00\n        /* \"#utility.yul\":2673:2675   */\n      0x20\n        /* \"#utility.yul\":2661:2670   */\n      dup3\n        /* \"#utility.yul\":2652:2659   */\n      dup5\n        /* \"#utility.yul\":2648:2671   */\n      sub\n        /* \"#utility.yul\":2644:2676   */\n      slt\n        /* \"#utility.yul\":2641:2760   */\n      iszero\n      tag_142\n      jumpi\n        /* \"#utility.yul\":2679:2758   */\n      tag_143\n      tag_69\n      jump\t// in\n    tag_143:\n        /* \"#utility.yul\":2641:2760   */\n    tag_142:\n        /* \"#utility.yul\":2827:2828   */\n      0x00\n        /* \"#utility.yul\":2816:2825   */\n      dup3\n        /* \"#utility.yul\":2812:2829   */\n      add\n        /* \"#utility.yul\":2799:2830   */\n      calldataload\n        /* \"#utility.yul\":2857:2875   */\n      0xffffffffffffffff\n        /* \"#utility.yul\":2849:2855   */\n      dup2\n        /* \"#utility.yul\":2846:2876   */\n      gt\n        /* \"#utility.yul\":2843:2960   */\n      iszero\n      tag_144\n      jumpi\n        /* \"#utility.yul\":2879:2958   */\n      tag_145\n      tag_70\n      jump\t// in\n    tag_145:\n        /* \"#utility.yul\":2843:2960   */\n    tag_144:\n        /* \"#utility.yul\":2984:3047   */\n      tag_146\n        /* \"#utility.yul\":3039:3046   */\n      dup5\n        /* \"#utility.yul\":3030:3036   */\n      dup3\n        /* \"#utility.yul\":3019:3028   */\n      dup6\n        /* \"#utility.yul\":3015:3037   */\n      add\n        /* \"#utility.yul\":2984:3047   */\n      tag_80\n      jump\t// in\n    tag_146:\n        /* \"#utility.yul\":2974:3047   */\n      swap2\n      pop\n        /* \"#utility.yul\":2770:3057   */\n      pop\n        /* \"#utility.yul\":2555:3064   */\n      swap3\n      swap2\n      pop\n      pop\n      jump\t// out\n        /* \"#utility.yul\":3070:3147   */\n    tag_81:\n        /* \"#utility.yul\":3107:3114   */\n      0x00\n        /* \"#utility.yul\":3136:3141   */\n      dup2\n        /* \"#utility.yul\":3125:3141   */\n      swap1\n      pop\n        /* \"#utility.yul\":3070:3147   */\n      swap2\n      swap1\n      pop\n      jump\t// out\n        /* \"#utility.yul\":3153:3275   */\n    tag_82:\n        /* \"#utility.yul\":3226:3250   */\n      tag_149\n        /* \"#utility.yul\":3244:3249   */\n      dup2\n        /* \"#utility.yul\":3226:3250   */\n      tag_81\n      jump\t// in\n    tag_149:\n        /* \"#utility.yul\":3219:3224   */\n      dup2\n        /* \"#utility.yul\":3216:3251   */\n      eq\n        /* \"#utility.yul\":3206:3269   */\n      tag_150\n      jumpi\n        /* \"#utility.yul\":3265:3266   */\n      0x00\n        /* \"#utility.yul\":3262:3263   */\n      dup1\n        /* \"#utility.yul\":3255:3267   */\n      revert\n        /* \"#utility.yul\":3206:3269   */\n    tag_150:\n        /* \"#utility.yul\":3153:3275   */\n      pop\n      jump\t// out\n        /* \"#utility.yul\":3281:3420   */\n    tag_83:\n        /* \"#utility.yul\":3327:3332   */\n      0x00\n        /* \"#utility.yul\":3365:3371   */\n      dup2\n        /* \"#utility.yul\":3352:3372   */\n      calldataload\n        /* \"#utility.yul\":3343:3372   */\n      swap1\n      pop\n        /* \"#utility.yul\":3381:3414   */\n      tag_152\n        /* \"#utility.yul\":3408:3413   */\n      dup2\n        /* \"#utility.yul\":3381:3414   */\n      tag_82\n      jump\t// in\n    tag_152:\n        /* \"#utility.yul\":3281:3420   */\n      swap3\n      swap2\n      pop\n      pop\n      jump\t// out\n        /* \"#utility.yul\":3426:3755   */\n    tag_15:\n        /* \"#utility.yul\":3485:3491   */\n      0x00\n        /* \"#utility.yul\":3534:3536   */\n      0x20\n        /* \"#utility.yul\":3522:3531   */\n      dup3\n        /* \"#utility.yul\":3513:3520   */\n      dup5\n        /* \"#utility.yul\":3509:3532   */\n      sub\n        /* \"#utility.yul\":3505:3537   */\n      slt\n        /* \"#utility.yul\":3502:3621   */\n      iszero\n      tag_154\n      jumpi\n        /* \"#utility.yul\":3540:3619   */\n      tag_155\n      tag_69\n      jump\t// in\n    tag_155:\n        /* \"#utility.yul\":3502:3621   */\n    tag_154:\n        /* \"#utility.yul\":3660:3661   */\n      0x00\n        /* \"#utility.yul\":3685:3738   */\n      tag_156\n        /* \"#utility.yul\":3730:3737   */\n      dup5\n        /* \"#utility.yul\":3721:3727   */\n      dup3\n        /* \"#utility.yul\":3710:3719   */\n      dup6\n        /* \"#utility.yul\":3706:3728   */\n      add\n        /* \"#utility.yul\":3685:3738   */\n      tag_83\n      jump\t// in\n    tag_156:\n        /* \"#utility.yul\":3675:3738   */\n      swap2\n      pop\n        /* \"#utility.yul\":3631:3748   */\n      pop\n        /* \"#utility.yul\":3426:3755   */\n      swap3\n      swap2\n      pop\n      pop\n      jump\t// out\n        /* \"#utility.yul\":3761:3860   */\n    tag_84:\n        /* \"#utility.yul\":3813:3819   */\n      0x00\n        /* \"#utility.yul\":3847:3852   */\n      dup2\n        /* \"#utility.yul\":3841:3853   */\n      mload\n        /* \"#utility.yul\":3831:3853   */\n      swap1\n      pop\n        /* \"#utility.yul\":3761:3860   */\n      swap2\n      swap1\n      pop\n      jump\t// out\n        /* \"#utility.yul\":3866:4035   */\n    tag_85:\n        /* \"#utility.yul\":3950:3961   */\n      0x00\n        /* \"#utility.yul\":3984:3990   */\n      dup3\n        /* \"#utility.yul\":3979:3982   */\n      dup3\n        /* \"#utility.yul\":3972:3991   */\n      mstore\n        /* \"#utility.yul\":4024:4028   */\n      0x20\n        /* \"#utility.yul\":4019:4022   */\n      dup3\n        /* \"#utility.yul\":4015:4029   */\n      add\n        /* \"#utility.yul\":4000:4029   */\n      swap1\n      pop\n        /* \"#utility.yul\":3866:4035   */\n      swap3\n      swap2\n      pop\n      pop\n      jump\t// out\n        /* \"#utility.yul\":4041:4180   */\n    tag_86:\n        /* \"#utility.yul\":4130:4136   */\n      dup3\n        /* \"#utility.yul\":4125:4128   */\n      dup2\n        /* \"#utility.yul\":4120:4123   */\n      dup4\n        /* \"#utility.yul\":4114:4137   */\n      mcopy\n        /* \"#utility.yul\":4171:4172   */\n      0x00\n        /* \"#utility.yul\":4162:4168   */\n      dup4\n        /* \"#utility.yul\":4157:4160   */\n      dup4\n        /* \"#utility.yul\":4153:4169   */\n      add\n        /* \"#utility.yul\":4146:4173   */\n      mstore\n        /* \"#utility.yul\":4041:4180   */\n      pop\n      pop\n      pop\n      jump\t// out\n        /* \"#utility.yul\":4186:4563   */\n    tag_87:\n        /* \"#utility.yul\":4274:4277   */\n      0x00\n        /* \"#utility.yul\":4302:4341   */\n      tag_161\n        /* \"#utility.yul\":4335:4340   */\n      dup3\n        /* \"#utility.yul\":4302:4341   */\n      tag_84\n      jump\t// in\n    tag_161:\n        /* \"#utility.yul\":4357:4428   */\n      tag_162\n        /* \"#utility.yul\":4421:4427   */\n      dup2\n        /* \"#utility.yul\":4416:4419   */\n      dup6\n        /* \"#utility.yul\":4357:4428   */\n      tag_85\n      jump\t// in\n    tag_162:\n        /* \"#utility.yul\":4350:4428   */\n      swap4\n      pop\n        /* \"#utility.yul\":4437:4502   */\n      tag_163\n        /* \"#utility.yul\":4495:4501   */\n      dup2\n        /* \"#utility.yul\":4490:4493   */\n      dup6\n        /* \"#utility.yul\":4483:4487   */\n      0x20\n        /* \"#utility.yul\":4476:4481   */\n      dup7\n        /* \"#utility.yul\":4472:4488   */\n      add\n        /* \"#utility.yul\":4437:4502   */\n      tag_86\n      jump\t// in\n    tag_163:\n        /* \"#utility.yul\":4527:4556   */\n      tag_164\n        /* \"#utility.yul\":4549:4555   */\n      dup2\n        /* \"#utility.yul\":4527:4556   */\n      tag_73\n      jump\t// in\n    tag_164:\n        /* \"#utility.yul\":4522:4525   */\n      dup5\n        /* \"#utility.yul\":4518:4557   */\n      add\n        /* \"#utility.yul\":4511:4557   */\n      swap2\n      pop\n        /* \"#utility.yul\":4278:4563   */\n      pop\n        /* \"#utility.yul\":4186:4563   */\n      swap3\n      swap2\n      pop\n      pop\n      jump\t// out\n        /* \"#utility.yul\":4569:4659   */\n    tag_88:\n        /* \"#utility.yul\":4603:4610   */\n      0x00\n        /* \"#utility.yul\":4646:4651   */\n      dup2\n        /* \"#utility.yul\":4639:4652   */\n      iszero\n        /* \"#utility.yul\":4632:4653   */\n      iszero\n        /* \"#utility.yul\":4621:4653   */\n      swap1\n      pop\n        /* \"#utility.yul\":4569:4659   */\n      swap2\n      swap1\n      pop\n      jump\t// out\n        /* \"#utility.yul\":4665:4774   */\n    tag_89:\n        /* \"#utility.yul\":4746:4767   */\n      tag_167\n        /* \"#utility.yul\":4761:4766   */\n      dup2\n        /* \"#utility.yul\":4746:4767   */\n      tag_88\n      jump\t// in\n    tag_167:\n        /* \"#utility.yul\":4741:4744   */\n      dup3\n        /* \"#utility.yul\":4734:4768   */\n      mstore\n        /* \"#utility.yul\":4665:4774   */\n      pop\n      pop\n      jump\t// out\n        /* \"#utility.yul\":4780:5191   */\n    tag_18:\n        /* \"#utility.yul\":4915:4919   */\n      0x00\n        /* \"#utility.yul\":4953:4955   */\n      0x40\n        /* \"#utility.yul\":4942:4951   */\n      dup3\n        /* \"#utility.yul\":4938:4956   */\n      add\n        /* \"#utility.yul\":4930:4956   */\n      swap1\n      pop\n        /* \"#utility.yul\":5002:5011   */\n      dup2\n        /* \"#utility.yul\":4996:5000   */\n      dup2\n        /* \"#utility.yul\":4992:5012   */\n      sub\n        /* \"#utility.yul\":4988:4989   */\n      0x00\n        /* \"#utility.yul\":4977:4986   */\n      dup4\n        /* \"#utility.yul\":4973:4990   */\n      add\n        /* \"#utility.yul\":4966:5013   */\n      mstore\n        /* \"#utility.yul\":5030:5108   */\n      tag_169\n        /* \"#utility.yul\":5103:5107   */\n      dup2\n        /* \"#utility.yul\":5094:5100   */\n      dup6\n        /* \"#utility.yul\":5030:5108   */\n      tag_87\n      jump\t// in\n    tag_169:\n        /* \"#utility.yul\":5022:5108   */\n      swap1\n      pop\n        /* \"#utility.yul\":5118:5184   */\n      tag_170\n        /* \"#utility.yul\":5180:5182   */\n      0x20\n        /* \"#utility.yul\":5169:5178   */\n      dup4\n        /* \"#utility.yul\":5165:5183   */\n      add\n        /* \"#utility.yul\":5156:5162   */\n      dup5\n        /* \"#utility.yul\":5118:5184   */\n      tag_89\n      jump\t// in\n    tag_170:\n        /* \"#utility.yul\":4780:5191   */\n      swap4\n      swap3\n      pop\n      pop\n      pop\n      jump\t// out\n        /* \"#utility.yul\":5197:5313   */\n    tag_90:\n        /* \"#utility.yul\":5267:5288   */\n      tag_172\n        /* \"#utility.yul\":5282:5287   */\n      dup2\n        /* \"#utility.yul\":5267:5288   */\n      tag_88\n      jump\t// in\n    tag_172:\n        /* \"#utility.yul\":5260:5265   */\n      dup2\n        /* \"#utility.yul\":5257:5289   */\n      eq\n        /* \"#utility.yul\":5247:5307   */\n      tag_173\n      jumpi\n        /* \"#utility.yul\":5303:5304   */\n      0x00\n        /* \"#utility.yul\":5300:5301   */\n      dup1\n        /* \"#utility.yul\":5293:5305   */\n      revert\n        /* \"#utility.yul\":5247:5307   */\n    tag_173:\n        /* \"#utility.yul\":5197:5313   */\n      pop\n      jump\t// out\n        /* \"#utility.yul\":5319:5452   */\n    tag_91:\n        /* \"#utility.yul\":5362:5367   */\n      0x00\n        /* \"#utility.yul\":5400:5406   */\n      dup2\n        /* \"#utility.yul\":5387:5407   */\n      calldataload\n        /* \"#utility.yul\":5378:5407   */\n      swap1\n      pop\n        /* \"#utility.yul\":5416:5446   */\n      tag_175\n        /* \"#utility.yul\":5440:5445   */\n      dup2\n        /* \"#utility.yul\":5416:5446   */\n      tag_90\n      jump\t// in\n    tag_175:\n        /* \"#utility.yul\":5319:5452   */\n      swap3\n      swap2\n      pop\n      pop\n      jump\t// out\n        /* \"#utility.yul\":5458:5926   */\n    tag_24:\n        /* \"#utility.yul\":5523:5529   */\n      0x00\n        /* \"#utility.yul\":5531:5537   */\n      dup1\n        /* \"#utility.yul\":5580:5582   */\n      0x40\n        /* \"#utility.yul\":5568:5577   */\n      dup4\n        /* \"#utility.yul\":5559:5566   */\n      dup6\n        /* \"#utility.yul\":5555:5578   */\n      sub\n        /* \"#utility.yul\":5551:5583   */\n      slt\n        /* \"#utility.yul\":5548:5667   */\n      iszero\n      tag_177\n      jumpi\n        /* \"#utility.yul\":5586:5665   */\n      tag_178\n      tag_69\n      jump\t// in\n    tag_178:\n        /* \"#utility.yul\":5548:5667   */\n    tag_177:\n        /* \"#utility.yul\":5706:5707   */\n      0x00\n        /* \"#utility.yul\":5731:5784   */\n      tag_179\n        /* \"#utility.yul\":5776:5783   */\n      dup6\n        /* \"#utility.yul\":5767:5773   */\n      dup3\n        /* \"#utility.yul\":5756:5765   */\n      dup7\n        /* \"#utility.yul\":5752:5774   */\n      add\n        /* \"#utility.yul\":5731:5784   */\n      tag_83\n      jump\t// in\n    tag_179:\n        /* \"#utility.yul\":5721:5784   */\n      swap3\n      pop\n        /* \"#utility.yul\":5677:5794   */\n      pop\n        /* \"#utility.yul\":5833:5835   */\n      0x20\n        /* \"#utility.yul\":5859:5909   */\n      tag_180\n        /* \"#utility.yul\":5901:5908   */\n      dup6\n        /* \"#utility.yul\":5892:5898   */\n      dup3\n        /* \"#utility.yul\":5881:5890   */\n      dup7\n        /* \"#utility.yul\":5877:5899   */\n      add\n        /* \"#utility.yul\":5859:5909   */\n      tag_91\n      jump\t// in\n    tag_180:\n        /* \"#utility.yul\":5849:5909   */\n      swap2\n      pop\n        /* \"#utility.yul\":5804:5919   */\n      pop\n        /* \"#utility.yul\":5458:5926   */\n      swap3\n      pop\n      swap3\n      swap1\n      pop\n      jump\t// out\n        /* \"#utility.yul\":5932:6586   */\n    tag_32:\n        /* \"#utility.yul\":6010:6016   */\n      0x00\n        /* \"#utility.yul\":6018:6024   */\n      dup1\n        /* \"#utility.yul\":6067:6069   */\n      0x40\n        /* \"#utility.yul\":6055:6064   */\n      dup4\n        /* \"#utility.yul\":6046:6053   */\n      dup6\n        /* \"#utility.yul\":6042:6065   */\n      sub\n        /* \"#utility.yul\":6038:6070   */\n      slt\n        /* \"#utility.yul\":6035:6154   */\n      iszero\n      tag_182\n      jumpi\n        /* \"#utility.yul\":6073:6152   */\n      tag_183\n      tag_69\n      jump\t// in\n    tag_183:\n        /* \"#utility.yul\":6035:6154   */\n    tag_182:\n        /* \"#utility.yul\":6193:6194   */\n      0x00\n        /* \"#utility.yul\":6218:6271   */\n      tag_184\n        /* \"#utility.yul\":6263:6270   */\n      dup6\n        /* \"#utility.yul\":6254:6260   */\n      dup3\n        /* \"#utility.yul\":6243:6252   */\n      dup7\n        /* \"#utility.yul\":6239:6261   */\n      add\n        /* \"#utility.yul\":6218:6271   */\n      tag_83\n      jump\t// in\n    tag_184:\n        /* \"#utility.yul\":6208:6271   */\n      swap3\n      pop\n        /* \"#utility.yul\":6164:6281   */\n      pop\n        /* \"#utility.yul\":6348:6350   */\n      0x20\n        /* \"#utility.yul\":6337:6346   */\n      dup4\n        /* \"#utility.yul\":6333:6351   */\n      add\n        /* \"#utility.yul\":6320:6352   */\n      calldataload\n        /* \"#utility.yul\":6379:6397   */\n      0xffffffffffffffff\n        /* \"#utility.yul\":6371:6377   */\n      dup2\n        /* \"#utility.yul\":6368:6398   */\n      gt\n        /* \"#utility.yul\":6365:6482   */\n      iszero\n      tag_185\n      jumpi\n        /* \"#utility.yul\":6401:6480   */\n      tag_186\n      tag_70\n      jump\t// in\n    tag_186:\n        /* \"#utility.yul\":6365:6482   */\n    tag_185:\n        /* \"#utility.yul\":6506:6569   */\n      tag_187\n        /* \"#utility.yul\":6561:6568   */\n      dup6\n        /* \"#utility.yul\":6552:6558   */\n      dup3\n        /* \"#utility.yul\":6541:6550   */\n      dup7\n        /* \"#utility.yul\":6537:6559   */\n      add\n        /* \"#utility.yul\":6506:6569   */\n      tag_80\n      jump\t// in\n    tag_187:\n        /* \"#utility.yul\":6496:6569   */\n      swap2\n      pop\n        /* \"#utility.yul\":6291:6579   */\n      pop\n        /* \"#utility.yul\":5932:6586   */\n      swap3\n      pop\n      swap3\n      swap1\n      pop\n      jump\t// out\n        /* \"#utility.yul\":6592:6772   */\n    tag_92:\n        /* \"#utility.yul\":6640:6717   */\n      0x4e487b7100000000000000000000000000000000000000000000000000000000\n        /* \"#utility.yul\":6637:6638   */\n      0x00\n        /* \"#utility.yul\":6630:6718   */\n      mstore\n        /* \"#utility.yul\":6737:6741   */\n      0x11\n        /* \"#utility.yul\":6734:6735   */\n      0x04\n        /* \"#utility.yul\":6727:6742   */\n      mstore\n        /* \"#utility.yul\":6761:6765   */\n      0x24\n        /* \"#utility.yul\":6758:6759   */\n      0x00\n        /* \"#utility.yul\":6751:6766   */\n      revert\n        /* \"#utility.yul\":6778:7011   */\n    tag_36:\n        /* \"#utility.yul\":6817:6820   */\n      0x00\n        /* \"#utility.yul\":6840:6864   */\n      tag_190\n        /* \"#utility.yul\":6858:6863   */\n      dup3\n        /* \"#utility.yul\":6840:6864   */\n      tag_81\n      jump\t// in\n    tag_190:\n        /* \"#utility.yul\":6831:6864   */\n      swap2\n      pop\n        /* \"#utility.yul\":6886:6952   */\n      0xffffffffffffffffffffffffffffffffffffffffffffffffffffffffffffffff\n        /* \"#utility.yul\":6879:6884   */\n      dup3\n        /* \"#utility.yul\":6876:6953   */\n      sub\n        /* \"#utility.yul\":6873:6976   */\n      tag_191\n      jumpi\n        /* \"#utility.yul\":6956:6974   */\n      tag_192\n      tag_92\n      jump\t// in\n    tag_192:\n        /* \"#utility.yul\":6873:6976   */\n    tag_191:\n        /* \"#utility.yul\":7003:7004   */\n      0x01\n        /* \"#utility.yul\":6996:7001   */\n      dup3\n        /* \"#utility.yul\":6992:7005   */\n      add\n        /* \"#utility.yul\":6985:7005   */\n      swap1\n      pop\n        /* \"#utility.yul\":6778:7011   */\n      swap2\n      swap1\n      pop\n      jump\t// out\n        /* \"#utility.yul\":7017:7197   */\n    tag_93:\n        /* \"#utility.yul\":7065:7142   */\n      0x4e487b7100000000000000000000000000000000000000000000000000000000\n        /* \"#utility.yul\":7062:7063   */\n      0x00\n        /* \"#utility.yul\":7055:7143   */\n      mstore\n        /* \"#utility.yul\":7162:7166   */\n      0x22\n        /* \"#utility.yul\":7159:7160   */\n      0x04\n        /* \"#utility.yul\":7152:7167   */\n      mstore\n        /* \"#utility.yul\":7186:7190   */\n      0x24\n        /* \"#utility.yul\":7183:7184   */\n      0x00\n        /* \"#utility.yul\":7176:7191   */\n      revert\n        /* \"#utility.yul\":7203:7523   */\n    tag_45:\n        /* \"#utility.yul\":7247:7253   */\n      0x00\n        /* \"#utility.yul\":7284:7285   */\n      0x02\n        /* \"#utility.yul\":7278:7282   */\n      dup3\n        /* \"#utility.yul\":7274:7286   */\n      div\n        /* \"#utility.yul\":7264:7286   */\n      swap1\n      pop\n        /* \"#utility.yul\":7331:7332   */\n      0x01\n        /* \"#utility.yul\":7325:7329   */\n      dup3\n        /* \"#utility.yul\":7321:7333   */\n      and\n        /* \"#utility.yul\":7352:7370   */\n      dup1\n        /* \"#utility.yul\":7342:7423   */\n      tag_195\n      jumpi\n        /* \"#utility.yul\":7408:7412   */\n      0x7f\n        /* \"#utility.yul\":7400:7406   */\n      dup3\n        /* \"#utility.yul\":7396:7413   */\n      and\n        /* \"#utility.yul\":7386:7413   */\n      swap2\n      pop\n        /* \"#utility.yul\":7342:7423   */\n    tag_195:\n        /* \"#utility.yul\":7470:7472   */\n      0x20\n        /* \"#utility.yul\":7462:7468   */\n      dup3\n        /* \"#utility.yul\":7459:7473   */\n      lt\n        /* \"#utility.yul\":7439:7457   */\n      dup2\n        /* \"#utility.yul\":7436:7474   */\n      sub\n        /* \"#utility.yul\":7433:7517   */\n      tag_196\n      jumpi\n        /* \"#utility.yul\":7489:7507   */\n      tag_197\n      tag_93\n      jump\t// in\n    tag_197:\n        /* \"#utility.yul\":7433:7517   */\n    tag_196:\n        /* \"#utility.yul\":7254:7523   */\n      pop\n        /* \"#utility.yul\":7203:7523   */\n      swap2\n      swap1\n      pop\n      jump\t// out\n        /* \"#utility.yul\":7529:7670   */\n    tag_94:\n        /* \"#utility.yul\":7578:7582   */\n      0x00\n        /* \"#utility.yul\":7601:7604   */\n      dup2\n        /* \"#utility.yul\":7593:7604   */\n      swap1\n      pop\n        /* \"#utility.yul\":7624:7627   */\n      dup2\n        /* \"#utility.yul\":7621:7622   */\n      0x00\n        /* \"#utility.yul\":7614:7628   */\n      mstore\n        /* \"#utility.yul\":7658:7662   */\n      0x20\n        /* \"#utility.yul\":7655:7656   */\n      0x00\n        /* \"#utility.yul\":7645:7663   */\n      keccak256\n        /* \"#utility.yul\":7637:7663   */\n      swap1\n      pop\n        /* \"#utility.yul\":7529:7670   */\n      swap2\n      swap1\n      pop\n      jump\t// out\n        /* \"#utility.yul\":7676:7769   */\n    tag_95:\n        /* \"#utility.yul\":7713:7719   */\n      0x00\n        /* \"#utility.yul\":7760:7762   */\n      0x20\n        /* \"#utility.yul\":7755:7757   */\n      0x1f\n        /* \"#utility.yul\":7748:7753   */\n      dup4\n        /* \"#utility.yul\":7744:7758   */\n      add\n        /* \"#utility.yul\":7740:7763   */\n      div\n        /* \"#utility.yul\":7730:7763   */\n      swap1\n      pop\n        /* \"#utility.yul\":7676:7769   */\n      swap2\n      swap1\n      pop\n      jump\t// out\n        /* \"#utility.yul\":7775:7882   */\n    tag_96:\n        /* \"#utility.yul\":7819:7827   */\n      0x00\n        /* \"#utility.yul\":7869:7874   */\n      dup3\n        /* \"#utility.yul\":7863:7867   */\n      dup3\n        /* \"#utility.yul\":7859:7875   */\n      shl\n        /* \"#utility.yul\":7838:7875   */\n      swap1\n      pop\n        /* \"#utility.yul\":7775:7882   */\n      swap3\n      swap2\n      pop\n      pop\n      jump\t// out\n        /* \"#utility.yul\":7888:8281   */\n    tag_97:\n        /* \"#utility.yul\":7957:7963   */\n      0x00\n        /* \"#utility.yul\":8007:8008   */\n      0x08\n        /* \"#utility.yul\":7995:8005   */\n      dup4\n        /* \"#utility.yul\":7991:8009   */\n      mul\n        /* \"#utility.yul\":8030:8127   */\n      tag_202\n        /* \"#utility.yul\":8060:8126   */\n      0xffffffffffffffffffffffffffffffffffffffffffffffffffffffffffffffff\n        /* \"#utility.yul\":8049:8058   */\n      dup3\n        /* \"#utility.yul\":8030:8127   */\n      tag_96\n      jump\t// in\n    tag_202:\n        /* \"#utility.yul\":8148:8187   */\n      tag_203\n        /* \"#utility.yul\":8178:8186   */\n      dup7\n        /* \"#utility.yul\":8167:8176   */\n      dup4\n        /* \"#utility.yul\":8148:8187   */\n      tag_96\n      jump\t// in\n    tag_203:\n        /* \"#utility.yul\":8136:8187   */\n      swap6\n      pop\n        /* \"#utility.yul\":8220:8224   */\n      dup1\n        /* \"#utility.yul\":8216:8225   */\n      not\n        /* \"#utility.yul\":8209:8214   */\n      dup5\n        /* \"#utility.yul\":8205:8226   */\n      and\n        /* \"#utility.yul\":8196:8226   */\n      swap4\n      pop\n        /* \"#utility.yul\":8269:8273   */\n      dup1\n        /* \"#utility.yul\":8259:8267   */\n      dup7\n        /* \"#utility.yul\":8255:8274   */\n      and\n        /* \"#utility.yul\":8248:8253   */\n      dup5\n        /* \"#utility.yul\":8245:8275   */\n      or\n        /* \"#utility.yul\":8235:8275   */\n      swap3\n      pop\n        /* \"#utility.yul\":7964:8281   */\n      pop\n      pop\n        /* \"#utility.yul\":7888:8281   */\n      swap4\n      swap3\n      pop\n      pop\n      pop\n      jump\t// out\n        /* \"#utility.yul\":8287:8347   */\n    tag_98:\n        /* \"#utility.yul\":8315:8318   */\n      0x00\n        /* \"#utility.yul\":8336:8341   */\n      dup2\n        /* \"#utility.yul\":8329:8341   */\n      swap1\n      pop\n        /* \"#utility.yul\":8287:8347   */\n      swap2\n      swap1\n      pop\n      jump\t// out\n        /* \"#utility.yul\":8353:8495   */\n    tag_99:\n        /* \"#utility.yul\":8403:8412   */\n      0x00\n        /* \"#utility.yul\":8436:8489   */\n      tag_206\n        /* \"#utility.yul\":8454:8488   */\n      tag_207\n        /* \"#utility.yul\":8463:8487   */\n      tag_208\n        /* \"#utility.yul\":8481:8486   */\n      dup5\n        /* \"#utility.yul\":8463:8487   */\n      tag_81\n      jump\t// in\n    tag_208:\n        /* \"#utility.yul\":8454:8488   */\n      tag_98\n      jump\t// in\n    tag_207:\n        /* \"#utility.yul\":8436:8489   */\n      tag_81\n      jump\t// in\n    tag_206:\n        /* \"#utility.yul\":8423:8489   */\n      swap1\n      pop\n        /* \"#utility.yul\":8353:8495   */\n      swap2\n      swap1\n      pop\n      jump\t// out\n        /* \"#utility.yul\":8501:8576   */\n    tag_100:\n        /* \"#utility.yul\":8544:8547   */\n      0x00\n        /* \"#utility.yul\":8565:8570   */\n      dup2\n        /* \"#utility.yul\":8558:8570   */\n      swap1\n      pop\n        /* \"#utility.yul\":8501:8576   */\n      swap2\n      swap1\n      pop\n      jump\t// out\n        /* \"#utility.yul\":8582:8851   */\n    tag_101:\n        /* \"#utility.yul\":8692:8731   */\n      tag_211\n        /* \"#utility.yul\":8723:8730   */\n      dup4\n        /* \"#utility.yul\":8692:8731   */\n      tag_99\n      jump\t// in\n    tag_211:\n        /* \"#utility.yul\":8753:8844   */\n      tag_212\n        /* \"#utility.yul\":8802:8843   */\n      tag_213\n        /* \"#utility.yul\":8826:8842   */\n      dup3\n        /* \"#utility.yul\":8802:8843   */\n      tag_100\n      jump\t// in\n    tag_213:\n        /* \"#utility.yul\":8794:8800   */\n      dup5\n        /* \"#utility.yul\":8787:8791   */\n      dup5\n        /* \"#utility.yul\":8781:8792   */\n      sload\n        /* \"#utility.yul\":8753:8844   */\n      tag_97\n      jump\t// in\n    tag_212:\n        /* \"#utility.yul\":8747:8751   */\n      dup3\n        /* \"#utility.yul\":8740:8845   */\n      sstore\n        /* \"#utility.yul\":8658:8851   */\n      pop\n        /* \"#utility.yul\":8582:8851   */\n      pop\n      pop\n      pop\n      jump\t// out\n        /* \"#utility.yul\":8857:8930   */\n    tag_102:\n        /* \"#utility.yul\":8902:8905   */\n      0x00\n        /* \"#utility.yul\":8857:8930   */\n      swap1\n      jump\t// out\n        /* \"#utility.yul\":8936:9125   */\n    tag_103:\n        /* \"#utility.yul\":9013:9045   */\n      tag_216\n      tag_102\n      jump\t// in\n    tag_216:\n        /* \"#utility.yul\":9054:9119   */\n      tag_217\n        /* \"#utility.yul\":9112:9118   */\n      dup2\n        /* \"#utility.yul\":9104:9110   */\n      dup5\n        /* \"#utility.yul\":9098:9102   */\n      dup5\n        /* \"#utility.yul\":9054:9119   */\n      tag_101\n      jump\t// in\n    tag_217:\n        /* \"#utility.yul\":8989:9125   */\n      pop\n        /* \"#utility.yul\":8936:9125   */\n      pop\n      pop\n      jump\t// out\n        /* \"#utility.yul\":9131:9317   */\n    tag_104:\n        /* \"#utility.yul\":9191:9311   */\n    tag_219:\n        /* \"#utility.yul\":9208:9211   */\n      dup2\n        /* \"#utility.yul\":9201:9206   */\n      dup2\n        /* \"#utility.yul\":9198:9212   */\n      lt\n        /* \"#utility.yul\":9191:9311   */\n      iszero\n      tag_221\n      jumpi\n        /* \"#utility.yul\":9262:9301   */\n      tag_222\n        /* \"#utility.yul\":9299:9300   */\n      0x00\n        /* \"#utility.yul\":9292:9297   */\n      dup3\n        /* \"#utility.yul\":9262:9301   */\n      tag_103\n      jump\t// in\n    tag_222:\n        /* \"#utility.yul\":9235:9236   */\n      0x01\n        /* \"#utility.yul\":9228:9233   */\n      dup2\n        /* \"#utility.yul\":9224:9237   */\n      add\n        /* \"#utility.yul\":9215:9237   */\n      swap1\n      pop\n        /* \"#utility.yul\":9191:9311   */\n      jump(tag_219)\n    tag_221:\n        /* \"#utility.yul\":9131:9317   */\n      pop\n      pop\n      jump\t// out\n        /* \"#utility.yul\":9323:9866   */\n    tag_105:\n        /* \"#utility.yul\":9424:9426   */\n      0x1f\n        /* \"#utility.yul\":9419:9422   */\n      dup3\n        /* \"#utility.yul\":9416:9427   */\n      gt\n        /* \"#utility.yul\":9413:9859   */\n      iszero\n      tag_224\n      jumpi\n        /* \"#utility.yul\":9458:9496   */\n      tag_225\n        /* \"#utility.yul\":9490:9495   */\n      dup2\n        /* \"#utility.yul\":9458:9496   */\n      tag_94\n      jump\t// in\n    tag_225:\n        /* \"#utility.yul\":9542:9571   */\n      tag_226\n        /* \"#utility.yul\":9560:9570   */\n      dup5\n        /* \"#utility.yul\":9542:9571   */\n      tag_95\n      jump\t// in\n    tag_226:\n        /* \"#utility.yul\":9532:9540   */\n      dup2\n        /* \"#utility.yul\":9528:9572   */\n      add\n        /* \"#utility.yul\":9725:9727   */\n      0x20\n        /* \"#utility.yul\":9713:9723   */\n      dup6\n        /* \"#utility.yul\":9710:9728   */\n      lt\n        /* \"#utility.yul\":9707:9756   */\n      iszero\n      tag_227\n      jumpi\n        /* \"#utility.yul\":9746:9754   */\n      dup2\n        /* \"#utility.yul\":9731:9754   */\n      swap1\n      pop\n        /* \"#utility.yul\":9707:9756   */\n    tag_227:\n        /* \"#utility.yul\":9769:9849   */\n      tag_228\n        /* \"#utility.yul\":9825:9847   */\n      tag_229\n        /* \"#utility.yul\":9843:9846   */\n      dup6\n        /* \"#utility.yul\":9825:9847   */\n      tag_95\n      jump\t// in\n    tag_229:\n        /* \"#utility.yul\":9815:9823   */\n      dup4\n        /* \"#utility.yul\":9811:9848   */\n      add\n        /* \"#utility.yul\":9798:9809   */\n      dup3\n        /* \"#utility.yul\":9769:9849   */\n      tag_104\n      jump\t// in\n    tag_228:\n        /* \"#utility.yul\":9428:9859   */\n      pop\n      pop\n        /* \"#utility.yul\":9413:9859   */\n    tag_224:\n        /* \"#utility.yul\":9323:9866   */\n      pop\n      pop\n      pop\n      jump\t// out\n        /* \"#utility.yul\":9872:9989   */\n    tag_106:\n        /* \"#utility.yul\":9926:9934   */\n      0x00\n        /* \"#utility.yul\":9976:9981   */\n      dup3\n        /* \"#utility.yul\":9970:9974   */\n      dup3\n        /* \"#utility.yul\":9966:9982   */\n      shr\n        /* \"#utility.yul\":9945:9982   */\n      swap1\n      pop\n        /* \"#utility.yul\":9872:9989   */\n      swap3\n      swap2\n      pop\n      pop\n      jump\t// out\n        /* \"#utility.yul\":9995:10164   */\n    tag_107:\n        /* \"#utility.yul\":10039:10045   */\n      0x00\n        /* \"#utility.yul\":10072:10123   */\n      tag_232\n        /* \"#utility.yul\":10120:10121   */\n      0x00\n        /* \"#utility.yul\":10116:10122   */\n      not\n        /* \"#utility.yul\":10108:10113   */\n      dup5\n        /* \"#utility.yul\":10105:10106   */\n      0x08\n        /* \"#utility.yul\":10101:10114   */\n      mul\n        /* \"#utility.yul\":10072:10123   */\n      tag_106\n      jump\t// in\n    tag_232:\n        /* \"#utility.yul\":10068:10124   */\n      not\n        /* \"#utility.yul\":10153:10157   */\n      dup1\n        /* \"#utility.yul\":10147:10151   */\n      dup4\n        /* \"#utility.yul\":10143:10158   */\n      and\n        /* \"#utility.yul\":10133:10158   */\n      swap2\n      pop\n        /* \"#utility.yul\":10046:10164   */\n      pop\n        /* \"#utility.yul\":9995:10164   */\n      swap3\n      swap2\n      pop\n      pop\n      jump\t// out\n        /* \"#utility.yul\":10169:10464   */\n    tag_108:\n        /* \"#utility.yul\":10245:10249   */\n      0x00\n        /* \"#utility.yul\":10391:10420   */\n      tag_234\n        /* \"#utility.yul\":10416:10419   */\n      dup4\n        /* \"#utility.yul\":10410:10414   */\n      dup4\n        /* \"#utility.yul\":10391:10420   */\n      tag_107\n      jump\t// in\n    tag_234:\n        /* \"#utility.yul\":10383:10420   */\n      swap2\n      pop\n        /* \"#utility.yul\":10453:10456   */\n      dup3\n        /* \"#utility.yul\":10450:10451   */\n      0x02\n        /* \"#utility.yul\":10446:10457   */\n      mul\n        /* \"#utility.yul\":10440:10444   */\n      dup3\n        /* \"#utility.yul\":10437:10458   */\n      or\n        /* \"#utility.yul\":10429:10458   */\n      swap1\n      pop\n        /* \"#utility.yul\":10169:10464   */\n      swap3\n      swap2\n      pop\n      pop\n      jump\t// out\n        /* \"#utility.yul\":10469:11864   */\n    tag_38:\n        /* \"#utility.yul\":10586:10623   */\n      tag_236\n        /* \"#utility.yul\":10619:10622   */\n      dup3\n        /* \"#utility.yul\":10586:10623   */\n      tag_84\n      jump\t// in\n    tag_236:\n        /* \"#utility.yul\":10688:10706   */\n      0xffffffffffffffff\n        /* \"#utility.yul\":10680:10686   */\n      dup2\n        /* \"#utility.yul\":10677:10707   */\n      gt\n        /* \"#utility.yul\":10674:10730   */\n      iszero\n      tag_237\n      jumpi\n        /* \"#utility.yul\":10710:10728   */\n      tag_238\n      tag_74\n      jump\t// in\n    tag_238:\n        /* \"#utility.yul\":10674:10730   */\n    tag_237:\n        /* \"#utility.yul\":10754:10792   */\n      tag_239\n        /* \"#utility.yul\":10786:10790   */\n      dup3\n        /* \"#utility.yul\":10780:10791   */\n      sload\n        /* \"#utility.yul\":10754:10792   */\n      tag_45\n      jump\t// in\n    tag_239:\n        /* \"#utility.yul\":10839:10906   */\n      tag_240\n        /* \"#utility.yul\":10899:10905   */\n      dup3\n        /* \"#utility.yul\":10891:10897   */\n      dup3\n        /* \"#utility.yul\":10885:10889   */\n      dup6\n        /* \"#utility.yul\":10839:10906   */\n      tag_105\n      jump\t// in\n    tag_240:\n        /* \"#utility.yul\":10933:10934   */\n      0x00\n        /* \"#utility.yul\":10957:10961   */\n      0x20\n        /* \"#utility.yul\":10944:10961   */\n      swap1\n      pop\n        /* \"#utility.yul\":10989:10991   */\n      0x1f\n        /* \"#utility.yul\":10981:10987   */\n      dup4\n        /* \"#utility.yul\":10978:10992   */\n      gt\n        /* \"#utility.yul\":11006:11007   */\n      0x01\n        /* \"#utility.yul\":11001:11619   */\n      dup2\n      eq\n      tag_242\n      jumpi\n        /* \"#utility.yul\":11663:11664   */\n      0x00\n        /* \"#utility.yul\":11680:11686   */\n      dup5\n        /* \"#utility.yul\":11677:11754   */\n      iszero\n      tag_243\n      jumpi\n        /* \"#utility.yul\":11729:11738   */\n      dup3\n        /* \"#utility.yul\":11724:11727   */\n      dup8\n        /* \"#utility.yul\":11720:11739   */\n      add\n        /* \"#utility.yul\":11714:11740   */\n      mload\n        /* \"#utility.yul\":11705:11740   */\n      swap1\n      pop\n        /* \"#utility.yul\":11677:11754   */\n    tag_243:\n        /* \"#utility.yul\":11780:11847   */\n      tag_244\n        /* \"#utility.yul\":11840:11846   */\n      dup6\n        /* \"#utility.yul\":11833:11838   */\n      dup3\n        /* \"#utility.yul\":11780:11847   */\n      tag_108\n      jump\t// in\n    tag_244:\n        /* \"#utility.yul\":11774:11778   */\n      dup7\n        /* \"#utility.yul\":11767:11848   */\n      sstore\n        /* \"#utility.yul\":11636:11858   */\n      pop\n        /* \"#utility.yul\":10971:11858   */\n      jump(tag_241)\n        /* \"#utility.yul\":11001:11619   */\n    tag_242:\n        /* \"#utility.yul\":11053:11057   */\n      0x1f\n        /* \"#utility.yul\":11049:11058   */\n      not\n        /* \"#utility.yul\":11041:11047   */\n      dup5\n        /* \"#utility.yul\":11037:11059   */\n      and\n        /* \"#utility.yul\":11087:11124   */\n      tag_245\n        /* \"#utility.yul\":11119:11123   */\n      dup7\n        /* \"#utility.yul\":11087:11124   */\n      tag_94\n      jump\t// in\n    tag_245:\n        /* \"#utility.yul\":11146:11147   */\n      0x00\n        /* \"#utility.yul\":11160:11368   */\n    tag_246:\n        /* \"#utility.yul\":11174:11181   */\n      dup3\n        /* \"#utility.yul\":11171:11172   */\n      dup2\n        /* \"#utility.yul\":11168:11182   */\n      lt\n        /* \"#utility.yul\":11160:11368   */\n      iszero\n      tag_248\n      jumpi\n        /* \"#utility.yul\":11253:11262   */\n      dup5\n        /* \"#utility.yul\":11248:11251   */\n      dup10\n        /* \"#utility.yul\":11244:11263   */\n      add\n        /* \"#utility.yul\":11238:11264   */\n      mload\n        /* \"#utility.yul\":11230:11236   */\n      dup3\n        /* \"#utility.yul\":11223:11265   */\n      sstore\n        /* \"#utility.yul\":11304:11305   */\n      0x01\n        /* \"#utility.yul\":11296:11302   */\n      dup3\n        /* \"#utility.yul\":11292:11306   */\n      add\n        /* \"#utility.yul\":11282:11306   */\n      swap2\n      pop\n        /* \"#utility.yul\":11351:11353   */\n      0x20\n        /* \"#utility.yul\":11340:11349   */\n      dup6\n        /* \"#utility.yul\":11336:11354   */\n      add\n        /* \"#utility.yul\":11323:11354   */\n      swap5\n      pop\n        /* \"#utility.yul\":11197:11201   */\n      0x20\n        /* \"#utility.yul\":11194:11195   */\n      dup2\n        /* \"#utility.yul\":11190:11202   */\n      add\n        /* \"#utility.yul\":11185:11202   */\n      swap1\n      pop\n        /* \"#utility.yul\":11160:11368   */\n      jump(tag_246)\n    tag_248:\n        /* \"#utility.yul\":11396:11402   */\n      dup7\n        /* \"#utility.yul\":11387:11394   */\n      dup4\n        /* \"#utility.yul\":11384:11403   */\n      lt\n        /* \"#utility.yul\":11381:11560   */\n      iszero\n      tag_249\n      jumpi\n        /* \"#utility.yul\":11454:11463   */\n      dup5\n        /* \"#utility.yul\":11449:11452   */\n      dup10\n        /* \"#utility.yul\":11445:11464   */\n      add\n        /* \"#utility.yul\":11439:11465   */\n      mload\n        /* \"#utility.yul\":11497:11545   */\n      tag_250\n        /* \"#utility.yul\":11539:11543   */\n      0x1f\n        /* \"#utility.yul\":11531:11537   */\n      dup10\n        /* \"#utility.yul\":11527:11544   */\n      and\n        /* \"#utility.yul\":11516:11525   */\n      dup3\n        /* \"#utility.yul\":11497:11545   */\n      tag_107\n      jump\t// in\n    tag_250:\n        /* \"#utility.yul\":11489:11495   */\n      dup4\n        /* \"#utility.yul\":11482:11546   */\n      sstore\n        /* \"#utility.yul\":11404:11560   */\n      pop\n        /* \"#utility.yul\":11381:11560   */\n    tag_249:\n        /* \"#utility.yul\":11606:11607   */\n      0x01\n        /* \"#utility.yul\":11602:11603   */\n      0x02\n        /* \"#utility.yul\":11594:11600   */\n      dup9\n        /* \"#utility.yul\":11590:11604   */\n      mul\n        /* \"#utility.yul\":11586:11608   */\n      add\n        /* \"#utility.yul\":11580:11584   */\n      dup9\n        /* \"#utility.yul\":11573:11609   */\n      sstore\n        /* \"#utility.yul\":11008:11619   */\n      pop\n      pop\n      pop\n        /* \"#utility.yul\":10971:11858   */\n    tag_241:\n      pop\n        /* \"#utility.yul\":10561:11864   */\n      pop\n      pop\n      pop\n        /* \"#utility.yul\":10469:11864   */\n      pop\n      pop\n      jump\t// out\n        /* \"#utility.yul\":11870:12035   */\n    tag_109:\n        /* \"#utility.yul\":12010:12027   */\n      0x496e76616c6964205461736b2049640000000000000000000000000000000000\n        /* \"#utility.yul\":12006:12007   */\n      0x00\n        /* \"#utility.yul\":11998:12004   */\n      dup3\n        /* \"#utility.yul\":11994:12008   */\n      add\n        /* \"#utility.yul\":11987:12028   */\n      mstore\n        /* \"#utility.yul\":11870:12035   */\n      pop\n      jump\t// out\n        /* \"#utility.yul\":12041:12407   */\n    tag_110:\n        /* \"#utility.yul\":12183:12186   */\n      0x00\n        /* \"#utility.yul\":12204:12271   */\n      tag_253\n        /* \"#utility.yul\":12268:12270   */\n      0x0f\n        /* \"#utility.yul\":12263:12266   */\n      dup4\n        /* \"#utility.yul\":12204:12271   */\n      tag_85\n      jump\t// in\n    tag_253:\n        /* \"#utility.yul\":12197:12271   */\n      swap2\n      pop\n        /* \"#utility.yul\":12280:12373   */\n      tag_254\n        /* \"#utility.yul\":12369:12372   */\n      dup3\n        /* \"#utility.yul\":12280:12373   */\n      tag_109\n      jump\t// in\n    tag_254:\n        /* \"#utility.yul\":12398:12400   */\n      0x20\n        /* \"#utility.yul\":12393:12396   */\n      dup3\n        /* \"#utility.yul\":12389:12401   */\n      add\n        /* \"#utility.yul\":12382:12401   */\n      swap1\n      pop\n        /* \"#utility.yul\":12041:12407   */\n      swap2\n      swap1\n      pop\n      jump\t// out\n        /* \"#utility.yul\":12413:12832   */\n    tag_43:\n        /* \"#utility.yul\":12579:12583   */\n      0x00\n        /* \"#utility.yul\":12617:12619   */\n      0x20\n        /* \"#utility.yul\":12606:12615   */\n      dup3\n        /* \"#utility.yul\":12602:12620   */\n      add\n        /* \"#utility.yul\":12594:12620   */\n      swap1\n      pop\n        /* \"#utility.yul\":12666:12675   */\n      dup2\n        /* \"#utility.yul\":12660:12664   */\n      dup2\n        /* \"#utility.yul\":12656:12676   */\n      sub\n        /* \"#utility.yul\":12652:12653   */\n      0x00\n        /* \"#utility.yul\":12641:12650   */\n      dup4\n        /* \"#utility.yul\":12637:12654   */\n      add\n        /* \"#utility.yul\":12630:12677   */\n      mstore\n        /* \"#utility.yul\":12694:12825   */\n      tag_256\n        /* \"#utility.yul\":12820:12824   */\n      dup2\n        /* \"#utility.yul\":12694:12825   */\n      tag_110\n      jump\t// in\n    tag_256:\n        /* \"#utility.yul\":12686:12825   */\n      swap1\n      pop\n        /* \"#utility.yul\":12413:12832   */\n      swap2\n      swap1\n      pop\n      jump\t// out\n\n    auxdata: 0xa2646970667358221220dc28ea332aa295834d01b4e7c0b6e4c1f4faf7cca215028f29b74ed6ebb6f54e64736f6c634300081a0033\n}\n",
				"bytecode": {
					"linkReferences": {},
					"object": "60806040525f6001553480156012575f80fd5b50610c3e806100205f395ff3fe608060405234801561000f575f80fd5b5060043610610060575f3560e01c8063111002aa146100645780631d65e77e146100805780634ff0eb90146100b15780638b3f236d146100cd5780638d977672146100e9578063a9330a151461011a575b5f80fd5b61007e60048036038101906100799190610654565b610136565b005b61009a600480360381019061009591906106ce565b6101af565b6040516100a8929190610773565b60405180910390f35b6100cb60048036038101906100c691906106ce565b6102c7565b005b6100e760048036038101906100e291906107cb565b610364565b005b61010360048036038101906100fe91906106ce565b6103e2565b604051610111929190610773565b60405180910390f35b610134600480360381019061012f9190610809565b610493565b005b60015f81548092919061014890610890565b919050555060405180604001604052808281526020015f15158152505f8060015481526020019081526020015f205f820151815f0190816101899190610ad1565b506020820151816001015f6101000a81548160ff02191690831515021790555090505050565b60605f80831180156101c357506001548311155b610202576040517f08c379a00000000000000000000000000000000000000000000000000000000081526004016101f990610bea565b60405180910390fd5b5f808481526020019081526020015f205f015f808581526020019081526020015f206001015f9054906101000a900460ff1681805461024090610904565b80601f016020809104026020016040519081016040528092919081815260200182805461026c90610904565b80156102b75780601f1061028e576101008083540402835291602001916102b7565b820191905f5260205f20905b81548152906001019060200180831161029a57829003601f168201915b5050505050915091509150915091565b5f811180156102d857506001548111155b610317576040517f08c379a000000000000000000000000000000000000000000000000000000000815260040161030e90610bea565b60405180910390fd5b5f808281526020019081526020015f206001015f9054906101000a900460ff16155f808381526020019081526020015f206001015f6101000a81548160ff02191690831515021790555050565b5f8211801561037557506001548211155b6103b4576040517f08c379a00000000000000000000000000000000000000000000000000000000081526004016103ab90610bea565b60405180910390fd5b805f808481526020019081526020015f206001015f6101000a81548160ff0219169083151502179055505050565b5f602052805f5260405f205f91509050805f01805461040090610904565b80601f016020809104026020016040519081016040528092919081815260200182805461042c90610904565b80156104775780601f1061044e57610100808354040283529160200191610477565b820191905f5260205f20905b81548152906001019060200180831161045a57829003601f168201915b505050505090806001015f9054906101000a900460ff16905082565b5f821180156104a457506001548211155b6104e3576040517f08c379a00000000000000000000000000000000000000000000000000000000081526004016104da90610bea565b60405180910390fd5b805f808481526020019081526020015f205f0190816105029190610ad1565b505050565b5f604051905090565b5f80fd5b5f80fd5b5f80fd5b5f80fd5b5f601f19601f8301169050919050565b7f4e487b71000000000000000000000000000000000000000000000000000000005f52604160045260245ffd5b61056682610520565b810181811067ffffffffffffffff8211171561058557610584610530565b5b80604052505050565b5f610597610507565b90506105a3828261055d565b919050565b5f67ffffffffffffffff8211156105c2576105c1610530565b5b6105cb82610520565b9050602081019050919050565b828183375f83830152505050565b5f6105f86105f3846105a8565b61058e565b9050828152602081018484840111156106145761061361051c565b5b61061f8482856105d8565b509392505050565b5f82601f83011261063b5761063a610518565b5b813561064b8482602086016105e6565b91505092915050565b5f6020828403121561066957610668610510565b5b5f82013567ffffffffffffffff81111561068657610685610514565b5b61069284828501610627565b91505092915050565b5f819050919050565b6106ad8161069b565b81146106b7575f80fd5b50565b5f813590506106c8816106a4565b92915050565b5f602082840312156106e3576106e2610510565b5b5f6106f0848285016106ba565b91505092915050565b5f81519050919050565b5f82825260208201905092915050565b8281835e5f83830152505050565b5f61072b826106f9565b6107358185610703565b9350610745818560208601610713565b61074e81610520565b840191505092915050565b5f8115159050919050565b61076d81610759565b82525050565b5f6040820190508181035f83015261078b8185610721565b905061079a6020830184610764565b9392505050565b6107aa81610759565b81146107b4575f80fd5b50565b5f813590506107c5816107a1565b92915050565b5f80604083850312156107e1576107e0610510565b5b5f6107ee858286016106ba565b92505060206107ff858286016107b7565b9150509250929050565b5f806040838503121561081f5761081e610510565b5b5f61082c858286016106ba565b925050602083013567ffffffffffffffff81111561084d5761084c610514565b5b61085985828601610627565b9150509250929050565b7f4e487b71000000000000000000000000000000000000000000000000000000005f52601160045260245ffd5b5f61089a8261069b565b91507fffffffffffffffffffffffffffffffffffffffffffffffffffffffffffffffff82036108cc576108cb610863565b5b600182019050919050565b7f4e487b71000000000000000000000000000000000000000000000000000000005f52602260045260245ffd5b5f600282049050600182168061091b57607f821691505b60208210810361092e5761092d6108d7565b5b50919050565b5f819050815f5260205f209050919050565b5f6020601f8301049050919050565b5f82821b905092915050565b5f600883026109907fffffffffffffffffffffffffffffffffffffffffffffffffffffffffffffffff82610955565b61099a8683610955565b95508019841693508086168417925050509392505050565b5f819050919050565b5f6109d56109d06109cb8461069b565b6109b2565b61069b565b9050919050565b5f819050919050565b6109ee836109bb565b610a026109fa826109dc565b848454610961565b825550505050565b5f90565b610a16610a0a565b610a218184846109e5565b505050565b5b81811015610a4457610a395f82610a0e565b600181019050610a27565b5050565b601f821115610a8957610a5a81610934565b610a6384610946565b81016020851015610a72578190505b610a86610a7e85610946565b830182610a26565b50505b505050565b5f82821c905092915050565b5f610aa95f1984600802610a8e565b1980831691505092915050565b5f610ac18383610a9a565b9150826002028217905092915050565b610ada826106f9565b67ffffffffffffffff811115610af357610af2610530565b5b610afd8254610904565b610b08828285610a48565b5f60209050601f831160018114610b39575f8415610b27578287015190505b610b318582610ab6565b865550610b98565b601f198416610b4786610934565b5f5b82811015610b6e57848901518255600182019150602085019450602081019050610b49565b86831015610b8b5784890151610b87601f891682610a9a565b8355505b6001600288020188555050505b505050505050565b7f496e76616c6964205461736b20496400000000000000000000000000000000005f82015250565b5f610bd4600f83610703565b9150610bdf82610ba0565b602082019050919050565b5f6020820190508181035f830152610c0181610bc8565b905091905056fea2646970667358221220dc28ea332aa295834d01b4e7c0b6e4c1f4faf7cca215028f29b74ed6ebb6f54e64736f6c634300081a0033",
					"opcodes": "PUSH1 0x80 PUSH1 0x40 MSTORE PUSH0 PUSH1 0x1 SSTORE CALLVALUE DUP1 ISZERO PUSH1 0x12 JUMPI PUSH0 DUP1 REVERT JUMPDEST POP PUSH2 0xC3E DUP1 PUSH2 0x20 PUSH0 CODECOPY PUSH0 RETURN INVALID PUSH1 0x80 PUSH1 0x40 MSTORE CALLVALUE DUP1 ISZERO PUSH2 0xF JUMPI PUSH0 DUP1 REVERT JUMPDEST POP PUSH1 0x4 CALLDATASIZE LT PUSH2 0x60 JUMPI PUSH0 CALLDATALOAD PUSH1 0xE0 SHR DUP1 PUSH4 0x111002AA EQ PUSH2 0x64 JUMPI DUP1 PUSH4 0x1D65E77E EQ PUSH2 0x80 JUMPI DUP1 PUSH4 0x4FF0EB90 EQ PUSH2 0xB1 JUMPI DUP1 PUSH4 0x8B3F236D EQ PUSH2 0xCD JUMPI DUP1 PUSH4 0x8D977672 EQ PUSH2 0xE9 JUMPI DUP1 PUSH4 0xA9330A15 EQ PUSH2 0x11A JUMPI JUMPDEST PUSH0 DUP1 REVERT JUMPDEST PUSH2 0x7E PUSH1 0x4 DUP1 CALLDATASIZE SUB DUP2 ADD SWAP1 PUSH2 0x79 SWAP2 SWAP1 PUSH2 0x654 JUMP JUMPDEST PUSH2 0x136 JUMP JUMPDEST STOP JUMPDEST PUSH2 0x9A PUSH1 0x4 DUP1 CALLDATASIZE SUB DUP2 ADD SWAP1 PUSH2 0x95 SWAP2 SWAP1 PUSH2 0x6CE JUMP JUMPDEST PUSH2 0x1AF JUMP JUMPDEST PUSH1 0x40 MLOAD PUSH2 0xA8 SWAP3 SWAP2 SWAP1 PUSH2 0x773 JUMP JUMPDEST PUSH1 0x40 MLOAD DUP1 SWAP2 SUB SWAP1 RETURN JUMPDEST PUSH2 0xCB PUSH1 0x4 DUP1 CALLDATASIZE SUB DUP2 ADD SWAP1 PUSH2 0xC6 SWAP2 SWAP1 PUSH2 0x6CE JUMP JUMPDEST PUSH2 0x2C7 JUMP JUMPDEST STOP JUMPDEST PUSH2 0xE7 PUSH1 0x4 DUP1 CALLDATASIZE SUB DUP2 ADD SWAP1 PUSH2 0xE2 SWAP2 SWAP1 PUSH2 0x7CB JUMP JUMPDEST PUSH2 0x364 JUMP JUMPDEST STOP JUMPDEST PUSH2 0x103 PUSH1 0x4 DUP1 CALLDATASIZE SUB DUP2 ADD SWAP1 PUSH2 0xFE SWAP2 SWAP1 PUSH2 0x6CE JUMP JUMPDEST PUSH2 0x3E2 JUMP JUMPDEST PUSH1 0x40 MLOAD PUSH2 0x111 SWAP3 SWAP2 SWAP1 PUSH2 0x773 JUMP JUMPDEST PUSH1 0x40 MLOAD DUP1 SWAP2 SUB SWAP1 RETURN JUMPDEST PUSH2 0x134 PUSH1 0x4 DUP1 CALLDATASIZE SUB DUP2 ADD SWAP1 PUSH2 0x12F SWAP2 SWAP1 PUSH2 0x809 JUMP JUMPDEST PUSH2 0x493 JUMP JUMPDEST STOP JUMPDEST PUSH1 0x1 PUSH0 DUP2 SLOAD DUP1 SWAP3 SWAP2 SWAP1 PUSH2 0x148 SWAP1 PUSH2 0x890 JUMP JUMPDEST SWAP2 SWAP1 POP SSTORE POP PUSH1 0x40 MLOAD DUP1 PUSH1 0x40 ADD PUSH1 0x40 MSTORE DUP1 DUP3 DUP2 MSTORE PUSH1 0x20 ADD PUSH0 ISZERO ISZERO DUP2 MSTORE POP PUSH0 DUP1 PUSH1 0x1 SLOAD DUP2 MSTORE PUSH1 0x20 ADD SWAP1 DUP2 MSTORE PUSH1 0x20 ADD PUSH0 KECCAK256 PUSH0 DUP3 ADD MLOAD DUP2 PUSH0 ADD SWAP1 DUP2 PUSH2 0x189 SWAP2 SWAP1 PUSH2 0xAD1 JUMP JUMPDEST POP PUSH1 0x20 DUP3 ADD MLOAD DUP2 PUSH1 0x1 ADD PUSH0 PUSH2 0x100 EXP DUP2 SLOAD DUP2 PUSH1 0xFF MUL NOT AND SWAP1 DUP4 ISZERO ISZERO MUL OR SWAP1 SSTORE POP SWAP1 POP POP POP JUMP JUMPDEST PUSH1 0x60 PUSH0 DUP1 DUP4 GT DUP1 ISZERO PUSH2 0x1C3 JUMPI POP PUSH1 0x1 SLOAD DUP4 GT ISZERO JUMPDEST PUSH2 0x202 JUMPI PUSH1 0x40 MLOAD PUSH32 0x8C379A000000000000000000000000000000000000000000000000000000000 DUP2 MSTORE PUSH1 0x4 ADD PUSH2 0x1F9 SWAP1 PUSH2 0xBEA JUMP JUMPDEST PUSH1 0x40 MLOAD DUP1 SWAP2 SUB SWAP1 REVERT JUMPDEST PUSH0 DUP1 DUP5 DUP2 MSTORE PUSH1 0x20 ADD SWAP1 DUP2 MSTORE PUSH1 0x20 ADD PUSH0 KECCAK256 PUSH0 ADD PUSH0 DUP1 DUP6 DUP2 MSTORE PUSH1 0x20 ADD SWAP1 DUP2 MSTORE PUSH1 0x20 ADD PUSH0 KECCAK256 PUSH1 0x1 ADD PUSH0 SWAP1 SLOAD SWAP1 PUSH2 0x100 EXP SWAP1 DIV PUSH1 0xFF AND DUP2 DUP1 SLOAD PUSH2 0x240 SWAP1 PUSH2 0x904 JUMP JUMPDEST DUP1 PUSH1 0x1F ADD PUSH1 0x20 DUP1 SWAP2 DIV MUL PUSH1 0x20 ADD PUSH1 0x40 MLOAD SWAP1 DUP2 ADD PUSH1 0x40 MSTORE DUP1 SWAP3 SWAP2 SWAP1 DUP2 DUP2 MSTORE PUSH1 0x20 ADD DUP3 DUP1 SLOAD PUSH2 0x26C SWAP1 PUSH2 0x904 JUMP JUMPDEST DUP1 ISZERO PUSH2 0x2B7 JUMPI DUP1 PUSH1 0x1F LT PUSH2 0x28E JUMPI PUSH2 0x100 DUP1 DUP4 SLOAD DIV MUL DUP4 MSTORE SWAP2 PUSH1 0x20 ADD SWAP2 PUSH2 0x2B7 JUMP JUMPDEST DUP3 ADD SWAP2 SWAP1 PUSH0 MSTORE PUSH1 0x20 PUSH0 KECCAK256 SWAP1 JUMPDEST DUP2 SLOAD DUP2 MSTORE SWAP1 PUSH1 0x1 ADD SWAP1 PUSH1 0x20 ADD DUP1 DUP4 GT PUSH2 0x29A JUMPI DUP3 SWAP1 SUB PUSH1 0x1F AND DUP3 ADD SWAP2 JUMPDEST POP POP POP POP POP SWAP2 POP SWAP2 POP SWAP2 POP SWAP2 POP SWAP2 JUMP JUMPDEST PUSH0 DUP2 GT DUP1 ISZERO PUSH2 0x2D8 JUMPI POP PUSH1 0x1 SLOAD DUP2 GT ISZERO JUMPDEST PUSH2 0x317 JUMPI PUSH1 0x40 MLOAD PUSH32 0x8C379A000000000000000000000000000000000000000000000000000000000 DUP2 MSTORE PUSH1 0x4 ADD PUSH2 0x30E SWAP1 PUSH2 0xBEA JUMP JUMPDEST PUSH1 0x40 MLOAD DUP1 SWAP2 SUB SWAP1 REVERT JUMPDEST PUSH0 DUP1 DUP3 DUP2 MSTORE PUSH1 0x20 ADD SWAP1 DUP2 MSTORE PUSH1 0x20 ADD PUSH0 KECCAK256 PUSH1 0x1 ADD PUSH0 SWAP1 SLOAD SWAP1 PUSH2 0x100 EXP SWAP1 DIV PUSH1 0xFF AND ISZERO PUSH0 DUP1 DUP4 DUP2 MSTORE PUSH1 0x20 ADD SWAP1 DUP2 MSTORE PUSH1 0x20 ADD PUSH0 KECCAK256 PUSH1 0x1 ADD PUSH0 PUSH2 0x100 EXP DUP2 SLOAD DUP2 PUSH1 0xFF MUL NOT AND SWAP1 DUP4 ISZERO ISZERO MUL OR SWAP1 SSTORE POP POP JUMP JUMPDEST PUSH0 DUP3 GT DUP1 ISZERO PUSH2 0x375 JUMPI POP PUSH1 0x1 SLOAD DUP3 GT ISZERO JUMPDEST PUSH2 0x3B4 JUMPI PUSH1 0x40 MLOAD PUSH32 0x8C379A000000000000000000000000000000000000000000000000000000000 DUP2 MSTORE PUSH1 0x4 ADD PUSH2 0x3AB SWAP1 PUSH2 0xBEA JUMP JUMPDEST PUSH1 0x40 MLOAD DUP1 SWAP2 SUB SWAP1 REVERT JUMPDEST DUP1 PUSH0 DUP1 DUP5 DUP2 MSTORE PUSH1 0x20 ADD SWAP1 DUP2 MSTORE PUSH1 0x20 ADD PUSH0 KECCAK256 PUSH1 0x1 ADD PUSH0 PUSH2 0x100 EXP DUP2 SLOAD DUP2 PUSH1 0xFF MUL NOT AND SWAP1 DUP4 ISZERO ISZERO MUL OR SWAP1 SSTORE POP POP POP JUMP JUMPDEST PUSH0 PUSH1 0x20 MSTORE DUP1 PUSH0 MSTORE PUSH1 0x40 PUSH0 KECCAK256 PUSH0 SWAP2 POP SWAP1 POP DUP1 PUSH0 ADD DUP1 SLOAD PUSH2 0x400 SWAP1 PUSH2 0x904 JUMP JUMPDEST DUP1 PUSH1 0x1F ADD PUSH1 0x20 DUP1 SWAP2 DIV MUL PUSH1 0x20 ADD PUSH1 0x40 MLOAD SWAP1 DUP2 ADD PUSH1 0x40 MSTORE DUP1 SWAP3 SWAP2 SWAP1 DUP2 DUP2 MSTORE PUSH1 0x20 ADD DUP3 DUP1 SLOAD PUSH2 0x42C SWAP1 PUSH2 0x904 JUMP JUMPDEST DUP1 ISZERO PUSH2 0x477 JUMPI DUP1 PUSH1 0x1F LT PUSH2 0x44E JUMPI PUSH2 0x100 DUP1 DUP4 SLOAD DIV MUL DUP4 MSTORE SWAP2 PUSH1 0x20 ADD SWAP2 PUSH2 0x477 JUMP JUMPDEST DUP3 ADD SWAP2 SWAP1 PUSH0 MSTORE PUSH1 0x20 PUSH0 KECCAK256 SWAP1 JUMPDEST DUP2 SLOAD DUP2 MSTORE SWAP1 PUSH1 0x1 ADD SWAP1 PUSH1 0x20 ADD DUP1 DUP4 GT PUSH2 0x45A JUMPI DUP3 SWAP1 SUB PUSH1 0x1F AND DUP3 ADD SWAP2 JUMPDEST POP POP POP POP POP SWAP1 DUP1 PUSH1 0x1 ADD PUSH0 SWAP1 SLOAD SWAP1 PUSH2 0x100 EXP SWAP1 DIV PUSH1 0xFF AND SWAP1 POP DUP3 JUMP JUMPDEST PUSH0 DUP3 GT DUP1 ISZERO PUSH2 0x4A4 JUMPI POP PUSH1 0x1 SLOAD DUP3 GT ISZERO JUMPDEST PUSH2 0x4E3 JUMPI PUSH1 0x40 MLOAD PUSH32 0x8C379A000000000000000000000000000000000000000000000000000000000 DUP2 MSTORE PUSH1 0x4 ADD PUSH2 0x4DA SWAP1 PUSH2 0xBEA JUMP JUMPDEST PUSH1 0x40 MLOAD DUP1 SWAP2 SUB SWAP1 REVERT JUMPDEST DUP1 PUSH0 DUP1 DUP5 DUP2 MSTORE PUSH1 0x20 ADD SWAP1 DUP2 MSTORE PUSH1 0x20 ADD PUSH0 KECCAK256 PUSH0 ADD SWAP1 DUP2 PUSH2 0x502 SWAP2 SWAP1 PUSH2 0xAD1 JUMP JUMPDEST POP POP POP JUMP JUMPDEST PUSH0 PUSH1 0x40 MLOAD SWAP1 POP SWAP1 JUMP JUMPDEST PUSH0 DUP1 REVERT JUMPDEST PUSH0 DUP1 REVERT JUMPDEST PUSH0 DUP1 REVERT JUMPDEST PUSH0 DUP1 REVERT JUMPDEST PUSH0 PUSH1 0x1F NOT PUSH1 0x1F DUP4 ADD AND SWAP1 POP SWAP2 SWAP1 POP JUMP JUMPDEST PUSH32 0x4E487B7100000000000000000000000000000000000000000000000000000000 PUSH0 MSTORE PUSH1 0x41 PUSH1 0x4 MSTORE PUSH1 0x24 PUSH0 REVERT JUMPDEST PUSH2 0x566 DUP3 PUSH2 0x520 JUMP JUMPDEST DUP2 ADD DUP2 DUP2 LT PUSH8 0xFFFFFFFFFFFFFFFF DUP3 GT OR ISZERO PUSH2 0x585 JUMPI PUSH2 0x584 PUSH2 0x530 JUMP JUMPDEST JUMPDEST DUP1 PUSH1 0x40 MSTORE POP POP POP JUMP JUMPDEST PUSH0 PUSH2 0x597 PUSH2 0x507 JUMP JUMPDEST SWAP1 POP PUSH2 0x5A3 DUP3 DUP3 PUSH2 0x55D JUMP JUMPDEST SWAP2 SWAP1 POP JUMP JUMPDEST PUSH0 PUSH8 0xFFFFFFFFFFFFFFFF DUP3 GT ISZERO PUSH2 0x5C2 JUMPI PUSH2 0x5C1 PUSH2 0x530 JUMP JUMPDEST JUMPDEST PUSH2 0x5CB DUP3 PUSH2 0x520 JUMP JUMPDEST SWAP1 POP PUSH1 0x20 DUP2 ADD SWAP1 POP SWAP2 SWAP1 POP JUMP JUMPDEST DUP3 DUP2 DUP4 CALLDATACOPY PUSH0 DUP4 DUP4 ADD MSTORE POP POP POP JUMP JUMPDEST PUSH0 PUSH2 0x5F8 PUSH2 0x5F3 DUP5 PUSH2 0x5A8 JUMP JUMPDEST PUSH2 0x58E JUMP JUMPDEST SWAP1 POP DUP3 DUP2 MSTORE PUSH1 0x20 DUP2 ADD DUP5 DUP5 DUP5 ADD GT ISZERO PUSH2 0x614 JUMPI PUSH2 0x613 PUSH2 0x51C JUMP JUMPDEST JUMPDEST PUSH2 0x61F DUP5 DUP3 DUP6 PUSH2 0x5D8 JUMP JUMPDEST POP SWAP4 SWAP3 POP POP POP JUMP JUMPDEST PUSH0 DUP3 PUSH1 0x1F DUP4 ADD SLT PUSH2 0x63B JUMPI PUSH2 0x63A PUSH2 0x518 JUMP JUMPDEST JUMPDEST DUP2 CALLDATALOAD PUSH2 0x64B DUP5 DUP3 PUSH1 0x20 DUP7 ADD PUSH2 0x5E6 JUMP JUMPDEST SWAP2 POP POP SWAP3 SWAP2 POP POP JUMP JUMPDEST PUSH0 PUSH1 0x20 DUP3 DUP5 SUB SLT ISZERO PUSH2 0x669 JUMPI PUSH2 0x668 PUSH2 0x510 JUMP JUMPDEST JUMPDEST PUSH0 DUP3 ADD CALLDATALOAD PUSH8 0xFFFFFFFFFFFFFFFF DUP2 GT ISZERO PUSH2 0x686 JUMPI PUSH2 0x685 PUSH2 0x514 JUMP JUMPDEST JUMPDEST PUSH2 0x692 DUP5 DUP3 DUP6 ADD PUSH2 0x627 JUMP JUMPDEST SWAP2 POP POP SWAP3 SWAP2 POP POP JUMP JUMPDEST PUSH0 DUP2 SWAP1 POP SWAP2 SWAP1 POP JUMP JUMPDEST PUSH2 0x6AD DUP2 PUSH2 0x69B JUMP JUMPDEST DUP2 EQ PUSH2 0x6B7 JUMPI PUSH0 DUP1 REVERT JUMPDEST POP JUMP JUMPDEST PUSH0 DUP2 CALLDATALOAD SWAP1 POP PUSH2 0x6C8 DUP2 PUSH2 0x6A4 JUMP JUMPDEST SWAP3 SWAP2 POP POP JUMP JUMPDEST PUSH0 PUSH1 0x20 DUP3 DUP5 SUB SLT ISZERO PUSH2 0x6E3 JUMPI PUSH2 0x6E2 PUSH2 0x510 JUMP JUMPDEST JUMPDEST PUSH0 PUSH2 0x6F0 DUP5 DUP3 DUP6 ADD PUSH2 0x6BA JUMP JUMPDEST SWAP2 POP POP SWAP3 SWAP2 POP POP JUMP JUMPDEST PUSH0 DUP2 MLOAD SWAP1 POP SWAP2 SWAP1 POP JUMP JUMPDEST PUSH0 DUP3 DUP3 MSTORE PUSH1 0x20 DUP3 ADD SWAP1 POP SWAP3 SWAP2 POP POP JUMP JUMPDEST DUP3 DUP2 DUP4 MCOPY PUSH0 DUP4 DUP4 ADD MSTORE POP POP POP JUMP JUMPDEST PUSH0 PUSH2 0x72B DUP3 PUSH2 0x6F9 JUMP JUMPDEST PUSH2 0x735 DUP2 DUP6 PUSH2 0x703 JUMP JUMPDEST SWAP4 POP PUSH2 0x745 DUP2 DUP6 PUSH1 0x20 DUP7 ADD PUSH2 0x713 JUMP JUMPDEST PUSH2 0x74E DUP2 PUSH2 0x520 JUMP JUMPDEST DUP5 ADD SWAP2 POP POP SWAP3 SWAP2 POP POP JUMP JUMPDEST PUSH0 DUP2 ISZERO ISZERO SWAP1 POP SWAP2 SWAP1 POP JUMP JUMPDEST PUSH2 0x76D DUP2 PUSH2 0x759 JUMP JUMPDEST DUP3 MSTORE POP POP JUMP JUMPDEST PUSH0 PUSH1 0x40 DUP3 ADD SWAP1 POP DUP2 DUP2 SUB PUSH0 DUP4 ADD MSTORE PUSH2 0x78B DUP2 DUP6 PUSH2 0x721 JUMP JUMPDEST SWAP1 POP PUSH2 0x79A PUSH1 0x20 DUP4 ADD DUP5 PUSH2 0x764 JUMP JUMPDEST SWAP4 SWAP3 POP POP POP JUMP JUMPDEST PUSH2 0x7AA DUP2 PUSH2 0x759 JUMP JUMPDEST DUP2 EQ PUSH2 0x7B4 JUMPI PUSH0 DUP1 REVERT JUMPDEST POP JUMP JUMPDEST PUSH0 DUP2 CALLDATALOAD SWAP1 POP PUSH2 0x7C5 DUP2 PUSH2 0x7A1 JUMP JUMPDEST SWAP3 SWAP2 POP POP JUMP JUMPDEST PUSH0 DUP1 PUSH1 0x40 DUP4 DUP6 SUB SLT ISZERO PUSH2 0x7E1 JUMPI PUSH2 0x7E0 PUSH2 0x510 JUMP JUMPDEST JUMPDEST PUSH0 PUSH2 0x7EE DUP6 DUP3 DUP7 ADD PUSH2 0x6BA JUMP JUMPDEST SWAP3 POP POP PUSH1 0x20 PUSH2 0x7FF DUP6 DUP3 DUP7 ADD PUSH2 0x7B7 JUMP JUMPDEST SWAP2 POP POP SWAP3 POP SWAP3 SWAP1 POP JUMP JUMPDEST PUSH0 DUP1 PUSH1 0x40 DUP4 DUP6 SUB SLT ISZERO PUSH2 0x81F JUMPI PUSH2 0x81E PUSH2 0x510 JUMP JUMPDEST JUMPDEST PUSH0 PUSH2 0x82C DUP6 DUP3 DUP7 ADD PUSH2 0x6BA JUMP JUMPDEST SWAP3 POP POP PUSH1 0x20 DUP4 ADD CALLDATALOAD PUSH8 0xFFFFFFFFFFFFFFFF DUP2 GT ISZERO PUSH2 0x84D JUMPI PUSH2 0x84C PUSH2 0x514 JUMP JUMPDEST JUMPDEST PUSH2 0x859 DUP6 DUP3 DUP7 ADD PUSH2 0x627 JUMP JUMPDEST SWAP2 POP POP SWAP3 POP SWAP3 SWAP1 POP JUMP JUMPDEST PUSH32 0x4E487B7100000000000000000000000000000000000000000000000000000000 PUSH0 MSTORE PUSH1 0x11 PUSH1 0x4 MSTORE PUSH1 0x24 PUSH0 REVERT JUMPDEST PUSH0 PUSH2 0x89A DUP3 PUSH2 0x69B JUMP JUMPDEST SWAP2 POP PUSH32 0xFFFFFFFFFFFFFFFFFFFFFFFFFFFFFFFFFFFFFFFFFFFFFFFFFFFFFFFFFFFFFFFF DUP3 SUB PUSH2 0x8CC JUMPI PUSH2 0x8CB PUSH2 0x863 JUMP JUMPDEST JUMPDEST PUSH1 0x1 DUP3 ADD SWAP1 POP SWAP2 SWAP1 POP JUMP JUMPDEST PUSH32 0x4E487B7100000000000000000000000000000000000000000000000000000000 PUSH0 MSTORE PUSH1 0x22 PUSH1 0x4 MSTORE PUSH1 0x24 PUSH0 REVERT JUMPDEST PUSH0 PUSH1 0x2 DUP3 DIV SWAP1 POP PUSH1 0x1 DUP3 AND DUP1 PUSH2 0x91B JUMPI PUSH1 0x7F DUP3 AND SWAP2 POP JUMPDEST PUSH1 0x20 DUP3 LT DUP2 SUB PUSH2 0x92E JUMPI PUSH2 0x92D PUSH2 0x8D7 JUMP JUMPDEST JUMPDEST POP SWAP2 SWAP1 POP JUMP JUMPDEST PUSH0 DUP2 SWAP1 POP DUP2 PUSH0 MSTORE PUSH1 0x20 PUSH0 KECCAK256 SWAP1 POP SWAP2 SWAP1 POP JUMP JUMPDEST PUSH0 PUSH1 0x20 PUSH1 0x1F DUP4 ADD DIV SWAP1 POP SWAP2 SWAP1 POP JUMP JUMPDEST PUSH0 DUP3 DUP3 SHL SWAP1 POP SWAP3 SWAP2 POP POP JUMP JUMPDEST PUSH0 PUSH1 0x8 DUP4 MUL PUSH2 0x990 PUSH32 0xFFFFFFFFFFFFFFFFFFFFFFFFFFFFFFFFFFFFFFFFFFFFFFFFFFFFFFFFFFFFFFFF DUP3 PUSH2 0x955 JUMP JUMPDEST PUSH2 0x99A DUP7 DUP4 PUSH2 0x955 JUMP JUMPDEST SWAP6 POP DUP1 NOT DUP5 AND SWAP4 POP DUP1 DUP7 AND DUP5 OR SWAP3 POP POP POP SWAP4 SWAP3 POP POP POP JUMP JUMPDEST PUSH0 DUP2 SWAP1 POP SWAP2 SWAP1 POP JUMP JUMPDEST PUSH0 PUSH2 0x9D5 PUSH2 0x9D0 PUSH2 0x9CB DUP5 PUSH2 0x69B JUMP JUMPDEST PUSH2 0x9B2 JUMP JUMPDEST PUSH2 0x69B JUMP JUMPDEST SWAP1 POP SWAP2 SWAP1 POP JUMP JUMPDEST PUSH0 DUP2 SWAP1 POP SWAP2 SWAP1 POP JUMP JUMPDEST PUSH2 0x9EE DUP4 PUSH2 0x9BB JUMP JUMPDEST PUSH2 0xA02 PUSH2 0x9FA DUP3 PUSH2 0x9DC JUMP JUMPDEST DUP5 DUP5 SLOAD PUSH2 0x961 JUMP JUMPDEST DUP3 SSTORE POP POP POP POP JUMP JUMPDEST PUSH0 SWAP1 JUMP JUMPDEST PUSH2 0xA16 PUSH2 0xA0A JUMP JUMPDEST PUSH2 0xA21 DUP2 DUP5 DUP5 PUSH2 0x9E5 JUMP JUMPDEST POP POP POP JUMP JUMPDEST JUMPDEST DUP2 DUP2 LT ISZERO PUSH2 0xA44 JUMPI PUSH2 0xA39 PUSH0 DUP3 PUSH2 0xA0E JUMP JUMPDEST PUSH1 0x1 DUP2 ADD SWAP1 POP PUSH2 0xA27 JUMP JUMPDEST POP POP JUMP JUMPDEST PUSH1 0x1F DUP3 GT ISZERO PUSH2 0xA89 JUMPI PUSH2 0xA5A DUP2 PUSH2 0x934 JUMP JUMPDEST PUSH2 0xA63 DUP5 PUSH2 0x946 JUMP JUMPDEST DUP2 ADD PUSH1 0x20 DUP6 LT ISZERO PUSH2 0xA72 JUMPI DUP2 SWAP1 POP JUMPDEST PUSH2 0xA86 PUSH2 0xA7E DUP6 PUSH2 0x946 JUMP JUMPDEST DUP4 ADD DUP3 PUSH2 0xA26 JUMP JUMPDEST POP POP JUMPDEST POP POP POP JUMP JUMPDEST PUSH0 DUP3 DUP3 SHR SWAP1 POP SWAP3 SWAP2 POP POP JUMP JUMPDEST PUSH0 PUSH2 0xAA9 PUSH0 NOT DUP5 PUSH1 0x8 MUL PUSH2 0xA8E JUMP JUMPDEST NOT DUP1 DUP4 AND SWAP2 POP POP SWAP3 SWAP2 POP POP JUMP JUMPDEST PUSH0 PUSH2 0xAC1 DUP4 DUP4 PUSH2 0xA9A JUMP JUMPDEST SWAP2 POP DUP3 PUSH1 0x2 MUL DUP3 OR SWAP1 POP SWAP3 SWAP2 POP POP JUMP JUMPDEST PUSH2 0xADA DUP3 PUSH2 0x6F9 JUMP JUMPDEST PUSH8 0xFFFFFFFFFFFFFFFF DUP2 GT ISZERO PUSH2 0xAF3 JUMPI PUSH2 0xAF2 PUSH2 0x530 JUMP JUMPDEST JUMPDEST PUSH2 0xAFD DUP3 SLOAD PUSH2 0x904 JUMP JUMPDEST PUSH2 0xB08 DUP3 DUP3 DUP6 PUSH2 0xA48 JUMP JUMPDEST PUSH0 PUSH1 0x20 SWAP1 POP PUSH1 0x1F DUP4 GT PUSH1 0x1 DUP2 EQ PUSH2 0xB39 JUMPI PUSH0 DUP5 ISZERO PUSH2 0xB27 JUMPI DUP3 DUP8 ADD MLOAD SWAP1 POP JUMPDEST PUSH2 0xB31 DUP6 DUP3 PUSH2 0xAB6 JUMP JUMPDEST DUP7 SSTORE POP PUSH2 0xB98 JUMP JUMPDEST PUSH1 0x1F NOT DUP5 AND PUSH2 0xB47 DUP7 PUSH2 0x934 JUMP JUMPDEST PUSH0 JUMPDEST DUP3 DUP2 LT ISZERO PUSH2 0xB6E JUMPI DUP5 DUP10 ADD MLOAD DUP3 SSTORE PUSH1 0x1 DUP3 ADD SWAP2 POP PUSH1 0x20 DUP6 ADD SWAP5 POP PUSH1 0x20 DUP2 ADD SWAP1 POP PUSH2 0xB49 JUMP JUMPDEST DUP7 DUP4 LT ISZERO PUSH2 0xB8B JUMPI DUP5 DUP10 ADD MLOAD PUSH2 0xB87 PUSH1 0x1F DUP10 AND DUP3 PUSH2 0xA9A JUMP JUMPDEST DUP4 SSTORE POP JUMPDEST PUSH1 0x1 PUSH1 0x2 DUP9 MUL ADD DUP9 SSTORE POP POP POP JUMPDEST POP POP POP POP POP POP JUMP JUMPDEST PUSH32 0x496E76616C6964205461736B2049640000000000000000000000000000000000 PUSH0 DUP3 ADD MSTORE POP JUMP JUMPDEST PUSH0 PUSH2 0xBD4 PUSH1 0xF DUP4 PUSH2 0x703 JUMP JUMPDEST SWAP2 POP PUSH2 0xBDF DUP3 PUSH2 0xBA0 JUMP JUMPDEST PUSH1 0x20 DUP3 ADD SWAP1 POP SWAP2 SWAP1 POP JUMP JUMPDEST PUSH0 PUSH1 0x20 DUP3 ADD SWAP1 POP DUP2 DUP2 SUB PUSH0 DUP4 ADD MSTORE PUSH2 0xC01 DUP2 PUSH2 0xBC8 JUMP JUMPDEST SWAP1 POP SWAP2 SWAP1 POP JUMP INVALID LOG2 PUSH5 0x6970667358 0x22 SLT KECCAK256 0xDC 0x28 0xEA CALLER 0x2A LOG2 SWAP6 DUP4 0x4D ADD 0xB4 0xE7 0xC0 0xB6 0xE4 0xC1 DELEGATECALL STATICCALL 0xF7 0xCC LOG2 ISZERO MUL DUP16 0x29 0xB7 0x4E 0xD6 0xEB 0xB6 CREATE2 0x4E PUSH5 0x736F6C6343 STOP ADDMOD BYTE STOP CALLER "
				},
				"gasEstimates": {
					"creation": {
						"codeDepositCost": "626800",
						"executionCost": "5660",
						"totalCost": "632460"
					},
					"external": {
						"autoUpdateTaskStatus(uint256)": "29147",
						"createTask(string)": "infinite",
						"getTask(uint256)": "infinite",
						"tasks(uint256)": "infinite",
						"updateTaskName(uint256,string)": "infinite",
						"updateTaskStatus(uint256,bool)": "27126"
					}
				},
				"methodIdentifiers": {
					"autoUpdateTaskStatus(uint256)": "4ff0eb90",
					"createTask(string)": "111002aa",
					"getTask(uint256)": "1d65e77e",
					"tasks(uint256)": "8d977672",
					"updateTaskName(uint256,string)": "a9330a15",
					"updateTaskStatus(uint256,bool)": "8b3f236d"
				}
			},
			"storageLayout": {
				"storage": [
					{
						"astId": 11,
						"contract": "TodoList.sol:TodoList",
						"label": "tasks",
						"offset": 0,
						"slot": "0",
						"type": "t_mapping(t_uint256,t_struct(Task)6_storage)"
					},
					{
						"astId": 14,
						"contract": "TodoList.sol:TodoList",
						"label": "tasksCount",
						"offset": 0,
						"slot": "1",
						"type": "t_uint256"
					}
				],
				"types": {
					"t_bool": {
						"encoding": "inplace",
						"label": "bool",
						"numberOfBytes": "1"
					},
					"t_mapping(t_uint256,t_struct(Task)6_storage)": {
						"encoding": "mapping",
						"key": "t_uint256",
						"label": "mapping(uint256 => struct TodoList.Task)",
						"numberOfBytes": "32",
						"value": "t_struct(Task)6_storage"
					},
					"t_string_storage": {
						"encoding": "bytes",
						"label": "string",
						"numberOfBytes": "32"
					},
					"t_struct(Task)6_storage": {
						"encoding": "inplace",
						"label": "struct TodoList.Task",
						"members": [
							{
								"astId": 3,
								"contract": "TodoList.sol:TodoList",
								"label": "name",
								"offset": 0,
								"slot": "0",
								"type": "t_string_storage"
							},
							{
								"astId": 5,
								"contract": "TodoList.sol:TodoList",
								"label": "isComplete",
								"offset": 0,
								"slot": "1",
								"type": "t_bool"
							}
						],
						"numberOfBytes": "64"
					},
					"t_uint256": {
						"encoding": "inplace",
						"label": "uint256",
						"numberOfBytes": "32"
					}
				}
			},
			"userdoc": {
				"kind": "user",
				"methods": {},
				"version": 1
			}
		}
	}
}