{
	"Function.sol": {
		"FunctionTest": {
			"abi": [
				{
					"inputs": [
						{
							"internalType": "uint256",
							"name": "amount",
							"type": "uint256"
						}
					],
					"name": "accept",
					"outputs": [],
					"stateMutability": "payable",
					"type": "function"
				},
				{
					"inputs": [
						{
							"internalType": "uint256",
							"name": "a",
							"type": "uint256"
						},
						{
							"internalType": "uint256",
							"name": "b",
							"type": "uint256"
						}
					],
					"name": "calculate",
					"outputs": [
						{
							"internalType": "uint256",
							"name": "c",
							"type": "uint256"
						},
						{
							"internalType": "uint256",
							"name": "d",
							"type": "uint256"
						}
					],
					"stateMutability": "pure",
					"type": "function"
				},
				{
					"inputs": [],
					"name": "num",
					"outputs": [
						{
							"internalType": "uint256",
							"name": "",
							"type": "uint256"
						}
					],
					"stateMutability": "view",
					"type": "function"
				},
				{
					"inputs": [
						{
							"internalType": "address",
							"name": "",
							"type": "address"
						},
						{
							"internalType": "uint256",
							"name": "",
							"type": "uint256"
						}
					],
					"name": "records",
					"outputs": [
						{
							"internalType": "address",
							"name": "from",
							"type": "address"
						},
						{
							"internalType": "uint256",
							"name": "amount",
							"type": "uint256"
						}
					],
					"stateMutability": "view",
					"type": "function"
				},
				{
					"inputs": [
						{
							"internalType": "uint256",
							"name": "a",
							"type": "uint256"
						},
						{
							"internalType": "uint256",
							"name": "b",
							"type": "uint256"
						}
					],
					"name": "testExternal",
					"outputs": [
						{
							"internalType": "uint256",
							"name": "c",
							"type": "uint256"
						}
					],
					"stateMutability": "pure",
					"type": "function"
				},
				{
					"inputs": [],
					"name": "testPayable",
					"outputs": [],
					"stateMutability": "payable",
					"type": "function"
				},
				{
					"inputs": [
						{
							"internalType": "uint256",
							"name": "a",
							"type": "uint256"
						},
						{
							"internalType": "uint256",
							"name": "b",
							"type": "uint256"
						}
					],
					"name": "testPublic",
					"outputs": [
						{
							"internalType": "uint256",
							"name": "c",
							"type": "uint256"
						}
					],
					"stateMutability": "pure",
					"type": "function"
				},
				{
					"inputs": [],
					"name": "testView",
					"outputs": [
						{
							"internalType": "uint256",
							"name": "b",
							"type": "uint256"
						}
					],
					"stateMutability": "view",
					"type": "function"
				}
			],
			"devdoc": {
				"kind": "dev",
				"methods": {},
				"version": 1
			},
			"evm": {
				"assembly": "    /* \"Function.sol\":58:2015  contract FunctionTest {... */\n  mstore(0x40, 0x80)\n    /* \"Function.sol\":301:303  10 */\n  0x0a\n    /* \"Function.sol\":283:303  uint public num = 10 */\n  0x01\n  sstore\n    /* \"Function.sol\":58:2015  contract FunctionTest {... */\n  callvalue\n  dup1\n  iszero\n  tag_1\n  jumpi\n  0x00\n  dup1\n  revert\ntag_1:\n  pop\n  dataSize(sub_0)\n  dup1\n  dataOffset(sub_0)\n  0x00\n  codecopy\n  0x00\n  return\nstop\n\nsub_0: assembly {\n        /* \"Function.sol\":58:2015  contract FunctionTest {... */\n      mstore(0x40, 0x80)\n      jumpi(tag_1, lt(calldatasize, 0x04))\n      shr(0xe0, calldataload(0x00))\n      dup1\n      0x4e70b1dc\n      gt\n      tag_10\n      jumpi\n      dup1\n      0x4e70b1dc\n      eq\n      tag_6\n      jumpi\n      dup1\n      0x7ad96a75\n      eq\n      tag_7\n      jumpi\n      dup1\n      0x82a6c0ac\n      eq\n      tag_8\n      jumpi\n      dup1\n      0x8dfa4363\n      eq\n      tag_9\n      jumpi\n      jump(tag_1)\n    tag_10:\n      dup1\n      0x19b05f49\n      eq\n      tag_2\n      jumpi\n      dup1\n      0x3a785238\n      eq\n      tag_3\n      jumpi\n      dup1\n      0x3e57d55a\n      eq\n      tag_4\n      jumpi\n      dup1\n      0x4dec9b57\n      eq\n      tag_5\n      jumpi\n    tag_1:\n      0x00\n      dup1\n      revert\n        /* \"Function.sol\":1815:2004  function accept(uint amount) external payable {... */\n    tag_2:\n      tag_11\n      0x04\n      dup1\n      calldatasize\n      sub\n      dup2\n      add\n      swap1\n      tag_12\n      swap2\n      swap1\n      tag_13\n      jump\t// in\n    tag_12:\n      tag_14\n      jump\t// in\n    tag_11:\n      stop\n        /* \"Function.sol\":1444:1616  function testPayable() public payable {... */\n    tag_3:\n      tag_15\n      tag_16\n      jump\t// in\n    tag_15:\n      stop\n        /* \"Function.sol\":454:548  function testPublic(uint a, uint b) public pure returns (uint c) {... */\n    tag_4:\n      callvalue\n      dup1\n      iszero\n      tag_17\n      jumpi\n      0x00\n      dup1\n      revert\n    tag_17:\n      pop\n      tag_18\n      0x04\n      dup1\n      calldatasize\n      sub\n      dup2\n      add\n      swap1\n      tag_19\n      swap2\n      swap1\n      tag_20\n      jump\t// in\n    tag_19:\n      tag_21\n      jump\t// in\n    tag_18:\n      mload(0x40)\n      tag_22\n      swap2\n      swap1\n      tag_23\n      jump\t// in\n    tag_22:\n      mload(0x40)\n      dup1\n      swap2\n      sub\n      swap1\n      return\n        /* \"Function.sol\":1237:1315  function testView() public view returns (uint b) {... */\n    tag_5:\n      callvalue\n      dup1\n      iszero\n      tag_24\n      jumpi\n      0x00\n      dup1\n      revert\n    tag_24:\n      pop\n      tag_25\n      tag_26\n      jump\t// in\n    tag_25:\n      mload(0x40)\n      tag_27\n      swap2\n      swap1\n      tag_23\n      jump\t// in\n    tag_27:\n      mload(0x40)\n      dup1\n      swap2\n      sub\n      swap1\n      return\n        /* \"Function.sol\":283:303  uint public num = 10 */\n    tag_6:\n      callvalue\n      dup1\n      iszero\n      tag_28\n      jumpi\n      0x00\n      dup1\n      revert\n    tag_28:\n      pop\n      tag_29\n      tag_30\n      jump\t// in\n    tag_29:\n      mload(0x40)\n      tag_31\n      swap2\n      swap1\n      tag_23\n      jump\t// in\n    tag_31:\n      mload(0x40)\n      dup1\n      swap2\n      sub\n      swap1\n      return\n        /* \"Function.sol\":679:777  function testExternal(uint a, uint b) external pure returns (uint c) {... */\n    tag_7:\n      callvalue\n      dup1\n      iszero\n      tag_32\n      jumpi\n      0x00\n      dup1\n      revert\n    tag_32:\n      pop\n      tag_33\n      0x04\n      dup1\n      calldatasize\n      sub\n      dup2\n      add\n      swap1\n      tag_34\n      swap2\n      swap1\n      tag_20\n      jump\t// in\n    tag_34:\n      tag_35\n      jump\t// in\n    tag_33:\n      mload(0x40)\n      tag_36\n      swap2\n      swap1\n      tag_23\n      jump\t// in\n    tag_36:\n      mload(0x40)\n      dup1\n      swap2\n      sub\n      swap1\n      return\n        /* \"Function.sol\":198:242  mapping (address => Record[]) public records */\n    tag_8:\n      callvalue\n      dup1\n      iszero\n      tag_37\n      jumpi\n      0x00\n      dup1\n      revert\n    tag_37:\n      pop\n      tag_38\n      0x04\n      dup1\n      calldatasize\n      sub\n      dup2\n      add\n      swap1\n      tag_39\n      swap2\n      swap1\n      tag_40\n      jump\t// in\n    tag_39:\n      tag_41\n      jump\t// in\n    tag_38:\n      mload(0x40)\n      tag_42\n      swap3\n      swap2\n      swap1\n      tag_43\n      jump\t// in\n    tag_42:\n      mload(0x40)\n      dup1\n      swap2\n      sub\n      swap1\n      return\n        /* \"Function.sol\":1678:1786  function calculate(uint a, uint b) public pure returns (uint c, uint d) {... */\n    tag_9:\n      callvalue\n      dup1\n      iszero\n      tag_44\n      jumpi\n      0x00\n      dup1\n      revert\n    tag_44:\n      pop\n      tag_45\n      0x04\n      dup1\n      calldatasize\n      sub\n      dup2\n      add\n      swap1\n      tag_46\n      swap2\n      swap1\n      tag_20\n      jump\t// in\n    tag_46:\n      tag_47\n      jump\t// in\n    tag_45:\n      mload(0x40)\n      tag_48\n      swap3\n      swap2\n      swap1\n      tag_49\n      jump\t// in\n    tag_48:\n      mload(0x40)\n      dup1\n      swap2\n      sub\n      swap1\n      return\n        /* \"Function.sol\":1815:2004  function accept(uint amount) external payable {... */\n    tag_14:\n        /* \"Function.sol\":1872:1895  Record memory newRecord */\n      0x00\n        /* \"Function.sol\":1898:1940  Record({from: msg.sender, amount: amount}) */\n      mload(0x40)\n      dup1\n      0x40\n      add\n      0x40\n      mstore\n      dup1\n        /* \"Function.sol\":1912:1922  msg.sender */\n      caller\n        /* \"Function.sol\":1898:1940  Record({from: msg.sender, amount: amount}) */\n      0xffffffffffffffffffffffffffffffffffffffff\n      and\n      dup2\n      mstore\n      0x20\n      add\n        /* \"Function.sol\":1932:1938  amount */\n      dup4\n        /* \"Function.sol\":1898:1940  Record({from: msg.sender, amount: amount}) */\n      dup2\n      mstore\n      pop\n        /* \"Function.sol\":1872:1940  Record memory newRecord = Record({from: msg.sender, amount: amount}) */\n      swap1\n      pop\n        /* \"Function.sol\":1951:1958  records */\n      0x00\n        /* \"Function.sol\":1951:1970  records[msg.sender] */\n      dup1\n        /* \"Function.sol\":1959:1969  msg.sender */\n      caller\n        /* \"Function.sol\":1951:1970  records[msg.sender] */\n      0xffffffffffffffffffffffffffffffffffffffff\n      and\n      0xffffffffffffffffffffffffffffffffffffffff\n      and\n      dup2\n      mstore\n      0x20\n      add\n      swap1\n      dup2\n      mstore\n      0x20\n      add\n      0x00\n      keccak256\n        /* \"Function.sol\":1976:1985  newRecord */\n      dup2\n        /* \"Function.sol\":1951:1986  records[msg.sender].push(newRecord) */\n      swap1\n      dup1\n      0x01\n      dup2\n      sload\n      add\n      dup1\n      dup3\n      sstore\n      dup1\n      swap2\n      pop\n      pop\n      0x01\n      swap1\n      sub\n      swap1\n      0x00\n      mstore\n      keccak256(0x00, 0x20)\n      swap1\n      0x02\n      mul\n      add\n      0x00\n      swap1\n      swap2\n      swap1\n      swap2\n      swap1\n      swap2\n      pop\n      0x00\n      dup3\n      add\n      mload\n      dup2\n      0x00\n      add\n      exp(0x0100, 0x00)\n      dup2\n      sload\n      dup2\n      0xffffffffffffffffffffffffffffffffffffffff\n      mul\n      not\n      and\n      swap1\n      dup4\n      0xffffffffffffffffffffffffffffffffffffffff\n      and\n      mul\n      or\n      swap1\n      sstore\n      pop\n      0x20\n      dup3\n      add\n      mload\n      dup2\n      0x01\n      add\n      sstore\n      pop\n      pop\n        /* \"Function.sol\":1861:2004  {... */\n      pop\n        /* \"Function.sol\":1815:2004  function accept(uint amount) external payable {... */\n      pop\n      jump\t// out\n        /* \"Function.sol\":1444:1616  function testPayable() public payable {... */\n    tag_16:\n        /* \"Function.sol\":1502:1518  testPublic(1, 1) */\n      tag_53\n        /* \"Function.sol\":1513:1514  1 */\n      0x01\n        /* \"Function.sol\":1516:1517  1 */\n      dup1\n        /* \"Function.sol\":1502:1512  testPublic */\n      tag_21\n        /* \"Function.sol\":1502:1518  testPublic(1, 1) */\n      jump\t// in\n    tag_53:\n      pop\n        /* \"Function.sol\":1529:1533  this */\n      address\n        /* \"Function.sol\":1529:1546  this.testExternal */\n      0xffffffffffffffffffffffffffffffffffffffff\n      and\n      0x7ad96a75\n        /* \"Function.sol\":1547:1548  1 */\n      0x01\n        /* \"Function.sol\":1550:1551  1 */\n      dup1\n        /* \"Function.sol\":1529:1552  this.testExternal(1, 1) */\n      mload(0x40)\n      dup4\n      0xffffffff\n      and\n      0xe0\n      shl\n      dup2\n      mstore\n      0x04\n      add\n      tag_54\n      swap3\n      swap2\n      swap1\n      tag_55\n      jump\t// in\n    tag_54:\n      0x20\n      mload(0x40)\n      dup1\n      dup4\n      sub\n      dup2\n      dup7\n      gas\n      staticcall\n      iszero\n      dup1\n      iszero\n      tag_57\n      jumpi\n      returndatasize\n      0x00\n      dup1\n      returndatacopy\n      revert(0x00, returndatasize)\n    tag_57:\n      pop\n      pop\n      pop\n      pop\n      mload(0x40)\n      returndatasize\n      not(0x1f)\n      0x1f\n      dup3\n      add\n      and\n      dup3\n      add\n      dup1\n      0x40\n      mstore\n      pop\n      dup2\n      add\n      swap1\n      tag_58\n      swap2\n      swap1\n      tag_59\n      jump\t// in\n    tag_58:\n      pop\n        /* \"Function.sol\":1563:1581  testInternal(1, 1) */\n      tag_60\n        /* \"Function.sol\":1576:1577  1 */\n      0x01\n        /* \"Function.sol\":1579:1580  1 */\n      dup1\n        /* \"Function.sol\":1563:1575  testInternal */\n      tag_61\n        /* \"Function.sol\":1563:1581  testInternal(1, 1) */\n      jump\t// in\n    tag_60:\n      pop\n        /* \"Function.sol\":1592:1608  testPrivate(1,1) */\n      tag_62\n        /* \"Function.sol\":1604:1605  1 */\n      0x01\n        /* \"Function.sol\":1606:1607  1 */\n      dup1\n        /* \"Function.sol\":1592:1603  testPrivate */\n      tag_63\n        /* \"Function.sol\":1592:1608  testPrivate(1,1) */\n      jump\t// in\n    tag_62:\n      pop\n        /* \"Function.sol\":1444:1616  function testPayable() public payable {... */\n      jump\t// out\n        /* \"Function.sol\":454:548  function testPublic(uint a, uint b) public pure returns (uint c) {... */\n    tag_21:\n        /* \"Function.sol\":511:517  uint c */\n      0x00\n        /* \"Function.sol\":539:540  b */\n      dup2\n        /* \"Function.sol\":537:538  a */\n      dup4\n        /* \"Function.sol\":537:540  a+b */\n      tag_65\n      swap2\n      swap1\n      tag_66\n      jump\t// in\n    tag_65:\n        /* \"Function.sol\":530:540  return a+b */\n      swap1\n      pop\n        /* \"Function.sol\":454:548  function testPublic(uint a, uint b) public pure returns (uint c) {... */\n      swap3\n      swap2\n      pop\n      pop\n      jump\t// out\n        /* \"Function.sol\":1237:1315  function testView() public view returns (uint b) {... */\n    tag_26:\n        /* \"Function.sol\":1278:1284  uint b */\n      0x00\n        /* \"Function.sol\":1304:1307  num */\n      sload(0x01)\n        /* \"Function.sol\":1297:1307  return num */\n      swap1\n      pop\n        /* \"Function.sol\":1237:1315  function testView() public view returns (uint b) {... */\n      swap1\n      jump\t// out\n        /* \"Function.sol\":283:303  uint public num = 10 */\n    tag_30:\n      sload(0x01)\n      dup2\n      jump\t// out\n        /* \"Function.sol\":679:777  function testExternal(uint a, uint b) external pure returns (uint c) {... */\n    tag_35:\n        /* \"Function.sol\":740:746  uint c */\n      0x00\n        /* \"Function.sol\":768:769  b */\n      dup2\n        /* \"Function.sol\":766:767  a */\n      dup4\n        /* \"Function.sol\":766:769  a+b */\n      tag_69\n      swap2\n      swap1\n      tag_66\n      jump\t// in\n    tag_69:\n        /* \"Function.sol\":759:769  return a+b */\n      swap1\n      pop\n        /* \"Function.sol\":679:777  function testExternal(uint a, uint b) external pure returns (uint c) {... */\n      swap3\n      swap2\n      pop\n      pop\n      jump\t// out\n        /* \"Function.sol\":198:242  mapping (address => Record[]) public records */\n    tag_41:\n      mstore(0x20, 0x00)\n      dup2\n      0x00\n      mstore\n      keccak256(0x00, 0x40)\n      dup2\n      dup2\n      sload\n      dup2\n      lt\n      tag_70\n      jumpi\n      0x00\n      dup1\n      revert\n    tag_70:\n      swap1\n      0x00\n      mstore\n      keccak256(0x00, 0x20)\n      swap1\n      0x02\n      mul\n      add\n      0x00\n      swap2\n      pop\n      swap2\n      pop\n      pop\n      dup1\n      0x00\n      add\n      0x00\n      swap1\n      sload\n      swap1\n      0x0100\n      exp\n      swap1\n      div\n      0xffffffffffffffffffffffffffffffffffffffff\n      and\n      swap1\n      dup1\n      0x01\n      add\n      sload\n      swap1\n      pop\n      dup3\n      jump\t// out\n        /* \"Function.sol\":1678:1786  function calculate(uint a, uint b) public pure returns (uint c, uint d) {... */\n    tag_47:\n        /* \"Function.sol\":1734:1740  uint c */\n      0x00\n        /* \"Function.sol\":1742:1748  uint d */\n      dup1\n        /* \"Function.sol\":1771:1772  b */\n      dup3\n        /* \"Function.sol\":1769:1770  a */\n      dup5\n        /* \"Function.sol\":1769:1772  a+b */\n      tag_73\n      swap2\n      swap1\n      tag_66\n      jump\t// in\n    tag_73:\n        /* \"Function.sol\":1776:1777  b */\n      dup4\n        /* \"Function.sol\":1774:1775  a */\n      dup6\n        /* \"Function.sol\":1774:1777  a*b */\n      tag_74\n      swap2\n      swap1\n      tag_75\n      jump\t// in\n    tag_74:\n        /* \"Function.sol\":1761:1778  return (a+b, a*b) */\n      swap2\n      pop\n      swap2\n      pop\n        /* \"Function.sol\":1678:1786  function calculate(uint a, uint b) public pure returns (uint c, uint d) {... */\n      swap3\n      pop\n      swap3\n      swap1\n      pop\n      jump\t// out\n        /* \"Function.sol\":889:987  function testInternal(uint a, uint b) internal pure returns (uint c) {... */\n    tag_61:\n        /* \"Function.sol\":950:956  uint c */\n      0x00\n        /* \"Function.sol\":978:979  b */\n      dup2\n        /* \"Function.sol\":976:977  a */\n      dup4\n        /* \"Function.sol\":976:979  a+b */\n      tag_77\n      swap2\n      swap1\n      tag_66\n      jump\t// in\n    tag_77:\n        /* \"Function.sol\":969:979  return a+b */\n      swap1\n      pop\n        /* \"Function.sol\":889:987  function testInternal(uint a, uint b) internal pure returns (uint c) {... */\n      swap3\n      swap2\n      pop\n      pop\n      jump\t// out\n        /* \"Function.sol\":1056:1152  function testPrivate(uint a, uint b) private pure returns (uint c) {... */\n    tag_63:\n        /* \"Function.sol\":1115:1121  uint c */\n      0x00\n        /* \"Function.sol\":1143:1144  b */\n      dup2\n        /* \"Function.sol\":1141:1142  a */\n      dup4\n        /* \"Function.sol\":1141:1144  a+b */\n      tag_79\n      swap2\n      swap1\n      tag_66\n      jump\t// in\n    tag_79:\n        /* \"Function.sol\":1134:1144  return a+b */\n      swap1\n      pop\n        /* \"Function.sol\":1056:1152  function testPrivate(uint a, uint b) private pure returns (uint c) {... */\n      swap3\n      swap2\n      pop\n      pop\n      jump\t// out\n        /* \"#utility.yul\":88:205   */\n    tag_81:\n        /* \"#utility.yul\":197:198   */\n      0x00\n        /* \"#utility.yul\":194:195   */\n      dup1\n        /* \"#utility.yul\":187:199   */\n      revert\n        /* \"#utility.yul\":334:411   */\n    tag_83:\n        /* \"#utility.yul\":371:378   */\n      0x00\n        /* \"#utility.yul\":400:405   */\n      dup2\n        /* \"#utility.yul\":389:405   */\n      swap1\n      pop\n        /* \"#utility.yul\":334:411   */\n      swap2\n      swap1\n      pop\n      jump\t// out\n        /* \"#utility.yul\":417:539   */\n    tag_84:\n        /* \"#utility.yul\":490:514   */\n      tag_104\n        /* \"#utility.yul\":508:513   */\n      dup2\n        /* \"#utility.yul\":490:514   */\n      tag_83\n      jump\t// in\n    tag_104:\n        /* \"#utility.yul\":483:488   */\n      dup2\n        /* \"#utility.yul\":480:515   */\n      eq\n        /* \"#utility.yul\":470:533   */\n      tag_105\n      jumpi\n        /* \"#utility.yul\":529:530   */\n      0x00\n        /* \"#utility.yul\":526:527   */\n      dup1\n        /* \"#utility.yul\":519:531   */\n      revert\n        /* \"#utility.yul\":470:533   */\n    tag_105:\n        /* \"#utility.yul\":417:539   */\n      pop\n      jump\t// out\n        /* \"#utility.yul\":545:684   */\n    tag_85:\n        /* \"#utility.yul\":591:596   */\n      0x00\n        /* \"#utility.yul\":629:635   */\n      dup2\n        /* \"#utility.yul\":616:636   */\n      calldataload\n        /* \"#utility.yul\":607:636   */\n      swap1\n      pop\n        /* \"#utility.yul\":645:678   */\n      tag_107\n        /* \"#utility.yul\":672:677   */\n      dup2\n        /* \"#utility.yul\":645:678   */\n      tag_84\n      jump\t// in\n    tag_107:\n        /* \"#utility.yul\":545:684   */\n      swap3\n      swap2\n      pop\n      pop\n      jump\t// out\n        /* \"#utility.yul\":690:1019   */\n    tag_13:\n        /* \"#utility.yul\":749:755   */\n      0x00\n        /* \"#utility.yul\":798:800   */\n      0x20\n        /* \"#utility.yul\":786:795   */\n      dup3\n        /* \"#utility.yul\":777:784   */\n      dup5\n        /* \"#utility.yul\":773:796   */\n      sub\n        /* \"#utility.yul\":769:801   */\n      slt\n        /* \"#utility.yul\":766:885   */\n      iszero\n      tag_109\n      jumpi\n        /* \"#utility.yul\":804:883   */\n      tag_110\n      tag_81\n      jump\t// in\n    tag_110:\n        /* \"#utility.yul\":766:885   */\n    tag_109:\n        /* \"#utility.yul\":924:925   */\n      0x00\n        /* \"#utility.yul\":949:1002   */\n      tag_111\n        /* \"#utility.yul\":994:1001   */\n      dup5\n        /* \"#utility.yul\":985:991   */\n      dup3\n        /* \"#utility.yul\":974:983   */\n      dup6\n        /* \"#utility.yul\":970:992   */\n      add\n        /* \"#utility.yul\":949:1002   */\n      tag_85\n      jump\t// in\n    tag_111:\n        /* \"#utility.yul\":939:1002   */\n      swap2\n      pop\n        /* \"#utility.yul\":895:1012   */\n      pop\n        /* \"#utility.yul\":690:1019   */\n      swap3\n      swap2\n      pop\n      pop\n      jump\t// out\n        /* \"#utility.yul\":1025:1499   */\n    tag_20:\n        /* \"#utility.yul\":1093:1099   */\n      0x00\n        /* \"#utility.yul\":1101:1107   */\n      dup1\n        /* \"#utility.yul\":1150:1152   */\n      0x40\n        /* \"#utility.yul\":1138:1147   */\n      dup4\n        /* \"#utility.yul\":1129:1136   */\n      dup6\n        /* \"#utility.yul\":1125:1148   */\n      sub\n        /* \"#utility.yul\":1121:1153   */\n      slt\n        /* \"#utility.yul\":1118:1237   */\n      iszero\n      tag_113\n      jumpi\n        /* \"#utility.yul\":1156:1235   */\n      tag_114\n      tag_81\n      jump\t// in\n    tag_114:\n        /* \"#utility.yul\":1118:1237   */\n    tag_113:\n        /* \"#utility.yul\":1276:1277   */\n      0x00\n        /* \"#utility.yul\":1301:1354   */\n      tag_115\n        /* \"#utility.yul\":1346:1353   */\n      dup6\n        /* \"#utility.yul\":1337:1343   */\n      dup3\n        /* \"#utility.yul\":1326:1335   */\n      dup7\n        /* \"#utility.yul\":1322:1344   */\n      add\n        /* \"#utility.yul\":1301:1354   */\n      tag_85\n      jump\t// in\n    tag_115:\n        /* \"#utility.yul\":1291:1354   */\n      swap3\n      pop\n        /* \"#utility.yul\":1247:1364   */\n      pop\n        /* \"#utility.yul\":1403:1405   */\n      0x20\n        /* \"#utility.yul\":1429:1482   */\n      tag_116\n        /* \"#utility.yul\":1474:1481   */\n      dup6\n        /* \"#utility.yul\":1465:1471   */\n      dup3\n        /* \"#utility.yul\":1454:1463   */\n      dup7\n        /* \"#utility.yul\":1450:1472   */\n      add\n        /* \"#utility.yul\":1429:1482   */\n      tag_85\n      jump\t// in\n    tag_116:\n        /* \"#utility.yul\":1419:1482   */\n      swap2\n      pop\n        /* \"#utility.yul\":1374:1492   */\n      pop\n        /* \"#utility.yul\":1025:1499   */\n      swap3\n      pop\n      swap3\n      swap1\n      pop\n      jump\t// out\n        /* \"#utility.yul\":1505:1623   */\n    tag_86:\n        /* \"#utility.yul\":1592:1616   */\n      tag_118\n        /* \"#utility.yul\":1610:1615   */\n      dup2\n        /* \"#utility.yul\":1592:1616   */\n      tag_83\n      jump\t// in\n    tag_118:\n        /* \"#utility.yul\":1587:1590   */\n      dup3\n        /* \"#utility.yul\":1580:1617   */\n      mstore\n        /* \"#utility.yul\":1505:1623   */\n      pop\n      pop\n      jump\t// out\n        /* \"#utility.yul\":1629:1851   */\n    tag_23:\n        /* \"#utility.yul\":1722:1726   */\n      0x00\n        /* \"#utility.yul\":1760:1762   */\n      0x20\n        /* \"#utility.yul\":1749:1758   */\n      dup3\n        /* \"#utility.yul\":1745:1763   */\n      add\n        /* \"#utility.yul\":1737:1763   */\n      swap1\n      pop\n        /* \"#utility.yul\":1773:1844   */\n      tag_120\n        /* \"#utility.yul\":1841:1842   */\n      0x00\n        /* \"#utility.yul\":1830:1839   */\n      dup4\n        /* \"#utility.yul\":1826:1843   */\n      add\n        /* \"#utility.yul\":1817:1823   */\n      dup5\n        /* \"#utility.yul\":1773:1844   */\n      tag_86\n      jump\t// in\n    tag_120:\n        /* \"#utility.yul\":1629:1851   */\n      swap3\n      swap2\n      pop\n      pop\n      jump\t// out\n        /* \"#utility.yul\":1857:1983   */\n    tag_87:\n        /* \"#utility.yul\":1894:1901   */\n      0x00\n        /* \"#utility.yul\":1934:1976   */\n      0xffffffffffffffffffffffffffffffffffffffff\n        /* \"#utility.yul\":1927:1932   */\n      dup3\n        /* \"#utility.yul\":1923:1977   */\n      and\n        /* \"#utility.yul\":1912:1977   */\n      swap1\n      pop\n        /* \"#utility.yul\":1857:1983   */\n      swap2\n      swap1\n      pop\n      jump\t// out\n        /* \"#utility.yul\":1989:2085   */\n    tag_88:\n        /* \"#utility.yul\":2026:2033   */\n      0x00\n        /* \"#utility.yul\":2055:2079   */\n      tag_123\n        /* \"#utility.yul\":2073:2078   */\n      dup3\n        /* \"#utility.yul\":2055:2079   */\n      tag_87\n      jump\t// in\n    tag_123:\n        /* \"#utility.yul\":2044:2079   */\n      swap1\n      pop\n        /* \"#utility.yul\":1989:2085   */\n      swap2\n      swap1\n      pop\n      jump\t// out\n        /* \"#utility.yul\":2091:2213   */\n    tag_89:\n        /* \"#utility.yul\":2164:2188   */\n      tag_125\n        /* \"#utility.yul\":2182:2187   */\n      dup2\n        /* \"#utility.yul\":2164:2188   */\n      tag_88\n      jump\t// in\n    tag_125:\n        /* \"#utility.yul\":2157:2162   */\n      dup2\n        /* \"#utility.yul\":2154:2189   */\n      eq\n        /* \"#utility.yul\":2144:2207   */\n      tag_126\n      jumpi\n        /* \"#utility.yul\":2203:2204   */\n      0x00\n        /* \"#utility.yul\":2200:2201   */\n      dup1\n        /* \"#utility.yul\":2193:2205   */\n      revert\n        /* \"#utility.yul\":2144:2207   */\n    tag_126:\n        /* \"#utility.yul\":2091:2213   */\n      pop\n      jump\t// out\n        /* \"#utility.yul\":2219:2358   */\n    tag_90:\n        /* \"#utility.yul\":2265:2270   */\n      0x00\n        /* \"#utility.yul\":2303:2309   */\n      dup2\n        /* \"#utility.yul\":2290:2310   */\n      calldataload\n        /* \"#utility.yul\":2281:2310   */\n      swap1\n      pop\n        /* \"#utility.yul\":2319:2352   */\n      tag_128\n        /* \"#utility.yul\":2346:2351   */\n      dup2\n        /* \"#utility.yul\":2319:2352   */\n      tag_89\n      jump\t// in\n    tag_128:\n        /* \"#utility.yul\":2219:2358   */\n      swap3\n      swap2\n      pop\n      pop\n      jump\t// out\n        /* \"#utility.yul\":2364:2838   */\n    tag_40:\n        /* \"#utility.yul\":2432:2438   */\n      0x00\n        /* \"#utility.yul\":2440:2446   */\n      dup1\n        /* \"#utility.yul\":2489:2491   */\n      0x40\n        /* \"#utility.yul\":2477:2486   */\n      dup4\n        /* \"#utility.yul\":2468:2475   */\n      dup6\n        /* \"#utility.yul\":2464:2487   */\n      sub\n        /* \"#utility.yul\":2460:2492   */\n      slt\n        /* \"#utility.yul\":2457:2576   */\n      iszero\n      tag_130\n      jumpi\n        /* \"#utility.yul\":2495:2574   */\n      tag_131\n      tag_81\n      jump\t// in\n    tag_131:\n        /* \"#utility.yul\":2457:2576   */\n    tag_130:\n        /* \"#utility.yul\":2615:2616   */\n      0x00\n        /* \"#utility.yul\":2640:2693   */\n      tag_132\n        /* \"#utility.yul\":2685:2692   */\n      dup6\n        /* \"#utility.yul\":2676:2682   */\n      dup3\n        /* \"#utility.yul\":2665:2674   */\n      dup7\n        /* \"#utility.yul\":2661:2683   */\n      add\n        /* \"#utility.yul\":2640:2693   */\n      tag_90\n      jump\t// in\n    tag_132:\n        /* \"#utility.yul\":2630:2693   */\n      swap3\n      pop\n        /* \"#utility.yul\":2586:2703   */\n      pop\n        /* \"#utility.yul\":2742:2744   */\n      0x20\n        /* \"#utility.yul\":2768:2821   */\n      tag_133\n        /* \"#utility.yul\":2813:2820   */\n      dup6\n        /* \"#utility.yul\":2804:2810   */\n      dup3\n        /* \"#utility.yul\":2793:2802   */\n      dup7\n        /* \"#utility.yul\":2789:2811   */\n      add\n        /* \"#utility.yul\":2768:2821   */\n      tag_85\n      jump\t// in\n    tag_133:\n        /* \"#utility.yul\":2758:2821   */\n      swap2\n      pop\n        /* \"#utility.yul\":2713:2831   */\n      pop\n        /* \"#utility.yul\":2364:2838   */\n      swap3\n      pop\n      swap3\n      swap1\n      pop\n      jump\t// out\n        /* \"#utility.yul\":2844:2962   */\n    tag_91:\n        /* \"#utility.yul\":2931:2955   */\n      tag_135\n        /* \"#utility.yul\":2949:2954   */\n      dup2\n        /* \"#utility.yul\":2931:2955   */\n      tag_88\n      jump\t// in\n    tag_135:\n        /* \"#utility.yul\":2926:2929   */\n      dup3\n        /* \"#utility.yul\":2919:2956   */\n      mstore\n        /* \"#utility.yul\":2844:2962   */\n      pop\n      pop\n      jump\t// out\n        /* \"#utility.yul\":2968:3300   */\n    tag_43:\n        /* \"#utility.yul\":3089:3093   */\n      0x00\n        /* \"#utility.yul\":3127:3129   */\n      0x40\n        /* \"#utility.yul\":3116:3125   */\n      dup3\n        /* \"#utility.yul\":3112:3130   */\n      add\n        /* \"#utility.yul\":3104:3130   */\n      swap1\n      pop\n        /* \"#utility.yul\":3140:3211   */\n      tag_137\n        /* \"#utility.yul\":3208:3209   */\n      0x00\n        /* \"#utility.yul\":3197:3206   */\n      dup4\n        /* \"#utility.yul\":3193:3210   */\n      add\n        /* \"#utility.yul\":3184:3190   */\n      dup6\n        /* \"#utility.yul\":3140:3211   */\n      tag_91\n      jump\t// in\n    tag_137:\n        /* \"#utility.yul\":3221:3293   */\n      tag_138\n        /* \"#utility.yul\":3289:3291   */\n      0x20\n        /* \"#utility.yul\":3278:3287   */\n      dup4\n        /* \"#utility.yul\":3274:3292   */\n      add\n        /* \"#utility.yul\":3265:3271   */\n      dup5\n        /* \"#utility.yul\":3221:3293   */\n      tag_86\n      jump\t// in\n    tag_138:\n        /* \"#utility.yul\":2968:3300   */\n      swap4\n      swap3\n      pop\n      pop\n      pop\n      jump\t// out\n        /* \"#utility.yul\":3306:3638   */\n    tag_49:\n        /* \"#utility.yul\":3427:3431   */\n      0x00\n        /* \"#utility.yul\":3465:3467   */\n      0x40\n        /* \"#utility.yul\":3454:3463   */\n      dup3\n        /* \"#utility.yul\":3450:3468   */\n      add\n        /* \"#utility.yul\":3442:3468   */\n      swap1\n      pop\n        /* \"#utility.yul\":3478:3549   */\n      tag_140\n        /* \"#utility.yul\":3546:3547   */\n      0x00\n        /* \"#utility.yul\":3535:3544   */\n      dup4\n        /* \"#utility.yul\":3531:3548   */\n      add\n        /* \"#utility.yul\":3522:3528   */\n      dup6\n        /* \"#utility.yul\":3478:3549   */\n      tag_86\n      jump\t// in\n    tag_140:\n        /* \"#utility.yul\":3559:3631   */\n      tag_141\n        /* \"#utility.yul\":3627:3629   */\n      0x20\n        /* \"#utility.yul\":3616:3625   */\n      dup4\n        /* \"#utility.yul\":3612:3630   */\n      add\n        /* \"#utility.yul\":3603:3609   */\n      dup5\n        /* \"#utility.yul\":3559:3631   */\n      tag_86\n      jump\t// in\n    tag_141:\n        /* \"#utility.yul\":3306:3638   */\n      swap4\n      swap3\n      pop\n      pop\n      pop\n      jump\t// out\n        /* \"#utility.yul\":3644:3729   */\n    tag_92:\n        /* \"#utility.yul\":3689:3696   */\n      0x00\n        /* \"#utility.yul\":3718:3723   */\n      dup2\n        /* \"#utility.yul\":3707:3723   */\n      swap1\n      pop\n        /* \"#utility.yul\":3644:3729   */\n      swap2\n      swap1\n      pop\n      jump\t// out\n        /* \"#utility.yul\":3735:3795   */\n    tag_93:\n        /* \"#utility.yul\":3763:3766   */\n      0x00\n        /* \"#utility.yul\":3784:3789   */\n      dup2\n        /* \"#utility.yul\":3777:3789   */\n      swap1\n      pop\n        /* \"#utility.yul\":3735:3795   */\n      swap2\n      swap1\n      pop\n      jump\t// out\n        /* \"#utility.yul\":3801:3959   */\n    tag_94:\n        /* \"#utility.yul\":3859:3868   */\n      0x00\n        /* \"#utility.yul\":3892:3953   */\n      tag_145\n        /* \"#utility.yul\":3910:3952   */\n      tag_146\n        /* \"#utility.yul\":3919:3951   */\n      tag_147\n        /* \"#utility.yul\":3945:3950   */\n      dup5\n        /* \"#utility.yul\":3919:3951   */\n      tag_92\n      jump\t// in\n    tag_147:\n        /* \"#utility.yul\":3910:3952   */\n      tag_93\n      jump\t// in\n    tag_146:\n        /* \"#utility.yul\":3892:3953   */\n      tag_83\n      jump\t// in\n    tag_145:\n        /* \"#utility.yul\":3879:3953   */\n      swap1\n      pop\n        /* \"#utility.yul\":3801:3959   */\n      swap2\n      swap1\n      pop\n      jump\t// out\n        /* \"#utility.yul\":3965:4112   */\n    tag_95:\n        /* \"#utility.yul\":4060:4105   */\n      tag_149\n        /* \"#utility.yul\":4099:4104   */\n      dup2\n        /* \"#utility.yul\":4060:4105   */\n      tag_94\n      jump\t// in\n    tag_149:\n        /* \"#utility.yul\":4055:4058   */\n      dup3\n        /* \"#utility.yul\":4048:4106   */\n      mstore\n        /* \"#utility.yul\":3965:4112   */\n      pop\n      pop\n      jump\t// out\n        /* \"#utility.yul\":4118:4482   */\n    tag_55:\n        /* \"#utility.yul\":4255:4259   */\n      0x00\n        /* \"#utility.yul\":4293:4295   */\n      0x40\n        /* \"#utility.yul\":4282:4291   */\n      dup3\n        /* \"#utility.yul\":4278:4296   */\n      add\n        /* \"#utility.yul\":4270:4296   */\n      swap1\n      pop\n        /* \"#utility.yul\":4306:4385   */\n      tag_151\n        /* \"#utility.yul\":4382:4383   */\n      0x00\n        /* \"#utility.yul\":4371:4380   */\n      dup4\n        /* \"#utility.yul\":4367:4384   */\n      add\n        /* \"#utility.yul\":4358:4364   */\n      dup6\n        /* \"#utility.yul\":4306:4385   */\n      tag_95\n      jump\t// in\n    tag_151:\n        /* \"#utility.yul\":4395:4475   */\n      tag_152\n        /* \"#utility.yul\":4471:4473   */\n      0x20\n        /* \"#utility.yul\":4460:4469   */\n      dup4\n        /* \"#utility.yul\":4456:4474   */\n      add\n        /* \"#utility.yul\":4447:4453   */\n      dup5\n        /* \"#utility.yul\":4395:4475   */\n      tag_95\n      jump\t// in\n    tag_152:\n        /* \"#utility.yul\":4118:4482   */\n      swap4\n      swap3\n      pop\n      pop\n      pop\n      jump\t// out\n        /* \"#utility.yul\":4488:4631   */\n    tag_96:\n        /* \"#utility.yul\":4545:4550   */\n      0x00\n        /* \"#utility.yul\":4576:4582   */\n      dup2\n        /* \"#utility.yul\":4570:4583   */\n      mload\n        /* \"#utility.yul\":4561:4583   */\n      swap1\n      pop\n        /* \"#utility.yul\":4592:4625   */\n      tag_154\n        /* \"#utility.yul\":4619:4624   */\n      dup2\n        /* \"#utility.yul\":4592:4625   */\n      tag_84\n      jump\t// in\n    tag_154:\n        /* \"#utility.yul\":4488:4631   */\n      swap3\n      swap2\n      pop\n      pop\n      jump\t// out\n        /* \"#utility.yul\":4637:4988   */\n    tag_59:\n        /* \"#utility.yul\":4707:4713   */\n      0x00\n        /* \"#utility.yul\":4756:4758   */\n      0x20\n        /* \"#utility.yul\":4744:4753   */\n      dup3\n        /* \"#utility.yul\":4735:4742   */\n      dup5\n        /* \"#utility.yul\":4731:4754   */\n      sub\n        /* \"#utility.yul\":4727:4759   */\n      slt\n        /* \"#utility.yul\":4724:4843   */\n      iszero\n      tag_156\n      jumpi\n        /* \"#utility.yul\":4762:4841   */\n      tag_157\n      tag_81\n      jump\t// in\n    tag_157:\n        /* \"#utility.yul\":4724:4843   */\n    tag_156:\n        /* \"#utility.yul\":4882:4883   */\n      0x00\n        /* \"#utility.yul\":4907:4971   */\n      tag_158\n        /* \"#utility.yul\":4963:4970   */\n      dup5\n        /* \"#utility.yul\":4954:4960   */\n      dup3\n        /* \"#utility.yul\":4943:4952   */\n      dup6\n        /* \"#utility.yul\":4939:4961   */\n      add\n        /* \"#utility.yul\":4907:4971   */\n      tag_96\n      jump\t// in\n    tag_158:\n        /* \"#utility.yul\":4897:4971   */\n      swap2\n      pop\n        /* \"#utility.yul\":4853:4981   */\n      pop\n        /* \"#utility.yul\":4637:4988   */\n      swap3\n      swap2\n      pop\n      pop\n      jump\t// out\n        /* \"#utility.yul\":4994:5174   */\n    tag_97:\n        /* \"#utility.yul\":5042:5119   */\n      0x4e487b7100000000000000000000000000000000000000000000000000000000\n        /* \"#utility.yul\":5039:5040   */\n      0x00\n        /* \"#utility.yul\":5032:5120   */\n      mstore\n        /* \"#utility.yul\":5139:5143   */\n      0x11\n        /* \"#utility.yul\":5136:5137   */\n      0x04\n        /* \"#utility.yul\":5129:5144   */\n      mstore\n        /* \"#utility.yul\":5163:5167   */\n      0x24\n        /* \"#utility.yul\":5160:5161   */\n      0x00\n        /* \"#utility.yul\":5153:5168   */\n      revert\n        /* \"#utility.yul\":5180:5371   */\n    tag_66:\n        /* \"#utility.yul\":5220:5223   */\n      0x00\n        /* \"#utility.yul\":5239:5259   */\n      tag_161\n        /* \"#utility.yul\":5257:5258   */\n      dup3\n        /* \"#utility.yul\":5239:5259   */\n      tag_83\n      jump\t// in\n    tag_161:\n        /* \"#utility.yul\":5234:5259   */\n      swap2\n      pop\n        /* \"#utility.yul\":5273:5293   */\n      tag_162\n        /* \"#utility.yul\":5291:5292   */\n      dup4\n        /* \"#utility.yul\":5273:5293   */\n      tag_83\n      jump\t// in\n    tag_162:\n        /* \"#utility.yul\":5268:5293   */\n      swap3\n      pop\n        /* \"#utility.yul\":5316:5317   */\n      dup3\n        /* \"#utility.yul\":5313:5314   */\n      dup3\n        /* \"#utility.yul\":5309:5318   */\n      add\n        /* \"#utility.yul\":5302:5318   */\n      swap1\n      pop\n        /* \"#utility.yul\":5337:5340   */\n      dup1\n        /* \"#utility.yul\":5334:5335   */\n      dup3\n        /* \"#utility.yul\":5331:5341   */\n      gt\n        /* \"#utility.yul\":5328:5364   */\n      iszero\n      tag_163\n      jumpi\n        /* \"#utility.yul\":5344:5362   */\n      tag_164\n      tag_97\n      jump\t// in\n    tag_164:\n        /* \"#utility.yul\":5328:5364   */\n    tag_163:\n        /* \"#utility.yul\":5180:5371   */\n      swap3\n      swap2\n      pop\n      pop\n      jump\t// out\n        /* \"#utility.yul\":5377:5787   */\n    tag_75:\n        /* \"#utility.yul\":5417:5424   */\n      0x00\n        /* \"#utility.yul\":5440:5460   */\n      tag_166\n        /* \"#utility.yul\":5458:5459   */\n      dup3\n        /* \"#utility.yul\":5440:5460   */\n      tag_83\n      jump\t// in\n    tag_166:\n        /* \"#utility.yul\":5435:5460   */\n      swap2\n      pop\n        /* \"#utility.yul\":5474:5494   */\n      tag_167\n        /* \"#utility.yul\":5492:5493   */\n      dup4\n        /* \"#utility.yul\":5474:5494   */\n      tag_83\n      jump\t// in\n    tag_167:\n        /* \"#utility.yul\":5469:5494   */\n      swap3\n      pop\n        /* \"#utility.yul\":5529:5530   */\n      dup3\n        /* \"#utility.yul\":5526:5527   */\n      dup3\n        /* \"#utility.yul\":5522:5531   */\n      mul\n        /* \"#utility.yul\":5551:5581   */\n      tag_168\n        /* \"#utility.yul\":5569:5580   */\n      dup2\n        /* \"#utility.yul\":5551:5581   */\n      tag_83\n      jump\t// in\n    tag_168:\n        /* \"#utility.yul\":5540:5581   */\n      swap2\n      pop\n        /* \"#utility.yul\":5730:5731   */\n      dup3\n        /* \"#utility.yul\":5721:5728   */\n      dup3\n        /* \"#utility.yul\":5717:5732   */\n      div\n        /* \"#utility.yul\":5714:5715   */\n      dup5\n        /* \"#utility.yul\":5711:5733   */\n      eq\n        /* \"#utility.yul\":5691:5692   */\n      dup4\n        /* \"#utility.yul\":5684:5693   */\n      iszero\n        /* \"#utility.yul\":5664:5747   */\n      or\n        /* \"#utility.yul\":5641:5780   */\n      tag_169\n      jumpi\n        /* \"#utility.yul\":5760:5778   */\n      tag_170\n      tag_97\n      jump\t// in\n    tag_170:\n        /* \"#utility.yul\":5641:5780   */\n    tag_169:\n        /* \"#utility.yul\":5425:5787   */\n      pop\n        /* \"#utility.yul\":5377:5787   */\n      swap3\n      swap2\n      pop\n      pop\n      jump\t// out\n\n    auxdata: 0xa2646970667358221220cef36ddb9eb01d6785c66bb6147f7eee22113ca0a1b0bb8661feedb7e16fb32164736f6c634300081a0033\n}\n",
				"bytecode": {
					"linkReferences": {},
					"object": "6080604052600a6001553480156013575f80fd5b5061078d806100215f395ff3fe60806040526004361061007a575f3560e01c80634e70b1dc1161004d5780634e70b1dc1461010a5780637ad96a751461013457806382a6c0ac146101705780638dfa4363146101ad5761007a565b806319b05f491461007e5780633a7852381461009a5780633e57d55a146100a45780634dec9b57146100e0575b5f80fd5b61009860048036038101906100939190610488565b6101ea565b005b6100a26102cf565b005b3480156100af575f80fd5b506100ca60048036038101906100c591906104b3565b610371565b6040516100d79190610500565b60405180910390f35b3480156100eb575f80fd5b506100f4610386565b6040516101019190610500565b60405180910390f35b348015610115575f80fd5b5061011e61038f565b60405161012b9190610500565b60405180910390f35b34801561013f575f80fd5b5061015a600480360381019061015591906104b3565b610395565b6040516101679190610500565b60405180910390f35b34801561017b575f80fd5b5061019660048036038101906101919190610573565b6103aa565b6040516101a49291906105c0565b60405180910390f35b3480156101b8575f80fd5b506101d360048036038101906101ce91906104b3565b610402565b6040516101e19291906105e7565b60405180910390f35b5f60405180604001604052803373ffffffffffffffffffffffffffffffffffffffff1681526020018381525090505f803373ffffffffffffffffffffffffffffffffffffffff1673ffffffffffffffffffffffffffffffffffffffff1681526020019081526020015f2081908060018154018082558091505060019003905f5260205f2090600202015f909190919091505f820151815f015f6101000a81548173ffffffffffffffffffffffffffffffffffffffff021916908373ffffffffffffffffffffffffffffffffffffffff1602179055506020820151816001015550505050565b6102da600180610371565b503073ffffffffffffffffffffffffffffffffffffffff16637ad96a756001806040518363ffffffff1660e01b8152600401610317929190610650565b602060405180830381865afa158015610332573d5f803e3d5ffd5b505050506040513d601f19601f82011682018060405250810190610356919061068b565b50610362600180610427565b5061036e60018061043c565b50565b5f818361037e91906106e3565b905092915050565b5f600154905090565b60015481565b5f81836103a291906106e3565b905092915050565b5f602052815f5260405f2081815481106103c2575f80fd5b905f5260205f2090600202015f9150915050805f015f9054906101000a900473ffffffffffffffffffffffffffffffffffffffff16908060010154905082565b5f80828461041091906106e3565b838561041c9190610716565b915091509250929050565b5f818361043491906106e3565b905092915050565b5f818361044991906106e3565b905092915050565b5f80fd5b5f819050919050565b61046781610455565b8114610471575f80fd5b50565b5f813590506104828161045e565b92915050565b5f6020828403121561049d5761049c610451565b5b5f6104aa84828501610474565b91505092915050565b5f80604083850312156104c9576104c8610451565b5b5f6104d685828601610474565b92505060206104e785828601610474565b9150509250929050565b6104fa81610455565b82525050565b5f6020820190506105135f8301846104f1565b92915050565b5f73ffffffffffffffffffffffffffffffffffffffff82169050919050565b5f61054282610519565b9050919050565b61055281610538565b811461055c575f80fd5b50565b5f8135905061056d81610549565b92915050565b5f806040838503121561058957610588610451565b5b5f6105968582860161055f565b92505060206105a785828601610474565b9150509250929050565b6105ba81610538565b82525050565b5f6040820190506105d35f8301856105b1565b6105e060208301846104f1565b9392505050565b5f6040820190506105fa5f8301856104f1565b61060760208301846104f1565b9392505050565b5f819050919050565b5f819050919050565b5f61063a6106356106308461060e565b610617565b610455565b9050919050565b61064a81610620565b82525050565b5f6040820190506106635f830185610641565b6106706020830184610641565b9392505050565b5f815190506106858161045e565b92915050565b5f602082840312156106a05761069f610451565b5b5f6106ad84828501610677565b91505092915050565b7f4e487b71000000000000000000000000000000000000000000000000000000005f52601160045260245ffd5b5f6106ed82610455565b91506106f883610455565b92508282019050808211156107105761070f6106b6565b5b92915050565b5f61072082610455565b915061072b83610455565b925082820261073981610455565b915082820484148315176107505761074f6106b6565b5b509291505056fea2646970667358221220cef36ddb9eb01d6785c66bb6147f7eee22113ca0a1b0bb8661feedb7e16fb32164736f6c634300081a0033",
					"opcodes": "PUSH1 0x80 PUSH1 0x40 MSTORE PUSH1 0xA PUSH1 0x1 SSTORE CALLVALUE DUP1 ISZERO PUSH1 0x13 JUMPI PUSH0 DUP1 REVERT JUMPDEST POP PUSH2 0x78D DUP1 PUSH2 0x21 PUSH0 CODECOPY PUSH0 RETURN INVALID PUSH1 0x80 PUSH1 0x40 MSTORE PUSH1 0x4 CALLDATASIZE LT PUSH2 0x7A JUMPI PUSH0 CALLDATALOAD PUSH1 0xE0 SHR DUP1 PUSH4 0x4E70B1DC GT PUSH2 0x4D JUMPI DUP1 PUSH4 0x4E70B1DC EQ PUSH2 0x10A JUMPI DUP1 PUSH4 0x7AD96A75 EQ PUSH2 0x134 JUMPI DUP1 PUSH4 0x82A6C0AC EQ PUSH2 0x170 JUMPI DUP1 PUSH4 0x8DFA4363 EQ PUSH2 0x1AD JUMPI PUSH2 0x7A JUMP JUMPDEST DUP1 PUSH4 0x19B05F49 EQ PUSH2 0x7E JUMPI DUP1 PUSH4 0x3A785238 EQ PUSH2 0x9A JUMPI DUP1 PUSH4 0x3E57D55A EQ PUSH2 0xA4 JUMPI DUP1 PUSH4 0x4DEC9B57 EQ PUSH2 0xE0 JUMPI JUMPDEST PUSH0 DUP1 REVERT JUMPDEST PUSH2 0x98 PUSH1 0x4 DUP1 CALLDATASIZE SUB DUP2 ADD SWAP1 PUSH2 0x93 SWAP2 SWAP1 PUSH2 0x488 JUMP JUMPDEST PUSH2 0x1EA JUMP JUMPDEST STOP JUMPDEST PUSH2 0xA2 PUSH2 0x2CF JUMP JUMPDEST STOP JUMPDEST CALLVALUE DUP1 ISZERO PUSH2 0xAF JUMPI PUSH0 DUP1 REVERT JUMPDEST POP PUSH2 0xCA PUSH1 0x4 DUP1 CALLDATASIZE SUB DUP2 ADD SWAP1 PUSH2 0xC5 SWAP2 SWAP1 PUSH2 0x4B3 JUMP JUMPDEST PUSH2 0x371 JUMP JUMPDEST PUSH1 0x40 MLOAD PUSH2 0xD7 SWAP2 SWAP1 PUSH2 0x500 JUMP JUMPDEST PUSH1 0x40 MLOAD DUP1 SWAP2 SUB SWAP1 RETURN JUMPDEST CALLVALUE DUP1 ISZERO PUSH2 0xEB JUMPI PUSH0 DUP1 REVERT JUMPDEST POP PUSH2 0xF4 PUSH2 0x386 JUMP JUMPDEST PUSH1 0x40 MLOAD PUSH2 0x101 SWAP2 SWAP1 PUSH2 0x500 JUMP JUMPDEST PUSH1 0x40 MLOAD DUP1 SWAP2 SUB SWAP1 RETURN JUMPDEST CALLVALUE DUP1 ISZERO PUSH2 0x115 JUMPI PUSH0 DUP1 REVERT JUMPDEST POP PUSH2 0x11E PUSH2 0x38F JUMP JUMPDEST PUSH1 0x40 MLOAD PUSH2 0x12B SWAP2 SWAP1 PUSH2 0x500 JUMP JUMPDEST PUSH1 0x40 MLOAD DUP1 SWAP2 SUB SWAP1 RETURN JUMPDEST CALLVALUE DUP1 ISZERO PUSH2 0x13F JUMPI PUSH0 DUP1 REVERT JUMPDEST POP PUSH2 0x15A PUSH1 0x4 DUP1 CALLDATASIZE SUB DUP2 ADD SWAP1 PUSH2 0x155 SWAP2 SWAP1 PUSH2 0x4B3 JUMP JUMPDEST PUSH2 0x395 JUMP JUMPDEST PUSH1 0x40 MLOAD PUSH2 0x167 SWAP2 SWAP1 PUSH2 0x500 JUMP JUMPDEST PUSH1 0x40 MLOAD DUP1 SWAP2 SUB SWAP1 RETURN JUMPDEST CALLVALUE DUP1 ISZERO PUSH2 0x17B JUMPI PUSH0 DUP1 REVERT JUMPDEST POP PUSH2 0x196 PUSH1 0x4 DUP1 CALLDATASIZE SUB DUP2 ADD SWAP1 PUSH2 0x191 SWAP2 SWAP1 PUSH2 0x573 JUMP JUMPDEST PUSH2 0x3AA JUMP JUMPDEST PUSH1 0x40 MLOAD PUSH2 0x1A4 SWAP3 SWAP2 SWAP1 PUSH2 0x5C0 JUMP JUMPDEST PUSH1 0x40 MLOAD DUP1 SWAP2 SUB SWAP1 RETURN JUMPDEST CALLVALUE DUP1 ISZERO PUSH2 0x1B8 JUMPI PUSH0 DUP1 REVERT JUMPDEST POP PUSH2 0x1D3 PUSH1 0x4 DUP1 CALLDATASIZE SUB DUP2 ADD SWAP1 PUSH2 0x1CE SWAP2 SWAP1 PUSH2 0x4B3 JUMP JUMPDEST PUSH2 0x402 JUMP JUMPDEST PUSH1 0x40 MLOAD PUSH2 0x1E1 SWAP3 SWAP2 SWAP1 PUSH2 0x5E7 JUMP JUMPDEST PUSH1 0x40 MLOAD DUP1 SWAP2 SUB SWAP1 RETURN JUMPDEST PUSH0 PUSH1 0x40 MLOAD DUP1 PUSH1 0x40 ADD PUSH1 0x40 MSTORE DUP1 CALLER PUSH20 0xFFFFFFFFFFFFFFFFFFFFFFFFFFFFFFFFFFFFFFFF AND DUP2 MSTORE PUSH1 0x20 ADD DUP4 DUP2 MSTORE POP SWAP1 POP PUSH0 DUP1 CALLER PUSH20 0xFFFFFFFFFFFFFFFFFFFFFFFFFFFFFFFFFFFFFFFF AND PUSH20 0xFFFFFFFFFFFFFFFFFFFFFFFFFFFFFFFFFFFFFFFF AND DUP2 MSTORE PUSH1 0x20 ADD SWAP1 DUP2 MSTORE PUSH1 0x20 ADD PUSH0 KECCAK256 DUP2 SWAP1 DUP1 PUSH1 0x1 DUP2 SLOAD ADD DUP1 DUP3 SSTORE DUP1 SWAP2 POP POP PUSH1 0x1 SWAP1 SUB SWAP1 PUSH0 MSTORE PUSH1 0x20 PUSH0 KECCAK256 SWAP1 PUSH1 0x2 MUL ADD PUSH0 SWAP1 SWAP2 SWAP1 SWAP2 SWAP1 SWAP2 POP PUSH0 DUP3 ADD MLOAD DUP2 PUSH0 ADD PUSH0 PUSH2 0x100 EXP DUP2 SLOAD DUP2 PUSH20 0xFFFFFFFFFFFFFFFFFFFFFFFFFFFFFFFFFFFFFFFF MUL NOT AND SWAP1 DUP4 PUSH20 0xFFFFFFFFFFFFFFFFFFFFFFFFFFFFFFFFFFFFFFFF AND MUL OR SWAP1 SSTORE POP PUSH1 0x20 DUP3 ADD MLOAD DUP2 PUSH1 0x1 ADD SSTORE POP POP POP POP JUMP JUMPDEST PUSH2 0x2DA PUSH1 0x1 DUP1 PUSH2 0x371 JUMP JUMPDEST POP ADDRESS PUSH20 0xFFFFFFFFFFFFFFFFFFFFFFFFFFFFFFFFFFFFFFFF AND PUSH4 0x7AD96A75 PUSH1 0x1 DUP1 PUSH1 0x40 MLOAD DUP4 PUSH4 0xFFFFFFFF AND PUSH1 0xE0 SHL DUP2 MSTORE PUSH1 0x4 ADD PUSH2 0x317 SWAP3 SWAP2 SWAP1 PUSH2 0x650 JUMP JUMPDEST PUSH1 0x20 PUSH1 0x40 MLOAD DUP1 DUP4 SUB DUP2 DUP7 GAS STATICCALL ISZERO DUP1 ISZERO PUSH2 0x332 JUMPI RETURNDATASIZE PUSH0 DUP1 RETURNDATACOPY RETURNDATASIZE PUSH0 REVERT JUMPDEST POP POP POP POP PUSH1 0x40 MLOAD RETURNDATASIZE PUSH1 0x1F NOT PUSH1 0x1F DUP3 ADD AND DUP3 ADD DUP1 PUSH1 0x40 MSTORE POP DUP2 ADD SWAP1 PUSH2 0x356 SWAP2 SWAP1 PUSH2 0x68B JUMP JUMPDEST POP PUSH2 0x362 PUSH1 0x1 DUP1 PUSH2 0x427 JUMP JUMPDEST POP PUSH2 0x36E PUSH1 0x1 DUP1 PUSH2 0x43C JUMP JUMPDEST POP JUMP JUMPDEST PUSH0 DUP2 DUP4 PUSH2 0x37E SWAP2 SWAP1 PUSH2 0x6E3 JUMP JUMPDEST SWAP1 POP SWAP3 SWAP2 POP POP JUMP JUMPDEST PUSH0 PUSH1 0x1 SLOAD SWAP1 POP SWAP1 JUMP JUMPDEST PUSH1 0x1 SLOAD DUP2 JUMP JUMPDEST PUSH0 DUP2 DUP4 PUSH2 0x3A2 SWAP2 SWAP1 PUSH2 0x6E3 JUMP JUMPDEST SWAP1 POP SWAP3 SWAP2 POP POP JUMP JUMPDEST PUSH0 PUSH1 0x20 MSTORE DUP2 PUSH0 MSTORE PUSH1 0x40 PUSH0 KECCAK256 DUP2 DUP2 SLOAD DUP2 LT PUSH2 0x3C2 JUMPI PUSH0 DUP1 REVERT JUMPDEST SWAP1 PUSH0 MSTORE PUSH1 0x20 PUSH0 KECCAK256 SWAP1 PUSH1 0x2 MUL ADD PUSH0 SWAP2 POP SWAP2 POP POP DUP1 PUSH0 ADD PUSH0 SWAP1 SLOAD SWAP1 PUSH2 0x100 EXP SWAP1 DIV PUSH20 0xFFFFFFFFFFFFFFFFFFFFFFFFFFFFFFFFFFFFFFFF AND SWAP1 DUP1 PUSH1 0x1 ADD SLOAD SWAP1 POP DUP3 JUMP JUMPDEST PUSH0 DUP1 DUP3 DUP5 PUSH2 0x410 SWAP2 SWAP1 PUSH2 0x6E3 JUMP JUMPDEST DUP4 DUP6 PUSH2 0x41C SWAP2 SWAP1 PUSH2 0x716 JUMP JUMPDEST SWAP2 POP SWAP2 POP SWAP3 POP SWAP3 SWAP1 POP JUMP JUMPDEST PUSH0 DUP2 DUP4 PUSH2 0x434 SWAP2 SWAP1 PUSH2 0x6E3 JUMP JUMPDEST SWAP1 POP SWAP3 SWAP2 POP POP JUMP JUMPDEST PUSH0 DUP2 DUP4 PUSH2 0x449 SWAP2 SWAP1 PUSH2 0x6E3 JUMP JUMPDEST SWAP1 POP SWAP3 SWAP2 POP POP JUMP JUMPDEST PUSH0 DUP1 REVERT JUMPDEST PUSH0 DUP2 SWAP1 POP SWAP2 SWAP1 POP JUMP JUMPDEST PUSH2 0x467 DUP2 PUSH2 0x455 JUMP JUMPDEST DUP2 EQ PUSH2 0x471 JUMPI PUSH0 DUP1 REVERT JUMPDEST POP JUMP JUMPDEST PUSH0 DUP2 CALLDATALOAD SWAP1 POP PUSH2 0x482 DUP2 PUSH2 0x45E JUMP JUMPDEST SWAP3 SWAP2 POP POP JUMP JUMPDEST PUSH0 PUSH1 0x20 DUP3 DUP5 SUB SLT ISZERO PUSH2 0x49D JUMPI PUSH2 0x49C PUSH2 0x451 JUMP JUMPDEST JUMPDEST PUSH0 PUSH2 0x4AA DUP5 DUP3 DUP6 ADD PUSH2 0x474 JUMP JUMPDEST SWAP2 POP POP SWAP3 SWAP2 POP POP JUMP JUMPDEST PUSH0 DUP1 PUSH1 0x40 DUP4 DUP6 SUB SLT ISZERO PUSH2 0x4C9 JUMPI PUSH2 0x4C8 PUSH2 0x451 JUMP JUMPDEST JUMPDEST PUSH0 PUSH2 0x4D6 DUP6 DUP3 DUP7 ADD PUSH2 0x474 JUMP JUMPDEST SWAP3 POP POP PUSH1 0x20 PUSH2 0x4E7 DUP6 DUP3 DUP7 ADD PUSH2 0x474 JUMP JUMPDEST SWAP2 POP POP SWAP3 POP SWAP3 SWAP1 POP JUMP JUMPDEST PUSH2 0x4FA DUP2 PUSH2 0x455 JUMP JUMPDEST DUP3 MSTORE POP POP JUMP JUMPDEST PUSH0 PUSH1 0x20 DUP3 ADD SWAP1 POP PUSH2 0x513 PUSH0 DUP4 ADD DUP5 PUSH2 0x4F1 JUMP JUMPDEST SWAP3 SWAP2 POP POP JUMP JUMPDEST PUSH0 PUSH20 0xFFFFFFFFFFFFFFFFFFFFFFFFFFFFFFFFFFFFFFFF DUP3 AND SWAP1 POP SWAP2 SWAP1 POP JUMP JUMPDEST PUSH0 PUSH2 0x542 DUP3 PUSH2 0x519 JUMP JUMPDEST SWAP1 POP SWAP2 SWAP1 POP JUMP JUMPDEST PUSH2 0x552 DUP2 PUSH2 0x538 JUMP JUMPDEST DUP2 EQ PUSH2 0x55C JUMPI PUSH0 DUP1 REVERT JUMPDEST POP JUMP JUMPDEST PUSH0 DUP2 CALLDATALOAD SWAP1 POP PUSH2 0x56D DUP2 PUSH2 0x549 JUMP JUMPDEST SWAP3 SWAP2 POP POP JUMP JUMPDEST PUSH0 DUP1 PUSH1 0x40 DUP4 DUP6 SUB SLT ISZERO PUSH2 0x589 JUMPI PUSH2 0x588 PUSH2 0x451 JUMP JUMPDEST JUMPDEST PUSH0 PUSH2 0x596 DUP6 DUP3 DUP7 ADD PUSH2 0x55F JUMP JUMPDEST SWAP3 POP POP PUSH1 0x20 PUSH2 0x5A7 DUP6 DUP3 DUP7 ADD PUSH2 0x474 JUMP JUMPDEST SWAP2 POP POP SWAP3 POP SWAP3 SWAP1 POP JUMP JUMPDEST PUSH2 0x5BA DUP2 PUSH2 0x538 JUMP JUMPDEST DUP3 MSTORE POP POP JUMP JUMPDEST PUSH0 PUSH1 0x40 DUP3 ADD SWAP1 POP PUSH2 0x5D3 PUSH0 DUP4 ADD DUP6 PUSH2 0x5B1 JUMP JUMPDEST PUSH2 0x5E0 PUSH1 0x20 DUP4 ADD DUP5 PUSH2 0x4F1 JUMP JUMPDEST SWAP4 SWAP3 POP POP POP JUMP JUMPDEST PUSH0 PUSH1 0x40 DUP3 ADD SWAP1 POP PUSH2 0x5FA PUSH0 DUP4 ADD DUP6 PUSH2 0x4F1 JUMP JUMPDEST PUSH2 0x607 PUSH1 0x20 DUP4 ADD DUP5 PUSH2 0x4F1 JUMP JUMPDEST SWAP4 SWAP3 POP POP POP JUMP JUMPDEST PUSH0 DUP2 SWAP1 POP SWAP2 SWAP1 POP JUMP JUMPDEST PUSH0 DUP2 SWAP1 POP SWAP2 SWAP1 POP JUMP JUMPDEST PUSH0 PUSH2 0x63A PUSH2 0x635 PUSH2 0x630 DUP5 PUSH2 0x60E JUMP JUMPDEST PUSH2 0x617 JUMP JUMPDEST PUSH2 0x455 JUMP JUMPDEST SWAP1 POP SWAP2 SWAP1 POP JUMP JUMPDEST PUSH2 0x64A DUP2 PUSH2 0x620 JUMP JUMPDEST DUP3 MSTORE POP POP JUMP JUMPDEST PUSH0 PUSH1 0x40 DUP3 ADD SWAP1 POP PUSH2 0x663 PUSH0 DUP4 ADD DUP6 PUSH2 0x641 JUMP JUMPDEST PUSH2 0x670 PUSH1 0x20 DUP4 ADD DUP5 PUSH2 0x641 JUMP JUMPDEST SWAP4 SWAP3 POP POP POP JUMP JUMPDEST PUSH0 DUP2 MLOAD SWAP1 POP PUSH2 0x685 DUP2 PUSH2 0x45E JUMP JUMPDEST SWAP3 SWAP2 POP POP JUMP JUMPDEST PUSH0 PUSH1 0x20 DUP3 DUP5 SUB SLT ISZERO PUSH2 0x6A0 JUMPI PUSH2 0x69F PUSH2 0x451 JUMP JUMPDEST JUMPDEST PUSH0 PUSH2 0x6AD DUP5 DUP3 DUP6 ADD PUSH2 0x677 JUMP JUMPDEST SWAP2 POP POP SWAP3 SWAP2 POP POP JUMP JUMPDEST PUSH32 0x4E487B7100000000000000000000000000000000000000000000000000000000 PUSH0 MSTORE PUSH1 0x11 PUSH1 0x4 MSTORE PUSH1 0x24 PUSH0 REVERT JUMPDEST PUSH0 PUSH2 0x6ED DUP3 PUSH2 0x455 JUMP JUMPDEST SWAP2 POP PUSH2 0x6F8 DUP4 PUSH2 0x455 JUMP JUMPDEST SWAP3 POP DUP3 DUP3 ADD SWAP1 POP DUP1 DUP3 GT ISZERO PUSH2 0x710 JUMPI PUSH2 0x70F PUSH2 0x6B6 JUMP JUMPDEST JUMPDEST SWAP3 SWAP2 POP POP JUMP JUMPDEST PUSH0 PUSH2 0x720 DUP3 PUSH2 0x455 JUMP JUMPDEST SWAP2 POP PUSH2 0x72B DUP4 PUSH2 0x455 JUMP JUMPDEST SWAP3 POP DUP3 DUP3 MUL PUSH2 0x739 DUP2 PUSH2 0x455 JUMP JUMPDEST SWAP2 POP DUP3 DUP3 DIV DUP5 EQ DUP4 ISZERO OR PUSH2 0x750 JUMPI PUSH2 0x74F PUSH2 0x6B6 JUMP JUMPDEST JUMPDEST POP SWAP3 SWAP2 POP POP JUMP INVALID LOG2 PUSH5 0x6970667358 0x22 SLT KECCAK256 0xCE RETURN PUSH14 0xDB9EB01D6785C66BB6147F7EEE22 GT EXTCODECOPY LOG0 LOG1 0xB0 0xBB DUP7 PUSH2 0xFEED 0xB7 0xE1 PUSH16 0xB32164736F6C634300081A0033000000 "
				},
				"gasEstimates": {
					"creation": {
						"codeDepositCost": "386600",
						"executionCost": "22528",
						"totalCost": "409128"
					},
					"external": {
						"accept(uint256)": "71273",
						"calculate(uint256,uint256)": "infinite",
						"num()": "2425",
						"records(address,uint256)": "infinite",
						"testExternal(uint256,uint256)": "infinite",
						"testPayable()": "infinite",
						"testPublic(uint256,uint256)": "infinite",
						"testView()": "2499"
					},
					"internal": {
						"testInternal(uint256,uint256)": "infinite",
						"testPrivate(uint256,uint256)": "infinite"
					}
				},
				"methodIdentifiers": {
					"accept(uint256)": "19b05f49",
					"calculate(uint256,uint256)": "8dfa4363",
					"num()": "4e70b1dc",
					"records(address,uint256)": "82a6c0ac",
					"testExternal(uint256,uint256)": "7ad96a75",
					"testPayable()": "3a785238",
					"testPublic(uint256,uint256)": "3e57d55a",
					"testView()": "4dec9b57"
				}
			},
			"storageLayout": {
				"storage": [
					{
						"astId": 12,
						"contract": "Function.sol:FunctionTest",
						"label": "records",
						"offset": 0,
						"slot": "0",
						"type": "t_mapping(t_address,t_array(t_struct(Record)6_storage)dyn_storage)"
					},
					{
						"astId": 15,
						"contract": "Function.sol:FunctionTest",
						"label": "num",
						"offset": 0,
						"slot": "1",
						"type": "t_uint256"
					}
				],
				"types": {
					"t_address": {
						"encoding": "inplace",
						"label": "address",
						"numberOfBytes": "20"
					},
					"t_array(t_struct(Record)6_storage)dyn_storage": {
						"base": "t_struct(Record)6_storage",
						"encoding": "dynamic_array",
						"label": "struct FunctionTest.Record[]",
						"numberOfBytes": "32"
					},
					"t_mapping(t_address,t_array(t_struct(Record)6_storage)dyn_storage)": {
						"encoding": "mapping",
						"key": "t_address",
						"label": "mapping(address => struct FunctionTest.Record[])",
						"numberOfBytes": "32",
						"value": "t_array(t_struct(Record)6_storage)dyn_storage"
					},
					"t_struct(Record)6_storage": {
						"encoding": "inplace",
						"label": "struct FunctionTest.Record",
						"members": [
							{
								"astId": 3,
								"contract": "Function.sol:FunctionTest",
								"label": "from",
								"offset": 0,
								"slot": "0",
								"type": "t_address"
							},
							{
								"astId": 5,
								"contract": "Function.sol:FunctionTest",
								"label": "amount",
								"offset": 0,
								"slot": "1",
								"type": "t_uint256"
							}
						],
						"numberOfBytes": "64"
					},
					"t_uint256": {
						"encoding": "inplace",
						"label": "uint256",
						"numberOfBytes": "32"
					}
				}
			},
			"userdoc": {
				"kind": "user",
				"methods": {},
				"version": 1
			}
		}
	}
}