{
	"Condition.sol": {
		"ConditionA": {
			"abi": [
				{
					"inputs": [],
					"name": "testD",
					"outputs": [
						{
							"internalType": "uint256",
							"name": "",
							"type": "uint256"
						}
					],
					"stateMutability": "view",
					"type": "function"
				},
				{
					"inputs": [],
					"name": "testF",
					"outputs": [
						{
							"internalType": "uint256",
							"name": "",
							"type": "uint256"
						}
					],
					"stateMutability": "view",
					"type": "function"
				},
				{
					"inputs": [
						{
							"internalType": "address",
							"name": "addr",
							"type": "address"
						}
					],
					"name": "tryCatch",
					"outputs": [
						{
							"internalType": "uint256",
							"name": "sum",
							"type": "uint256"
						},
						{
							"internalType": "string",
							"name": "str",
							"type": "string"
						}
					],
					"stateMutability": "pure",
					"type": "function"
				}
			],
			"devdoc": {
				"kind": "dev",
				"methods": {},
				"version": 1
			},
			"evm": {
				"assembly": "    /* \"Condition.sol\":892:1586  contract ConditionA {... */\n  mstore(0x40, 0x80)\n    /* \"Condition.sol\":933:948  new Condition() */\n  mload(0x40)\n  tag_1\n  swap1\n  tag_2\n  jump\t// in\ntag_1:\n  mload(0x40)\n  dup1\n  swap2\n  sub\n  swap1\n  0x00\n  create\n  dup1\n  iszero\n  dup1\n  iszero\n  tag_3\n  jumpi\n  returndatasize\n  0x00\n  dup1\n  returndatacopy\n  revert(0x00, returndatasize)\ntag_3:\n  pop\n    /* \"Condition.sol\":919:948  Condition c = new Condition() */\n  0x00\n  dup1\n  0x0100\n  exp\n  dup2\n  sload\n  dup2\n  0xffffffffffffffffffffffffffffffffffffffff\n  mul\n  not\n  and\n  swap1\n  dup4\n  0xffffffffffffffffffffffffffffffffffffffff\n  and\n  mul\n  or\n  swap1\n  sstore\n  pop\n    /* \"Condition.sol\":892:1586  contract ConditionA {... */\n  callvalue\n  dup1\n  iszero\n  tag_4\n  jumpi\n  0x00\n  dup1\n  revert\ntag_4:\n  pop\n  jump(tag_5)\ntag_2:\n  dataSize(sub_1)\n  dup1\n  dataOffset(sub_1)\n  dup4\n  codecopy\n  add\n  swap1\n  jump\t// out\ntag_5:\n  dataSize(sub_0)\n  dup1\n  dataOffset(sub_0)\n  0x00\n  codecopy\n  0x00\n  return\nstop\n\nsub_0: assembly {\n        /* \"Condition.sol\":892:1586  contract ConditionA {... */\n      mstore(0x40, 0x80)\n      callvalue\n      dup1\n      iszero\n      tag_1\n      jumpi\n      0x00\n      dup1\n      revert\n    tag_1:\n      pop\n      jumpi(tag_2, lt(calldatasize, 0x04))\n      shr(0xe0, calldataload(0x00))\n      dup1\n      0x6ba95cf5\n      eq\n      tag_3\n      jumpi\n      dup1\n      0x83d79940\n      eq\n      tag_4\n      jumpi\n      dup1\n      0xf0d061b4\n      eq\n      tag_5\n      jumpi\n    tag_2:\n      0x00\n      dup1\n      revert\n        /* \"Condition.sol\":1202:1581  function tryCatch(address addr) public pure returns (uint256 sum, string memory str){... */\n    tag_3:\n      tag_6\n      0x04\n      dup1\n      calldatasize\n      sub\n      dup2\n      add\n      swap1\n      tag_7\n      swap2\n      swap1\n      tag_8\n      jump\t// in\n    tag_7:\n      tag_9\n      jump\t// in\n    tag_6:\n      mload(0x40)\n      tag_10\n      swap3\n      swap2\n      swap1\n      tag_11\n      jump\t// in\n    tag_10:\n      mload(0x40)\n      dup1\n      swap2\n      sub\n      swap1\n      return\n        /* \"Condition.sol\":955:1030  function testD() public view returns (uint) {... */\n    tag_4:\n      tag_12\n      tag_13\n      jump\t// in\n    tag_12:\n      mload(0x40)\n      tag_14\n      swap2\n      swap1\n      tag_15\n      jump\t// in\n    tag_14:\n      mload(0x40)\n      dup1\n      swap2\n      sub\n      swap1\n      return\n        /* \"Condition.sol\":1036:1194  function testF() public view returns (uint) {... */\n    tag_5:\n      tag_16\n      tag_17\n      jump\t// in\n    tag_16:\n      mload(0x40)\n      tag_18\n      swap2\n      swap1\n      tag_15\n      jump\t// in\n    tag_18:\n      mload(0x40)\n      dup1\n      swap2\n      sub\n      swap1\n      return\n        /* \"Condition.sol\":1202:1581  function tryCatch(address addr) public pure returns (uint256 sum, string memory str){... */\n    tag_9:\n        /* \"Condition.sol\":1255:1266  uint256 sum */\n      0x00\n        /* \"Condition.sol\":1268:1285  string memory str */\n      0x60\n        /* \"Condition.sol\":1374:1378  addr */\n      dup3\n        /* \"Condition.sol\":1364:1388  Condition(addr).sumByFor */\n      0xffffffffffffffffffffffffffffffffffffffff\n      and\n      0x7446b6b0\n        /* \"Condition.sol\":1389:1392  100 */\n      0x64\n        /* \"Condition.sol\":1364:1393  Condition(addr).sumByFor(100) */\n      mload(0x40)\n      dup3\n      0xffffffff\n      and\n      0xe0\n      shl\n      dup2\n      mstore\n      0x04\n      add\n      tag_20\n      swap2\n      swap1\n      tag_21\n      jump\t// in\n    tag_20:\n      0x20\n      mload(0x40)\n      dup1\n      dup4\n      sub\n      dup2\n      dup7\n      gas\n      staticcall\n      swap3\n      pop\n      pop\n      pop\n      dup1\n      iszero\n      tag_22\n      jumpi\n      pop\n      mload(0x40)\n      returndatasize\n      not(0x1f)\n      0x1f\n      dup3\n      add\n      and\n      dup3\n      add\n      dup1\n      0x40\n      mstore\n      pop\n      dup2\n      add\n      swap1\n      tag_23\n      swap2\n      swap1\n      tag_24\n      jump\t// in\n    tag_23:\n      0x01\n    tag_22:\n        /* \"Condition.sol\":1360:1574  try Condition(addr).sumByFor(100) returns (uint256 a) {... */\n      tag_25\n      jumpi\n        /* \"Condition.sol\":1553:1554  0 */\n      0x00\n        /* \"Condition.sol\":1546:1562  return(0,\"fail\") */\n      mload(0x40)\n      dup1\n      0x40\n      add\n      0x40\n      mstore\n      dup1\n      0x04\n      dup2\n      mstore\n      0x20\n      add\n      0x6661696c00000000000000000000000000000000000000000000000000000000\n      dup2\n      mstore\n      pop\n      swap2\n      pop\n      swap2\n      pop\n      jump(tag_19)\n        /* \"Condition.sol\":1360:1574  try Condition(addr).sumByFor(100) returns (uint256 a) {... */\n    tag_25:\n        /* \"Condition.sol\":1500:1501  a */\n      dup1\n        /* \"Condition.sol\":1492:1512  return (a,\"success\") */\n      mload(0x40)\n      dup1\n      0x40\n      add\n      0x40\n      mstore\n      dup1\n      0x07\n      dup2\n      mstore\n      0x20\n      add\n      0x7375636365737300000000000000000000000000000000000000000000000000\n      dup2\n      mstore\n      pop\n      swap3\n      pop\n      swap3\n      pop\n      pop\n        /* \"Condition.sol\":1202:1581  function tryCatch(address addr) public pure returns (uint256 sum, string memory str){... */\n    tag_19:\n      swap2\n      pop\n      swap2\n      jump\t// out\n        /* \"Condition.sol\":955:1030  function testD() public view returns (uint) {... */\n    tag_13:\n        /* \"Condition.sol\":993:997  uint */\n      0x00\n        /* \"Condition.sol\":1017:1018  c */\n      dup1\n      0x00\n      swap1\n      sload\n      swap1\n      0x0100\n      exp\n      swap1\n      div\n      0xffffffffffffffffffffffffffffffffffffffff\n      and\n        /* \"Condition.sol\":1017:1020  c.a */\n      0xffffffffffffffffffffffffffffffffffffffff\n      and\n      0x0dbe671f\n        /* \"Condition.sol\":1017:1022  c.a() */\n      mload(0x40)\n      dup2\n      0xffffffff\n      and\n      0xe0\n      shl\n      dup2\n      mstore\n      0x04\n      add\n      0x20\n      mload(0x40)\n      dup1\n      dup4\n      sub\n      dup2\n      dup7\n      gas\n      staticcall\n      iszero\n      dup1\n      iszero\n      tag_32\n      jumpi\n      returndatasize\n      0x00\n      dup1\n      returndatacopy\n      revert(0x00, returndatasize)\n    tag_32:\n      pop\n      pop\n      pop\n      pop\n      mload(0x40)\n      returndatasize\n      not(0x1f)\n      0x1f\n      dup3\n      add\n      and\n      dup3\n      add\n      dup1\n      0x40\n      mstore\n      pop\n      dup2\n      add\n      swap1\n      tag_33\n      swap2\n      swap1\n      tag_24\n      jump\t// in\n    tag_33:\n        /* \"Condition.sol\":1010:1022  return c.a() */\n      swap1\n      pop\n        /* \"Condition.sol\":955:1030  function testD() public view returns (uint) {... */\n      swap1\n      jump\t// out\n        /* \"Condition.sol\":1036:1194  function testF() public view returns (uint) {... */\n    tag_17:\n        /* \"Condition.sol\":1074:1078  uint */\n      0x00\n        /* \"Condition.sol\":1036:1194  function testF() public view returns (uint) {... */\n      swap1\n      jump\t// out\n        /* \"#utility.yul\":88:205   */\n    tag_36:\n        /* \"#utility.yul\":197:198   */\n      0x00\n        /* \"#utility.yul\":194:195   */\n      dup1\n        /* \"#utility.yul\":187:199   */\n      revert\n        /* \"#utility.yul\":334:460   */\n    tag_38:\n        /* \"#utility.yul\":371:378   */\n      0x00\n        /* \"#utility.yul\":411:453   */\n      0xffffffffffffffffffffffffffffffffffffffff\n        /* \"#utility.yul\":404:409   */\n      dup3\n        /* \"#utility.yul\":400:454   */\n      and\n        /* \"#utility.yul\":389:454   */\n      swap1\n      pop\n        /* \"#utility.yul\":334:460   */\n      swap2\n      swap1\n      pop\n      jump\t// out\n        /* \"#utility.yul\":466:562   */\n    tag_39:\n        /* \"#utility.yul\":503:510   */\n      0x00\n        /* \"#utility.yul\":532:556   */\n      tag_61\n        /* \"#utility.yul\":550:555   */\n      dup3\n        /* \"#utility.yul\":532:556   */\n      tag_38\n      jump\t// in\n    tag_61:\n        /* \"#utility.yul\":521:556   */\n      swap1\n      pop\n        /* \"#utility.yul\":466:562   */\n      swap2\n      swap1\n      pop\n      jump\t// out\n        /* \"#utility.yul\":568:690   */\n    tag_40:\n        /* \"#utility.yul\":641:665   */\n      tag_63\n        /* \"#utility.yul\":659:664   */\n      dup2\n        /* \"#utility.yul\":641:665   */\n      tag_39\n      jump\t// in\n    tag_63:\n        /* \"#utility.yul\":634:639   */\n      dup2\n        /* \"#utility.yul\":631:666   */\n      eq\n        /* \"#utility.yul\":621:684   */\n      tag_64\n      jumpi\n        /* \"#utility.yul\":680:681   */\n      0x00\n        /* \"#utility.yul\":677:678   */\n      dup1\n        /* \"#utility.yul\":670:682   */\n      revert\n        /* \"#utility.yul\":621:684   */\n    tag_64:\n        /* \"#utility.yul\":568:690   */\n      pop\n      jump\t// out\n        /* \"#utility.yul\":696:835   */\n    tag_41:\n        /* \"#utility.yul\":742:747   */\n      0x00\n        /* \"#utility.yul\":780:786   */\n      dup2\n        /* \"#utility.yul\":767:787   */\n      calldataload\n        /* \"#utility.yul\":758:787   */\n      swap1\n      pop\n        /* \"#utility.yul\":796:829   */\n      tag_66\n        /* \"#utility.yul\":823:828   */\n      dup2\n        /* \"#utility.yul\":796:829   */\n      tag_40\n      jump\t// in\n    tag_66:\n        /* \"#utility.yul\":696:835   */\n      swap3\n      swap2\n      pop\n      pop\n      jump\t// out\n        /* \"#utility.yul\":841:1170   */\n    tag_8:\n        /* \"#utility.yul\":900:906   */\n      0x00\n        /* \"#utility.yul\":949:951   */\n      0x20\n        /* \"#utility.yul\":937:946   */\n      dup3\n        /* \"#utility.yul\":928:935   */\n      dup5\n        /* \"#utility.yul\":924:947   */\n      sub\n        /* \"#utility.yul\":920:952   */\n      slt\n        /* \"#utility.yul\":917:1036   */\n      iszero\n      tag_68\n      jumpi\n        /* \"#utility.yul\":955:1034   */\n      tag_69\n      tag_36\n      jump\t// in\n    tag_69:\n        /* \"#utility.yul\":917:1036   */\n    tag_68:\n        /* \"#utility.yul\":1075:1076   */\n      0x00\n        /* \"#utility.yul\":1100:1153   */\n      tag_70\n        /* \"#utility.yul\":1145:1152   */\n      dup5\n        /* \"#utility.yul\":1136:1142   */\n      dup3\n        /* \"#utility.yul\":1125:1134   */\n      dup6\n        /* \"#utility.yul\":1121:1143   */\n      add\n        /* \"#utility.yul\":1100:1153   */\n      tag_41\n      jump\t// in\n    tag_70:\n        /* \"#utility.yul\":1090:1153   */\n      swap2\n      pop\n        /* \"#utility.yul\":1046:1163   */\n      pop\n        /* \"#utility.yul\":841:1170   */\n      swap3\n      swap2\n      pop\n      pop\n      jump\t// out\n        /* \"#utility.yul\":1176:1253   */\n    tag_42:\n        /* \"#utility.yul\":1213:1220   */\n      0x00\n        /* \"#utility.yul\":1242:1247   */\n      dup2\n        /* \"#utility.yul\":1231:1247   */\n      swap1\n      pop\n        /* \"#utility.yul\":1176:1253   */\n      swap2\n      swap1\n      pop\n      jump\t// out\n        /* \"#utility.yul\":1259:1377   */\n    tag_43:\n        /* \"#utility.yul\":1346:1370   */\n      tag_73\n        /* \"#utility.yul\":1364:1369   */\n      dup2\n        /* \"#utility.yul\":1346:1370   */\n      tag_42\n      jump\t// in\n    tag_73:\n        /* \"#utility.yul\":1341:1344   */\n      dup3\n        /* \"#utility.yul\":1334:1371   */\n      mstore\n        /* \"#utility.yul\":1259:1377   */\n      pop\n      pop\n      jump\t// out\n        /* \"#utility.yul\":1383:1482   */\n    tag_44:\n        /* \"#utility.yul\":1435:1441   */\n      0x00\n        /* \"#utility.yul\":1469:1474   */\n      dup2\n        /* \"#utility.yul\":1463:1475   */\n      mload\n        /* \"#utility.yul\":1453:1475   */\n      swap1\n      pop\n        /* \"#utility.yul\":1383:1482   */\n      swap2\n      swap1\n      pop\n      jump\t// out\n        /* \"#utility.yul\":1488:1657   */\n    tag_45:\n        /* \"#utility.yul\":1572:1583   */\n      0x00\n        /* \"#utility.yul\":1606:1612   */\n      dup3\n        /* \"#utility.yul\":1601:1604   */\n      dup3\n        /* \"#utility.yul\":1594:1613   */\n      mstore\n        /* \"#utility.yul\":1646:1650   */\n      0x20\n        /* \"#utility.yul\":1641:1644   */\n      dup3\n        /* \"#utility.yul\":1637:1651   */\n      add\n        /* \"#utility.yul\":1622:1651   */\n      swap1\n      pop\n        /* \"#utility.yul\":1488:1657   */\n      swap3\n      swap2\n      pop\n      pop\n      jump\t// out\n        /* \"#utility.yul\":1663:1802   */\n    tag_46:\n        /* \"#utility.yul\":1752:1758   */\n      dup3\n        /* \"#utility.yul\":1747:1750   */\n      dup2\n        /* \"#utility.yul\":1742:1745   */\n      dup4\n        /* \"#utility.yul\":1736:1759   */\n      mcopy\n        /* \"#utility.yul\":1793:1794   */\n      0x00\n        /* \"#utility.yul\":1784:1790   */\n      dup4\n        /* \"#utility.yul\":1779:1782   */\n      dup4\n        /* \"#utility.yul\":1775:1791   */\n      add\n        /* \"#utility.yul\":1768:1795   */\n      mstore\n        /* \"#utility.yul\":1663:1802   */\n      pop\n      pop\n      pop\n      jump\t// out\n        /* \"#utility.yul\":1808:1910   */\n    tag_47:\n        /* \"#utility.yul\":1849:1855   */\n      0x00\n        /* \"#utility.yul\":1900:1902   */\n      0x1f\n        /* \"#utility.yul\":1896:1903   */\n      not\n        /* \"#utility.yul\":1891:1893   */\n      0x1f\n        /* \"#utility.yul\":1884:1889   */\n      dup4\n        /* \"#utility.yul\":1880:1894   */\n      add\n        /* \"#utility.yul\":1876:1904   */\n      and\n        /* \"#utility.yul\":1866:1904   */\n      swap1\n      pop\n        /* \"#utility.yul\":1808:1910   */\n      swap2\n      swap1\n      pop\n      jump\t// out\n        /* \"#utility.yul\":1916:2293   */\n    tag_48:\n        /* \"#utility.yul\":2004:2007   */\n      0x00\n        /* \"#utility.yul\":2032:2071   */\n      tag_79\n        /* \"#utility.yul\":2065:2070   */\n      dup3\n        /* \"#utility.yul\":2032:2071   */\n      tag_44\n      jump\t// in\n    tag_79:\n        /* \"#utility.yul\":2087:2158   */\n      tag_80\n        /* \"#utility.yul\":2151:2157   */\n      dup2\n        /* \"#utility.yul\":2146:2149   */\n      dup6\n        /* \"#utility.yul\":2087:2158   */\n      tag_45\n      jump\t// in\n    tag_80:\n        /* \"#utility.yul\":2080:2158   */\n      swap4\n      pop\n        /* \"#utility.yul\":2167:2232   */\n      tag_81\n        /* \"#utility.yul\":2225:2231   */\n      dup2\n        /* \"#utility.yul\":2220:2223   */\n      dup6\n        /* \"#utility.yul\":2213:2217   */\n      0x20\n        /* \"#utility.yul\":2206:2211   */\n      dup7\n        /* \"#utility.yul\":2202:2218   */\n      add\n        /* \"#utility.yul\":2167:2232   */\n      tag_46\n      jump\t// in\n    tag_81:\n        /* \"#utility.yul\":2257:2286   */\n      tag_82\n        /* \"#utility.yul\":2279:2285   */\n      dup2\n        /* \"#utility.yul\":2257:2286   */\n      tag_47\n      jump\t// in\n    tag_82:\n        /* \"#utility.yul\":2252:2255   */\n      dup5\n        /* \"#utility.yul\":2248:2287   */\n      add\n        /* \"#utility.yul\":2241:2287   */\n      swap2\n      pop\n        /* \"#utility.yul\":2008:2293   */\n      pop\n        /* \"#utility.yul\":1916:2293   */\n      swap3\n      swap2\n      pop\n      pop\n      jump\t// out\n        /* \"#utility.yul\":2299:2722   */\n    tag_11:\n        /* \"#utility.yul\":2440:2444   */\n      0x00\n        /* \"#utility.yul\":2478:2480   */\n      0x40\n        /* \"#utility.yul\":2467:2476   */\n      dup3\n        /* \"#utility.yul\":2463:2481   */\n      add\n        /* \"#utility.yul\":2455:2481   */\n      swap1\n      pop\n        /* \"#utility.yul\":2491:2562   */\n      tag_84\n        /* \"#utility.yul\":2559:2560   */\n      0x00\n        /* \"#utility.yul\":2548:2557   */\n      dup4\n        /* \"#utility.yul\":2544:2561   */\n      add\n        /* \"#utility.yul\":2535:2541   */\n      dup6\n        /* \"#utility.yul\":2491:2562   */\n      tag_43\n      jump\t// in\n    tag_84:\n        /* \"#utility.yul\":2609:2618   */\n      dup2\n        /* \"#utility.yul\":2603:2607   */\n      dup2\n        /* \"#utility.yul\":2599:2619   */\n      sub\n        /* \"#utility.yul\":2594:2596   */\n      0x20\n        /* \"#utility.yul\":2583:2592   */\n      dup4\n        /* \"#utility.yul\":2579:2597   */\n      add\n        /* \"#utility.yul\":2572:2620   */\n      mstore\n        /* \"#utility.yul\":2637:2715   */\n      tag_85\n        /* \"#utility.yul\":2710:2714   */\n      dup2\n        /* \"#utility.yul\":2701:2707   */\n      dup5\n        /* \"#utility.yul\":2637:2715   */\n      tag_48\n      jump\t// in\n    tag_85:\n        /* \"#utility.yul\":2629:2715   */\n      swap1\n      pop\n        /* \"#utility.yul\":2299:2722   */\n      swap4\n      swap3\n      pop\n      pop\n      pop\n      jump\t// out\n        /* \"#utility.yul\":2728:2950   */\n    tag_15:\n        /* \"#utility.yul\":2821:2825   */\n      0x00\n        /* \"#utility.yul\":2859:2861   */\n      0x20\n        /* \"#utility.yul\":2848:2857   */\n      dup3\n        /* \"#utility.yul\":2844:2862   */\n      add\n        /* \"#utility.yul\":2836:2862   */\n      swap1\n      pop\n        /* \"#utility.yul\":2872:2943   */\n      tag_87\n        /* \"#utility.yul\":2940:2941   */\n      0x00\n        /* \"#utility.yul\":2929:2938   */\n      dup4\n        /* \"#utility.yul\":2925:2942   */\n      add\n        /* \"#utility.yul\":2916:2922   */\n      dup5\n        /* \"#utility.yul\":2872:2943   */\n      tag_43\n      jump\t// in\n    tag_87:\n        /* \"#utility.yul\":2728:2950   */\n      swap3\n      swap2\n      pop\n      pop\n      jump\t// out\n        /* \"#utility.yul\":2956:3043   */\n    tag_49:\n        /* \"#utility.yul\":3003:3010   */\n      0x00\n        /* \"#utility.yul\":3032:3037   */\n      dup2\n        /* \"#utility.yul\":3021:3037   */\n      swap1\n      pop\n        /* \"#utility.yul\":2956:3043   */\n      swap2\n      swap1\n      pop\n      jump\t// out\n        /* \"#utility.yul\":3049:3109   */\n    tag_50:\n        /* \"#utility.yul\":3077:3080   */\n      0x00\n        /* \"#utility.yul\":3098:3103   */\n      dup2\n        /* \"#utility.yul\":3091:3103   */\n      swap1\n      pop\n        /* \"#utility.yul\":3049:3109   */\n      swap2\n      swap1\n      pop\n      jump\t// out\n        /* \"#utility.yul\":3115:3277   */\n    tag_51:\n        /* \"#utility.yul\":3175:3184   */\n      0x00\n        /* \"#utility.yul\":3208:3271   */\n      tag_91\n        /* \"#utility.yul\":3226:3270   */\n      tag_92\n        /* \"#utility.yul\":3235:3269   */\n      tag_93\n        /* \"#utility.yul\":3263:3268   */\n      dup5\n        /* \"#utility.yul\":3235:3269   */\n      tag_49\n      jump\t// in\n    tag_93:\n        /* \"#utility.yul\":3226:3270   */\n      tag_50\n      jump\t// in\n    tag_92:\n        /* \"#utility.yul\":3208:3271   */\n      tag_42\n      jump\t// in\n    tag_91:\n        /* \"#utility.yul\":3195:3271   */\n      swap1\n      pop\n        /* \"#utility.yul\":3115:3277   */\n      swap2\n      swap1\n      pop\n      jump\t// out\n        /* \"#utility.yul\":3283:3434   */\n    tag_52:\n        /* \"#utility.yul\":3380:3427   */\n      tag_95\n        /* \"#utility.yul\":3421:3426   */\n      dup2\n        /* \"#utility.yul\":3380:3427   */\n      tag_51\n      jump\t// in\n    tag_95:\n        /* \"#utility.yul\":3375:3378   */\n      dup3\n        /* \"#utility.yul\":3368:3428   */\n      mstore\n        /* \"#utility.yul\":3283:3434   */\n      pop\n      pop\n      jump\t// out\n        /* \"#utility.yul\":3440:3682   */\n    tag_21:\n        /* \"#utility.yul\":3543:3547   */\n      0x00\n        /* \"#utility.yul\":3581:3583   */\n      0x20\n        /* \"#utility.yul\":3570:3579   */\n      dup3\n        /* \"#utility.yul\":3566:3584   */\n      add\n        /* \"#utility.yul\":3558:3584   */\n      swap1\n      pop\n        /* \"#utility.yul\":3594:3675   */\n      tag_97\n        /* \"#utility.yul\":3672:3673   */\n      0x00\n        /* \"#utility.yul\":3661:3670   */\n      dup4\n        /* \"#utility.yul\":3657:3674   */\n      add\n        /* \"#utility.yul\":3648:3654   */\n      dup5\n        /* \"#utility.yul\":3594:3675   */\n      tag_52\n      jump\t// in\n    tag_97:\n        /* \"#utility.yul\":3440:3682   */\n      swap3\n      swap2\n      pop\n      pop\n      jump\t// out\n        /* \"#utility.yul\":3688:3810   */\n    tag_53:\n        /* \"#utility.yul\":3761:3785   */\n      tag_99\n        /* \"#utility.yul\":3779:3784   */\n      dup2\n        /* \"#utility.yul\":3761:3785   */\n      tag_42\n      jump\t// in\n    tag_99:\n        /* \"#utility.yul\":3754:3759   */\n      dup2\n        /* \"#utility.yul\":3751:3786   */\n      eq\n        /* \"#utility.yul\":3741:3804   */\n      tag_100\n      jumpi\n        /* \"#utility.yul\":3800:3801   */\n      0x00\n        /* \"#utility.yul\":3797:3798   */\n      dup1\n        /* \"#utility.yul\":3790:3802   */\n      revert\n        /* \"#utility.yul\":3741:3804   */\n    tag_100:\n        /* \"#utility.yul\":3688:3810   */\n      pop\n      jump\t// out\n        /* \"#utility.yul\":3816:3959   */\n    tag_54:\n        /* \"#utility.yul\":3873:3878   */\n      0x00\n        /* \"#utility.yul\":3904:3910   */\n      dup2\n        /* \"#utility.yul\":3898:3911   */\n      mload\n        /* \"#utility.yul\":3889:3911   */\n      swap1\n      pop\n        /* \"#utility.yul\":3920:3953   */\n      tag_102\n        /* \"#utility.yul\":3947:3952   */\n      dup2\n        /* \"#utility.yul\":3920:3953   */\n      tag_53\n      jump\t// in\n    tag_102:\n        /* \"#utility.yul\":3816:3959   */\n      swap3\n      swap2\n      pop\n      pop\n      jump\t// out\n        /* \"#utility.yul\":3965:4316   */\n    tag_24:\n        /* \"#utility.yul\":4035:4041   */\n      0x00\n        /* \"#utility.yul\":4084:4086   */\n      0x20\n        /* \"#utility.yul\":4072:4081   */\n      dup3\n        /* \"#utility.yul\":4063:4070   */\n      dup5\n        /* \"#utility.yul\":4059:4082   */\n      sub\n        /* \"#utility.yul\":4055:4087   */\n      slt\n        /* \"#utility.yul\":4052:4171   */\n      iszero\n      tag_104\n      jumpi\n        /* \"#utility.yul\":4090:4169   */\n      tag_105\n      tag_36\n      jump\t// in\n    tag_105:\n        /* \"#utility.yul\":4052:4171   */\n    tag_104:\n        /* \"#utility.yul\":4210:4211   */\n      0x00\n        /* \"#utility.yul\":4235:4299   */\n      tag_106\n        /* \"#utility.yul\":4291:4298   */\n      dup5\n        /* \"#utility.yul\":4282:4288   */\n      dup3\n        /* \"#utility.yul\":4271:4280   */\n      dup6\n        /* \"#utility.yul\":4267:4289   */\n      add\n        /* \"#utility.yul\":4235:4299   */\n      tag_54\n      jump\t// in\n    tag_106:\n        /* \"#utility.yul\":4225:4299   */\n      swap2\n      pop\n        /* \"#utility.yul\":4181:4309   */\n      pop\n        /* \"#utility.yul\":3965:4316   */\n      swap3\n      swap2\n      pop\n      pop\n      jump\t// out\n\n    auxdata: 0xa2646970667358221220fc063384d9b1fe2c33c5df3ad777650942e4496d15ceb0a6d7ee45a6b8beb58e64736f6c634300081a0033\n}\n\nsub_1: assembly {\n        /* \"Condition.sol\":58:853  contract Condition {... */\n      mstore(0x40, 0x80)\n        /* \"Condition.sol\":100:102  10 */\n      0x0a\n        /* \"Condition.sol\":84:102  uint public a = 10 */\n      0x00\n      sstore\n        /* \"Condition.sol\":141:143  20 */\n      0x14\n        /* \"Condition.sol\":123:143  uint internal b = 20 */\n      0x01\n      sstore\n        /* \"Condition.sol\":181:183  30 */\n      0x1e\n        /* \"Condition.sol\":164:183  uint private c = 30 */\n      0x02\n      sstore\n        /* \"Condition.sol\":58:853  contract Condition {... */\n      callvalue\n      dup1\n      iszero\n      tag_1\n      jumpi\n      0x00\n      dup1\n      revert\n    tag_1:\n      pop\n      dataSize(sub_0)\n      dup1\n      dataOffset(sub_0)\n      0x00\n      codecopy\n      0x00\n      return\n    stop\n\n    sub_0: assembly {\n            /* \"Condition.sol\":58:853  contract Condition {... */\n          mstore(0x40, 0x80)\n          callvalue\n          dup1\n          iszero\n          tag_1\n          jumpi\n          0x00\n          dup1\n          revert\n        tag_1:\n          pop\n          jumpi(tag_2, lt(calldatasize, 0x04))\n          shr(0xe0, calldataload(0x00))\n          dup1\n          0x0dbe671f\n          eq\n          tag_3\n          jumpi\n          dup1\n          0x71dd626b\n          eq\n          tag_4\n          jumpi\n          dup1\n          0x7446b6b0\n          eq\n          tag_5\n          jumpi\n          dup1\n          0x925ea78d\n          eq\n          tag_6\n          jumpi\n          dup1\n          0xeccbd4c2\n          eq\n          tag_7\n          jumpi\n        tag_2:\n          0x00\n          dup1\n          revert\n            /* \"Condition.sol\":84:102  uint public a = 10 */\n        tag_3:\n          tag_8\n          tag_9\n          jump\t// in\n        tag_8:\n          mload(0x40)\n          tag_10\n          swap2\n          swap1\n          tag_11\n          jump\t// in\n        tag_10:\n          mload(0x40)\n          dup1\n          swap2\n          sub\n          swap1\n          return\n            /* \"Condition.sol\":248:331  function testA() public returns (uint){... */\n        tag_4:\n          tag_12\n          tag_13\n          jump\t// in\n        tag_12:\n          mload(0x40)\n          tag_14\n          swap2\n          swap1\n          tag_11\n          jump\t// in\n        tag_14:\n          mload(0x40)\n          dup1\n          swap2\n          sub\n          swap1\n          return\n            /* \"Condition.sol\":643:842  function sumByFor(uint256 n) public pure returns (uint256 sum) {... */\n        tag_5:\n          tag_15\n          0x04\n          dup1\n          calldatasize\n          sub\n          dup2\n          add\n          swap1\n          tag_16\n          swap2\n          swap1\n          tag_17\n          jump\t// in\n        tag_16:\n          tag_18\n          jump\t// in\n        tag_15:\n          mload(0x40)\n          tag_19\n          swap2\n          swap1\n          tag_11\n          jump\t// in\n        tag_19:\n          mload(0x40)\n          dup1\n          swap2\n          sub\n          swap1\n          return\n            /* \"Condition.sol\":382:465  function testB() public returns (uint){... */\n        tag_6:\n          tag_20\n          tag_21\n          jump\t// in\n        tag_20:\n          mload(0x40)\n          tag_22\n          swap2\n          swap1\n          tag_11\n          jump\t// in\n        tag_22:\n          mload(0x40)\n          dup1\n          swap2\n          sub\n          swap1\n          return\n            /* \"Condition.sol\":516:599  function testC() public returns (uint){... */\n        tag_7:\n          tag_23\n          tag_24\n          jump\t// in\n        tag_23:\n          mload(0x40)\n          tag_25\n          swap2\n          swap1\n          tag_11\n          jump\t// in\n        tag_25:\n          mload(0x40)\n          dup1\n          swap2\n          sub\n          swap1\n          return\n            /* \"Condition.sol\":84:102  uint public a = 10 */\n        tag_9:\n          sload(0x00)\n          dup2\n          jump\t// out\n            /* \"Condition.sol\":248:331  function testA() public returns (uint){... */\n        tag_13:\n            /* \"Condition.sol\":281:285  uint */\n          0x00\n            /* \"Condition.sol\":301:304  101 */\n          0x65\n            /* \"Condition.sol\":297:298  a */\n          0x00\n            /* \"Condition.sol\":297:304  a = 101 */\n          dup2\n          swap1\n          sstore\n          pop\n            /* \"Condition.sol\":322:323  a */\n          sload(0x00)\n            /* \"Condition.sol\":315:323  return a */\n          swap1\n          pop\n            /* \"Condition.sol\":248:331  function testA() public returns (uint){... */\n          swap1\n          jump\t// out\n            /* \"Condition.sol\":643:842  function sumByFor(uint256 n) public pure returns (uint256 sum) {... */\n        tag_18:\n            /* \"Condition.sol\":693:704  uint256 sum */\n          0x00\n            /* \"Condition.sol\":722:731  uint256 i */\n          dup1\n            /* \"Condition.sol\":734:735  1 */\n          0x01\n            /* \"Condition.sol\":722:735  uint256 i = 1 */\n          swap1\n          pop\n            /* \"Condition.sol\":717:835  for (uint256 i = 1; i <= n; i++) {... */\n        tag_28:\n            /* \"Condition.sol\":742:743  n */\n          dup3\n            /* \"Condition.sol\":737:738  i */\n          dup2\n            /* \"Condition.sol\":737:743  i <= n */\n          gt\n            /* \"Condition.sol\":717:835  for (uint256 i = 1; i <= n; i++) {... */\n          tag_29\n          jumpi\n            /* \"Condition.sol\":778:779  0 */\n          0x00\n            /* \"Condition.sol\":773:774  2 */\n          0x02\n            /* \"Condition.sol\":769:770  i */\n          dup3\n            /* \"Condition.sol\":769:774  i % 2 */\n          tag_31\n          swap2\n          swap1\n          tag_32\n          jump\t// in\n        tag_31:\n            /* \"Condition.sol\":769:779  i % 2 != 0 */\n          eq\n            /* \"Condition.sol\":765:824  if (i % 2 != 0) {... */\n          tag_33\n          jumpi\n            /* \"Condition.sol\":807:808  i */\n          dup1\n            /* \"Condition.sol\":800:808  sum += i */\n          dup3\n          tag_34\n          swap2\n          swap1\n          tag_35\n          jump\t// in\n        tag_34:\n          swap2\n          pop\n            /* \"Condition.sol\":765:824  if (i % 2 != 0) {... */\n        tag_33:\n            /* \"Condition.sol\":745:748  i++ */\n          dup1\n          dup1\n          tag_36\n          swap1\n          tag_37\n          jump\t// in\n        tag_36:\n          swap2\n          pop\n          pop\n            /* \"Condition.sol\":717:835  for (uint256 i = 1; i <= n; i++) {... */\n          jump(tag_28)\n        tag_29:\n          pop\n            /* \"Condition.sol\":643:842  function sumByFor(uint256 n) public pure returns (uint256 sum) {... */\n          swap2\n          swap1\n          pop\n          jump\t// out\n            /* \"Condition.sol\":382:465  function testB() public returns (uint){... */\n        tag_21:\n            /* \"Condition.sol\":415:419  uint */\n          0x00\n            /* \"Condition.sol\":435:438  201 */\n          0xc9\n            /* \"Condition.sol\":431:432  b */\n          0x01\n            /* \"Condition.sol\":431:438  b = 201 */\n          dup2\n          swap1\n          sstore\n          pop\n            /* \"Condition.sol\":456:457  b */\n          sload(0x01)\n            /* \"Condition.sol\":449:457  return b */\n          swap1\n          pop\n            /* \"Condition.sol\":382:465  function testB() public returns (uint){... */\n          swap1\n          jump\t// out\n            /* \"Condition.sol\":516:599  function testC() public returns (uint){... */\n        tag_24:\n            /* \"Condition.sol\":549:553  uint */\n          0x00\n            /* \"Condition.sol\":569:572  301 */\n          0x012d\n            /* \"Condition.sol\":565:566  c */\n          0x02\n            /* \"Condition.sol\":565:572  c = 301 */\n          dup2\n          swap1\n          sstore\n          pop\n            /* \"Condition.sol\":590:591  c */\n          sload(0x02)\n            /* \"Condition.sol\":583:591  return c */\n          swap1\n          pop\n            /* \"Condition.sol\":516:599  function testC() public returns (uint){... */\n          swap1\n          jump\t// out\n            /* \"#utility.yul\":7:84   */\n        tag_40:\n            /* \"#utility.yul\":44:51   */\n          0x00\n            /* \"#utility.yul\":73:78   */\n          dup2\n            /* \"#utility.yul\":62:78   */\n          swap1\n          pop\n            /* \"#utility.yul\":7:84   */\n          swap2\n          swap1\n          pop\n          jump\t// out\n            /* \"#utility.yul\":90:208   */\n        tag_41:\n            /* \"#utility.yul\":177:201   */\n          tag_52\n            /* \"#utility.yul\":195:200   */\n          dup2\n            /* \"#utility.yul\":177:201   */\n          tag_40\n          jump\t// in\n        tag_52:\n            /* \"#utility.yul\":172:175   */\n          dup3\n            /* \"#utility.yul\":165:202   */\n          mstore\n            /* \"#utility.yul\":90:208   */\n          pop\n          pop\n          jump\t// out\n            /* \"#utility.yul\":214:436   */\n        tag_11:\n            /* \"#utility.yul\":307:311   */\n          0x00\n            /* \"#utility.yul\":345:347   */\n          0x20\n            /* \"#utility.yul\":334:343   */\n          dup3\n            /* \"#utility.yul\":330:348   */\n          add\n            /* \"#utility.yul\":322:348   */\n          swap1\n          pop\n            /* \"#utility.yul\":358:429   */\n          tag_54\n            /* \"#utility.yul\":426:427   */\n          0x00\n            /* \"#utility.yul\":415:424   */\n          dup4\n            /* \"#utility.yul\":411:428   */\n          add\n            /* \"#utility.yul\":402:408   */\n          dup5\n            /* \"#utility.yul\":358:429   */\n          tag_41\n          jump\t// in\n        tag_54:\n            /* \"#utility.yul\":214:436   */\n          swap3\n          swap2\n          pop\n          pop\n          jump\t// out\n            /* \"#utility.yul\":523:640   */\n        tag_43:\n            /* \"#utility.yul\":632:633   */\n          0x00\n            /* \"#utility.yul\":629:630   */\n          dup1\n            /* \"#utility.yul\":622:634   */\n          revert\n            /* \"#utility.yul\":769:891   */\n        tag_45:\n            /* \"#utility.yul\":842:866   */\n          tag_59\n            /* \"#utility.yul\":860:865   */\n          dup2\n            /* \"#utility.yul\":842:866   */\n          tag_40\n          jump\t// in\n        tag_59:\n            /* \"#utility.yul\":835:840   */\n          dup2\n            /* \"#utility.yul\":832:867   */\n          eq\n            /* \"#utility.yul\":822:885   */\n          tag_60\n          jumpi\n            /* \"#utility.yul\":881:882   */\n          0x00\n            /* \"#utility.yul\":878:879   */\n          dup1\n            /* \"#utility.yul\":871:883   */\n          revert\n            /* \"#utility.yul\":822:885   */\n        tag_60:\n            /* \"#utility.yul\":769:891   */\n          pop\n          jump\t// out\n            /* \"#utility.yul\":897:1036   */\n        tag_46:\n            /* \"#utility.yul\":943:948   */\n          0x00\n            /* \"#utility.yul\":981:987   */\n          dup2\n            /* \"#utility.yul\":968:988   */\n          calldataload\n            /* \"#utility.yul\":959:988   */\n          swap1\n          pop\n            /* \"#utility.yul\":997:1030   */\n          tag_62\n            /* \"#utility.yul\":1024:1029   */\n          dup2\n            /* \"#utility.yul\":997:1030   */\n          tag_45\n          jump\t// in\n        tag_62:\n            /* \"#utility.yul\":897:1036   */\n          swap3\n          swap2\n          pop\n          pop\n          jump\t// out\n            /* \"#utility.yul\":1042:1371   */\n        tag_17:\n            /* \"#utility.yul\":1101:1107   */\n          0x00\n            /* \"#utility.yul\":1150:1152   */\n          0x20\n            /* \"#utility.yul\":1138:1147   */\n          dup3\n            /* \"#utility.yul\":1129:1136   */\n          dup5\n            /* \"#utility.yul\":1125:1148   */\n          sub\n            /* \"#utility.yul\":1121:1153   */\n          slt\n            /* \"#utility.yul\":1118:1237   */\n          iszero\n          tag_64\n          jumpi\n            /* \"#utility.yul\":1156:1235   */\n          tag_65\n          tag_43\n          jump\t// in\n        tag_65:\n            /* \"#utility.yul\":1118:1237   */\n        tag_64:\n            /* \"#utility.yul\":1276:1277   */\n          0x00\n            /* \"#utility.yul\":1301:1354   */\n          tag_66\n            /* \"#utility.yul\":1346:1353   */\n          dup5\n            /* \"#utility.yul\":1337:1343   */\n          dup3\n            /* \"#utility.yul\":1326:1335   */\n          dup6\n            /* \"#utility.yul\":1322:1344   */\n          add\n            /* \"#utility.yul\":1301:1354   */\n          tag_46\n          jump\t// in\n        tag_66:\n            /* \"#utility.yul\":1291:1354   */\n          swap2\n          pop\n            /* \"#utility.yul\":1247:1364   */\n          pop\n            /* \"#utility.yul\":1042:1371   */\n          swap3\n          swap2\n          pop\n          pop\n          jump\t// out\n            /* \"#utility.yul\":1377:1557   */\n        tag_47:\n            /* \"#utility.yul\":1425:1502   */\n          0x4e487b7100000000000000000000000000000000000000000000000000000000\n            /* \"#utility.yul\":1422:1423   */\n          0x00\n            /* \"#utility.yul\":1415:1503   */\n          mstore\n            /* \"#utility.yul\":1522:1526   */\n          0x12\n            /* \"#utility.yul\":1519:1520   */\n          0x04\n            /* \"#utility.yul\":1512:1527   */\n          mstore\n            /* \"#utility.yul\":1546:1550   */\n          0x24\n            /* \"#utility.yul\":1543:1544   */\n          0x00\n            /* \"#utility.yul\":1536:1551   */\n          revert\n            /* \"#utility.yul\":1563:1739   */\n        tag_32:\n            /* \"#utility.yul\":1595:1596   */\n          0x00\n            /* \"#utility.yul\":1612:1632   */\n          tag_69\n            /* \"#utility.yul\":1630:1631   */\n          dup3\n            /* \"#utility.yul\":1612:1632   */\n          tag_40\n          jump\t// in\n        tag_69:\n            /* \"#utility.yul\":1607:1632   */\n          swap2\n          pop\n            /* \"#utility.yul\":1646:1666   */\n          tag_70\n            /* \"#utility.yul\":1664:1665   */\n          dup4\n            /* \"#utility.yul\":1646:1666   */\n          tag_40\n          jump\t// in\n        tag_70:\n            /* \"#utility.yul\":1641:1666   */\n          swap3\n          pop\n            /* \"#utility.yul\":1685:1686   */\n          dup3\n            /* \"#utility.yul\":1675:1710   */\n          tag_71\n          jumpi\n            /* \"#utility.yul\":1690:1708   */\n          tag_72\n          tag_47\n          jump\t// in\n        tag_72:\n            /* \"#utility.yul\":1675:1710   */\n        tag_71:\n            /* \"#utility.yul\":1731:1732   */\n          dup3\n            /* \"#utility.yul\":1728:1729   */\n          dup3\n            /* \"#utility.yul\":1724:1733   */\n          mod\n            /* \"#utility.yul\":1719:1733   */\n          swap1\n          pop\n            /* \"#utility.yul\":1563:1739   */\n          swap3\n          swap2\n          pop\n          pop\n          jump\t// out\n            /* \"#utility.yul\":1745:1925   */\n        tag_48:\n            /* \"#utility.yul\":1793:1870   */\n          0x4e487b7100000000000000000000000000000000000000000000000000000000\n            /* \"#utility.yul\":1790:1791   */\n          0x00\n            /* \"#utility.yul\":1783:1871   */\n          mstore\n            /* \"#utility.yul\":1890:1894   */\n          0x11\n            /* \"#utility.yul\":1887:1888   */\n          0x04\n            /* \"#utility.yul\":1880:1895   */\n          mstore\n            /* \"#utility.yul\":1914:1918   */\n          0x24\n            /* \"#utility.yul\":1911:1912   */\n          0x00\n            /* \"#utility.yul\":1904:1919   */\n          revert\n            /* \"#utility.yul\":1931:2122   */\n        tag_35:\n            /* \"#utility.yul\":1971:1974   */\n          0x00\n            /* \"#utility.yul\":1990:2010   */\n          tag_75\n            /* \"#utility.yul\":2008:2009   */\n          dup3\n            /* \"#utility.yul\":1990:2010   */\n          tag_40\n          jump\t// in\n        tag_75:\n            /* \"#utility.yul\":1985:2010   */\n          swap2\n          pop\n            /* \"#utility.yul\":2024:2044   */\n          tag_76\n            /* \"#utility.yul\":2042:2043   */\n          dup4\n            /* \"#utility.yul\":2024:2044   */\n          tag_40\n          jump\t// in\n        tag_76:\n            /* \"#utility.yul\":2019:2044   */\n          swap3\n          pop\n            /* \"#utility.yul\":2067:2068   */\n          dup3\n            /* \"#utility.yul\":2064:2065   */\n          dup3\n            /* \"#utility.yul\":2060:2069   */\n          add\n            /* \"#utility.yul\":2053:2069   */\n          swap1\n          pop\n            /* \"#utility.yul\":2088:2091   */\n          dup1\n            /* \"#utility.yul\":2085:2086   */\n          dup3\n            /* \"#utility.yul\":2082:2092   */\n          gt\n            /* \"#utility.yul\":2079:2115   */\n          iszero\n          tag_77\n          jumpi\n            /* \"#utility.yul\":2095:2113   */\n          tag_78\n          tag_48\n          jump\t// in\n        tag_78:\n            /* \"#utility.yul\":2079:2115   */\n        tag_77:\n            /* \"#utility.yul\":1931:2122   */\n          swap3\n          swap2\n          pop\n          pop\n          jump\t// out\n            /* \"#utility.yul\":2128:2361   */\n        tag_37:\n            /* \"#utility.yul\":2167:2170   */\n          0x00\n            /* \"#utility.yul\":2190:2214   */\n          tag_80\n            /* \"#utility.yul\":2208:2213   */\n          dup3\n            /* \"#utility.yul\":2190:2214   */\n          tag_40\n          jump\t// in\n        tag_80:\n            /* \"#utility.yul\":2181:2214   */\n          swap2\n          pop\n            /* \"#utility.yul\":2236:2302   */\n          0xffffffffffffffffffffffffffffffffffffffffffffffffffffffffffffffff\n            /* \"#utility.yul\":2229:2234   */\n          dup3\n            /* \"#utility.yul\":2226:2303   */\n          sub\n            /* \"#utility.yul\":2223:2326   */\n          tag_81\n          jumpi\n            /* \"#utility.yul\":2306:2324   */\n          tag_82\n          tag_48\n          jump\t// in\n        tag_82:\n            /* \"#utility.yul\":2223:2326   */\n        tag_81:\n            /* \"#utility.yul\":2353:2354   */\n          0x01\n            /* \"#utility.yul\":2346:2351   */\n          dup3\n            /* \"#utility.yul\":2342:2355   */\n          add\n            /* \"#utility.yul\":2335:2355   */\n          swap1\n          pop\n            /* \"#utility.yul\":2128:2361   */\n          swap2\n          swap1\n          pop\n          jump\t// out\n\n        auxdata: 0xa2646970667358221220acf0f11b97eac41190ff1bb443cd909dba7768978a9d7a0d241fc2095d23e9f364736f6c634300081a0033\n    }\n}\n",
				"bytecode": {
					"linkReferences": {},
					"object": "6080604052604051600e906074565b604051809103905ff0801580156026573d5f803e3d5ffd5b505f806101000a81548173ffffffffffffffffffffffffffffffffffffffff021916908373ffffffffffffffffffffffffffffffffffffffff160217905550348015606f575f80fd5b506081565b61036f8061051083390190565b6104828061008e5f395ff3fe608060405234801561000f575f80fd5b506004361061003f575f3560e01c80636ba95cf51461004357806383d7994014610074578063f0d061b414610092575b5f80fd5b61005d600480360381019061005891906102a2565b6100b0565b60405161006b929190610355565b60405180910390f35b61007c6101ad565b6040516100899190610383565b60405180910390f35b61009a610240565b6040516100a79190610383565b60405180910390f35b5f60608273ffffffffffffffffffffffffffffffffffffffff16637446b6b060646040518263ffffffff1660e01b81526004016100ed91906103de565b602060405180830381865afa92505050801561012757506040513d601f19601f820116820180604052508101906101249190610421565b60015b61016b575f6040518060400160405280600481526020017f6661696c00000000000000000000000000000000000000000000000000000000815250915091506101a8565b806040518060400160405280600781526020017f737563636573730000000000000000000000000000000000000000000000000081525092509250505b915091565b5f805f9054906101000a900473ffffffffffffffffffffffffffffffffffffffff1673ffffffffffffffffffffffffffffffffffffffff16630dbe671f6040518163ffffffff1660e01b8152600401602060405180830381865afa158015610217573d5f803e3d5ffd5b505050506040513d601f19601f8201168201806040525081019061023b9190610421565b905090565b5f90565b5f80fd5b5f73ffffffffffffffffffffffffffffffffffffffff82169050919050565b5f61027182610248565b9050919050565b61028181610267565b811461028b575f80fd5b50565b5f8135905061029c81610278565b92915050565b5f602082840312156102b7576102b6610244565b5b5f6102c48482850161028e565b91505092915050565b5f819050919050565b6102df816102cd565b82525050565b5f81519050919050565b5f82825260208201905092915050565b8281835e5f83830152505050565b5f601f19601f8301169050919050565b5f610327826102e5565b61033181856102ef565b93506103418185602086016102ff565b61034a8161030d565b840191505092915050565b5f6040820190506103685f8301856102d6565b818103602083015261037a818461031d565b90509392505050565b5f6020820190506103965f8301846102d6565b92915050565b5f819050919050565b5f819050919050565b5f6103c86103c36103be8461039c565b6103a5565b6102cd565b9050919050565b6103d8816103ae565b82525050565b5f6020820190506103f15f8301846103cf565b92915050565b610400816102cd565b811461040a575f80fd5b50565b5f8151905061041b816103f7565b92915050565b5f6020828403121561043657610435610244565b5b5f6104438482850161040d565b9150509291505056fea2646970667358221220fc063384d9b1fe2c33c5df3ad777650942e4496d15ceb0a6d7ee45a6b8beb58e64736f6c634300081a00336080604052600a5f556014600155601e600255348015601c575f80fd5b506103458061002a5f395ff3fe608060405234801561000f575f80fd5b5060043610610055575f3560e01c80630dbe671f1461005957806371dd626b146100775780637446b6b014610095578063925ea78d146100c5578063eccbd4c2146100e3575b5f80fd5b610061610101565b60405161006e9190610199565b60405180910390f35b61007f610106565b60405161008c9190610199565b60405180910390f35b6100af60048036038101906100aa91906101e0565b610115565b6040516100bc9190610199565b60405180910390f35b6100cd61015e565b6040516100da9190610199565b60405180910390f35b6100eb61016f565b6040516100f89190610199565b60405180910390f35b5f5481565b5f60655f819055505f54905090565b5f80600190505b828111610158575f6002826101319190610238565b146101455780826101429190610295565b91505b8080610150906102c8565b91505061011c565b50919050565b5f60c9600181905550600154905090565b5f61012d600281905550600254905090565b5f819050919050565b61019381610181565b82525050565b5f6020820190506101ac5f83018461018a565b92915050565b5f80fd5b6101bf81610181565b81146101c9575f80fd5b50565b5f813590506101da816101b6565b92915050565b5f602082840312156101f5576101f46101b2565b5b5f610202848285016101cc565b91505092915050565b7f4e487b71000000000000000000000000000000000000000000000000000000005f52601260045260245ffd5b5f61024282610181565b915061024d83610181565b92508261025d5761025c61020b565b5b828206905092915050565b7f4e487b71000000000000000000000000000000000000000000000000000000005f52601160045260245ffd5b5f61029f82610181565b91506102aa83610181565b92508282019050808211156102c2576102c1610268565b5b92915050565b5f6102d282610181565b91507fffffffffffffffffffffffffffffffffffffffffffffffffffffffffffffffff820361030457610303610268565b5b60018201905091905056fea2646970667358221220acf0f11b97eac41190ff1bb443cd909dba7768978a9d7a0d241fc2095d23e9f364736f6c634300081a0033",
					"opcodes": "PUSH1 0x80 PUSH1 0x40 MSTORE PUSH1 0x40 MLOAD PUSH1 0xE SWAP1 PUSH1 0x74 JUMP JUMPDEST PUSH1 0x40 MLOAD DUP1 SWAP2 SUB SWAP1 PUSH0 CREATE DUP1 ISZERO DUP1 ISZERO PUSH1 0x26 JUMPI RETURNDATASIZE PUSH0 DUP1 RETURNDATACOPY RETURNDATASIZE PUSH0 REVERT JUMPDEST POP PUSH0 DUP1 PUSH2 0x100 EXP DUP2 SLOAD DUP2 PUSH20 0xFFFFFFFFFFFFFFFFFFFFFFFFFFFFFFFFFFFFFFFF MUL NOT AND SWAP1 DUP4 PUSH20 0xFFFFFFFFFFFFFFFFFFFFFFFFFFFFFFFFFFFFFFFF AND MUL OR SWAP1 SSTORE POP CALLVALUE DUP1 ISZERO PUSH1 0x6F JUMPI PUSH0 DUP1 REVERT JUMPDEST POP PUSH1 0x81 JUMP JUMPDEST PUSH2 0x36F DUP1 PUSH2 0x510 DUP4 CODECOPY ADD SWAP1 JUMP JUMPDEST PUSH2 0x482 DUP1 PUSH2 0x8E PUSH0 CODECOPY PUSH0 RETURN INVALID PUSH1 0x80 PUSH1 0x40 MSTORE CALLVALUE DUP1 ISZERO PUSH2 0xF JUMPI PUSH0 DUP1 REVERT JUMPDEST POP PUSH1 0x4 CALLDATASIZE LT PUSH2 0x3F JUMPI PUSH0 CALLDATALOAD PUSH1 0xE0 SHR DUP1 PUSH4 0x6BA95CF5 EQ PUSH2 0x43 JUMPI DUP1 PUSH4 0x83D79940 EQ PUSH2 0x74 JUMPI DUP1 PUSH4 0xF0D061B4 EQ PUSH2 0x92 JUMPI JUMPDEST PUSH0 DUP1 REVERT JUMPDEST PUSH2 0x5D PUSH1 0x4 DUP1 CALLDATASIZE SUB DUP2 ADD SWAP1 PUSH2 0x58 SWAP2 SWAP1 PUSH2 0x2A2 JUMP JUMPDEST PUSH2 0xB0 JUMP JUMPDEST PUSH1 0x40 MLOAD PUSH2 0x6B SWAP3 SWAP2 SWAP1 PUSH2 0x355 JUMP JUMPDEST PUSH1 0x40 MLOAD DUP1 SWAP2 SUB SWAP1 RETURN JUMPDEST PUSH2 0x7C PUSH2 0x1AD JUMP JUMPDEST PUSH1 0x40 MLOAD PUSH2 0x89 SWAP2 SWAP1 PUSH2 0x383 JUMP JUMPDEST PUSH1 0x40 MLOAD DUP1 SWAP2 SUB SWAP1 RETURN JUMPDEST PUSH2 0x9A PUSH2 0x240 JUMP JUMPDEST PUSH1 0x40 MLOAD PUSH2 0xA7 SWAP2 SWAP1 PUSH2 0x383 JUMP JUMPDEST PUSH1 0x40 MLOAD DUP1 SWAP2 SUB SWAP1 RETURN JUMPDEST PUSH0 PUSH1 0x60 DUP3 PUSH20 0xFFFFFFFFFFFFFFFFFFFFFFFFFFFFFFFFFFFFFFFF AND PUSH4 0x7446B6B0 PUSH1 0x64 PUSH1 0x40 MLOAD DUP3 PUSH4 0xFFFFFFFF AND PUSH1 0xE0 SHL DUP2 MSTORE PUSH1 0x4 ADD PUSH2 0xED SWAP2 SWAP1 PUSH2 0x3DE JUMP JUMPDEST PUSH1 0x20 PUSH1 0x40 MLOAD DUP1 DUP4 SUB DUP2 DUP7 GAS STATICCALL SWAP3 POP POP POP DUP1 ISZERO PUSH2 0x127 JUMPI POP PUSH1 0x40 MLOAD RETURNDATASIZE PUSH1 0x1F NOT PUSH1 0x1F DUP3 ADD AND DUP3 ADD DUP1 PUSH1 0x40 MSTORE POP DUP2 ADD SWAP1 PUSH2 0x124 SWAP2 SWAP1 PUSH2 0x421 JUMP JUMPDEST PUSH1 0x1 JUMPDEST PUSH2 0x16B JUMPI PUSH0 PUSH1 0x40 MLOAD DUP1 PUSH1 0x40 ADD PUSH1 0x40 MSTORE DUP1 PUSH1 0x4 DUP2 MSTORE PUSH1 0x20 ADD PUSH32 0x6661696C00000000000000000000000000000000000000000000000000000000 DUP2 MSTORE POP SWAP2 POP SWAP2 POP PUSH2 0x1A8 JUMP JUMPDEST DUP1 PUSH1 0x40 MLOAD DUP1 PUSH1 0x40 ADD PUSH1 0x40 MSTORE DUP1 PUSH1 0x7 DUP2 MSTORE PUSH1 0x20 ADD PUSH32 0x7375636365737300000000000000000000000000000000000000000000000000 DUP2 MSTORE POP SWAP3 POP SWAP3 POP POP JUMPDEST SWAP2 POP SWAP2 JUMP JUMPDEST PUSH0 DUP1 PUSH0 SWAP1 SLOAD SWAP1 PUSH2 0x100 EXP SWAP1 DIV PUSH20 0xFFFFFFFFFFFFFFFFFFFFFFFFFFFFFFFFFFFFFFFF AND PUSH20 0xFFFFFFFFFFFFFFFFFFFFFFFFFFFFFFFFFFFFFFFF AND PUSH4 0xDBE671F PUSH1 0x40 MLOAD DUP2 PUSH4 0xFFFFFFFF AND PUSH1 0xE0 SHL DUP2 MSTORE PUSH1 0x4 ADD PUSH1 0x20 PUSH1 0x40 MLOAD DUP1 DUP4 SUB DUP2 DUP7 GAS STATICCALL ISZERO DUP1 ISZERO PUSH2 0x217 JUMPI RETURNDATASIZE PUSH0 DUP1 RETURNDATACOPY RETURNDATASIZE PUSH0 REVERT JUMPDEST POP POP POP POP PUSH1 0x40 MLOAD RETURNDATASIZE PUSH1 0x1F NOT PUSH1 0x1F DUP3 ADD AND DUP3 ADD DUP1 PUSH1 0x40 MSTORE POP DUP2 ADD SWAP1 PUSH2 0x23B SWAP2 SWAP1 PUSH2 0x421 JUMP JUMPDEST SWAP1 POP SWAP1 JUMP JUMPDEST PUSH0 SWAP1 JUMP JUMPDEST PUSH0 DUP1 REVERT JUMPDEST PUSH0 PUSH20 0xFFFFFFFFFFFFFFFFFFFFFFFFFFFFFFFFFFFFFFFF DUP3 AND SWAP1 POP SWAP2 SWAP1 POP JUMP JUMPDEST PUSH0 PUSH2 0x271 DUP3 PUSH2 0x248 JUMP JUMPDEST SWAP1 POP SWAP2 SWAP1 POP JUMP JUMPDEST PUSH2 0x281 DUP2 PUSH2 0x267 JUMP JUMPDEST DUP2 EQ PUSH2 0x28B JUMPI PUSH0 DUP1 REVERT JUMPDEST POP JUMP JUMPDEST PUSH0 DUP2 CALLDATALOAD SWAP1 POP PUSH2 0x29C DUP2 PUSH2 0x278 JUMP JUMPDEST SWAP3 SWAP2 POP POP JUMP JUMPDEST PUSH0 PUSH1 0x20 DUP3 DUP5 SUB SLT ISZERO PUSH2 0x2B7 JUMPI PUSH2 0x2B6 PUSH2 0x244 JUMP JUMPDEST JUMPDEST PUSH0 PUSH2 0x2C4 DUP5 DUP3 DUP6 ADD PUSH2 0x28E JUMP JUMPDEST SWAP2 POP POP SWAP3 SWAP2 POP POP JUMP JUMPDEST PUSH0 DUP2 SWAP1 POP SWAP2 SWAP1 POP JUMP JUMPDEST PUSH2 0x2DF DUP2 PUSH2 0x2CD JUMP JUMPDEST DUP3 MSTORE POP POP JUMP JUMPDEST PUSH0 DUP2 MLOAD SWAP1 POP SWAP2 SWAP1 POP JUMP JUMPDEST PUSH0 DUP3 DUP3 MSTORE PUSH1 0x20 DUP3 ADD SWAP1 POP SWAP3 SWAP2 POP POP JUMP JUMPDEST DUP3 DUP2 DUP4 MCOPY PUSH0 DUP4 DUP4 ADD MSTORE POP POP POP JUMP JUMPDEST PUSH0 PUSH1 0x1F NOT PUSH1 0x1F DUP4 ADD AND SWAP1 POP SWAP2 SWAP1 POP JUMP JUMPDEST PUSH0 PUSH2 0x327 DUP3 PUSH2 0x2E5 JUMP JUMPDEST PUSH2 0x331 DUP2 DUP6 PUSH2 0x2EF JUMP JUMPDEST SWAP4 POP PUSH2 0x341 DUP2 DUP6 PUSH1 0x20 DUP7 ADD PUSH2 0x2FF JUMP JUMPDEST PUSH2 0x34A DUP2 PUSH2 0x30D JUMP JUMPDEST DUP5 ADD SWAP2 POP POP SWAP3 SWAP2 POP POP JUMP JUMPDEST PUSH0 PUSH1 0x40 DUP3 ADD SWAP1 POP PUSH2 0x368 PUSH0 DUP4 ADD DUP6 PUSH2 0x2D6 JUMP JUMPDEST DUP2 DUP2 SUB PUSH1 0x20 DUP4 ADD MSTORE PUSH2 0x37A DUP2 DUP5 PUSH2 0x31D JUMP JUMPDEST SWAP1 POP SWAP4 SWAP3 POP POP POP JUMP JUMPDEST PUSH0 PUSH1 0x20 DUP3 ADD SWAP1 POP PUSH2 0x396 PUSH0 DUP4 ADD DUP5 PUSH2 0x2D6 JUMP JUMPDEST SWAP3 SWAP2 POP POP JUMP JUMPDEST PUSH0 DUP2 SWAP1 POP SWAP2 SWAP1 POP JUMP JUMPDEST PUSH0 DUP2 SWAP1 POP SWAP2 SWAP1 POP JUMP JUMPDEST PUSH0 PUSH2 0x3C8 PUSH2 0x3C3 PUSH2 0x3BE DUP5 PUSH2 0x39C JUMP JUMPDEST PUSH2 0x3A5 JUMP JUMPDEST PUSH2 0x2CD JUMP JUMPDEST SWAP1 POP SWAP2 SWAP1 POP JUMP JUMPDEST PUSH2 0x3D8 DUP2 PUSH2 0x3AE JUMP JUMPDEST DUP3 MSTORE POP POP JUMP JUMPDEST PUSH0 PUSH1 0x20 DUP3 ADD SWAP1 POP PUSH2 0x3F1 PUSH0 DUP4 ADD DUP5 PUSH2 0x3CF JUMP JUMPDEST SWAP3 SWAP2 POP POP JUMP JUMPDEST PUSH2 0x400 DUP2 PUSH2 0x2CD JUMP JUMPDEST DUP2 EQ PUSH2 0x40A JUMPI PUSH0 DUP1 REVERT JUMPDEST POP JUMP JUMPDEST PUSH0 DUP2 MLOAD SWAP1 POP PUSH2 0x41B DUP2 PUSH2 0x3F7 JUMP JUMPDEST SWAP3 SWAP2 POP POP JUMP JUMPDEST PUSH0 PUSH1 0x20 DUP3 DUP5 SUB SLT ISZERO PUSH2 0x436 JUMPI PUSH2 0x435 PUSH2 0x244 JUMP JUMPDEST JUMPDEST PUSH0 PUSH2 0x443 DUP5 DUP3 DUP6 ADD PUSH2 0x40D JUMP JUMPDEST SWAP2 POP POP SWAP3 SWAP2 POP POP JUMP INVALID LOG2 PUSH5 0x6970667358 0x22 SLT KECCAK256 0xFC MOD CALLER DUP5 0xD9 0xB1 INVALID 0x2C CALLER 0xC5 0xDF GASPRICE 0xD7 PUSH24 0x650942E4496D15CEB0A6D7EE45A6B8BEB58E64736F6C6343 STOP ADDMOD BYTE STOP CALLER PUSH1 0x80 PUSH1 0x40 MSTORE PUSH1 0xA PUSH0 SSTORE PUSH1 0x14 PUSH1 0x1 SSTORE PUSH1 0x1E PUSH1 0x2 SSTORE CALLVALUE DUP1 ISZERO PUSH1 0x1C JUMPI PUSH0 DUP1 REVERT JUMPDEST POP PUSH2 0x345 DUP1 PUSH2 0x2A PUSH0 CODECOPY PUSH0 RETURN INVALID PUSH1 0x80 PUSH1 0x40 MSTORE CALLVALUE DUP1 ISZERO PUSH2 0xF JUMPI PUSH0 DUP1 REVERT JUMPDEST POP PUSH1 0x4 CALLDATASIZE LT PUSH2 0x55 JUMPI PUSH0 CALLDATALOAD PUSH1 0xE0 SHR DUP1 PUSH4 0xDBE671F EQ PUSH2 0x59 JUMPI DUP1 PUSH4 0x71DD626B EQ PUSH2 0x77 JUMPI DUP1 PUSH4 0x7446B6B0 EQ PUSH2 0x95 JUMPI DUP1 PUSH4 0x925EA78D EQ PUSH2 0xC5 JUMPI DUP1 PUSH4 0xECCBD4C2 EQ PUSH2 0xE3 JUMPI JUMPDEST PUSH0 DUP1 REVERT JUMPDEST PUSH2 0x61 PUSH2 0x101 JUMP JUMPDEST PUSH1 0x40 MLOAD PUSH2 0x6E SWAP2 SWAP1 PUSH2 0x199 JUMP JUMPDEST PUSH1 0x40 MLOAD DUP1 SWAP2 SUB SWAP1 RETURN JUMPDEST PUSH2 0x7F PUSH2 0x106 JUMP JUMPDEST PUSH1 0x40 MLOAD PUSH2 0x8C SWAP2 SWAP1 PUSH2 0x199 JUMP JUMPDEST PUSH1 0x40 MLOAD DUP1 SWAP2 SUB SWAP1 RETURN JUMPDEST PUSH2 0xAF PUSH1 0x4 DUP1 CALLDATASIZE SUB DUP2 ADD SWAP1 PUSH2 0xAA SWAP2 SWAP1 PUSH2 0x1E0 JUMP JUMPDEST PUSH2 0x115 JUMP JUMPDEST PUSH1 0x40 MLOAD PUSH2 0xBC SWAP2 SWAP1 PUSH2 0x199 JUMP JUMPDEST PUSH1 0x40 MLOAD DUP1 SWAP2 SUB SWAP1 RETURN JUMPDEST PUSH2 0xCD PUSH2 0x15E JUMP JUMPDEST PUSH1 0x40 MLOAD PUSH2 0xDA SWAP2 SWAP1 PUSH2 0x199 JUMP JUMPDEST PUSH1 0x40 MLOAD DUP1 SWAP2 SUB SWAP1 RETURN JUMPDEST PUSH2 0xEB PUSH2 0x16F JUMP JUMPDEST PUSH1 0x40 MLOAD PUSH2 0xF8 SWAP2 SWAP1 PUSH2 0x199 JUMP JUMPDEST PUSH1 0x40 MLOAD DUP1 SWAP2 SUB SWAP1 RETURN JUMPDEST PUSH0 SLOAD DUP2 JUMP JUMPDEST PUSH0 PUSH1 0x65 PUSH0 DUP2 SWAP1 SSTORE POP PUSH0 SLOAD SWAP1 POP SWAP1 JUMP JUMPDEST PUSH0 DUP1 PUSH1 0x1 SWAP1 POP JUMPDEST DUP3 DUP2 GT PUSH2 0x158 JUMPI PUSH0 PUSH1 0x2 DUP3 PUSH2 0x131 SWAP2 SWAP1 PUSH2 0x238 JUMP JUMPDEST EQ PUSH2 0x145 JUMPI DUP1 DUP3 PUSH2 0x142 SWAP2 SWAP1 PUSH2 0x295 JUMP JUMPDEST SWAP2 POP JUMPDEST DUP1 DUP1 PUSH2 0x150 SWAP1 PUSH2 0x2C8 JUMP JUMPDEST SWAP2 POP POP PUSH2 0x11C JUMP JUMPDEST POP SWAP2 SWAP1 POP JUMP JUMPDEST PUSH0 PUSH1 0xC9 PUSH1 0x1 DUP2 SWAP1 SSTORE POP PUSH1 0x1 SLOAD SWAP1 POP SWAP1 JUMP JUMPDEST PUSH0 PUSH2 0x12D PUSH1 0x2 DUP2 SWAP1 SSTORE POP PUSH1 0x2 SLOAD SWAP1 POP SWAP1 JUMP JUMPDEST PUSH0 DUP2 SWAP1 POP SWAP2 SWAP1 POP JUMP JUMPDEST PUSH2 0x193 DUP2 PUSH2 0x181 JUMP JUMPDEST DUP3 MSTORE POP POP JUMP JUMPDEST PUSH0 PUSH1 0x20 DUP3 ADD SWAP1 POP PUSH2 0x1AC PUSH0 DUP4 ADD DUP5 PUSH2 0x18A JUMP JUMPDEST SWAP3 SWAP2 POP POP JUMP JUMPDEST PUSH0 DUP1 REVERT JUMPDEST PUSH2 0x1BF DUP2 PUSH2 0x181 JUMP JUMPDEST DUP2 EQ PUSH2 0x1C9 JUMPI PUSH0 DUP1 REVERT JUMPDEST POP JUMP JUMPDEST PUSH0 DUP2 CALLDATALOAD SWAP1 POP PUSH2 0x1DA DUP2 PUSH2 0x1B6 JUMP JUMPDEST SWAP3 SWAP2 POP POP JUMP JUMPDEST PUSH0 PUSH1 0x20 DUP3 DUP5 SUB SLT ISZERO PUSH2 0x1F5 JUMPI PUSH2 0x1F4 PUSH2 0x1B2 JUMP JUMPDEST JUMPDEST PUSH0 PUSH2 0x202 DUP5 DUP3 DUP6 ADD PUSH2 0x1CC JUMP JUMPDEST SWAP2 POP POP SWAP3 SWAP2 POP POP JUMP JUMPDEST PUSH32 0x4E487B7100000000000000000000000000000000000000000000000000000000 PUSH0 MSTORE PUSH1 0x12 PUSH1 0x4 MSTORE PUSH1 0x24 PUSH0 REVERT JUMPDEST PUSH0 PUSH2 0x242 DUP3 PUSH2 0x181 JUMP JUMPDEST SWAP2 POP PUSH2 0x24D DUP4 PUSH2 0x181 JUMP JUMPDEST SWAP3 POP DUP3 PUSH2 0x25D JUMPI PUSH2 0x25C PUSH2 0x20B JUMP JUMPDEST JUMPDEST DUP3 DUP3 MOD SWAP1 POP SWAP3 SWAP2 POP POP JUMP JUMPDEST PUSH32 0x4E487B7100000000000000000000000000000000000000000000000000000000 PUSH0 MSTORE PUSH1 0x11 PUSH1 0x4 MSTORE PUSH1 0x24 PUSH0 REVERT JUMPDEST PUSH0 PUSH2 0x29F DUP3 PUSH2 0x181 JUMP JUMPDEST SWAP2 POP PUSH2 0x2AA DUP4 PUSH2 0x181 JUMP JUMPDEST SWAP3 POP DUP3 DUP3 ADD SWAP1 POP DUP1 DUP3 GT ISZERO PUSH2 0x2C2 JUMPI PUSH2 0x2C1 PUSH2 0x268 JUMP JUMPDEST JUMPDEST SWAP3 SWAP2 POP POP JUMP JUMPDEST PUSH0 PUSH2 0x2D2 DUP3 PUSH2 0x181 JUMP JUMPDEST SWAP2 POP PUSH32 0xFFFFFFFFFFFFFFFFFFFFFFFFFFFFFFFFFFFFFFFFFFFFFFFFFFFFFFFFFFFFFFFF DUP3 SUB PUSH2 0x304 JUMPI PUSH2 0x303 PUSH2 0x268 JUMP JUMPDEST JUMPDEST PUSH1 0x1 DUP3 ADD SWAP1 POP SWAP2 SWAP1 POP JUMP INVALID LOG2 PUSH5 0x6970667358 0x22 SLT KECCAK256 0xAC CREATE CALL SHL SWAP8 0xEA 0xC4 GT SWAP1 SELFDESTRUCT SHL 0xB4 NUMBER 0xCD SWAP1 SWAP14 0xBA PUSH24 0x68978A9D7A0D241FC2095D23E9F364736F6C634300081A00 CALLER "
				},
				"gasEstimates": {
					"creation": {
						"codeDepositCost": "230800",
						"executionCost": "infinite",
						"totalCost": "infinite"
					},
					"external": {
						"testD()": "infinite",
						"testF()": "346",
						"tryCatch(address)": "infinite"
					}
				},
				"methodIdentifiers": {
					"testD()": "83d79940",
					"testF()": "f0d061b4",
					"tryCatch(address)": "6ba95cf5"
				}
			},
			"storageLayout": {
				"storage": [
					{
						"astId": 85,
						"contract": "Condition.sol:ConditionA",
						"label": "c",
						"offset": 0,
						"slot": "0",
						"type": "t_contract(Condition)78"
					}
				],
				"types": {
					"t_contract(Condition)78": {
						"encoding": "inplace",
						"label": "contract Condition",
						"numberOfBytes": "20"
					}
				}
			},
			"userdoc": {
				"kind": "user",
				"methods": {},
				"version": 1
			}
		}
	}
}