{
	"Condition.sol": {
		"Condition": {
			"abi": [
				{
					"inputs": [],
					"name": "a",
					"outputs": [
						{
							"internalType": "uint256",
							"name": "",
							"type": "uint256"
						}
					],
					"stateMutability": "view",
					"type": "function"
				},
				{
					"inputs": [
						{
							"internalType": "uint256",
							"name": "n",
							"type": "uint256"
						}
					],
					"name": "sumByFor",
					"outputs": [
						{
							"internalType": "uint256",
							"name": "sum",
							"type": "uint256"
						}
					],
					"stateMutability": "pure",
					"type": "function"
				},
				{
					"inputs": [],
					"name": "testA",
					"outputs": [
						{
							"internalType": "uint256",
							"name": "",
							"type": "uint256"
						}
					],
					"stateMutability": "nonpayable",
					"type": "function"
				},
				{
					"inputs": [],
					"name": "testB",
					"outputs": [
						{
							"internalType": "uint256",
							"name": "",
							"type": "uint256"
						}
					],
					"stateMutability": "nonpayable",
					"type": "function"
				},
				{
					"inputs": [],
					"name": "testC",
					"outputs": [
						{
							"internalType": "uint256",
							"name": "",
							"type": "uint256"
						}
					],
					"stateMutability": "nonpayable",
					"type": "function"
				}
			],
			"devdoc": {
				"kind": "dev",
				"methods": {},
				"version": 1
			},
			"evm": {
				"assembly": "    /* \"Condition.sol\":58:853  contract Condition {... */\n  mstore(0x40, 0x80)\n    /* \"Condition.sol\":100:102  10 */\n  0x0a\n    /* \"Condition.sol\":84:102  uint public a = 10 */\n  0x00\n  sstore\n    /* \"Condition.sol\":141:143  20 */\n  0x14\n    /* \"Condition.sol\":123:143  uint internal b = 20 */\n  0x01\n  sstore\n    /* \"Condition.sol\":181:183  30 */\n  0x1e\n    /* \"Condition.sol\":164:183  uint private c = 30 */\n  0x02\n  sstore\n    /* \"Condition.sol\":58:853  contract Condition {... */\n  callvalue\n  dup1\n  iszero\n  tag_1\n  jumpi\n  0x00\n  dup1\n  revert\ntag_1:\n  pop\n  dataSize(sub_0)\n  dup1\n  dataOffset(sub_0)\n  0x00\n  codecopy\n  0x00\n  return\nstop\n\nsub_0: assembly {\n        /* \"Condition.sol\":58:853  contract Condition {... */\n      mstore(0x40, 0x80)\n      callvalue\n      dup1\n      iszero\n      tag_1\n      jumpi\n      0x00\n      dup1\n      revert\n    tag_1:\n      pop\n      jumpi(tag_2, lt(calldatasize, 0x04))\n      shr(0xe0, calldataload(0x00))\n      dup1\n      0x0dbe671f\n      eq\n      tag_3\n      jumpi\n      dup1\n      0x71dd626b\n      eq\n      tag_4\n      jumpi\n      dup1\n      0x7446b6b0\n      eq\n      tag_5\n      jumpi\n      dup1\n      0x925ea78d\n      eq\n      tag_6\n      jumpi\n      dup1\n      0xeccbd4c2\n      eq\n      tag_7\n      jumpi\n    tag_2:\n      0x00\n      dup1\n      revert\n        /* \"Condition.sol\":84:102  uint public a = 10 */\n    tag_3:\n      tag_8\n      tag_9\n      jump\t// in\n    tag_8:\n      mload(0x40)\n      tag_10\n      swap2\n      swap1\n      tag_11\n      jump\t// in\n    tag_10:\n      mload(0x40)\n      dup1\n      swap2\n      sub\n      swap1\n      return\n        /* \"Condition.sol\":248:331  function testA() public returns (uint){... */\n    tag_4:\n      tag_12\n      tag_13\n      jump\t// in\n    tag_12:\n      mload(0x40)\n      tag_14\n      swap2\n      swap1\n      tag_11\n      jump\t// in\n    tag_14:\n      mload(0x40)\n      dup1\n      swap2\n      sub\n      swap1\n      return\n        /* \"Condition.sol\":643:842  function sumByFor(uint256 n) public pure returns (uint256 sum) {... */\n    tag_5:\n      tag_15\n      0x04\n      dup1\n      calldatasize\n      sub\n      dup2\n      add\n      swap1\n      tag_16\n      swap2\n      swap1\n      tag_17\n      jump\t// in\n    tag_16:\n      tag_18\n      jump\t// in\n    tag_15:\n      mload(0x40)\n      tag_19\n      swap2\n      swap1\n      tag_11\n      jump\t// in\n    tag_19:\n      mload(0x40)\n      dup1\n      swap2\n      sub\n      swap1\n      return\n        /* \"Condition.sol\":382:465  function testB() public returns (uint){... */\n    tag_6:\n      tag_20\n      tag_21\n      jump\t// in\n    tag_20:\n      mload(0x40)\n      tag_22\n      swap2\n      swap1\n      tag_11\n      jump\t// in\n    tag_22:\n      mload(0x40)\n      dup1\n      swap2\n      sub\n      swap1\n      return\n        /* \"Condition.sol\":516:599  function testC() public returns (uint){... */\n    tag_7:\n      tag_23\n      tag_24\n      jump\t// in\n    tag_23:\n      mload(0x40)\n      tag_25\n      swap2\n      swap1\n      tag_11\n      jump\t// in\n    tag_25:\n      mload(0x40)\n      dup1\n      swap2\n      sub\n      swap1\n      return\n        /* \"Condition.sol\":84:102  uint public a = 10 */\n    tag_9:\n      sload(0x00)\n      dup2\n      jump\t// out\n        /* \"Condition.sol\":248:331  function testA() public returns (uint){... */\n    tag_13:\n        /* \"Condition.sol\":281:285  uint */\n      0x00\n        /* \"Condition.sol\":301:304  101 */\n      0x65\n        /* \"Condition.sol\":297:298  a */\n      0x00\n        /* \"Condition.sol\":297:304  a = 101 */\n      dup2\n      swap1\n      sstore\n      pop\n        /* \"Condition.sol\":322:323  a */\n      sload(0x00)\n        /* \"Condition.sol\":315:323  return a */\n      swap1\n      pop\n        /* \"Condition.sol\":248:331  function testA() public returns (uint){... */\n      swap1\n      jump\t// out\n        /* \"Condition.sol\":643:842  function sumByFor(uint256 n) public pure returns (uint256 sum) {... */\n    tag_18:\n        /* \"Condition.sol\":693:704  uint256 sum */\n      0x00\n        /* \"Condition.sol\":722:731  uint256 i */\n      dup1\n        /* \"Condition.sol\":734:735  1 */\n      0x01\n        /* \"Condition.sol\":722:735  uint256 i = 1 */\n      swap1\n      pop\n        /* \"Condition.sol\":717:835  for (uint256 i = 1; i <= n; i++) {... */\n    tag_28:\n        /* \"Condition.sol\":742:743  n */\n      dup3\n        /* \"Condition.sol\":737:738  i */\n      dup2\n        /* \"Condition.sol\":737:743  i <= n */\n      gt\n        /* \"Condition.sol\":717:835  for (uint256 i = 1; i <= n; i++) {... */\n      tag_29\n      jumpi\n        /* \"Condition.sol\":778:779  0 */\n      0x00\n        /* \"Condition.sol\":773:774  2 */\n      0x02\n        /* \"Condition.sol\":769:770  i */\n      dup3\n        /* \"Condition.sol\":769:774  i % 2 */\n      tag_31\n      swap2\n      swap1\n      tag_32\n      jump\t// in\n    tag_31:\n        /* \"Condition.sol\":769:779  i % 2 != 0 */\n      eq\n        /* \"Condition.sol\":765:824  if (i % 2 != 0) {... */\n      tag_33\n      jumpi\n        /* \"Condition.sol\":807:808  i */\n      dup1\n        /* \"Condition.sol\":800:808  sum += i */\n      dup3\n      tag_34\n      swap2\n      swap1\n      tag_35\n      jump\t// in\n    tag_34:\n      swap2\n      pop\n        /* \"Condition.sol\":765:824  if (i % 2 != 0) {... */\n    tag_33:\n        /* \"Condition.sol\":745:748  i++ */\n      dup1\n      dup1\n      tag_36\n      swap1\n      tag_37\n      jump\t// in\n    tag_36:\n      swap2\n      pop\n      pop\n        /* \"Condition.sol\":717:835  for (uint256 i = 1; i <= n; i++) {... */\n      jump(tag_28)\n    tag_29:\n      pop\n        /* \"Condition.sol\":643:842  function sumByFor(uint256 n) public pure returns (uint256 sum) {... */\n      swap2\n      swap1\n      pop\n      jump\t// out\n        /* \"Condition.sol\":382:465  function testB() public returns (uint){... */\n    tag_21:\n        /* \"Condition.sol\":415:419  uint */\n      0x00\n        /* \"Condition.sol\":435:438  201 */\n      0xc9\n        /* \"Condition.sol\":431:432  b */\n      0x01\n        /* \"Condition.sol\":431:438  b = 201 */\n      dup2\n      swap1\n      sstore\n      pop\n        /* \"Condition.sol\":456:457  b */\n      sload(0x01)\n        /* \"Condition.sol\":449:457  return b */\n      swap1\n      pop\n        /* \"Condition.sol\":382:465  function testB() public returns (uint){... */\n      swap1\n      jump\t// out\n        /* \"Condition.sol\":516:599  function testC() public returns (uint){... */\n    tag_24:\n        /* \"Condition.sol\":549:553  uint */\n      0x00\n        /* \"Condition.sol\":569:572  301 */\n      0x012d\n        /* \"Condition.sol\":565:566  c */\n      0x02\n        /* \"Condition.sol\":565:572  c = 301 */\n      dup2\n      swap1\n      sstore\n      pop\n        /* \"Condition.sol\":590:591  c */\n      sload(0x02)\n        /* \"Condition.sol\":583:591  return c */\n      swap1\n      pop\n        /* \"Condition.sol\":516:599  function testC() public returns (uint){... */\n      swap1\n      jump\t// out\n        /* \"#utility.yul\":7:84   */\n    tag_40:\n        /* \"#utility.yul\":44:51   */\n      0x00\n        /* \"#utility.yul\":73:78   */\n      dup2\n        /* \"#utility.yul\":62:78   */\n      swap1\n      pop\n        /* \"#utility.yul\":7:84   */\n      swap2\n      swap1\n      pop\n      jump\t// out\n        /* \"#utility.yul\":90:208   */\n    tag_41:\n        /* \"#utility.yul\":177:201   */\n      tag_52\n        /* \"#utility.yul\":195:200   */\n      dup2\n        /* \"#utility.yul\":177:201   */\n      tag_40\n      jump\t// in\n    tag_52:\n        /* \"#utility.yul\":172:175   */\n      dup3\n        /* \"#utility.yul\":165:202   */\n      mstore\n        /* \"#utility.yul\":90:208   */\n      pop\n      pop\n      jump\t// out\n        /* \"#utility.yul\":214:436   */\n    tag_11:\n        /* \"#utility.yul\":307:311   */\n      0x00\n        /* \"#utility.yul\":345:347   */\n      0x20\n        /* \"#utility.yul\":334:343   */\n      dup3\n        /* \"#utility.yul\":330:348   */\n      add\n        /* \"#utility.yul\":322:348   */\n      swap1\n      pop\n        /* \"#utility.yul\":358:429   */\n      tag_54\n        /* \"#utility.yul\":426:427   */\n      0x00\n        /* \"#utility.yul\":415:424   */\n      dup4\n        /* \"#utility.yul\":411:428   */\n      add\n        /* \"#utility.yul\":402:408   */\n      dup5\n        /* \"#utility.yul\":358:429   */\n      tag_41\n      jump\t// in\n    tag_54:\n        /* \"#utility.yul\":214:436   */\n      swap3\n      swap2\n      pop\n      pop\n      jump\t// out\n        /* \"#utility.yul\":523:640   */\n    tag_43:\n        /* \"#utility.yul\":632:633   */\n      0x00\n        /* \"#utility.yul\":629:630   */\n      dup1\n        /* \"#utility.yul\":622:634   */\n      revert\n        /* \"#utility.yul\":769:891   */\n    tag_45:\n        /* \"#utility.yul\":842:866   */\n      tag_59\n        /* \"#utility.yul\":860:865   */\n      dup2\n        /* \"#utility.yul\":842:866   */\n      tag_40\n      jump\t// in\n    tag_59:\n        /* \"#utility.yul\":835:840   */\n      dup2\n        /* \"#utility.yul\":832:867   */\n      eq\n        /* \"#utility.yul\":822:885   */\n      tag_60\n      jumpi\n        /* \"#utility.yul\":881:882   */\n      0x00\n        /* \"#utility.yul\":878:879   */\n      dup1\n        /* \"#utility.yul\":871:883   */\n      revert\n        /* \"#utility.yul\":822:885   */\n    tag_60:\n        /* \"#utility.yul\":769:891   */\n      pop\n      jump\t// out\n        /* \"#utility.yul\":897:1036   */\n    tag_46:\n        /* \"#utility.yul\":943:948   */\n      0x00\n        /* \"#utility.yul\":981:987   */\n      dup2\n        /* \"#utility.yul\":968:988   */\n      calldataload\n        /* \"#utility.yul\":959:988   */\n      swap1\n      pop\n        /* \"#utility.yul\":997:1030   */\n      tag_62\n        /* \"#utility.yul\":1024:1029   */\n      dup2\n        /* \"#utility.yul\":997:1030   */\n      tag_45\n      jump\t// in\n    tag_62:\n        /* \"#utility.yul\":897:1036   */\n      swap3\n      swap2\n      pop\n      pop\n      jump\t// out\n        /* \"#utility.yul\":1042:1371   */\n    tag_17:\n        /* \"#utility.yul\":1101:1107   */\n      0x00\n        /* \"#utility.yul\":1150:1152   */\n      0x20\n        /* \"#utility.yul\":1138:1147   */\n      dup3\n        /* \"#utility.yul\":1129:1136   */\n      dup5\n        /* \"#utility.yul\":1125:1148   */\n      sub\n        /* \"#utility.yul\":1121:1153   */\n      slt\n        /* \"#utility.yul\":1118:1237   */\n      iszero\n      tag_64\n      jumpi\n        /* \"#utility.yul\":1156:1235   */\n      tag_65\n      tag_43\n      jump\t// in\n    tag_65:\n        /* \"#utility.yul\":1118:1237   */\n    tag_64:\n        /* \"#utility.yul\":1276:1277   */\n      0x00\n        /* \"#utility.yul\":1301:1354   */\n      tag_66\n        /* \"#utility.yul\":1346:1353   */\n      dup5\n        /* \"#utility.yul\":1337:1343   */\n      dup3\n        /* \"#utility.yul\":1326:1335   */\n      dup6\n        /* \"#utility.yul\":1322:1344   */\n      add\n        /* \"#utility.yul\":1301:1354   */\n      tag_46\n      jump\t// in\n    tag_66:\n        /* \"#utility.yul\":1291:1354   */\n      swap2\n      pop\n        /* \"#utility.yul\":1247:1364   */\n      pop\n        /* \"#utility.yul\":1042:1371   */\n      swap3\n      swap2\n      pop\n      pop\n      jump\t// out\n        /* \"#utility.yul\":1377:1557   */\n    tag_47:\n        /* \"#utility.yul\":1425:1502   */\n      0x4e487b7100000000000000000000000000000000000000000000000000000000\n        /* \"#utility.yul\":1422:1423   */\n      0x00\n        /* \"#utility.yul\":1415:1503   */\n      mstore\n        /* \"#utility.yul\":1522:1526   */\n      0x12\n        /* \"#utility.yul\":1519:1520   */\n      0x04\n        /* \"#utility.yul\":1512:1527   */\n      mstore\n        /* \"#utility.yul\":1546:1550   */\n      0x24\n        /* \"#utility.yul\":1543:1544   */\n      0x00\n        /* \"#utility.yul\":1536:1551   */\n      revert\n        /* \"#utility.yul\":1563:1739   */\n    tag_32:\n        /* \"#utility.yul\":1595:1596   */\n      0x00\n        /* \"#utility.yul\":1612:1632   */\n      tag_69\n        /* \"#utility.yul\":1630:1631   */\n      dup3\n        /* \"#utility.yul\":1612:1632   */\n      tag_40\n      jump\t// in\n    tag_69:\n        /* \"#utility.yul\":1607:1632   */\n      swap2\n      pop\n        /* \"#utility.yul\":1646:1666   */\n      tag_70\n        /* \"#utility.yul\":1664:1665   */\n      dup4\n        /* \"#utility.yul\":1646:1666   */\n      tag_40\n      jump\t// in\n    tag_70:\n        /* \"#utility.yul\":1641:1666   */\n      swap3\n      pop\n        /* \"#utility.yul\":1685:1686   */\n      dup3\n        /* \"#utility.yul\":1675:1710   */\n      tag_71\n      jumpi\n        /* \"#utility.yul\":1690:1708   */\n      tag_72\n      tag_47\n      jump\t// in\n    tag_72:\n        /* \"#utility.yul\":1675:1710   */\n    tag_71:\n        /* \"#utility.yul\":1731:1732   */\n      dup3\n        /* \"#utility.yul\":1728:1729   */\n      dup3\n        /* \"#utility.yul\":1724:1733   */\n      mod\n        /* \"#utility.yul\":1719:1733   */\n      swap1\n      pop\n        /* \"#utility.yul\":1563:1739   */\n      swap3\n      swap2\n      pop\n      pop\n      jump\t// out\n        /* \"#utility.yul\":1745:1925   */\n    tag_48:\n        /* \"#utility.yul\":1793:1870   */\n      0x4e487b7100000000000000000000000000000000000000000000000000000000\n        /* \"#utility.yul\":1790:1791   */\n      0x00\n        /* \"#utility.yul\":1783:1871   */\n      mstore\n        /* \"#utility.yul\":1890:1894   */\n      0x11\n        /* \"#utility.yul\":1887:1888   */\n      0x04\n        /* \"#utility.yul\":1880:1895   */\n      mstore\n        /* \"#utility.yul\":1914:1918   */\n      0x24\n        /* \"#utility.yul\":1911:1912   */\n      0x00\n        /* \"#utility.yul\":1904:1919   */\n      revert\n        /* \"#utility.yul\":1931:2122   */\n    tag_35:\n        /* \"#utility.yul\":1971:1974   */\n      0x00\n        /* \"#utility.yul\":1990:2010   */\n      tag_75\n        /* \"#utility.yul\":2008:2009   */\n      dup3\n        /* \"#utility.yul\":1990:2010   */\n      tag_40\n      jump\t// in\n    tag_75:\n        /* \"#utility.yul\":1985:2010   */\n      swap2\n      pop\n        /* \"#utility.yul\":2024:2044   */\n      tag_76\n        /* \"#utility.yul\":2042:2043   */\n      dup4\n        /* \"#utility.yul\":2024:2044   */\n      tag_40\n      jump\t// in\n    tag_76:\n        /* \"#utility.yul\":2019:2044   */\n      swap3\n      pop\n        /* \"#utility.yul\":2067:2068   */\n      dup3\n        /* \"#utility.yul\":2064:2065   */\n      dup3\n        /* \"#utility.yul\":2060:2069   */\n      add\n        /* \"#utility.yul\":2053:2069   */\n      swap1\n      pop\n        /* \"#utility.yul\":2088:2091   */\n      dup1\n        /* \"#utility.yul\":2085:2086   */\n      dup3\n        /* \"#utility.yul\":2082:2092   */\n      gt\n        /* \"#utility.yul\":2079:2115   */\n      iszero\n      tag_77\n      jumpi\n        /* \"#utility.yul\":2095:2113   */\n      tag_78\n      tag_48\n      jump\t// in\n    tag_78:\n        /* \"#utility.yul\":2079:2115   */\n    tag_77:\n        /* \"#utility.yul\":1931:2122   */\n      swap3\n      swap2\n      pop\n      pop\n      jump\t// out\n        /* \"#utility.yul\":2128:2361   */\n    tag_37:\n        /* \"#utility.yul\":2167:2170   */\n      0x00\n        /* \"#utility.yul\":2190:2214   */\n      tag_80\n        /* \"#utility.yul\":2208:2213   */\n      dup3\n        /* \"#utility.yul\":2190:2214   */\n      tag_40\n      jump\t// in\n    tag_80:\n        /* \"#utility.yul\":2181:2214   */\n      swap2\n      pop\n        /* \"#utility.yul\":2236:2302   */\n      0xffffffffffffffffffffffffffffffffffffffffffffffffffffffffffffffff\n        /* \"#utility.yul\":2229:2234   */\n      dup3\n        /* \"#utility.yul\":2226:2303   */\n      sub\n        /* \"#utility.yul\":2223:2326   */\n      tag_81\n      jumpi\n        /* \"#utility.yul\":2306:2324   */\n      tag_82\n      tag_48\n      jump\t// in\n    tag_82:\n        /* \"#utility.yul\":2223:2326   */\n    tag_81:\n        /* \"#utility.yul\":2353:2354   */\n      0x01\n        /* \"#utility.yul\":2346:2351   */\n      dup3\n        /* \"#utility.yul\":2342:2355   */\n      add\n        /* \"#utility.yul\":2335:2355   */\n      swap1\n      pop\n        /* \"#utility.yul\":2128:2361   */\n      swap2\n      swap1\n      pop\n      jump\t// out\n\n    auxdata: 0xa2646970667358221220acf0f11b97eac41190ff1bb443cd909dba7768978a9d7a0d241fc2095d23e9f364736f6c634300081a0033\n}\n",
				"bytecode": {
					"linkReferences": {},
					"object": "6080604052600a5f556014600155601e600255348015601c575f80fd5b506103458061002a5f395ff3fe608060405234801561000f575f80fd5b5060043610610055575f3560e01c80630dbe671f1461005957806371dd626b146100775780637446b6b014610095578063925ea78d146100c5578063eccbd4c2146100e3575b5f80fd5b610061610101565b60405161006e9190610199565b60405180910390f35b61007f610106565b60405161008c9190610199565b60405180910390f35b6100af60048036038101906100aa91906101e0565b610115565b6040516100bc9190610199565b60405180910390f35b6100cd61015e565b6040516100da9190610199565b60405180910390f35b6100eb61016f565b6040516100f89190610199565b60405180910390f35b5f5481565b5f60655f819055505f54905090565b5f80600190505b828111610158575f6002826101319190610238565b146101455780826101429190610295565b91505b8080610150906102c8565b91505061011c565b50919050565b5f60c9600181905550600154905090565b5f61012d600281905550600254905090565b5f819050919050565b61019381610181565b82525050565b5f6020820190506101ac5f83018461018a565b92915050565b5f80fd5b6101bf81610181565b81146101c9575f80fd5b50565b5f813590506101da816101b6565b92915050565b5f602082840312156101f5576101f46101b2565b5b5f610202848285016101cc565b91505092915050565b7f4e487b71000000000000000000000000000000000000000000000000000000005f52601260045260245ffd5b5f61024282610181565b915061024d83610181565b92508261025d5761025c61020b565b5b828206905092915050565b7f4e487b71000000000000000000000000000000000000000000000000000000005f52601160045260245ffd5b5f61029f82610181565b91506102aa83610181565b92508282019050808211156102c2576102c1610268565b5b92915050565b5f6102d282610181565b91507fffffffffffffffffffffffffffffffffffffffffffffffffffffffffffffffff820361030457610303610268565b5b60018201905091905056fea2646970667358221220acf0f11b97eac41190ff1bb443cd909dba7768978a9d7a0d241fc2095d23e9f364736f6c634300081a0033",
					"opcodes": "PUSH1 0x80 PUSH1 0x40 MSTORE PUSH1 0xA PUSH0 SSTORE PUSH1 0x14 PUSH1 0x1 SSTORE PUSH1 0x1E PUSH1 0x2 SSTORE CALLVALUE DUP1 ISZERO PUSH1 0x1C JUMPI PUSH0 DUP1 REVERT JUMPDEST POP PUSH2 0x345 DUP1 PUSH2 0x2A PUSH0 CODECOPY PUSH0 RETURN INVALID PUSH1 0x80 PUSH1 0x40 MSTORE CALLVALUE DUP1 ISZERO PUSH2 0xF JUMPI PUSH0 DUP1 REVERT JUMPDEST POP PUSH1 0x4 CALLDATASIZE LT PUSH2 0x55 JUMPI PUSH0 CALLDATALOAD PUSH1 0xE0 SHR DUP1 PUSH4 0xDBE671F EQ PUSH2 0x59 JUMPI DUP1 PUSH4 0x71DD626B EQ PUSH2 0x77 JUMPI DUP1 PUSH4 0x7446B6B0 EQ PUSH2 0x95 JUMPI DUP1 PUSH4 0x925EA78D EQ PUSH2 0xC5 JUMPI DUP1 PUSH4 0xECCBD4C2 EQ PUSH2 0xE3 JUMPI JUMPDEST PUSH0 DUP1 REVERT JUMPDEST PUSH2 0x61 PUSH2 0x101 JUMP JUMPDEST PUSH1 0x40 MLOAD PUSH2 0x6E SWAP2 SWAP1 PUSH2 0x199 JUMP JUMPDEST PUSH1 0x40 MLOAD DUP1 SWAP2 SUB SWAP1 RETURN JUMPDEST PUSH2 0x7F PUSH2 0x106 JUMP JUMPDEST PUSH1 0x40 MLOAD PUSH2 0x8C SWAP2 SWAP1 PUSH2 0x199 JUMP JUMPDEST PUSH1 0x40 MLOAD DUP1 SWAP2 SUB SWAP1 RETURN JUMPDEST PUSH2 0xAF PUSH1 0x4 DUP1 CALLDATASIZE SUB DUP2 ADD SWAP1 PUSH2 0xAA SWAP2 SWAP1 PUSH2 0x1E0 JUMP JUMPDEST PUSH2 0x115 JUMP JUMPDEST PUSH1 0x40 MLOAD PUSH2 0xBC SWAP2 SWAP1 PUSH2 0x199 JUMP JUMPDEST PUSH1 0x40 MLOAD DUP1 SWAP2 SUB SWAP1 RETURN JUMPDEST PUSH2 0xCD PUSH2 0x15E JUMP JUMPDEST PUSH1 0x40 MLOAD PUSH2 0xDA SWAP2 SWAP1 PUSH2 0x199 JUMP JUMPDEST PUSH1 0x40 MLOAD DUP1 SWAP2 SUB SWAP1 RETURN JUMPDEST PUSH2 0xEB PUSH2 0x16F JUMP JUMPDEST PUSH1 0x40 MLOAD PUSH2 0xF8 SWAP2 SWAP1 PUSH2 0x199 JUMP JUMPDEST PUSH1 0x40 MLOAD DUP1 SWAP2 SUB SWAP1 RETURN JUMPDEST PUSH0 SLOAD DUP2 JUMP JUMPDEST PUSH0 PUSH1 0x65 PUSH0 DUP2 SWAP1 SSTORE POP PUSH0 SLOAD SWAP1 POP SWAP1 JUMP JUMPDEST PUSH0 DUP1 PUSH1 0x1 SWAP1 POP JUMPDEST DUP3 DUP2 GT PUSH2 0x158 JUMPI PUSH0 PUSH1 0x2 DUP3 PUSH2 0x131 SWAP2 SWAP1 PUSH2 0x238 JUMP JUMPDEST EQ PUSH2 0x145 JUMPI DUP1 DUP3 PUSH2 0x142 SWAP2 SWAP1 PUSH2 0x295 JUMP JUMPDEST SWAP2 POP JUMPDEST DUP1 DUP1 PUSH2 0x150 SWAP1 PUSH2 0x2C8 JUMP JUMPDEST SWAP2 POP POP PUSH2 0x11C JUMP JUMPDEST POP SWAP2 SWAP1 POP JUMP JUMPDEST PUSH0 PUSH1 0xC9 PUSH1 0x1 DUP2 SWAP1 SSTORE POP PUSH1 0x1 SLOAD SWAP1 POP SWAP1 JUMP JUMPDEST PUSH0 PUSH2 0x12D PUSH1 0x2 DUP2 SWAP1 SSTORE POP PUSH1 0x2 SLOAD SWAP1 POP SWAP1 JUMP JUMPDEST PUSH0 DUP2 SWAP1 POP SWAP2 SWAP1 POP JUMP JUMPDEST PUSH2 0x193 DUP2 PUSH2 0x181 JUMP JUMPDEST DUP3 MSTORE POP POP JUMP JUMPDEST PUSH0 PUSH1 0x20 DUP3 ADD SWAP1 POP PUSH2 0x1AC PUSH0 DUP4 ADD DUP5 PUSH2 0x18A JUMP JUMPDEST SWAP3 SWAP2 POP POP JUMP JUMPDEST PUSH0 DUP1 REVERT JUMPDEST PUSH2 0x1BF DUP2 PUSH2 0x181 JUMP JUMPDEST DUP2 EQ PUSH2 0x1C9 JUMPI PUSH0 DUP1 REVERT JUMPDEST POP JUMP JUMPDEST PUSH0 DUP2 CALLDATALOAD SWAP1 POP PUSH2 0x1DA DUP2 PUSH2 0x1B6 JUMP JUMPDEST SWAP3 SWAP2 POP POP JUMP JUMPDEST PUSH0 PUSH1 0x20 DUP3 DUP5 SUB SLT ISZERO PUSH2 0x1F5 JUMPI PUSH2 0x1F4 PUSH2 0x1B2 JUMP JUMPDEST JUMPDEST PUSH0 PUSH2 0x202 DUP5 DUP3 DUP6 ADD PUSH2 0x1CC JUMP JUMPDEST SWAP2 POP POP SWAP3 SWAP2 POP POP JUMP JUMPDEST PUSH32 0x4E487B7100000000000000000000000000000000000000000000000000000000 PUSH0 MSTORE PUSH1 0x12 PUSH1 0x4 MSTORE PUSH1 0x24 PUSH0 REVERT JUMPDEST PUSH0 PUSH2 0x242 DUP3 PUSH2 0x181 JUMP JUMPDEST SWAP2 POP PUSH2 0x24D DUP4 PUSH2 0x181 JUMP JUMPDEST SWAP3 POP DUP3 PUSH2 0x25D JUMPI PUSH2 0x25C PUSH2 0x20B JUMP JUMPDEST JUMPDEST DUP3 DUP3 MOD SWAP1 POP SWAP3 SWAP2 POP POP JUMP JUMPDEST PUSH32 0x4E487B7100000000000000000000000000000000000000000000000000000000 PUSH0 MSTORE PUSH1 0x11 PUSH1 0x4 MSTORE PUSH1 0x24 PUSH0 REVERT JUMPDEST PUSH0 PUSH2 0x29F DUP3 PUSH2 0x181 JUMP JUMPDEST SWAP2 POP PUSH2 0x2AA DUP4 PUSH2 0x181 JUMP JUMPDEST SWAP3 POP DUP3 DUP3 ADD SWAP1 POP DUP1 DUP3 GT ISZERO PUSH2 0x2C2 JUMPI PUSH2 0x2C1 PUSH2 0x268 JUMP JUMPDEST JUMPDEST SWAP3 SWAP2 POP POP JUMP JUMPDEST PUSH0 PUSH2 0x2D2 DUP3 PUSH2 0x181 JUMP JUMPDEST SWAP2 POP PUSH32 0xFFFFFFFFFFFFFFFFFFFFFFFFFFFFFFFFFFFFFFFFFFFFFFFFFFFFFFFFFFFFFFFF DUP3 SUB PUSH2 0x304 JUMPI PUSH2 0x303 PUSH2 0x268 JUMP JUMPDEST JUMPDEST PUSH1 0x1 DUP3 ADD SWAP1 POP SWAP2 SWAP1 POP JUMP INVALID LOG2 PUSH5 0x6970667358 0x22 SLT KECCAK256 0xAC CREATE CALL SHL SWAP8 0xEA 0xC4 GT SWAP1 SELFDESTRUCT SHL 0xB4 NUMBER 0xCD SWAP1 SWAP14 0xBA PUSH24 0x68978A9D7A0D241FC2095D23E9F364736F6C634300081A00 CALLER "
				},
				"gasEstimates": {
					"creation": {
						"codeDepositCost": "167400",
						"executionCost": "66529",
						"totalCost": "233929"
					},
					"external": {
						"a()": "2402",
						"sumByFor(uint256)": "infinite",
						"testA()": "24544",
						"testB()": "24590",
						"testC()": "24612"
					}
				},
				"methodIdentifiers": {
					"a()": "0dbe671f",
					"sumByFor(uint256)": "7446b6b0",
					"testA()": "71dd626b",
					"testB()": "925ea78d",
					"testC()": "eccbd4c2"
				}
			},
			"storageLayout": {
				"storage": [
					{
						"astId": 4,
						"contract": "Condition.sol:Condition",
						"label": "a",
						"offset": 0,
						"slot": "0",
						"type": "t_uint256"
					},
					{
						"astId": 7,
						"contract": "Condition.sol:Condition",
						"label": "b",
						"offset": 0,
						"slot": "1",
						"type": "t_uint256"
					},
					{
						"astId": 10,
						"contract": "Condition.sol:Condition",
						"label": "c",
						"offset": 0,
						"slot": "2",
						"type": "t_uint256"
					}
				],
				"types": {
					"t_uint256": {
						"encoding": "inplace",
						"label": "uint256",
						"numberOfBytes": "32"
					}
				}
			},
			"userdoc": {
				"kind": "user",
				"methods": {},
				"version": 1
			}
		}
	}
}