{
	"data": {
		"bytecode": {
			"linkReferences": {},
			"object": "6080604052348015600e575f80fd5b50610fba8061001c5f395ff3fe608060405234801561000f575f80fd5b506004361061007b575f3560e01c80637f65ec0b116100595780637f65ec0b1461010f578063d6d555481461012b578063e87bd7c714610147578063f982c2cd146101775761007b565b80630194db8e1461007f57806324f955e2146100af57806338d94193146100df575b5f80fd5b6100996004803603810190610094919061066f565b610193565b6040516100a691906106c5565b60405180910390f35b6100c960048036038101906100c491906106de565b6101e7565b6040516100d69190610769565b60405180910390f35b6100f960048036038101906100f491906106de565b61028d565b60405161010691906106c5565b60405180910390f35b610129600480360381019061012491906106de565b6102ac565b005b61014560048036038101906101409190610839565b61037c565b005b610161600480360381019061015c91906106de565b6103b1565b60405161016e91906108d2565b60405180910390f35b610191600480360381019061018c9190610990565b610457565b005b5f808251116101d7576040517f08c379a00000000000000000000000000000000000000000000000000000000081526004016101ce90610a21565b60405180910390fd5b6101e08261048c565b9050919050565b600181815481106101f6575f80fd5b905f5260205f20015f91509050805461020e90610a6c565b80601f016020809104026020016040519081016040528092919081815260200182805461023a90610a6c565b80156102855780601f1061025c57610100808354040283529160200191610285565b820191905f5260205f20905b81548152906001019060200180831161026857829003601f168201915b505050505081565b5f818154811061029b575f80fd5b905f5260205f20015f915090505481565b5f8054905081106102f2576040517f08c379a00000000000000000000000000000000000000000000000000000000081526004016102e990610ae6565b60405180910390fd5b60015f805490506103039190610b31565b8114610355575f60015f8054905061031b9190610b31565b8154811061032c5761032b610b64565b5b905f5260205f2001545f828154811061034857610347610b64565b5b905f5260205f2001819055505b5f80548061036657610365610b91565b5b600190038181905f5260205f20015f9055905550565b600181908060018154018082558091505060019003905f5260205f20015f9091909190915090816103ad9190610d5b565b5050565b600281815481106103c0575f80fd5b905f5260205f20015f9150905080546103d890610a6c565b80601f016020809104026020016040519081016040528092919081815260200182805461040490610a6c565b801561044f5780601f106104265761010080835404028352916020019161044f565b820191905f5260205f20905b81548152906001019060200180831161043257829003601f168201915b505050505081565b600281908060018154018082558091505060019003905f5260205f20015f9091909190915090816104889190610e82565b5050565b5f805f90505f5b83518110156104d1578381815181106104af576104ae610b64565b5b6020026020010151826104c29190610f51565b91508080600101915050610493565b5080915050919050565b5f604051905090565b5f80fd5b5f80fd5b5f80fd5b5f601f19601f8301169050919050565b7f4e487b71000000000000000000000000000000000000000000000000000000005f52604160045260245ffd5b610536826104f0565b810181811067ffffffffffffffff8211171561055557610554610500565b5b80604052505050565b5f6105676104db565b9050610573828261052d565b919050565b5f67ffffffffffffffff82111561059257610591610500565b5b602082029050602081019050919050565b5f80fd5b5f819050919050565b6105b9816105a7565b81146105c3575f80fd5b50565b5f813590506105d4816105b0565b92915050565b5f6105ec6105e784610578565b61055e565b9050808382526020820190506020840283018581111561060f5761060e6105a3565b5b835b81811015610638578061062488826105c6565b845260208401935050602081019050610611565b5050509392505050565b5f82601f830112610656576106556104ec565b5b81356106668482602086016105da565b91505092915050565b5f60208284031215610684576106836104e4565b5b5f82013567ffffffffffffffff8111156106a1576106a06104e8565b5b6106ad84828501610642565b91505092915050565b6106bf816105a7565b82525050565b5f6020820190506106d85f8301846106b6565b92915050565b5f602082840312156106f3576106f26104e4565b5b5f610700848285016105c6565b91505092915050565b5f81519050919050565b5f82825260208201905092915050565b8281835e5f83830152505050565b5f61073b82610709565b6107458185610713565b9350610755818560208601610723565b61075e816104f0565b840191505092915050565b5f6020820190508181035f8301526107818184610731565b905092915050565b5f80fd5b5f67ffffffffffffffff8211156107a7576107a6610500565b5b6107b0826104f0565b9050602081019050919050565b828183375f83830152505050565b5f6107dd6107d88461078d565b61055e565b9050828152602081018484840111156107f9576107f8610789565b5b6108048482856107bd565b509392505050565b5f82601f8301126108205761081f6104ec565b5b81356108308482602086016107cb565b91505092915050565b5f6020828403121561084e5761084d6104e4565b5b5f82013567ffffffffffffffff81111561086b5761086a6104e8565b5b6108778482850161080c565b91505092915050565b5f81519050919050565b5f82825260208201905092915050565b5f6108a482610880565b6108ae818561088a565b93506108be818560208601610723565b6108c7816104f0565b840191505092915050565b5f6020820190508181035f8301526108ea818461089a565b905092915050565b5f67ffffffffffffffff82111561090c5761090b610500565b5b610915826104f0565b9050602081019050919050565b5f61093461092f846108f2565b61055e565b9050828152602081018484840111156109505761094f610789565b5b61095b8482856107bd565b509392505050565b5f82601f830112610977576109766104ec565b5b8135610987848260208601610922565b91505092915050565b5f602082840312156109a5576109a46104e4565b5b5f82013567ffffffffffffffff8111156109c2576109c16104e8565b5b6109ce84828501610963565b91505092915050565b7f61727220697320726571756972656400000000000000000000000000000000005f82015250565b5f610a0b600f8361088a565b9150610a16826109d7565b602082019050919050565b5f6020820190508181035f830152610a38816109ff565b9050919050565b7f4e487b71000000000000000000000000000000000000000000000000000000005f52602260045260245ffd5b5f6002820490506001821680610a8357607f821691505b602082108103610a9657610a95610a3f565b5b50919050565b7f696e646578206f7574626f756e640000000000000000000000000000000000005f82015250565b5f610ad0600e8361088a565b9150610adb82610a9c565b602082019050919050565b5f6020820190508181035f830152610afd81610ac4565b9050919050565b7f4e487b71000000000000000000000000000000000000000000000000000000005f52601160045260245ffd5b5f610b3b826105a7565b9150610b46836105a7565b9250828203905081811115610b5e57610b5d610b04565b5b92915050565b7f4e487b71000000000000000000000000000000000000000000000000000000005f52603260045260245ffd5b7f4e487b71000000000000000000000000000000000000000000000000000000005f52603160045260245ffd5b5f819050815f5260205f209050919050565b5f6020601f8301049050919050565b5f82821b905092915050565b5f60088302610c1a7fffffffffffffffffffffffffffffffffffffffffffffffffffffffffffffffff82610bdf565b610c248683610bdf565b95508019841693508086168417925050509392505050565b5f819050919050565b5f610c5f610c5a610c55846105a7565b610c3c565b6105a7565b9050919050565b5f819050919050565b610c7883610c45565b610c8c610c8482610c66565b848454610beb565b825550505050565b5f90565b610ca0610c94565b610cab818484610c6f565b505050565b5b81811015610cce57610cc35f82610c98565b600181019050610cb1565b5050565b601f821115610d1357610ce481610bbe565b610ced84610bd0565b81016020851015610cfc578190505b610d10610d0885610bd0565b830182610cb0565b50505b505050565b5f82821c905092915050565b5f610d335f1984600802610d18565b1980831691505092915050565b5f610d4b8383610d24565b9150826002028217905092915050565b610d6482610709565b67ffffffffffffffff811115610d7d57610d7c610500565b5b610d878254610a6c565b610d92828285610cd2565b5f60209050601f831160018114610dc3575f8415610db1578287015190505b610dbb8582610d40565b865550610e22565b601f198416610dd186610bbe565b5f5b82811015610df857848901518255600182019150602085019450602081019050610dd3565b86831015610e155784890151610e11601f891682610d24565b8355505b6001600288020188555050505b505050505050565b5f819050815f5260205f209050919050565b601f821115610e7d57610e4e81610e2a565b610e5784610bd0565b81016020851015610e66578190505b610e7a610e7285610bd0565b830182610cb0565b50505b505050565b610e8b82610880565b67ffffffffffffffff811115610ea457610ea3610500565b5b610eae8254610a6c565b610eb9828285610e3c565b5f60209050601f831160018114610eea575f8415610ed8578287015190505b610ee28582610d40565b865550610f49565b601f198416610ef886610e2a565b5f5b82811015610f1f57848901518255600182019150602085019450602081019050610efa565b86831015610f3c5784890151610f38601f891682610d24565b8355505b6001600288020188555050505b505050505050565b5f610f5b826105a7565b9150610f66836105a7565b9250828201905080821115610f7e57610f7d610b04565b5b9291505056fea26469706673582212203593f479a84f4fa621513585842d866bb6c671ac063a6cf28971bc50fe566d1f64736f6c634300081a0033",
			"opcodes": "PUSH1 0x80 PUSH1 0x40 MSTORE CALLVALUE DUP1 ISZERO PUSH1 0xE JUMPI PUSH0 DUP1 REVERT JUMPDEST POP PUSH2 0xFBA DUP1 PUSH2 0x1C PUSH0 CODECOPY PUSH0 RETURN INVALID PUSH1 0x80 PUSH1 0x40 MSTORE CALLVALUE DUP1 ISZERO PUSH2 0xF JUMPI PUSH0 DUP1 REVERT JUMPDEST POP PUSH1 0x4 CALLDATASIZE LT PUSH2 0x7B JUMPI PUSH0 CALLDATALOAD PUSH1 0xE0 SHR DUP1 PUSH4 0x7F65EC0B GT PUSH2 0x59 JUMPI DUP1 PUSH4 0x7F65EC0B EQ PUSH2 0x10F JUMPI DUP1 PUSH4 0xD6D55548 EQ PUSH2 0x12B JUMPI DUP1 PUSH4 0xE87BD7C7 EQ PUSH2 0x147 JUMPI DUP1 PUSH4 0xF982C2CD EQ PUSH2 0x177 JUMPI PUSH2 0x7B JUMP JUMPDEST DUP1 PUSH4 0x194DB8E EQ PUSH2 0x7F JUMPI DUP1 PUSH4 0x24F955E2 EQ PUSH2 0xAF JUMPI DUP1 PUSH4 0x38D94193 EQ PUSH2 0xDF JUMPI JUMPDEST PUSH0 DUP1 REVERT JUMPDEST PUSH2 0x99 PUSH1 0x4 DUP1 CALLDATASIZE SUB DUP2 ADD SWAP1 PUSH2 0x94 SWAP2 SWAP1 PUSH2 0x66F JUMP JUMPDEST PUSH2 0x193 JUMP JUMPDEST PUSH1 0x40 MLOAD PUSH2 0xA6 SWAP2 SWAP1 PUSH2 0x6C5 JUMP JUMPDEST PUSH1 0x40 MLOAD DUP1 SWAP2 SUB SWAP1 RETURN JUMPDEST PUSH2 0xC9 PUSH1 0x4 DUP1 CALLDATASIZE SUB DUP2 ADD SWAP1 PUSH2 0xC4 SWAP2 SWAP1 PUSH2 0x6DE JUMP JUMPDEST PUSH2 0x1E7 JUMP JUMPDEST PUSH1 0x40 MLOAD PUSH2 0xD6 SWAP2 SWAP1 PUSH2 0x769 JUMP JUMPDEST PUSH1 0x40 MLOAD DUP1 SWAP2 SUB SWAP1 RETURN JUMPDEST PUSH2 0xF9 PUSH1 0x4 DUP1 CALLDATASIZE SUB DUP2 ADD SWAP1 PUSH2 0xF4 SWAP2 SWAP1 PUSH2 0x6DE JUMP JUMPDEST PUSH2 0x28D JUMP JUMPDEST PUSH1 0x40 MLOAD PUSH2 0x106 SWAP2 SWAP1 PUSH2 0x6C5 JUMP JUMPDEST PUSH1 0x40 MLOAD DUP1 SWAP2 SUB SWAP1 RETURN JUMPDEST PUSH2 0x129 PUSH1 0x4 DUP1 CALLDATASIZE SUB DUP2 ADD SWAP1 PUSH2 0x124 SWAP2 SWAP1 PUSH2 0x6DE JUMP JUMPDEST PUSH2 0x2AC JUMP JUMPDEST STOP JUMPDEST PUSH2 0x145 PUSH1 0x4 DUP1 CALLDATASIZE SUB DUP2 ADD SWAP1 PUSH2 0x140 SWAP2 SWAP1 PUSH2 0x839 JUMP JUMPDEST PUSH2 0x37C JUMP JUMPDEST STOP JUMPDEST PUSH2 0x161 PUSH1 0x4 DUP1 CALLDATASIZE SUB DUP2 ADD SWAP1 PUSH2 0x15C SWAP2 SWAP1 PUSH2 0x6DE JUMP JUMPDEST PUSH2 0x3B1 JUMP JUMPDEST PUSH1 0x40 MLOAD PUSH2 0x16E SWAP2 SWAP1 PUSH2 0x8D2 JUMP JUMPDEST PUSH1 0x40 MLOAD DUP1 SWAP2 SUB SWAP1 RETURN JUMPDEST PUSH2 0x191 PUSH1 0x4 DUP1 CALLDATASIZE SUB DUP2 ADD SWAP1 PUSH2 0x18C SWAP2 SWAP1 PUSH2 0x990 JUMP JUMPDEST PUSH2 0x457 JUMP JUMPDEST STOP JUMPDEST PUSH0 DUP1 DUP3 MLOAD GT PUSH2 0x1D7 JUMPI PUSH1 0x40 MLOAD PUSH32 0x8C379A000000000000000000000000000000000000000000000000000000000 DUP2 MSTORE PUSH1 0x4 ADD PUSH2 0x1CE SWAP1 PUSH2 0xA21 JUMP JUMPDEST PUSH1 0x40 MLOAD DUP1 SWAP2 SUB SWAP1 REVERT JUMPDEST PUSH2 0x1E0 DUP3 PUSH2 0x48C JUMP JUMPDEST SWAP1 POP SWAP2 SWAP1 POP JUMP JUMPDEST PUSH1 0x1 DUP2 DUP2 SLOAD DUP2 LT PUSH2 0x1F6 JUMPI PUSH0 DUP1 REVERT JUMPDEST SWAP1 PUSH0 MSTORE PUSH1 0x20 PUSH0 KECCAK256 ADD PUSH0 SWAP2 POP SWAP1 POP DUP1 SLOAD PUSH2 0x20E SWAP1 PUSH2 0xA6C JUMP JUMPDEST DUP1 PUSH1 0x1F ADD PUSH1 0x20 DUP1 SWAP2 DIV MUL PUSH1 0x20 ADD PUSH1 0x40 MLOAD SWAP1 DUP2 ADD PUSH1 0x40 MSTORE DUP1 SWAP3 SWAP2 SWAP1 DUP2 DUP2 MSTORE PUSH1 0x20 ADD DUP3 DUP1 SLOAD PUSH2 0x23A SWAP1 PUSH2 0xA6C JUMP JUMPDEST DUP1 ISZERO PUSH2 0x285 JUMPI DUP1 PUSH1 0x1F LT PUSH2 0x25C JUMPI PUSH2 0x100 DUP1 DUP4 SLOAD DIV MUL DUP4 MSTORE SWAP2 PUSH1 0x20 ADD SWAP2 PUSH2 0x285 JUMP JUMPDEST DUP3 ADD SWAP2 SWAP1 PUSH0 MSTORE PUSH1 0x20 PUSH0 KECCAK256 SWAP1 JUMPDEST DUP2 SLOAD DUP2 MSTORE SWAP1 PUSH1 0x1 ADD SWAP1 PUSH1 0x20 ADD DUP1 DUP4 GT PUSH2 0x268 JUMPI DUP3 SWAP1 SUB PUSH1 0x1F AND DUP3 ADD SWAP2 JUMPDEST POP POP POP POP POP DUP2 JUMP JUMPDEST PUSH0 DUP2 DUP2 SLOAD DUP2 LT PUSH2 0x29B JUMPI PUSH0 DUP1 REVERT JUMPDEST SWAP1 PUSH0 MSTORE PUSH1 0x20 PUSH0 KECCAK256 ADD PUSH0 SWAP2 POP SWAP1 POP SLOAD DUP2 JUMP JUMPDEST PUSH0 DUP1 SLOAD SWAP1 POP DUP2 LT PUSH2 0x2F2 JUMPI PUSH1 0x40 MLOAD PUSH32 0x8C379A000000000000000000000000000000000000000000000000000000000 DUP2 MSTORE PUSH1 0x4 ADD PUSH2 0x2E9 SWAP1 PUSH2 0xAE6 JUMP JUMPDEST PUSH1 0x40 MLOAD DUP1 SWAP2 SUB SWAP1 REVERT JUMPDEST PUSH1 0x1 PUSH0 DUP1 SLOAD SWAP1 POP PUSH2 0x303 SWAP2 SWAP1 PUSH2 0xB31 JUMP JUMPDEST DUP2 EQ PUSH2 0x355 JUMPI PUSH0 PUSH1 0x1 PUSH0 DUP1 SLOAD SWAP1 POP PUSH2 0x31B SWAP2 SWAP1 PUSH2 0xB31 JUMP JUMPDEST DUP2 SLOAD DUP2 LT PUSH2 0x32C JUMPI PUSH2 0x32B PUSH2 0xB64 JUMP JUMPDEST JUMPDEST SWAP1 PUSH0 MSTORE PUSH1 0x20 PUSH0 KECCAK256 ADD SLOAD PUSH0 DUP3 DUP2 SLOAD DUP2 LT PUSH2 0x348 JUMPI PUSH2 0x347 PUSH2 0xB64 JUMP JUMPDEST JUMPDEST SWAP1 PUSH0 MSTORE PUSH1 0x20 PUSH0 KECCAK256 ADD DUP2 SWAP1 SSTORE POP JUMPDEST PUSH0 DUP1 SLOAD DUP1 PUSH2 0x366 JUMPI PUSH2 0x365 PUSH2 0xB91 JUMP JUMPDEST JUMPDEST PUSH1 0x1 SWAP1 SUB DUP2 DUP2 SWAP1 PUSH0 MSTORE PUSH1 0x20 PUSH0 KECCAK256 ADD PUSH0 SWAP1 SSTORE SWAP1 SSTORE POP JUMP JUMPDEST PUSH1 0x1 DUP2 SWAP1 DUP1 PUSH1 0x1 DUP2 SLOAD ADD DUP1 DUP3 SSTORE DUP1 SWAP2 POP POP PUSH1 0x1 SWAP1 SUB SWAP1 PUSH0 MSTORE PUSH1 0x20 PUSH0 KECCAK256 ADD PUSH0 SWAP1 SWAP2 SWAP1 SWAP2 SWAP1 SWAP2 POP SWAP1 DUP2 PUSH2 0x3AD SWAP2 SWAP1 PUSH2 0xD5B JUMP JUMPDEST POP POP JUMP JUMPDEST PUSH1 0x2 DUP2 DUP2 SLOAD DUP2 LT PUSH2 0x3C0 JUMPI PUSH0 DUP1 REVERT JUMPDEST SWAP1 PUSH0 MSTORE PUSH1 0x20 PUSH0 KECCAK256 ADD PUSH0 SWAP2 POP SWAP1 POP DUP1 SLOAD PUSH2 0x3D8 SWAP1 PUSH2 0xA6C JUMP JUMPDEST DUP1 PUSH1 0x1F ADD PUSH1 0x20 DUP1 SWAP2 DIV MUL PUSH1 0x20 ADD PUSH1 0x40 MLOAD SWAP1 DUP2 ADD PUSH1 0x40 MSTORE DUP1 SWAP3 SWAP2 SWAP1 DUP2 DUP2 MSTORE PUSH1 0x20 ADD DUP3 DUP1 SLOAD PUSH2 0x404 SWAP1 PUSH2 0xA6C JUMP JUMPDEST DUP1 ISZERO PUSH2 0x44F JUMPI DUP1 PUSH1 0x1F LT PUSH2 0x426 JUMPI PUSH2 0x100 DUP1 DUP4 SLOAD DIV MUL DUP4 MSTORE SWAP2 PUSH1 0x20 ADD SWAP2 PUSH2 0x44F JUMP JUMPDEST DUP3 ADD SWAP2 SWAP1 PUSH0 MSTORE PUSH1 0x20 PUSH0 KECCAK256 SWAP1 JUMPDEST DUP2 SLOAD DUP2 MSTORE SWAP1 PUSH1 0x1 ADD SWAP1 PUSH1 0x20 ADD DUP1 DUP4 GT PUSH2 0x432 JUMPI DUP3 SWAP1 SUB PUSH1 0x1F AND DUP3 ADD SWAP2 JUMPDEST POP POP POP POP POP DUP2 JUMP JUMPDEST PUSH1 0x2 DUP2 SWAP1 DUP1 PUSH1 0x1 DUP2 SLOAD ADD DUP1 DUP3 SSTORE DUP1 SWAP2 POP POP PUSH1 0x1 SWAP1 SUB SWAP1 PUSH0 MSTORE PUSH1 0x20 PUSH0 KECCAK256 ADD PUSH0 SWAP1 SWAP2 SWAP1 SWAP2 SWAP1 SWAP2 POP SWAP1 DUP2 PUSH2 0x488 SWAP2 SWAP1 PUSH2 0xE82 JUMP JUMPDEST POP POP JUMP JUMPDEST PUSH0 DUP1 PUSH0 SWAP1 POP PUSH0 JUMPDEST DUP4 MLOAD DUP2 LT ISZERO PUSH2 0x4D1 JUMPI DUP4 DUP2 DUP2 MLOAD DUP2 LT PUSH2 0x4AF JUMPI PUSH2 0x4AE PUSH2 0xB64 JUMP JUMPDEST JUMPDEST PUSH1 0x20 MUL PUSH1 0x20 ADD ADD MLOAD DUP3 PUSH2 0x4C2 SWAP2 SWAP1 PUSH2 0xF51 JUMP JUMPDEST SWAP2 POP DUP1 DUP1 PUSH1 0x1 ADD SWAP2 POP POP PUSH2 0x493 JUMP JUMPDEST POP DUP1 SWAP2 POP POP SWAP2 SWAP1 POP JUMP JUMPDEST PUSH0 PUSH1 0x40 MLOAD SWAP1 POP SWAP1 JUMP JUMPDEST PUSH0 DUP1 REVERT JUMPDEST PUSH0 DUP1 REVERT JUMPDEST PUSH0 DUP1 REVERT JUMPDEST PUSH0 PUSH1 0x1F NOT PUSH1 0x1F DUP4 ADD AND SWAP1 POP SWAP2 SWAP1 POP JUMP JUMPDEST PUSH32 0x4E487B7100000000000000000000000000000000000000000000000000000000 PUSH0 MSTORE PUSH1 0x41 PUSH1 0x4 MSTORE PUSH1 0x24 PUSH0 REVERT JUMPDEST PUSH2 0x536 DUP3 PUSH2 0x4F0 JUMP JUMPDEST DUP2 ADD DUP2 DUP2 LT PUSH8 0xFFFFFFFFFFFFFFFF DUP3 GT OR ISZERO PUSH2 0x555 JUMPI PUSH2 0x554 PUSH2 0x500 JUMP JUMPDEST JUMPDEST DUP1 PUSH1 0x40 MSTORE POP POP POP JUMP JUMPDEST PUSH0 PUSH2 0x567 PUSH2 0x4DB JUMP JUMPDEST SWAP1 POP PUSH2 0x573 DUP3 DUP3 PUSH2 0x52D JUMP JUMPDEST SWAP2 SWAP1 POP JUMP JUMPDEST PUSH0 PUSH8 0xFFFFFFFFFFFFFFFF DUP3 GT ISZERO PUSH2 0x592 JUMPI PUSH2 0x591 PUSH2 0x500 JUMP JUMPDEST JUMPDEST PUSH1 0x20 DUP3 MUL SWAP1 POP PUSH1 0x20 DUP2 ADD SWAP1 POP SWAP2 SWAP1 POP JUMP JUMPDEST PUSH0 DUP1 REVERT JUMPDEST PUSH0 DUP2 SWAP1 POP SWAP2 SWAP1 POP JUMP JUMPDEST PUSH2 0x5B9 DUP2 PUSH2 0x5A7 JUMP JUMPDEST DUP2 EQ PUSH2 0x5C3 JUMPI PUSH0 DUP1 REVERT JUMPDEST POP JUMP JUMPDEST PUSH0 DUP2 CALLDATALOAD SWAP1 POP PUSH2 0x5D4 DUP2 PUSH2 0x5B0 JUMP JUMPDEST SWAP3 SWAP2 POP POP JUMP JUMPDEST PUSH0 PUSH2 0x5EC PUSH2 0x5E7 DUP5 PUSH2 0x578 JUMP JUMPDEST PUSH2 0x55E JUMP JUMPDEST SWAP1 POP DUP1 DUP4 DUP3 MSTORE PUSH1 0x20 DUP3 ADD SWAP1 POP PUSH1 0x20 DUP5 MUL DUP4 ADD DUP6 DUP2 GT ISZERO PUSH2 0x60F JUMPI PUSH2 0x60E PUSH2 0x5A3 JUMP JUMPDEST JUMPDEST DUP4 JUMPDEST DUP2 DUP2 LT ISZERO PUSH2 0x638 JUMPI DUP1 PUSH2 0x624 DUP9 DUP3 PUSH2 0x5C6 JUMP JUMPDEST DUP5 MSTORE PUSH1 0x20 DUP5 ADD SWAP4 POP POP PUSH1 0x20 DUP2 ADD SWAP1 POP PUSH2 0x611 JUMP JUMPDEST POP POP POP SWAP4 SWAP3 POP POP POP JUMP JUMPDEST PUSH0 DUP3 PUSH1 0x1F DUP4 ADD SLT PUSH2 0x656 JUMPI PUSH2 0x655 PUSH2 0x4EC JUMP JUMPDEST JUMPDEST DUP2 CALLDATALOAD PUSH2 0x666 DUP5 DUP3 PUSH1 0x20 DUP7 ADD PUSH2 0x5DA JUMP JUMPDEST SWAP2 POP POP SWAP3 SWAP2 POP POP JUMP JUMPDEST PUSH0 PUSH1 0x20 DUP3 DUP5 SUB SLT ISZERO PUSH2 0x684 JUMPI PUSH2 0x683 PUSH2 0x4E4 JUMP JUMPDEST JUMPDEST PUSH0 DUP3 ADD CALLDATALOAD PUSH8 0xFFFFFFFFFFFFFFFF DUP2 GT ISZERO PUSH2 0x6A1 JUMPI PUSH2 0x6A0 PUSH2 0x4E8 JUMP JUMPDEST JUMPDEST PUSH2 0x6AD DUP5 DUP3 DUP6 ADD PUSH2 0x642 JUMP JUMPDEST SWAP2 POP POP SWAP3 SWAP2 POP POP JUMP JUMPDEST PUSH2 0x6BF DUP2 PUSH2 0x5A7 JUMP JUMPDEST DUP3 MSTORE POP POP JUMP JUMPDEST PUSH0 PUSH1 0x20 DUP3 ADD SWAP1 POP PUSH2 0x6D8 PUSH0 DUP4 ADD DUP5 PUSH2 0x6B6 JUMP JUMPDEST SWAP3 SWAP2 POP POP JUMP JUMPDEST PUSH0 PUSH1 0x20 DUP3 DUP5 SUB SLT ISZERO PUSH2 0x6F3 JUMPI PUSH2 0x6F2 PUSH2 0x4E4 JUMP JUMPDEST JUMPDEST PUSH0 PUSH2 0x700 DUP5 DUP3 DUP6 ADD PUSH2 0x5C6 JUMP JUMPDEST SWAP2 POP POP SWAP3 SWAP2 POP POP JUMP JUMPDEST PUSH0 DUP2 MLOAD SWAP1 POP SWAP2 SWAP1 POP JUMP JUMPDEST PUSH0 DUP3 DUP3 MSTORE PUSH1 0x20 DUP3 ADD SWAP1 POP SWAP3 SWAP2 POP POP JUMP JUMPDEST DUP3 DUP2 DUP4 MCOPY PUSH0 DUP4 DUP4 ADD MSTORE POP POP POP JUMP JUMPDEST PUSH0 PUSH2 0x73B DUP3 PUSH2 0x709 JUMP JUMPDEST PUSH2 0x745 DUP2 DUP6 PUSH2 0x713 JUMP JUMPDEST SWAP4 POP PUSH2 0x755 DUP2 DUP6 PUSH1 0x20 DUP7 ADD PUSH2 0x723 JUMP JUMPDEST PUSH2 0x75E DUP2 PUSH2 0x4F0 JUMP JUMPDEST DUP5 ADD SWAP2 POP POP SWAP3 SWAP2 POP POP JUMP JUMPDEST PUSH0 PUSH1 0x20 DUP3 ADD SWAP1 POP DUP2 DUP2 SUB PUSH0 DUP4 ADD MSTORE PUSH2 0x781 DUP2 DUP5 PUSH2 0x731 JUMP JUMPDEST SWAP1 POP SWAP3 SWAP2 POP POP JUMP JUMPDEST PUSH0 DUP1 REVERT JUMPDEST PUSH0 PUSH8 0xFFFFFFFFFFFFFFFF DUP3 GT ISZERO PUSH2 0x7A7 JUMPI PUSH2 0x7A6 PUSH2 0x500 JUMP JUMPDEST JUMPDEST PUSH2 0x7B0 DUP3 PUSH2 0x4F0 JUMP JUMPDEST SWAP1 POP PUSH1 0x20 DUP2 ADD SWAP1 POP SWAP2 SWAP1 POP JUMP JUMPDEST DUP3 DUP2 DUP4 CALLDATACOPY PUSH0 DUP4 DUP4 ADD MSTORE POP POP POP JUMP JUMPDEST PUSH0 PUSH2 0x7DD PUSH2 0x7D8 DUP5 PUSH2 0x78D JUMP JUMPDEST PUSH2 0x55E JUMP JUMPDEST SWAP1 POP DUP3 DUP2 MSTORE PUSH1 0x20 DUP2 ADD DUP5 DUP5 DUP5 ADD GT ISZERO PUSH2 0x7F9 JUMPI PUSH2 0x7F8 PUSH2 0x789 JUMP JUMPDEST JUMPDEST PUSH2 0x804 DUP5 DUP3 DUP6 PUSH2 0x7BD JUMP JUMPDEST POP SWAP4 SWAP3 POP POP POP JUMP JUMPDEST PUSH0 DUP3 PUSH1 0x1F DUP4 ADD SLT PUSH2 0x820 JUMPI PUSH2 0x81F PUSH2 0x4EC JUMP JUMPDEST JUMPDEST DUP2 CALLDATALOAD PUSH2 0x830 DUP5 DUP3 PUSH1 0x20 DUP7 ADD PUSH2 0x7CB JUMP JUMPDEST SWAP2 POP POP SWAP3 SWAP2 POP POP JUMP JUMPDEST PUSH0 PUSH1 0x20 DUP3 DUP5 SUB SLT ISZERO PUSH2 0x84E JUMPI PUSH2 0x84D PUSH2 0x4E4 JUMP JUMPDEST JUMPDEST PUSH0 DUP3 ADD CALLDATALOAD PUSH8 0xFFFFFFFFFFFFFFFF DUP2 GT ISZERO PUSH2 0x86B JUMPI PUSH2 0x86A PUSH2 0x4E8 JUMP JUMPDEST JUMPDEST PUSH2 0x877 DUP5 DUP3 DUP6 ADD PUSH2 0x80C JUMP JUMPDEST SWAP2 POP POP SWAP3 SWAP2 POP POP JUMP JUMPDEST PUSH0 DUP2 MLOAD SWAP1 POP SWAP2 SWAP1 POP JUMP JUMPDEST PUSH0 DUP3 DUP3 MSTORE PUSH1 0x20 DUP3 ADD SWAP1 POP SWAP3 SWAP2 POP POP JUMP JUMPDEST PUSH0 PUSH2 0x8A4 DUP3 PUSH2 0x880 JUMP JUMPDEST PUSH2 0x8AE DUP2 DUP6 PUSH2 0x88A JUMP JUMPDEST SWAP4 POP PUSH2 0x8BE DUP2 DUP6 PUSH1 0x20 DUP7 ADD PUSH2 0x723 JUMP JUMPDEST PUSH2 0x8C7 DUP2 PUSH2 0x4F0 JUMP JUMPDEST DUP5 ADD SWAP2 POP POP SWAP3 SWAP2 POP POP JUMP JUMPDEST PUSH0 PUSH1 0x20 DUP3 ADD SWAP1 POP DUP2 DUP2 SUB PUSH0 DUP4 ADD MSTORE PUSH2 0x8EA DUP2 DUP5 PUSH2 0x89A JUMP JUMPDEST SWAP1 POP SWAP3 SWAP2 POP POP JUMP JUMPDEST PUSH0 PUSH8 0xFFFFFFFFFFFFFFFF DUP3 GT ISZERO PUSH2 0x90C JUMPI PUSH2 0x90B PUSH2 0x500 JUMP JUMPDEST JUMPDEST PUSH2 0x915 DUP3 PUSH2 0x4F0 JUMP JUMPDEST SWAP1 POP PUSH1 0x20 DUP2 ADD SWAP1 POP SWAP2 SWAP1 POP JUMP JUMPDEST PUSH0 PUSH2 0x934 PUSH2 0x92F DUP5 PUSH2 0x8F2 JUMP JUMPDEST PUSH2 0x55E JUMP JUMPDEST SWAP1 POP DUP3 DUP2 MSTORE PUSH1 0x20 DUP2 ADD DUP5 DUP5 DUP5 ADD GT ISZERO PUSH2 0x950 JUMPI PUSH2 0x94F PUSH2 0x789 JUMP JUMPDEST JUMPDEST PUSH2 0x95B DUP5 DUP3 DUP6 PUSH2 0x7BD JUMP JUMPDEST POP SWAP4 SWAP3 POP POP POP JUMP JUMPDEST PUSH0 DUP3 PUSH1 0x1F DUP4 ADD SLT PUSH2 0x977 JUMPI PUSH2 0x976 PUSH2 0x4EC JUMP JUMPDEST JUMPDEST DUP2 CALLDATALOAD PUSH2 0x987 DUP5 DUP3 PUSH1 0x20 DUP7 ADD PUSH2 0x922 JUMP JUMPDEST SWAP2 POP POP SWAP3 SWAP2 POP POP JUMP JUMPDEST PUSH0 PUSH1 0x20 DUP3 DUP5 SUB SLT ISZERO PUSH2 0x9A5 JUMPI PUSH2 0x9A4 PUSH2 0x4E4 JUMP JUMPDEST JUMPDEST PUSH0 DUP3 ADD CALLDATALOAD PUSH8 0xFFFFFFFFFFFFFFFF DUP2 GT ISZERO PUSH2 0x9C2 JUMPI PUSH2 0x9C1 PUSH2 0x4E8 JUMP JUMPDEST JUMPDEST PUSH2 0x9CE DUP5 DUP3 DUP6 ADD PUSH2 0x963 JUMP JUMPDEST SWAP2 POP POP SWAP3 SWAP2 POP POP JUMP JUMPDEST PUSH32 0x6172722069732072657175697265640000000000000000000000000000000000 PUSH0 DUP3 ADD MSTORE POP JUMP JUMPDEST PUSH0 PUSH2 0xA0B PUSH1 0xF DUP4 PUSH2 0x88A JUMP JUMPDEST SWAP2 POP PUSH2 0xA16 DUP3 PUSH2 0x9D7 JUMP JUMPDEST PUSH1 0x20 DUP3 ADD SWAP1 POP SWAP2 SWAP1 POP JUMP JUMPDEST PUSH0 PUSH1 0x20 DUP3 ADD SWAP1 POP DUP2 DUP2 SUB PUSH0 DUP4 ADD MSTORE PUSH2 0xA38 DUP2 PUSH2 0x9FF JUMP JUMPDEST SWAP1 POP SWAP2 SWAP1 POP JUMP JUMPDEST PUSH32 0x4E487B7100000000000000000000000000000000000000000000000000000000 PUSH0 MSTORE PUSH1 0x22 PUSH1 0x4 MSTORE PUSH1 0x24 PUSH0 REVERT JUMPDEST PUSH0 PUSH1 0x2 DUP3 DIV SWAP1 POP PUSH1 0x1 DUP3 AND DUP1 PUSH2 0xA83 JUMPI PUSH1 0x7F DUP3 AND SWAP2 POP JUMPDEST PUSH1 0x20 DUP3 LT DUP2 SUB PUSH2 0xA96 JUMPI PUSH2 0xA95 PUSH2 0xA3F JUMP JUMPDEST JUMPDEST POP SWAP2 SWAP1 POP JUMP JUMPDEST PUSH32 0x696E646578206F7574626F756E64000000000000000000000000000000000000 PUSH0 DUP3 ADD MSTORE POP JUMP JUMPDEST PUSH0 PUSH2 0xAD0 PUSH1 0xE DUP4 PUSH2 0x88A JUMP JUMPDEST SWAP2 POP PUSH2 0xADB DUP3 PUSH2 0xA9C JUMP JUMPDEST PUSH1 0x20 DUP3 ADD SWAP1 POP SWAP2 SWAP1 POP JUMP JUMPDEST PUSH0 PUSH1 0x20 DUP3 ADD SWAP1 POP DUP2 DUP2 SUB PUSH0 DUP4 ADD MSTORE PUSH2 0xAFD DUP2 PUSH2 0xAC4 JUMP JUMPDEST SWAP1 POP SWAP2 SWAP1 POP JUMP JUMPDEST PUSH32 0x4E487B7100000000000000000000000000000000000000000000000000000000 PUSH0 MSTORE PUSH1 0x11 PUSH1 0x4 MSTORE PUSH1 0x24 PUSH0 REVERT JUMPDEST PUSH0 PUSH2 0xB3B DUP3 PUSH2 0x5A7 JUMP JUMPDEST SWAP2 POP PUSH2 0xB46 DUP4 PUSH2 0x5A7 JUMP JUMPDEST SWAP3 POP DUP3 DUP3 SUB SWAP1 POP DUP2 DUP2 GT ISZERO PUSH2 0xB5E JUMPI PUSH2 0xB5D PUSH2 0xB04 JUMP JUMPDEST JUMPDEST SWAP3 SWAP2 POP POP JUMP JUMPDEST PUSH32 0x4E487B7100000000000000000000000000000000000000000000000000000000 PUSH0 MSTORE PUSH1 0x32 PUSH1 0x4 MSTORE PUSH1 0x24 PUSH0 REVERT JUMPDEST PUSH32 0x4E487B7100000000000000000000000000000000000000000000000000000000 PUSH0 MSTORE PUSH1 0x31 PUSH1 0x4 MSTORE PUSH1 0x24 PUSH0 REVERT JUMPDEST PUSH0 DUP2 SWAP1 POP DUP2 PUSH0 MSTORE PUSH1 0x20 PUSH0 KECCAK256 SWAP1 POP SWAP2 SWAP1 POP JUMP JUMPDEST PUSH0 PUSH1 0x20 PUSH1 0x1F DUP4 ADD DIV SWAP1 POP SWAP2 SWAP1 POP JUMP JUMPDEST PUSH0 DUP3 DUP3 SHL SWAP1 POP SWAP3 SWAP2 POP POP JUMP JUMPDEST PUSH0 PUSH1 0x8 DUP4 MUL PUSH2 0xC1A PUSH32 0xFFFFFFFFFFFFFFFFFFFFFFFFFFFFFFFFFFFFFFFFFFFFFFFFFFFFFFFFFFFFFFFF DUP3 PUSH2 0xBDF JUMP JUMPDEST PUSH2 0xC24 DUP7 DUP4 PUSH2 0xBDF JUMP JUMPDEST SWAP6 POP DUP1 NOT DUP5 AND SWAP4 POP DUP1 DUP7 AND DUP5 OR SWAP3 POP POP POP SWAP4 SWAP3 POP POP POP JUMP JUMPDEST PUSH0 DUP2 SWAP1 POP SWAP2 SWAP1 POP JUMP JUMPDEST PUSH0 PUSH2 0xC5F PUSH2 0xC5A PUSH2 0xC55 DUP5 PUSH2 0x5A7 JUMP JUMPDEST PUSH2 0xC3C JUMP JUMPDEST PUSH2 0x5A7 JUMP JUMPDEST SWAP1 POP SWAP2 SWAP1 POP JUMP JUMPDEST PUSH0 DUP2 SWAP1 POP SWAP2 SWAP1 POP JUMP JUMPDEST PUSH2 0xC78 DUP4 PUSH2 0xC45 JUMP JUMPDEST PUSH2 0xC8C PUSH2 0xC84 DUP3 PUSH2 0xC66 JUMP JUMPDEST DUP5 DUP5 SLOAD PUSH2 0xBEB JUMP JUMPDEST DUP3 SSTORE POP POP POP POP JUMP JUMPDEST PUSH0 SWAP1 JUMP JUMPDEST PUSH2 0xCA0 PUSH2 0xC94 JUMP JUMPDEST PUSH2 0xCAB DUP2 DUP5 DUP5 PUSH2 0xC6F JUMP JUMPDEST POP POP POP JUMP JUMPDEST JUMPDEST DUP2 DUP2 LT ISZERO PUSH2 0xCCE JUMPI PUSH2 0xCC3 PUSH0 DUP3 PUSH2 0xC98 JUMP JUMPDEST PUSH1 0x1 DUP2 ADD SWAP1 POP PUSH2 0xCB1 JUMP JUMPDEST POP POP JUMP JUMPDEST PUSH1 0x1F DUP3 GT ISZERO PUSH2 0xD13 JUMPI PUSH2 0xCE4 DUP2 PUSH2 0xBBE JUMP JUMPDEST PUSH2 0xCED DUP5 PUSH2 0xBD0 JUMP JUMPDEST DUP2 ADD PUSH1 0x20 DUP6 LT ISZERO PUSH2 0xCFC JUMPI DUP2 SWAP1 POP JUMPDEST PUSH2 0xD10 PUSH2 0xD08 DUP6 PUSH2 0xBD0 JUMP JUMPDEST DUP4 ADD DUP3 PUSH2 0xCB0 JUMP JUMPDEST POP POP JUMPDEST POP POP POP JUMP JUMPDEST PUSH0 DUP3 DUP3 SHR SWAP1 POP SWAP3 SWAP2 POP POP JUMP JUMPDEST PUSH0 PUSH2 0xD33 PUSH0 NOT DUP5 PUSH1 0x8 MUL PUSH2 0xD18 JUMP JUMPDEST NOT DUP1 DUP4 AND SWAP2 POP POP SWAP3 SWAP2 POP POP JUMP JUMPDEST PUSH0 PUSH2 0xD4B DUP4 DUP4 PUSH2 0xD24 JUMP JUMPDEST SWAP2 POP DUP3 PUSH1 0x2 MUL DUP3 OR SWAP1 POP SWAP3 SWAP2 POP POP JUMP JUMPDEST PUSH2 0xD64 DUP3 PUSH2 0x709 JUMP JUMPDEST PUSH8 0xFFFFFFFFFFFFFFFF DUP2 GT ISZERO PUSH2 0xD7D JUMPI PUSH2 0xD7C PUSH2 0x500 JUMP JUMPDEST JUMPDEST PUSH2 0xD87 DUP3 SLOAD PUSH2 0xA6C JUMP JUMPDEST PUSH2 0xD92 DUP3 DUP3 DUP6 PUSH2 0xCD2 JUMP JUMPDEST PUSH0 PUSH1 0x20 SWAP1 POP PUSH1 0x1F DUP4 GT PUSH1 0x1 DUP2 EQ PUSH2 0xDC3 JUMPI PUSH0 DUP5 ISZERO PUSH2 0xDB1 JUMPI DUP3 DUP8 ADD MLOAD SWAP1 POP JUMPDEST PUSH2 0xDBB DUP6 DUP3 PUSH2 0xD40 JUMP JUMPDEST DUP7 SSTORE POP PUSH2 0xE22 JUMP JUMPDEST PUSH1 0x1F NOT DUP5 AND PUSH2 0xDD1 DUP7 PUSH2 0xBBE JUMP JUMPDEST PUSH0 JUMPDEST DUP3 DUP2 LT ISZERO PUSH2 0xDF8 JUMPI DUP5 DUP10 ADD MLOAD DUP3 SSTORE PUSH1 0x1 DUP3 ADD SWAP2 POP PUSH1 0x20 DUP6 ADD SWAP5 POP PUSH1 0x20 DUP2 ADD SWAP1 POP PUSH2 0xDD3 JUMP JUMPDEST DUP7 DUP4 LT ISZERO PUSH2 0xE15 JUMPI DUP5 DUP10 ADD MLOAD PUSH2 0xE11 PUSH1 0x1F DUP10 AND DUP3 PUSH2 0xD24 JUMP JUMPDEST DUP4 SSTORE POP JUMPDEST PUSH1 0x1 PUSH1 0x2 DUP9 MUL ADD DUP9 SSTORE POP POP POP JUMPDEST POP POP POP POP POP POP JUMP JUMPDEST PUSH0 DUP2 SWAP1 POP DUP2 PUSH0 MSTORE PUSH1 0x20 PUSH0 KECCAK256 SWAP1 POP SWAP2 SWAP1 POP JUMP JUMPDEST PUSH1 0x1F DUP3 GT ISZERO PUSH2 0xE7D JUMPI PUSH2 0xE4E DUP2 PUSH2 0xE2A JUMP JUMPDEST PUSH2 0xE57 DUP5 PUSH2 0xBD0 JUMP JUMPDEST DUP2 ADD PUSH1 0x20 DUP6 LT ISZERO PUSH2 0xE66 JUMPI DUP2 SWAP1 POP JUMPDEST PUSH2 0xE7A PUSH2 0xE72 DUP6 PUSH2 0xBD0 JUMP JUMPDEST DUP4 ADD DUP3 PUSH2 0xCB0 JUMP JUMPDEST POP POP JUMPDEST POP POP POP JUMP JUMPDEST PUSH2 0xE8B DUP3 PUSH2 0x880 JUMP JUMPDEST PUSH8 0xFFFFFFFFFFFFFFFF DUP2 GT ISZERO PUSH2 0xEA4 JUMPI PUSH2 0xEA3 PUSH2 0x500 JUMP JUMPDEST JUMPDEST PUSH2 0xEAE DUP3 SLOAD PUSH2 0xA6C JUMP JUMPDEST PUSH2 0xEB9 DUP3 DUP3 DUP6 PUSH2 0xE3C JUMP JUMPDEST PUSH0 PUSH1 0x20 SWAP1 POP PUSH1 0x1F DUP4 GT PUSH1 0x1 DUP2 EQ PUSH2 0xEEA JUMPI PUSH0 DUP5 ISZERO PUSH2 0xED8 JUMPI DUP3 DUP8 ADD MLOAD SWAP1 POP JUMPDEST PUSH2 0xEE2 DUP6 DUP3 PUSH2 0xD40 JUMP JUMPDEST DUP7 SSTORE POP PUSH2 0xF49 JUMP JUMPDEST PUSH1 0x1F NOT DUP5 AND PUSH2 0xEF8 DUP7 PUSH2 0xE2A JUMP JUMPDEST PUSH0 JUMPDEST DUP3 DUP2 LT ISZERO PUSH2 0xF1F JUMPI DUP5 DUP10 ADD MLOAD DUP3 SSTORE PUSH1 0x1 DUP3 ADD SWAP2 POP PUSH1 0x20 DUP6 ADD SWAP5 POP PUSH1 0x20 DUP2 ADD SWAP1 POP PUSH2 0xEFA JUMP JUMPDEST DUP7 DUP4 LT ISZERO PUSH2 0xF3C JUMPI DUP5 DUP10 ADD MLOAD PUSH2 0xF38 PUSH1 0x1F DUP10 AND DUP3 PUSH2 0xD24 JUMP JUMPDEST DUP4 SSTORE POP JUMPDEST PUSH1 0x1 PUSH1 0x2 DUP9 MUL ADD DUP9 SSTORE POP POP POP JUMPDEST POP POP POP POP POP POP JUMP JUMPDEST PUSH0 PUSH2 0xF5B DUP3 PUSH2 0x5A7 JUMP JUMPDEST SWAP2 POP PUSH2 0xF66 DUP4 PUSH2 0x5A7 JUMP JUMPDEST SWAP3 POP DUP3 DUP3 ADD SWAP1 POP DUP1 DUP3 GT ISZERO PUSH2 0xF7E JUMPI PUSH2 0xF7D PUSH2 0xB04 JUMP JUMPDEST JUMPDEST SWAP3 SWAP2 POP POP JUMP INVALID LOG2 PUSH5 0x6970667358 0x22 SLT KECCAK256 CALLDATALOAD SWAP4 DELEGATECALL PUSH26 0xA84F4FA621513585842D866BB6C671AC063A6CF28971BC50FE56 PUSH14 0x1F64736F6C634300081A00330000 "
		},
		"gasEstimates": {
			"creation": {
				"codeDepositCost": "805200",
				"executionCost": "836",
				"totalCost": "806036"
			},
			"external": {
				"addBytes(bytes)": "infinite",
				"addStr(string)": "infinite",
				"array(uint256)": "infinite",
				"bytesArray(uint256)": "infinite",
				"changeLength(uint256)": "infinite",
				"strArray(uint256)": "infinite",
				"sum(uint256[])": "infinite"
			},
			"internal": {
				"sumOfArr_(uint256[] memory)": "infinite"
			}
		},
		"methodIdentifiers": {
			"addBytes(bytes)": "d6d55548",
			"addStr(string)": "f982c2cd",
			"array(uint256)": "38d94193",
			"bytesArray(uint256)": "24f955e2",
			"changeLength(uint256)": "7f65ec0b",
			"strArray(uint256)": "e87bd7c7",
			"sum(uint256[])": "0194db8e"
		}
	},
	"abi": [
		{
			"inputs": [
				{
					"internalType": "bytes",
					"name": "data",
					"type": "bytes"
				}
			],
			"name": "addBytes",
			"outputs": [],
			"stateMutability": "nonpayable",
			"type": "function"
		},
		{
			"inputs": [
				{
					"internalType": "string",
					"name": "data",
					"type": "string"
				}
			],
			"name": "addStr",
			"outputs": [],
			"stateMutability": "nonpayable",
			"type": "function"
		},
		{
			"inputs": [
				{
					"internalType": "uint256",
					"name": "",
					"type": "uint256"
				}
			],
			"name": "array",
			"outputs": [
				{
					"internalType": "uint256",
					"name": "",
					"type": "uint256"
				}
			],
			"stateMutability": "view",
			"type": "function"
		},
		{
			"inputs": [
				{
					"internalType": "uint256",
					"name": "",
					"type": "uint256"
				}
			],
			"name": "bytesArray",
			"outputs": [
				{
					"internalType": "bytes",
					"name": "",
					"type": "bytes"
				}
			],
			"stateMutability": "view",
			"type": "function"
		},
		{
			"inputs": [
				{
					"internalType": "uint256",
					"name": "index",
					"type": "uint256"
				}
			],
			"name": "changeLength",
			"outputs": [],
			"stateMutability": "nonpayable",
			"type": "function"
		},
		{
			"inputs": [
				{
					"internalType": "uint256",
					"name": "",
					"type": "uint256"
				}
			],
			"name": "strArray",
			"outputs": [
				{
					"internalType": "string",
					"name": "",
					"type": "string"
				}
			],
			"stateMutability": "view",
			"type": "function"
		},
		{
			"inputs": [
				{
					"internalType": "uint256[]",
					"name": "arr",
					"type": "uint256[]"
				}
			],
			"name": "sum",
			"outputs": [
				{
					"internalType": "uint256",
					"name": "",
					"type": "uint256"
				}
			],
			"stateMutability": "pure",
			"type": "function"
		}
	]
}