{
	"data": {
		"bytecode": {
			"linkReferences": {},
			"object": "6080604052348015600e575f80fd5b50606a80601a5f395ff3fe6080604052348015600e575f80fd5b50600436106026575f3560e01c80634d41892f14602a575b5f80fd5b60306032565b005b56fea2646970667358221220b76f6dec9c840b6f0b8542c35f303b5e65275b7f5ba9bfb56702f9366b4bf61064736f6c634300081a0033",
			"opcodes": "PUSH1 0x80 PUSH1 0x40 MSTORE CALLVALUE DUP1 ISZERO PUSH1 0xE JUMPI PUSH0 DUP1 REVERT JUMPDEST POP PUSH1 0x6A DUP1 PUSH1 0x1A PUSH0 CODECOPY PUSH0 RETURN INVALID PUSH1 0x80 PUSH1 0x40 MSTORE CALLVALUE DUP1 ISZERO PUSH1 0xE JUMPI PUSH0 DUP1 REVERT JUMPDEST POP PUSH1 0x4 CALLDATASIZE LT PUSH1 0x26 JUMPI PUSH0 CALLDATALOAD PUSH1 0xE0 SHR DUP1 PUSH4 0x4D41892F EQ PUSH1 0x2A JUMPI JUMPDEST PUSH0 DUP1 REVERT JUMPDEST PUSH1 0x30 PUSH1 0x32 JUMP JUMPDEST STOP JUMPDEST JUMP INVALID LOG2 PUSH5 0x6970667358 0x22 SLT KECCAK256 0xB7 PUSH16 0x6DEC9C840B6F0B8542C35F303B5E6527 JUMPDEST PUSH32 0x5BA9BFB56702F9366B4BF61064736F6C634300081A0033000000000000000000 "
		},
		"gasEstimates": {
			"creation": {
				"codeDepositCost": "21200",
				"executionCost": "73",
				"totalCost": "21273"
			},
			"external": {
				"area()": "121"
			}
		},
		"methodIdentifiers": {
			"area()": "4d41892f"
		}
	},
	"abi": [
		{
			"inputs": [],
			"name": "area",
			"outputs": [],
			"stateMutability": "nonpayable",
			"type": "function"
		}
	]
}