{
	"data": {
		"bytecode": {
			"linkReferences": {},
			"object": "6080604052600a5f556014600155601e600255348015601c575f80fd5b506103778061002a5f395ff3fe608060405234801561000f575f80fd5b5060043610610060575f3560e01c80630dbe671f1461006457806370e83be31461008257806371dd626b146100a05780637446b6b0146100be578063925ea78d146100ee578063eccbd4c21461010c575b5f80fd5b61006c61012a565b60405161007991906101cb565b60405180910390f35b61008a61012f565b60405161009791906101cb565b60405180910390f35b6100a8610138565b6040516100b591906101cb565b60405180910390f35b6100d860048036038101906100d39190610212565b610147565b6040516100e591906101cb565b60405180910390f35b6100f6610190565b60405161010391906101cb565b60405180910390f35b6101146101a1565b60405161012191906101cb565b60405180910390f35b5f5481565b5f600154905090565b5f60655f819055505f54905090565b5f80600190505b82811161018a575f600282610163919061026a565b1461017757808261017491906102c7565b91505b8080610182906102fa565b91505061014e565b50919050565b5f60c9600181905550600154905090565b5f61012d600281905550600254905090565b5f819050919050565b6101c5816101b3565b82525050565b5f6020820190506101de5f8301846101bc565b92915050565b5f80fd5b6101f1816101b3565b81146101fb575f80fd5b50565b5f8135905061020c816101e8565b92915050565b5f60208284031215610227576102266101e4565b5b5f610234848285016101fe565b91505092915050565b7f4e487b71000000000000000000000000000000000000000000000000000000005f52601260045260245ffd5b5f610274826101b3565b915061027f836101b3565b92508261028f5761028e61023d565b5b828206905092915050565b7f4e487b71000000000000000000000000000000000000000000000000000000005f52601160045260245ffd5b5f6102d1826101b3565b91506102dc836101b3565b92508282019050808211156102f4576102f361029a565b5b92915050565b5f610304826101b3565b91507fffffffffffffffffffffffffffffffffffffffffffffffffffffffffffffffff82036103365761033561029a565b5b60018201905091905056fea26469706673582212203a3135f99cd599a95203e7c326811615b998d0a73b3ed2027ad84f2b3ab3e0cc64736f6c634300081a0033",
			"opcodes": "PUSH1 0x80 PUSH1 0x40 MSTORE PUSH1 0xA PUSH0 SSTORE PUSH1 0x14 PUSH1 0x1 SSTORE PUSH1 0x1E PUSH1 0x2 SSTORE CALLVALUE DUP1 ISZERO PUSH1 0x1C JUMPI PUSH0 DUP1 REVERT JUMPDEST POP PUSH2 0x377 DUP1 PUSH2 0x2A PUSH0 CODECOPY PUSH0 RETURN INVALID PUSH1 0x80 PUSH1 0x40 MSTORE CALLVALUE DUP1 ISZERO PUSH2 0xF JUMPI PUSH0 DUP1 REVERT JUMPDEST POP PUSH1 0x4 CALLDATASIZE LT PUSH2 0x60 JUMPI PUSH0 CALLDATALOAD PUSH1 0xE0 SHR DUP1 PUSH4 0xDBE671F EQ PUSH2 0x64 JUMPI DUP1 PUSH4 0x70E83BE3 EQ PUSH2 0x82 JUMPI DUP1 PUSH4 0x71DD626B EQ PUSH2 0xA0 JUMPI DUP1 PUSH4 0x7446B6B0 EQ PUSH2 0xBE JUMPI DUP1 PUSH4 0x925EA78D EQ PUSH2 0xEE JUMPI DUP1 PUSH4 0xECCBD4C2 EQ PUSH2 0x10C JUMPI JUMPDEST PUSH0 DUP1 REVERT JUMPDEST PUSH2 0x6C PUSH2 0x12A JUMP JUMPDEST PUSH1 0x40 MLOAD PUSH2 0x79 SWAP2 SWAP1 PUSH2 0x1CB JUMP JUMPDEST PUSH1 0x40 MLOAD DUP1 SWAP2 SUB SWAP1 RETURN JUMPDEST PUSH2 0x8A PUSH2 0x12F JUMP JUMPDEST PUSH1 0x40 MLOAD PUSH2 0x97 SWAP2 SWAP1 PUSH2 0x1CB JUMP JUMPDEST PUSH1 0x40 MLOAD DUP1 SWAP2 SUB SWAP1 RETURN JUMPDEST PUSH2 0xA8 PUSH2 0x138 JUMP JUMPDEST PUSH1 0x40 MLOAD PUSH2 0xB5 SWAP2 SWAP1 PUSH2 0x1CB JUMP JUMPDEST PUSH1 0x40 MLOAD DUP1 SWAP2 SUB SWAP1 RETURN JUMPDEST PUSH2 0xD8 PUSH1 0x4 DUP1 CALLDATASIZE SUB DUP2 ADD SWAP1 PUSH2 0xD3 SWAP2 SWAP1 PUSH2 0x212 JUMP JUMPDEST PUSH2 0x147 JUMP JUMPDEST PUSH1 0x40 MLOAD PUSH2 0xE5 SWAP2 SWAP1 PUSH2 0x1CB JUMP JUMPDEST PUSH1 0x40 MLOAD DUP1 SWAP2 SUB SWAP1 RETURN JUMPDEST PUSH2 0xF6 PUSH2 0x190 JUMP JUMPDEST PUSH1 0x40 MLOAD PUSH2 0x103 SWAP2 SWAP1 PUSH2 0x1CB JUMP JUMPDEST PUSH1 0x40 MLOAD DUP1 SWAP2 SUB SWAP1 RETURN JUMPDEST PUSH2 0x114 PUSH2 0x1A1 JUMP JUMPDEST PUSH1 0x40 MLOAD PUSH2 0x121 SWAP2 SWAP1 PUSH2 0x1CB JUMP JUMPDEST PUSH1 0x40 MLOAD DUP1 SWAP2 SUB SWAP1 RETURN JUMPDEST PUSH0 SLOAD DUP2 JUMP JUMPDEST PUSH0 PUSH1 0x1 SLOAD SWAP1 POP SWAP1 JUMP JUMPDEST PUSH0 PUSH1 0x65 PUSH0 DUP2 SWAP1 SSTORE POP PUSH0 SLOAD SWAP1 POP SWAP1 JUMP JUMPDEST PUSH0 DUP1 PUSH1 0x1 SWAP1 POP JUMPDEST DUP3 DUP2 GT PUSH2 0x18A JUMPI PUSH0 PUSH1 0x2 DUP3 PUSH2 0x163 SWAP2 SWAP1 PUSH2 0x26A JUMP JUMPDEST EQ PUSH2 0x177 JUMPI DUP1 DUP3 PUSH2 0x174 SWAP2 SWAP1 PUSH2 0x2C7 JUMP JUMPDEST SWAP2 POP JUMPDEST DUP1 DUP1 PUSH2 0x182 SWAP1 PUSH2 0x2FA JUMP JUMPDEST SWAP2 POP POP PUSH2 0x14E JUMP JUMPDEST POP SWAP2 SWAP1 POP JUMP JUMPDEST PUSH0 PUSH1 0xC9 PUSH1 0x1 DUP2 SWAP1 SSTORE POP PUSH1 0x1 SLOAD SWAP1 POP SWAP1 JUMP JUMPDEST PUSH0 PUSH2 0x12D PUSH1 0x2 DUP2 SWAP1 SSTORE POP PUSH1 0x2 SLOAD SWAP1 POP SWAP1 JUMP JUMPDEST PUSH0 DUP2 SWAP1 POP SWAP2 SWAP1 POP JUMP JUMPDEST PUSH2 0x1C5 DUP2 PUSH2 0x1B3 JUMP JUMPDEST DUP3 MSTORE POP POP JUMP JUMPDEST PUSH0 PUSH1 0x20 DUP3 ADD SWAP1 POP PUSH2 0x1DE PUSH0 DUP4 ADD DUP5 PUSH2 0x1BC JUMP JUMPDEST SWAP3 SWAP2 POP POP JUMP JUMPDEST PUSH0 DUP1 REVERT JUMPDEST PUSH2 0x1F1 DUP2 PUSH2 0x1B3 JUMP JUMPDEST DUP2 EQ PUSH2 0x1FB JUMPI PUSH0 DUP1 REVERT JUMPDEST POP JUMP JUMPDEST PUSH0 DUP2 CALLDATALOAD SWAP1 POP PUSH2 0x20C DUP2 PUSH2 0x1E8 JUMP JUMPDEST SWAP3 SWAP2 POP POP JUMP JUMPDEST PUSH0 PUSH1 0x20 DUP3 DUP5 SUB SLT ISZERO PUSH2 0x227 JUMPI PUSH2 0x226 PUSH2 0x1E4 JUMP JUMPDEST JUMPDEST PUSH0 PUSH2 0x234 DUP5 DUP3 DUP6 ADD PUSH2 0x1FE JUMP JUMPDEST SWAP2 POP POP SWAP3 SWAP2 POP POP JUMP JUMPDEST PUSH32 0x4E487B7100000000000000000000000000000000000000000000000000000000 PUSH0 MSTORE PUSH1 0x12 PUSH1 0x4 MSTORE PUSH1 0x24 PUSH0 REVERT JUMPDEST PUSH0 PUSH2 0x274 DUP3 PUSH2 0x1B3 JUMP JUMPDEST SWAP2 POP PUSH2 0x27F DUP4 PUSH2 0x1B3 JUMP JUMPDEST SWAP3 POP DUP3 PUSH2 0x28F JUMPI PUSH2 0x28E PUSH2 0x23D JUMP JUMPDEST JUMPDEST DUP3 DUP3 MOD SWAP1 POP SWAP3 SWAP2 POP POP JUMP JUMPDEST PUSH32 0x4E487B7100000000000000000000000000000000000000000000000000000000 PUSH0 MSTORE PUSH1 0x11 PUSH1 0x4 MSTORE PUSH1 0x24 PUSH0 REVERT JUMPDEST PUSH0 PUSH2 0x2D1 DUP3 PUSH2 0x1B3 JUMP JUMPDEST SWAP2 POP PUSH2 0x2DC DUP4 PUSH2 0x1B3 JUMP JUMPDEST SWAP3 POP DUP3 DUP3 ADD SWAP1 POP DUP1 DUP3 GT ISZERO PUSH2 0x2F4 JUMPI PUSH2 0x2F3 PUSH2 0x29A JUMP JUMPDEST JUMPDEST SWAP3 SWAP2 POP POP JUMP JUMPDEST PUSH0 PUSH2 0x304 DUP3 PUSH2 0x1B3 JUMP JUMPDEST SWAP2 POP PUSH32 0xFFFFFFFFFFFFFFFFFFFFFFFFFFFFFFFFFFFFFFFFFFFFFFFFFFFFFFFFFFFFFFFF DUP3 SUB PUSH2 0x336 JUMPI PUSH2 0x335 PUSH2 0x29A JUMP JUMPDEST JUMPDEST PUSH1 0x1 DUP3 ADD SWAP1 POP SWAP2 SWAP1 POP JUMP INVALID LOG2 PUSH5 0x6970667358 0x22 SLT KECCAK256 GASPRICE BALANCE CALLDATALOAD 0xF9 SWAP13 0xD5 SWAP10 0xA9 MSTORE SUB 0xE7 0xC3 0x26 DUP2 AND ISZERO 0xB9 SWAP9 0xD0 0xA7 EXTCODESIZE RETURNDATACOPY 0xD2 MUL PUSH27 0xD84F2B3AB3E0CC64736F6C634300081A0033000000000000000000 "
		},
		"gasEstimates": {
			"creation": {
				"codeDepositCost": "177400",
				"executionCost": "66535",
				"totalCost": "243935"
			},
			"external": {
				"a()": "2402",
				"sumByFor(uint256)": "infinite",
				"testA()": "24566",
				"testB()": "24612",
				"testC()": "24634",
				"testE()": "2432"
			}
		},
		"methodIdentifiers": {
			"a()": "0dbe671f",
			"sumByFor(uint256)": "7446b6b0",
			"testA()": "71dd626b",
			"testB()": "925ea78d",
			"testC()": "eccbd4c2",
			"testE()": "70e83be3"
		}
	},
	"abi": [
		{
			"inputs": [],
			"name": "a",
			"outputs": [
				{
					"internalType": "uint256",
					"name": "",
					"type": "uint256"
				}
			],
			"stateMutability": "view",
			"type": "function"
		},
		{
			"inputs": [
				{
					"internalType": "uint256",
					"name": "n",
					"type": "uint256"
				}
			],
			"name": "sumByFor",
			"outputs": [
				{
					"internalType": "uint256",
					"name": "sum",
					"type": "uint256"
				}
			],
			"stateMutability": "pure",
			"type": "function"
		},
		{
			"inputs": [],
			"name": "testA",
			"outputs": [
				{
					"internalType": "uint256",
					"name": "",
					"type": "uint256"
				}
			],
			"stateMutability": "nonpayable",
			"type": "function"
		},
		{
			"inputs": [],
			"name": "testB",
			"outputs": [
				{
					"internalType": "uint256",
					"name": "",
					"type": "uint256"
				}
			],
			"stateMutability": "nonpayable",
			"type": "function"
		},
		{
			"inputs": [],
			"name": "testC",
			"outputs": [
				{
					"internalType": "uint256",
					"name": "",
					"type": "uint256"
				}
			],
			"stateMutability": "nonpayable",
			"type": "function"
		},
		{
			"inputs": [],
			"name": "testE",
			"outputs": [
				{
					"internalType": "uint256",
					"name": "",
					"type": "uint256"
				}
			],
			"stateMutability": "view",
			"type": "function"
		}
	]
}