{
	"data": {
		"bytecode": {
			"linkReferences": {},
			"object": "6080604052348015600e575f80fd5b50607e80601a5f395ff3fe6080604052348015600e575f80fd5b50600436106030575f3560e01c806317d7de7c14603457806358b08d2e14603c575b5f80fd5b603a6044565b005b60426046565b005b565b56fea2646970667358221220ced3ac273ba190809a7adab25c935140109afb052a2fb8b635a3c4ef473f77ec64736f6c634300081a0033",
			"opcodes": "PUSH1 0x80 PUSH1 0x40 MSTORE CALLVALUE DUP1 ISZERO PUSH1 0xE JUMPI PUSH0 DUP1 REVERT JUMPDEST POP PUSH1 0x7E DUP1 PUSH1 0x1A PUSH0 CODECOPY PUSH0 RETURN INVALID PUSH1 0x80 PUSH1 0x40 MSTORE CALLVALUE DUP1 ISZERO PUSH1 0xE JUMPI PUSH0 DUP1 REVERT JUMPDEST POP PUSH1 0x4 CALLDATASIZE LT PUSH1 0x30 JUMPI PUSH0 CALLDATALOAD PUSH1 0xE0 SHR DUP1 PUSH4 0x17D7DE7C EQ PUSH1 0x34 JUMPI DUP1 PUSH4 0x58B08D2E EQ PUSH1 0x3C JUMPI JUMPDEST PUSH0 DUP1 REVERT JUMPDEST PUSH1 0x3A PUSH1 0x44 JUMP JUMPDEST STOP JUMPDEST PUSH1 0x42 PUSH1 0x46 JUMP JUMPDEST STOP JUMPDEST JUMP JUMPDEST JUMP INVALID LOG2 PUSH5 0x6970667358 0x22 SLT KECCAK256 0xCE 0xD3 0xAC 0x27 EXTCODESIZE LOG1 SWAP1 DUP1 SWAP11 PUSH27 0xDAB25C935140109AFB052A2FB8B635A3C4EF473F77EC64736F6C63 NUMBER STOP ADDMOD BYTE STOP CALLER "
		},
		"gasEstimates": {
			"creation": {
				"codeDepositCost": "25200",
				"executionCost": "73",
				"totalCost": "25273"
			},
			"external": {
				"getName()": "121",
				"getSalary()": "143"
			}
		},
		"methodIdentifiers": {
			"getName()": "17d7de7c",
			"getSalary()": "58b08d2e"
		}
	},
	"abi": [
		{
			"inputs": [],
			"name": "getName",
			"outputs": [],
			"stateMutability": "nonpayable",
			"type": "function"
		},
		{
			"inputs": [],
			"name": "getSalary",
			"outputs": [],
			"stateMutability": "nonpayable",
			"type": "function"
		}
	]
}