{
	"data": {
		"bytecode": {
			"linkReferences": {},
			"object": "6080604052348015600e575f80fd5b50606a80601a5f395ff3fe6080604052348015600e575f80fd5b50600436106026575f3560e01c80634d41892f14602a575b5f80fd5b60306032565b005b56fea2646970667358221220c694e3a625f84a6bb1e39a9c6d341fdbc6fea632ea135bf58447aedf36d8051d64736f6c634300081a0033",
			"opcodes": "PUSH1 0x80 PUSH1 0x40 MSTORE CALLVALUE DUP1 ISZERO PUSH1 0xE JUMPI PUSH0 DUP1 REVERT JUMPDEST POP PUSH1 0x6A DUP1 PUSH1 0x1A PUSH0 CODECOPY PUSH0 RETURN INVALID PUSH1 0x80 PUSH1 0x40 MSTORE CALLVALUE DUP1 ISZERO PUSH1 0xE JUMPI PUSH0 DUP1 REVERT JUMPDEST POP PUSH1 0x4 CALLDATASIZE LT PUSH1 0x26 JUMPI PUSH0 CALLDATALOAD PUSH1 0xE0 SHR DUP1 PUSH4 0x4D41892F EQ PUSH1 0x2A JUMPI JUMPDEST PUSH0 DUP1 REVERT JUMPDEST PUSH1 0x30 PUSH1 0x32 JUMP JUMPDEST STOP JUMPDEST JUMP INVALID LOG2 PUSH5 0x6970667358 0x22 SLT KECCAK256 0xC6 SWAP5 0xE3 0xA6 0x25 0xF8 BLOBBASEFEE PUSH12 0xB1E39A9C6D341FDBC6FEA632 0xEA SGT JUMPDEST CREATE2 DUP5 SELFBALANCE 0xAE 0xDF CALLDATASIZE 0xD8 SDIV SAR PUSH5 0x736F6C6343 STOP ADDMOD BYTE STOP CALLER "
		},
		"gasEstimates": {
			"creation": {
				"codeDepositCost": "21200",
				"executionCost": "73",
				"totalCost": "21273"
			},
			"external": {
				"area()": "121"
			}
		},
		"methodIdentifiers": {
			"area()": "4d41892f"
		}
	},
	"abi": [
		{
			"inputs": [],
			"name": "area",
			"outputs": [],
			"stateMutability": "nonpayable",
			"type": "function"
		}
	]
}