{
	"data": {
		"bytecode": {
			"linkReferences": {},
			"object": "6080604052348015600e575f80fd5b5061038c8061001c5f395ff3fe608060405234801561000f575f80fd5b5060043610610029575f3560e01c8063a87430ba1461002d575b5f80fd5b610047600480360381019061004291906101f5565b610060565b60405161005794939291906102a8565b60405180910390f35b5f602052805f5260405f205f91509050805f01805461007e90610326565b80601f01602080910402602001604051908101604052809291908181526020018280546100aa90610326565b80156100f55780601f106100cc576101008083540402835291602001916100f5565b820191905f5260205f20905b8154815290600101906020018083116100d857829003601f168201915b50505050509080600101549080600201805461011090610326565b80601f016020809104026020016040519081016040528092919081815260200182805461013c90610326565b80156101875780601f1061015e57610100808354040283529160200191610187565b820191905f5260205f20905b81548152906001019060200180831161016a57829003601f168201915b5050505050908060030154905084565b5f80fd5b5f73ffffffffffffffffffffffffffffffffffffffff82169050919050565b5f6101c48261019b565b9050919050565b6101d4816101ba565b81146101de575f80fd5b50565b5f813590506101ef816101cb565b92915050565b5f6020828403121561020a57610209610197565b5b5f610217848285016101e1565b91505092915050565b5f81519050919050565b5f82825260208201905092915050565b8281835e5f83830152505050565b5f601f19601f8301169050919050565b5f61026282610220565b61026c818561022a565b935061027c81856020860161023a565b61028581610248565b840191505092915050565b5f819050919050565b6102a281610290565b82525050565b5f6080820190508181035f8301526102c08187610258565b90506102cf6020830186610299565b81810360408301526102e18185610258565b90506102f06060830184610299565b95945050505050565b7f4e487b71000000000000000000000000000000000000000000000000000000005f52602260045260245ffd5b5f600282049050600182168061033d57607f821691505b6020821081036103505761034f6102f9565b5b5091905056fea2646970667358221220ce445320a398785d36f33d6b2a6cb8117ad8184f25dc1d6ff84d5eda4ad36d2164736f6c634300081a0033",
			"opcodes": "PUSH1 0x80 PUSH1 0x40 MSTORE CALLVALUE DUP1 ISZERO PUSH1 0xE JUMPI PUSH0 DUP1 REVERT JUMPDEST POP PUSH2 0x38C DUP1 PUSH2 0x1C PUSH0 CODECOPY PUSH0 RETURN INVALID PUSH1 0x80 PUSH1 0x40 MSTORE CALLVALUE DUP1 ISZERO PUSH2 0xF JUMPI PUSH0 DUP1 REVERT JUMPDEST POP PUSH1 0x4 CALLDATASIZE LT PUSH2 0x29 JUMPI PUSH0 CALLDATALOAD PUSH1 0xE0 SHR DUP1 PUSH4 0xA87430BA EQ PUSH2 0x2D JUMPI JUMPDEST PUSH0 DUP1 REVERT JUMPDEST PUSH2 0x47 PUSH1 0x4 DUP1 CALLDATASIZE SUB DUP2 ADD SWAP1 PUSH2 0x42 SWAP2 SWAP1 PUSH2 0x1F5 JUMP JUMPDEST PUSH2 0x60 JUMP JUMPDEST PUSH1 0x40 MLOAD PUSH2 0x57 SWAP5 SWAP4 SWAP3 SWAP2 SWAP1 PUSH2 0x2A8 JUMP JUMPDEST PUSH1 0x40 MLOAD DUP1 SWAP2 SUB SWAP1 RETURN JUMPDEST PUSH0 PUSH1 0x20 MSTORE DUP1 PUSH0 MSTORE PUSH1 0x40 PUSH0 KECCAK256 PUSH0 SWAP2 POP SWAP1 POP DUP1 PUSH0 ADD DUP1 SLOAD PUSH2 0x7E SWAP1 PUSH2 0x326 JUMP JUMPDEST DUP1 PUSH1 0x1F ADD PUSH1 0x20 DUP1 SWAP2 DIV MUL PUSH1 0x20 ADD PUSH1 0x40 MLOAD SWAP1 DUP2 ADD PUSH1 0x40 MSTORE DUP1 SWAP3 SWAP2 SWAP1 DUP2 DUP2 MSTORE PUSH1 0x20 ADD DUP3 DUP1 SLOAD PUSH2 0xAA SWAP1 PUSH2 0x326 JUMP JUMPDEST DUP1 ISZERO PUSH2 0xF5 JUMPI DUP1 PUSH1 0x1F LT PUSH2 0xCC JUMPI PUSH2 0x100 DUP1 DUP4 SLOAD DIV MUL DUP4 MSTORE SWAP2 PUSH1 0x20 ADD SWAP2 PUSH2 0xF5 JUMP JUMPDEST DUP3 ADD SWAP2 SWAP1 PUSH0 MSTORE PUSH1 0x20 PUSH0 KECCAK256 SWAP1 JUMPDEST DUP2 SLOAD DUP2 MSTORE SWAP1 PUSH1 0x1 ADD SWAP1 PUSH1 0x20 ADD DUP1 DUP4 GT PUSH2 0xD8 JUMPI DUP3 SWAP1 SUB PUSH1 0x1F AND DUP3 ADD SWAP2 JUMPDEST POP POP POP POP POP SWAP1 DUP1 PUSH1 0x1 ADD SLOAD SWAP1 DUP1 PUSH1 0x2 ADD DUP1 SLOAD PUSH2 0x110 SWAP1 PUSH2 0x326 JUMP JUMPDEST DUP1 PUSH1 0x1F ADD PUSH1 0x20 DUP1 SWAP2 DIV MUL PUSH1 0x20 ADD PUSH1 0x40 MLOAD SWAP1 DUP2 ADD PUSH1 0x40 MSTORE DUP1 SWAP3 SWAP2 SWAP1 DUP2 DUP2 MSTORE PUSH1 0x20 ADD DUP3 DUP1 SLOAD PUSH2 0x13C SWAP1 PUSH2 0x326 JUMP JUMPDEST DUP1 ISZERO PUSH2 0x187 JUMPI DUP1 PUSH1 0x1F LT PUSH2 0x15E JUMPI PUSH2 0x100 DUP1 DUP4 SLOAD DIV MUL DUP4 MSTORE SWAP2 PUSH1 0x20 ADD SWAP2 PUSH2 0x187 JUMP JUMPDEST DUP3 ADD SWAP2 SWAP1 PUSH0 MSTORE PUSH1 0x20 PUSH0 KECCAK256 SWAP1 JUMPDEST DUP2 SLOAD DUP2 MSTORE SWAP1 PUSH1 0x1 ADD SWAP1 PUSH1 0x20 ADD DUP1 DUP4 GT PUSH2 0x16A JUMPI DUP3 SWAP1 SUB PUSH1 0x1F AND DUP3 ADD SWAP2 JUMPDEST POP POP POP POP POP SWAP1 DUP1 PUSH1 0x3 ADD SLOAD SWAP1 POP DUP5 JUMP JUMPDEST PUSH0 DUP1 REVERT JUMPDEST PUSH0 PUSH20 0xFFFFFFFFFFFFFFFFFFFFFFFFFFFFFFFFFFFFFFFF DUP3 AND SWAP1 POP SWAP2 SWAP1 POP JUMP JUMPDEST PUSH0 PUSH2 0x1C4 DUP3 PUSH2 0x19B JUMP JUMPDEST SWAP1 POP SWAP2 SWAP1 POP JUMP JUMPDEST PUSH2 0x1D4 DUP2 PUSH2 0x1BA JUMP JUMPDEST DUP2 EQ PUSH2 0x1DE JUMPI PUSH0 DUP1 REVERT JUMPDEST POP JUMP JUMPDEST PUSH0 DUP2 CALLDATALOAD SWAP1 POP PUSH2 0x1EF DUP2 PUSH2 0x1CB JUMP JUMPDEST SWAP3 SWAP2 POP POP JUMP JUMPDEST PUSH0 PUSH1 0x20 DUP3 DUP5 SUB SLT ISZERO PUSH2 0x20A JUMPI PUSH2 0x209 PUSH2 0x197 JUMP JUMPDEST JUMPDEST PUSH0 PUSH2 0x217 DUP5 DUP3 DUP6 ADD PUSH2 0x1E1 JUMP JUMPDEST SWAP2 POP POP SWAP3 SWAP2 POP POP JUMP JUMPDEST PUSH0 DUP2 MLOAD SWAP1 POP SWAP2 SWAP1 POP JUMP JUMPDEST PUSH0 DUP3 DUP3 MSTORE PUSH1 0x20 DUP3 ADD SWAP1 POP SWAP3 SWAP2 POP POP JUMP JUMPDEST DUP3 DUP2 DUP4 MCOPY PUSH0 DUP4 DUP4 ADD MSTORE POP POP POP JUMP JUMPDEST PUSH0 PUSH1 0x1F NOT PUSH1 0x1F DUP4 ADD AND SWAP1 POP SWAP2 SWAP1 POP JUMP JUMPDEST PUSH0 PUSH2 0x262 DUP3 PUSH2 0x220 JUMP JUMPDEST PUSH2 0x26C DUP2 DUP6 PUSH2 0x22A JUMP JUMPDEST SWAP4 POP PUSH2 0x27C DUP2 DUP6 PUSH1 0x20 DUP7 ADD PUSH2 0x23A JUMP JUMPDEST PUSH2 0x285 DUP2 PUSH2 0x248 JUMP JUMPDEST DUP5 ADD SWAP2 POP POP SWAP3 SWAP2 POP POP JUMP JUMPDEST PUSH0 DUP2 SWAP1 POP SWAP2 SWAP1 POP JUMP JUMPDEST PUSH2 0x2A2 DUP2 PUSH2 0x290 JUMP JUMPDEST DUP3 MSTORE POP POP JUMP JUMPDEST PUSH0 PUSH1 0x80 DUP3 ADD SWAP1 POP DUP2 DUP2 SUB PUSH0 DUP4 ADD MSTORE PUSH2 0x2C0 DUP2 DUP8 PUSH2 0x258 JUMP JUMPDEST SWAP1 POP PUSH2 0x2CF PUSH1 0x20 DUP4 ADD DUP7 PUSH2 0x299 JUMP JUMPDEST DUP2 DUP2 SUB PUSH1 0x40 DUP4 ADD MSTORE PUSH2 0x2E1 DUP2 DUP6 PUSH2 0x258 JUMP JUMPDEST SWAP1 POP PUSH2 0x2F0 PUSH1 0x60 DUP4 ADD DUP5 PUSH2 0x299 JUMP JUMPDEST SWAP6 SWAP5 POP POP POP POP POP JUMP JUMPDEST PUSH32 0x4E487B7100000000000000000000000000000000000000000000000000000000 PUSH0 MSTORE PUSH1 0x22 PUSH1 0x4 MSTORE PUSH1 0x24 PUSH0 REVERT JUMPDEST PUSH0 PUSH1 0x2 DUP3 DIV SWAP1 POP PUSH1 0x1 DUP3 AND DUP1 PUSH2 0x33D JUMPI PUSH1 0x7F DUP3 AND SWAP2 POP JUMPDEST PUSH1 0x20 DUP3 LT DUP2 SUB PUSH2 0x350 JUMPI PUSH2 0x34F PUSH2 0x2F9 JUMP JUMPDEST JUMPDEST POP SWAP2 SWAP1 POP JUMP INVALID LOG2 PUSH5 0x6970667358 0x22 SLT KECCAK256 0xCE PREVRANDAO MSTORE8 KECCAK256 LOG3 SWAP9 PUSH25 0x5D36F33D6B2A6CB8117AD8184F25DC1D6FF84D5EDA4AD36D21 PUSH5 0x736F6C6343 STOP ADDMOD BYTE STOP CALLER "
		},
		"gasEstimates": {
			"creation": {
				"codeDepositCost": "181600",
				"executionCost": "224",
				"totalCost": "181824"
			},
			"external": {
				"users(address)": "infinite"
			}
		},
		"methodIdentifiers": {
			"users(address)": "a87430ba"
		}
	},
	"abi": [
		{
			"inputs": [
				{
					"internalType": "address",
					"name": "",
					"type": "address"
				}
			],
			"name": "users",
			"outputs": [
				{
					"internalType": "string",
					"name": "userName",
					"type": "string"
				},
				{
					"internalType": "uint256",
					"name": "age",
					"type": "uint256"
				},
				{
					"internalType": "string",
					"name": "gender",
					"type": "string"
				},
				{
					"internalType": "uint256",
					"name": "balance",
					"type": "uint256"
				}
			],
			"stateMutability": "view",
			"type": "function"
		}
	]
}